{
  "_format": "hh-sol-artifact-1",
  "contractName": "Test",
  "sourceName": "contracts/ProxyContract.sol",
  "abi": [
    {
      "inputs": [
        {
          "internalType": "bytes32",
          "name": "_bytes32",
          "type": "bytes32"
        }
      ],
      "name": "bytes32ToString",
      "outputs": [
        {
          "internalType": "string",
          "name": "",
          "type": "string"
        }
      ],
      "stateMutability": "pure",
      "type": "function"
    },
    {
      "inputs": [
        {
          "internalType": "bytes32",
          "name": "msg",
          "type": "bytes32"
        }
      ],
      "name": "log",
      "outputs": [],
      "stateMutability": "view",
      "type": "function"
    }
  ],
  "bytecode": "0x608060405234801561001057600080fd5b506103f5806100206000396000f3fe608060405234801561001057600080fd5b50600436106100365760003560e01c806327b7cf851461003b5780639201de5514610069575b600080fd5b6100676004803603602081101561005157600080fd5b8101908080359060200190929190505050610110565b005b6100956004803603602081101561007f57600080fd5b8101908080359060200190929190505050610124565b6040518080602001828103825283818151815260200191508051906020019080838360005b838110156100d55780820151818401526020810190506100ba565b50505050905090810190601f1680156101025780820380516001836020036101000a031916815260200191505b509250505060405180910390f35b61012161011c82610124565b610298565b50565b606060008090505b60208160ff161080156101775750600060f81b838260ff166020811061014e57fe5b1a60f81b7effffffffffffffffffffffffffffffffffffffffffffffffffffffffffffff191614155b1561018957808060010191505061012c565b60608160ff1667ffffffffffffffff811180156101a557600080fd5b506040519080825280601f01601f1916602001820160405280156101d85781602001600182028036833780820191505090505b509050600091505b60208260ff1610801561022b5750600060f81b848360ff166020811061020257fe5b1a60f81b7effffffffffffffffffffffffffffffffffffffffffffffffffffffffffffff191614155b1561028e57838260ff166020811061023f57fe5b1a60f81b818360ff168151811061025257fe5b60200101907effffffffffffffffffffffffffffffffffffffffffffffffffffffffffffff1916908160001a90535081806001019250506101e0565b8092505050919050565b610393816040516024018080602001828103825283818151815260200191508051906020019080838360005b838110156102df5780820151818401526020810190506102c4565b50505050905090810190601f16801561030c5780820380516001836020036101000a031916815260200191505b50925050506040516020818303038152906040527f41304fac000000000000000000000000000000000000000000000000000000007bffffffffffffffffffffffffffffffffffffffffffffffffffffffff19166020820180517bffffffffffffffffffffffffffffffffffffffffffffffffffffffff8381831617835250505050610396565b50565b60008151905060006a636f6e736f6c652e6c6f679050602083016000808483855afa505050505056fea26469706673582212200e4674846d4959756346f38b307c9cf3e2ba890493de56962356b70081fa24de64736f6c63430006090033",
  "linkReferences": {},
  "deployedLinkReferences": {}
}