{
  "_format": "hh-sol-artifact-1",
  "contractName": "LimitOrderBook",
  "sourceName": "contracts/LimitOrderBook.sol",
  "abi": [
    {
      "inputs": [],
      "stateMutability": "nonpayable",
      "type": "constructor"
    },
    {
      "anonymous": false,
      "inputs": [
        {
          "indexed": true,
          "internalType": "address",
          "name": "trader",
          "type": "address"
        },
        {
          "indexed": false,
          "internalType": "uint256",
          "name": "order_id",
          "type": "uint256"
        }
      ],
      "name": "OrderCreated",
      "type": "event"
    },
    {
      "anonymous": false,
      "inputs": [
        {
          "indexed": true,
          "internalType": "address",
          "name": "previousOwner",
          "type": "address"
        },
        {
          "indexed": true,
          "internalType": "address",
          "name": "newOwner",
          "type": "address"
        }
      ],
      "name": "OwnershipTransferred",
      "type": "event"
    },
    {
      "inputs": [
        {
          "internalType": "address",
          "name": "_asset",
          "type": "address"
        },
        {
          "components": [
            {
              "internalType": "uint256",
              "name": "d",
              "type": "uint256"
            }
          ],
          "internalType": "struct Decimal.decimal",
          "name": "_limitPrice",
          "type": "tuple"
        },
        {
          "components": [
            {
              "internalType": "int256",
              "name": "d",
              "type": "int256"
            }
          ],
          "internalType": "struct SignedDecimal.signedDecimal",
          "name": "_positionSize",
          "type": "tuple"
        },
        {
          "components": [
            {
              "internalType": "uint256",
              "name": "d",
              "type": "uint256"
            }
          ],
          "internalType": "struct Decimal.decimal",
          "name": "_collateral",
          "type": "tuple"
        },
        {
          "components": [
            {
              "internalType": "uint256",
              "name": "d",
              "type": "uint256"
            }
          ],
          "internalType": "struct Decimal.decimal",
          "name": "_leverage",
          "type": "tuple"
        },
        {
          "components": [
            {
              "internalType": "uint256",
              "name": "d",
              "type": "uint256"
            }
          ],
          "internalType": "struct Decimal.decimal",
          "name": "_slippage",
          "type": "tuple"
        },
        {
          "components": [
            {
              "internalType": "uint256",
              "name": "d",
              "type": "uint256"
            }
          ],
          "internalType": "struct Decimal.decimal",
          "name": "_tipFee",
          "type": "tuple"
        },
        {
          "internalType": "bool",
          "name": "_reduceOnly",
          "type": "bool"
        },
        {
          "internalType": "uint256",
          "name": "_expiry",
          "type": "uint256"
        }
      ],
      "name": "addLimitOrder",
      "outputs": [],
      "stateMutability": "nonpayable",
      "type": "function"
    },
    {
      "inputs": [
        {
          "internalType": "address",
          "name": "_asset",
          "type": "address"
        },
        {
          "components": [
            {
              "internalType": "uint256",
              "name": "d",
              "type": "uint256"
            }
          ],
          "internalType": "struct Decimal.decimal",
          "name": "_limitPrice",
          "type": "tuple"
        },
        {
          "components": [
            {
              "internalType": "uint256",
              "name": "d",
              "type": "uint256"
            }
          ],
          "internalType": "struct Decimal.decimal",
          "name": "_stopPrice",
          "type": "tuple"
        },
        {
          "components": [
            {
              "internalType": "int256",
              "name": "d",
              "type": "int256"
            }
          ],
          "internalType": "struct SignedDecimal.signedDecimal",
          "name": "_positionSize",
          "type": "tuple"
        },
        {
          "components": [
            {
              "internalType": "uint256",
              "name": "d",
              "type": "uint256"
            }
          ],
          "internalType": "struct Decimal.decimal",
          "name": "_collateral",
          "type": "tuple"
        },
        {
          "components": [
            {
              "internalType": "uint256",
              "name": "d",
              "type": "uint256"
            }
          ],
          "internalType": "struct Decimal.decimal",
          "name": "_leverage",
          "type": "tuple"
        },
        {
          "components": [
            {
              "internalType": "uint256",
              "name": "d",
              "type": "uint256"
            }
          ],
          "internalType": "struct Decimal.decimal",
          "name": "_slippage",
          "type": "tuple"
        },
        {
          "components": [
            {
              "internalType": "uint256",
              "name": "d",
              "type": "uint256"
            }
          ],
          "internalType": "struct Decimal.decimal",
          "name": "_tipFee",
          "type": "tuple"
        },
        {
          "internalType": "bool",
          "name": "_reduceOnly",
          "type": "bool"
        },
        {
          "internalType": "uint256",
          "name": "_expiry",
          "type": "uint256"
        }
      ],
      "name": "addStopLimitOrder",
      "outputs": [],
      "stateMutability": "nonpayable",
      "type": "function"
    },
    {
      "inputs": [
        {
          "internalType": "address",
          "name": "_asset",
          "type": "address"
        },
        {
          "components": [
            {
              "internalType": "uint256",
              "name": "d",
              "type": "uint256"
            }
          ],
          "internalType": "struct Decimal.decimal",
          "name": "_stopPrice",
          "type": "tuple"
        },
        {
          "components": [
            {
              "internalType": "int256",
              "name": "d",
              "type": "int256"
            }
          ],
          "internalType": "struct SignedDecimal.signedDecimal",
          "name": "_positionSize",
          "type": "tuple"
        },
        {
          "components": [
            {
              "internalType": "uint256",
              "name": "d",
              "type": "uint256"
            }
          ],
          "internalType": "struct Decimal.decimal",
          "name": "_collateral",
          "type": "tuple"
        },
        {
          "components": [
            {
              "internalType": "uint256",
              "name": "d",
              "type": "uint256"
            }
          ],
          "internalType": "struct Decimal.decimal",
          "name": "_leverage",
          "type": "tuple"
        },
        {
          "components": [
            {
              "internalType": "uint256",
              "name": "d",
              "type": "uint256"
            }
          ],
          "internalType": "struct Decimal.decimal",
          "name": "_slippage",
          "type": "tuple"
        },
        {
          "components": [
            {
              "internalType": "uint256",
              "name": "d",
              "type": "uint256"
            }
          ],
          "internalType": "struct Decimal.decimal",
          "name": "_tipFee",
          "type": "tuple"
        },
        {
          "internalType": "bool",
          "name": "_reduceOnly",
          "type": "bool"
        },
        {
          "internalType": "uint256",
          "name": "_expiry",
          "type": "uint256"
        }
      ],
      "name": "addStopOrder",
      "outputs": [],
      "stateMutability": "nonpayable",
      "type": "function"
    },
    {
      "inputs": [
        {
          "internalType": "uint256",
          "name": "id",
          "type": "uint256"
        }
      ],
      "name": "execute",
      "outputs": [],
      "stateMutability": "nonpayable",
      "type": "function"
    },
    {
      "inputs": [],
      "name": "factory",
      "outputs": [
        {
          "internalType": "contract SmartWalletFactory",
          "name": "",
          "type": "address"
        }
      ],
      "stateMutability": "view",
      "type": "function"
    },
    {
      "inputs": [
        {
          "internalType": "uint256",
          "name": "id",
          "type": "uint256"
        }
      ],
      "name": "getLimitOrder",
      "outputs": [
        {
          "components": [
            {
              "internalType": "address",
              "name": "asset",
              "type": "address"
            },
            {
              "internalType": "address",
              "name": "trader",
              "type": "address"
            },
            {
              "internalType": "enum LimitOrderBook.OrderType",
              "name": "orderType",
              "type": "uint8"
            },
            {
              "internalType": "bool",
              "name": "reduceOnly",
              "type": "bool"
            },
            {
              "internalType": "bool",
              "name": "stillValid",
              "type": "bool"
            },
            {
              "internalType": "uint256",
              "name": "expiry",
              "type": "uint256"
            },
            {
              "components": [
                {
                  "internalType": "uint256",
                  "name": "d",
                  "type": "uint256"
                }
              ],
              "internalType": "struct Decimal.decimal",
              "name": "limitPrice",
              "type": "tuple"
            },
            {
              "components": [
                {
                  "internalType": "uint256",
                  "name": "d",
                  "type": "uint256"
                }
              ],
              "internalType": "struct Decimal.decimal",
              "name": "stopPrice",
              "type": "tuple"
            },
            {
              "components": [
                {
                  "internalType": "int256",
                  "name": "d",
                  "type": "int256"
                }
              ],
              "internalType": "struct SignedDecimal.signedDecimal",
              "name": "orderSize",
              "type": "tuple"
            },
            {
              "components": [
                {
                  "internalType": "uint256",
                  "name": "d",
                  "type": "uint256"
                }
              ],
              "internalType": "struct Decimal.decimal",
              "name": "collateral",
              "type": "tuple"
            },
            {
              "components": [
                {
                  "internalType": "uint256",
                  "name": "d",
                  "type": "uint256"
                }
              ],
              "internalType": "struct Decimal.decimal",
              "name": "leverage",
              "type": "tuple"
            },
            {
              "components": [
                {
                  "internalType": "uint256",
                  "name": "d",
                  "type": "uint256"
                }
              ],
              "internalType": "struct Decimal.decimal",
              "name": "slippage",
              "type": "tuple"
            },
            {
              "components": [
                {
                  "internalType": "uint256",
                  "name": "d",
                  "type": "uint256"
                }
              ],
              "internalType": "struct Decimal.decimal",
              "name": "tipFee",
              "type": "tuple"
            }
          ],
          "internalType": "struct LimitOrderBook.LimitOrder",
          "name": "",
          "type": "tuple"
        }
      ],
      "stateMutability": "view",
      "type": "function"
    },
    {
      "inputs": [
        {
          "internalType": "uint256",
          "name": "id",
          "type": "uint256"
        }
      ],
      "name": "getLimitOrderParams",
      "outputs": [
        {
          "internalType": "address",
          "name": "",
          "type": "address"
        },
        {
          "internalType": "address",
          "name": "",
          "type": "address"
        },
        {
          "internalType": "enum LimitOrderBook.OrderType",
          "name": "",
          "type": "uint8"
        },
        {
          "internalType": "bool",
          "name": "",
          "type": "bool"
        },
        {
          "internalType": "bool",
          "name": "",
          "type": "bool"
        },
        {
          "internalType": "uint256",
          "name": "",
          "type": "uint256"
        }
      ],
      "stateMutability": "view",
      "type": "function"
    },
    {
      "inputs": [
        {
          "internalType": "uint256",
          "name": "id",
          "type": "uint256"
        }
      ],
      "name": "getLimitOrderPrices",
      "outputs": [
        {
          "components": [
            {
              "internalType": "uint256",
              "name": "d",
              "type": "uint256"
            }
          ],
          "internalType": "struct Decimal.decimal",
          "name": "",
          "type": "tuple"
        },
        {
          "components": [
            {
              "internalType": "uint256",
              "name": "d",
              "type": "uint256"
            }
          ],
          "internalType": "struct Decimal.decimal",
          "name": "",
          "type": "tuple"
        },
        {
          "components": [
            {
              "internalType": "int256",
              "name": "d",
              "type": "int256"
            }
          ],
          "internalType": "struct SignedDecimal.signedDecimal",
          "name": "",
          "type": "tuple"
        },
        {
          "components": [
            {
              "internalType": "uint256",
              "name": "d",
              "type": "uint256"
            }
          ],
          "internalType": "struct Decimal.decimal",
          "name": "",
          "type": "tuple"
        },
        {
          "components": [
            {
              "internalType": "uint256",
              "name": "d",
              "type": "uint256"
            }
          ],
          "internalType": "struct Decimal.decimal",
          "name": "",
          "type": "tuple"
        },
        {
          "components": [
            {
              "internalType": "uint256",
              "name": "d",
              "type": "uint256"
            }
          ],
          "internalType": "struct Decimal.decimal",
          "name": "",
          "type": "tuple"
        },
        {
          "components": [
            {
              "internalType": "uint256",
              "name": "d",
              "type": "uint256"
            }
          ],
          "internalType": "struct Decimal.decimal",
          "name": "",
          "type": "tuple"
        }
      ],
      "stateMutability": "view",
      "type": "function"
    },
    {
      "inputs": [],
      "name": "getNextOrderId",
      "outputs": [
        {
          "internalType": "uint256",
          "name": "",
          "type": "uint256"
        }
      ],
      "stateMutability": "view",
      "type": "function"
    },
    {
      "inputs": [
        {
          "internalType": "uint256",
          "name": "",
          "type": "uint256"
        }
      ],
      "name": "orders",
      "outputs": [
        {
          "internalType": "address",
          "name": "asset",
          "type": "address"
        },
        {
          "internalType": "address",
          "name": "trader",
          "type": "address"
        },
        {
          "internalType": "enum LimitOrderBook.OrderType",
          "name": "orderType",
          "type": "uint8"
        },
        {
          "internalType": "bool",
          "name": "reduceOnly",
          "type": "bool"
        },
        {
          "internalType": "bool",
          "name": "stillValid",
          "type": "bool"
        },
        {
          "internalType": "uint256",
          "name": "expiry",
          "type": "uint256"
        },
        {
          "components": [
            {
              "internalType": "uint256",
              "name": "d",
              "type": "uint256"
            }
          ],
          "internalType": "struct Decimal.decimal",
          "name": "limitPrice",
          "type": "tuple"
        },
        {
          "components": [
            {
              "internalType": "uint256",
              "name": "d",
              "type": "uint256"
            }
          ],
          "internalType": "struct Decimal.decimal",
          "name": "stopPrice",
          "type": "tuple"
        },
        {
          "components": [
            {
              "internalType": "int256",
              "name": "d",
              "type": "int256"
            }
          ],
          "internalType": "struct SignedDecimal.signedDecimal",
          "name": "orderSize",
          "type": "tuple"
        },
        {
          "components": [
            {
              "internalType": "uint256",
              "name": "d",
              "type": "uint256"
            }
          ],
          "internalType": "struct Decimal.decimal",
          "name": "collateral",
          "type": "tuple"
        },
        {
          "components": [
            {
              "internalType": "uint256",
              "name": "d",
              "type": "uint256"
            }
          ],
          "internalType": "struct Decimal.decimal",
          "name": "leverage",
          "type": "tuple"
        },
        {
          "components": [
            {
              "internalType": "uint256",
              "name": "d",
              "type": "uint256"
            }
          ],
          "internalType": "struct Decimal.decimal",
          "name": "slippage",
          "type": "tuple"
        },
        {
          "components": [
            {
              "internalType": "uint256",
              "name": "d",
              "type": "uint256"
            }
          ],
          "internalType": "struct Decimal.decimal",
          "name": "tipFee",
          "type": "tuple"
        }
      ],
      "stateMutability": "view",
      "type": "function"
    },
    {
      "inputs": [],
      "name": "owner",
      "outputs": [
        {
          "internalType": "address",
          "name": "",
          "type": "address"
        }
      ],
      "stateMutability": "view",
      "type": "function"
    },
    {
      "inputs": [],
      "name": "renounceOwnership",
      "outputs": [],
      "stateMutability": "nonpayable",
      "type": "function"
    },
    {
      "inputs": [
        {
          "internalType": "address",
          "name": "_addr",
          "type": "address"
        }
      ],
      "name": "setFactory",
      "outputs": [],
      "stateMutability": "nonpayable",
      "type": "function"
    },
    {
      "inputs": [
        {
          "internalType": "address",
          "name": "newOwner",
          "type": "address"
        }
      ],
      "name": "transferOwnership",
      "outputs": [],
      "stateMutability": "nonpayable",
      "type": "function"
    }
  ],
  "bytecode": "0x608060405234801561001057600080fd5b5060006100246001600160e01b0361007316565b600080546001600160a01b0319166001600160a01b0383169081178255604051929350917f8be0079c531659141344cd1fd0a4f28419497f9722a3daafe3b4186f6b6457e0908290a350610077565b3390565b6122f5806100866000396000f3fe608060405234801561001057600080fd5b50600436106100ea5760003560e01c806386f896421161008c578063c45a015511610066578063c45a0155146101e9578063e36a2dc0146101f1578063f2fde38b14610217578063fe0d94c11461022a576100ea565b806386f89642146101955780638da5cb5b146101a8578063a85c38ef146101bd576100ea565b806353061026116100c857806353061026146101455780635bb4780814610165578063715018a6146101785780638158900b14610180576100ea565b8063032e4f6e146100ef5780632736f620146101045780634c5789e314610117575b600080fd5b6101026100fd366004611b52565b61023d565b005b610102610112366004611b52565b610497565b61012a610125366004611c1a565b610606565b60405161013c96959493929190611ca0565b60405180910390f35b610158610153366004611c1a565b6107ae565b60405161013c9190612137565b610102610173366004611a5b565b610914565b610102610982565b610188610a18565b60405161013c9190612267565b6101026101a3366004611a93565b610a1e565b6101b0610ca2565b60405161013c9190611c8c565b6101d06101cb366004611c1a565b610cb1565b60405161013c9d9c9b9a99989796959493929190611ce2565b6101b0610d7f565b6102046101ff366004611c1a565b610d8e565b60405161013c9796959493929190612236565b610102610225366004611a5b565b610f7a565b610102610238366004611c1a565b611047565b80158061024957508042105b61026e5760405162461bcd60e51b815260040161026590611eb2565b60405180910390fd5b60345460405133917fcb0c37c16aa3b0bbb7a817932094d8a20a00996d426a813f067039f0ef87ab07916102a29190612267565b60405180910390a2604080516101a0810182526001600160a01b038b168152336020820152603491810160028152841515602082015260016040820152606081018490526080016102f16112ce565b815260208082018c905260408083018c9052606083018b9052608083018a905260a0830189905260c09092018790528354600180820186556000958652948290208451600a90920201805473ffffffffffffffffffffffffffffffffffffffff199081166001600160a01b03938416178255928501519581018054909316959091169490941780825591830151929392917fffffffffffffffffffffff00ffffffffffffffffffffffffffffffffffffffff16600160a01b8360038111156103b557fe5b0217905550606082015160018201805460808501511515600160b01b027fffffffffffffffffff00ffffffffffffffffffffffffffffffffffffffffffff931515600160a81b027fffffffffffffffffffff00ffffffffffffffffffffffffffffffffffffffffff909216919091179290921691909117905560a0820151600282015560c082015151600382015560e08201515160048201556101008201515160058201556101208201515160068201556101408201515160078201556101608201515160088201556101809091015151600990910155505050505050505050565b8015806104a357508042105b6104bf5760405162461bcd60e51b815260040161026590611eb2565b60345460405133917fcb0c37c16aa3b0bbb7a817932094d8a20a00996d426a813f067039f0ef87ab07916104f39190612267565b60405180910390a2604080516101a0810182526001600160a01b038b16815233602082015260349181016001815260200184151581526020016001151581526020018381526020018a81526020016105496112ce565b815260208082018b905260408083018b9052606083018a90526080830189905260a09092018790528354600180820186556000958652948290208451600a90920201805473ffffffffffffffffffffffffffffffffffffffff199081166001600160a01b03938416178255928501519581018054909316959091169490941780825591830151929392917fffffffffffffffffffffff00ffffffffffffffffffffffffffffffffffffffff16600160a01b8360038111156103b557fe5b6000806000806000808660348054905081106106345760405162461bcd60e51b815260040161026590612011565b61063c61197a565b6034898154811061064957fe5b6000918252602091829020604080516101a081018252600a90930290910180546001600160a01b03908116845260018201549081169484019490945291929083019060ff600160a01b9091041660038111156106a157fe5b60038111156106ac57fe5b8152600182015460ff600160a81b820481161515602080850191909152600160b01b90920416151560408084019190915260028401546060808501919091528151808401835260038601548152608080860191909152825180850184526004870154815260a080870191909152835180860185526005880154815260c0870152835180860185526006880154815260e087015283518086018552600788015481526101008701528351808601855260088801548152610120870152835180860185526009909701548752610140909501959095528551928601519186015190860151948601519590930151919e909d50919b5091995091975095509350505050565b6107b661197a565b603454829081106107d95760405162461bcd60e51b815260040161026590612011565b603483815481106107e657fe5b6000918252602091829020604080516101a081018252600a90930290910180546001600160a01b03908116845260018201549081169484019490945291929083019060ff600160a01b90910416600381111561083e57fe5b600381111561084957fe5b8152600182015460ff600160a81b820481161515602080850191909152600160b01b9092041615156040808401919091526002840154606084015280518083018252600385015481526080840152805180830182526004850154815260a0840152805180830182526005850154815260c0840152805180830182526006850154815260e0840152805180830182526007850154815261010084015280518083018252600885015481526101208401528051918201905260099092015482526101400152915050919050565b61091c6112e9565b6001600160a01b031661092d610ca2565b6001600160a01b0316146109535760405162461bcd60e51b8152600401610265906120a5565b6035805473ffffffffffffffffffffffffffffffffffffffff19166001600160a01b0392909216919091179055565b61098a6112e9565b6001600160a01b031661099b610ca2565b6001600160a01b0316146109c15760405162461bcd60e51b8152600401610265906120a5565b600080546040516001600160a01b03909116907f8be0079c531659141344cd1fd0a4f28419497f9722a3daafe3b4186f6b6457e0908390a36000805473ffffffffffffffffffffffffffffffffffffffff19169055565b60345490565b801580610a2a57508042105b610a465760405162461bcd60e51b815260040161026590611eb2565b60345460405133917fcb0c37c16aa3b0bbb7a817932094d8a20a00996d426a813f067039f0ef87ab0791610a7a9190612267565b60405180910390a2604080516101a0810182526001600160a01b038c8116825233602083019081526003938301848152861515606085015260016080850181905260a0850187905260c085018f905260e085018e905261010085018d905261012085018c905261014085018b905261016085018a905261018085018990526034805491820181556000528451600a9091027f46bddb1178e94d7f2892ff5f366840eb658911794f2c3a44c450aa2c505186c18101805492861673ffffffffffffffffffffffffffffffffffffffff1993841617815593517f46bddb1178e94d7f2892ff5f366840eb658911794f2c3a44c450aa2c505186c290910180549190951691161780845590519394919392917fffffffffffffffffffffff00ffffffffffffffffffffffffffffffffffffffff90911690600160a01b908490811115610bbf57fe5b0217905550606082015160018201805460808501511515600160b01b027fffffffffffffffffff00ffffffffffffffffffffffffffffffffffffffffffff931515600160a81b027fffffffffffffffffffff00ffffffffffffffffffffffffffffffffffffffffff909216919091179290921691909117905560a0820151600282015560c082015151600382015560e0820151516004820155610100820151516005820155610120820151516006820155610140820151516007820155610160820151516008820155610180909101515160099091015550505050505050505050565b6000546001600160a01b031690565b60348181548110610cbe57fe5b6000918252602091829020600a9091020180546001820154600283015460408051808701825260038601548152815180880183526004870154815282518089018452600588015481528351808a018552600689015481528451808b01865260078a015481528551808c01875260088b0154815286519b8c019096526009909901548a526001600160a01b039788169a509686169860ff600160a01b8804811699600160a81b8904821699600160b01b9099049091169794959394929390918d565b6035546001600160a01b031681565b610d96611a0b565b610d9e611a0b565b610da6611a0b565b610dae611a0b565b610db6611a0b565b610dbe611a0b565b610dc6611a0b565b60345488908110610de95760405162461bcd60e51b815260040161026590612011565b610df161197a565b60348a81548110610dfe57fe5b6000918252602091829020604080516101a081018252600a90930290910180546001600160a01b03908116845260018201549081169484019490945291929083019060ff600160a01b909104166003811115610e5657fe5b6003811115610e6157fe5b8152600182015460ff600160a81b820481161515602080850191909152600160b01b9092041615156040808401919091526002840154606084015280518083018252600385015481526080840152805180830182526004850154815260a0840152805180830182526005850154815260c080850191909152815180840183526006860154815260e08086019190915282518085018452600787015481526101008087019190915283518086018552600888015481526101208088019190915284519586019094526009909601548452610140948501939093528501519185015193850151908501519285015161016086015161018090960151929e50939c509a5090985090965090945092505050919395979092949650565b610f826112e9565b6001600160a01b0316610f93610ca2565b6001600160a01b031614610fb95760405162461bcd60e51b8152600401610265906120a5565b6001600160a01b038116610fdf5760405162461bcd60e51b815260040161026590611de7565b600080546040516001600160a01b03808516939216917f8be0079c531659141344cd1fd0a4f28419497f9722a3daafe3b4186f6b6457e091a36000805473ffffffffffffffffffffffffffffffffffffffff19166001600160a01b0392909216919091179055565b6034548190811061106a5760405162461bcd60e51b815260040161026590612011565b6034828154811061107757fe5b90600052602060002090600a020160010160169054906101000a900460ff166110b25760405162461bcd60e51b815260040161026590611e44565b603554603480546000926001600160a01b03169163a0b7388191869081106110d657fe5b600091825260209091206001600a9092020101546040517fffffffff0000000000000000000000000000000000000000000000000000000060e084901b16815261112c916001600160a01b031690600401611c8c565b60206040518083038186803b15801561114457600080fd5b505afa158015611158573d6000803e3d6000fd5b505050506040513d601f19601f8201168201806040525081019061117c9190611a77565b90506000816001600160a01b03166394f61134856040518263ffffffff1660e01b81526004016111ac9190612267565b602060405180830381600087803b1580156111c657600080fd5b505af11580156111da573d6000803e3d6000fd5b505050506040513d601f19601f820116820180604052508101906111fe9190611bfe565b905080156112c8576112446040518060400160405280601481526020017f2d5375636365737366756c6c792063616c6c65640000000000000000000000008152506112ed565b61129073ddafbb505ad214d7b80b1f830fccc89b60fb7a8383336034888154811061126b57fe5b60009182526020918290206040805193840190526009600a9092020101548152611361565b60006034858154811061129f57fe5b90600052602060002090600a020160010160166101000a81548160ff0219169083151502179055505b50505050565b6112d6611a0b565b5060408051602081019091526000815290565b3390565b61135e816040516024016113019190611db4565b60408051601f198184030181529190526020810180517bffffffffffffffffffffffffffffffffffffffffffffffffffffffff167f41304fac000000000000000000000000000000000000000000000000000000001790526114c0565b50565b61136a846114e1565b611372611a0b565b61137c858461152e565b9050600061138a86846115c4565b905060006060876001600160a01b03166323b872dd60e01b8888866040516024016113b793929190611d90565b60408051601f198184030181529181526020820180517bffffffffffffffffffffffffffffffffffffffffffffffffffffffff167fffffffff000000000000000000000000000000000000000000000000000000009094169390931790925290516114229190611c70565b6000604051808303816000865af19150503d806000811461145f576040519150601f19603f3d011682016040523d82523d6000602084013e611464565b606091505b509150915081801561148e57508051158061148e57508080602001905181019061148e9190611bfe565b6114aa5760405162461bcd60e51b815260040161026590611fb4565b6114b688878587611642565b5050505050505050565b80516a636f6e736f6c652e6c6f67602083016000808483855afa5050505050565b60006114ec82611695565b6001600160a01b038316600090815260016020526040902054909150811461152a576001600160a01b03821660009081526001602052604090208190555b5050565b611536611a0b565b6115bb83846001600160a01b03166370a08231856040518263ffffffff1660e01b81526004016115669190611c8c565b60206040518083038186803b15801561157e57600080fd5b505afa158015611592573d6000803e3d6000fd5b505050506040513d601f19601f820116820180604052508101906115b69190611c32565b6117b0565b90505b92915050565b6000806115d084611695565b90506012811061160e576116066115ee82601263ffffffff61184216565b600a0a6115fa8561186a565b9063ffffffff61186e16565b9150506115be565b61163a61162260128363ffffffff61184216565b600a0a61162e8561186a565b9063ffffffff6118a816565b949350505050565b61167561165f61165286856117b0565b839063ffffffff6118da16565b611669868661152e565b9063ffffffff61190616565b60000b156112c85760405162461bcd60e51b8152600401610265906120da565b6001600160a01b038116600090815260016020526040812054806115be5760408051600481526024810182526020810180517bffffffffffffffffffffffffffffffffffffffffffffffffffffffff167f313ce5670000000000000000000000000000000000000000000000000000000017905290516000916060916001600160a01b0387169161172591611c70565b600060405180830381855afa9150503d8060008114611760576040519150601f19603f3d011682016040523d82523d6000602084013e611765565b606091505b50915091508180156117775750805115155b6117935760405162461bcd60e51b815260040161026590611f57565b808060200190518101906117a79190611c32565b95945050505050565b6117b8611a0b565b60006117c384611695565b905060128110611808576040805160208101909152806117fd6117ed84601263ffffffff61184216565b8690600a0a63ffffffff6118a816565b8152509150506115be565b60408051602081019091528061183861182860128563ffffffff61184216565b8690600a0a63ffffffff61186e16565b9052949350505050565b6000828211156118645760405162461bcd60e51b815260040161026590611ee9565b50900390565b5190565b60008261187d575060006115be565b8282028284828161188a57fe5b04146115bb5760405162461bcd60e51b815260040161026590612048565b60008082116118c95760405162461bcd60e51b815260040161026590611f20565b8183816118d257fe5b049392505050565b6118e2611a0b565b6118ea611a0b565b825184516118fd9163ffffffff61195516565b81529392505050565b80518251600091101561191b575060016115be565b81518351101561194c57507fffffffffffffffffffffffffffffffffffffffffffffffffffffffffffffffff6115be565b50600092915050565b6000828201838110156115bb5760405162461bcd60e51b815260040161026590611e7b565b604080516101a081018252600080825260208201819052909182019081526000602082018190526040820181905260608201526080016119b8611a0b565b81526020016119c5611a0b565b81526020016119d2611a0b565b81526020016119df611a0b565b81526020016119ec611a0b565b81526020016119f9611a0b565b8152602001611a06611a0b565b905290565b6040518060200160405280600081525090565b600060208284031215611a2f578081fd5b6040516020810181811067ffffffffffffffff82111715611a4e578283fd5b6040529135825250919050565b600060208284031215611a6c578081fd5b81356115bb8161229c565b600060208284031215611a88578081fd5b81516115bb8161229c565b6000806000806000806000806000806101408b8d031215611ab2578586fd5b8a35611abd8161229c565b9950611acc8c60208d01611a1e565b9850611adb8c60408d01611a1e565b9750611aea8c60608d01611a1e565b9650611af98c60808d01611a1e565b9550611b088c60a08d01611a1e565b9450611b178c60c08d01611a1e565b9350611b268c60e08d01611a1e565b92506101008b0135611b37816122b1565b809250506101208b013590509295989b9194979a5092959850565b60008060008060008060008060006101208a8c031215611b70578485fd5b8935611b7b8161229c565b9850611b8a8b60208c01611a1e565b9750611b998b60408c01611a1e565b9650611ba88b60608c01611a1e565b9550611bb78b60808c01611a1e565b9450611bc68b60a08c01611a1e565b9350611bd58b60c08c01611a1e565b925060e08a0135611be5816122b1565b809250506101008a013590509295985092959850929598565b600060208284031215611c0f578081fd5b81516115bb816122b1565b600060208284031215611c2b578081fd5b5035919050565b600060208284031215611c43578081fd5b5051919050565b6001600160a01b03169052565b15159052565b60048110611c6757fe5b9052565b519052565b60008251611c82818460208701612270565b9190910192915050565b6001600160a01b0391909116815260200190565b6001600160a01b0387811682528616602082015260c08101611cc56040830187611c5d565b9315156060820152911515608083015260a0909101529392505050565b6001600160a01b038e811682528d1660208201526101a08101611d08604083018e611c5d565b8b151560608301528a151560808301528960a0830152611d2b60c083018a611c6b565b611d3860e0830189611c6b565b611d46610100830188611c6b565b611d54610120830187611c6b565b611d62610140830186611c6b565b611d70610160830185611c6b565b611d7e610180830184611c6b565b9e9d5050505050505050505050505050565b6001600160a01b039384168152919092166020820152604081019190915260600190565b6000602082528251806020840152611dd3816040850160208701612270565b601f01601f19169190910160400192915050565b60208082526026908201527f4f776e61626c653a206e6577206f776e657220697320746865207a65726f206160408201527f6464726573730000000000000000000000000000000000000000000000000000606082015260800190565b6020808252600f908201527f4e6f206c6f6e6765722076616c69640000000000000000000000000000000000604082015260600190565b6020808252601b908201527f536166654d6174683a206164646974696f6e206f766572666c6f770000000000604082015260600190565b60208082526019908201527f4576656e742077696c6c2065787069726520696e207061737400000000000000604082015260600190565b6020808252601e908201527f536166654d6174683a207375627472616374696f6e206f766572666c6f770000604082015260600190565b6020808252601a908201527f536166654d6174683a206469766973696f6e206279207a65726f000000000000604082015260600190565b60208082526021908201527f446563696d616c45524332303a2067657420646563696d616c73206661696c6560408201527f6400000000000000000000000000000000000000000000000000000000000000606082015260800190565b60208082526021908201527f446563696d616c45524332303a207472616e7366657246726f6d206661696c6560408201527f6400000000000000000000000000000000000000000000000000000000000000606082015260800190565b6020808252600a908201527f496e76616c696420494400000000000000000000000000000000000000000000604082015260600190565b60208082526021908201527f536166654d6174683a206d756c7469706c69636174696f6e206f766572666c6f60408201527f7700000000000000000000000000000000000000000000000000000000000000606082015260800190565b6020808252818101527f4f776e61626c653a2063616c6c6572206973206e6f7420746865206f776e6572604082015260600190565b60208082526022908201527f446563696d616c45524332303a2062616c616e636520696e636f6e736973746560408201527f6e74000000000000000000000000000000000000000000000000000000000000606082015260800190565b60006101a08201905061214b828451611c4a565b602083015161215d6020840182611c4a565b5060408301516121706040840182611c5d565b5060608301516121836060840182611c57565b5060808301516121966080840182611c57565b5060a083015160a083015260c08301516121b360c0840182611c6b565b5060e08301516121c660e0840182611c6b565b50610100808401516121da82850182611c6b565b5050610120808401516121ef82850182611c6b565b50506101408084015161220482850182611c6b565b50506101608084015161221982850182611c6b565b50506101808084015161222e82850182611c6b565b505092915050565b965187529451602087015292516040860152905160608501525160808401525160a08301525160c082015260e00190565b90815260200190565b60005b8381101561228b578181015183820152602001612273565b838111156112c85750506000910152565b6001600160a01b038116811461135e57600080fd5b801515811461135e57600080fdfea264697066735822122048a4879d09d9c377f9a0a1b8360dbbaeab2de4843c9f55907b98f1ee13034b3364736f6c63430006090033",
  "linkReferences": {},
  "deployedLinkReferences": {}
}