{
  "_format": "hh-sol-artifact-1",
  "contractName": "LimitOrderBook",
  "sourceName": "contracts/LimitOrderBook.sol",
  "abi": [
    {
      "anonymous": false,
      "inputs": [
        {
          "indexed": true,
          "internalType": "address",
          "name": "trader",
          "type": "address"
        },
        {
          "indexed": false,
          "internalType": "uint256",
          "name": "order_id",
          "type": "uint256"
        }
      ],
      "name": "OrderChanged",
      "type": "event"
    },
    {
      "anonymous": false,
      "inputs": [
        {
          "indexed": true,
          "internalType": "address",
          "name": "trader",
          "type": "address"
        },
        {
          "indexed": false,
          "internalType": "uint256",
          "name": "order_id",
          "type": "uint256"
        }
      ],
      "name": "OrderCreated",
      "type": "event"
    },
    {
      "anonymous": false,
      "inputs": [
        {
          "indexed": true,
          "internalType": "address",
          "name": "trader",
          "type": "address"
        },
        {
          "indexed": false,
          "internalType": "uint256",
          "name": "order_id",
          "type": "uint256"
        }
      ],
      "name": "OrderFilled",
      "type": "event"
    },
    {
      "anonymous": false,
      "inputs": [
        {
          "indexed": true,
          "internalType": "address",
          "name": "previousOwner",
          "type": "address"
        },
        {
          "indexed": true,
          "internalType": "address",
          "name": "newOwner",
          "type": "address"
        }
      ],
      "name": "OwnershipTransferred",
      "type": "event"
    },
    {
      "anonymous": false,
      "inputs": [
        {
          "indexed": false,
          "internalType": "uint256",
          "name": "order_id",
          "type": "uint256"
        },
        {
          "indexed": false,
          "internalType": "uint256",
          "name": "snapshotIndex",
          "type": "uint256"
        }
      ],
      "name": "TrailingOrderCreated",
      "type": "event"
    },
    {
      "anonymous": false,
      "inputs": [
        {
          "indexed": false,
          "internalType": "uint256",
          "name": "order_id",
          "type": "uint256"
        }
      ],
      "name": "TrailingOrderFilled",
      "type": "event"
    },
    {
      "inputs": [
        {
          "internalType": "contract IAmm",
          "name": "_asset",
          "type": "address"
        },
        {
          "components": [
            {
              "internalType": "uint256",
              "name": "d",
              "type": "uint256"
            }
          ],
          "internalType": "struct Decimal.decimal",
          "name": "_limitPrice",
          "type": "tuple"
        },
        {
          "components": [
            {
              "internalType": "int256",
              "name": "d",
              "type": "int256"
            }
          ],
          "internalType": "struct SignedDecimal.signedDecimal",
          "name": "_positionSize",
          "type": "tuple"
        },
        {
          "components": [
            {
              "internalType": "uint256",
              "name": "d",
              "type": "uint256"
            }
          ],
          "internalType": "struct Decimal.decimal",
          "name": "_collateral",
          "type": "tuple"
        },
        {
          "components": [
            {
              "internalType": "uint256",
              "name": "d",
              "type": "uint256"
            }
          ],
          "internalType": "struct Decimal.decimal",
          "name": "_leverage",
          "type": "tuple"
        },
        {
          "components": [
            {
              "internalType": "uint256",
              "name": "d",
              "type": "uint256"
            }
          ],
          "internalType": "struct Decimal.decimal",
          "name": "_slippage",
          "type": "tuple"
        },
        {
          "components": [
            {
              "internalType": "uint256",
              "name": "d",
              "type": "uint256"
            }
          ],
          "internalType": "struct Decimal.decimal",
          "name": "_tipFee",
          "type": "tuple"
        },
        {
          "internalType": "bool",
          "name": "_reduceOnly",
          "type": "bool"
        },
        {
          "internalType": "uint256",
          "name": "_expiry",
          "type": "uint256"
        }
      ],
      "name": "addLimitOrder",
      "outputs": [],
      "stateMutability": "nonpayable",
      "type": "function"
    },
    {
      "inputs": [
        {
          "internalType": "contract IAmm",
          "name": "_asset",
          "type": "address"
        },
        {
          "components": [
            {
              "internalType": "uint256",
              "name": "d",
              "type": "uint256"
            }
          ],
          "internalType": "struct Decimal.decimal",
          "name": "_stopPrice",
          "type": "tuple"
        },
        {
          "components": [
            {
              "internalType": "uint256",
              "name": "d",
              "type": "uint256"
            }
          ],
          "internalType": "struct Decimal.decimal",
          "name": "_limitPrice",
          "type": "tuple"
        },
        {
          "components": [
            {
              "internalType": "int256",
              "name": "d",
              "type": "int256"
            }
          ],
          "internalType": "struct SignedDecimal.signedDecimal",
          "name": "_positionSize",
          "type": "tuple"
        },
        {
          "components": [
            {
              "internalType": "uint256",
              "name": "d",
              "type": "uint256"
            }
          ],
          "internalType": "struct Decimal.decimal",
          "name": "_collateral",
          "type": "tuple"
        },
        {
          "components": [
            {
              "internalType": "uint256",
              "name": "d",
              "type": "uint256"
            }
          ],
          "internalType": "struct Decimal.decimal",
          "name": "_leverage",
          "type": "tuple"
        },
        {
          "components": [
            {
              "internalType": "uint256",
              "name": "d",
              "type": "uint256"
            }
          ],
          "internalType": "struct Decimal.decimal",
          "name": "_slippage",
          "type": "tuple"
        },
        {
          "components": [
            {
              "internalType": "uint256",
              "name": "d",
              "type": "uint256"
            }
          ],
          "internalType": "struct Decimal.decimal",
          "name": "_tipFee",
          "type": "tuple"
        },
        {
          "internalType": "bool",
          "name": "_reduceOnly",
          "type": "bool"
        },
        {
          "internalType": "uint256",
          "name": "_expiry",
          "type": "uint256"
        }
      ],
      "name": "addStopLimitOrder",
      "outputs": [],
      "stateMutability": "nonpayable",
      "type": "function"
    },
    {
      "inputs": [
        {
          "internalType": "contract IAmm",
          "name": "_asset",
          "type": "address"
        },
        {
          "components": [
            {
              "internalType": "uint256",
              "name": "d",
              "type": "uint256"
            }
          ],
          "internalType": "struct Decimal.decimal",
          "name": "_stopPrice",
          "type": "tuple"
        },
        {
          "components": [
            {
              "internalType": "int256",
              "name": "d",
              "type": "int256"
            }
          ],
          "internalType": "struct SignedDecimal.signedDecimal",
          "name": "_positionSize",
          "type": "tuple"
        },
        {
          "components": [
            {
              "internalType": "uint256",
              "name": "d",
              "type": "uint256"
            }
          ],
          "internalType": "struct Decimal.decimal",
          "name": "_collateral",
          "type": "tuple"
        },
        {
          "components": [
            {
              "internalType": "uint256",
              "name": "d",
              "type": "uint256"
            }
          ],
          "internalType": "struct Decimal.decimal",
          "name": "_leverage",
          "type": "tuple"
        },
        {
          "components": [
            {
              "internalType": "uint256",
              "name": "d",
              "type": "uint256"
            }
          ],
          "internalType": "struct Decimal.decimal",
          "name": "_slippage",
          "type": "tuple"
        },
        {
          "components": [
            {
              "internalType": "uint256",
              "name": "d",
              "type": "uint256"
            }
          ],
          "internalType": "struct Decimal.decimal",
          "name": "_tipFee",
          "type": "tuple"
        },
        {
          "internalType": "bool",
          "name": "_reduceOnly",
          "type": "bool"
        },
        {
          "internalType": "uint256",
          "name": "_expiry",
          "type": "uint256"
        }
      ],
      "name": "addStopOrder",
      "outputs": [],
      "stateMutability": "nonpayable",
      "type": "function"
    },
    {
      "inputs": [
        {
          "internalType": "contract IAmm",
          "name": "_asset",
          "type": "address"
        },
        {
          "components": [
            {
              "internalType": "uint256",
              "name": "d",
              "type": "uint256"
            }
          ],
          "internalType": "struct Decimal.decimal",
          "name": "_trail",
          "type": "tuple"
        },
        {
          "components": [
            {
              "internalType": "uint256",
              "name": "d",
              "type": "uint256"
            }
          ],
          "internalType": "struct Decimal.decimal",
          "name": "_gap",
          "type": "tuple"
        },
        {
          "components": [
            {
              "internalType": "int256",
              "name": "d",
              "type": "int256"
            }
          ],
          "internalType": "struct SignedDecimal.signedDecimal",
          "name": "_positionSize",
          "type": "tuple"
        },
        {
          "components": [
            {
              "internalType": "uint256",
              "name": "d",
              "type": "uint256"
            }
          ],
          "internalType": "struct Decimal.decimal",
          "name": "_collateral",
          "type": "tuple"
        },
        {
          "components": [
            {
              "internalType": "uint256",
              "name": "d",
              "type": "uint256"
            }
          ],
          "internalType": "struct Decimal.decimal",
          "name": "_leverage",
          "type": "tuple"
        },
        {
          "components": [
            {
              "internalType": "uint256",
              "name": "d",
              "type": "uint256"
            }
          ],
          "internalType": "struct Decimal.decimal",
          "name": "_slippage",
          "type": "tuple"
        },
        {
          "components": [
            {
              "internalType": "uint256",
              "name": "d",
              "type": "uint256"
            }
          ],
          "internalType": "struct Decimal.decimal",
          "name": "_tipFee",
          "type": "tuple"
        },
        {
          "internalType": "bool",
          "name": "_reduceOnly",
          "type": "bool"
        },
        {
          "internalType": "uint256",
          "name": "_expiry",
          "type": "uint256"
        }
      ],
      "name": "addTrailingStopLimitOrderAbs",
      "outputs": [],
      "stateMutability": "nonpayable",
      "type": "function"
    },
    {
      "inputs": [
        {
          "internalType": "contract IAmm",
          "name": "_asset",
          "type": "address"
        },
        {
          "components": [
            {
              "internalType": "uint256",
              "name": "d",
              "type": "uint256"
            }
          ],
          "internalType": "struct Decimal.decimal",
          "name": "_trailPct",
          "type": "tuple"
        },
        {
          "components": [
            {
              "internalType": "uint256",
              "name": "d",
              "type": "uint256"
            }
          ],
          "internalType": "struct Decimal.decimal",
          "name": "_gapPct",
          "type": "tuple"
        },
        {
          "components": [
            {
              "internalType": "int256",
              "name": "d",
              "type": "int256"
            }
          ],
          "internalType": "struct SignedDecimal.signedDecimal",
          "name": "_positionSize",
          "type": "tuple"
        },
        {
          "components": [
            {
              "internalType": "uint256",
              "name": "d",
              "type": "uint256"
            }
          ],
          "internalType": "struct Decimal.decimal",
          "name": "_collateral",
          "type": "tuple"
        },
        {
          "components": [
            {
              "internalType": "uint256",
              "name": "d",
              "type": "uint256"
            }
          ],
          "internalType": "struct Decimal.decimal",
          "name": "_leverage",
          "type": "tuple"
        },
        {
          "components": [
            {
              "internalType": "uint256",
              "name": "d",
              "type": "uint256"
            }
          ],
          "internalType": "struct Decimal.decimal",
          "name": "_slippage",
          "type": "tuple"
        },
        {
          "components": [
            {
              "internalType": "uint256",
              "name": "d",
              "type": "uint256"
            }
          ],
          "internalType": "struct Decimal.decimal",
          "name": "_tipFee",
          "type": "tuple"
        },
        {
          "internalType": "bool",
          "name": "_reduceOnly",
          "type": "bool"
        },
        {
          "internalType": "uint256",
          "name": "_expiry",
          "type": "uint256"
        }
      ],
      "name": "addTrailingStopLimitOrderPct",
      "outputs": [],
      "stateMutability": "nonpayable",
      "type": "function"
    },
    {
      "inputs": [
        {
          "internalType": "contract IAmm",
          "name": "_asset",
          "type": "address"
        },
        {
          "components": [
            {
              "internalType": "uint256",
              "name": "d",
              "type": "uint256"
            }
          ],
          "internalType": "struct Decimal.decimal",
          "name": "_trail",
          "type": "tuple"
        },
        {
          "components": [
            {
              "internalType": "int256",
              "name": "d",
              "type": "int256"
            }
          ],
          "internalType": "struct SignedDecimal.signedDecimal",
          "name": "_positionSize",
          "type": "tuple"
        },
        {
          "components": [
            {
              "internalType": "uint256",
              "name": "d",
              "type": "uint256"
            }
          ],
          "internalType": "struct Decimal.decimal",
          "name": "_collateral",
          "type": "tuple"
        },
        {
          "components": [
            {
              "internalType": "uint256",
              "name": "d",
              "type": "uint256"
            }
          ],
          "internalType": "struct Decimal.decimal",
          "name": "_leverage",
          "type": "tuple"
        },
        {
          "components": [
            {
              "internalType": "uint256",
              "name": "d",
              "type": "uint256"
            }
          ],
          "internalType": "struct Decimal.decimal",
          "name": "_tipFee",
          "type": "tuple"
        },
        {
          "internalType": "bool",
          "name": "_reduceOnly",
          "type": "bool"
        },
        {
          "internalType": "uint256",
          "name": "_expiry",
          "type": "uint256"
        }
      ],
      "name": "addTrailingStopMarketOrderAbs",
      "outputs": [],
      "stateMutability": "nonpayable",
      "type": "function"
    },
    {
      "inputs": [
        {
          "internalType": "contract IAmm",
          "name": "_asset",
          "type": "address"
        },
        {
          "components": [
            {
              "internalType": "uint256",
              "name": "d",
              "type": "uint256"
            }
          ],
          "internalType": "struct Decimal.decimal",
          "name": "_trailPct",
          "type": "tuple"
        },
        {
          "components": [
            {
              "internalType": "int256",
              "name": "d",
              "type": "int256"
            }
          ],
          "internalType": "struct SignedDecimal.signedDecimal",
          "name": "_positionSize",
          "type": "tuple"
        },
        {
          "components": [
            {
              "internalType": "uint256",
              "name": "d",
              "type": "uint256"
            }
          ],
          "internalType": "struct Decimal.decimal",
          "name": "_collateral",
          "type": "tuple"
        },
        {
          "components": [
            {
              "internalType": "uint256",
              "name": "d",
              "type": "uint256"
            }
          ],
          "internalType": "struct Decimal.decimal",
          "name": "_leverage",
          "type": "tuple"
        },
        {
          "components": [
            {
              "internalType": "uint256",
              "name": "d",
              "type": "uint256"
            }
          ],
          "internalType": "struct Decimal.decimal",
          "name": "_tipFee",
          "type": "tuple"
        },
        {
          "internalType": "bool",
          "name": "_reduceOnly",
          "type": "bool"
        },
        {
          "internalType": "uint256",
          "name": "_expiry",
          "type": "uint256"
        }
      ],
      "name": "addTrailingStopMarketOrderPct",
      "outputs": [],
      "stateMutability": "nonpayable",
      "type": "function"
    },
    {
      "inputs": [
        {
          "components": [
            {
              "internalType": "uint256",
              "name": "d",
              "type": "uint256"
            }
          ],
          "internalType": "struct Decimal.decimal",
          "name": "_fee",
          "type": "tuple"
        }
      ],
      "name": "changeMinimumFee",
      "outputs": [],
      "stateMutability": "nonpayable",
      "type": "function"
    },
    {
      "inputs": [
        {
          "internalType": "uint256",
          "name": "order_id",
          "type": "uint256"
        }
      ],
      "name": "deleteOrder",
      "outputs": [],
      "stateMutability": "nonpayable",
      "type": "function"
    },
    {
      "inputs": [
        {
          "internalType": "uint256",
          "name": "order_id",
          "type": "uint256"
        }
      ],
      "name": "execute",
      "outputs": [],
      "stateMutability": "nonpayable",
      "type": "function"
    },
    {
      "inputs": [],
      "name": "factory",
      "outputs": [
        {
          "internalType": "contract SmartWalletFactory",
          "name": "",
          "type": "address"
        }
      ],
      "stateMutability": "view",
      "type": "function"
    },
    {
      "inputs": [
        {
          "internalType": "uint256",
          "name": "order_id",
          "type": "uint256"
        }
      ],
      "name": "getLimitOrder",
      "outputs": [
        {
          "components": [
            {
              "internalType": "address",
              "name": "asset",
              "type": "address"
            },
            {
              "internalType": "address",
              "name": "trader",
              "type": "address"
            },
            {
              "internalType": "bool",
              "name": "reduceOnly",
              "type": "bool"
            },
            {
              "internalType": "bool",
              "name": "stillValid",
              "type": "bool"
            },
            {
              "internalType": "enum LimitOrderBook.OrderType",
              "name": "orderType",
              "type": "uint8"
            },
            {
              "internalType": "uint256",
              "name": "expiry",
              "type": "uint256"
            },
            {
              "components": [
                {
                  "internalType": "uint256",
                  "name": "d",
                  "type": "uint256"
                }
              ],
              "internalType": "struct Decimal.decimal",
              "name": "stopPrice",
              "type": "tuple"
            },
            {
              "components": [
                {
                  "internalType": "uint256",
                  "name": "d",
                  "type": "uint256"
                }
              ],
              "internalType": "struct Decimal.decimal",
              "name": "limitPrice",
              "type": "tuple"
            },
            {
              "components": [
                {
                  "internalType": "int256",
                  "name": "d",
                  "type": "int256"
                }
              ],
              "internalType": "struct SignedDecimal.signedDecimal",
              "name": "orderSize",
              "type": "tuple"
            },
            {
              "components": [
                {
                  "internalType": "uint256",
                  "name": "d",
                  "type": "uint256"
                }
              ],
              "internalType": "struct Decimal.decimal",
              "name": "collateral",
              "type": "tuple"
            },
            {
              "components": [
                {
                  "internalType": "uint256",
                  "name": "d",
                  "type": "uint256"
                }
              ],
              "internalType": "struct Decimal.decimal",
              "name": "leverage",
              "type": "tuple"
            },
            {
              "components": [
                {
                  "internalType": "uint256",
                  "name": "d",
                  "type": "uint256"
                }
              ],
              "internalType": "struct Decimal.decimal",
              "name": "slippage",
              "type": "tuple"
            },
            {
              "components": [
                {
                  "internalType": "uint256",
                  "name": "d",
                  "type": "uint256"
                }
              ],
              "internalType": "struct Decimal.decimal",
              "name": "tipFee",
              "type": "tuple"
            }
          ],
          "internalType": "struct LimitOrderBook.LimitOrder",
          "name": "",
          "type": "tuple"
        }
      ],
      "stateMutability": "view",
      "type": "function"
    },
    {
      "inputs": [
        {
          "internalType": "uint256",
          "name": "id",
          "type": "uint256"
        }
      ],
      "name": "getLimitOrderParams",
      "outputs": [
        {
          "internalType": "address",
          "name": "",
          "type": "address"
        },
        {
          "internalType": "address",
          "name": "",
          "type": "address"
        },
        {
          "internalType": "enum LimitOrderBook.OrderType",
          "name": "",
          "type": "uint8"
        },
        {
          "internalType": "bool",
          "name": "",
          "type": "bool"
        },
        {
          "internalType": "bool",
          "name": "",
          "type": "bool"
        },
        {
          "internalType": "uint256",
          "name": "",
          "type": "uint256"
        }
      ],
      "stateMutability": "view",
      "type": "function"
    },
    {
      "inputs": [
        {
          "internalType": "uint256",
          "name": "id",
          "type": "uint256"
        }
      ],
      "name": "getLimitOrderPrices",
      "outputs": [
        {
          "components": [
            {
              "internalType": "uint256",
              "name": "d",
              "type": "uint256"
            }
          ],
          "internalType": "struct Decimal.decimal",
          "name": "",
          "type": "tuple"
        },
        {
          "components": [
            {
              "internalType": "uint256",
              "name": "d",
              "type": "uint256"
            }
          ],
          "internalType": "struct Decimal.decimal",
          "name": "",
          "type": "tuple"
        },
        {
          "components": [
            {
              "internalType": "int256",
              "name": "d",
              "type": "int256"
            }
          ],
          "internalType": "struct SignedDecimal.signedDecimal",
          "name": "",
          "type": "tuple"
        },
        {
          "components": [
            {
              "internalType": "uint256",
              "name": "d",
              "type": "uint256"
            }
          ],
          "internalType": "struct Decimal.decimal",
          "name": "",
          "type": "tuple"
        },
        {
          "components": [
            {
              "internalType": "uint256",
              "name": "d",
              "type": "uint256"
            }
          ],
          "internalType": "struct Decimal.decimal",
          "name": "",
          "type": "tuple"
        },
        {
          "components": [
            {
              "internalType": "uint256",
              "name": "d",
              "type": "uint256"
            }
          ],
          "internalType": "struct Decimal.decimal",
          "name": "",
          "type": "tuple"
        },
        {
          "components": [
            {
              "internalType": "uint256",
              "name": "d",
              "type": "uint256"
            }
          ],
          "internalType": "struct Decimal.decimal",
          "name": "",
          "type": "tuple"
        },
        {
          "internalType": "address",
          "name": "",
          "type": "address"
        },
        {
          "internalType": "bool",
          "name": "",
          "type": "bool"
        }
      ],
      "stateMutability": "view",
      "type": "function"
    },
    {
      "inputs": [],
      "name": "getNumberOrders",
      "outputs": [
        {
          "internalType": "uint256",
          "name": "",
          "type": "uint256"
        }
      ],
      "stateMutability": "view",
      "type": "function"
    },
    {
      "inputs": [
        {
          "internalType": "contract IAmm",
          "name": "_asset",
          "type": "address"
        },
        {
          "internalType": "uint256",
          "name": "_snapshotIndex",
          "type": "uint256"
        }
      ],
      "name": "getPriceAtSnapshot",
      "outputs": [
        {
          "components": [
            {
              "internalType": "uint256",
              "name": "d",
              "type": "uint256"
            }
          ],
          "internalType": "struct Decimal.decimal",
          "name": "",
          "type": "tuple"
        }
      ],
      "stateMutability": "view",
      "type": "function"
    },
    {
      "inputs": [
        {
          "internalType": "uint256",
          "name": "order_id",
          "type": "uint256"
        }
      ],
      "name": "getTrailingData",
      "outputs": [
        {
          "components": [
            {
              "components": [
                {
                  "internalType": "uint256",
                  "name": "d",
                  "type": "uint256"
                }
              ],
              "internalType": "struct Decimal.decimal",
              "name": "witnessPrice",
              "type": "tuple"
            },
            {
              "components": [
                {
                  "internalType": "uint256",
                  "name": "d",
                  "type": "uint256"
                }
              ],
              "internalType": "struct Decimal.decimal",
              "name": "trail",
              "type": "tuple"
            },
            {
              "components": [
                {
                  "internalType": "uint256",
                  "name": "d",
                  "type": "uint256"
                }
              ],
              "internalType": "struct Decimal.decimal",
              "name": "trailPct",
              "type": "tuple"
            },
            {
              "components": [
                {
                  "internalType": "uint256",
                  "name": "d",
                  "type": "uint256"
                }
              ],
              "internalType": "struct Decimal.decimal",
              "name": "gap",
              "type": "tuple"
            },
            {
              "components": [
                {
                  "internalType": "uint256",
                  "name": "d",
                  "type": "uint256"
                }
              ],
              "internalType": "struct Decimal.decimal",
              "name": "gapPct",
              "type": "tuple"
            },
            {
              "internalType": "uint256",
              "name": "snapshotCreated",
              "type": "uint256"
            },
            {
              "internalType": "uint256",
              "name": "snapshotLastUpdated",
              "type": "uint256"
            },
            {
              "internalType": "uint256",
              "name": "snapshotTimestamp",
              "type": "uint256"
            },
            {
              "internalType": "address",
              "name": "lastUpdatedKeeper",
              "type": "address"
            },
            {
              "internalType": "bool",
              "name": "usePct",
              "type": "bool"
            }
          ],
          "internalType": "struct LimitOrderBook.TrailingOrderData",
          "name": "",
          "type": "tuple"
        }
      ],
      "stateMutability": "view",
      "type": "function"
    },
    {
      "inputs": [],
      "name": "minimumTipFee",
      "outputs": [
        {
          "internalType": "uint256",
          "name": "d",
          "type": "uint256"
        }
      ],
      "stateMutability": "view",
      "type": "function"
    },
    {
      "inputs": [
        {
          "internalType": "uint256",
          "name": "order_id",
          "type": "uint256"
        },
        {
          "components": [
            {
              "internalType": "uint256",
              "name": "d",
              "type": "uint256"
            }
          ],
          "internalType": "struct Decimal.decimal",
          "name": "_stopPrice",
          "type": "tuple"
        },
        {
          "components": [
            {
              "internalType": "uint256",
              "name": "d",
              "type": "uint256"
            }
          ],
          "internalType": "struct Decimal.decimal",
          "name": "_limitPrice",
          "type": "tuple"
        },
        {
          "components": [
            {
              "internalType": "int256",
              "name": "d",
              "type": "int256"
            }
          ],
          "internalType": "struct SignedDecimal.signedDecimal",
          "name": "_orderSize",
          "type": "tuple"
        },
        {
          "components": [
            {
              "internalType": "uint256",
              "name": "d",
              "type": "uint256"
            }
          ],
          "internalType": "struct Decimal.decimal",
          "name": "_collateral",
          "type": "tuple"
        },
        {
          "components": [
            {
              "internalType": "uint256",
              "name": "d",
              "type": "uint256"
            }
          ],
          "internalType": "struct Decimal.decimal",
          "name": "_leverage",
          "type": "tuple"
        },
        {
          "components": [
            {
              "internalType": "uint256",
              "name": "d",
              "type": "uint256"
            }
          ],
          "internalType": "struct Decimal.decimal",
          "name": "_slippage",
          "type": "tuple"
        },
        {
          "internalType": "bool",
          "name": "_reduceOnly",
          "type": "bool"
        },
        {
          "internalType": "uint256",
          "name": "_expiry",
          "type": "uint256"
        }
      ],
      "name": "modifyOrder",
      "outputs": [],
      "stateMutability": "nonpayable",
      "type": "function"
    },
    {
      "inputs": [
        {
          "internalType": "uint256",
          "name": "order_id",
          "type": "uint256"
        },
        {
          "components": [
            {
              "internalType": "uint256",
              "name": "d",
              "type": "uint256"
            }
          ],
          "internalType": "struct Decimal.decimal",
          "name": "_newStop",
          "type": "tuple"
        },
        {
          "components": [
            {
              "internalType": "uint256",
              "name": "d",
              "type": "uint256"
            }
          ],
          "internalType": "struct Decimal.decimal",
          "name": "_newLimit",
          "type": "tuple"
        },
        {
          "components": [
            {
              "internalType": "int256",
              "name": "d",
              "type": "int256"
            }
          ],
          "internalType": "struct SignedDecimal.signedDecimal",
          "name": "_orderSize",
          "type": "tuple"
        },
        {
          "components": [
            {
              "internalType": "uint256",
              "name": "d",
              "type": "uint256"
            }
          ],
          "internalType": "struct Decimal.decimal",
          "name": "_collateral",
          "type": "tuple"
        },
        {
          "components": [
            {
              "internalType": "uint256",
              "name": "d",
              "type": "uint256"
            }
          ],
          "internalType": "struct Decimal.decimal",
          "name": "_leverage",
          "type": "tuple"
        },
        {
          "components": [
            {
              "internalType": "uint256",
              "name": "d",
              "type": "uint256"
            }
          ],
          "internalType": "struct Decimal.decimal",
          "name": "_slippage",
          "type": "tuple"
        },
        {
          "internalType": "bool",
          "name": "_reduceOnly",
          "type": "bool"
        },
        {
          "internalType": "uint256",
          "name": "_expiry",
          "type": "uint256"
        }
      ],
      "name": "modifyTrailingOrder",
      "outputs": [],
      "stateMutability": "nonpayable",
      "type": "function"
    },
    {
      "inputs": [
        {
          "internalType": "uint256",
          "name": "",
          "type": "uint256"
        }
      ],
      "name": "orders",
      "outputs": [
        {
          "internalType": "address",
          "name": "asset",
          "type": "address"
        },
        {
          "internalType": "address",
          "name": "trader",
          "type": "address"
        },
        {
          "internalType": "bool",
          "name": "reduceOnly",
          "type": "bool"
        },
        {
          "internalType": "bool",
          "name": "stillValid",
          "type": "bool"
        },
        {
          "internalType": "enum LimitOrderBook.OrderType",
          "name": "orderType",
          "type": "uint8"
        },
        {
          "internalType": "uint256",
          "name": "expiry",
          "type": "uint256"
        },
        {
          "components": [
            {
              "internalType": "uint256",
              "name": "d",
              "type": "uint256"
            }
          ],
          "internalType": "struct Decimal.decimal",
          "name": "stopPrice",
          "type": "tuple"
        },
        {
          "components": [
            {
              "internalType": "uint256",
              "name": "d",
              "type": "uint256"
            }
          ],
          "internalType": "struct Decimal.decimal",
          "name": "limitPrice",
          "type": "tuple"
        },
        {
          "components": [
            {
              "internalType": "int256",
              "name": "d",
              "type": "int256"
            }
          ],
          "internalType": "struct SignedDecimal.signedDecimal",
          "name": "orderSize",
          "type": "tuple"
        },
        {
          "components": [
            {
              "internalType": "uint256",
              "name": "d",
              "type": "uint256"
            }
          ],
          "internalType": "struct Decimal.decimal",
          "name": "collateral",
          "type": "tuple"
        },
        {
          "components": [
            {
              "internalType": "uint256",
              "name": "d",
              "type": "uint256"
            }
          ],
          "internalType": "struct Decimal.decimal",
          "name": "leverage",
          "type": "tuple"
        },
        {
          "components": [
            {
              "internalType": "uint256",
              "name": "d",
              "type": "uint256"
            }
          ],
          "internalType": "struct Decimal.decimal",
          "name": "slippage",
          "type": "tuple"
        },
        {
          "components": [
            {
              "internalType": "uint256",
              "name": "d",
              "type": "uint256"
            }
          ],
          "internalType": "struct Decimal.decimal",
          "name": "tipFee",
          "type": "tuple"
        }
      ],
      "stateMutability": "view",
      "type": "function"
    },
    {
      "inputs": [],
      "name": "owner",
      "outputs": [
        {
          "internalType": "address",
          "name": "",
          "type": "address"
        }
      ],
      "stateMutability": "view",
      "type": "function"
    },
    {
      "inputs": [
        {
          "internalType": "uint256",
          "name": "order_id",
          "type": "uint256"
        },
        {
          "internalType": "uint256",
          "name": "_reserveIndex",
          "type": "uint256"
        }
      ],
      "name": "pokeContract",
      "outputs": [],
      "stateMutability": "nonpayable",
      "type": "function"
    },
    {
      "inputs": [],
      "name": "pokeContractDelay",
      "outputs": [
        {
          "internalType": "uint256",
          "name": "",
          "type": "uint256"
        }
      ],
      "stateMutability": "view",
      "type": "function"
    },
    {
      "inputs": [],
      "name": "renounceOwnership",
      "outputs": [],
      "stateMutability": "nonpayable",
      "type": "function"
    },
    {
      "inputs": [
        {
          "internalType": "address",
          "name": "_addr",
          "type": "address"
        }
      ],
      "name": "setFactory",
      "outputs": [],
      "stateMutability": "nonpayable",
      "type": "function"
    },
    {
      "inputs": [
        {
          "internalType": "uint256",
          "name": "",
          "type": "uint256"
        }
      ],
      "name": "trailingOrders",
      "outputs": [
        {
          "components": [
            {
              "internalType": "uint256",
              "name": "d",
              "type": "uint256"
            }
          ],
          "internalType": "struct Decimal.decimal",
          "name": "witnessPrice",
          "type": "tuple"
        },
        {
          "components": [
            {
              "internalType": "uint256",
              "name": "d",
              "type": "uint256"
            }
          ],
          "internalType": "struct Decimal.decimal",
          "name": "trail",
          "type": "tuple"
        },
        {
          "components": [
            {
              "internalType": "uint256",
              "name": "d",
              "type": "uint256"
            }
          ],
          "internalType": "struct Decimal.decimal",
          "name": "trailPct",
          "type": "tuple"
        },
        {
          "components": [
            {
              "internalType": "uint256",
              "name": "d",
              "type": "uint256"
            }
          ],
          "internalType": "struct Decimal.decimal",
          "name": "gap",
          "type": "tuple"
        },
        {
          "components": [
            {
              "internalType": "uint256",
              "name": "d",
              "type": "uint256"
            }
          ],
          "internalType": "struct Decimal.decimal",
          "name": "gapPct",
          "type": "tuple"
        },
        {
          "internalType": "uint256",
          "name": "snapshotCreated",
          "type": "uint256"
        },
        {
          "internalType": "uint256",
          "name": "snapshotLastUpdated",
          "type": "uint256"
        },
        {
          "internalType": "uint256",
          "name": "snapshotTimestamp",
          "type": "uint256"
        },
        {
          "internalType": "address",
          "name": "lastUpdatedKeeper",
          "type": "address"
        },
        {
          "internalType": "bool",
          "name": "usePct",
          "type": "bool"
        }
      ],
      "stateMutability": "view",
      "type": "function"
    },
    {
      "inputs": [
        {
          "internalType": "address",
          "name": "newOwner",
          "type": "address"
        }
      ],
      "name": "transferOwnership",
      "outputs": [],
      "stateMutability": "nonpayable",
      "type": "function"
    }
  ],
  "bytecode": "0x60806040526102586037553480156200001757600080fd5b5060006200002d6001600160e01b036200007d16565b600080546001600160a01b0319166001600160a01b0383169081178255604051929350917f8be0079c531659141344cd1fd0a4f28419497f9722a3daafe3b4186f6b6457e0908290a35062000081565b3390565b6149ca80620000916000396000f3fe608060405234801561001057600080fd5b50600436106101c45760003560e01c80638ceddd77116100f9578063c45a015511610097578063e54ff5e511610071578063e54ff5e5146103ef578063f0d840d7146103f7578063f2fde38b14610417578063fe0d94c11461042a576101c4565b8063c45a0155146103ac578063dc4cb107146103b4578063e36a2dc0146103c7576101c4565b8063af52775d116100d3578063af52775d1461034a578063b96bb8061461035d578063bc9aa8c314610370578063c01fd7a414610383576101c4565b80638ceddd77146103015780638da5cb5b14610309578063a85c38ef1461031e576101c4565b80634c5789e3116101665780635bb47808116101405780635bb47808146102b35780636bef7493146102c6578063715018a6146102e657806386f89642146102ee576101c4565b80634c5789e31461025b57806353061026146102805780635ad86447146102a0576101c4565b80632736f620116101a25780632736f6201461020f57806334c19830146102225780634885fd58146102355780634b5924af14610248576101c4565b8063032e4f6e146101c95780630c39bb7a146101de57806311a00327146101fc575b600080fd5b6101dc6101d7366004613bb0565b61043d565b005b6101e66104a2565b6040516101f391906148fa565b60405180910390f35b6101dc61020a366004613d14565b6104a8565b6101dc61021d366004613bb0565b61061d565b6101dc610230366004613d73565b610677565b6101dc610243366004613cde565b6108ab565b6101dc610256366004613b16565b6108f0565b61026e610269366004613d14565b610976565b6040516101f396959493929190613e97565b61029361028e366004613d14565b610b15565b6040516101f391906146b5565b6101dc6102ae366004613a57565b610c71565b6101dc6102c1366004613a03565b610d1e565b6102d96102d4366004613c5c565b610d8c565b6040516101f3919061485a565b6101dc610ee4565b6101dc6102fc366004613a57565b610f7a565b6101e661100c565b610311611012565b6040516101f39190613dd5565b61033161032c366004613d14565b611021565b6040516101f39d9c9b9a99989796959493929190613de9565b6101dc610358366004613d44565b6110ef565b6101dc61036b366004613a57565b61149f565b6101dc61037e366004613d44565b611538565b610396610391366004613d14565b6118af565b6040516101f39a99989796959493929190614864565b610311611941565b6101dc6103c2366004613b16565b611950565b6103da6103d5366004613d14565b6119b1565b6040516101f3999897969594939291906148b1565b6101e6611be1565b61040a610405366004613d14565b611be7565b6040516101f391906147b4565b6101dc610425366004613a03565b611caf565b6101dc610438366004613d14565b611d7c565b61047c886040518060400160405280601381526020017f53746f702063616e6e6f74206265207a65726f000000000000000000000000008152506122f1565b6104978960028a61048b61231e565b8b8b8b8b8b8b8b612339565b505050505050505050565b60385481565b80603481815481106104b657fe5b60009182526020909120600a90910201600101546001600160a01b031633146104fa5760405162461bcd60e51b81526004016104f19061467e565b60405180910390fd5b6034548290811061051d5760405162461bcd60e51b81526004016104f190614430565b6034838154811061052a57fe5b600091825260209091206001600a9092020101546040516001600160a01b03909116907f9839c5aee45262b904f4ede97f671e296b41355f52a965a7076f4d4db9321d4b9061057a9086906148fa565b60405180910390a26034838154811061058f57fe5b600091825260208220600a90910201805473ffffffffffffffffffffffffffffffffffffffff191681556001810180547fffffffffffffffffff00000000000000000000000000000000000000000000001690556002810182905560038101829055600481018290556005810182905560068101829055600781018290556008810182905560090155505050565b61065c886040518060400160405280601481526020017f4c696d69742063616e6e6f74206265207a65726f0000000000000000000000008152506122f1565b61049789600161066a61231e565b8b8b8b8b8b8b8b8b612339565b60006034838154811061068657fe5b60009182526020909120600a9091020160010154600160b01b900460ff16905060048160058111156106b457fe5b14806106cb575060058160058111156106c957fe5b145b6106e75760405162461bcd60e51b81526004016104f19061423d565b60008381526035602052604090206005015482116107175760405162461bcd60e51b81526004016104f190613ff1565b60008381526035602052604090206006015482108061074a57506037546000848152603560205260409020600701544203115b6107665760405162461bcd60e51b81526004016104f190614365565b600083815260356020526040812042600790910155603480546107b391908690811061078e57fe5b60009182526020918290206040805193840190526005600a9092020101548152612837565b6107be5760016107c1565b60005b90506107cb613865565b6107fb603486815481106107db57fe5b60009182526020909120600a90910201546001600160a01b031685610d8c565b90508161080a5760001961080d565b60015b600086815260356020908152604091829020825191820190925290548152600f9190910b90610842908363ffffffff61285516565b60000b146108625760405162461bcd60e51b81526004016104f190614556565b60008581526035602052604090208151815560068101859055600801805473ffffffffffffffffffffffffffffffffffffffff1916331790556108a485612886565b5050505050565b6108b3612c27565b6001600160a01b03166108c4611012565b6001600160a01b0316146108ea5760405162461bcd60e51b81526004016104f1906144c4565b51603855565b61092f876040518060400160405280601481526020017f547261696c2063616e6e6f74206265207a65726f0000000000000000000000008152506122f1565b61095888600461093d61231e565b61094561231e565b8a8a8a61095061231e565b8b8b8b612339565b61096c888861096561231e565b6001612c2b565b5050505050505050565b6000806000806000808660348054905081106109a45760405162461bcd60e51b81526004016104f190614430565b6109ac613878565b603489815481106109b957fe5b6000918252602091829020604080516101a081018252600a90930290910180546001600160a01b03908116845260018201549081169484019490945260ff600160a01b85048116151592840192909252600160a81b840482161515606084015291926080840191600160b01b909104166005811115610a3457fe5b6005811115610a3f57fe5b81526002820154602080830191909152604080518083018252600385015481528184015280518083018252600485015481526060808501919091528151808401835260058601548152608080860191909152825180850184526006870154815260a080870191909152835180860185526007880154815260c0870152835180860185526008880154815260e0870152835180860185526009909701548752610100909501959095528551928601519486015191860151908601519590930151919e939d509b509099509197509095509350505050565b610b1d613878565b60345482908110610b405760405162461bcd60e51b81526004016104f190614430565b60348381548110610b4d57fe5b6000918252602091829020604080516101a081018252600a90930290910180546001600160a01b03908116845260018201549081169484019490945260ff600160a01b85048116151592840192909252600160a81b840482161515606084015291926080840191600160b01b909104166005811115610bc857fe5b6005811115610bd357fe5b8152600282015460208083019190915260408051808301825260038501548152818401528051808301825260048501548152606084015280518083018252600585015481526080840152805180830182526006850154815260a0840152805180830182526007850154815260c0840152805180830182526008850154815260e084015280519182019052600990920154825261010001529392505050565b610cb0896040518060400160405280601481526020017f547261696c2063616e6e6f74206265207a65726f0000000000000000000000008152506122f1565b610cef886040518060400160405280601281526020017f4761702063616e6e6f74206265207a65726f00000000000000000000000000008152506122f1565b610d058a6005610cfd61231e565b61048b61231e565b610d128a8a8a6000612c2b565b50505050505050505050565b610d26612c27565b6001600160a01b0316610d37611012565b6001600160a01b031614610d5d5760405162461bcd60e51b81526004016104f1906144c4565b6036805473ffffffffffffffffffffffffffffffffffffffff19166001600160a01b0392909216919091179055565b610d94613865565b826001600160a01b0316630d451c8f6040518163ffffffff1660e01b815260040160206040518083038186803b158015610dcd57600080fd5b505afa158015610de1573d6000803e3d6000fd5b505050506040513d601f19601f82011682018060405250810190610e059190613d2c565b8210610e235760405162461bcd60e51b81526004016104f1906145ea565b610e2b613909565b6040517f21e009850000000000000000000000000000000000000000000000000000000081526001600160a01b038516906321e0098590610e709086906004016148fa565b60806040518083038186803b158015610e8857600080fd5b505afa158015610e9c573d6000803e3d6000fd5b505050506040513d601f19601f82011682018060405250810190610ec09190613c87565b60208101518151919250610eda919063ffffffff61302716565b9150505b92915050565b610eec612c27565b6001600160a01b0316610efd611012565b6001600160a01b031614610f235760405162461bcd60e51b81526004016104f1906144c4565b600080546040516001600160a01b03909116907f8be0079c531659141344cd1fd0a4f28419497f9722a3daafe3b4186f6b6457e0908390a36000805473ffffffffffffffffffffffffffffffffffffffff19169055565b610fb9886040518060400160405280601481526020017f4c696d69742063616e6e6f74206265207a65726f0000000000000000000000008152506122f1565b610ff8896040518060400160405280601381526020017f53746f702063616e6e6f74206265207a65726f000000000000000000000000008152506122f1565b610d128a60038b8b8b8b8b8b8b8b8b612339565b60345490565b6000546001600160a01b031690565b6034818154811061102e57fe5b6000918252602091829020600a9091020180546001820154600283015460408051808701825260038601548152815180880183526004870154815282518089018452600588015481528351808a018552600689015481528451808b01865260078a015481528551808c01875260088b0154815286519b8c019096526009909901548a526001600160a01b039788169a509686169860ff600160a01b8804811699600160a81b8904821699600160b01b9099049091169794959394929390918d565b88603481815481106110fd57fe5b60009182526020909120600a90910201600101546001600160a01b031633146111385760405162461bcd60e51b81526004016104f19061467e565b6034548a90811061115b5760405162461bcd60e51b81526004016104f190614430565b82158061116757508242105b6111835760405162461bcd60e51b81526004016104f190614161565b600060348c8154811061119257fe5b600091825260209091206001600a9092020181015460ff600160b01b9091041691508160058111156111c057fe5b14806111d7575060028160058111156111d557fe5b145b806111ed575060038160058111156111eb57fe5b145b6112095760405162461bcd60e51b81526004016104f190614621565b6112506112158a613053565b6040518060400160405280601581526020017f43616e6e6f7420646f20656d707479206f7264657200000000000000000000008152506122f1565b61128f886040518060400160405280601981526020017f43616e6e6f74207370656e64203020636f6c6c61746572616c000000000000008152506122f1565b6112a761129a613081565b889063ffffffff61285516565b60000b60001914156112cb5760405162461bcd60e51b81526004016104f190613f83565b8a60348d815481106112d957fe5b90600052602060002090600a0201600301600082015181600001559050508960348d8154811061130557fe5b90600052602060002090600a0201600401600082015181600001559050508860348d8154811061133157fe5b90600052602060002090600a0201600501600082015181600001559050508760348d8154811061135d57fe5b90600052602060002090600a0201600601600082015181600001559050508660348d8154811061138957fe5b90600052602060002090600a0201600701600082015181600001559050508560348d815481106113b557fe5b90600052602060002090600a0201600801600082015181600001559050508460348d815481106113e157fe5b90600052602060002090600a020160010160146101000a81548160ff0219169083151502179055508360348d8154811061141757fe5b90600052602060002090600a02016002018190555060348c8154811061143957fe5b600091825260209091206001600a9092020101546040516001600160a01b03909116907f9839c5aee45262b904f4ede97f671e296b41355f52a965a7076f4d4db9321d4b90611489908f906148fa565b60405180910390a2505050505050505050505050565b6114de896040518060400160405280601481526020017f547261696c2063616e6e6f74206265207a65726f0000000000000000000000008152506122f1565b61151d886040518060400160405280601281526020017f4761702063616e6e6f74206265207a65726f00000000000000000000000000008152506122f1565b61152b8a6005610cfd61231e565b610d128a8a8a6001612c2b565b886034818154811061154657fe5b60009182526020909120600a90910201600101546001600160a01b031633146115815760405162461bcd60e51b81526004016104f19061467e565b6034548a9081106115a45760405162461bcd60e51b81526004016104f190614430565b8215806115b057508242105b6115cc5760405162461bcd60e51b81526004016104f190614161565b600060348c815481106115db57fe5b60009182526020909120600a9091020160010154600160b01b900460ff169050600481600581111561160957fe5b14806116205750600581600581111561161e57fe5b145b61163c5760405162461bcd60e51b81526004016104f190613fba565b6116486112158a613053565b611687886040518060400160405280601981526020017f43616e6e6f74207370656e64203020636f6c6c61746572616c000000000000008152506122f1565b61169261129a613081565b60000b60001914156116b65760405162461bcd60e51b81526004016104f190613f83565b8860348d815481106116c457fe5b90600052602060002090600a0201600501600082015181600001559050508760348d815481106116f057fe5b90600052602060002090600a0201600601600082015181600001559050508660348d8154811061171c57fe5b90600052602060002090600a0201600701600082015181600001559050508560348d8154811061174857fe5b90600052602060002090600a0201600801600082015181600001559050508460348d8154811061177457fe5b90600052602060002090600a020160010160146101000a81548160ff0219169083151502179055508360348d815481106117aa57fe5b60009182526020808320600a92909202909101600201929092558d815260359091526040902060080154600160a01b900460ff161561187b576117fb6117ee613081565b8c9063ffffffff61285516565b60000b6000191461181e5760405162461bcd60e51b81526004016104f1906141cf565b611836611829613081565b8b9063ffffffff61285516565b60000b600019146118595760405162461bcd60e51b81526004016104f1906143c2565b60008c81526035602052604090208b5160028201558a51600490910155611899565b60008c81526035602052604090208b5160018201558a516003909101555b6118a28c612886565b60348c8154811061143957fe5b60356020908152600091825260409182902082518083018452815481528351808401855260018301548152845180850186526002840154815285518086018752600385015481528651958601909652600484015485526005840154600685015460078601546008909601549497939692959394929391929091906001600160a01b03811690600160a01b900460ff168a565b6036546001600160a01b031681565b61198f876040518060400160405280601481526020017f547261696c2063616e6e6f74206265207a65726f0000000000000000000000008152506122f1565b61199d88600461093d61231e565b61096c88886119aa61231e565b6000612c2b565b6119b9613865565b6119c1613865565b6119c9613865565b6119d1613865565b6119d9613865565b6119e1613865565b6119e9613865565b600080896034805490508110611a115760405162461bcd60e51b81526004016104f190614430565b611a19613878565b60348c81548110611a2657fe5b6000918252602091829020604080516101a081018252600a90930290910180546001600160a01b03908116845260018201549081169484019490945260ff600160a01b85048116151592840192909252600160a81b840482161515606084015291926080840191600160b01b909104166005811115611aa157fe5b6005811115611aac57fe5b815260200160028201548152602001600382016040518060200160405290816000820154815250508152602001600482016040518060200160405290816000820154815250508152602001600582016040518060200160405290816000820154815250508152602001600682016040518060200160405290816000820154815250508152602001600782016040518060200160405290816000820154815250508152602001600882016040518060200160405290816000820154815250508152602001600982016040518060200160405290816000820154815250508152505090508060c001518160e00151826101000151836101200151846101400151856101600151866101800151876000015188604001519a509a509a509a509a509a509a509a509a5050509193959799909294969850565b60375481565b611bef61393d565b50600081815260356020908152604091829020825161016081018452815461014082019081528152835180840185526001830154815281840152835180840185526002830154815281850152835180840185526003830154815260608201528351928301909352600481015482526080830191909152600581015460a0830152600681015460c0830152600781015460e0830152600801546001600160a01b038116610100830152600160a01b900460ff1615156101208201525b919050565b611cb7612c27565b6001600160a01b0316611cc8611012565b6001600160a01b031614611cee5760405162461bcd60e51b81526004016104f1906144c4565b6001600160a01b038116611d145760405162461bcd60e51b81526004016104f190614096565b600080546040516001600160a01b03808516939216917f8be0079c531659141344cd1fd0a4f28419497f9722a3daafe3b4186f6b6457e091a36000805473ffffffffffffffffffffffffffffffffffffffff19166001600160a01b0392909216919091179055565b60345481908110611d9f5760405162461bcd60e51b81526004016104f190614430565b611da7613878565b60348381548110611db457fe5b6000918252602091829020604080516101a081018252600a90930290910180546001600160a01b03908116845260018201549081169484019490945260ff600160a01b85048116151592840192909252600160a81b840482161515606084015291926080840191600160b01b909104166005811115611e2f57fe5b6005811115611e3a57fe5b815260028201546020808301919091526040805180830182526003850154815281840152805180830182526004850154815260608085019190915281518084018352600586015481526080850152815180840183526006860154815260a0850152815180840183526007860154815260c0850152815180840183526008860154815260e08501528151928301909152600990930154815261010090910152810151909150611efa5760405162461bcd60e51b81526004016104f1906140f3565b60365460208201516040517fa0b738810000000000000000000000000000000000000000000000000000000081526000926001600160a01b03169163a0b7388191611f489190600401613dd5565b60206040518083038186803b158015611f6057600080fd5b505afa158015611f74573d6000803e3d6000fd5b505050506040513d601f19601f82011682018060405250810190611f989190613a1f565b90506000816001600160a01b03166394f61134866040518263ffffffff1660e01b8152600401611fc891906148fa565b602060405180830381600087803b158015611fe257600080fd5b505af1158015611ff6573d6000803e3d6000fd5b505050506040513d601f19601f8201168201806040525081019061201a9190613a3b565b9050806120395760405162461bcd60e51b81526004016104f190614198565b60048360800151600581111561204b57fe5b1480612066575060058360800151600581111561206457fe5b145b156121e2576000858152603560205260409020600801546001600160a01b031615612116576120c273ddafbb505ad214d7b80b1f830fccc89b60fb7a83336120bd60028761018001516130a590919063ffffffff16565b6130c7565b6000858152603560205260409020600801546101808401516121119173ddafbb505ad214d7b80b1f830fccc89b60fb7a83916001600160a01b03909116906120bd90600263ffffffff6130a516565b61213a565b61213a73ddafbb505ad214d7b80b1f830fccc89b60fb7a83338561018001516130c7565b7ffc0ec3e59df0924914ac81382ddd54522bb0c38d2b91b0667f0103cf6502559d8560405161216991906148fa565b60405180910390a16000858152603560205260408120818155600181018290556002810182905560038101829055600481018290556005810182905560068101829055600781019190915560080180547fffffffffffffffffffffff000000000000000000000000000000000000000000169055612206565b61220673ddafbb505ad214d7b80b1f830fccc89b60fb7a83338561018001516130c7565b6034858154811061221357fe5b60009182526020808320600a909202909101805473ffffffffffffffffffffffffffffffffffffffff191681556001810180547fffffffffffffffffff000000000000000000000000000000000000000000000016905560028101839055600381018390556004810183905560058101839055600681018390556007810183905560088101839055600901919091558301516040516001600160a01b0391909116907f6ac084fe52cc25f2f64ae4aea087b0bf8e92c0a900b2425c1edda1f36c8cab0d906122e29088906148fa565b60405180910390a25050505050565b6122fa82613223565b81906123195760405162461bcd60e51b81526004016104f19190613f19565b505050565b612326613865565b5060408051602081019091526000815290565b80158061234557508042105b6123615760405162461bcd60e51b81526004016104f190614161565b6040805160208101909152603854815260009061238590859063ffffffff61285516565b60000b12156123a65760405162461bcd60e51b81526004016104f1906144f9565b6036546040517fa0b738810000000000000000000000000000000000000000000000000000000081526000916001600160a01b03169063a0b73881906123f0903390600401613dd5565b60206040518083038186803b15801561240857600080fd5b505afa15801561241c573d6000803e3d6000fd5b505050506040513d601f19601f820116820180604052508101906124409190613a1f565b90506001600160a01b0381166124685760405162461bcd60e51b81526004016104f1906143f9565b6040517f0774a784000000000000000000000000000000000000000000000000000000008152738c29f6f7fc1999ab84b476952e986f974acb382490630774a784906124b8908f90600401613dd5565b60206040518083038186803b1580156124d057600080fd5b505afa1580156124e4573d6000803e3d6000fd5b505050506040513d601f19601f820116820180604052508101906125089190613a3b565b6125245760405162461bcd60e51b81526004016104f190613f4c565b61253061121589613053565b61254861253b613081565b869063ffffffff61285516565b60000b6000191461256b5760405162461bcd60e51b81526004016104f19061405f565b6125aa876040518060400160405280601981526020017f43616e6e6f74207370656e64203020636f6c6c61746572616c000000000000008152506122f1565b6125c26125b5613081565b879063ffffffff61285516565b60000b60001914156125e65760405162461bcd60e51b81526004016104f190613f83565b61260673ddafbb505ad214d7b80b1f830fccc89b60fb7a83823087613227565b60345460405133917fcb0c37c16aa3b0bbb7a817932094d8a20a00996d426a813f067039f0ef87ab079161263a91906148fa565b60405180910390a26034604051806101a001604052808e6001600160a01b03168152602001336001600160a01b0316815260200185151581526020016001151581526020018d600581111561268b57fe5b8152602080820186905260408083018f905260608084018f905260808085018f905260a085018e905260c085018d905260e085018c90526101009094018a90528554600181810188556000978852968490208651600a9092020180546001600160a01b0392831673ffffffffffffffffffffffffffffffffffffffff1991821617825594870151978101805494880151938801511515600160a81b027fffffffffffffffffffff00ffffffffffffffffffffffffffffffffffffffffff941515600160a01b027fffffffffffffffffffffff00ffffffffffffffffffffffffffffffffffffffff9a90941695909616949094179790971617169190911780825591830151929392917fffffffffffffffffff00ffffffffffffffffffffffffffffffffffffffffffff16600160b01b8360058111156127c657fe5b021790555060a0820151600282015560c082015151600382015560e08201515160048201556101008201515160058201556101208201515160068201556101408201515160078201556101608201515160088201556101809091015151600990910155505050505050505050505050565b6000808260000151121561284d57506001611caa565b506000919050565b80518251600091101561286a57506001610ede565b81518351101561287d5750600019610ede565b50600092915050565b61288e613865565b5060008181526035602090815260408083208151928301909152548152603480549192916128c191908590811061078e57fe5b6128cc5760016128cf565b60005b600084815260356020526040902060080154909150600160a01b900460ff1615612a90576128fb613865565b8161293f576000848152603560209081526040918290208251918201909252600290910154815261293a9061292e613081565b9063ffffffff61337c16565b612979565b600084815260356020908152604091829020825191820190925260029091015481526129799061296d613081565b9063ffffffff61339f16565b9050612983613865565b826129bb57600085815260356020908152604091829020825191820190925260049091015481526129b69061292e613081565b6129e9565b600085815260356020908152604091829020825191820190925260049091015481526129e99061296d613081565b90506129fb848363ffffffff6133c216565b60348681548110612a0857fe5b90600052602060002090600a020160030160008201518160000155905050612a638160348781548110612a3757fe5b60009182526020918290206040805193840190526003600a90920201015481529063ffffffff6133c216565b60348681548110612a7057fe5b6000918252602090912091516004600a9092029092010155506123199050565b80612acd5760008381526035602090815260409182902082519182019092526001909101548152612ac890839063ffffffff61337c16565b612b00565b60008381526035602090815260409182902082519182019092526001909101548152612b0090839063ffffffff61339f16565b60348481548110612b0d57fe5b6000918252602090912091516003600a909202909201015580612b9657612b916035600085815260200190815260200160002060030160405180602001604052908160008201548152505060348581548110612b6557fe5b60009182526020918290206040805193840190526003600a90920201015481529063ffffffff61337c16565b612bfd565b612bfd6035600085815260200190815260200160002060030160405180602001604052908160008201548152505060348581548110612bd157fe5b60009182526020918290206040805193840190526003600a90920201015481529063ffffffff61339f16565b60348481548110612c0a57fe5b6000918252602090912091516004600a9092029092010155505050565b3390565b60006001856001600160a01b0316630d451c8f6040518163ffffffff1660e01b815260040160206040518083038186803b158015612c6857600080fd5b505afa158015612c7c573d6000803e3d6000fd5b505050506040513d601f19601f82011682018060405250810190612ca09190613d2c565b603454919003915060001901612cb4613865565b866001600160a01b031663dc76fabc6040518163ffffffff1660e01b815260040160206040518083038186803b158015612ced57600080fd5b505afa158015612d01573d6000803e3d6000fd5b505050506040513d601f19601f82011682018060405250810190612d259190613cf9565b90508315612eb757612d386125b5613081565b60000b60001914612d5b5760405162461bcd60e51b81526004016104f1906141cf565b612d6661253b613081565b60000b60001914612d895760405162461bcd60e51b81526004016104f1906143c2565b604051806101400160405280828152602001612da361231e565b8152602001878152602001612db661231e565b815260208082018890526040808301879052606080840188905242608080860191909152600060a0808701829052600160c09788018190528a8352603587529185902088515181559588015151918601919091559286015151600285015590850151516003840155840151516004830155830151600582015590820151600682015560e0820151600782015561010082015160089091018054610120909301511515600160a01b027fffffffffffffffffffffff00ffffffffffffffffffffffffffffffffffffffff6001600160a01b039390931673ffffffffffffffffffffffffffffffffffffffff199094169390931791909116919091179055612fdc565b604051806101400160405280828152602001878152602001612ed761231e565b8152602001868152602001612eea61231e565b815260208082018690526040808301879052426060808501919091526000608080860182905260a095860182905288825260358552908390208651518155938601515160018501559185015151600284015584015151600383015583015151600482015590820151600582015560c0820151600682015560e0820151600782015561010082015160089091018054610120909301511515600160a01b027fffffffffffffffffffffff00ffffffffffffffffffffffffffffffffffffffff6001600160a01b039390931673ffffffffffffffffffffffffffffffffffffffff1990941693909317919091169190911790555b612fe582612886565b7f4c307a456602a1cfcbea38a491adb935be2ec87ce2d533dfecf1240ad30d710d8284604051613016929190614903565b60405180910390a150505050505050565b61302f613865565b613037613865565b8251845161304a9163ffffffff6133e516565b81529392505050565b61305b613865565b613063613865565b8251600013156130795782516000038152610ede565b915182525090565b613089613865565b604051806020016040528061309e60126133fa565b9052905090565b6130ad613865565b6130b5613865565b835161304a908463ffffffff61340316565b6130d083613435565b6130d8613865565b6130e28484613482565b905060006130f0858461350f565b905060006060866001600160a01b031663a9059cbb60e01b878560405160240161311b929190613f00565b60408051601f198184030181529181526020820180517bffffffffffffffffffffffffffffffffffffffffffffffffffffffff167fffffffff000000000000000000000000000000000000000000000000000000009094169390931790925290516131869190613db9565b6000604051808303816000865af19150503d80600081146131c3576040519150601f19603f3d011682016040523d82523d6000602084013e6131c8565b606091505b50915091508180156131f25750805115806131f25750808060200190518101906131f29190613a3b565b61320e5760405162461bcd60e51b81526004016104f190614028565b61321a87878587613585565b50505050505050565b5190565b61323084613435565b613238613865565b6132428584613482565b90506000613250868461350f565b905060006060876001600160a01b03166323b872dd60e01b88888660405160240161327d93929190613edc565b60408051601f198184030181529181526020820180517bffffffffffffffffffffffffffffffffffffffffffffffffffffffff167fffffffff000000000000000000000000000000000000000000000000000000009094169390931790925290516132e89190613db9565b6000604051808303816000865af19150503d8060008114613325576040519150601f19603f3d011682016040523d82523d6000602084013e61332a565b606091505b50915091508180156133545750805115806133545750808060200190518101906133549190613a3b565b6133705760405162461bcd60e51b81526004016104f190614308565b61096c88878587613585565b613384613865565b61338c613865565b8251845161304a9163ffffffff6135de16565b6133a7613865565b6133af613865565b8251845161304a9163ffffffff61360616565b6133ca613865565b6133d2613865565b8251845161304a9163ffffffff61362b16565b60006133f383836012613639565b9392505050565b60ff16600a0a90565b60008082116134245760405162461bcd60e51b81526004016104f190614274565b81838161342d57fe5b049392505050565b600061344082613660565b6001600160a01b038316600090815260016020526040902054909150811461347e576001600160a01b03821660009081526001602052604090208190555b5050565b61348a613865565b6133f383846001600160a01b03166370a08231856040518263ffffffff1660e01b81526004016134ba9190613dd5565b60206040518083038186803b1580156134d257600080fd5b505afa1580156134e6573d6000803e3d6000fd5b505050506040513d601f19601f8201168201806040525081019061350a9190613d2c565b61377b565b60008061351b84613660565b9050601281106135595761355161353982601263ffffffff6135de16565b600a0a61354585613223565b9063ffffffff61380d16565b915050610ede565b610eda61356d60128363ffffffff6135de16565b600a0a61357985613223565b9063ffffffff61340316565b6135b86135a2613595868561377b565b839063ffffffff61339f16565b6135ac8686613482565b9063ffffffff61285516565b60000b156135d85760405162461bcd60e51b81526004016104f19061458d565b50505050565b6000828211156136005760405162461bcd60e51b81526004016104f190614206565b50900390565b6000828201838110156133f35760405162461bcd60e51b81526004016104f19061412a565b60006133f383836012613847565b60006136588361357961364b856133fa565b879063ffffffff61380d16565b949350505050565b6001600160a01b03811660009081526001602052604081205480610ede5760408051600481526024810182526020810180517bffffffffffffffffffffffffffffffffffffffffffffffffffffffff167f313ce5670000000000000000000000000000000000000000000000000000000017905290516000916060916001600160a01b038716916136f091613db9565b600060405180830381855afa9150503d806000811461372b576040519150601f19603f3d011682016040523d82523d6000602084013e613730565b606091505b50915091508180156137425750805115155b61375e5760405162461bcd60e51b81526004016104f1906142ab565b808060200190518101906137729190613d2c565b95945050505050565b613783613865565b600061378e84613660565b9050601281106137d3576040805160208101909152806137c86137b884601263ffffffff6135de16565b8690600a0a63ffffffff61340316565b815250915050610ede565b6040805160208101909152806138036137f360128563ffffffff6135de16565b8690600a0a63ffffffff61380d16565b9052949350505050565b60008261381c57506000610ede565b8282028284828161382957fe5b04146133f35760405162461bcd60e51b81526004016104f190614467565b6000613658613855836133fa565b613579868663ffffffff61380d16565b6040518060200160405280600081525090565b604080516101a081018252600080825260208201819052918101829052606081018290529060808201908152602001600081526020016138b6613865565b81526020016138c3613865565b81526020016138d0613865565b81526020016138dd613865565b81526020016138ea613865565b81526020016138f7613865565b8152602001613904613865565b905290565b604051806080016040528061391c613865565b8152602001613929613865565b815260200160008152602001600081525090565b604051806101400160405280613951613865565b815260200161395e613865565b815260200161396b613865565b8152602001613978613865565b8152602001613985613865565b815260200160008152602001600081526020016000815260200160006001600160a01b031681526020016000151581525090565b6000602082840312156139ca578081fd5b6139d46020614911565b9135825250919050565b6000602082840312156139ef578081fd5b6139f96020614911565b9151825250919050565b600060208284031215613a14578081fd5b81356133f381614971565b600060208284031215613a30578081fd5b81516133f381614971565b600060208284031215613a4c578081fd5b81516133f381614986565b6000806000806000806000806000806101408b8d031215613a76578586fd5b8a35613a8181614971565b9950613a908c60208d016139b9565b9850613a9f8c60408d016139b9565b9750613aae8c60608d016139b9565b9650613abd8c60808d016139b9565b9550613acc8c60a08d016139b9565b9450613adb8c60c08d016139b9565b9350613aea8c60e08d016139b9565b92506101008b0135613afb81614986565b809250506101208b013590509295989b9194979a5092959850565b600080600080600080600080610100898b031215613b32578384fd5b8835613b3d81614971565b9750613b4c8a60208b016139b9565b9650613b5b8a60408b016139b9565b9550613b6a8a60608b016139b9565b9450613b798a60808b016139b9565b9350613b888a60a08b016139b9565b925060c0890135613b9881614986565b8092505060e089013590509295985092959890939650565b60008060008060008060008060006101208a8c031215613bce578485fd5b8935613bd981614971565b9850613be88b60208c016139b9565b9750613bf78b60408c016139b9565b9650613c068b60608c016139b9565b9550613c158b60808c016139b9565b9450613c248b60a08c016139b9565b9350613c338b60c08c016139b9565b925060e08a0135613c4381614986565b809250506101008a013590509295985092959850929598565b60008060408385031215613c6e578182fd5b8235613c7981614971565b946020939093013593505050565b600060808284031215613c98578081fd5b613ca26080614911565b613cac84846139de565b8152613cbb84602085016139de565b602082015260408301516040820152606083015160608201528091505092915050565b600060208284031215613cef578081fd5b6133f383836139b9565b600060208284031215613d0a578081fd5b6133f383836139de565b600060208284031215613d25578081fd5b5035919050565b600060208284031215613d3d578081fd5b5051919050565b60008060008060008060008060006101208a8c031215613d62578283fd5b89359850613be88b60208c016139b9565b60008060408385031215613d85578182fd5b50508035926020909101359150565b6001600160a01b03169052565b15159052565b613db081614964565b9052565b519052565b60008251613dcb818460208701614938565b9190910192915050565b6001600160a01b0391909116815260200190565b6001600160a01b038e811682528d1660208201528b151560408201528a151560608201526101a08101613e1f608083018c613da7565b8960a0830152613e3260c083018a613db4565b613e3f60e0830189613db4565b613e4d610100830188613db4565b613e5b610120830187613db4565b613e69610140830186613db4565b613e77610160830185613db4565b613e85610180830184613db4565b9e9d5050505050505050505050505050565b6001600160a01b0387811682528616602082015260c08101613eb886614964565b60408201959095529215156060840152901515608083015260a09091015292915050565b6001600160a01b039384168152919092166020820152604081019190915260600190565b6001600160a01b03929092168252602082015260400190565b6000602082528251806020840152613f38816040850160208701614938565b601f01601f19169190910160400192915050565b6020808252600d908201527f616d6d206e6f7420666f756e6400000000000000000000000000000000000000604082015260600190565b60208082526013908201527f4d696e696d756d203178206c6576657261676500000000000000000000000000604082015260600190565b6020808252601f908201527f43616e206f6e6c79206d6f6469667920747261696c696e67206f726465727300604082015260600190565b60208082526019908201527f4f72646572206861646e2774206265656e206372656174656400000000000000604082015260600190565b6020808252601d908201527f446563696d616c45524332303a207472616e73666572206661696c6564000000604082015260600190565b6020808252601b908201527f536c697070616765206d7573742062652070657263656e746167650000000000604082015260600190565b60208082526026908201527f4f776e61626c653a206e6577206f776e657220697320746865207a65726f206160408201527f6464726573730000000000000000000000000000000000000000000000000000606082015260800190565b6020808252600f908201527f4e6f206c6f6e6765722076616c69640000000000000000000000000000000000604082015260600190565b6020808252601b908201527f536166654d6174683a206164646974696f6e206f766572666c6f770000000000604082015260600190565b60208082526019908201527f4576656e742077696c6c2065787069726520696e207061737400000000000000604082015260600190565b60208082526015908201527f4572726f7220657865637574696e67206f726465720000000000000000000000604082015260600190565b60208082526015908201527f496e76616c696420747261696c2070657263656e740000000000000000000000604082015260600190565b6020808252601e908201527f536166654d6174683a207375627472616374696f6e206f766572666c6f770000604082015260600190565b6020808252601d908201527f43616e206f6e6c7920706f6b6520747261696c696e67206f7264657273000000604082015260600190565b6020808252601a908201527f536166654d6174683a206469766973696f6e206279207a65726f000000000000604082015260600190565b60208082526021908201527f446563696d616c45524332303a2067657420646563696d616c73206661696c6560408201527f6400000000000000000000000000000000000000000000000000000000000000606082015260800190565b60208082526021908201527f446563696d616c45524332303a207472616e7366657246726f6d206661696c6560408201527f6400000000000000000000000000000000000000000000000000000000000000606082015260800190565b60208082526024908201527f43616e206f6e6c792062652075706461746564206576657279203130206d696e60408201527f7574657300000000000000000000000000000000000000000000000000000000606082015260800190565b60208082526013908201527f496e76616c6964206761702070657263656e7400000000000000000000000000604082015260600190565b60208082526011908201527f4e65656420736d6172742077616c6c6574000000000000000000000000000000604082015260600190565b6020808252600a908201527f496e76616c696420494400000000000000000000000000000000000000000000604082015260600190565b60208082526021908201527f536166654d6174683a206d756c7469706c69636174696f6e206f766572666c6f60408201527f7700000000000000000000000000000000000000000000000000000000000000606082015260800190565b6020808252818101527f4f776e61626c653a2063616c6c6572206973206e6f7420746865206f776e6572604082015260600190565b6020808252602a908201527f4a757374207468652074697021205469702069732062656c6f77206d696e696d60408201527f756d207469702066656500000000000000000000000000000000000000000000606082015260800190565b60208082526018908201527f496e636f727265637420747261696c696e672070726963650000000000000000604082015260600190565b60208082526022908201527f446563696d616c45524332303a2062616c616e636520696e636f6e736973746560408201527f6e74000000000000000000000000000000000000000000000000000000000000606082015260800190565b6020808252601d908201527f536e617073686f7420496e64657820646f6573206e6f74206578697374000000604082015260600190565b60208082526021908201527f43616e206f6e6c79206d6f646966792073746f702f6c696d6974206f7264657260408201527f7300000000000000000000000000000000000000000000000000000000000000606082015260800190565b6020808252600e908201527f4e6f7420796f7572206f72646572000000000000000000000000000000000000604082015260600190565b60006101a0820190506146c9828451613d94565b60208301516146db6020840182613d94565b5060408301516146ee6040840182613da1565b5060608301516147016060840182613da1565b5060808301516147146080840182613da7565b5060a083015160a083015260c083015161473160c0840182613db4565b5060e083015161474460e0840182613db4565b506101008084015161475882850182613db4565b50506101208084015161476d82850182613db4565b50506101408084015161478282850182613db4565b50506101608084015161479782850182613db4565b5050610180808401516147ac82850182613db4565b505092915050565b6000610140820190506147c8828451613db4565b60208301516147da6020840182613db4565b5060408301516147ed6040840182613db4565b5060608301516148006060840182613db4565b5060808301516148136080840182613db4565b5060a083015160a083015260c083015160c083015260e083015160e08301526101008084015161484582850182613d94565b5050610120808401516147ac82850182613da1565b9051815260200190565b99518a52975160208a015295516040890152935160608801529151608087015260a086015260c085015260e08401526001600160a01b031661010083015215156101208201526101400190565b98518952965160208901529451604088015292516060870152905160808601525160a08501525160c08401526001600160a01b031660e083015215156101008201526101200190565b90815260200190565b918252602082015260400190565b60405181810167ffffffffffffffff8111828210171561493057600080fd5b604052919050565b60005b8381101561495357818101518382015260200161493b565b838111156135d85750506000910152565b6006811061496e57fe5b50565b6001600160a01b038116811461496e57600080fd5b801515811461496e57600080fdfea26469706673582212209899aa9d4194405a81787c7260da514c7e17252b29a382c20aa8a49c3305c90564736f6c63430006090033",
  "linkReferences": {},
  "deployedLinkReferences": {}
}