{
  "_format": "hh-sol-artifact-1",
  "contractName": "LimitOrderBook",
  "sourceName": "contracts/LimitOrderBook.sol",
  "abi": [
    {
      "inputs": [],
      "stateMutability": "nonpayable",
      "type": "constructor"
    },
    {
      "anonymous": false,
      "inputs": [
        {
          "indexed": true,
          "internalType": "address",
          "name": "trader",
          "type": "address"
        },
        {
          "indexed": false,
          "internalType": "int256",
          "name": "limit",
          "type": "int256"
        },
        {
          "indexed": false,
          "internalType": "int256",
          "name": "size",
          "type": "int256"
        },
        {
          "indexed": false,
          "internalType": "int256",
          "name": "expiry",
          "type": "int256"
        },
        {
          "indexed": false,
          "internalType": "int256",
          "name": "leverage",
          "type": "int256"
        },
        {
          "indexed": false,
          "internalType": "address",
          "name": "asset",
          "type": "address"
        }
      ],
      "name": "OrderCreated",
      "type": "event"
    },
    {
      "inputs": [
        {
          "internalType": "int256",
          "name": "_limit",
          "type": "int256"
        },
        {
          "internalType": "int256",
          "name": "_size",
          "type": "int256"
        },
        {
          "internalType": "int256",
          "name": "_expiry",
          "type": "int256"
        },
        {
          "internalType": "int256",
          "name": "_leverage",
          "type": "int256"
        },
        {
          "internalType": "address",
          "name": "_asset",
          "type": "address"
        }
      ],
      "name": "addLimitOrder",
      "outputs": [],
      "stateMutability": "nonpayable",
      "type": "function"
    },
    {
      "inputs": [
        {
          "internalType": "uint256",
          "name": "id",
          "type": "uint256"
        }
      ],
      "name": "getLimitOrder",
      "outputs": [
        {
          "internalType": "int256",
          "name": "",
          "type": "int256"
        },
        {
          "internalType": "int256",
          "name": "",
          "type": "int256"
        },
        {
          "internalType": "int256",
          "name": "",
          "type": "int256"
        },
        {
          "internalType": "int256",
          "name": "",
          "type": "int256"
        },
        {
          "internalType": "bool",
          "name": "",
          "type": "bool"
        },
        {
          "internalType": "address",
          "name": "",
          "type": "address"
        },
        {
          "internalType": "address",
          "name": "",
          "type": "address"
        }
      ],
      "stateMutability": "view",
      "type": "function"
    },
    {
      "inputs": [
        {
          "internalType": "uint256",
          "name": "",
          "type": "uint256"
        }
      ],
      "name": "orders",
      "outputs": [
        {
          "internalType": "int256",
          "name": "LimitPrice",
          "type": "int256"
        },
        {
          "internalType": "int256",
          "name": "PositionSize",
          "type": "int256"
        },
        {
          "internalType": "int256",
          "name": "Expiry",
          "type": "int256"
        },
        {
          "internalType": "int256",
          "name": "Leverage",
          "type": "int256"
        },
        {
          "internalType": "bool",
          "name": "StillValid",
          "type": "bool"
        },
        {
          "internalType": "address",
          "name": "Asset",
          "type": "address"
        },
        {
          "internalType": "address",
          "name": "Trader",
          "type": "address"
        }
      ],
      "stateMutability": "view",
      "type": "function"
    }
  ],
  "bytecode": "0x608060405234801561001057600080fd5b506106ec806100206000396000f3fe608060405234801561001057600080fd5b50600436106100415760003560e01c806353061026146100465780636490801f1461010e578063a85c38ef1461017a575b600080fd5b6100726004803603602081101561005c57600080fd5b8101908080359060200190929190505050610242565b60405180888152602001878152602001868152602001858152602001841515151581526020018373ffffffffffffffffffffffffffffffffffffffff1673ffffffffffffffffffffffffffffffffffffffff1681526020018273ffffffffffffffffffffffffffffffffffffffff1673ffffffffffffffffffffffffffffffffffffffff16815260200197505050505050505060405180910390f35b610178600480360360a081101561012457600080fd5b8101908080359060200190929190803590602001909291908035906020019092919080359060200190929190803573ffffffffffffffffffffffffffffffffffffffff1690602001909291905050506103a9565b005b6101a66004803603602081101561019057600080fd5b81019080803590602001909291905050506105af565b60405180888152602001878152602001868152602001858152602001841515151581526020018373ffffffffffffffffffffffffffffffffffffffff1673ffffffffffffffffffffffffffffffffffffffff1681526020018273ffffffffffffffffffffffffffffffffffffffff1673ffffffffffffffffffffffffffffffffffffffff16815260200197505050505050505060405180910390f35b600080600080600080600061025561064b565b6000898154811061026257fe5b90600052602060002090600602016040518060e0016040529081600082015481526020016001820154815260200160028201548152602001600382015481526020016004820160009054906101000a900460ff161515151581526020016004820160019054906101000a900473ffffffffffffffffffffffffffffffffffffffff1673ffffffffffffffffffffffffffffffffffffffff1673ffffffffffffffffffffffffffffffffffffffff1681526020016005820160009054906101000a900473ffffffffffffffffffffffffffffffffffffffff1673ffffffffffffffffffffffffffffffffffffffff1673ffffffffffffffffffffffffffffffffffffffff16815250509050806000015181602001518260400151836060015184608001518560a001518660c00151975097509750975097509750975050919395979092949650565b60006040518060e001604052808781526020018681526020018581526020018481526020016001151581526020018373ffffffffffffffffffffffffffffffffffffffff1681526020013373ffffffffffffffffffffffffffffffffffffffff1681525090806001815401808255809150506001900390600052602060002090600602016000909190919091506000820151816000015560208201518160010155604082015181600201556060820151816003015560808201518160040160006101000a81548160ff02191690831515021790555060a08201518160040160016101000a81548173ffffffffffffffffffffffffffffffffffffffff021916908373ffffffffffffffffffffffffffffffffffffffff16021790555060c08201518160050160006101000a81548173ffffffffffffffffffffffffffffffffffffffff021916908373ffffffffffffffffffffffffffffffffffffffff16021790555050503373ffffffffffffffffffffffffffffffffffffffff167f3c854f7e068d2e79754470a7c7415a02dd528460d6ff0f71bc1aa924849fa14e8686868686604051808681526020018581526020018481526020018381526020018273ffffffffffffffffffffffffffffffffffffffff1673ffffffffffffffffffffffffffffffffffffffff1681526020019550505050505060405180910390a25050505050565b600081815481106105bc57fe5b90600052602060002090600602016000915090508060000154908060010154908060020154908060030154908060040160009054906101000a900460ff16908060040160019054906101000a900473ffffffffffffffffffffffffffffffffffffffff16908060050160009054906101000a900473ffffffffffffffffffffffffffffffffffffffff16905087565b6040518060e0016040528060008152602001600081526020016000815260200160008152602001600015158152602001600073ffffffffffffffffffffffffffffffffffffffff168152602001600073ffffffffffffffffffffffffffffffffffffffff168152509056fea26469706673582212206103ce0a59006810350856a3fd8737047895c8cf633bb981371f14bbfaa4308364736f6c63430006090033",
  "linkReferences": {},
  "deployedLinkReferences": {}
}