{
  "_format": "hh-sol-artifact-1",
  "contractName": "LimitOrderBook",
  "sourceName": "contracts/LimitOrderBook.sol",
  "abi": [
    {
      "inputs": [],
      "stateMutability": "nonpayable",
      "type": "constructor"
    },
    {
      "anonymous": false,
      "inputs": [
        {
          "indexed": true,
          "internalType": "address",
          "name": "trader",
          "type": "address"
        },
        {
          "indexed": false,
          "internalType": "uint256",
          "name": "order_id",
          "type": "uint256"
        }
      ],
      "name": "OrderCreated",
      "type": "event"
    },
    {
      "anonymous": false,
      "inputs": [
        {
          "indexed": true,
          "internalType": "address",
          "name": "previousOwner",
          "type": "address"
        },
        {
          "indexed": true,
          "internalType": "address",
          "name": "newOwner",
          "type": "address"
        }
      ],
      "name": "OwnershipTransferred",
      "type": "event"
    },
    {
      "inputs": [
        {
          "internalType": "address",
          "name": "_asset",
          "type": "address"
        },
        {
          "components": [
            {
              "internalType": "uint256",
              "name": "d",
              "type": "uint256"
            }
          ],
          "internalType": "struct Decimal.decimal",
          "name": "_limitPrice",
          "type": "tuple"
        },
        {
          "components": [
            {
              "internalType": "int256",
              "name": "d",
              "type": "int256"
            }
          ],
          "internalType": "struct SignedDecimal.signedDecimal",
          "name": "_positionSize",
          "type": "tuple"
        },
        {
          "components": [
            {
              "internalType": "uint256",
              "name": "d",
              "type": "uint256"
            }
          ],
          "internalType": "struct Decimal.decimal",
          "name": "_collateral",
          "type": "tuple"
        }
      ],
      "name": "addLimitOrder",
      "outputs": [],
      "stateMutability": "nonpayable",
      "type": "function"
    },
    {
      "inputs": [
        {
          "internalType": "uint256",
          "name": "id",
          "type": "uint256"
        }
      ],
      "name": "execute",
      "outputs": [],
      "stateMutability": "nonpayable",
      "type": "function"
    },
    {
      "inputs": [],
      "name": "factory",
      "outputs": [
        {
          "internalType": "contract SmartWalletFactory",
          "name": "",
          "type": "address"
        }
      ],
      "stateMutability": "view",
      "type": "function"
    },
    {
      "inputs": [
        {
          "internalType": "uint256",
          "name": "id",
          "type": "uint256"
        }
      ],
      "name": "getLimitOrder",
      "outputs": [
        {
          "components": [
            {
              "internalType": "address",
              "name": "asset",
              "type": "address"
            },
            {
              "internalType": "address",
              "name": "trader",
              "type": "address"
            },
            {
              "internalType": "enum LimitOrderBook.OrderType",
              "name": "orderType",
              "type": "uint8"
            },
            {
              "internalType": "bool",
              "name": "reduceOnly",
              "type": "bool"
            },
            {
              "internalType": "bool",
              "name": "stillValid",
              "type": "bool"
            },
            {
              "internalType": "uint256",
              "name": "expiry",
              "type": "uint256"
            },
            {
              "components": [
                {
                  "internalType": "uint256",
                  "name": "d",
                  "type": "uint256"
                }
              ],
              "internalType": "struct Decimal.decimal",
              "name": "limitPrice",
              "type": "tuple"
            },
            {
              "components": [
                {
                  "internalType": "uint256",
                  "name": "d",
                  "type": "uint256"
                }
              ],
              "internalType": "struct Decimal.decimal",
              "name": "stopPrice",
              "type": "tuple"
            },
            {
              "components": [
                {
                  "internalType": "int256",
                  "name": "d",
                  "type": "int256"
                }
              ],
              "internalType": "struct SignedDecimal.signedDecimal",
              "name": "orderSize",
              "type": "tuple"
            },
            {
              "components": [
                {
                  "internalType": "uint256",
                  "name": "d",
                  "type": "uint256"
                }
              ],
              "internalType": "struct Decimal.decimal",
              "name": "collateral",
              "type": "tuple"
            },
            {
              "components": [
                {
                  "internalType": "uint256",
                  "name": "d",
                  "type": "uint256"
                }
              ],
              "internalType": "struct Decimal.decimal",
              "name": "leverage",
              "type": "tuple"
            },
            {
              "components": [
                {
                  "internalType": "uint256",
                  "name": "d",
                  "type": "uint256"
                }
              ],
              "internalType": "struct Decimal.decimal",
              "name": "slippage",
              "type": "tuple"
            },
            {
              "components": [
                {
                  "internalType": "uint256",
                  "name": "d",
                  "type": "uint256"
                }
              ],
              "internalType": "struct Decimal.decimal",
              "name": "tipFee",
              "type": "tuple"
            }
          ],
          "internalType": "struct LimitOrderBook.LimitOrder",
          "name": "",
          "type": "tuple"
        }
      ],
      "stateMutability": "view",
      "type": "function"
    },
    {
      "inputs": [
        {
          "internalType": "uint256",
          "name": "id",
          "type": "uint256"
        }
      ],
      "name": "getLimitOrderParams",
      "outputs": [
        {
          "internalType": "address",
          "name": "",
          "type": "address"
        },
        {
          "internalType": "address",
          "name": "",
          "type": "address"
        },
        {
          "internalType": "enum LimitOrderBook.OrderType",
          "name": "",
          "type": "uint8"
        },
        {
          "internalType": "bool",
          "name": "",
          "type": "bool"
        },
        {
          "internalType": "bool",
          "name": "",
          "type": "bool"
        },
        {
          "internalType": "uint256",
          "name": "",
          "type": "uint256"
        }
      ],
      "stateMutability": "view",
      "type": "function"
    },
    {
      "inputs": [
        {
          "internalType": "uint256",
          "name": "id",
          "type": "uint256"
        }
      ],
      "name": "getLimitOrderPrices",
      "outputs": [
        {
          "components": [
            {
              "internalType": "uint256",
              "name": "d",
              "type": "uint256"
            }
          ],
          "internalType": "struct Decimal.decimal",
          "name": "",
          "type": "tuple"
        },
        {
          "components": [
            {
              "internalType": "uint256",
              "name": "d",
              "type": "uint256"
            }
          ],
          "internalType": "struct Decimal.decimal",
          "name": "",
          "type": "tuple"
        },
        {
          "components": [
            {
              "internalType": "int256",
              "name": "d",
              "type": "int256"
            }
          ],
          "internalType": "struct SignedDecimal.signedDecimal",
          "name": "",
          "type": "tuple"
        },
        {
          "components": [
            {
              "internalType": "uint256",
              "name": "d",
              "type": "uint256"
            }
          ],
          "internalType": "struct Decimal.decimal",
          "name": "",
          "type": "tuple"
        },
        {
          "components": [
            {
              "internalType": "uint256",
              "name": "d",
              "type": "uint256"
            }
          ],
          "internalType": "struct Decimal.decimal",
          "name": "",
          "type": "tuple"
        },
        {
          "components": [
            {
              "internalType": "uint256",
              "name": "d",
              "type": "uint256"
            }
          ],
          "internalType": "struct Decimal.decimal",
          "name": "",
          "type": "tuple"
        },
        {
          "components": [
            {
              "internalType": "uint256",
              "name": "d",
              "type": "uint256"
            }
          ],
          "internalType": "struct Decimal.decimal",
          "name": "",
          "type": "tuple"
        }
      ],
      "stateMutability": "view",
      "type": "function"
    },
    {
      "inputs": [
        {
          "internalType": "uint256",
          "name": "",
          "type": "uint256"
        }
      ],
      "name": "orders",
      "outputs": [
        {
          "internalType": "address",
          "name": "asset",
          "type": "address"
        },
        {
          "internalType": "address",
          "name": "trader",
          "type": "address"
        },
        {
          "internalType": "enum LimitOrderBook.OrderType",
          "name": "orderType",
          "type": "uint8"
        },
        {
          "internalType": "bool",
          "name": "reduceOnly",
          "type": "bool"
        },
        {
          "internalType": "bool",
          "name": "stillValid",
          "type": "bool"
        },
        {
          "internalType": "uint256",
          "name": "expiry",
          "type": "uint256"
        },
        {
          "components": [
            {
              "internalType": "uint256",
              "name": "d",
              "type": "uint256"
            }
          ],
          "internalType": "struct Decimal.decimal",
          "name": "limitPrice",
          "type": "tuple"
        },
        {
          "components": [
            {
              "internalType": "uint256",
              "name": "d",
              "type": "uint256"
            }
          ],
          "internalType": "struct Decimal.decimal",
          "name": "stopPrice",
          "type": "tuple"
        },
        {
          "components": [
            {
              "internalType": "int256",
              "name": "d",
              "type": "int256"
            }
          ],
          "internalType": "struct SignedDecimal.signedDecimal",
          "name": "orderSize",
          "type": "tuple"
        },
        {
          "components": [
            {
              "internalType": "uint256",
              "name": "d",
              "type": "uint256"
            }
          ],
          "internalType": "struct Decimal.decimal",
          "name": "collateral",
          "type": "tuple"
        },
        {
          "components": [
            {
              "internalType": "uint256",
              "name": "d",
              "type": "uint256"
            }
          ],
          "internalType": "struct Decimal.decimal",
          "name": "leverage",
          "type": "tuple"
        },
        {
          "components": [
            {
              "internalType": "uint256",
              "name": "d",
              "type": "uint256"
            }
          ],
          "internalType": "struct Decimal.decimal",
          "name": "slippage",
          "type": "tuple"
        },
        {
          "components": [
            {
              "internalType": "uint256",
              "name": "d",
              "type": "uint256"
            }
          ],
          "internalType": "struct Decimal.decimal",
          "name": "tipFee",
          "type": "tuple"
        }
      ],
      "stateMutability": "view",
      "type": "function"
    },
    {
      "inputs": [],
      "name": "owner",
      "outputs": [
        {
          "internalType": "address",
          "name": "",
          "type": "address"
        }
      ],
      "stateMutability": "view",
      "type": "function"
    },
    {
      "inputs": [],
      "name": "renounceOwnership",
      "outputs": [],
      "stateMutability": "nonpayable",
      "type": "function"
    },
    {
      "inputs": [
        {
          "internalType": "address",
          "name": "_addr",
          "type": "address"
        }
      ],
      "name": "setFactory",
      "outputs": [],
      "stateMutability": "nonpayable",
      "type": "function"
    },
    {
      "inputs": [
        {
          "internalType": "address",
          "name": "newOwner",
          "type": "address"
        }
      ],
      "name": "transferOwnership",
      "outputs": [],
      "stateMutability": "nonpayable",
      "type": "function"
    }
  ],
  "bytecode": "0x608060405234801561001057600080fd5b5060006100246001600160e01b0361007316565b600080546001600160a01b0319166001600160a01b0383169081178255604051929350917f8be0079c531659141344cd1fd0a4f28419497f9722a3daafe3b4186f6b6457e0908290a350610077565b3390565b6116b6806100866000396000f3fe608060405234801561001057600080fd5b50600436106100c95760003560e01c8063a85c38ef11610081578063ebaca5c41161005b578063ebaca5c4146101a8578063f2fde38b146101bb578063fe0d94c1146101ce576100c9565b8063a85c38ef1461014e578063c45a01551461017a578063e36a2dc014610182576100c9565b80635bb47808116100b25780635bb478081461011c578063715018a6146101315780638da5cb5b14610139576100c9565b80634c5789e3146100ce57806353061026146100fc575b600080fd5b6100e16100dc36600461121a565b6101e1565b6040516100f3969594939291906112b7565b60405180910390f35b61010f61010a36600461121a565b610392565b6040516100f3919061150b565b61012f61012a36600461112e565b6104f8565b005b61012f610566565b6101416105fc565b6040516100f391906112a3565b61016161015c36600461121a565b61060b565b6040516100f39d9c9b9a999897969594939291906112fd565b6101416106d9565b61019561019036600461121a565b6106e8565b6040516100f3979695949392919061160a565b61012f6101b636600461116d565b6108d4565b61012f6101c936600461112e565b610b27565b61012f6101dc36600461121a565b610bf4565b6000806000806000808660018054905081106102185760405162461bcd60e51b815260040161020f9061149f565b60405180910390fd5b610220611065565b6001898154811061022d57fe5b6000918252602091829020604080516101a081018252600a90930290910180546001600160a01b03908116845260018201549081169484019490945291929083019060ff600160a01b90910416600381111561028557fe5b600381111561029057fe5b8152600182015460ff600160a81b820481161515602080850191909152600160b01b90920416151560408084019190915260028401546060808501919091528151808401835260038601548152608080860191909152825180850184526004870154815260a080870191909152835180860185526005880154815260c0870152835180860185526006880154815260e087015283518086018552600788015481526101008701528351808601855260088801548152610120870152835180860185526009909701548752610140909501959095528551928601519186015190860151948601519590930151919e909d50919b5091995091975095509350505050565b61039a611065565b600154829081106103bd5760405162461bcd60e51b815260040161020f9061149f565b600183815481106103ca57fe5b6000918252602091829020604080516101a081018252600a90930290910180546001600160a01b03908116845260018201549081169484019490945291929083019060ff600160a01b90910416600381111561042257fe5b600381111561042d57fe5b8152600182015460ff600160a81b820481161515602080850191909152600160b01b9092041615156040808401919091526002840154606084015280518083018252600385015481526080840152805180830182526004850154815260a0840152805180830182526005850154815260c0840152805180830182526006850154815260e0840152805180830182526007850154815261010084015280518083018252600885015481526101208401528051918201905260099092015482526101400152915050919050565b610500610ec7565b6001600160a01b03166105116105fc565b6001600160a01b0316146105375760405162461bcd60e51b815260040161020f906114d6565b6002805473ffffffffffffffffffffffffffffffffffffffff19166001600160a01b0392909216919091179055565b61056e610ec7565b6001600160a01b031661057f6105fc565b6001600160a01b0316146105a55760405162461bcd60e51b815260040161020f906114d6565b600080546040516001600160a01b03909116907f8be0079c531659141344cd1fd0a4f28419497f9722a3daafe3b4186f6b6457e0908390a36000805473ffffffffffffffffffffffffffffffffffffffff19169055565b6000546001600160a01b031690565b6001818154811061061857fe5b6000918252602091829020600a9091020180546001820154600283015460408051808701825260038601548152815180880183526004870154815282518089018452600588015481528351808a018552600689015481528451808b01865260078a015481528551808c01875260088b0154815286519b8c019096526009909901548a526001600160a01b039788169a509686169860ff600160a01b8804811699600160a81b8904821699600160b01b9099049091169794959394929390918d565b6002546001600160a01b031681565b6106f06110f6565b6106f86110f6565b6107006110f6565b6107086110f6565b6107106110f6565b6107186110f6565b6107206110f6565b600154889081106107435760405162461bcd60e51b815260040161020f9061149f565b61074b611065565b60018a8154811061075857fe5b6000918252602091829020604080516101a081018252600a90930290910180546001600160a01b03908116845260018201549081169484019490945291929083019060ff600160a01b9091041660038111156107b057fe5b60038111156107bb57fe5b8152600182015460ff600160a81b820481161515602080850191909152600160b01b9092041615156040808401919091526002840154606084015280518083018252600385015481526080840152805180830182526004850154815260a0840152805180830182526005850154815260c080850191909152815180840183526006860154815260e08086019190915282518085018452600787015481526101008087019190915283518086018552600888015481526101208088019190915284519586019094526009909601548452610140948501939093528501519185015193850151908501519285015161016086015161018090960151929e50939c509a5090985090965090945092505050919395979092949650565b604080516101a0810182526001600160a01b038616815233602082015260019181018281526000602082018190526001604083015260608201526080810186905260a001610920610ecb565b8152602001848152602001838152602001610939610ecb565b8152602001610946610ecb565b8152602001610953610ecb565b905281546001818101845560009384526020938490208351600a9093020180546001600160a01b0393841673ffffffffffffffffffffffffffffffffffffffff19918216178255948401519181018054929093169190941617808255604083015192939291907fffffffffffffffffffffff00ffffffffffffffffffffffffffffffffffffffff16600160a01b8360038111156109ec57fe5b021790555060608201516001808301805460808601511515600160b01b027fffffffffffffffffff00ffffffffffffffffffffffffffffffffffffffffffff941515600160a81b027fffffffffffffffffffff00ffffffffffffffffffffffffffffffffffffffffff90921691909117939093169290921790915560a0830151600283015560c083015151600383015560e083015151600483015561010083015151600583015561012083015151600683015561014083015151600783015561016083015151600883015561018090920151516009909101555460405133917fcb0c37c16aa3b0bbb7a817932094d8a20a00996d426a813f067039f0ef87ab0791610b19917fffffffffffffffffffffffffffffffffffffffffffffffffffffffffffffffff019061163b565b60405180910390a250505050565b610b2f610ec7565b6001600160a01b0316610b406105fc565b6001600160a01b031614610b665760405162461bcd60e51b815260040161020f906114d6565b6001600160a01b038116610b8c5760405162461bcd60e51b815260040161020f9061140b565b600080546040516001600160a01b03808516939216917f8be0079c531659141344cd1fd0a4f28419497f9722a3daafe3b4186f6b6457e091a36000805473ffffffffffffffffffffffffffffffffffffffff19166001600160a01b0392909216919091179055565b60015481908110610c175760405162461bcd60e51b815260040161020f9061149f565b60018281548110610c2457fe5b90600052602060002090600a020160010160169054906101000a900460ff16610c5f5760405162461bcd60e51b815260040161020f90611468565b610c9e6040518060400160405280601f81526020017f4c4f423a20536f6d65626f647920657865637574696e67206f726465723a200081525083610ee6565b600254600180546000926001600160a01b03169163a0b738819186908110610cc257fe5b600091825260209091206001600a9092020101546040517fffffffff0000000000000000000000000000000000000000000000000000000060e084901b168152610d18916001600160a01b0316906004016112a3565b60206040518083038186803b158015610d3057600080fd5b505afa158015610d44573d6000803e3d6000fd5b505050506040513d601f19601f82011682018060405250810190610d689190611151565b9050610da96040518060400160405280601681526020017f2d536d61727457616c6c657420616464726573733a200000000000000000000081525082610f5d565b6040517f94f611340000000000000000000000000000000000000000000000000000000081526000906001600160a01b038316906394f6113490610df190879060040161163b565b602060405180830381600087803b158015610e0b57600080fd5b505af1158015610e1f573d6000803e3d6000fd5b505050506040513d601f19601f82011682018060405250810190610e4391906111fa565b90508015610ec157610e896040518060400160405280601481526020017f2d5375636365737366756c6c792063616c6c6564000000000000000000000000815250610fd0565b600060018581548110610e9857fe5b90600052602060002090600a020160010160166101000a81548160ff0219169083151502179055505b50505050565b3390565b610ed36110f6565b5060408051602081019091526000815290565b610f598282604051602401610efc9291906113e9565b60408051601f198184030181529190526020810180517bffffffffffffffffffffffffffffffffffffffffffffffffffffffff167f9710a9d000000000000000000000000000000000000000000000000000000000179052611044565b5050565b610f598282604051602401610f739291906113be565b60408051601f198184030181529190526020810180517bffffffffffffffffffffffffffffffffffffffffffffffffffffffff167f319af33300000000000000000000000000000000000000000000000000000000179052611044565b61104181604051602401610fe491906113ab565b60408051601f198184030181529190526020810180517bffffffffffffffffffffffffffffffffffffffffffffffffffffffff167f41304fac00000000000000000000000000000000000000000000000000000000179052611044565b50565b80516a636f6e736f6c652e6c6f67602083016000808483855afa5050505050565b604080516101a081018252600080825260208201819052909182019081526000602082018190526040820181905260608201526080016110a36110f6565b81526020016110b06110f6565b81526020016110bd6110f6565b81526020016110ca6110f6565b81526020016110d76110f6565b81526020016110e46110f6565b81526020016110f16110f6565b905290565b6040518060200160405280600081525090565b60006020828403121561111a578081fd5b6111246020611644565b9135825250919050565b60006020828403121561113f578081fd5b813561114a8161166b565b9392505050565b600060208284031215611162578081fd5b815161114a8161166b565b6000806000808486036080811215611183578384fd5b853561118e8161166b565b945061119d8760208801611109565b935060207fffffffffffffffffffffffffffffffffffffffffffffffffffffffffffffffc0820112156111ce578283fd5b506111d96020611644565b6040860135815291506111ef8660608701611109565b905092959194509250565b60006020828403121561120b578081fd5b8151801515811461114a578182fd5b60006020828403121561122b578081fd5b5035919050565b6001600160a01b03169052565b15159052565b6004811061124f57fe5b9052565b60008151808452815b818110156112785760208185018101518683018201520161125c565b818111156112895782602083870101525b50601f01601f19169290920160200192915050565b519052565b6001600160a01b0391909116815260200190565b6001600160a01b0387811682528616602082015260c08101600486106112d957fe5b60408201959095529215156060840152901515608083015260a09091015292915050565b6001600160a01b038e811682528d1660208201526101a08101611323604083018e611245565b8b151560608301528a151560808301528960a083015261134660c083018a61129e565b61135360e083018961129e565b61136161010083018861129e565b61136f61012083018761129e565b61137d61014083018661129e565b61138b61016083018561129e565b61139961018083018461129e565b9e9d5050505050505050505050505050565b60006020825261114a6020830184611253565b6000604082526113d16040830185611253565b90506001600160a01b03831660208301529392505050565b6000604082526113fc6040830185611253565b90508260208301529392505050565b60208082526026908201527f4f776e61626c653a206e6577206f776e657220697320746865207a65726f206160408201527f6464726573730000000000000000000000000000000000000000000000000000606082015260800190565b6020808252600f908201527f4e6f206c6f6e6765722076616c69640000000000000000000000000000000000604082015260600190565b6020808252600a908201527f496e76616c696420494400000000000000000000000000000000000000000000604082015260600190565b6020808252818101527f4f776e61626c653a2063616c6c6572206973206e6f7420746865206f776e6572604082015260600190565b60006101a08201905061151f828451611232565b60208301516115316020840182611232565b5060408301516115446040840182611245565b506060830151611557606084018261123f565b50608083015161156a608084018261123f565b5060a083015160a083015260c083015161158760c084018261129e565b5060e083015161159a60e084018261129e565b50610100808401516115ae8285018261129e565b5050610120808401516115c38285018261129e565b5050610140808401516115d88285018261129e565b5050610160808401516115ed8285018261129e565b5050610180808401516116028285018261129e565b505092915050565b965187529451602087015292516040860152905160608501525160808401525160a08301525160c082015260e00190565b90815260200190565b60405181810167ffffffffffffffff8111828210171561166357600080fd5b604052919050565b6001600160a01b038116811461104157600080fdfea2646970667358221220caec4719df2d1a3d775222191b70f68aba698a870ebbc6168c22c5233024c30e64736f6c63430006090033",
  "linkReferences": {},
  "deployedLinkReferences": {}
}