{
  "_format": "hh-sol-artifact-1",
  "contractName": "LimitOrderBook",
  "sourceName": "contracts/LimitOrderBook.sol",
  "abi": [
    {
      "inputs": [],
      "stateMutability": "nonpayable",
      "type": "constructor"
    },
    {
      "anonymous": false,
      "inputs": [
        {
          "indexed": true,
          "internalType": "address",
          "name": "trader",
          "type": "address"
        },
        {
          "indexed": false,
          "internalType": "uint256",
          "name": "order_id",
          "type": "uint256"
        }
      ],
      "name": "OrderCreated",
      "type": "event"
    },
    {
      "anonymous": false,
      "inputs": [
        {
          "indexed": true,
          "internalType": "address",
          "name": "previousOwner",
          "type": "address"
        },
        {
          "indexed": true,
          "internalType": "address",
          "name": "newOwner",
          "type": "address"
        }
      ],
      "name": "OwnershipTransferred",
      "type": "event"
    },
    {
      "inputs": [
        {
          "internalType": "address",
          "name": "_asset",
          "type": "address"
        },
        {
          "components": [
            {
              "internalType": "uint256",
              "name": "d",
              "type": "uint256"
            }
          ],
          "internalType": "struct Decimal.decimal",
          "name": "_limitPrice",
          "type": "tuple"
        },
        {
          "components": [
            {
              "internalType": "int256",
              "name": "d",
              "type": "int256"
            }
          ],
          "internalType": "struct SignedDecimal.signedDecimal",
          "name": "_positionSize",
          "type": "tuple"
        },
        {
          "components": [
            {
              "internalType": "uint256",
              "name": "d",
              "type": "uint256"
            }
          ],
          "internalType": "struct Decimal.decimal",
          "name": "_collateral",
          "type": "tuple"
        },
        {
          "components": [
            {
              "internalType": "uint256",
              "name": "d",
              "type": "uint256"
            }
          ],
          "internalType": "struct Decimal.decimal",
          "name": "_leverage",
          "type": "tuple"
        },
        {
          "components": [
            {
              "internalType": "uint256",
              "name": "d",
              "type": "uint256"
            }
          ],
          "internalType": "struct Decimal.decimal",
          "name": "_slippage",
          "type": "tuple"
        }
      ],
      "name": "addLimitOrder",
      "outputs": [],
      "stateMutability": "nonpayable",
      "type": "function"
    },
    {
      "inputs": [
        {
          "internalType": "uint256",
          "name": "id",
          "type": "uint256"
        }
      ],
      "name": "execute",
      "outputs": [],
      "stateMutability": "nonpayable",
      "type": "function"
    },
    {
      "inputs": [],
      "name": "factory",
      "outputs": [
        {
          "internalType": "contract SmartWalletFactory",
          "name": "",
          "type": "address"
        }
      ],
      "stateMutability": "view",
      "type": "function"
    },
    {
      "inputs": [
        {
          "internalType": "uint256",
          "name": "id",
          "type": "uint256"
        }
      ],
      "name": "getLimitOrder",
      "outputs": [
        {
          "components": [
            {
              "internalType": "address",
              "name": "asset",
              "type": "address"
            },
            {
              "internalType": "address",
              "name": "trader",
              "type": "address"
            },
            {
              "internalType": "enum LimitOrderBook.OrderType",
              "name": "orderType",
              "type": "uint8"
            },
            {
              "internalType": "bool",
              "name": "reduceOnly",
              "type": "bool"
            },
            {
              "internalType": "bool",
              "name": "stillValid",
              "type": "bool"
            },
            {
              "internalType": "uint256",
              "name": "expiry",
              "type": "uint256"
            },
            {
              "components": [
                {
                  "internalType": "uint256",
                  "name": "d",
                  "type": "uint256"
                }
              ],
              "internalType": "struct Decimal.decimal",
              "name": "limitPrice",
              "type": "tuple"
            },
            {
              "components": [
                {
                  "internalType": "uint256",
                  "name": "d",
                  "type": "uint256"
                }
              ],
              "internalType": "struct Decimal.decimal",
              "name": "stopPrice",
              "type": "tuple"
            },
            {
              "components": [
                {
                  "internalType": "int256",
                  "name": "d",
                  "type": "int256"
                }
              ],
              "internalType": "struct SignedDecimal.signedDecimal",
              "name": "orderSize",
              "type": "tuple"
            },
            {
              "components": [
                {
                  "internalType": "uint256",
                  "name": "d",
                  "type": "uint256"
                }
              ],
              "internalType": "struct Decimal.decimal",
              "name": "collateral",
              "type": "tuple"
            },
            {
              "components": [
                {
                  "internalType": "uint256",
                  "name": "d",
                  "type": "uint256"
                }
              ],
              "internalType": "struct Decimal.decimal",
              "name": "leverage",
              "type": "tuple"
            },
            {
              "components": [
                {
                  "internalType": "uint256",
                  "name": "d",
                  "type": "uint256"
                }
              ],
              "internalType": "struct Decimal.decimal",
              "name": "slippage",
              "type": "tuple"
            },
            {
              "components": [
                {
                  "internalType": "uint256",
                  "name": "d",
                  "type": "uint256"
                }
              ],
              "internalType": "struct Decimal.decimal",
              "name": "tipFee",
              "type": "tuple"
            }
          ],
          "internalType": "struct LimitOrderBook.LimitOrder",
          "name": "",
          "type": "tuple"
        }
      ],
      "stateMutability": "view",
      "type": "function"
    },
    {
      "inputs": [
        {
          "internalType": "uint256",
          "name": "id",
          "type": "uint256"
        }
      ],
      "name": "getLimitOrderParams",
      "outputs": [
        {
          "internalType": "address",
          "name": "",
          "type": "address"
        },
        {
          "internalType": "address",
          "name": "",
          "type": "address"
        },
        {
          "internalType": "enum LimitOrderBook.OrderType",
          "name": "",
          "type": "uint8"
        },
        {
          "internalType": "bool",
          "name": "",
          "type": "bool"
        },
        {
          "internalType": "bool",
          "name": "",
          "type": "bool"
        },
        {
          "internalType": "uint256",
          "name": "",
          "type": "uint256"
        }
      ],
      "stateMutability": "view",
      "type": "function"
    },
    {
      "inputs": [
        {
          "internalType": "uint256",
          "name": "id",
          "type": "uint256"
        }
      ],
      "name": "getLimitOrderPrices",
      "outputs": [
        {
          "components": [
            {
              "internalType": "uint256",
              "name": "d",
              "type": "uint256"
            }
          ],
          "internalType": "struct Decimal.decimal",
          "name": "",
          "type": "tuple"
        },
        {
          "components": [
            {
              "internalType": "uint256",
              "name": "d",
              "type": "uint256"
            }
          ],
          "internalType": "struct Decimal.decimal",
          "name": "",
          "type": "tuple"
        },
        {
          "components": [
            {
              "internalType": "int256",
              "name": "d",
              "type": "int256"
            }
          ],
          "internalType": "struct SignedDecimal.signedDecimal",
          "name": "",
          "type": "tuple"
        },
        {
          "components": [
            {
              "internalType": "uint256",
              "name": "d",
              "type": "uint256"
            }
          ],
          "internalType": "struct Decimal.decimal",
          "name": "",
          "type": "tuple"
        },
        {
          "components": [
            {
              "internalType": "uint256",
              "name": "d",
              "type": "uint256"
            }
          ],
          "internalType": "struct Decimal.decimal",
          "name": "",
          "type": "tuple"
        },
        {
          "components": [
            {
              "internalType": "uint256",
              "name": "d",
              "type": "uint256"
            }
          ],
          "internalType": "struct Decimal.decimal",
          "name": "",
          "type": "tuple"
        },
        {
          "components": [
            {
              "internalType": "uint256",
              "name": "d",
              "type": "uint256"
            }
          ],
          "internalType": "struct Decimal.decimal",
          "name": "",
          "type": "tuple"
        }
      ],
      "stateMutability": "view",
      "type": "function"
    },
    {
      "inputs": [
        {
          "internalType": "uint256",
          "name": "",
          "type": "uint256"
        }
      ],
      "name": "orders",
      "outputs": [
        {
          "internalType": "address",
          "name": "asset",
          "type": "address"
        },
        {
          "internalType": "address",
          "name": "trader",
          "type": "address"
        },
        {
          "internalType": "enum LimitOrderBook.OrderType",
          "name": "orderType",
          "type": "uint8"
        },
        {
          "internalType": "bool",
          "name": "reduceOnly",
          "type": "bool"
        },
        {
          "internalType": "bool",
          "name": "stillValid",
          "type": "bool"
        },
        {
          "internalType": "uint256",
          "name": "expiry",
          "type": "uint256"
        },
        {
          "components": [
            {
              "internalType": "uint256",
              "name": "d",
              "type": "uint256"
            }
          ],
          "internalType": "struct Decimal.decimal",
          "name": "limitPrice",
          "type": "tuple"
        },
        {
          "components": [
            {
              "internalType": "uint256",
              "name": "d",
              "type": "uint256"
            }
          ],
          "internalType": "struct Decimal.decimal",
          "name": "stopPrice",
          "type": "tuple"
        },
        {
          "components": [
            {
              "internalType": "int256",
              "name": "d",
              "type": "int256"
            }
          ],
          "internalType": "struct SignedDecimal.signedDecimal",
          "name": "orderSize",
          "type": "tuple"
        },
        {
          "components": [
            {
              "internalType": "uint256",
              "name": "d",
              "type": "uint256"
            }
          ],
          "internalType": "struct Decimal.decimal",
          "name": "collateral",
          "type": "tuple"
        },
        {
          "components": [
            {
              "internalType": "uint256",
              "name": "d",
              "type": "uint256"
            }
          ],
          "internalType": "struct Decimal.decimal",
          "name": "leverage",
          "type": "tuple"
        },
        {
          "components": [
            {
              "internalType": "uint256",
              "name": "d",
              "type": "uint256"
            }
          ],
          "internalType": "struct Decimal.decimal",
          "name": "slippage",
          "type": "tuple"
        },
        {
          "components": [
            {
              "internalType": "uint256",
              "name": "d",
              "type": "uint256"
            }
          ],
          "internalType": "struct Decimal.decimal",
          "name": "tipFee",
          "type": "tuple"
        }
      ],
      "stateMutability": "view",
      "type": "function"
    },
    {
      "inputs": [],
      "name": "owner",
      "outputs": [
        {
          "internalType": "address",
          "name": "",
          "type": "address"
        }
      ],
      "stateMutability": "view",
      "type": "function"
    },
    {
      "inputs": [],
      "name": "renounceOwnership",
      "outputs": [],
      "stateMutability": "nonpayable",
      "type": "function"
    },
    {
      "inputs": [
        {
          "internalType": "address",
          "name": "_addr",
          "type": "address"
        }
      ],
      "name": "setFactory",
      "outputs": [],
      "stateMutability": "nonpayable",
      "type": "function"
    },
    {
      "inputs": [
        {
          "internalType": "address",
          "name": "newOwner",
          "type": "address"
        }
      ],
      "name": "transferOwnership",
      "outputs": [],
      "stateMutability": "nonpayable",
      "type": "function"
    }
  ],
  "bytecode": "0x608060405234801561001057600080fd5b5060006100246001600160e01b0361007316565b600080546001600160a01b0319166001600160a01b0383169081178255604051929350917f8be0079c531659141344cd1fd0a4f28419497f9722a3daafe3b4186f6b6457e0908290a350610077565b3390565b6116da806100866000396000f3fe608060405234801561001057600080fd5b50600436106100c95760003560e01c80638da5cb5b11610081578063e36a2dc01161005b578063e36a2dc014610195578063f2fde38b146101bb578063fe0d94c1146101ce576100c9565b80638da5cb5b1461014c578063a85c38ef14610161578063c45a01551461018d576100c9565b806353061026116100b257806353061026146101115780635bb4780814610131578063715018a614610144576100c9565b80630ec26b22146100ce5780634c5789e3146100e3575b600080fd5b6100e16100dc366004611161565b6101e1565b005b6100f66100f1366004611230565b610428565b604051610108969594939291906112cd565b60405180910390f35b61012461011f366004611230565b6105d9565b604051610108919061151f565b6100e161013f366004611122565b61073f565b6100e16107ad565b610154610843565b60405161010891906112b9565b61017461016f366004611230565b610852565b6040516101089d9c9b9a99989796959493929190611310565b610154610920565b6101a86101a3366004611230565b61092f565b604051610108979695949392919061161e565b6100e16101c9366004611122565b610b1b565b6100e16101dc366004611230565b610be8565b604080516101a0810182526001600160a01b038816815233602082015260019181018281526000602082018190526001604083015260608201526080810188905260a00161022d610ebb565b8152602001868152602001858152602001848152602001838152602001610252610ebb565b905281546001818101845560009384526020938490208351600a9093020180546001600160a01b0393841673ffffffffffffffffffffffffffffffffffffffff19918216178255948401519181018054929093169190941617808255604083015192939291907fffffffffffffffffffffff00ffffffffffffffffffffffffffffffffffffffff16600160a01b8360038111156102eb57fe5b021790555060608201516001808301805460808601511515600160b01b027fffffffffffffffffff00ffffffffffffffffffffffffffffffffffffffffffff941515600160a81b027fffffffffffffffffffff00ffffffffffffffffffffffffffffffffffffffffff90921691909117939093169290921790915560a0830151600283015560c083015151600383015560e083015151600483015561010083015151600583015561012083015151600683015561014083015151600783015561016083015151600883015561018090920151516009909101555460405133917fcb0c37c16aa3b0bbb7a817932094d8a20a00996d426a813f067039f0ef87ab0791610418917fffffffffffffffffffffffffffffffffffffffffffffffffffffffffffffffff019061164f565b60405180910390a2505050505050565b60008060008060008086600180549050811061045f5760405162461bcd60e51b8152600401610456906114b3565b60405180910390fd5b610467611059565b6001898154811061047457fe5b6000918252602091829020604080516101a081018252600a90930290910180546001600160a01b03908116845260018201549081169484019490945291929083019060ff600160a01b9091041660038111156104cc57fe5b60038111156104d757fe5b8152600182015460ff600160a81b820481161515602080850191909152600160b01b90920416151560408084019190915260028401546060808501919091528151808401835260038601548152608080860191909152825180850184526004870154815260a080870191909152835180860185526005880154815260c0870152835180860185526006880154815260e087015283518086018552600788015481526101008701528351808601855260088801548152610120870152835180860185526009909701548752610140909501959095528551928601519186015190860151948601519590930151919e909d50919b5091995091975095509350505050565b6105e1611059565b600154829081106106045760405162461bcd60e51b8152600401610456906114b3565b6001838154811061061157fe5b6000918252602091829020604080516101a081018252600a90930290910180546001600160a01b03908116845260018201549081169484019490945291929083019060ff600160a01b90910416600381111561066957fe5b600381111561067457fe5b8152600182015460ff600160a81b820481161515602080850191909152600160b01b9092041615156040808401919091526002840154606084015280518083018252600385015481526080840152805180830182526004850154815260a0840152805180830182526005850154815260c0840152805180830182526006850154815260e0840152805180830182526007850154815261010084015280518083018252600885015481526101208401528051918201905260099092015482526101400152915050919050565b610747610ed6565b6001600160a01b0316610758610843565b6001600160a01b03161461077e5760405162461bcd60e51b8152600401610456906114ea565b6002805473ffffffffffffffffffffffffffffffffffffffff19166001600160a01b0392909216919091179055565b6107b5610ed6565b6001600160a01b03166107c6610843565b6001600160a01b0316146107ec5760405162461bcd60e51b8152600401610456906114ea565b600080546040516001600160a01b03909116907f8be0079c531659141344cd1fd0a4f28419497f9722a3daafe3b4186f6b6457e0908390a36000805473ffffffffffffffffffffffffffffffffffffffff19169055565b6000546001600160a01b031690565b6001818154811061085f57fe5b6000918252602091829020600a9091020180546001820154600283015460408051808701825260038601548152815180880183526004870154815282518089018452600588015481528351808a018552600689015481528451808b01865260078a015481528551808c01875260088b0154815286519b8c019096526009909901548a526001600160a01b039788169a509686169860ff600160a01b8804811699600160a81b8904821699600160b01b9099049091169794959394929390918d565b6002546001600160a01b031681565b6109376110ea565b61093f6110ea565b6109476110ea565b61094f6110ea565b6109576110ea565b61095f6110ea565b6109676110ea565b6001548890811061098a5760405162461bcd60e51b8152600401610456906114b3565b610992611059565b60018a8154811061099f57fe5b6000918252602091829020604080516101a081018252600a90930290910180546001600160a01b03908116845260018201549081169484019490945291929083019060ff600160a01b9091041660038111156109f757fe5b6003811115610a0257fe5b8152600182015460ff600160a81b820481161515602080850191909152600160b01b9092041615156040808401919091526002840154606084015280518083018252600385015481526080840152805180830182526004850154815260a0840152805180830182526005850154815260c080850191909152815180840183526006860154815260e08086019190915282518085018452600787015481526101008087019190915283518086018552600888015481526101208088019190915284519586019094526009909601548452610140948501939093528501519185015193850151908501519285015161016086015161018090960151929e50939c509a5090985090965090945092505050919395979092949650565b610b23610ed6565b6001600160a01b0316610b34610843565b6001600160a01b031614610b5a5760405162461bcd60e51b8152600401610456906114ea565b6001600160a01b038116610b805760405162461bcd60e51b81526004016104569061141f565b600080546040516001600160a01b03808516939216917f8be0079c531659141344cd1fd0a4f28419497f9722a3daafe3b4186f6b6457e091a36000805473ffffffffffffffffffffffffffffffffffffffff19166001600160a01b0392909216919091179055565b60015481908110610c0b5760405162461bcd60e51b8152600401610456906114b3565b60018281548110610c1857fe5b90600052602060002090600a020160010160169054906101000a900460ff16610c535760405162461bcd60e51b81526004016104569061147c565b610c926040518060400160405280601f81526020017f4c4f423a20536f6d65626f647920657865637574696e67206f726465723a200081525083610eda565b600254600180546000926001600160a01b03169163a0b738819186908110610cb657fe5b600091825260209091206001600a9092020101546040517fffffffff0000000000000000000000000000000000000000000000000000000060e084901b168152610d0c916001600160a01b0316906004016112b9565b60206040518083038186803b158015610d2457600080fd5b505afa158015610d38573d6000803e3d6000fd5b505050506040513d601f19601f82011682018060405250810190610d5c9190611145565b9050610d9d6040518060400160405280601681526020017f2d536d61727457616c6c657420616464726573733a200000000000000000000081525082610f51565b6040517f94f611340000000000000000000000000000000000000000000000000000000081526000906001600160a01b038316906394f6113490610de590879060040161164f565b602060405180830381600087803b158015610dff57600080fd5b505af1158015610e13573d6000803e3d6000fd5b505050506040513d601f19601f82011682018060405250810190610e379190611210565b90508015610eb557610e7d6040518060400160405280601481526020017f2d5375636365737366756c6c792063616c6c6564000000000000000000000000815250610fc4565b600060018581548110610e8c57fe5b90600052602060002090600a020160010160166101000a81548160ff0219169083151502179055505b50505050565b610ec36110ea565b5060408051602081019091526000815290565b3390565b610f4d8282604051602401610ef09291906113fd565b60408051601f198184030181529190526020810180517bffffffffffffffffffffffffffffffffffffffffffffffffffffffff167f9710a9d000000000000000000000000000000000000000000000000000000000179052611038565b5050565b610f4d8282604051602401610f679291906113d2565b60408051601f198184030181529190526020810180517bffffffffffffffffffffffffffffffffffffffffffffffffffffffff167f319af33300000000000000000000000000000000000000000000000000000000179052611038565b61103581604051602401610fd891906113bf565b60408051601f198184030181529190526020810180517bffffffffffffffffffffffffffffffffffffffffffffffffffffffff167f41304fac00000000000000000000000000000000000000000000000000000000179052611038565b50565b80516a636f6e736f6c652e6c6f67602083016000808483855afa5050505050565b604080516101a081018252600080825260208201819052909182019081526000602082018190526040820181905260608201526080016110976110ea565b81526020016110a46110ea565b81526020016110b16110ea565b81526020016110be6110ea565b81526020016110cb6110ea565b81526020016110d86110ea565b81526020016110e56110ea565b905290565b6040518060200160405280600081525090565b60006020828403121561110e578081fd5b6111186020611658565b9135825250919050565b600060208284031215611133578081fd5b813561113e8161168f565b9392505050565b600060208284031215611156578081fd5b815161113e8161168f565b60008060008060008086880360c081121561117a578283fd5b87356111858161168f565b96506111948960208a016110fd565b955060207fffffffffffffffffffffffffffffffffffffffffffffffffffffffffffffffc0820112156111c5578283fd5b506111d06020611658565b6040880135815293506111e688606089016110fd565b92506111f588608089016110fd565b91506112048860a089016110fd565b90509295509295509295565b600060208284031215611221578081fd5b8151801515811461113e578182fd5b600060208284031215611241578081fd5b5035919050565b6001600160a01b03169052565b15159052565b6004811061126557fe5b9052565b60008151808452815b8181101561128e57602081850181015186830182015201611272565b8181111561129f5782602083870101525b50601f01601f19169290920160200192915050565b519052565b6001600160a01b0391909116815260200190565b6001600160a01b0387811682528616602082015260c081016112ee8661167f565b60408301529315156060820152911515608083015260a0909101529392505050565b6001600160a01b038e811682528d1660208201526101a081016113328d61167f565b60408301528b151560608301528a151560808301528960a083015261135a60c083018a6112b4565b61136760e08301896112b4565b6113756101008301886112b4565b6113836101208301876112b4565b6113916101408301866112b4565b61139f6101608301856112b4565b6113ad6101808301846112b4565b9e9d5050505050505050505050505050565b60006020825261113e6020830184611269565b6000604082526113e56040830185611269565b90506001600160a01b03831660208301529392505050565b6000604082526114106040830185611269565b90508260208301529392505050565b60208082526026908201527f4f776e61626c653a206e6577206f776e657220697320746865207a65726f206160408201527f6464726573730000000000000000000000000000000000000000000000000000606082015260800190565b6020808252600f908201527f4e6f206c6f6e6765722076616c69640000000000000000000000000000000000604082015260600190565b6020808252600a908201527f496e76616c696420494400000000000000000000000000000000000000000000604082015260600190565b6020808252818101527f4f776e61626c653a2063616c6c6572206973206e6f7420746865206f776e6572604082015260600190565b60006101a082019050611533828451611248565b60208301516115456020840182611248565b506040830151611558604084018261125b565b50606083015161156b6060840182611255565b50608083015161157e6080840182611255565b5060a083015160a083015260c083015161159b60c08401826112b4565b5060e08301516115ae60e08401826112b4565b50610100808401516115c2828501826112b4565b5050610120808401516115d7828501826112b4565b5050610140808401516115ec828501826112b4565b505061016080840151611601828501826112b4565b505061018080840151611616828501826112b4565b505092915050565b965187529451602087015292516040860152905160608501525160808401525160a08301525160c082015260e00190565b90815260200190565b60405181810167ffffffffffffffff8111828210171561167757600080fd5b604052919050565b806004811061168a57fe5b919050565b6001600160a01b038116811461103557600080fdfea2646970667358221220b606050e82a9bb33a0ad204136a1b7c6586ef9b2d3e8dea11395509265546b2764736f6c63430006090033",
  "linkReferences": {},
  "deployedLinkReferences": {}
}