{
  "_format": "hh-sol-artifact-1",
  "contractName": "LimitOrderBook",
  "sourceName": "contracts/LimitOrderBook.sol",
  "abi": [
    {
      "anonymous": false,
      "inputs": [
        {
          "indexed": true,
          "internalType": "address",
          "name": "trader",
          "type": "address"
        },
        {
          "indexed": false,
          "internalType": "uint256",
          "name": "order_id",
          "type": "uint256"
        }
      ],
      "name": "OrderChanged",
      "type": "event"
    },
    {
      "anonymous": false,
      "inputs": [
        {
          "indexed": true,
          "internalType": "address",
          "name": "trader",
          "type": "address"
        },
        {
          "indexed": false,
          "internalType": "uint256",
          "name": "order_id",
          "type": "uint256"
        }
      ],
      "name": "OrderCreated",
      "type": "event"
    },
    {
      "anonymous": false,
      "inputs": [
        {
          "indexed": true,
          "internalType": "address",
          "name": "trader",
          "type": "address"
        },
        {
          "indexed": false,
          "internalType": "uint256",
          "name": "order_id",
          "type": "uint256"
        }
      ],
      "name": "OrderFilled",
      "type": "event"
    },
    {
      "anonymous": false,
      "inputs": [
        {
          "indexed": true,
          "internalType": "address",
          "name": "previousOwner",
          "type": "address"
        },
        {
          "indexed": true,
          "internalType": "address",
          "name": "newOwner",
          "type": "address"
        }
      ],
      "name": "OwnershipTransferred",
      "type": "event"
    },
    {
      "inputs": [
        {
          "internalType": "address",
          "name": "_asset",
          "type": "address"
        },
        {
          "components": [
            {
              "internalType": "uint256",
              "name": "d",
              "type": "uint256"
            }
          ],
          "internalType": "struct Decimal.decimal",
          "name": "_limitPrice",
          "type": "tuple"
        },
        {
          "components": [
            {
              "internalType": "int256",
              "name": "d",
              "type": "int256"
            }
          ],
          "internalType": "struct SignedDecimal.signedDecimal",
          "name": "_positionSize",
          "type": "tuple"
        },
        {
          "components": [
            {
              "internalType": "uint256",
              "name": "d",
              "type": "uint256"
            }
          ],
          "internalType": "struct Decimal.decimal",
          "name": "_collateral",
          "type": "tuple"
        },
        {
          "components": [
            {
              "internalType": "uint256",
              "name": "d",
              "type": "uint256"
            }
          ],
          "internalType": "struct Decimal.decimal",
          "name": "_leverage",
          "type": "tuple"
        },
        {
          "components": [
            {
              "internalType": "uint256",
              "name": "d",
              "type": "uint256"
            }
          ],
          "internalType": "struct Decimal.decimal",
          "name": "_slippage",
          "type": "tuple"
        },
        {
          "components": [
            {
              "internalType": "uint256",
              "name": "d",
              "type": "uint256"
            }
          ],
          "internalType": "struct Decimal.decimal",
          "name": "_tipFee",
          "type": "tuple"
        },
        {
          "internalType": "bool",
          "name": "_reduceOnly",
          "type": "bool"
        },
        {
          "internalType": "uint256",
          "name": "_expiry",
          "type": "uint256"
        }
      ],
      "name": "addLimitOrder",
      "outputs": [],
      "stateMutability": "nonpayable",
      "type": "function"
    },
    {
      "inputs": [
        {
          "internalType": "address",
          "name": "_asset",
          "type": "address"
        },
        {
          "components": [
            {
              "internalType": "uint256",
              "name": "d",
              "type": "uint256"
            }
          ],
          "internalType": "struct Decimal.decimal",
          "name": "_stopPrice",
          "type": "tuple"
        },
        {
          "components": [
            {
              "internalType": "uint256",
              "name": "d",
              "type": "uint256"
            }
          ],
          "internalType": "struct Decimal.decimal",
          "name": "_limitPrice",
          "type": "tuple"
        },
        {
          "components": [
            {
              "internalType": "int256",
              "name": "d",
              "type": "int256"
            }
          ],
          "internalType": "struct SignedDecimal.signedDecimal",
          "name": "_positionSize",
          "type": "tuple"
        },
        {
          "components": [
            {
              "internalType": "uint256",
              "name": "d",
              "type": "uint256"
            }
          ],
          "internalType": "struct Decimal.decimal",
          "name": "_collateral",
          "type": "tuple"
        },
        {
          "components": [
            {
              "internalType": "uint256",
              "name": "d",
              "type": "uint256"
            }
          ],
          "internalType": "struct Decimal.decimal",
          "name": "_leverage",
          "type": "tuple"
        },
        {
          "components": [
            {
              "internalType": "uint256",
              "name": "d",
              "type": "uint256"
            }
          ],
          "internalType": "struct Decimal.decimal",
          "name": "_slippage",
          "type": "tuple"
        },
        {
          "components": [
            {
              "internalType": "uint256",
              "name": "d",
              "type": "uint256"
            }
          ],
          "internalType": "struct Decimal.decimal",
          "name": "_tipFee",
          "type": "tuple"
        },
        {
          "internalType": "bool",
          "name": "_reduceOnly",
          "type": "bool"
        },
        {
          "internalType": "uint256",
          "name": "_expiry",
          "type": "uint256"
        }
      ],
      "name": "addStopLimitOrder",
      "outputs": [],
      "stateMutability": "nonpayable",
      "type": "function"
    },
    {
      "inputs": [
        {
          "internalType": "address",
          "name": "_asset",
          "type": "address"
        },
        {
          "components": [
            {
              "internalType": "uint256",
              "name": "d",
              "type": "uint256"
            }
          ],
          "internalType": "struct Decimal.decimal",
          "name": "_stopPrice",
          "type": "tuple"
        },
        {
          "components": [
            {
              "internalType": "int256",
              "name": "d",
              "type": "int256"
            }
          ],
          "internalType": "struct SignedDecimal.signedDecimal",
          "name": "_positionSize",
          "type": "tuple"
        },
        {
          "components": [
            {
              "internalType": "uint256",
              "name": "d",
              "type": "uint256"
            }
          ],
          "internalType": "struct Decimal.decimal",
          "name": "_collateral",
          "type": "tuple"
        },
        {
          "components": [
            {
              "internalType": "uint256",
              "name": "d",
              "type": "uint256"
            }
          ],
          "internalType": "struct Decimal.decimal",
          "name": "_leverage",
          "type": "tuple"
        },
        {
          "components": [
            {
              "internalType": "uint256",
              "name": "d",
              "type": "uint256"
            }
          ],
          "internalType": "struct Decimal.decimal",
          "name": "_slippage",
          "type": "tuple"
        },
        {
          "components": [
            {
              "internalType": "uint256",
              "name": "d",
              "type": "uint256"
            }
          ],
          "internalType": "struct Decimal.decimal",
          "name": "_tipFee",
          "type": "tuple"
        },
        {
          "internalType": "bool",
          "name": "_reduceOnly",
          "type": "bool"
        },
        {
          "internalType": "uint256",
          "name": "_expiry",
          "type": "uint256"
        }
      ],
      "name": "addStopOrder",
      "outputs": [],
      "stateMutability": "nonpayable",
      "type": "function"
    },
    {
      "inputs": [
        {
          "internalType": "address",
          "name": "_asset",
          "type": "address"
        },
        {
          "components": [
            {
              "internalType": "uint256",
              "name": "d",
              "type": "uint256"
            }
          ],
          "internalType": "struct Decimal.decimal",
          "name": "_trail",
          "type": "tuple"
        },
        {
          "components": [
            {
              "internalType": "uint256",
              "name": "d",
              "type": "uint256"
            }
          ],
          "internalType": "struct Decimal.decimal",
          "name": "_gap",
          "type": "tuple"
        },
        {
          "components": [
            {
              "internalType": "int256",
              "name": "d",
              "type": "int256"
            }
          ],
          "internalType": "struct SignedDecimal.signedDecimal",
          "name": "_positionSize",
          "type": "tuple"
        },
        {
          "components": [
            {
              "internalType": "uint256",
              "name": "d",
              "type": "uint256"
            }
          ],
          "internalType": "struct Decimal.decimal",
          "name": "_collateral",
          "type": "tuple"
        },
        {
          "components": [
            {
              "internalType": "uint256",
              "name": "d",
              "type": "uint256"
            }
          ],
          "internalType": "struct Decimal.decimal",
          "name": "_leverage",
          "type": "tuple"
        },
        {
          "components": [
            {
              "internalType": "uint256",
              "name": "d",
              "type": "uint256"
            }
          ],
          "internalType": "struct Decimal.decimal",
          "name": "_slippage",
          "type": "tuple"
        },
        {
          "components": [
            {
              "internalType": "uint256",
              "name": "d",
              "type": "uint256"
            }
          ],
          "internalType": "struct Decimal.decimal",
          "name": "_tipFee",
          "type": "tuple"
        },
        {
          "internalType": "bool",
          "name": "_reduceOnly",
          "type": "bool"
        },
        {
          "internalType": "uint256",
          "name": "_expiry",
          "type": "uint256"
        }
      ],
      "name": "addTrailingStopLimitOrderAbs",
      "outputs": [
        {
          "internalType": "uint256",
          "name": "",
          "type": "uint256"
        }
      ],
      "stateMutability": "nonpayable",
      "type": "function"
    },
    {
      "inputs": [
        {
          "internalType": "address",
          "name": "_asset",
          "type": "address"
        },
        {
          "components": [
            {
              "internalType": "uint256",
              "name": "d",
              "type": "uint256"
            }
          ],
          "internalType": "struct Decimal.decimal",
          "name": "_trailPct",
          "type": "tuple"
        },
        {
          "components": [
            {
              "internalType": "uint256",
              "name": "d",
              "type": "uint256"
            }
          ],
          "internalType": "struct Decimal.decimal",
          "name": "_gapPct",
          "type": "tuple"
        },
        {
          "components": [
            {
              "internalType": "int256",
              "name": "d",
              "type": "int256"
            }
          ],
          "internalType": "struct SignedDecimal.signedDecimal",
          "name": "_positionSize",
          "type": "tuple"
        },
        {
          "components": [
            {
              "internalType": "uint256",
              "name": "d",
              "type": "uint256"
            }
          ],
          "internalType": "struct Decimal.decimal",
          "name": "_collateral",
          "type": "tuple"
        },
        {
          "components": [
            {
              "internalType": "uint256",
              "name": "d",
              "type": "uint256"
            }
          ],
          "internalType": "struct Decimal.decimal",
          "name": "_leverage",
          "type": "tuple"
        },
        {
          "components": [
            {
              "internalType": "uint256",
              "name": "d",
              "type": "uint256"
            }
          ],
          "internalType": "struct Decimal.decimal",
          "name": "_slippage",
          "type": "tuple"
        },
        {
          "components": [
            {
              "internalType": "uint256",
              "name": "d",
              "type": "uint256"
            }
          ],
          "internalType": "struct Decimal.decimal",
          "name": "_tipFee",
          "type": "tuple"
        },
        {
          "internalType": "bool",
          "name": "_reduceOnly",
          "type": "bool"
        },
        {
          "internalType": "uint256",
          "name": "_expiry",
          "type": "uint256"
        }
      ],
      "name": "addTrailingStopLimitOrderPct",
      "outputs": [
        {
          "internalType": "uint256",
          "name": "",
          "type": "uint256"
        }
      ],
      "stateMutability": "nonpayable",
      "type": "function"
    },
    {
      "inputs": [
        {
          "internalType": "address",
          "name": "_asset",
          "type": "address"
        },
        {
          "components": [
            {
              "internalType": "uint256",
              "name": "d",
              "type": "uint256"
            }
          ],
          "internalType": "struct Decimal.decimal",
          "name": "_trail",
          "type": "tuple"
        },
        {
          "components": [
            {
              "internalType": "int256",
              "name": "d",
              "type": "int256"
            }
          ],
          "internalType": "struct SignedDecimal.signedDecimal",
          "name": "_positionSize",
          "type": "tuple"
        },
        {
          "components": [
            {
              "internalType": "uint256",
              "name": "d",
              "type": "uint256"
            }
          ],
          "internalType": "struct Decimal.decimal",
          "name": "_collateral",
          "type": "tuple"
        },
        {
          "components": [
            {
              "internalType": "uint256",
              "name": "d",
              "type": "uint256"
            }
          ],
          "internalType": "struct Decimal.decimal",
          "name": "_leverage",
          "type": "tuple"
        },
        {
          "components": [
            {
              "internalType": "uint256",
              "name": "d",
              "type": "uint256"
            }
          ],
          "internalType": "struct Decimal.decimal",
          "name": "_slippage",
          "type": "tuple"
        },
        {
          "components": [
            {
              "internalType": "uint256",
              "name": "d",
              "type": "uint256"
            }
          ],
          "internalType": "struct Decimal.decimal",
          "name": "_tipFee",
          "type": "tuple"
        },
        {
          "internalType": "bool",
          "name": "_reduceOnly",
          "type": "bool"
        },
        {
          "internalType": "uint256",
          "name": "_expiry",
          "type": "uint256"
        }
      ],
      "name": "addTrailingStopMarketOrderAbs",
      "outputs": [
        {
          "internalType": "uint256",
          "name": "",
          "type": "uint256"
        }
      ],
      "stateMutability": "nonpayable",
      "type": "function"
    },
    {
      "inputs": [
        {
          "internalType": "address",
          "name": "_asset",
          "type": "address"
        },
        {
          "components": [
            {
              "internalType": "uint256",
              "name": "d",
              "type": "uint256"
            }
          ],
          "internalType": "struct Decimal.decimal",
          "name": "_trailPct",
          "type": "tuple"
        },
        {
          "components": [
            {
              "internalType": "int256",
              "name": "d",
              "type": "int256"
            }
          ],
          "internalType": "struct SignedDecimal.signedDecimal",
          "name": "_positionSize",
          "type": "tuple"
        },
        {
          "components": [
            {
              "internalType": "uint256",
              "name": "d",
              "type": "uint256"
            }
          ],
          "internalType": "struct Decimal.decimal",
          "name": "_collateral",
          "type": "tuple"
        },
        {
          "components": [
            {
              "internalType": "uint256",
              "name": "d",
              "type": "uint256"
            }
          ],
          "internalType": "struct Decimal.decimal",
          "name": "_leverage",
          "type": "tuple"
        },
        {
          "components": [
            {
              "internalType": "uint256",
              "name": "d",
              "type": "uint256"
            }
          ],
          "internalType": "struct Decimal.decimal",
          "name": "_slippage",
          "type": "tuple"
        },
        {
          "components": [
            {
              "internalType": "uint256",
              "name": "d",
              "type": "uint256"
            }
          ],
          "internalType": "struct Decimal.decimal",
          "name": "_tipFee",
          "type": "tuple"
        },
        {
          "internalType": "bool",
          "name": "_reduceOnly",
          "type": "bool"
        },
        {
          "internalType": "uint256",
          "name": "_expiry",
          "type": "uint256"
        }
      ],
      "name": "addTrailingStopMarketOrderPct",
      "outputs": [
        {
          "internalType": "uint256",
          "name": "",
          "type": "uint256"
        }
      ],
      "stateMutability": "nonpayable",
      "type": "function"
    },
    {
      "inputs": [
        {
          "internalType": "uint256",
          "name": "order_id",
          "type": "uint256"
        }
      ],
      "name": "deleteOrder",
      "outputs": [],
      "stateMutability": "nonpayable",
      "type": "function"
    },
    {
      "inputs": [
        {
          "internalType": "uint256",
          "name": "order_id",
          "type": "uint256"
        }
      ],
      "name": "execute",
      "outputs": [],
      "stateMutability": "nonpayable",
      "type": "function"
    },
    {
      "inputs": [],
      "name": "factory",
      "outputs": [
        {
          "internalType": "contract SmartWalletFactory",
          "name": "",
          "type": "address"
        }
      ],
      "stateMutability": "view",
      "type": "function"
    },
    {
      "inputs": [
        {
          "internalType": "uint256",
          "name": "order_id",
          "type": "uint256"
        }
      ],
      "name": "getLimitOrder",
      "outputs": [
        {
          "components": [
            {
              "internalType": "address",
              "name": "asset",
              "type": "address"
            },
            {
              "internalType": "address",
              "name": "trader",
              "type": "address"
            },
            {
              "internalType": "enum LimitOrderBook.OrderType",
              "name": "orderType",
              "type": "uint8"
            },
            {
              "internalType": "bool",
              "name": "reduceOnly",
              "type": "bool"
            },
            {
              "internalType": "bool",
              "name": "stillValid",
              "type": "bool"
            },
            {
              "internalType": "uint256",
              "name": "expiry",
              "type": "uint256"
            },
            {
              "components": [
                {
                  "internalType": "uint256",
                  "name": "d",
                  "type": "uint256"
                }
              ],
              "internalType": "struct Decimal.decimal",
              "name": "stopPrice",
              "type": "tuple"
            },
            {
              "components": [
                {
                  "internalType": "uint256",
                  "name": "d",
                  "type": "uint256"
                }
              ],
              "internalType": "struct Decimal.decimal",
              "name": "limitPrice",
              "type": "tuple"
            },
            {
              "components": [
                {
                  "internalType": "int256",
                  "name": "d",
                  "type": "int256"
                }
              ],
              "internalType": "struct SignedDecimal.signedDecimal",
              "name": "orderSize",
              "type": "tuple"
            },
            {
              "components": [
                {
                  "internalType": "uint256",
                  "name": "d",
                  "type": "uint256"
                }
              ],
              "internalType": "struct Decimal.decimal",
              "name": "collateral",
              "type": "tuple"
            },
            {
              "components": [
                {
                  "internalType": "uint256",
                  "name": "d",
                  "type": "uint256"
                }
              ],
              "internalType": "struct Decimal.decimal",
              "name": "leverage",
              "type": "tuple"
            },
            {
              "components": [
                {
                  "internalType": "uint256",
                  "name": "d",
                  "type": "uint256"
                }
              ],
              "internalType": "struct Decimal.decimal",
              "name": "slippage",
              "type": "tuple"
            },
            {
              "components": [
                {
                  "internalType": "uint256",
                  "name": "d",
                  "type": "uint256"
                }
              ],
              "internalType": "struct Decimal.decimal",
              "name": "tipFee",
              "type": "tuple"
            }
          ],
          "internalType": "struct LimitOrderBook.LimitOrder",
          "name": "",
          "type": "tuple"
        }
      ],
      "stateMutability": "view",
      "type": "function"
    },
    {
      "inputs": [
        {
          "internalType": "uint256",
          "name": "id",
          "type": "uint256"
        }
      ],
      "name": "getLimitOrderParams",
      "outputs": [
        {
          "internalType": "address",
          "name": "",
          "type": "address"
        },
        {
          "internalType": "address",
          "name": "",
          "type": "address"
        },
        {
          "internalType": "enum LimitOrderBook.OrderType",
          "name": "",
          "type": "uint8"
        },
        {
          "internalType": "bool",
          "name": "",
          "type": "bool"
        },
        {
          "internalType": "bool",
          "name": "",
          "type": "bool"
        },
        {
          "internalType": "uint256",
          "name": "",
          "type": "uint256"
        }
      ],
      "stateMutability": "view",
      "type": "function"
    },
    {
      "inputs": [
        {
          "internalType": "uint256",
          "name": "id",
          "type": "uint256"
        }
      ],
      "name": "getLimitOrderPrices",
      "outputs": [
        {
          "components": [
            {
              "internalType": "uint256",
              "name": "d",
              "type": "uint256"
            }
          ],
          "internalType": "struct Decimal.decimal",
          "name": "",
          "type": "tuple"
        },
        {
          "components": [
            {
              "internalType": "uint256",
              "name": "d",
              "type": "uint256"
            }
          ],
          "internalType": "struct Decimal.decimal",
          "name": "",
          "type": "tuple"
        },
        {
          "components": [
            {
              "internalType": "int256",
              "name": "d",
              "type": "int256"
            }
          ],
          "internalType": "struct SignedDecimal.signedDecimal",
          "name": "",
          "type": "tuple"
        },
        {
          "components": [
            {
              "internalType": "uint256",
              "name": "d",
              "type": "uint256"
            }
          ],
          "internalType": "struct Decimal.decimal",
          "name": "",
          "type": "tuple"
        },
        {
          "components": [
            {
              "internalType": "uint256",
              "name": "d",
              "type": "uint256"
            }
          ],
          "internalType": "struct Decimal.decimal",
          "name": "",
          "type": "tuple"
        },
        {
          "components": [
            {
              "internalType": "uint256",
              "name": "d",
              "type": "uint256"
            }
          ],
          "internalType": "struct Decimal.decimal",
          "name": "",
          "type": "tuple"
        },
        {
          "components": [
            {
              "internalType": "uint256",
              "name": "d",
              "type": "uint256"
            }
          ],
          "internalType": "struct Decimal.decimal",
          "name": "",
          "type": "tuple"
        }
      ],
      "stateMutability": "view",
      "type": "function"
    },
    {
      "inputs": [],
      "name": "getNumberOrders",
      "outputs": [
        {
          "internalType": "uint256",
          "name": "",
          "type": "uint256"
        }
      ],
      "stateMutability": "view",
      "type": "function"
    },
    {
      "inputs": [
        {
          "internalType": "contract IAmm",
          "name": "_asset",
          "type": "address"
        },
        {
          "internalType": "uint256",
          "name": "_snapshotIndex",
          "type": "uint256"
        }
      ],
      "name": "getPriceAtSnapshot",
      "outputs": [
        {
          "components": [
            {
              "internalType": "uint256",
              "name": "d",
              "type": "uint256"
            }
          ],
          "internalType": "struct Decimal.decimal",
          "name": "",
          "type": "tuple"
        }
      ],
      "stateMutability": "view",
      "type": "function"
    },
    {
      "inputs": [
        {
          "internalType": "uint256",
          "name": "order_id",
          "type": "uint256"
        }
      ],
      "name": "getTrailingData",
      "outputs": [
        {
          "components": [
            {
              "components": [
                {
                  "internalType": "uint256",
                  "name": "d",
                  "type": "uint256"
                }
              ],
              "internalType": "struct Decimal.decimal",
              "name": "witnessPrice",
              "type": "tuple"
            },
            {
              "components": [
                {
                  "internalType": "uint256",
                  "name": "d",
                  "type": "uint256"
                }
              ],
              "internalType": "struct Decimal.decimal",
              "name": "trail",
              "type": "tuple"
            },
            {
              "components": [
                {
                  "internalType": "uint256",
                  "name": "d",
                  "type": "uint256"
                }
              ],
              "internalType": "struct Decimal.decimal",
              "name": "trailPct",
              "type": "tuple"
            },
            {
              "components": [
                {
                  "internalType": "uint256",
                  "name": "d",
                  "type": "uint256"
                }
              ],
              "internalType": "struct Decimal.decimal",
              "name": "gap",
              "type": "tuple"
            },
            {
              "components": [
                {
                  "internalType": "uint256",
                  "name": "d",
                  "type": "uint256"
                }
              ],
              "internalType": "struct Decimal.decimal",
              "name": "gapPct",
              "type": "tuple"
            },
            {
              "internalType": "bool",
              "name": "usePct",
              "type": "bool"
            },
            {
              "internalType": "uint256",
              "name": "snapshotCreated",
              "type": "uint256"
            },
            {
              "internalType": "uint256",
              "name": "snapshotLastUpdated",
              "type": "uint256"
            },
            {
              "internalType": "address",
              "name": "lastUpdatedKeeper",
              "type": "address"
            }
          ],
          "internalType": "struct LimitOrderBook.TrailingOrderData",
          "name": "",
          "type": "tuple"
        }
      ],
      "stateMutability": "view",
      "type": "function"
    },
    {
      "inputs": [
        {
          "internalType": "uint256",
          "name": "order_id",
          "type": "uint256"
        },
        {
          "components": [
            {
              "internalType": "uint256",
              "name": "d",
              "type": "uint256"
            }
          ],
          "internalType": "struct Decimal.decimal",
          "name": "_stopPrice",
          "type": "tuple"
        },
        {
          "components": [
            {
              "internalType": "uint256",
              "name": "d",
              "type": "uint256"
            }
          ],
          "internalType": "struct Decimal.decimal",
          "name": "_limitPrice",
          "type": "tuple"
        },
        {
          "components": [
            {
              "internalType": "int256",
              "name": "d",
              "type": "int256"
            }
          ],
          "internalType": "struct SignedDecimal.signedDecimal",
          "name": "_orderSize",
          "type": "tuple"
        },
        {
          "components": [
            {
              "internalType": "uint256",
              "name": "d",
              "type": "uint256"
            }
          ],
          "internalType": "struct Decimal.decimal",
          "name": "_collateral",
          "type": "tuple"
        },
        {
          "components": [
            {
              "internalType": "uint256",
              "name": "d",
              "type": "uint256"
            }
          ],
          "internalType": "struct Decimal.decimal",
          "name": "_leverage",
          "type": "tuple"
        },
        {
          "components": [
            {
              "internalType": "uint256",
              "name": "d",
              "type": "uint256"
            }
          ],
          "internalType": "struct Decimal.decimal",
          "name": "_slippage",
          "type": "tuple"
        },
        {
          "components": [
            {
              "internalType": "uint256",
              "name": "d",
              "type": "uint256"
            }
          ],
          "internalType": "struct Decimal.decimal",
          "name": "_tipFee",
          "type": "tuple"
        },
        {
          "internalType": "bool",
          "name": "_reduceOnly",
          "type": "bool"
        },
        {
          "internalType": "uint256",
          "name": "_expiry",
          "type": "uint256"
        }
      ],
      "name": "modifyOrder",
      "outputs": [],
      "stateMutability": "nonpayable",
      "type": "function"
    },
    {
      "inputs": [
        {
          "internalType": "uint256",
          "name": "order_id",
          "type": "uint256"
        },
        {
          "components": [
            {
              "internalType": "uint256",
              "name": "d",
              "type": "uint256"
            }
          ],
          "internalType": "struct Decimal.decimal",
          "name": "_newStop",
          "type": "tuple"
        },
        {
          "components": [
            {
              "internalType": "uint256",
              "name": "d",
              "type": "uint256"
            }
          ],
          "internalType": "struct Decimal.decimal",
          "name": "_newLimit",
          "type": "tuple"
        },
        {
          "components": [
            {
              "internalType": "int256",
              "name": "d",
              "type": "int256"
            }
          ],
          "internalType": "struct SignedDecimal.signedDecimal",
          "name": "_orderSize",
          "type": "tuple"
        },
        {
          "components": [
            {
              "internalType": "uint256",
              "name": "d",
              "type": "uint256"
            }
          ],
          "internalType": "struct Decimal.decimal",
          "name": "_collateral",
          "type": "tuple"
        },
        {
          "components": [
            {
              "internalType": "uint256",
              "name": "d",
              "type": "uint256"
            }
          ],
          "internalType": "struct Decimal.decimal",
          "name": "_leverage",
          "type": "tuple"
        },
        {
          "components": [
            {
              "internalType": "uint256",
              "name": "d",
              "type": "uint256"
            }
          ],
          "internalType": "struct Decimal.decimal",
          "name": "_slippage",
          "type": "tuple"
        },
        {
          "components": [
            {
              "internalType": "uint256",
              "name": "d",
              "type": "uint256"
            }
          ],
          "internalType": "struct Decimal.decimal",
          "name": "_tipFee",
          "type": "tuple"
        },
        {
          "internalType": "bool",
          "name": "_reduceOnly",
          "type": "bool"
        },
        {
          "internalType": "uint256",
          "name": "_expiry",
          "type": "uint256"
        }
      ],
      "name": "modifyTrailingOrder",
      "outputs": [],
      "stateMutability": "nonpayable",
      "type": "function"
    },
    {
      "inputs": [
        {
          "internalType": "uint256",
          "name": "",
          "type": "uint256"
        }
      ],
      "name": "orders",
      "outputs": [
        {
          "internalType": "address",
          "name": "asset",
          "type": "address"
        },
        {
          "internalType": "address",
          "name": "trader",
          "type": "address"
        },
        {
          "internalType": "enum LimitOrderBook.OrderType",
          "name": "orderType",
          "type": "uint8"
        },
        {
          "internalType": "bool",
          "name": "reduceOnly",
          "type": "bool"
        },
        {
          "internalType": "bool",
          "name": "stillValid",
          "type": "bool"
        },
        {
          "internalType": "uint256",
          "name": "expiry",
          "type": "uint256"
        },
        {
          "components": [
            {
              "internalType": "uint256",
              "name": "d",
              "type": "uint256"
            }
          ],
          "internalType": "struct Decimal.decimal",
          "name": "stopPrice",
          "type": "tuple"
        },
        {
          "components": [
            {
              "internalType": "uint256",
              "name": "d",
              "type": "uint256"
            }
          ],
          "internalType": "struct Decimal.decimal",
          "name": "limitPrice",
          "type": "tuple"
        },
        {
          "components": [
            {
              "internalType": "int256",
              "name": "d",
              "type": "int256"
            }
          ],
          "internalType": "struct SignedDecimal.signedDecimal",
          "name": "orderSize",
          "type": "tuple"
        },
        {
          "components": [
            {
              "internalType": "uint256",
              "name": "d",
              "type": "uint256"
            }
          ],
          "internalType": "struct Decimal.decimal",
          "name": "collateral",
          "type": "tuple"
        },
        {
          "components": [
            {
              "internalType": "uint256",
              "name": "d",
              "type": "uint256"
            }
          ],
          "internalType": "struct Decimal.decimal",
          "name": "leverage",
          "type": "tuple"
        },
        {
          "components": [
            {
              "internalType": "uint256",
              "name": "d",
              "type": "uint256"
            }
          ],
          "internalType": "struct Decimal.decimal",
          "name": "slippage",
          "type": "tuple"
        },
        {
          "components": [
            {
              "internalType": "uint256",
              "name": "d",
              "type": "uint256"
            }
          ],
          "internalType": "struct Decimal.decimal",
          "name": "tipFee",
          "type": "tuple"
        }
      ],
      "stateMutability": "view",
      "type": "function"
    },
    {
      "inputs": [],
      "name": "owner",
      "outputs": [
        {
          "internalType": "address",
          "name": "",
          "type": "address"
        }
      ],
      "stateMutability": "view",
      "type": "function"
    },
    {
      "inputs": [
        {
          "internalType": "uint256",
          "name": "order_id",
          "type": "uint256"
        },
        {
          "internalType": "uint256",
          "name": "_reserveIndex",
          "type": "uint256"
        }
      ],
      "name": "pokeContract",
      "outputs": [],
      "stateMutability": "nonpayable",
      "type": "function"
    },
    {
      "inputs": [],
      "name": "renounceOwnership",
      "outputs": [],
      "stateMutability": "nonpayable",
      "type": "function"
    },
    {
      "inputs": [
        {
          "internalType": "address",
          "name": "_addr",
          "type": "address"
        }
      ],
      "name": "setFactory",
      "outputs": [],
      "stateMutability": "nonpayable",
      "type": "function"
    },
    {
      "inputs": [
        {
          "internalType": "address",
          "name": "newOwner",
          "type": "address"
        }
      ],
      "name": "transferOwnership",
      "outputs": [],
      "stateMutability": "nonpayable",
      "type": "function"
    }
  ],
  "bytecode": "0x60806040523480156200001157600080fd5b506000620000276001600160e01b036200007716565b600080546001600160a01b0319166001600160a01b0383169081178255604051929350917f8be0079c531659141344cd1fd0a4f28419497f9722a3daafe3b4186f6b6457e0908290a3506200007b565b3390565b61483e806200008b6000396000f3fe608060405234801561001057600080fd5b50600436106101985760003560e01c806386f89642116100e3578063b96bb8061161008c578063f0d840d711610066578063f0d840d71461037d578063f2fde38b1461039d578063fe0d94c1146103b057610198565b8063b96bb8061461033c578063c45a01551461034f578063e36a2dc01461035757610198565b8063a85c38ef116100bd578063a85c38ef146102ea578063b099b0dd14610316578063b50c4fb91461032957610198565b806386f89642146102ba5780638ceddd77146102cd5780638da5cb5b146102d557610198565b806353061026116101455780636bef74931161011f5780636bef74931461027f578063715018a61461029f5780637b5fe1b1146102a757610198565b8063530610261461022c5780635ad864471461024c5780635bb478081461026c57610198565b80632736f620116101765780632736f620146101d857806334c19830146101eb5780634c5789e3146101fe57610198565b8063032e4f6e1461019d57806311a00327146101b25780631845ceae146101c5575b600080fd5b6101b06101ab366004613ce7565b6103c3565b005b6101b06101c0366004613e4c565b6105bf565b6101b06101d3366004613e7c565b61071f565b6101b06101e6366004613ce7565b610a30565b6101b06101f9366004613eac565b610b77565b61021161020c366004613e4c565b610dc7565b60405161022396959493929190613f40565b60405180910390f35b61023f61023a366004613e4c565b610f6f565b60405161022391906145e1565b61025f61025a366004613c28565b6110d5565b60405161022391906147a7565b6101b061027a366004613bf0565b611535565b61029261028d366004613daf565b611596565b604051610223919061476c565b6101b061165f565b61025f6102b5366004613ce7565b6116e8565b6101b06102c8366004613c28565b611b8a565b61025f611dad565b6102dd611db3565b6040516102239190613f2c565b6102fd6102f8366004613e4c565b611dc2565b6040516102239d9c9b9a99989796959493929190613f83565b6101b0610324366004613e7c565b611e90565b61025f610337366004613ce7565b61216e565b61025f61034a366004613c28565b612448565b6102dd612783565b61036a610365366004613e4c565b612792565b6040516102239796959493929190614776565b61039061038b366004613e4c565b61297e565b60405161022391906146e0565b6101b06103ab366004613bf0565b612a38565b6101b06103be366004613e4c565b612af8565b8015806103cf57508042105b6103f45760405162461bcd60e51b81526004016103eb906141c6565b60405180910390fd5b60345460405133917fcb0c37c16aa3b0bbb7a817932094d8a20a00996d426a813f067039f0ef87ab079161042891906147a7565b60405180910390a2604080516101a0810182526001600160a01b038b16815233602082015260349181016002815260200184151581526020016001151581526020018381526020018a815260200161047e612f85565b815260208082018b905260408083018b9052606083018a90526080830189905260a09092018790528354600180820186556000958652948290208451600a9092020180546001600160a01b03199081166001600160a01b039384161782559285015195810180549093169590911694909417808255918301519293929160ff60a01b1916600160a01b83600581111561051357fe5b0217905550606082015160018201805460808501511515600160b01b0260ff60b01b19931515600160a81b0260ff60a81b19909216919091179290921691909117905560a0820151600282015560c082015151600382015560e08201515160048201556101008201515160058201556101208201515160068201556101408201515160078201556101608201515160088201556101809091015151600990910155505050505050505050565b80603481815481106105cd57fe5b60009182526020909120600a90910201600101546001600160a01b031633146106085760405162461bcd60e51b81526004016103eb906140c4565b6034548290811061062b5760405162461bcd60e51b81526004016103eb906143ca565b6034838154811061063857fe5b600091825260208220600a9091020180546001600160a01b03191681556001810180547fffffffffffffffffff0000000000000000000000000000000000000000000000169055600281018290556003810182905560048101829055600581018290556006810182905560078101829055600881018290556009015560348054849081106106c257fe5b600091825260209091206001600a9092020101546040516001600160a01b03909116907f9839c5aee45262b904f4ede97f671e296b41355f52a965a7076f4d4db9321d4b906107129086906147a7565b60405180910390a2505050565b896034818154811061072d57fe5b60009182526020909120600a90910201600101546001600160a01b031633146107685760405162461bcd60e51b81526004016103eb906140c4565b6034548b90811061078b5760405162461bcd60e51b81526004016103eb906143ca565b600460348d8154811061079a57fe5b90600052602060002090600a020160010160149054906101000a900460ff1660058111156107c457fe5b14806108065750600560348d815481106107da57fe5b90600052602060002090600a020160010160149054906101000a900460ff16600581111561080457fe5b145b6108225760405162461bcd60e51b81526004016103eb90614056565b8860348d8154811061083057fe5b90600052602060002090600a0201600501600082015181600001559050508760348d8154811061085c57fe5b90600052602060002090600a0201600601600082015181600001559050508660348d8154811061088857fe5b90600052602060002090600a0201600701600082015181600001559050508560348d815481106108b457fe5b90600052602060002090600a0201600801600082015181600001559050508460348d815481106108e057fe5b90600052602060002090600a0201600901600082015181600001559050508360348d8154811061090c57fe5b90600052602060002090600a020160010160156101000a81548160ff0219169083151502179055508260348d8154811061094257fe5b600091825260208083206002600a9093020191909101929092558d81526035909152604090206005015460ff16156109965760008c81526035602052604090208b5160028201558a516004909101556109b4565b60008c81526035602052604090208b5160018201558a516003909101555b6109bd8c612fa0565b60348c815481106109ca57fe5b600091825260209091206001600a9092020101546040516001600160a01b03909116907f9839c5aee45262b904f4ede97f671e296b41355f52a965a7076f4d4db9321d4b90610a1a908f906147a7565b60405180910390a2505050505050505050505050565b801580610a3c57508042105b610a585760405162461bcd60e51b81526004016103eb906141c6565b60345460405133917fcb0c37c16aa3b0bbb7a817932094d8a20a00996d426a813f067039f0ef87ab0791610a8c91906147a7565b60405180910390a2604080516101a0810182526001600160a01b038b16815233602082015260349181016001815284151560208201526001604082015260608101849052608001610adb612f85565b815260208082018c905260408083018c9052606083018b9052608083018a905260a0830189905260c09092018790528354600180820186556000958652948290208451600a9092020180546001600160a01b03199081166001600160a01b039384161782559285015195810180549093169590911694909417808255918301519293929160ff60a01b1916600160a01b83600581111561051357fe5b600460348381548110610b8657fe5b90600052602060002090600a020160010160149054906101000a900460ff166005811115610bb057fe5b1480610bf25750600560348381548110610bc657fe5b90600052602060002090600a020160010160149054906101000a900460ff166005811115610bf057fe5b145b610c0e5760405162461bcd60e51b81526004016103eb9061426b565b6000828152603560205260409020600601548111610c3e5760405162461bcd60e51b81526004016103eb9061408d565b600082815260356020526040902060070154811080610c7457506000828152603560205260409020600701546103844291909103115b610c905760405162461bcd60e51b81526004016103eb90614527565b60008281526035602052604081204260079091015560348054610cdd919085908110610cb857fe5b60009182526020918290206040805193840190526005600a909202010154815261333b565b610ce8576001610ceb565b60005b9050610cf5613a64565b610d2560348581548110610d0557fe5b60009182526020909120600a90910201546001600160a01b031684611596565b905081610d3457600019610d37565b60015b600085815260356020908152604091829020825191820190925290548152600f9190910b90610d6c908363ffffffff61335916565b60000b14610d8c5760405162461bcd60e51b81526004016103eb90614493565b6000848152603560205260409020815181556007810184905560080180546001600160a01b03191633179055610dc184612fa0565b50505050565b600080600080600080866034805490508110610df55760405162461bcd60e51b81526004016103eb906143ca565b610dfd613a77565b60348981548110610e0a57fe5b6000918252602091829020604080516101a081018252600a90930290910180546001600160a01b03908116845260018201549081169484019490945291929083019060ff600160a01b909104166005811115610e6257fe5b6005811115610e6d57fe5b8152600182015460ff600160a81b820481161515602080850191909152600160b01b90920416151560408084019190915260028401546060808501919091528151808401835260038601548152608080860191909152825180850184526004870154815260a080870191909152835180860185526005880154815260c0870152835180860185526006880154815260e087015283518086018552600788015481526101008701528351808601855260088801548152610120870152835180860185526009909701548752610140909501959095528551928601519186015190860151948601519590930151919e909d50919b5091995091975095509350505050565b610f77613a77565b60345482908110610f9a5760405162461bcd60e51b81526004016103eb906143ca565b60348381548110610fa757fe5b6000918252602091829020604080516101a081018252600a90930290910180546001600160a01b03908116845260018201549081169484019490945291929083019060ff600160a01b909104166005811115610fff57fe5b600581111561100a57fe5b8152600182015460ff600160a81b820481161515602080850191909152600160b01b9092041615156040808401919091526002840154606084015280518083018252600385015481526080840152805180830182526004850154815260a0840152805180830182526005850154815260c0840152805180830182526006850154815260e0840152805180830182526007850154815261010084015280518083018252600885015481526101208401528051918201905260099092015482526101400152915050919050565b60008115806110e357508142105b6110ff5760405162461bcd60e51b81526004016103eb906141c6565b60345460405133917fcb0c37c16aa3b0bbb7a817932094d8a20a00996d426a813f067039f0ef87ab079161113391906147a7565b60405180910390a2600060018c6001600160a01b0316630d451c8f6040518163ffffffff1660e01b815260040160206040518083038186803b15801561117857600080fd5b505afa15801561118c573d6000803e3d6000fd5b505050506040513d601f19601f820116820180604052508101906111b09190613e64565b0390506111bb613a64565b8c6001600160a01b031663dc76fabc6040518163ffffffff1660e01b815260040160206040518083038186803b1580156111f457600080fd5b505afa158015611208573d6000803e3d6000fd5b505050506040513d601f19601f8201168201806040525081019061122c9190613e31565b90506040518061012001604052808281526020018d815260200161124e612f85565b81526020018c8152602001611261612f85565b815260200160001515815260200183815260200183815260200160006001600160a01b031681525060356000603480549050815260200190815260200160002060008201518160000160008201518160000155505060208201518160010160008201518160000155505060408201518160020160008201518160000155505060608201518160030160008201518160000155505060808201518160040160008201518160000155505060a08201518160050160006101000a81548160ff02191690831515021790555060c0820151816006015560e082015181600701556101008201518160080160006101000a8154816001600160a01b0302191690836001600160a01b031602179055509050506034604051806101a001604052808f6001600160a01b03168152602001336001600160a01b031681526020016005808111156113a757fe5b8152871515602082015260016040820152606081018790526080016113ca612f85565b81526020016113d7612f85565b815260208082018e905260408083018e9052606083018d9052608083018c905260a09092018a90528354600180820186556000958652948290208451600a9092020180546001600160a01b03199081166001600160a01b039384161782559285015195810180549093169590911694909417808255918301519293929160ff60a01b1916600160a01b83600581111561146c57fe5b0217905550606082015160018201805460808501511515600160b01b0260ff60b01b19931515600160a81b0260ff60a81b19909216919091179290921691909117905560a0820151600282015560c082015151600382015560e0820151516004820155610100820151516005820155610120820151516006820155610140820151516007820155610160820151516008820155610180909101515160099091015560345461151d9060001901612fa0565b5050603454600019019b9a5050505050505050505050565b61153d61338a565b6001600160a01b031661154e611db3565b6001600160a01b0316146115745760405162461bcd60e51b81526004016103eb9061445e565b603680546001600160a01b0319166001600160a01b0392909216919091179055565b61159e613a64565b6115a6613b08565b6040517f21e009850000000000000000000000000000000000000000000000000000000081526001600160a01b038516906321e00985906115eb9086906004016147a7565b60806040518083038186803b15801561160357600080fd5b505afa158015611617573d6000803e3d6000fd5b505050506040513d601f19601f8201168201806040525081019061163b9190613dda565b60208101518151919250611655919063ffffffff61338e16565b9150505b92915050565b61166761338a565b6001600160a01b0316611678611db3565b6001600160a01b03161461169e5760405162461bcd60e51b81526004016103eb9061445e565b600080546040516001600160a01b03909116907f8be0079c531659141344cd1fd0a4f28419497f9722a3daafe3b4186f6b6457e0908390a3600080546001600160a01b0319169055565b60008115806116f657508142105b6117125760405162461bcd60e51b81526004016103eb906141c6565b61172a61171d6133ba565b8a9063ffffffff61335916565b60000b6000191461174d5760405162461bcd60e51b81526004016103eb906141fd565b60345460405133917fcb0c37c16aa3b0bbb7a817932094d8a20a00996d426a813f067039f0ef87ab079161178191906147a7565b60405180910390a2600060018b6001600160a01b0316630d451c8f6040518163ffffffff1660e01b815260040160206040518083038186803b1580156117c657600080fd5b505afa1580156117da573d6000803e3d6000fd5b505050506040513d601f19601f820116820180604052508101906117fe9190613e64565b039050611809613a64565b8b6001600160a01b031663dc76fabc6040518163ffffffff1660e01b815260040160206040518083038186803b15801561184257600080fd5b505afa158015611856573d6000803e3d6000fd5b505050506040513d601f19601f8201168201806040525081019061187a9190613e31565b9050604051806101200160405280828152602001611896612f85565b81526020018c81526020016118a9612f85565b81526020016118b6612f85565b815260200160011515815260200183815260200183815260200160006001600160a01b031681525060356000603480549050815260200190815260200160002060008201518160000160008201518160000155505060208201518160010160008201518160000155505060408201518160020160008201518160000155505060608201518160030160008201518160000155505060808201518160040160008201518160000155505060a08201518160050160006101000a81548160ff02191690831515021790555060c0820151816006015560e082015181600701556101008201518160080160006101000a8154816001600160a01b0302191690836001600160a01b031602179055509050506034604051806101a001604052808e6001600160a01b03168152602001336001600160a01b03168152602001600460058111156119fd57fe5b815287151560208201526001604082015260608101879052608001611a20612f85565b8152602001611a2d612f85565b815260208082018e905260408083018e9052606083018d9052608083018c905260a09092018a90528354600180820186556000958652948290208451600a9092020180546001600160a01b03199081166001600160a01b039384161782559285015195810180549093169590911694909417808255918301519293929160ff60a01b1916600160a01b836005811115611ac257fe5b0217905550606082015160018201805460808501511515600160b01b0260ff60b01b19931515600160a81b0260ff60a81b19909216919091179290921691909117905560a0820151600282015560c082015151600382015560e08201515160048201556101008201515160058201556101208201515160068201556101408201515160078201556101608201515160088201556101809091015151600990910155603454611b739060001901612fa0565b5050603454600019019a9950505050505050505050565b801580611b9657508042105b611bb25760405162461bcd60e51b81526004016103eb906141c6565b60345460405133917fcb0c37c16aa3b0bbb7a817932094d8a20a00996d426a813f067039f0ef87ab0791611be691906147a7565b60405180910390a2604080516101a0810182526001600160a01b038c8116825233602083019081526003938301938452851515606084015260016080840181905260a0840186905260c084018e905260e084018d905261010084018c905261012084018b905261014084018a9052610160840189905261018084018890526034805491820181556000528351600a9091027f46bddb1178e94d7f2892ff5f366840eb658911794f2c3a44c450aa2c505186c1810180549285166001600160a01b031993841617815592517f46bddb1178e94d7f2892ff5f366840eb658911794f2c3a44c450aa2c505186c2909101805491909416911617808355935192939092919060ff60a01b1916600160a01b836005811115611d0057fe5b0217905550606082015160018201805460808501511515600160b01b0260ff60b01b19931515600160a81b0260ff60a81b19909216919091179290921691909117905560a0820151600282015560c082015151600382015560e0820151516004820155610100820151516005820155610120820151516006820155610140820151516007820155610160820151516008820155610180909101515160099091015550505050505050505050565b60345490565b6000546001600160a01b031690565b60348181548110611dcf57fe5b6000918252602091829020600a9091020180546001820154600283015460408051808701825260038601548152815180880183526004870154815282518089018452600588015481528351808a018552600689015481528451808b01865260078a015481528551808c01875260088b0154815286519b8c019096526009909901548a526001600160a01b039788169a509686169860ff600160a01b8804811699600160a81b8904821699600160b01b9099049091169794959394929390918d565b8960348181548110611e9e57fe5b60009182526020909120600a90910201600101546001600160a01b03163314611ed95760405162461bcd60e51b81526004016103eb906140c4565b6034548b908110611efc5760405162461bcd60e51b81526004016103eb906143ca565b600160348d81548110611f0b57fe5b90600052602060002090600a020160010160149054906101000a900460ff166005811115611f3557fe5b1480611f775750600260348d81548110611f4b57fe5b90600052602060002090600a020160010160149054906101000a900460ff166005811115611f7557fe5b145b80611fb85750600360348d81548110611f8c57fe5b90600052602060002090600a020160010160149054906101000a900460ff166005811115611fb657fe5b145b611fd45760405162461bcd60e51b81526004016103eb90614584565b8a60348d81548110611fe257fe5b90600052602060002090600a0201600301600082015181600001559050508960348d8154811061200e57fe5b90600052602060002090600a0201600401600082015181600001559050508860348d8154811061203a57fe5b90600052602060002090600a0201600501600082015181600001559050508760348d8154811061206657fe5b90600052602060002090600a0201600601600082015181600001559050508660348d8154811061209257fe5b90600052602060002090600a0201600701600082015181600001559050508560348d815481106120be57fe5b90600052602060002090600a0201600801600082015181600001559050508460348d815481106120ea57fe5b90600052602060002090600a0201600901600082015181600001559050508360348d8154811061211657fe5b90600052602060002090600a020160010160156101000a81548160ff0219169083151502179055508260348d8154811061214c57fe5b90600052602060002090600a02016002018190555060348c815481106109ca57fe5b600081158061217c57508142105b6121985760405162461bcd60e51b81526004016103eb906141c6565b60345460405133917fcb0c37c16aa3b0bbb7a817932094d8a20a00996d426a813f067039f0ef87ab07916121cc91906147a7565b60405180910390a2600060018b6001600160a01b0316630d451c8f6040518163ffffffff1660e01b815260040160206040518083038186803b15801561221157600080fd5b505afa158015612225573d6000803e3d6000fd5b505050506040513d601f19601f820116820180604052508101906122499190613e64565b039050612254613a64565b8b6001600160a01b031663dc76fabc6040518163ffffffff1660e01b815260040160206040518083038186803b15801561228d57600080fd5b505afa1580156122a1573d6000803e3d6000fd5b505050506040513d601f19601f820116820180604052508101906122c59190613e31565b90506040518061012001604052808281526020018c81526020016122e7612f85565b81526020016122f4612f85565b8152602001612301612f85565b815260200160001515815260200183815260200183815260200160006001600160a01b031681525060356000603480549050815260200190815260200160002060008201518160000160008201518160000155505060208201518160010160008201518160000155505060408201518160020160008201518160000155505060608201518160030160008201518160000155505060808201518160040160008201518160000155505060a08201518160050160006101000a81548160ff02191690831515021790555060c0820151816006015560e082015181600701556101008201518160080160006101000a8154816001600160a01b0302191690836001600160a01b031602179055509050506034604051806101a001604052808e6001600160a01b03168152602001336001600160a01b03168152602001600460058111156119fd57fe5b600081158061245657508142105b6124725760405162461bcd60e51b81526004016103eb906141c6565b61248a61247d6133ba565b8b9063ffffffff61335916565b60000b600019146124ad5760405162461bcd60e51b81526004016103eb906141fd565b6124b861171d6133ba565b60000b600019146124db5760405162461bcd60e51b81526004016103eb90614393565b60345460405133917fcb0c37c16aa3b0bbb7a817932094d8a20a00996d426a813f067039f0ef87ab079161250f91906147a7565b60405180910390a2600060018c6001600160a01b0316630d451c8f6040518163ffffffff1660e01b815260040160206040518083038186803b15801561255457600080fd5b505afa158015612568573d6000803e3d6000fd5b505050506040513d601f19601f8201168201806040525081019061258c9190613e64565b039050612597613a64565b8c6001600160a01b031663dc76fabc6040518163ffffffff1660e01b815260040160206040518083038186803b1580156125d057600080fd5b505afa1580156125e4573d6000803e3d6000fd5b505050506040513d601f19601f820116820180604052508101906126089190613e31565b9050604051806101200160405280828152602001612624612f85565b81526020018d8152602001612637612f85565b81526020018c815260200160011515815260200183815260200183815260200160006001600160a01b031681525060356000603480549050815260200190815260200160002060008201518160000160008201518160000155505060208201518160010160008201518160000155505060408201518160020160008201518160000155505060608201518160030160008201518160000155505060808201518160040160008201518160000155505060a08201518160050160006101000a81548160ff02191690831515021790555060c0820151816006015560e082015181600701556101008201518160080160006101000a8154816001600160a01b0302191690836001600160a01b031602179055509050506034604051806101a001604052808f6001600160a01b03168152602001336001600160a01b031681526020016005808111156113a757fe5b6036546001600160a01b031681565b61279a613a64565b6127a2613a64565b6127aa613a64565b6127b2613a64565b6127ba613a64565b6127c2613a64565b6127ca613a64565b603454889081106127ed5760405162461bcd60e51b81526004016103eb906143ca565b6127f5613a77565b60348a8154811061280257fe5b6000918252602091829020604080516101a081018252600a90930290910180546001600160a01b03908116845260018201549081169484019490945291929083019060ff600160a01b90910416600581111561285a57fe5b600581111561286557fe5b8152600182015460ff600160a81b820481161515602080850191909152600160b01b9092041615156040808401919091526002840154606084015280518083018252600385015481526080840152805180830182526004850154815260a0840152805180830182526005850154815260c080850191909152815180840183526006860154815260e08086019190915282518085018452600787015481526101008087019190915283518086018552600888015481526101208088019190915284519586019094526009909601548452610140948501939093528501519185015193850151908501519285015161016086015161018090960151929e50939c509a5090985090965090945092505050919395979092949650565b612986613b3c565b50600081815260356020908152604091829020825161014081018452815461012082019081528152835180840185526001830154815281840152835180840185526002830154815281850152835180840185526003830154815260608201528351928301909352600481015482526080830191909152600581015460ff16151560a0830152600681015460c0830152600781015460e0830152600801546001600160a01b03166101008201525b919050565b612a4061338a565b6001600160a01b0316612a51611db3565b6001600160a01b031614612a775760405162461bcd60e51b81526004016103eb9061445e565b6001600160a01b038116612a9d5760405162461bcd60e51b81526004016103eb906140fb565b600080546040516001600160a01b03808516939216917f8be0079c531659141344cd1fd0a4f28419497f9722a3daafe3b4186f6b6457e091a3600080546001600160a01b0319166001600160a01b0392909216919091179055565b60345481908110612b1b5760405162461bcd60e51b81526004016103eb906143ca565b60348281548110612b2857fe5b90600052602060002090600a020160010160169054906101000a900460ff16612b635760405162461bcd60e51b81526004016103eb90614158565b603654603480546000926001600160a01b03169163a0b738819186908110612b8757fe5b600091825260209091206001600a9092020101546040517fffffffff0000000000000000000000000000000000000000000000000000000060e084901b168152612bdd916001600160a01b031690600401613f2c565b60206040518083038186803b158015612bf557600080fd5b505afa158015612c09573d6000803e3d6000fd5b505050506040513d601f19601f82011682018060405250810190612c2d9190613c0c565b90506000816001600160a01b03166394f61134856040518263ffffffff1660e01b8152600401612c5d91906147a7565b602060405180830381600087803b158015612c7757600080fd5b505af1158015612c8b573d6000803e3d6000fd5b505050506040513d601f19601f82011682018060405250810190612caf9190613d93565b90508015610dc157600460348581548110612cc657fe5b90600052602060002090600a020160010160149054906101000a900460ff166005811115612cf057fe5b1480612d325750600560348581548110612d0657fe5b90600052602060002090600a020160010160149054906101000a900460ff166005811115612d3057fe5b145b8015612d5757506000848152603560205260409020600801546001600160a01b031615155b15612e0d57612db973ddafbb505ad214d7b80b1f830fccc89b60fb7a838333612db4600260348a81548110612d8857fe5b60009182526020918290206040805193840190526009600a90920201015481529063ffffffff6133de16565b613400565b60008481526035602052604090206008015460348054612e089273ddafbb505ad214d7b80b1f830fccc89b60fb7a839286926001600160a01b0390921691612db4916002918b908110612d8857fe5b612e59565b612e5973ddafbb505ad214d7b80b1f830fccc89b60fb7a83833360348881548110612e3457fe5b60009182526020918290206040805193840190526009600a9092020101548152613400565b600060348581548110612e6857fe5b90600052602060002090600a020160010160166101000a81548160ff02191690831515021790555060348481548110612e9d57fe5b600091825260208220600a9091020180546001600160a01b03191681556001810180547fffffffffffffffffff000000000000000000000000000000000000000000000016905560028101829055600381018290556004810182905560058101829055600681018290556007810182905560088101829055600901556034805485908110612f2757fe5b600091825260209091206001600a9092020101546040516001600160a01b03909116907f6ac084fe52cc25f2f64ae4aea087b0bf8e92c0a900b2425c1edda1f36c8cab0d90612f779087906147a7565b60405180910390a250505050565b612f8d613a64565b5060408051602081019091526000815290565b612fa8613a64565b506000818152603560209081526040808320815192830190915254815260348054919291612fdb919085908110610cb857fe5b612fe6576001612fe9565b60005b60008481526035602052604090206005015490915060ff16156131a35761300e613a64565b81613052576000848152603560209081526040918290208251918201909252600290910154815261304d906130416133ba565b9063ffffffff61357d16565b61308c565b6000848152603560209081526040918290208251918201909252600290910154815261308c906130806133ba565b9063ffffffff6135a016565b9050613096613a64565b826130ce57600085815260356020908152604091829020825191820190925260049091015481526130c9906130416133ba565b6130fc565b600085815260356020908152604091829020825191820190925260049091015481526130fc906130806133ba565b905061310e848363ffffffff6135c316565b6034868154811061311b57fe5b90600052602060002090600a020160030160008201518160000155905050613176816034878154811061314a57fe5b60009182526020918290206040805193840190526003600a90920201015481529063ffffffff6135c316565b6034868154811061318357fe5b6000918252602090912091516004600a9092029092010155506133369050565b806131e057600083815260356020908152604091829020825191820190925260019091015481526131db90839063ffffffff61357d16565b613213565b6000838152603560209081526040918290208251918201909252600190910154815261321390839063ffffffff6135a016565b6034848154811061322057fe5b6000918252602090912091516003600a9092029092010155806132a9576132a4603560008581526020019081526020016000206003016040518060200160405290816000820154815250506034858154811061327857fe5b60009182526020918290206040805193840190526003600a90920201015481529063ffffffff61357d16565b613310565b61331060356000858152602001908152602001600020600301604051806020016040529081600082015481525050603485815481106132e457fe5b60009182526020918290206040805193840190526003600a90920201015481529063ffffffff6135a016565b6034848154811061331d57fe5b6000918252602090912091516004600a90920290920101555b505050565b6000808260000151121561335157506001612a33565b506000919050565b80518251600091101561336e57506001611659565b8151835110156133815750600019611659565b50600092915050565b3390565b613396613a64565b61339e613a64565b825184516133b19163ffffffff6135e616565b81529392505050565b6133c2613a64565b60405180602001604052806133d760126135fb565b9052905090565b6133e6613a64565b6133ee613a64565b83516133b1908463ffffffff61360416565b61340984613636565b613411613a64565b61341b8584613683565b905060006134298684613710565b905060006060876001600160a01b03166323b872dd60e01b88888660405160240161345693929190614032565b604080517fffffffffffffffffffffffffffffffffffffffffffffffffffffffffffffffe08184030181529181526020820180517bffffffffffffffffffffffffffffffffffffffffffffffffffffffff167fffffffff000000000000000000000000000000000000000000000000000000009094169390931790925290516134df9190613ef3565b6000604051808303816000865af19150503d806000811461351c576040519150601f19603f3d011682016040523d82523d6000602084013e613521565b606091505b509150915081801561354b57508051158061354b57508080602001905181019061354b9190613d93565b6135675760405162461bcd60e51b81526004016103eb90614336565b61357388878587613786565b5050505050505050565b613585613a64565b61358d613a64565b825184516133b19163ffffffff6137d916565b6135a8613a64565b6135b0613a64565b825184516133b19163ffffffff61380116565b6135cb613a64565b6135d3613a64565b825184516133b19163ffffffff61382616565b60006135f483836012613834565b9392505050565b60ff16600a0a90565b60008082116136255760405162461bcd60e51b81526004016103eb906142a2565b81838161362e57fe5b049392505050565b60006136418261385b565b6001600160a01b038316600090815260016020526040902054909150811461367f576001600160a01b03821660009081526001602052604090208190555b5050565b61368b613a64565b6135f483846001600160a01b03166370a08231856040518263ffffffff1660e01b81526004016136bb9190613f2c565b60206040518083038186803b1580156136d357600080fd5b505afa1580156136e7573d6000803e3d6000fd5b505050506040513d601f19601f8201168201806040525081019061370b9190613e64565b613976565b60008061371c8461385b565b90506012811061375a5761375261373a82601263ffffffff6137d916565b600a0a61374685613a08565b9063ffffffff613a0c16565b915050611659565b61165561376e60128363ffffffff6137d916565b600a0a61377a85613a08565b9063ffffffff61360416565b6137b96137a36137968685613976565b839063ffffffff6135a016565b6137ad8686613683565b9063ffffffff61335916565b60000b15610dc15760405162461bcd60e51b81526004016103eb906144ca565b6000828211156137fb5760405162461bcd60e51b81526004016103eb90614234565b50900390565b6000828201838110156135f45760405162461bcd60e51b81526004016103eb9061418f565b60006135f483836012613a46565b60006138538361377a613846856135fb565b879063ffffffff613a0c16565b949350505050565b6001600160a01b038116600090815260016020526040812054806116595760408051600481526024810182526020810180517bffffffffffffffffffffffffffffffffffffffffffffffffffffffff167f313ce5670000000000000000000000000000000000000000000000000000000017905290516000916060916001600160a01b038716916138eb91613ef3565b600060405180830381855afa9150503d8060008114613926576040519150601f19603f3d011682016040523d82523d6000602084013e61392b565b606091505b509150915081801561393d5750805115155b6139595760405162461bcd60e51b81526004016103eb906142d9565b8080602001905181019061396d9190613e64565b95945050505050565b61397e613a64565b60006139898461385b565b9050601281106139ce576040805160208101909152806139c36139b384601263ffffffff6137d916565b8690600a0a63ffffffff61360416565b815250915050611659565b6040805160208101909152806139fe6139ee60128563ffffffff6137d916565b8690600a0a63ffffffff613a0c16565b9052949350505050565b5190565b600082613a1b57506000611659565b82820282848281613a2857fe5b04146135f45760405162461bcd60e51b81526004016103eb90614401565b6000613853613a54836135fb565b61377a868663ffffffff613a0c16565b6040518060200160405280600081525090565b604080516101a08101825260008082526020820181905290918201908152600060208201819052604082018190526060820152608001613ab5613a64565b8152602001613ac2613a64565b8152602001613acf613a64565b8152602001613adc613a64565b8152602001613ae9613a64565b8152602001613af6613a64565b8152602001613b03613a64565b905290565b6040518060800160405280613b1b613a64565b8152602001613b28613a64565b815260200160008152602001600081525090565b604051806101200160405280613b50613a64565b8152602001613b5d613a64565b8152602001613b6a613a64565b8152602001613b77613a64565b8152602001613b84613a64565b8152600060208201819052604082018190526060820181905260809091015290565b600060208284031215613bb7578081fd5b613bc160206147b0565b9135825250919050565b600060208284031215613bdc578081fd5b613be660206147b0565b9151825250919050565b600060208284031215613c01578081fd5b81356135f4816147e2565b600060208284031215613c1d578081fd5b81516135f4816147e2565b6000806000806000806000806000806101408b8d031215613c47578586fd5b8a35613c52816147e2565b9950613c618c60208d01613ba6565b9850613c708c60408d01613ba6565b9750613c7f8c60608d01613ba6565b9650613c8e8c60808d01613ba6565b9550613c9d8c60a08d01613ba6565b9450613cac8c60c08d01613ba6565b9350613cbb8c60e08d01613ba6565b92506101008b0135613ccc816147fa565b809250506101208b013590509295989b9194979a5092959850565b60008060008060008060008060006101208a8c031215613d05578485fd5b8935613d10816147e2565b9850613d1f8b60208c01613ba6565b9750613d2e8b60408c01613ba6565b9650613d3d8b60608c01613ba6565b9550613d4c8b60808c01613ba6565b9450613d5b8b60a08c01613ba6565b9350613d6a8b60c08c01613ba6565b925060e08a0135613d7a816147fa565b809250506101008a013590509295985092959850929598565b600060208284031215613da4578081fd5b81516135f4816147fa565b60008060408385031215613dc1578182fd5b8235613dcc816147e2565b946020939093013593505050565b600060808284031215613deb578081fd5b613df560806147b0565b613dff8484613bcb565b8152613e0e8460208501613bcb565b602082015260408301516040820152606083015160608201528091505092915050565b600060208284031215613e42578081fd5b6135f48383613bcb565b600060208284031215613e5d578081fd5b5035919050565b600060208284031215613e75578081fd5b5051919050565b6000806000806000806000806000806101408b8d031215613e9b578384fd5b8a359950613c618c60208d01613ba6565b60008060408385031215613ebe578182fd5b50508035926020909101359150565b6001600160a01b03169052565b15159052565b60068110613eea57fe5b9052565b519052565b60008251815b81811015613f135760208186018101518583015201613ef9565b81811115613f215782828501525b509190910192915050565b6001600160a01b0391909116815260200190565b6001600160a01b0387811682528616602082015260c08101613f61866147d7565b60408301529315156060820152911515608083015260a0909101529392505050565b6001600160a01b038e811682528d1660208201526101a08101613fa58d6147d7565b60408301528b151560608301528a151560808301528960a0830152613fcd60c083018a613eee565b613fda60e0830189613eee565b613fe8610100830188613eee565b613ff6610120830187613eee565b614004610140830186613eee565b614012610160830185613eee565b614020610180830184613eee565b9e9d5050505050505050505050505050565b6001600160a01b039384168152919092166020820152604081019190915260600190565b6020808252601f908201527f43616e206f6e6c79206d6f6469667920747261696c696e67206f726465727300604082015260600190565b60208082526019908201527f4f72646572206861646e2774206265656e206372656174656400000000000000604082015260600190565b60208082526014908201527f4e6f7420796f7572206c696d6974206f72646572000000000000000000000000604082015260600190565b60208082526026908201527f4f776e61626c653a206e6577206f776e657220697320746865207a65726f206160408201527f6464726573730000000000000000000000000000000000000000000000000000606082015260800190565b6020808252600f908201527f4e6f206c6f6e6765722076616c69640000000000000000000000000000000000604082015260600190565b6020808252601b908201527f536166654d6174683a206164646974696f6e206f766572666c6f770000000000604082015260600190565b60208082526019908201527f4576656e742077696c6c2065787069726520696e207061737400000000000000604082015260600190565b60208082526015908201527f496e76616c696420747261696c2070657263656e740000000000000000000000604082015260600190565b6020808252601e908201527f536166654d6174683a207375627472616374696f6e206f766572666c6f770000604082015260600190565b6020808252601d908201527f43616e206f6e6c7920706f6b6520747261696c696e67206f7264657273000000604082015260600190565b6020808252601a908201527f536166654d6174683a206469766973696f6e206279207a65726f000000000000604082015260600190565b60208082526021908201527f446563696d616c45524332303a2067657420646563696d616c73206661696c6560408201527f6400000000000000000000000000000000000000000000000000000000000000606082015260800190565b60208082526021908201527f446563696d616c45524332303a207472616e7366657246726f6d206661696c6560408201527f6400000000000000000000000000000000000000000000000000000000000000606082015260800190565b60208082526013908201527f496e76616c6964206761702070657263656e7400000000000000000000000000604082015260600190565b6020808252600a908201527f496e76616c696420494400000000000000000000000000000000000000000000604082015260600190565b60208082526021908201527f536166654d6174683a206d756c7469706c69636174696f6e206f766572666c6f60408201527f7700000000000000000000000000000000000000000000000000000000000000606082015260800190565b6020808252818101527f4f776e61626c653a2063616c6c6572206973206e6f7420746865206f776e6572604082015260600190565b60208082526018908201527f496e636f727265637420747261696c696e672070726963650000000000000000604082015260600190565b60208082526022908201527f446563696d616c45524332303a2062616c616e636520696e636f6e736973746560408201527f6e74000000000000000000000000000000000000000000000000000000000000606082015260800190565b60208082526024908201527f43616e206f6e6c792062652075706461746564206576657279203135206d696e60408201527f7574657300000000000000000000000000000000000000000000000000000000606082015260800190565b60208082526021908201527f43616e206f6e6c79206d6f646966792073746f702f6c696d6974206f7264657260408201527f7300000000000000000000000000000000000000000000000000000000000000606082015260800190565b60006101a0820190506145f5828451613ecd565b60208301516146076020840182613ecd565b50604083015161461a6040840182613ee0565b50606083015161462d6060840182613eda565b5060808301516146406080840182613eda565b5060a083015160a083015260c083015161465d60c0840182613eee565b5060e083015161467060e0840182613eee565b506101008084015161468482850182613eee565b50506101208084015161469982850182613eee565b5050610140808401516146ae82850182613eee565b5050610160808401516146c382850182613eee565b5050610180808401516146d882850182613eee565b505092915050565b60006101208201905082515182526020830151516020830152604083015161470b6040840182613eee565b50606083015161471e6060840182613eee565b5060808301516147316080840182613eee565b5060a083015161474460a0840182613eda565b5060c083015160c083015260e083015160e0830152610100808401516146d882850182613ecd565b9051815260200190565b965187529451602087015292516040860152905160608501525160808401525160a08301525160c082015260e00190565b90815260200190565b60405181810167ffffffffffffffff811182821017156147cf57600080fd5b604052919050565b8060068110612a3357fe5b6001600160a01b03811681146147f757600080fd5b50565b80151581146147f757600080fdfea2646970667358221220071d0788472cdb13b394cade2362980363ab184d1eadc12e5a7fa3a9ccee48e864736f6c63430006090033",
  "linkReferences": {},
  "deployedLinkReferences": {}
}