{
  "_format": "hh-sol-artifact-1",
  "contractName": "LimitOrderBook",
  "sourceName": "contracts/LimitOrderBook.sol",
  "abi": [
    {
      "anonymous": false,
      "inputs": [
        {
          "indexed": true,
          "internalType": "address",
          "name": "trader",
          "type": "address"
        },
        {
          "indexed": false,
          "internalType": "uint256",
          "name": "order_id",
          "type": "uint256"
        }
      ],
      "name": "OrderCreated",
      "type": "event"
    },
    {
      "anonymous": false,
      "inputs": [
        {
          "indexed": true,
          "internalType": "address",
          "name": "trader",
          "type": "address"
        },
        {
          "indexed": false,
          "internalType": "uint256",
          "name": "order_id",
          "type": "uint256"
        }
      ],
      "name": "OrderFilled",
      "type": "event"
    },
    {
      "anonymous": false,
      "inputs": [
        {
          "indexed": true,
          "internalType": "address",
          "name": "previousOwner",
          "type": "address"
        },
        {
          "indexed": true,
          "internalType": "address",
          "name": "newOwner",
          "type": "address"
        }
      ],
      "name": "OwnershipTransferred",
      "type": "event"
    },
    {
      "inputs": [
        {
          "internalType": "address",
          "name": "_asset",
          "type": "address"
        },
        {
          "components": [
            {
              "internalType": "uint256",
              "name": "d",
              "type": "uint256"
            }
          ],
          "internalType": "struct Decimal.decimal",
          "name": "_limitPrice",
          "type": "tuple"
        },
        {
          "components": [
            {
              "internalType": "int256",
              "name": "d",
              "type": "int256"
            }
          ],
          "internalType": "struct SignedDecimal.signedDecimal",
          "name": "_positionSize",
          "type": "tuple"
        },
        {
          "components": [
            {
              "internalType": "uint256",
              "name": "d",
              "type": "uint256"
            }
          ],
          "internalType": "struct Decimal.decimal",
          "name": "_collateral",
          "type": "tuple"
        },
        {
          "components": [
            {
              "internalType": "uint256",
              "name": "d",
              "type": "uint256"
            }
          ],
          "internalType": "struct Decimal.decimal",
          "name": "_leverage",
          "type": "tuple"
        },
        {
          "components": [
            {
              "internalType": "uint256",
              "name": "d",
              "type": "uint256"
            }
          ],
          "internalType": "struct Decimal.decimal",
          "name": "_slippage",
          "type": "tuple"
        },
        {
          "components": [
            {
              "internalType": "uint256",
              "name": "d",
              "type": "uint256"
            }
          ],
          "internalType": "struct Decimal.decimal",
          "name": "_tipFee",
          "type": "tuple"
        },
        {
          "internalType": "bool",
          "name": "_reduceOnly",
          "type": "bool"
        },
        {
          "internalType": "uint256",
          "name": "_expiry",
          "type": "uint256"
        }
      ],
      "name": "addLimitOrder",
      "outputs": [],
      "stateMutability": "nonpayable",
      "type": "function"
    },
    {
      "inputs": [
        {
          "internalType": "address",
          "name": "_asset",
          "type": "address"
        },
        {
          "components": [
            {
              "internalType": "uint256",
              "name": "d",
              "type": "uint256"
            }
          ],
          "internalType": "struct Decimal.decimal",
          "name": "_stopPrice",
          "type": "tuple"
        },
        {
          "components": [
            {
              "internalType": "uint256",
              "name": "d",
              "type": "uint256"
            }
          ],
          "internalType": "struct Decimal.decimal",
          "name": "_limitPrice",
          "type": "tuple"
        },
        {
          "components": [
            {
              "internalType": "int256",
              "name": "d",
              "type": "int256"
            }
          ],
          "internalType": "struct SignedDecimal.signedDecimal",
          "name": "_positionSize",
          "type": "tuple"
        },
        {
          "components": [
            {
              "internalType": "uint256",
              "name": "d",
              "type": "uint256"
            }
          ],
          "internalType": "struct Decimal.decimal",
          "name": "_collateral",
          "type": "tuple"
        },
        {
          "components": [
            {
              "internalType": "uint256",
              "name": "d",
              "type": "uint256"
            }
          ],
          "internalType": "struct Decimal.decimal",
          "name": "_leverage",
          "type": "tuple"
        },
        {
          "components": [
            {
              "internalType": "uint256",
              "name": "d",
              "type": "uint256"
            }
          ],
          "internalType": "struct Decimal.decimal",
          "name": "_slippage",
          "type": "tuple"
        },
        {
          "components": [
            {
              "internalType": "uint256",
              "name": "d",
              "type": "uint256"
            }
          ],
          "internalType": "struct Decimal.decimal",
          "name": "_tipFee",
          "type": "tuple"
        },
        {
          "internalType": "bool",
          "name": "_reduceOnly",
          "type": "bool"
        },
        {
          "internalType": "uint256",
          "name": "_expiry",
          "type": "uint256"
        }
      ],
      "name": "addStopLimitOrder",
      "outputs": [],
      "stateMutability": "nonpayable",
      "type": "function"
    },
    {
      "inputs": [
        {
          "internalType": "address",
          "name": "_asset",
          "type": "address"
        },
        {
          "components": [
            {
              "internalType": "uint256",
              "name": "d",
              "type": "uint256"
            }
          ],
          "internalType": "struct Decimal.decimal",
          "name": "_stopPrice",
          "type": "tuple"
        },
        {
          "components": [
            {
              "internalType": "int256",
              "name": "d",
              "type": "int256"
            }
          ],
          "internalType": "struct SignedDecimal.signedDecimal",
          "name": "_positionSize",
          "type": "tuple"
        },
        {
          "components": [
            {
              "internalType": "uint256",
              "name": "d",
              "type": "uint256"
            }
          ],
          "internalType": "struct Decimal.decimal",
          "name": "_collateral",
          "type": "tuple"
        },
        {
          "components": [
            {
              "internalType": "uint256",
              "name": "d",
              "type": "uint256"
            }
          ],
          "internalType": "struct Decimal.decimal",
          "name": "_leverage",
          "type": "tuple"
        },
        {
          "components": [
            {
              "internalType": "uint256",
              "name": "d",
              "type": "uint256"
            }
          ],
          "internalType": "struct Decimal.decimal",
          "name": "_slippage",
          "type": "tuple"
        },
        {
          "components": [
            {
              "internalType": "uint256",
              "name": "d",
              "type": "uint256"
            }
          ],
          "internalType": "struct Decimal.decimal",
          "name": "_tipFee",
          "type": "tuple"
        },
        {
          "internalType": "bool",
          "name": "_reduceOnly",
          "type": "bool"
        },
        {
          "internalType": "uint256",
          "name": "_expiry",
          "type": "uint256"
        }
      ],
      "name": "addStopOrder",
      "outputs": [],
      "stateMutability": "nonpayable",
      "type": "function"
    },
    {
      "inputs": [
        {
          "internalType": "address",
          "name": "_asset",
          "type": "address"
        },
        {
          "components": [
            {
              "internalType": "uint256",
              "name": "d",
              "type": "uint256"
            }
          ],
          "internalType": "struct Decimal.decimal",
          "name": "_trail",
          "type": "tuple"
        },
        {
          "components": [
            {
              "internalType": "uint256",
              "name": "d",
              "type": "uint256"
            }
          ],
          "internalType": "struct Decimal.decimal",
          "name": "_gap",
          "type": "tuple"
        },
        {
          "components": [
            {
              "internalType": "int256",
              "name": "d",
              "type": "int256"
            }
          ],
          "internalType": "struct SignedDecimal.signedDecimal",
          "name": "_positionSize",
          "type": "tuple"
        },
        {
          "components": [
            {
              "internalType": "uint256",
              "name": "d",
              "type": "uint256"
            }
          ],
          "internalType": "struct Decimal.decimal",
          "name": "_collateral",
          "type": "tuple"
        },
        {
          "components": [
            {
              "internalType": "uint256",
              "name": "d",
              "type": "uint256"
            }
          ],
          "internalType": "struct Decimal.decimal",
          "name": "_leverage",
          "type": "tuple"
        },
        {
          "components": [
            {
              "internalType": "uint256",
              "name": "d",
              "type": "uint256"
            }
          ],
          "internalType": "struct Decimal.decimal",
          "name": "_slippage",
          "type": "tuple"
        },
        {
          "components": [
            {
              "internalType": "uint256",
              "name": "d",
              "type": "uint256"
            }
          ],
          "internalType": "struct Decimal.decimal",
          "name": "_tipFee",
          "type": "tuple"
        },
        {
          "internalType": "bool",
          "name": "_reduceOnly",
          "type": "bool"
        },
        {
          "internalType": "uint256",
          "name": "_expiry",
          "type": "uint256"
        }
      ],
      "name": "addTrailingStopLimitOrderAbs",
      "outputs": [
        {
          "internalType": "uint256",
          "name": "",
          "type": "uint256"
        }
      ],
      "stateMutability": "nonpayable",
      "type": "function"
    },
    {
      "inputs": [
        {
          "internalType": "address",
          "name": "_asset",
          "type": "address"
        },
        {
          "components": [
            {
              "internalType": "uint256",
              "name": "d",
              "type": "uint256"
            }
          ],
          "internalType": "struct Decimal.decimal",
          "name": "_trailPct",
          "type": "tuple"
        },
        {
          "components": [
            {
              "internalType": "uint256",
              "name": "d",
              "type": "uint256"
            }
          ],
          "internalType": "struct Decimal.decimal",
          "name": "_gapPct",
          "type": "tuple"
        },
        {
          "components": [
            {
              "internalType": "int256",
              "name": "d",
              "type": "int256"
            }
          ],
          "internalType": "struct SignedDecimal.signedDecimal",
          "name": "_positionSize",
          "type": "tuple"
        },
        {
          "components": [
            {
              "internalType": "uint256",
              "name": "d",
              "type": "uint256"
            }
          ],
          "internalType": "struct Decimal.decimal",
          "name": "_collateral",
          "type": "tuple"
        },
        {
          "components": [
            {
              "internalType": "uint256",
              "name": "d",
              "type": "uint256"
            }
          ],
          "internalType": "struct Decimal.decimal",
          "name": "_leverage",
          "type": "tuple"
        },
        {
          "components": [
            {
              "internalType": "uint256",
              "name": "d",
              "type": "uint256"
            }
          ],
          "internalType": "struct Decimal.decimal",
          "name": "_slippage",
          "type": "tuple"
        },
        {
          "components": [
            {
              "internalType": "uint256",
              "name": "d",
              "type": "uint256"
            }
          ],
          "internalType": "struct Decimal.decimal",
          "name": "_tipFee",
          "type": "tuple"
        },
        {
          "internalType": "bool",
          "name": "_reduceOnly",
          "type": "bool"
        },
        {
          "internalType": "uint256",
          "name": "_expiry",
          "type": "uint256"
        }
      ],
      "name": "addTrailingStopLimitOrderPct",
      "outputs": [
        {
          "internalType": "uint256",
          "name": "",
          "type": "uint256"
        }
      ],
      "stateMutability": "nonpayable",
      "type": "function"
    },
    {
      "inputs": [
        {
          "internalType": "address",
          "name": "_asset",
          "type": "address"
        },
        {
          "components": [
            {
              "internalType": "uint256",
              "name": "d",
              "type": "uint256"
            }
          ],
          "internalType": "struct Decimal.decimal",
          "name": "_trail",
          "type": "tuple"
        },
        {
          "components": [
            {
              "internalType": "int256",
              "name": "d",
              "type": "int256"
            }
          ],
          "internalType": "struct SignedDecimal.signedDecimal",
          "name": "_positionSize",
          "type": "tuple"
        },
        {
          "components": [
            {
              "internalType": "uint256",
              "name": "d",
              "type": "uint256"
            }
          ],
          "internalType": "struct Decimal.decimal",
          "name": "_collateral",
          "type": "tuple"
        },
        {
          "components": [
            {
              "internalType": "uint256",
              "name": "d",
              "type": "uint256"
            }
          ],
          "internalType": "struct Decimal.decimal",
          "name": "_leverage",
          "type": "tuple"
        },
        {
          "components": [
            {
              "internalType": "uint256",
              "name": "d",
              "type": "uint256"
            }
          ],
          "internalType": "struct Decimal.decimal",
          "name": "_slippage",
          "type": "tuple"
        },
        {
          "components": [
            {
              "internalType": "uint256",
              "name": "d",
              "type": "uint256"
            }
          ],
          "internalType": "struct Decimal.decimal",
          "name": "_tipFee",
          "type": "tuple"
        },
        {
          "internalType": "bool",
          "name": "_reduceOnly",
          "type": "bool"
        },
        {
          "internalType": "uint256",
          "name": "_expiry",
          "type": "uint256"
        }
      ],
      "name": "addTrailingStopMarketOrderAbs",
      "outputs": [
        {
          "internalType": "uint256",
          "name": "",
          "type": "uint256"
        }
      ],
      "stateMutability": "nonpayable",
      "type": "function"
    },
    {
      "inputs": [
        {
          "internalType": "address",
          "name": "_asset",
          "type": "address"
        },
        {
          "components": [
            {
              "internalType": "uint256",
              "name": "d",
              "type": "uint256"
            }
          ],
          "internalType": "struct Decimal.decimal",
          "name": "_trailPct",
          "type": "tuple"
        },
        {
          "components": [
            {
              "internalType": "int256",
              "name": "d",
              "type": "int256"
            }
          ],
          "internalType": "struct SignedDecimal.signedDecimal",
          "name": "_positionSize",
          "type": "tuple"
        },
        {
          "components": [
            {
              "internalType": "uint256",
              "name": "d",
              "type": "uint256"
            }
          ],
          "internalType": "struct Decimal.decimal",
          "name": "_collateral",
          "type": "tuple"
        },
        {
          "components": [
            {
              "internalType": "uint256",
              "name": "d",
              "type": "uint256"
            }
          ],
          "internalType": "struct Decimal.decimal",
          "name": "_leverage",
          "type": "tuple"
        },
        {
          "components": [
            {
              "internalType": "uint256",
              "name": "d",
              "type": "uint256"
            }
          ],
          "internalType": "struct Decimal.decimal",
          "name": "_slippage",
          "type": "tuple"
        },
        {
          "components": [
            {
              "internalType": "uint256",
              "name": "d",
              "type": "uint256"
            }
          ],
          "internalType": "struct Decimal.decimal",
          "name": "_tipFee",
          "type": "tuple"
        },
        {
          "internalType": "bool",
          "name": "_reduceOnly",
          "type": "bool"
        },
        {
          "internalType": "uint256",
          "name": "_expiry",
          "type": "uint256"
        }
      ],
      "name": "addTrailingStopMarketOrderPct",
      "outputs": [
        {
          "internalType": "uint256",
          "name": "",
          "type": "uint256"
        }
      ],
      "stateMutability": "nonpayable",
      "type": "function"
    },
    {
      "inputs": [
        {
          "internalType": "uint256",
          "name": "order_id",
          "type": "uint256"
        }
      ],
      "name": "deleteOrder",
      "outputs": [],
      "stateMutability": "nonpayable",
      "type": "function"
    },
    {
      "inputs": [
        {
          "internalType": "uint256",
          "name": "order_id",
          "type": "uint256"
        }
      ],
      "name": "execute",
      "outputs": [],
      "stateMutability": "nonpayable",
      "type": "function"
    },
    {
      "inputs": [],
      "name": "factory",
      "outputs": [
        {
          "internalType": "contract SmartWalletFactory",
          "name": "",
          "type": "address"
        }
      ],
      "stateMutability": "view",
      "type": "function"
    },
    {
      "inputs": [
        {
          "internalType": "uint256",
          "name": "order_id",
          "type": "uint256"
        }
      ],
      "name": "getLimitOrder",
      "outputs": [
        {
          "components": [
            {
              "internalType": "address",
              "name": "asset",
              "type": "address"
            },
            {
              "internalType": "address",
              "name": "trader",
              "type": "address"
            },
            {
              "internalType": "enum LimitOrderBook.OrderType",
              "name": "orderType",
              "type": "uint8"
            },
            {
              "internalType": "bool",
              "name": "reduceOnly",
              "type": "bool"
            },
            {
              "internalType": "bool",
              "name": "stillValid",
              "type": "bool"
            },
            {
              "internalType": "uint256",
              "name": "expiry",
              "type": "uint256"
            },
            {
              "components": [
                {
                  "internalType": "uint256",
                  "name": "d",
                  "type": "uint256"
                }
              ],
              "internalType": "struct Decimal.decimal",
              "name": "stopPrice",
              "type": "tuple"
            },
            {
              "components": [
                {
                  "internalType": "uint256",
                  "name": "d",
                  "type": "uint256"
                }
              ],
              "internalType": "struct Decimal.decimal",
              "name": "limitPrice",
              "type": "tuple"
            },
            {
              "components": [
                {
                  "internalType": "int256",
                  "name": "d",
                  "type": "int256"
                }
              ],
              "internalType": "struct SignedDecimal.signedDecimal",
              "name": "orderSize",
              "type": "tuple"
            },
            {
              "components": [
                {
                  "internalType": "uint256",
                  "name": "d",
                  "type": "uint256"
                }
              ],
              "internalType": "struct Decimal.decimal",
              "name": "collateral",
              "type": "tuple"
            },
            {
              "components": [
                {
                  "internalType": "uint256",
                  "name": "d",
                  "type": "uint256"
                }
              ],
              "internalType": "struct Decimal.decimal",
              "name": "leverage",
              "type": "tuple"
            },
            {
              "components": [
                {
                  "internalType": "uint256",
                  "name": "d",
                  "type": "uint256"
                }
              ],
              "internalType": "struct Decimal.decimal",
              "name": "slippage",
              "type": "tuple"
            },
            {
              "components": [
                {
                  "internalType": "uint256",
                  "name": "d",
                  "type": "uint256"
                }
              ],
              "internalType": "struct Decimal.decimal",
              "name": "tipFee",
              "type": "tuple"
            }
          ],
          "internalType": "struct LimitOrderBook.LimitOrder",
          "name": "",
          "type": "tuple"
        }
      ],
      "stateMutability": "view",
      "type": "function"
    },
    {
      "inputs": [
        {
          "internalType": "uint256",
          "name": "id",
          "type": "uint256"
        }
      ],
      "name": "getLimitOrderParams",
      "outputs": [
        {
          "internalType": "address",
          "name": "",
          "type": "address"
        },
        {
          "internalType": "address",
          "name": "",
          "type": "address"
        },
        {
          "internalType": "enum LimitOrderBook.OrderType",
          "name": "",
          "type": "uint8"
        },
        {
          "internalType": "bool",
          "name": "",
          "type": "bool"
        },
        {
          "internalType": "bool",
          "name": "",
          "type": "bool"
        },
        {
          "internalType": "uint256",
          "name": "",
          "type": "uint256"
        }
      ],
      "stateMutability": "view",
      "type": "function"
    },
    {
      "inputs": [
        {
          "internalType": "uint256",
          "name": "id",
          "type": "uint256"
        }
      ],
      "name": "getLimitOrderPrices",
      "outputs": [
        {
          "components": [
            {
              "internalType": "uint256",
              "name": "d",
              "type": "uint256"
            }
          ],
          "internalType": "struct Decimal.decimal",
          "name": "",
          "type": "tuple"
        },
        {
          "components": [
            {
              "internalType": "uint256",
              "name": "d",
              "type": "uint256"
            }
          ],
          "internalType": "struct Decimal.decimal",
          "name": "",
          "type": "tuple"
        },
        {
          "components": [
            {
              "internalType": "int256",
              "name": "d",
              "type": "int256"
            }
          ],
          "internalType": "struct SignedDecimal.signedDecimal",
          "name": "",
          "type": "tuple"
        },
        {
          "components": [
            {
              "internalType": "uint256",
              "name": "d",
              "type": "uint256"
            }
          ],
          "internalType": "struct Decimal.decimal",
          "name": "",
          "type": "tuple"
        },
        {
          "components": [
            {
              "internalType": "uint256",
              "name": "d",
              "type": "uint256"
            }
          ],
          "internalType": "struct Decimal.decimal",
          "name": "",
          "type": "tuple"
        },
        {
          "components": [
            {
              "internalType": "uint256",
              "name": "d",
              "type": "uint256"
            }
          ],
          "internalType": "struct Decimal.decimal",
          "name": "",
          "type": "tuple"
        },
        {
          "components": [
            {
              "internalType": "uint256",
              "name": "d",
              "type": "uint256"
            }
          ],
          "internalType": "struct Decimal.decimal",
          "name": "",
          "type": "tuple"
        }
      ],
      "stateMutability": "view",
      "type": "function"
    },
    {
      "inputs": [],
      "name": "getNextOrderId",
      "outputs": [
        {
          "internalType": "uint256",
          "name": "",
          "type": "uint256"
        }
      ],
      "stateMutability": "view",
      "type": "function"
    },
    {
      "inputs": [
        {
          "internalType": "contract IAmm",
          "name": "_asset",
          "type": "address"
        },
        {
          "internalType": "uint256",
          "name": "_snapshotIndex",
          "type": "uint256"
        }
      ],
      "name": "getPriceAtSnapshot",
      "outputs": [
        {
          "components": [
            {
              "internalType": "uint256",
              "name": "d",
              "type": "uint256"
            }
          ],
          "internalType": "struct Decimal.decimal",
          "name": "",
          "type": "tuple"
        }
      ],
      "stateMutability": "view",
      "type": "function"
    },
    {
      "inputs": [
        {
          "internalType": "uint256",
          "name": "order_id",
          "type": "uint256"
        }
      ],
      "name": "getTrailingData",
      "outputs": [
        {
          "components": [
            {
              "components": [
                {
                  "internalType": "uint256",
                  "name": "d",
                  "type": "uint256"
                }
              ],
              "internalType": "struct Decimal.decimal",
              "name": "witnessPrice",
              "type": "tuple"
            },
            {
              "components": [
                {
                  "internalType": "uint256",
                  "name": "d",
                  "type": "uint256"
                }
              ],
              "internalType": "struct Decimal.decimal",
              "name": "trail",
              "type": "tuple"
            },
            {
              "components": [
                {
                  "internalType": "uint256",
                  "name": "d",
                  "type": "uint256"
                }
              ],
              "internalType": "struct Decimal.decimal",
              "name": "trailPct",
              "type": "tuple"
            },
            {
              "components": [
                {
                  "internalType": "uint256",
                  "name": "d",
                  "type": "uint256"
                }
              ],
              "internalType": "struct Decimal.decimal",
              "name": "gap",
              "type": "tuple"
            },
            {
              "components": [
                {
                  "internalType": "uint256",
                  "name": "d",
                  "type": "uint256"
                }
              ],
              "internalType": "struct Decimal.decimal",
              "name": "gapPct",
              "type": "tuple"
            },
            {
              "internalType": "bool",
              "name": "usePct",
              "type": "bool"
            },
            {
              "internalType": "uint256",
              "name": "snapshotCreated",
              "type": "uint256"
            },
            {
              "internalType": "uint256",
              "name": "snapshotLastUpdated",
              "type": "uint256"
            },
            {
              "internalType": "address",
              "name": "lastUpdatedKeeper",
              "type": "address"
            }
          ],
          "internalType": "struct LimitOrderBook.TrailingOrderData",
          "name": "",
          "type": "tuple"
        }
      ],
      "stateMutability": "view",
      "type": "function"
    },
    {
      "inputs": [
        {
          "internalType": "uint256",
          "name": "order_id",
          "type": "uint256"
        },
        {
          "components": [
            {
              "internalType": "uint256",
              "name": "d",
              "type": "uint256"
            }
          ],
          "internalType": "struct Decimal.decimal",
          "name": "_stopPrice",
          "type": "tuple"
        },
        {
          "components": [
            {
              "internalType": "uint256",
              "name": "d",
              "type": "uint256"
            }
          ],
          "internalType": "struct Decimal.decimal",
          "name": "_limitPrice",
          "type": "tuple"
        },
        {
          "components": [
            {
              "internalType": "int256",
              "name": "d",
              "type": "int256"
            }
          ],
          "internalType": "struct SignedDecimal.signedDecimal",
          "name": "_orderSize",
          "type": "tuple"
        },
        {
          "components": [
            {
              "internalType": "uint256",
              "name": "d",
              "type": "uint256"
            }
          ],
          "internalType": "struct Decimal.decimal",
          "name": "_collateral",
          "type": "tuple"
        },
        {
          "components": [
            {
              "internalType": "uint256",
              "name": "d",
              "type": "uint256"
            }
          ],
          "internalType": "struct Decimal.decimal",
          "name": "_leverage",
          "type": "tuple"
        },
        {
          "components": [
            {
              "internalType": "uint256",
              "name": "d",
              "type": "uint256"
            }
          ],
          "internalType": "struct Decimal.decimal",
          "name": "_slippage",
          "type": "tuple"
        },
        {
          "components": [
            {
              "internalType": "uint256",
              "name": "d",
              "type": "uint256"
            }
          ],
          "internalType": "struct Decimal.decimal",
          "name": "_tipFee",
          "type": "tuple"
        },
        {
          "internalType": "bool",
          "name": "_reduceOnly",
          "type": "bool"
        },
        {
          "internalType": "uint256",
          "name": "_expiry",
          "type": "uint256"
        }
      ],
      "name": "modifyOrder",
      "outputs": [],
      "stateMutability": "nonpayable",
      "type": "function"
    },
    {
      "inputs": [
        {
          "internalType": "uint256",
          "name": "",
          "type": "uint256"
        }
      ],
      "name": "orders",
      "outputs": [
        {
          "internalType": "address",
          "name": "asset",
          "type": "address"
        },
        {
          "internalType": "address",
          "name": "trader",
          "type": "address"
        },
        {
          "internalType": "enum LimitOrderBook.OrderType",
          "name": "orderType",
          "type": "uint8"
        },
        {
          "internalType": "bool",
          "name": "reduceOnly",
          "type": "bool"
        },
        {
          "internalType": "bool",
          "name": "stillValid",
          "type": "bool"
        },
        {
          "internalType": "uint256",
          "name": "expiry",
          "type": "uint256"
        },
        {
          "components": [
            {
              "internalType": "uint256",
              "name": "d",
              "type": "uint256"
            }
          ],
          "internalType": "struct Decimal.decimal",
          "name": "stopPrice",
          "type": "tuple"
        },
        {
          "components": [
            {
              "internalType": "uint256",
              "name": "d",
              "type": "uint256"
            }
          ],
          "internalType": "struct Decimal.decimal",
          "name": "limitPrice",
          "type": "tuple"
        },
        {
          "components": [
            {
              "internalType": "int256",
              "name": "d",
              "type": "int256"
            }
          ],
          "internalType": "struct SignedDecimal.signedDecimal",
          "name": "orderSize",
          "type": "tuple"
        },
        {
          "components": [
            {
              "internalType": "uint256",
              "name": "d",
              "type": "uint256"
            }
          ],
          "internalType": "struct Decimal.decimal",
          "name": "collateral",
          "type": "tuple"
        },
        {
          "components": [
            {
              "internalType": "uint256",
              "name": "d",
              "type": "uint256"
            }
          ],
          "internalType": "struct Decimal.decimal",
          "name": "leverage",
          "type": "tuple"
        },
        {
          "components": [
            {
              "internalType": "uint256",
              "name": "d",
              "type": "uint256"
            }
          ],
          "internalType": "struct Decimal.decimal",
          "name": "slippage",
          "type": "tuple"
        },
        {
          "components": [
            {
              "internalType": "uint256",
              "name": "d",
              "type": "uint256"
            }
          ],
          "internalType": "struct Decimal.decimal",
          "name": "tipFee",
          "type": "tuple"
        }
      ],
      "stateMutability": "view",
      "type": "function"
    },
    {
      "inputs": [],
      "name": "owner",
      "outputs": [
        {
          "internalType": "address",
          "name": "",
          "type": "address"
        }
      ],
      "stateMutability": "view",
      "type": "function"
    },
    {
      "inputs": [
        {
          "internalType": "uint256",
          "name": "order_id",
          "type": "uint256"
        },
        {
          "internalType": "uint256",
          "name": "_reserveIndex",
          "type": "uint256"
        }
      ],
      "name": "pokeContract",
      "outputs": [],
      "stateMutability": "nonpayable",
      "type": "function"
    },
    {
      "inputs": [],
      "name": "renounceOwnership",
      "outputs": [],
      "stateMutability": "nonpayable",
      "type": "function"
    },
    {
      "inputs": [
        {
          "internalType": "address",
          "name": "_addr",
          "type": "address"
        }
      ],
      "name": "setFactory",
      "outputs": [],
      "stateMutability": "nonpayable",
      "type": "function"
    },
    {
      "inputs": [
        {
          "internalType": "address",
          "name": "newOwner",
          "type": "address"
        }
      ],
      "name": "transferOwnership",
      "outputs": [],
      "stateMutability": "nonpayable",
      "type": "function"
    }
  ],
  "bytecode": "0x60806040523480156200001157600080fd5b506000620000276001600160e01b036200007716565b600080546001600160a01b0319166001600160a01b0383169081178255604051929350917f8be0079c531659141344cd1fd0a4f28419497f9722a3daafe3b4186f6b6457e0908290a3506200007b565b3390565b614339806200008b6000396000f3fe608060405234801561001057600080fd5b506004361061018d5760003560e01c80638158900b116100e3578063b96bb8061161008c578063f0d840d711610066578063f0d840d71461035f578063f2fde38b1461037f578063fe0d94c1146103925761018d565b8063b96bb8061461031e578063c45a015514610331578063e36a2dc0146103395761018d565b8063a85c38ef116100bd578063a85c38ef146102cc578063b099b0dd146102f8578063b50c4fb91461030b5761018d565b80638158900b1461029c57806386f89642146102a45780638da5cb5b146102b75761018d565b806353061026116101455780636bef74931161011f5780636bef749314610261578063715018a6146102815780637b5fe1b1146102895761018d565b8063530610261461020e5780635ad864471461022e5780635bb478081461024e5761018d565b80632736f620116101765780632736f620146101ba57806334c19830146101cd5780634c5789e3146101e05761018d565b8063032e4f6e1461019257806311a00327146101a7575b600080fd5b6101a56101a036600461387b565b6103a5565b005b6101a56101b53660046139e0565b6105a1565b6101a56101c836600461387b565b61069b565b6101a56101db366004613a40565b6107e2565b6101f36101ee3660046139e0565b610a32565b60405161020596959493929190613ad4565b60405180910390f35b61022161021c3660046139e0565b610bda565b60405161020591906140e7565b61024161023c3660046137bc565b610d40565b60405161020591906142ad565b6101a561025c366004613784565b6111a0565b61027461026f366004613943565b611201565b6040516102059190614272565b6101a56112ca565b61024161029736600461387b565b611353565b6102416117f5565b6101a56102b23660046137bc565b6117fb565b6102bf611a1e565b6040516102059190613ac0565b6102df6102da3660046139e0565b611a2d565b6040516102059d9c9b9a99989796959493929190613b16565b6101a5610306366004613a10565b611afb565b61024161031936600461387b565b611d02565b61024161032c3660046137bc565b611fdc565b6102bf612317565b61034c6103473660046139e0565b612326565b604051610205979695949392919061427c565b61037261036d3660046139e0565b612512565b60405161020591906141e6565b6101a561038d366004613784565b6125cc565b6101a56103a03660046139e0565b61268c565b8015806103b157508042105b6103d65760405162461bcd60e51b81526004016103cd90613d29565b60405180910390fd5b60345460405133917fcb0c37c16aa3b0bbb7a817932094d8a20a00996d426a813f067039f0ef87ab079161040a91906142ad565b60405180910390a2604080516101a0810182526001600160a01b038b16815233602082015260349181016002815260200184151581526020016001151581526020018381526020018a8152602001610460612b19565b815260208082018b905260408083018b9052606083018a90526080830189905260a09092018790528354600180820186556000958652948290208451600a9092020180546001600160a01b03199081166001600160a01b039384161782559285015195810180549093169590911694909417808255918301519293929160ff60a01b1916600160a01b8360058111156104f557fe5b0217905550606082015160018201805460808501511515600160b01b0260ff60b01b19931515600160a81b0260ff60a81b19909216919091179290921691909117905560a0820151600282015560c082015151600382015560e08201515160048201556101008201515160058201556101208201515160068201556101408201515160078201556101608201515160088201556101809091015151600990910155505050505050505050565b80603481815481106105af57fe5b60009182526020909120600a90910201600101546001600160a01b031633146105ea5760405162461bcd60e51b81526004016103cd90613c27565b6034548290811061060d5760405162461bcd60e51b81526004016103cd90613f2d565b6034838154811061061a57fe5b600091825260208220600a9091020180546001600160a01b03191681556001810180547fffffffffffffffffff00000000000000000000000000000000000000000000001690556002810182905560038101829055600481018290556005810182905560068101829055600781018290556008810182905560090155505050565b8015806106a757508042105b6106c35760405162461bcd60e51b81526004016103cd90613d29565b60345460405133917fcb0c37c16aa3b0bbb7a817932094d8a20a00996d426a813f067039f0ef87ab07916106f791906142ad565b60405180910390a2604080516101a0810182526001600160a01b038b16815233602082015260349181016001815284151560208201526001604082015260608101849052608001610746612b19565b815260208082018c905260408083018c9052606083018b9052608083018a905260a0830189905260c09092018790528354600180820186556000958652948290208451600a9092020180546001600160a01b03199081166001600160a01b039384161782559285015195810180549093169590911694909417808255918301519293929160ff60a01b1916600160a01b8360058111156104f557fe5b6004603483815481106107f157fe5b90600052602060002090600a020160010160149054906101000a900460ff16600581111561081b57fe5b148061085d575060056034838154811061083157fe5b90600052602060002090600a020160010160149054906101000a900460ff16600581111561085b57fe5b145b6108795760405162461bcd60e51b81526004016103cd90613dce565b60008281526035602052604090206006015481116108a95760405162461bcd60e51b81526004016103cd90613bf0565b6000828152603560205260409020600701548110806108df57506000828152603560205260409020600701546103844291909103115b6108fb5760405162461bcd60e51b81526004016103cd9061408a565b6000828152603560205260408120426007909101556034805461094891908590811061092357fe5b60009182526020918290206040805193840190526005600a9092020101548152612b34565b610953576001610956565b60005b90506109606135f8565b6109906034858154811061097057fe5b60009182526020909120600a90910201546001600160a01b031684611201565b90508161099f576000196109a2565b60015b600085815260356020908152604091829020825191820190925290548152600f9190910b906109d7908363ffffffff612b5216565b60000b146109f75760405162461bcd60e51b81526004016103cd90613ff6565b6000848152603560205260409020815181556007810184905560080180546001600160a01b03191633179055610a2c84612b83565b50505050565b600080600080600080866034805490508110610a605760405162461bcd60e51b81526004016103cd90613f2d565b610a6861360b565b60348981548110610a7557fe5b6000918252602091829020604080516101a081018252600a90930290910180546001600160a01b03908116845260018201549081169484019490945291929083019060ff600160a01b909104166005811115610acd57fe5b6005811115610ad857fe5b8152600182015460ff600160a81b820481161515602080850191909152600160b01b90920416151560408084019190915260028401546060808501919091528151808401835260038601548152608080860191909152825180850184526004870154815260a080870191909152835180860185526005880154815260c0870152835180860185526006880154815260e087015283518086018552600788015481526101008701528351808601855260088801548152610120870152835180860185526009909701548752610140909501959095528551928601519186015190860151948601519590930151919e909d50919b5091995091975095509350505050565b610be261360b565b60345482908110610c055760405162461bcd60e51b81526004016103cd90613f2d565b60348381548110610c1257fe5b6000918252602091829020604080516101a081018252600a90930290910180546001600160a01b03908116845260018201549081169484019490945291929083019060ff600160a01b909104166005811115610c6a57fe5b6005811115610c7557fe5b8152600182015460ff600160a81b820481161515602080850191909152600160b01b9092041615156040808401919091526002840154606084015280518083018252600385015481526080840152805180830182526004850154815260a0840152805180830182526005850154815260c0840152805180830182526006850154815260e0840152805180830182526007850154815261010084015280518083018252600885015481526101208401528051918201905260099092015482526101400152915050919050565b6000811580610d4e57508142105b610d6a5760405162461bcd60e51b81526004016103cd90613d29565b60345460405133917fcb0c37c16aa3b0bbb7a817932094d8a20a00996d426a813f067039f0ef87ab0791610d9e91906142ad565b60405180910390a2600060018c6001600160a01b0316630d451c8f6040518163ffffffff1660e01b815260040160206040518083038186803b158015610de357600080fd5b505afa158015610df7573d6000803e3d6000fd5b505050506040513d601f19601f82011682018060405250810190610e1b91906139f8565b039050610e266135f8565b8c6001600160a01b031663dc76fabc6040518163ffffffff1660e01b815260040160206040518083038186803b158015610e5f57600080fd5b505afa158015610e73573d6000803e3d6000fd5b505050506040513d601f19601f82011682018060405250810190610e9791906139c5565b90506040518061012001604052808281526020018d8152602001610eb9612b19565b81526020018c8152602001610ecc612b19565b815260200160001515815260200183815260200183815260200160006001600160a01b031681525060356000603480549050815260200190815260200160002060008201518160000160008201518160000155505060208201518160010160008201518160000155505060408201518160020160008201518160000155505060608201518160030160008201518160000155505060808201518160040160008201518160000155505060a08201518160050160006101000a81548160ff02191690831515021790555060c0820151816006015560e082015181600701556101008201518160080160006101000a8154816001600160a01b0302191690836001600160a01b031602179055509050506034604051806101a001604052808f6001600160a01b03168152602001336001600160a01b0316815260200160058081111561101257fe5b815287151560208201526001604082015260608101879052608001611035612b19565b8152602001611042612b19565b815260208082018e905260408083018e9052606083018d9052608083018c905260a09092018a90528354600180820186556000958652948290208451600a9092020180546001600160a01b03199081166001600160a01b039384161782559285015195810180549093169590911694909417808255918301519293929160ff60a01b1916600160a01b8360058111156110d757fe5b0217905550606082015160018201805460808501511515600160b01b0260ff60b01b19931515600160a81b0260ff60a81b19909216919091179290921691909117905560a0820151600282015560c082015151600382015560e082015151600482015561010082015151600582015561012082015151600682015561014082015151600782015561016082015151600882015561018090910151516009909101556034546111889060001901612b83565b5050603454600019019b9a5050505050505050505050565b6111a8612f1e565b6001600160a01b03166111b9611a1e565b6001600160a01b0316146111df5760405162461bcd60e51b81526004016103cd90613fc1565b603680546001600160a01b0319166001600160a01b0392909216919091179055565b6112096135f8565b61121161369c565b6040517f21e009850000000000000000000000000000000000000000000000000000000081526001600160a01b038516906321e00985906112569086906004016142ad565b60806040518083038186803b15801561126e57600080fd5b505afa158015611282573d6000803e3d6000fd5b505050506040513d601f19601f820116820180604052508101906112a6919061396e565b602081015181519192506112c0919063ffffffff612f2216565b9150505b92915050565b6112d2612f1e565b6001600160a01b03166112e3611a1e565b6001600160a01b0316146113095760405162461bcd60e51b81526004016103cd90613fc1565b600080546040516001600160a01b03909116907f8be0079c531659141344cd1fd0a4f28419497f9722a3daafe3b4186f6b6457e0908390a3600080546001600160a01b0319169055565b600081158061136157508142105b61137d5760405162461bcd60e51b81526004016103cd90613d29565b611395611388612f4e565b8a9063ffffffff612b5216565b60000b600019146113b85760405162461bcd60e51b81526004016103cd90613d60565b60345460405133917fcb0c37c16aa3b0bbb7a817932094d8a20a00996d426a813f067039f0ef87ab07916113ec91906142ad565b60405180910390a2600060018b6001600160a01b0316630d451c8f6040518163ffffffff1660e01b815260040160206040518083038186803b15801561143157600080fd5b505afa158015611445573d6000803e3d6000fd5b505050506040513d601f19601f8201168201806040525081019061146991906139f8565b0390506114746135f8565b8b6001600160a01b031663dc76fabc6040518163ffffffff1660e01b815260040160206040518083038186803b1580156114ad57600080fd5b505afa1580156114c1573d6000803e3d6000fd5b505050506040513d601f19601f820116820180604052508101906114e591906139c5565b9050604051806101200160405280828152602001611501612b19565b81526020018c8152602001611514612b19565b8152602001611521612b19565b815260200160011515815260200183815260200183815260200160006001600160a01b031681525060356000603480549050815260200190815260200160002060008201518160000160008201518160000155505060208201518160010160008201518160000155505060408201518160020160008201518160000155505060608201518160030160008201518160000155505060808201518160040160008201518160000155505060a08201518160050160006101000a81548160ff02191690831515021790555060c0820151816006015560e082015181600701556101008201518160080160006101000a8154816001600160a01b0302191690836001600160a01b031602179055509050506034604051806101a001604052808e6001600160a01b03168152602001336001600160a01b031681526020016004600581111561166857fe5b81528715156020820152600160408201526060810187905260800161168b612b19565b8152602001611698612b19565b815260208082018e905260408083018e9052606083018d9052608083018c905260a09092018a90528354600180820186556000958652948290208451600a9092020180546001600160a01b03199081166001600160a01b039384161782559285015195810180549093169590911694909417808255918301519293929160ff60a01b1916600160a01b83600581111561172d57fe5b0217905550606082015160018201805460808501511515600160b01b0260ff60b01b19931515600160a81b0260ff60a81b19909216919091179290921691909117905560a0820151600282015560c082015151600382015560e082015151600482015561010082015151600582015561012082015151600682015561014082015151600782015561016082015151600882015561018090910151516009909101556034546117de9060001901612b83565b5050603454600019019a9950505050505050505050565b60345490565b80158061180757508042105b6118235760405162461bcd60e51b81526004016103cd90613d29565b60345460405133917fcb0c37c16aa3b0bbb7a817932094d8a20a00996d426a813f067039f0ef87ab079161185791906142ad565b60405180910390a2604080516101a0810182526001600160a01b038c8116825233602083019081526003938301938452851515606084015260016080840181905260a0840186905260c084018e905260e084018d905261010084018c905261012084018b905261014084018a9052610160840189905261018084018890526034805491820181556000528351600a9091027f46bddb1178e94d7f2892ff5f366840eb658911794f2c3a44c450aa2c505186c1810180549285166001600160a01b031993841617815592517f46bddb1178e94d7f2892ff5f366840eb658911794f2c3a44c450aa2c505186c2909101805491909416911617808355935192939092919060ff60a01b1916600160a01b83600581111561197157fe5b0217905550606082015160018201805460808501511515600160b01b0260ff60b01b19931515600160a81b0260ff60a81b19909216919091179290921691909117905560a0820151600282015560c082015151600382015560e0820151516004820155610100820151516005820155610120820151516006820155610140820151516007820155610160820151516008820155610180909101515160099091015550505050505050505050565b6000546001600160a01b031690565b60348181548110611a3a57fe5b6000918252602091829020600a9091020180546001820154600283015460408051808701825260038601548152815180880183526004870154815282518089018452600588015481528351808a018552600689015481528451808b01865260078a015481528551808c01875260088b0154815286519b8c019096526009909901548a526001600160a01b039788169a509686169860ff600160a01b8804811699600160a81b8904821699600160b01b9099049091169794959394929390918d565b8960348181548110611b0957fe5b60009182526020909120600a90910201600101546001600160a01b03163314611b445760405162461bcd60e51b81526004016103cd90613c27565b6034548b908110611b675760405162461bcd60e51b81526004016103cd90613f2d565b8a60348d81548110611b7557fe5b90600052602060002090600a0201600301600082015181600001559050508960348d81548110611ba157fe5b90600052602060002090600a0201600401600082015181600001559050508860348d81548110611bcd57fe5b90600052602060002090600a0201600501600082015181600001559050508760348d81548110611bf957fe5b90600052602060002090600a0201600601600082015181600001559050508660348d81548110611c2557fe5b90600052602060002090600a0201600701600082015181600001559050508560348d81548110611c5157fe5b90600052602060002090600a0201600801600082015181600001559050508460348d81548110611c7d57fe5b90600052602060002090600a0201600901600082015181600001559050508360348d81548110611ca957fe5b90600052602060002090600a020160010160156101000a81548160ff0219169083151502179055508260348d81548110611cdf57fe5b90600052602060002090600a020160020181905550505050505050505050505050565b6000811580611d1057508142105b611d2c5760405162461bcd60e51b81526004016103cd90613d29565b60345460405133917fcb0c37c16aa3b0bbb7a817932094d8a20a00996d426a813f067039f0ef87ab0791611d6091906142ad565b60405180910390a2600060018b6001600160a01b0316630d451c8f6040518163ffffffff1660e01b815260040160206040518083038186803b158015611da557600080fd5b505afa158015611db9573d6000803e3d6000fd5b505050506040513d601f19601f82011682018060405250810190611ddd91906139f8565b039050611de86135f8565b8b6001600160a01b031663dc76fabc6040518163ffffffff1660e01b815260040160206040518083038186803b158015611e2157600080fd5b505afa158015611e35573d6000803e3d6000fd5b505050506040513d601f19601f82011682018060405250810190611e5991906139c5565b90506040518061012001604052808281526020018c8152602001611e7b612b19565b8152602001611e88612b19565b8152602001611e95612b19565b815260200160001515815260200183815260200183815260200160006001600160a01b031681525060356000603480549050815260200190815260200160002060008201518160000160008201518160000155505060208201518160010160008201518160000155505060408201518160020160008201518160000155505060608201518160030160008201518160000155505060808201518160040160008201518160000155505060a08201518160050160006101000a81548160ff02191690831515021790555060c0820151816006015560e082015181600701556101008201518160080160006101000a8154816001600160a01b0302191690836001600160a01b031602179055509050506034604051806101a001604052808e6001600160a01b03168152602001336001600160a01b031681526020016004600581111561166857fe5b6000811580611fea57508142105b6120065760405162461bcd60e51b81526004016103cd90613d29565b61201e612011612f4e565b8b9063ffffffff612b5216565b60000b600019146120415760405162461bcd60e51b81526004016103cd90613d60565b61204c611388612f4e565b60000b6000191461206f5760405162461bcd60e51b81526004016103cd90613ef6565b60345460405133917fcb0c37c16aa3b0bbb7a817932094d8a20a00996d426a813f067039f0ef87ab07916120a391906142ad565b60405180910390a2600060018c6001600160a01b0316630d451c8f6040518163ffffffff1660e01b815260040160206040518083038186803b1580156120e857600080fd5b505afa1580156120fc573d6000803e3d6000fd5b505050506040513d601f19601f8201168201806040525081019061212091906139f8565b03905061212b6135f8565b8c6001600160a01b031663dc76fabc6040518163ffffffff1660e01b815260040160206040518083038186803b15801561216457600080fd5b505afa158015612178573d6000803e3d6000fd5b505050506040513d601f19601f8201168201806040525081019061219c91906139c5565b90506040518061012001604052808281526020016121b8612b19565b81526020018d81526020016121cb612b19565b81526020018c815260200160011515815260200183815260200183815260200160006001600160a01b031681525060356000603480549050815260200190815260200160002060008201518160000160008201518160000155505060208201518160010160008201518160000155505060408201518160020160008201518160000155505060608201518160030160008201518160000155505060808201518160040160008201518160000155505060a08201518160050160006101000a81548160ff02191690831515021790555060c0820151816006015560e082015181600701556101008201518160080160006101000a8154816001600160a01b0302191690836001600160a01b031602179055509050506034604051806101a001604052808f6001600160a01b03168152602001336001600160a01b0316815260200160058081111561101257fe5b6036546001600160a01b031681565b61232e6135f8565b6123366135f8565b61233e6135f8565b6123466135f8565b61234e6135f8565b6123566135f8565b61235e6135f8565b603454889081106123815760405162461bcd60e51b81526004016103cd90613f2d565b61238961360b565b60348a8154811061239657fe5b6000918252602091829020604080516101a081018252600a90930290910180546001600160a01b03908116845260018201549081169484019490945291929083019060ff600160a01b9091041660058111156123ee57fe5b60058111156123f957fe5b8152600182015460ff600160a81b820481161515602080850191909152600160b01b9092041615156040808401919091526002840154606084015280518083018252600385015481526080840152805180830182526004850154815260a0840152805180830182526005850154815260c080850191909152815180840183526006860154815260e08086019190915282518085018452600787015481526101008087019190915283518086018552600888015481526101208088019190915284519586019094526009909601548452610140948501939093528501519185015193850151908501519285015161016086015161018090960151929e50939c509a5090985090965090945092505050919395979092949650565b61251a6136d0565b50600081815260356020908152604091829020825161014081018452815461012082019081528152835180840185526001830154815281840152835180840185526002830154815281850152835180840185526003830154815260608201528351928301909352600481015482526080830191909152600581015460ff16151560a0830152600681015460c0830152600781015460e0830152600801546001600160a01b03166101008201525b919050565b6125d4612f1e565b6001600160a01b03166125e5611a1e565b6001600160a01b03161461260b5760405162461bcd60e51b81526004016103cd90613fc1565b6001600160a01b0381166126315760405162461bcd60e51b81526004016103cd90613c5e565b600080546040516001600160a01b03808516939216917f8be0079c531659141344cd1fd0a4f28419497f9722a3daafe3b4186f6b6457e091a3600080546001600160a01b0319166001600160a01b0392909216919091179055565b603454819081106126af5760405162461bcd60e51b81526004016103cd90613f2d565b603482815481106126bc57fe5b90600052602060002090600a020160010160169054906101000a900460ff166126f75760405162461bcd60e51b81526004016103cd90613cbb565b603654603480546000926001600160a01b03169163a0b73881918690811061271b57fe5b600091825260209091206001600a9092020101546040517fffffffff0000000000000000000000000000000000000000000000000000000060e084901b168152612771916001600160a01b031690600401613ac0565b60206040518083038186803b15801561278957600080fd5b505afa15801561279d573d6000803e3d6000fd5b505050506040513d601f19601f820116820180604052508101906127c191906137a0565b90506000816001600160a01b03166394f61134856040518263ffffffff1660e01b81526004016127f191906142ad565b602060405180830381600087803b15801561280b57600080fd5b505af115801561281f573d6000803e3d6000fd5b505050506040513d601f19601f820116820180604052508101906128439190613927565b90508015610a2c5760046034858154811061285a57fe5b90600052602060002090600a020160010160149054906101000a900460ff16600581111561288457fe5b14806128c6575060056034858154811061289a57fe5b90600052602060002090600a020160010160149054906101000a900460ff1660058111156128c457fe5b145b80156128eb57506000848152603560205260409020600801546001600160a01b031615155b156129a15761294d73ddafbb505ad214d7b80b1f830fccc89b60fb7a838333612948600260348a8154811061291c57fe5b60009182526020918290206040805193840190526009600a90920201015481529063ffffffff612f7216565b612f94565b6000848152603560205260409020600801546034805461299c9273ddafbb505ad214d7b80b1f830fccc89b60fb7a839286926001600160a01b0390921691612948916002918b90811061291c57fe5b6129ed565b6129ed73ddafbb505ad214d7b80b1f830fccc89b60fb7a838333603488815481106129c857fe5b60009182526020918290206040805193840190526009600a9092020101548152612f94565b6000603485815481106129fc57fe5b90600052602060002090600a020160010160166101000a81548160ff02191690831515021790555060348481548110612a3157fe5b600091825260208220600a9091020180546001600160a01b03191681556001810180547fffffffffffffffffff000000000000000000000000000000000000000000000016905560028101829055600381018290556004810182905560058101829055600681018290556007810182905560088101829055600901556034805485908110612abb57fe5b600091825260209091206001600a9092020101546040516001600160a01b03909116907f6ac084fe52cc25f2f64ae4aea087b0bf8e92c0a900b2425c1edda1f36c8cab0d90612b0b9087906142ad565b60405180910390a250505050565b612b216135f8565b5060408051602081019091526000815290565b60008082600001511215612b4a575060016125c7565b506000919050565b805182516000911015612b67575060016112c4565b815183511015612b7a57506000196112c4565b50600092915050565b612b8b6135f8565b506000818152603560209081526040808320815192830190915254815260348054919291612bbe91908590811061092357fe5b612bc9576001612bcc565b60005b60008481526035602052604090206005015490915060ff1615612d8657612bf16135f8565b81612c355760008481526035602090815260409182902082519182019092526002909101548152612c3090612c24612f4e565b9063ffffffff61311116565b612c6f565b60008481526035602090815260409182902082519182019092526002909101548152612c6f90612c63612f4e565b9063ffffffff61313416565b9050612c796135f8565b82612cb15760008581526035602090815260409182902082519182019092526004909101548152612cac90612c24612f4e565b612cdf565b60008581526035602090815260409182902082519182019092526004909101548152612cdf90612c63612f4e565b9050612cf1848363ffffffff61315716565b60348681548110612cfe57fe5b90600052602060002090600a020160030160008201518160000155905050612d598160348781548110612d2d57fe5b60009182526020918290206040805193840190526003600a90920201015481529063ffffffff61315716565b60348681548110612d6657fe5b6000918252602090912091516004600a909202909201015550612f199050565b80612dc35760008381526035602090815260409182902082519182019092526001909101548152612dbe90839063ffffffff61311116565b612df6565b60008381526035602090815260409182902082519182019092526001909101548152612df690839063ffffffff61313416565b60348481548110612e0357fe5b6000918252602090912091516003600a909202909201015580612e8c57612e876035600085815260200190815260200160002060030160405180602001604052908160008201548152505060348581548110612e5b57fe5b60009182526020918290206040805193840190526003600a90920201015481529063ffffffff61311116565b612ef3565b612ef36035600085815260200190815260200160002060030160405180602001604052908160008201548152505060348581548110612ec757fe5b60009182526020918290206040805193840190526003600a90920201015481529063ffffffff61313416565b60348481548110612f0057fe5b6000918252602090912091516004600a90920290920101555b505050565b3390565b612f2a6135f8565b612f326135f8565b82518451612f459163ffffffff61317a16565b81529392505050565b612f566135f8565b6040518060200160405280612f6b601261318f565b9052905090565b612f7a6135f8565b612f826135f8565b8351612f45908463ffffffff61319816565b612f9d846131ca565b612fa56135f8565b612faf8584613217565b90506000612fbd86846132a4565b905060006060876001600160a01b03166323b872dd60e01b888886604051602401612fea93929190613bcc565b604080517fffffffffffffffffffffffffffffffffffffffffffffffffffffffffffffffe08184030181529181526020820180517bffffffffffffffffffffffffffffffffffffffffffffffffffffffff167fffffffff000000000000000000000000000000000000000000000000000000009094169390931790925290516130739190613a87565b6000604051808303816000865af19150503d80600081146130b0576040519150601f19603f3d011682016040523d82523d6000602084013e6130b5565b606091505b50915091508180156130df5750805115806130df5750808060200190518101906130df9190613927565b6130fb5760405162461bcd60e51b81526004016103cd90613e99565b6131078887858761331a565b5050505050505050565b6131196135f8565b6131216135f8565b82518451612f459163ffffffff61336d16565b61313c6135f8565b6131446135f8565b82518451612f459163ffffffff61339516565b61315f6135f8565b6131676135f8565b82518451612f459163ffffffff6133ba16565b6000613188838360126133c8565b9392505050565b60ff16600a0a90565b60008082116131b95760405162461bcd60e51b81526004016103cd90613e05565b8183816131c257fe5b049392505050565b60006131d5826133ef565b6001600160a01b0383166000908152600160205260409020549091508114613213576001600160a01b03821660009081526001602052604090208190555b5050565b61321f6135f8565b61318883846001600160a01b03166370a08231856040518263ffffffff1660e01b815260040161324f9190613ac0565b60206040518083038186803b15801561326757600080fd5b505afa15801561327b573d6000803e3d6000fd5b505050506040513d601f19601f8201168201806040525081019061329f91906139f8565b61350a565b6000806132b0846133ef565b9050601281106132ee576132e66132ce82601263ffffffff61336d16565b600a0a6132da8561359c565b9063ffffffff6135a016565b9150506112c4565b6112c061330260128363ffffffff61336d16565b600a0a61330e8561359c565b9063ffffffff61319816565b61334d61333761332a868561350a565b839063ffffffff61313416565b6133418686613217565b9063ffffffff612b5216565b60000b15610a2c5760405162461bcd60e51b81526004016103cd9061402d565b60008282111561338f5760405162461bcd60e51b81526004016103cd90613d97565b50900390565b6000828201838110156131885760405162461bcd60e51b81526004016103cd90613cf2565b6000613188838360126135da565b60006133e78361330e6133da8561318f565b879063ffffffff6135a016565b949350505050565b6001600160a01b038116600090815260016020526040812054806112c45760408051600481526024810182526020810180517bffffffffffffffffffffffffffffffffffffffffffffffffffffffff167f313ce5670000000000000000000000000000000000000000000000000000000017905290516000916060916001600160a01b0387169161347f91613a87565b600060405180830381855afa9150503d80600081146134ba576040519150601f19603f3d011682016040523d82523d6000602084013e6134bf565b606091505b50915091508180156134d15750805115155b6134ed5760405162461bcd60e51b81526004016103cd90613e3c565b8080602001905181019061350191906139f8565b95945050505050565b6135126135f8565b600061351d846133ef565b9050601281106135625760408051602081019091528061355761354784601263ffffffff61336d16565b8690600a0a63ffffffff61319816565b8152509150506112c4565b60408051602081019091528061359261358260128563ffffffff61336d16565b8690600a0a63ffffffff6135a016565b9052949350505050565b5190565b6000826135af575060006112c4565b828202828482816135bc57fe5b04146131885760405162461bcd60e51b81526004016103cd90613f64565b60006133e76135e88361318f565b61330e868663ffffffff6135a016565b6040518060200160405280600081525090565b604080516101a081018252600080825260208201819052909182019081526000602082018190526040820181905260608201526080016136496135f8565b81526020016136566135f8565b81526020016136636135f8565b81526020016136706135f8565b815260200161367d6135f8565b815260200161368a6135f8565b81526020016136976135f8565b905290565b60405180608001604052806136af6135f8565b81526020016136bc6135f8565b815260200160008152602001600081525090565b6040518061012001604052806136e46135f8565b81526020016136f16135f8565b81526020016136fe6135f8565b815260200161370b6135f8565b81526020016137186135f8565b8152600060208201819052604082018190526060820181905260809091015290565b60006020828403121561374b578081fd5b61375560206142b6565b9135825250919050565b600060208284031215613770578081fd5b61377a60206142b6565b9151825250919050565b600060208284031215613795578081fd5b8135613188816142dd565b6000602082840312156137b1578081fd5b8151613188816142dd565b6000806000806000806000806000806101408b8d0312156137db578586fd5b8a356137e6816142dd565b99506137f58c60208d0161373a565b98506138048c60408d0161373a565b97506138138c60608d0161373a565b96506138228c60808d0161373a565b95506138318c60a08d0161373a565b94506138408c60c08d0161373a565b935061384f8c60e08d0161373a565b92506101008b0135613860816142f5565b809250506101208b013590509295989b9194979a5092959850565b60008060008060008060008060006101208a8c031215613899578485fd5b89356138a4816142dd565b98506138b38b60208c0161373a565b97506138c28b60408c0161373a565b96506138d18b60608c0161373a565b95506138e08b60808c0161373a565b94506138ef8b60a08c0161373a565b93506138fe8b60c08c0161373a565b925060e08a013561390e816142f5565b809250506101008a013590509295985092959850929598565b600060208284031215613938578081fd5b8151613188816142f5565b60008060408385031215613955578182fd5b8235613960816142dd565b946020939093013593505050565b60006080828403121561397f578081fd5b61398960806142b6565b613993848461375f565b81526139a2846020850161375f565b602082015260408301516040820152606083015160608201528091505092915050565b6000602082840312156139d6578081fd5b613188838361375f565b6000602082840312156139f1578081fd5b5035919050565b600060208284031215613a09578081fd5b5051919050565b6000806000806000806000806000806101408b8d031215613a2f578384fd5b8a3599506137f58c60208d0161373a565b60008060408385031215613a52578182fd5b50508035926020909101359150565b6001600160a01b03169052565b15159052565b60068110613a7e57fe5b9052565b519052565b60008251815b81811015613aa75760208186018101518583015201613a8d565b81811115613ab55782828501525b509190910192915050565b6001600160a01b0391909116815260200190565b6001600160a01b0387811682528616602082015260c08101613af96040830187613a74565b9315156060820152911515608083015260a0909101529392505050565b6001600160a01b038e811682528d1660208201526101a0810160068d10613b3957fe5b8c60408301528b15156060830152613b54608083018c613a6e565b8960a0830152613b6760c083018a613a82565b613b7460e0830189613a82565b613b82610100830188613a82565b613b90610120830187613a82565b613b9e610140830186613a82565b613bac610160830185613a82565b613bba610180830184613a82565b9e9d5050505050505050505050505050565b6001600160a01b039384168152919092166020820152604081019190915260600190565b60208082526019908201527f4f72646572206861646e2774206265656e206372656174656400000000000000604082015260600190565b60208082526014908201527f4e6f7420796f7572206c696d6974206f72646572000000000000000000000000604082015260600190565b60208082526026908201527f4f776e61626c653a206e6577206f776e657220697320746865207a65726f206160408201527f6464726573730000000000000000000000000000000000000000000000000000606082015260800190565b6020808252600f908201527f4e6f206c6f6e6765722076616c69640000000000000000000000000000000000604082015260600190565b6020808252601b908201527f536166654d6174683a206164646974696f6e206f766572666c6f770000000000604082015260600190565b60208082526019908201527f4576656e742077696c6c2065787069726520696e207061737400000000000000604082015260600190565b60208082526015908201527f496e76616c696420747261696c2070657263656e740000000000000000000000604082015260600190565b6020808252601e908201527f536166654d6174683a207375627472616374696f6e206f766572666c6f770000604082015260600190565b6020808252601d908201527f43616e206f6e6c7920706f6b6520747261696c696e67206f7264657273000000604082015260600190565b6020808252601a908201527f536166654d6174683a206469766973696f6e206279207a65726f000000000000604082015260600190565b60208082526021908201527f446563696d616c45524332303a2067657420646563696d616c73206661696c6560408201527f6400000000000000000000000000000000000000000000000000000000000000606082015260800190565b60208082526021908201527f446563696d616c45524332303a207472616e7366657246726f6d206661696c6560408201527f6400000000000000000000000000000000000000000000000000000000000000606082015260800190565b60208082526013908201527f496e76616c6964206761702070657263656e7400000000000000000000000000604082015260600190565b6020808252600a908201527f496e76616c696420494400000000000000000000000000000000000000000000604082015260600190565b60208082526021908201527f536166654d6174683a206d756c7469706c69636174696f6e206f766572666c6f60408201527f7700000000000000000000000000000000000000000000000000000000000000606082015260800190565b6020808252818101527f4f776e61626c653a2063616c6c6572206973206e6f7420746865206f776e6572604082015260600190565b60208082526018908201527f496e636f727265637420747261696c696e672070726963650000000000000000604082015260600190565b60208082526022908201527f446563696d616c45524332303a2062616c616e636520696e636f6e736973746560408201527f6e74000000000000000000000000000000000000000000000000000000000000606082015260800190565b60208082526024908201527f43616e206f6e6c792062652075706461746564206576657279203135206d696e60408201527f7574657300000000000000000000000000000000000000000000000000000000606082015260800190565b60006101a0820190506140fb828451613a61565b602083015161410d6020840182613a61565b5060408301516141206040840182613a74565b5060608301516141336060840182613a6e565b5060808301516141466080840182613a6e565b5060a083015160a083015260c083015161416360c0840182613a82565b5060e083015161417660e0840182613a82565b506101008084015161418a82850182613a82565b50506101208084015161419f82850182613a82565b5050610140808401516141b482850182613a82565b5050610160808401516141c982850182613a82565b5050610180808401516141de82850182613a82565b505092915050565b6000610120820190508251518252602083015151602083015260408301516142116040840182613a82565b5060608301516142246060840182613a82565b5060808301516142376080840182613a82565b5060a083015161424a60a0840182613a6e565b5060c083015160c083015260e083015160e0830152610100808401516141de82850182613a61565b9051815260200190565b965187529451602087015292516040860152905160608501525160808401525160a08301525160c082015260e00190565b90815260200190565b60405181810167ffffffffffffffff811182821017156142d557600080fd5b604052919050565b6001600160a01b03811681146142f257600080fd5b50565b80151581146142f257600080fdfea26469706673582212204e3ba7b199316097a73b208718bc89c0011ae34d56d7d9d70153ac6bdc66a9ee64736f6c63430006090033",
  "linkReferences": {},
  "deployedLinkReferences": {}
}