{
  "_format": "hh-sol-artifact-1",
  "contractName": "LimitOrderBook",
  "sourceName": "contracts/LimitOrderBook.sol",
  "abi": [
    {
      "anonymous": false,
      "inputs": [
        {
          "indexed": true,
          "internalType": "address",
          "name": "trader",
          "type": "address"
        },
        {
          "indexed": false,
          "internalType": "uint256",
          "name": "order_id",
          "type": "uint256"
        }
      ],
      "name": "OrderChanged",
      "type": "event"
    },
    {
      "anonymous": false,
      "inputs": [
        {
          "indexed": true,
          "internalType": "address",
          "name": "trader",
          "type": "address"
        },
        {
          "indexed": false,
          "internalType": "uint256",
          "name": "order_id",
          "type": "uint256"
        }
      ],
      "name": "OrderCreated",
      "type": "event"
    },
    {
      "anonymous": false,
      "inputs": [
        {
          "indexed": true,
          "internalType": "address",
          "name": "trader",
          "type": "address"
        },
        {
          "indexed": false,
          "internalType": "uint256",
          "name": "order_id",
          "type": "uint256"
        }
      ],
      "name": "OrderFilled",
      "type": "event"
    },
    {
      "anonymous": false,
      "inputs": [
        {
          "indexed": true,
          "internalType": "address",
          "name": "previousOwner",
          "type": "address"
        },
        {
          "indexed": true,
          "internalType": "address",
          "name": "newOwner",
          "type": "address"
        }
      ],
      "name": "OwnershipTransferred",
      "type": "event"
    },
    {
      "anonymous": false,
      "inputs": [
        {
          "indexed": false,
          "internalType": "uint256",
          "name": "order_id",
          "type": "uint256"
        },
        {
          "indexed": false,
          "internalType": "uint256",
          "name": "snapshotIndex",
          "type": "uint256"
        }
      ],
      "name": "TrailingOrderCreated",
      "type": "event"
    },
    {
      "anonymous": false,
      "inputs": [
        {
          "indexed": false,
          "internalType": "uint256",
          "name": "order_id",
          "type": "uint256"
        }
      ],
      "name": "TrailingOrderFilled",
      "type": "event"
    },
    {
      "inputs": [
        {
          "internalType": "address",
          "name": "_asset",
          "type": "address"
        },
        {
          "components": [
            {
              "internalType": "uint256",
              "name": "d",
              "type": "uint256"
            }
          ],
          "internalType": "struct Decimal.decimal",
          "name": "_limitPrice",
          "type": "tuple"
        },
        {
          "components": [
            {
              "internalType": "int256",
              "name": "d",
              "type": "int256"
            }
          ],
          "internalType": "struct SignedDecimal.signedDecimal",
          "name": "_positionSize",
          "type": "tuple"
        },
        {
          "components": [
            {
              "internalType": "uint256",
              "name": "d",
              "type": "uint256"
            }
          ],
          "internalType": "struct Decimal.decimal",
          "name": "_collateral",
          "type": "tuple"
        },
        {
          "components": [
            {
              "internalType": "uint256",
              "name": "d",
              "type": "uint256"
            }
          ],
          "internalType": "struct Decimal.decimal",
          "name": "_leverage",
          "type": "tuple"
        },
        {
          "components": [
            {
              "internalType": "uint256",
              "name": "d",
              "type": "uint256"
            }
          ],
          "internalType": "struct Decimal.decimal",
          "name": "_slippage",
          "type": "tuple"
        },
        {
          "components": [
            {
              "internalType": "uint256",
              "name": "d",
              "type": "uint256"
            }
          ],
          "internalType": "struct Decimal.decimal",
          "name": "_tipFee",
          "type": "tuple"
        },
        {
          "internalType": "bool",
          "name": "_reduceOnly",
          "type": "bool"
        },
        {
          "internalType": "uint256",
          "name": "_expiry",
          "type": "uint256"
        }
      ],
      "name": "addLimitOrder",
      "outputs": [],
      "stateMutability": "nonpayable",
      "type": "function"
    },
    {
      "inputs": [
        {
          "internalType": "address",
          "name": "_asset",
          "type": "address"
        },
        {
          "components": [
            {
              "internalType": "uint256",
              "name": "d",
              "type": "uint256"
            }
          ],
          "internalType": "struct Decimal.decimal",
          "name": "_stopPrice",
          "type": "tuple"
        },
        {
          "components": [
            {
              "internalType": "uint256",
              "name": "d",
              "type": "uint256"
            }
          ],
          "internalType": "struct Decimal.decimal",
          "name": "_limitPrice",
          "type": "tuple"
        },
        {
          "components": [
            {
              "internalType": "int256",
              "name": "d",
              "type": "int256"
            }
          ],
          "internalType": "struct SignedDecimal.signedDecimal",
          "name": "_positionSize",
          "type": "tuple"
        },
        {
          "components": [
            {
              "internalType": "uint256",
              "name": "d",
              "type": "uint256"
            }
          ],
          "internalType": "struct Decimal.decimal",
          "name": "_collateral",
          "type": "tuple"
        },
        {
          "components": [
            {
              "internalType": "uint256",
              "name": "d",
              "type": "uint256"
            }
          ],
          "internalType": "struct Decimal.decimal",
          "name": "_leverage",
          "type": "tuple"
        },
        {
          "components": [
            {
              "internalType": "uint256",
              "name": "d",
              "type": "uint256"
            }
          ],
          "internalType": "struct Decimal.decimal",
          "name": "_slippage",
          "type": "tuple"
        },
        {
          "components": [
            {
              "internalType": "uint256",
              "name": "d",
              "type": "uint256"
            }
          ],
          "internalType": "struct Decimal.decimal",
          "name": "_tipFee",
          "type": "tuple"
        },
        {
          "internalType": "bool",
          "name": "_reduceOnly",
          "type": "bool"
        },
        {
          "internalType": "uint256",
          "name": "_expiry",
          "type": "uint256"
        }
      ],
      "name": "addStopLimitOrder",
      "outputs": [],
      "stateMutability": "nonpayable",
      "type": "function"
    },
    {
      "inputs": [
        {
          "internalType": "address",
          "name": "_asset",
          "type": "address"
        },
        {
          "components": [
            {
              "internalType": "uint256",
              "name": "d",
              "type": "uint256"
            }
          ],
          "internalType": "struct Decimal.decimal",
          "name": "_stopPrice",
          "type": "tuple"
        },
        {
          "components": [
            {
              "internalType": "int256",
              "name": "d",
              "type": "int256"
            }
          ],
          "internalType": "struct SignedDecimal.signedDecimal",
          "name": "_positionSize",
          "type": "tuple"
        },
        {
          "components": [
            {
              "internalType": "uint256",
              "name": "d",
              "type": "uint256"
            }
          ],
          "internalType": "struct Decimal.decimal",
          "name": "_collateral",
          "type": "tuple"
        },
        {
          "components": [
            {
              "internalType": "uint256",
              "name": "d",
              "type": "uint256"
            }
          ],
          "internalType": "struct Decimal.decimal",
          "name": "_leverage",
          "type": "tuple"
        },
        {
          "components": [
            {
              "internalType": "uint256",
              "name": "d",
              "type": "uint256"
            }
          ],
          "internalType": "struct Decimal.decimal",
          "name": "_slippage",
          "type": "tuple"
        },
        {
          "components": [
            {
              "internalType": "uint256",
              "name": "d",
              "type": "uint256"
            }
          ],
          "internalType": "struct Decimal.decimal",
          "name": "_tipFee",
          "type": "tuple"
        },
        {
          "internalType": "bool",
          "name": "_reduceOnly",
          "type": "bool"
        },
        {
          "internalType": "uint256",
          "name": "_expiry",
          "type": "uint256"
        }
      ],
      "name": "addStopOrder",
      "outputs": [],
      "stateMutability": "nonpayable",
      "type": "function"
    },
    {
      "inputs": [
        {
          "internalType": "address",
          "name": "_asset",
          "type": "address"
        },
        {
          "components": [
            {
              "internalType": "uint256",
              "name": "d",
              "type": "uint256"
            }
          ],
          "internalType": "struct Decimal.decimal",
          "name": "_trail",
          "type": "tuple"
        },
        {
          "components": [
            {
              "internalType": "uint256",
              "name": "d",
              "type": "uint256"
            }
          ],
          "internalType": "struct Decimal.decimal",
          "name": "_gap",
          "type": "tuple"
        },
        {
          "components": [
            {
              "internalType": "int256",
              "name": "d",
              "type": "int256"
            }
          ],
          "internalType": "struct SignedDecimal.signedDecimal",
          "name": "_positionSize",
          "type": "tuple"
        },
        {
          "components": [
            {
              "internalType": "uint256",
              "name": "d",
              "type": "uint256"
            }
          ],
          "internalType": "struct Decimal.decimal",
          "name": "_collateral",
          "type": "tuple"
        },
        {
          "components": [
            {
              "internalType": "uint256",
              "name": "d",
              "type": "uint256"
            }
          ],
          "internalType": "struct Decimal.decimal",
          "name": "_leverage",
          "type": "tuple"
        },
        {
          "components": [
            {
              "internalType": "uint256",
              "name": "d",
              "type": "uint256"
            }
          ],
          "internalType": "struct Decimal.decimal",
          "name": "_slippage",
          "type": "tuple"
        },
        {
          "components": [
            {
              "internalType": "uint256",
              "name": "d",
              "type": "uint256"
            }
          ],
          "internalType": "struct Decimal.decimal",
          "name": "_tipFee",
          "type": "tuple"
        },
        {
          "internalType": "bool",
          "name": "_reduceOnly",
          "type": "bool"
        },
        {
          "internalType": "uint256",
          "name": "_expiry",
          "type": "uint256"
        }
      ],
      "name": "addTrailingStopLimitOrderAbs",
      "outputs": [],
      "stateMutability": "nonpayable",
      "type": "function"
    },
    {
      "inputs": [
        {
          "internalType": "address",
          "name": "_asset",
          "type": "address"
        },
        {
          "components": [
            {
              "internalType": "uint256",
              "name": "d",
              "type": "uint256"
            }
          ],
          "internalType": "struct Decimal.decimal",
          "name": "_trailPct",
          "type": "tuple"
        },
        {
          "components": [
            {
              "internalType": "uint256",
              "name": "d",
              "type": "uint256"
            }
          ],
          "internalType": "struct Decimal.decimal",
          "name": "_gapPct",
          "type": "tuple"
        },
        {
          "components": [
            {
              "internalType": "int256",
              "name": "d",
              "type": "int256"
            }
          ],
          "internalType": "struct SignedDecimal.signedDecimal",
          "name": "_positionSize",
          "type": "tuple"
        },
        {
          "components": [
            {
              "internalType": "uint256",
              "name": "d",
              "type": "uint256"
            }
          ],
          "internalType": "struct Decimal.decimal",
          "name": "_collateral",
          "type": "tuple"
        },
        {
          "components": [
            {
              "internalType": "uint256",
              "name": "d",
              "type": "uint256"
            }
          ],
          "internalType": "struct Decimal.decimal",
          "name": "_leverage",
          "type": "tuple"
        },
        {
          "components": [
            {
              "internalType": "uint256",
              "name": "d",
              "type": "uint256"
            }
          ],
          "internalType": "struct Decimal.decimal",
          "name": "_slippage",
          "type": "tuple"
        },
        {
          "components": [
            {
              "internalType": "uint256",
              "name": "d",
              "type": "uint256"
            }
          ],
          "internalType": "struct Decimal.decimal",
          "name": "_tipFee",
          "type": "tuple"
        },
        {
          "internalType": "bool",
          "name": "_reduceOnly",
          "type": "bool"
        },
        {
          "internalType": "uint256",
          "name": "_expiry",
          "type": "uint256"
        }
      ],
      "name": "addTrailingStopLimitOrderPct",
      "outputs": [],
      "stateMutability": "nonpayable",
      "type": "function"
    },
    {
      "inputs": [
        {
          "internalType": "address",
          "name": "_asset",
          "type": "address"
        },
        {
          "components": [
            {
              "internalType": "uint256",
              "name": "d",
              "type": "uint256"
            }
          ],
          "internalType": "struct Decimal.decimal",
          "name": "_trail",
          "type": "tuple"
        },
        {
          "components": [
            {
              "internalType": "int256",
              "name": "d",
              "type": "int256"
            }
          ],
          "internalType": "struct SignedDecimal.signedDecimal",
          "name": "_positionSize",
          "type": "tuple"
        },
        {
          "components": [
            {
              "internalType": "uint256",
              "name": "d",
              "type": "uint256"
            }
          ],
          "internalType": "struct Decimal.decimal",
          "name": "_collateral",
          "type": "tuple"
        },
        {
          "components": [
            {
              "internalType": "uint256",
              "name": "d",
              "type": "uint256"
            }
          ],
          "internalType": "struct Decimal.decimal",
          "name": "_leverage",
          "type": "tuple"
        },
        {
          "components": [
            {
              "internalType": "uint256",
              "name": "d",
              "type": "uint256"
            }
          ],
          "internalType": "struct Decimal.decimal",
          "name": "_tipFee",
          "type": "tuple"
        },
        {
          "internalType": "bool",
          "name": "_reduceOnly",
          "type": "bool"
        },
        {
          "internalType": "uint256",
          "name": "_expiry",
          "type": "uint256"
        }
      ],
      "name": "addTrailingStopMarketOrderAbs",
      "outputs": [],
      "stateMutability": "nonpayable",
      "type": "function"
    },
    {
      "inputs": [
        {
          "internalType": "address",
          "name": "_asset",
          "type": "address"
        },
        {
          "components": [
            {
              "internalType": "uint256",
              "name": "d",
              "type": "uint256"
            }
          ],
          "internalType": "struct Decimal.decimal",
          "name": "_trailPct",
          "type": "tuple"
        },
        {
          "components": [
            {
              "internalType": "int256",
              "name": "d",
              "type": "int256"
            }
          ],
          "internalType": "struct SignedDecimal.signedDecimal",
          "name": "_positionSize",
          "type": "tuple"
        },
        {
          "components": [
            {
              "internalType": "uint256",
              "name": "d",
              "type": "uint256"
            }
          ],
          "internalType": "struct Decimal.decimal",
          "name": "_collateral",
          "type": "tuple"
        },
        {
          "components": [
            {
              "internalType": "uint256",
              "name": "d",
              "type": "uint256"
            }
          ],
          "internalType": "struct Decimal.decimal",
          "name": "_leverage",
          "type": "tuple"
        },
        {
          "components": [
            {
              "internalType": "uint256",
              "name": "d",
              "type": "uint256"
            }
          ],
          "internalType": "struct Decimal.decimal",
          "name": "_tipFee",
          "type": "tuple"
        },
        {
          "internalType": "bool",
          "name": "_reduceOnly",
          "type": "bool"
        },
        {
          "internalType": "uint256",
          "name": "_expiry",
          "type": "uint256"
        }
      ],
      "name": "addTrailingStopMarketOrderPct",
      "outputs": [],
      "stateMutability": "nonpayable",
      "type": "function"
    },
    {
      "inputs": [
        {
          "components": [
            {
              "internalType": "uint256",
              "name": "d",
              "type": "uint256"
            }
          ],
          "internalType": "struct Decimal.decimal",
          "name": "_fee",
          "type": "tuple"
        }
      ],
      "name": "changeMinimumFee",
      "outputs": [],
      "stateMutability": "nonpayable",
      "type": "function"
    },
    {
      "inputs": [
        {
          "internalType": "uint256",
          "name": "order_id",
          "type": "uint256"
        }
      ],
      "name": "deleteOrder",
      "outputs": [],
      "stateMutability": "nonpayable",
      "type": "function"
    },
    {
      "inputs": [
        {
          "internalType": "uint256",
          "name": "order_id",
          "type": "uint256"
        }
      ],
      "name": "execute",
      "outputs": [],
      "stateMutability": "nonpayable",
      "type": "function"
    },
    {
      "inputs": [],
      "name": "factory",
      "outputs": [
        {
          "internalType": "contract SmartWalletFactory",
          "name": "",
          "type": "address"
        }
      ],
      "stateMutability": "view",
      "type": "function"
    },
    {
      "inputs": [
        {
          "internalType": "uint256",
          "name": "order_id",
          "type": "uint256"
        }
      ],
      "name": "getLimitOrder",
      "outputs": [
        {
          "components": [
            {
              "internalType": "address",
              "name": "asset",
              "type": "address"
            },
            {
              "internalType": "address",
              "name": "trader",
              "type": "address"
            },
            {
              "internalType": "enum LimitOrderBook.OrderType",
              "name": "orderType",
              "type": "uint8"
            },
            {
              "internalType": "bool",
              "name": "reduceOnly",
              "type": "bool"
            },
            {
              "internalType": "bool",
              "name": "stillValid",
              "type": "bool"
            },
            {
              "internalType": "uint256",
              "name": "expiry",
              "type": "uint256"
            },
            {
              "components": [
                {
                  "internalType": "uint256",
                  "name": "d",
                  "type": "uint256"
                }
              ],
              "internalType": "struct Decimal.decimal",
              "name": "stopPrice",
              "type": "tuple"
            },
            {
              "components": [
                {
                  "internalType": "uint256",
                  "name": "d",
                  "type": "uint256"
                }
              ],
              "internalType": "struct Decimal.decimal",
              "name": "limitPrice",
              "type": "tuple"
            },
            {
              "components": [
                {
                  "internalType": "int256",
                  "name": "d",
                  "type": "int256"
                }
              ],
              "internalType": "struct SignedDecimal.signedDecimal",
              "name": "orderSize",
              "type": "tuple"
            },
            {
              "components": [
                {
                  "internalType": "uint256",
                  "name": "d",
                  "type": "uint256"
                }
              ],
              "internalType": "struct Decimal.decimal",
              "name": "collateral",
              "type": "tuple"
            },
            {
              "components": [
                {
                  "internalType": "uint256",
                  "name": "d",
                  "type": "uint256"
                }
              ],
              "internalType": "struct Decimal.decimal",
              "name": "leverage",
              "type": "tuple"
            },
            {
              "components": [
                {
                  "internalType": "uint256",
                  "name": "d",
                  "type": "uint256"
                }
              ],
              "internalType": "struct Decimal.decimal",
              "name": "slippage",
              "type": "tuple"
            },
            {
              "components": [
                {
                  "internalType": "uint256",
                  "name": "d",
                  "type": "uint256"
                }
              ],
              "internalType": "struct Decimal.decimal",
              "name": "tipFee",
              "type": "tuple"
            }
          ],
          "internalType": "struct LimitOrderBook.LimitOrder",
          "name": "",
          "type": "tuple"
        }
      ],
      "stateMutability": "view",
      "type": "function"
    },
    {
      "inputs": [
        {
          "internalType": "uint256",
          "name": "id",
          "type": "uint256"
        }
      ],
      "name": "getLimitOrderParams",
      "outputs": [
        {
          "internalType": "address",
          "name": "",
          "type": "address"
        },
        {
          "internalType": "address",
          "name": "",
          "type": "address"
        },
        {
          "internalType": "enum LimitOrderBook.OrderType",
          "name": "",
          "type": "uint8"
        },
        {
          "internalType": "bool",
          "name": "",
          "type": "bool"
        },
        {
          "internalType": "bool",
          "name": "",
          "type": "bool"
        },
        {
          "internalType": "uint256",
          "name": "",
          "type": "uint256"
        }
      ],
      "stateMutability": "view",
      "type": "function"
    },
    {
      "inputs": [
        {
          "internalType": "uint256",
          "name": "id",
          "type": "uint256"
        }
      ],
      "name": "getLimitOrderPrices",
      "outputs": [
        {
          "components": [
            {
              "internalType": "uint256",
              "name": "d",
              "type": "uint256"
            }
          ],
          "internalType": "struct Decimal.decimal",
          "name": "",
          "type": "tuple"
        },
        {
          "components": [
            {
              "internalType": "uint256",
              "name": "d",
              "type": "uint256"
            }
          ],
          "internalType": "struct Decimal.decimal",
          "name": "",
          "type": "tuple"
        },
        {
          "components": [
            {
              "internalType": "int256",
              "name": "d",
              "type": "int256"
            }
          ],
          "internalType": "struct SignedDecimal.signedDecimal",
          "name": "",
          "type": "tuple"
        },
        {
          "components": [
            {
              "internalType": "uint256",
              "name": "d",
              "type": "uint256"
            }
          ],
          "internalType": "struct Decimal.decimal",
          "name": "",
          "type": "tuple"
        },
        {
          "components": [
            {
              "internalType": "uint256",
              "name": "d",
              "type": "uint256"
            }
          ],
          "internalType": "struct Decimal.decimal",
          "name": "",
          "type": "tuple"
        },
        {
          "components": [
            {
              "internalType": "uint256",
              "name": "d",
              "type": "uint256"
            }
          ],
          "internalType": "struct Decimal.decimal",
          "name": "",
          "type": "tuple"
        },
        {
          "components": [
            {
              "internalType": "uint256",
              "name": "d",
              "type": "uint256"
            }
          ],
          "internalType": "struct Decimal.decimal",
          "name": "",
          "type": "tuple"
        }
      ],
      "stateMutability": "view",
      "type": "function"
    },
    {
      "inputs": [],
      "name": "getNumberOrders",
      "outputs": [
        {
          "internalType": "uint256",
          "name": "",
          "type": "uint256"
        }
      ],
      "stateMutability": "view",
      "type": "function"
    },
    {
      "inputs": [
        {
          "internalType": "contract IAmm",
          "name": "_asset",
          "type": "address"
        },
        {
          "internalType": "uint256",
          "name": "_snapshotIndex",
          "type": "uint256"
        }
      ],
      "name": "getPriceAtSnapshot",
      "outputs": [
        {
          "components": [
            {
              "internalType": "uint256",
              "name": "d",
              "type": "uint256"
            }
          ],
          "internalType": "struct Decimal.decimal",
          "name": "",
          "type": "tuple"
        }
      ],
      "stateMutability": "view",
      "type": "function"
    },
    {
      "inputs": [
        {
          "internalType": "uint256",
          "name": "order_id",
          "type": "uint256"
        }
      ],
      "name": "getTrailingData",
      "outputs": [
        {
          "components": [
            {
              "components": [
                {
                  "internalType": "uint256",
                  "name": "d",
                  "type": "uint256"
                }
              ],
              "internalType": "struct Decimal.decimal",
              "name": "witnessPrice",
              "type": "tuple"
            },
            {
              "components": [
                {
                  "internalType": "uint256",
                  "name": "d",
                  "type": "uint256"
                }
              ],
              "internalType": "struct Decimal.decimal",
              "name": "trail",
              "type": "tuple"
            },
            {
              "components": [
                {
                  "internalType": "uint256",
                  "name": "d",
                  "type": "uint256"
                }
              ],
              "internalType": "struct Decimal.decimal",
              "name": "trailPct",
              "type": "tuple"
            },
            {
              "components": [
                {
                  "internalType": "uint256",
                  "name": "d",
                  "type": "uint256"
                }
              ],
              "internalType": "struct Decimal.decimal",
              "name": "gap",
              "type": "tuple"
            },
            {
              "components": [
                {
                  "internalType": "uint256",
                  "name": "d",
                  "type": "uint256"
                }
              ],
              "internalType": "struct Decimal.decimal",
              "name": "gapPct",
              "type": "tuple"
            },
            {
              "internalType": "bool",
              "name": "usePct",
              "type": "bool"
            },
            {
              "internalType": "uint256",
              "name": "snapshotCreated",
              "type": "uint256"
            },
            {
              "internalType": "uint256",
              "name": "snapshotLastUpdated",
              "type": "uint256"
            },
            {
              "internalType": "uint256",
              "name": "snapshotTimestamp",
              "type": "uint256"
            },
            {
              "internalType": "address",
              "name": "lastUpdatedKeeper",
              "type": "address"
            }
          ],
          "internalType": "struct LimitOrderBook.TrailingOrderData",
          "name": "",
          "type": "tuple"
        }
      ],
      "stateMutability": "view",
      "type": "function"
    },
    {
      "inputs": [],
      "name": "minimumTipFee",
      "outputs": [
        {
          "internalType": "uint256",
          "name": "d",
          "type": "uint256"
        }
      ],
      "stateMutability": "view",
      "type": "function"
    },
    {
      "inputs": [
        {
          "internalType": "uint256",
          "name": "order_id",
          "type": "uint256"
        },
        {
          "components": [
            {
              "internalType": "uint256",
              "name": "d",
              "type": "uint256"
            }
          ],
          "internalType": "struct Decimal.decimal",
          "name": "_stopPrice",
          "type": "tuple"
        },
        {
          "components": [
            {
              "internalType": "uint256",
              "name": "d",
              "type": "uint256"
            }
          ],
          "internalType": "struct Decimal.decimal",
          "name": "_limitPrice",
          "type": "tuple"
        },
        {
          "components": [
            {
              "internalType": "int256",
              "name": "d",
              "type": "int256"
            }
          ],
          "internalType": "struct SignedDecimal.signedDecimal",
          "name": "_orderSize",
          "type": "tuple"
        },
        {
          "components": [
            {
              "internalType": "uint256",
              "name": "d",
              "type": "uint256"
            }
          ],
          "internalType": "struct Decimal.decimal",
          "name": "_collateral",
          "type": "tuple"
        },
        {
          "components": [
            {
              "internalType": "uint256",
              "name": "d",
              "type": "uint256"
            }
          ],
          "internalType": "struct Decimal.decimal",
          "name": "_leverage",
          "type": "tuple"
        },
        {
          "components": [
            {
              "internalType": "uint256",
              "name": "d",
              "type": "uint256"
            }
          ],
          "internalType": "struct Decimal.decimal",
          "name": "_slippage",
          "type": "tuple"
        },
        {
          "internalType": "bool",
          "name": "_reduceOnly",
          "type": "bool"
        },
        {
          "internalType": "uint256",
          "name": "_expiry",
          "type": "uint256"
        }
      ],
      "name": "modifyOrder",
      "outputs": [],
      "stateMutability": "nonpayable",
      "type": "function"
    },
    {
      "inputs": [
        {
          "internalType": "uint256",
          "name": "order_id",
          "type": "uint256"
        },
        {
          "components": [
            {
              "internalType": "uint256",
              "name": "d",
              "type": "uint256"
            }
          ],
          "internalType": "struct Decimal.decimal",
          "name": "_newStop",
          "type": "tuple"
        },
        {
          "components": [
            {
              "internalType": "uint256",
              "name": "d",
              "type": "uint256"
            }
          ],
          "internalType": "struct Decimal.decimal",
          "name": "_newLimit",
          "type": "tuple"
        },
        {
          "components": [
            {
              "internalType": "int256",
              "name": "d",
              "type": "int256"
            }
          ],
          "internalType": "struct SignedDecimal.signedDecimal",
          "name": "_orderSize",
          "type": "tuple"
        },
        {
          "components": [
            {
              "internalType": "uint256",
              "name": "d",
              "type": "uint256"
            }
          ],
          "internalType": "struct Decimal.decimal",
          "name": "_collateral",
          "type": "tuple"
        },
        {
          "components": [
            {
              "internalType": "uint256",
              "name": "d",
              "type": "uint256"
            }
          ],
          "internalType": "struct Decimal.decimal",
          "name": "_leverage",
          "type": "tuple"
        },
        {
          "components": [
            {
              "internalType": "uint256",
              "name": "d",
              "type": "uint256"
            }
          ],
          "internalType": "struct Decimal.decimal",
          "name": "_slippage",
          "type": "tuple"
        },
        {
          "internalType": "bool",
          "name": "_reduceOnly",
          "type": "bool"
        },
        {
          "internalType": "uint256",
          "name": "_expiry",
          "type": "uint256"
        }
      ],
      "name": "modifyTrailingOrder",
      "outputs": [],
      "stateMutability": "nonpayable",
      "type": "function"
    },
    {
      "inputs": [
        {
          "internalType": "uint256",
          "name": "",
          "type": "uint256"
        }
      ],
      "name": "orders",
      "outputs": [
        {
          "internalType": "address",
          "name": "asset",
          "type": "address"
        },
        {
          "internalType": "address",
          "name": "trader",
          "type": "address"
        },
        {
          "internalType": "enum LimitOrderBook.OrderType",
          "name": "orderType",
          "type": "uint8"
        },
        {
          "internalType": "bool",
          "name": "reduceOnly",
          "type": "bool"
        },
        {
          "internalType": "bool",
          "name": "stillValid",
          "type": "bool"
        },
        {
          "internalType": "uint256",
          "name": "expiry",
          "type": "uint256"
        },
        {
          "components": [
            {
              "internalType": "uint256",
              "name": "d",
              "type": "uint256"
            }
          ],
          "internalType": "struct Decimal.decimal",
          "name": "stopPrice",
          "type": "tuple"
        },
        {
          "components": [
            {
              "internalType": "uint256",
              "name": "d",
              "type": "uint256"
            }
          ],
          "internalType": "struct Decimal.decimal",
          "name": "limitPrice",
          "type": "tuple"
        },
        {
          "components": [
            {
              "internalType": "int256",
              "name": "d",
              "type": "int256"
            }
          ],
          "internalType": "struct SignedDecimal.signedDecimal",
          "name": "orderSize",
          "type": "tuple"
        },
        {
          "components": [
            {
              "internalType": "uint256",
              "name": "d",
              "type": "uint256"
            }
          ],
          "internalType": "struct Decimal.decimal",
          "name": "collateral",
          "type": "tuple"
        },
        {
          "components": [
            {
              "internalType": "uint256",
              "name": "d",
              "type": "uint256"
            }
          ],
          "internalType": "struct Decimal.decimal",
          "name": "leverage",
          "type": "tuple"
        },
        {
          "components": [
            {
              "internalType": "uint256",
              "name": "d",
              "type": "uint256"
            }
          ],
          "internalType": "struct Decimal.decimal",
          "name": "slippage",
          "type": "tuple"
        },
        {
          "components": [
            {
              "internalType": "uint256",
              "name": "d",
              "type": "uint256"
            }
          ],
          "internalType": "struct Decimal.decimal",
          "name": "tipFee",
          "type": "tuple"
        }
      ],
      "stateMutability": "view",
      "type": "function"
    },
    {
      "inputs": [],
      "name": "owner",
      "outputs": [
        {
          "internalType": "address",
          "name": "",
          "type": "address"
        }
      ],
      "stateMutability": "view",
      "type": "function"
    },
    {
      "inputs": [
        {
          "internalType": "uint256",
          "name": "order_id",
          "type": "uint256"
        },
        {
          "internalType": "uint256",
          "name": "_reserveIndex",
          "type": "uint256"
        }
      ],
      "name": "pokeContract",
      "outputs": [],
      "stateMutability": "nonpayable",
      "type": "function"
    },
    {
      "inputs": [],
      "name": "pokeContractDelay",
      "outputs": [
        {
          "internalType": "uint256",
          "name": "",
          "type": "uint256"
        }
      ],
      "stateMutability": "view",
      "type": "function"
    },
    {
      "inputs": [],
      "name": "renounceOwnership",
      "outputs": [],
      "stateMutability": "nonpayable",
      "type": "function"
    },
    {
      "inputs": [
        {
          "internalType": "address",
          "name": "_addr",
          "type": "address"
        }
      ],
      "name": "setFactory",
      "outputs": [],
      "stateMutability": "nonpayable",
      "type": "function"
    },
    {
      "inputs": [
        {
          "internalType": "address",
          "name": "newOwner",
          "type": "address"
        }
      ],
      "name": "transferOwnership",
      "outputs": [],
      "stateMutability": "nonpayable",
      "type": "function"
    }
  ],
  "bytecode": "0x60806040526103846037553480156200001757600080fd5b5060006200002d6001600160e01b036200007d16565b600080546001600160a01b0319166001600160a01b0383169081178255604051929350917f8be0079c531659141344cd1fd0a4f28419497f9722a3daafe3b4186f6b6457e0908290a35062000081565b3390565b61467b80620000916000396000f3fe608060405234801561001057600080fd5b50600436106101b95760003560e01c806386f89642116100f9578063c45a015511610097578063e54ff5e511610071578063e54ff5e5146103b9578063f0d840d7146103c1578063f2fde38b146103e1578063fe0d94c1146103f4576101b9565b8063c45a015514610378578063dc4cb10714610380578063e36a2dc014610393576101b9565b8063a85c38ef116100d3578063a85c38ef14610313578063af52775d1461033f578063b96bb80614610352578063bc9aa8c314610365576101b9565b806386f89642146102e35780638ceddd77146102f65780638da5cb5b146102fe576101b9565b80634b5924af116101665780635ad86447116101405780635ad86447146102955780635bb47808146102a85780636bef7493146102bb578063715018a6146102db576101b9565b80634b5924af1461023d5780634c5789e3146102505780635306102614610275576101b9565b80632736f620116101975780632736f6201461020457806334c19830146102175780634885fd581461022a576101b9565b8063032e4f6e146101be5780630c39bb7a146101d357806311a00327146101f1575b600080fd5b6101d16101cc366004613966565b610407565b005b6101db61046c565b6040516101e891906145ab565b60405180910390f35b6101d16101ff366004613ae6565b610472565b6101d1610212366004613966565b6105da565b6101d1610225366004613b45565b610634565b6101d1610238366004613ab0565b610881565b6101d161024b3660046138cc565b6108c6565b61026361025e366004613ae6565b61094c565b6040516101e896959493929190613bbb565b610288610283366004613ae6565b610af4565b6040516101e891906143cb565b6101d16102a336600461380d565b610c5a565b6101d16102b63660046137d5565b610d07565b6102ce6102c9366004613a2e565b610d68565b6040516101e89190614570565b6101d1610e31565b6101d16102f136600461380d565b610eba565b6101db610f4c565b610306610f52565b6040516101e89190613ba7565b610326610321366004613ae6565b610f61565b6040516101e89d9c9b9a99989796959493929190613c00565b6101d161034d366004613b16565b61102f565b6101d161036036600461380d565b611435565b6101d1610373366004613b16565b6114ce565b61030661186a565b6101d161038e3660046138cc565b611879565b6103a66103a1366004613ae6565b6118da565b6040516101e8979695949392919061457a565b6101db611ac6565b6103d46103cf366004613ae6565b611acc565b6040516101e891906144ca565b6101d16103ef3660046137d5565b611b91565b6101d1610402366004613ae6565b611c51565b610446886040518060400160405280601381526020017f53746f702063616e6e6f74206265207a65726f00000000000000000000000000815250612214565b6104618960028a610455612241565b8b8b8b8b8b8b8b61225c565b505050505050505050565b60385481565b806034818154811061048057fe5b60009182526020909120600a90910201600101546001600160a01b031633146104c45760405162461bcd60e51b81526004016104bb90614394565b60405180910390fd5b603454829081106104e75760405162461bcd60e51b81526004016104bb90614120565b603483815481106104f457fe5b600091825260209091206001600a9092020101546040516001600160a01b03909116907f9839c5aee45262b904f4ede97f671e296b41355f52a965a7076f4d4db9321d4b906105449086906145ab565b60405180910390a26034838154811061055957fe5b600091825260208220600a9091020180546001600160a01b03191681556001810180547fffffffffffffffffff00000000000000000000000000000000000000000000001690556002810182905560038101829055600481018290556005810182905560068101829055600781018290556008810182905560090155505050565b610619886040518060400160405280601481526020017f4c696d69742063616e6e6f74206265207a65726f000000000000000000000000815250612214565b610461896001610627612241565b8b8b8b8b8b8b8b8b61225c565b60046034838154811061064357fe5b90600052602060002090600a020160010160149054906101000a900460ff16600581111561066d57fe5b14806106af575060056034838154811061068357fe5b90600052602060002090600a020160010160149054906101000a900460ff1660058111156106ad57fe5b145b6106cb5760405162461bcd60e51b81526004016104bb90613f8a565b60008281526035602052604090206006015481116106fb5760405162461bcd60e51b81526004016104bb90613dac565b60008281526035602052604090206007015481108061072e57506037546000838152603560205260409020600801544203115b61074a5760405162461bcd60e51b81526004016104bb906142da565b6000828152603560205260408120426008909101556034805461079791908590811061077257fe5b60009182526020918290206040805193840190526005600a90920201015481526127b1565b6107a25760016107a5565b60005b90506107af613637565b6107df603485815481106107bf57fe5b60009182526020909120600a90910201546001600160a01b031684610d68565b9050816107ee576000196107f1565b60015b600085815260356020908152604091829020825191820190925290548152600f9190910b90610826908363ffffffff6127cf16565b60000b146108465760405162461bcd60e51b81526004016104bb90614246565b6000848152603560205260409020815181556007810184905560090180546001600160a01b0319163317905561087b84612800565b50505050565b610889612b9a565b6001600160a01b031661089a610f52565b6001600160a01b0316146108c05760405162461bcd60e51b81526004016104bb906141b4565b51603855565b610905876040518060400160405280601481526020017f547261696c2063616e6e6f74206265207a65726f000000000000000000000000815250612214565b61092e886004610913612241565b61091b612241565b8a8a8a610926612241565b8b8b8b61225c565b610942888861093b612241565b6001612b9e565b5050505050505050565b60008060008060008086603480549050811061097a5760405162461bcd60e51b81526004016104bb90614120565b61098261364a565b6034898154811061098f57fe5b6000918252602091829020604080516101a081018252600a90930290910180546001600160a01b03908116845260018201549081169484019490945291929083019060ff600160a01b9091041660058111156109e757fe5b60058111156109f257fe5b8152600182015460ff600160a81b820481161515602080850191909152600160b01b90920416151560408084019190915260028401546060808501919091528151808401835260038601548152608080860191909152825180850184526004870154815260a080870191909152835180860185526005880154815260c0870152835180860185526006880154815260e087015283518086018552600788015481526101008701528351808601855260088801548152610120870152835180860185526009909701548752610140909501959095528551928601519186015190860151948601519590930151919e909d50919b5091995091975095509350505050565b610afc61364a565b60345482908110610b1f5760405162461bcd60e51b81526004016104bb90614120565b60348381548110610b2c57fe5b6000918252602091829020604080516101a081018252600a90930290910180546001600160a01b03908116845260018201549081169484019490945291929083019060ff600160a01b909104166005811115610b8457fe5b6005811115610b8f57fe5b8152600182015460ff600160a81b820481161515602080850191909152600160b01b9092041615156040808401919091526002840154606084015280518083018252600385015481526080840152805180830182526004850154815260a0840152805180830182526005850154815260c0840152805180830182526006850154815260e0840152805180830182526007850154815261010084015280518083018252600885015481526101208401528051918201905260099092015482526101400152915050919050565b610c99896040518060400160405280601481526020017f547261696c2063616e6e6f74206265207a65726f000000000000000000000000815250612214565b610cd8886040518060400160405280601281526020017f4761702063616e6e6f74206265207a65726f0000000000000000000000000000815250612214565b610cee8a6005610ce6612241565b610455612241565b610cfb8a8a8a6000612b9e565b50505050505050505050565b610d0f612b9a565b6001600160a01b0316610d20610f52565b6001600160a01b031614610d465760405162461bcd60e51b81526004016104bb906141b4565b603680546001600160a01b0319166001600160a01b0392909216919091179055565b610d70613637565b610d786136db565b6040517f21e009850000000000000000000000000000000000000000000000000000000081526001600160a01b038516906321e0098590610dbd9086906004016145ab565b60806040518083038186803b158015610dd557600080fd5b505afa158015610de9573d6000803e3d6000fd5b505050506040513d601f19601f82011682018060405250810190610e0d9190613a59565b60208101518151919250610e27919063ffffffff612f5b16565b9150505b92915050565b610e39612b9a565b6001600160a01b0316610e4a610f52565b6001600160a01b031614610e705760405162461bcd60e51b81526004016104bb906141b4565b600080546040516001600160a01b03909116907f8be0079c531659141344cd1fd0a4f28419497f9722a3daafe3b4186f6b6457e0908390a3600080546001600160a01b0319169055565b610ef9886040518060400160405280601481526020017f4c696d69742063616e6e6f74206265207a65726f000000000000000000000000815250612214565b610f38896040518060400160405280601381526020017f53746f702063616e6e6f74206265207a65726f00000000000000000000000000815250612214565b610cfb8a60038b8b8b8b8b8b8b8b8b61225c565b60345490565b6000546001600160a01b031690565b60348181548110610f6e57fe5b6000918252602091829020600a9091020180546001820154600283015460408051808701825260038601548152815180880183526004870154815282518089018452600588015481528351808a018552600689015481528451808b01865260078a015481528551808c01875260088b0154815286519b8c019096526009909901548a526001600160a01b039788169a509686169860ff600160a01b8804811699600160a81b8904821699600160b01b9099049091169794959394929390918d565b886034818154811061103d57fe5b60009182526020909120600a90910201600101546001600160a01b031633146110785760405162461bcd60e51b81526004016104bb90614394565b6034548a90811061109b5760405162461bcd60e51b81526004016104bb90614120565b8215806110a757508242105b6110c35760405162461bcd60e51b81526004016104bb90613eae565b600160348c815481106110d257fe5b90600052602060002090600a020160010160149054906101000a900460ff1660058111156110fc57fe5b148061113e5750600260348c8154811061111257fe5b90600052602060002090600a020160010160149054906101000a900460ff16600581111561113c57fe5b145b8061117f5750600360348c8154811061115357fe5b90600052602060002090600a020160010160149054906101000a900460ff16600581111561117d57fe5b145b61119b5760405162461bcd60e51b81526004016104bb90614337565b6111e26111a789612f87565b6040518060400160405280601581526020017f43616e6e6f7420646f20656d707479206f726465720000000000000000000000815250612214565b8361126257611226876040518060400160405280601981526020017f43616e6e6f74207370656e64203020636f6c6c61746572616c00000000000000815250612214565b61123e611231612fb5565b879063ffffffff6127cf16565b60000b60001914156112625760405162461bcd60e51b81526004016104bb90613d3e565b8960348c8154811061127057fe5b90600052602060002090600a0201600301600082015181600001559050508860348c8154811061129c57fe5b90600052602060002090600a0201600401600082015181600001559050508760348c815481106112c857fe5b90600052602060002090600a0201600501600082015181600001559050508660348c815481106112f457fe5b90600052602060002090600a0201600601600082015181600001559050508560348c8154811061132057fe5b90600052602060002090600a0201600701600082015181600001559050508460348c8154811061134c57fe5b90600052602060002090600a0201600801600082015181600001559050508360348c8154811061137857fe5b90600052602060002090600a020160010160156101000a81548160ff0219169083151502179055508260348c815481106113ae57fe5b90600052602060002090600a02016002018190555060348b815481106113d057fe5b600091825260209091206001600a9092020101546040516001600160a01b03909116907f9839c5aee45262b904f4ede97f671e296b41355f52a965a7076f4d4db9321d4b90611420908e906145ab565b60405180910390a25050505050505050505050565b611474896040518060400160405280601481526020017f547261696c2063616e6e6f74206265207a65726f000000000000000000000000815250612214565b6114b3886040518060400160405280601281526020017f4761702063616e6e6f74206265207a65726f0000000000000000000000000000815250612214565b6114c18a6005610ce6612241565b610cfb8a8a8a6001612b9e565b88603481815481106114dc57fe5b60009182526020909120600a90910201600101546001600160a01b031633146115175760405162461bcd60e51b81526004016104bb90614394565b6034548a90811061153a5760405162461bcd60e51b81526004016104bb90614120565b82158061154657508242105b6115625760405162461bcd60e51b81526004016104bb90613eae565b600460348c8154811061157157fe5b90600052602060002090600a020160010160149054906101000a900460ff16600581111561159b57fe5b14806115dd5750600560348c815481106115b157fe5b90600052602060002090600a020160010160149054906101000a900460ff1660058111156115db57fe5b145b6115f95760405162461bcd60e51b81526004016104bb90613d75565b6116056111a789612f87565b8361167857611649876040518060400160405280601981526020017f43616e6e6f74207370656e64203020636f6c6c61746572616c00000000000000815250612214565b611654611231612fb5565b60000b60001914156116785760405162461bcd60e51b81526004016104bb90613d3e565b8760348c8154811061168657fe5b90600052602060002090600a0201600501600082015181600001559050508660348c815481106116b257fe5b90600052602060002090600a0201600601600082015181600001559050508560348c815481106116de57fe5b90600052602060002090600a0201600701600082015181600001559050508460348c8154811061170a57fe5b90600052602060002090600a0201600801600082015181600001559050508360348c8154811061173657fe5b90600052602060002090600a020160010160156101000a81548160ff0219169083151502179055508260348c8154811061176c57fe5b600091825260208083206002600a9093020191909101929092558c81526035909152604090206005015460ff1615611836576117b66117a9612fb5565b8b9063ffffffff6127cf16565b60000b600019146117d95760405162461bcd60e51b81526004016104bb90613f1c565b6117f16117e4612fb5565b8a9063ffffffff6127cf16565b60000b600019146118145760405162461bcd60e51b81526004016104bb906140b2565b60008b81526035602052604090208a5160028201558951600490910155611854565b60008b81526035602052604090208a51600182015589516003909101555b61185d8b612800565b60348b815481106113d057fe5b6036546001600160a01b031681565b6118b8876040518060400160405280601481526020017f547261696c2063616e6e6f74206265207a65726f000000000000000000000000815250612214565b6118c6886004610913612241565b61094288886118d3612241565b6000612b9e565b6118e2613637565b6118ea613637565b6118f2613637565b6118fa613637565b611902613637565b61190a613637565b611912613637565b603454889081106119355760405162461bcd60e51b81526004016104bb90614120565b61193d61364a565b60348a8154811061194a57fe5b6000918252602091829020604080516101a081018252600a90930290910180546001600160a01b03908116845260018201549081169484019490945291929083019060ff600160a01b9091041660058111156119a257fe5b60058111156119ad57fe5b8152600182015460ff600160a81b820481161515602080850191909152600160b01b9092041615156040808401919091526002840154606084015280518083018252600385015481526080840152805180830182526004850154815260a0840152805180830182526005850154815260c080850191909152815180840183526006860154815260e08086019190915282518085018452600787015481526101008087019190915283518086018552600888015481526101208088019190915284519586019094526009909601548452610140948501939093528501519185015193850151908501519285015161016086015161018090960151929e50939c509a5090985090965090945092505050919395979092949650565b60375481565b611ad461370f565b50600081815260356020908152604091829020825161016081018452815461014082019081528152835180840185526001830154815281840152835180840185526002830154815281850152835180840185526003830154815260608201528351928301909352600481015482526080830191909152600581015460ff16151560a0830152600681015460c0830152600781015460e08301526008810154610100830152600901546001600160a01b03166101208201525b919050565b611b99612b9a565b6001600160a01b0316611baa610f52565b6001600160a01b031614611bd05760405162461bcd60e51b81526004016104bb906141b4565b6001600160a01b038116611bf65760405162461bcd60e51b81526004016104bb90613de3565b600080546040516001600160a01b03808516939216917f8be0079c531659141344cd1fd0a4f28419497f9722a3daafe3b4186f6b6457e091a3600080546001600160a01b0319166001600160a01b0392909216919091179055565b60345481908110611c745760405162461bcd60e51b81526004016104bb90614120565b60348281548110611c8157fe5b90600052602060002090600a020160010160169054906101000a900460ff16611cbc5760405162461bcd60e51b81526004016104bb90613e40565b603654603480546000926001600160a01b03169163a0b738819186908110611ce057fe5b600091825260209091206001600a9092020101546040517fffffffff0000000000000000000000000000000000000000000000000000000060e084901b168152611d36916001600160a01b031690600401613ba7565b60206040518083038186803b158015611d4e57600080fd5b505afa158015611d62573d6000803e3d6000fd5b505050506040513d601f19601f82011682018060405250810190611d8691906137f1565b90506000816001600160a01b03166394f61134856040518263ffffffff1660e01b8152600401611db691906145ab565b602060405180830381600087803b158015611dd057600080fd5b505af1158015611de4573d6000803e3d6000fd5b505050506040513d601f19601f82011682018060405250810190611e089190613a12565b905080611e275760405162461bcd60e51b81526004016104bb90613ee5565b600460348581548110611e3657fe5b90600052602060002090600a020160010160149054906101000a900460ff166005811115611e6057fe5b1480611ea25750600560348581548110611e7657fe5b90600052602060002090600a020160010160149054906101000a900460ff166005811115611ea057fe5b145b156120f8576000848152603560205260409020600901546001600160a01b03161561200f57611f2473ddafbb505ad214d7b80b1f830fccc89b60fb7a833033611f1f600260348a81548110611ef357fe5b60009182526020918290206040805193840190526009600a90920201015481529063ffffffff612fd916565b612ffb565b60008481526035602052604090206009015460348054611f739273ddafbb505ad214d7b80b1f830fccc89b60fb7a839230926001600160a01b0390921691611f1f916002918b908110611ef357fe5b7ffc0ec3e59df0924914ac81382ddd54522bb0c38d2b91b0667f0103cf6502559d84604051611fa291906145ab565b60405180910390a160008481526035602052604081208181556001810182905560028101829055600381018290556004810182905560058101805460ff191690556006810182905560078101829055600881019190915560090180546001600160a01b03191690556120f3565b61205b73ddafbb505ad214d7b80b1f830fccc89b60fb7a8330336034888154811061203657fe5b60009182526020918290206040805193840190526009600a9092020101548152612ffb565b7ffc0ec3e59df0924914ac81382ddd54522bb0c38d2b91b0667f0103cf6502559d8460405161208a91906145ab565b60405180910390a160008481526035602052604081208181556001810182905560028101829055600381018290556004810182905560058101805460ff191690556006810182905560078101829055600881019190915560090180546001600160a01b03191690555b61211f565b61211f73ddafbb505ad214d7b80b1f830fccc89b60fb7a8330336034888154811061203657fe5b6034848154811061212c57fe5b600091825260208220600a9091020180546001600160a01b03191681556001810180547fffffffffffffffffff0000000000000000000000000000000000000000000000169055600281018290556003810182905560048101829055600581018290556006810182905560078101829055600881018290556009015560348054859081106121b657fe5b600091825260209091206001600a9092020101546040516001600160a01b03909116907f6ac084fe52cc25f2f64ae4aea087b0bf8e92c0a900b2425c1edda1f36c8cab0d906122069087906145ab565b60405180910390a250505050565b61221d82613150565b819061223c5760405162461bcd60e51b81526004016104bb9190613cd4565b505050565b612249613637565b5060408051602081019091526000815290565b80158061226857508042105b6122845760405162461bcd60e51b81526004016104bb90613eae565b604080516020810190915260385481526122a590849063ffffffff6127cf16565b60000b60001914156122c95760405162461bcd60e51b81526004016104bb906141e9565b6036546040517fa0b738810000000000000000000000000000000000000000000000000000000081526000916001600160a01b03169063a0b7388190612313903390600401613ba7565b60206040518083038186803b15801561232b57600080fd5b505afa15801561233f573d6000803e3d6000fd5b505050506040513d601f19601f8201168201806040525081019061236391906137f1565b6001600160a01b0316141561238a5760405162461bcd60e51b81526004016104bb906140e9565b6040517f0774a784000000000000000000000000000000000000000000000000000000008152738c29f6f7fc1999ab84b476952e986f974acb382490630774a784906123da908e90600401613ba7565b60206040518083038186803b1580156123f257600080fd5b505afa158015612406573d6000803e3d6000fd5b505050506040513d601f19601f8201168201806040525081019061242a9190613a12565b6124465760405162461bcd60e51b81526004016104bb90613d07565b6124526111a788612f87565b816124d257612496866040518060400160405280601981526020017f43616e6e6f74207370656e64203020636f6c6c61746572616c00000000000000815250612214565b6124ae6124a1612fb5565b869063ffffffff6127cf16565b60000b60001914156124d25760405162461bcd60e51b81526004016104bb90613d3e565b6036546040517fa0b7388100000000000000000000000000000000000000000000000000000000815261258c9173ddafbb505ad214d7b80b1f830fccc89b60fb7a83916001600160a01b039091169063a0b7388190612535903390600401613ba7565b60206040518083038186803b15801561254d57600080fd5b505afa158015612561573d6000803e3d6000fd5b505050506040513d601f19601f8201168201806040525081019061258591906137f1565b3086612ffb565b60345460405133917fcb0c37c16aa3b0bbb7a817932094d8a20a00996d426a813f067039f0ef87ab07916125c091906145ab565b60405180910390a2604080516101a0810182526001600160a01b038d16815233602082015260349181018c60058111156125f657fe5b81528415156020808301919091526001604080840182905260608401879052608084018f905260a084018e905260c084018d905260e084018c905261010084018b905261012084018a9052610140909301889052845480820186556000958652948290208451600a9096020180546001600160a01b03199081166001600160a01b03978816178255928501519181018054909316919095161780825591830151929392917fffffffffffffffffffffff00ffffffffffffffffffffffffffffffffffffffff16600160a01b8360058111156126cd57fe5b0217905550606082015160018201805460808501511515600160b01b027fffffffffffffffffff00ffffffffffffffffffffffffffffffffffffffffffff931515600160a81b027fffffffffffffffffffff00ffffffffffffffffffffffffffffffffffffffffff909216919091179290921691909117905560a0820151600282015560c082015151600382015560e082015151600482015561010082015151600582015561012082015151600682015561014082015151600782015561016082015151600882015561018090910151516009909101555050505050505050505050565b600080826000015112156127c757506001611b8c565b506000919050565b8051825160009110156127e457506001610e2b565b8151835110156127f75750600019610e2b565b50600092915050565b612808613637565b50600081815260356020908152604080832081519283019091525481526034805491929161283b91908590811061077257fe5b612846576001612849565b60005b60008481526035602052604090206005015490915060ff1615612a035761286e613637565b816128b257600084815260356020908152604091829020825191820190925260029091015481526128ad906128a1612fb5565b9063ffffffff61315416565b6128ec565b600084815260356020908152604091829020825191820190925260029091015481526128ec906128e0612fb5565b9063ffffffff61317716565b90506128f6613637565b8261292e5760008581526035602090815260409182902082519182019092526004909101548152612929906128a1612fb5565b61295c565b6000858152603560209081526040918290208251918201909252600490910154815261295c906128e0612fb5565b905061296e848363ffffffff61319a16565b6034868154811061297b57fe5b90600052602060002090600a0201600301600082015181600001559050506129d681603487815481106129aa57fe5b60009182526020918290206040805193840190526003600a90920201015481529063ffffffff61319a16565b603486815481106129e357fe5b6000918252602090912091516004600a90920290920101555061223c9050565b80612a405760008381526035602090815260409182902082519182019092526001909101548152612a3b90839063ffffffff61315416565b612a73565b60008381526035602090815260409182902082519182019092526001909101548152612a7390839063ffffffff61317716565b60348481548110612a8057fe5b6000918252602090912091516003600a909202909201015580612b0957612b046035600085815260200190815260200160002060030160405180602001604052908160008201548152505060348581548110612ad857fe5b60009182526020918290206040805193840190526003600a90920201015481529063ffffffff61315416565b612b70565b612b706035600085815260200190815260200160002060030160405180602001604052908160008201548152505060348581548110612b4457fe5b60009182526020918290206040805193840190526003600a90920201015481529063ffffffff61317716565b60348481548110612b7d57fe5b6000918252602090912091516004600a9092029092010155505050565b3390565b60006001856001600160a01b0316630d451c8f6040518163ffffffff1660e01b815260040160206040518083038186803b158015612bdb57600080fd5b505afa158015612bef573d6000803e3d6000fd5b505050506040513d601f19601f82011682018060405250810190612c139190613afe565b0390507f4c307a456602a1cfcbea38a491adb935be2ec87ce2d533dfecf1240ad30d710d60016034805490500382604051612c4f9291906145b4565b60405180910390a1612c5f613637565b856001600160a01b031663dc76fabc6040518163ffffffff1660e01b815260040160206040518083038186803b158015612c9857600080fd5b505afa158015612cac573d6000803e3d6000fd5b505050506040513d601f19601f82011682018060405250810190612cd09190613acb565b90508215612e4557612ce36124a1612fb5565b60000b60001914612d065760405162461bcd60e51b81526004016104bb90613f1c565b612d1e612d11612fb5565b859063ffffffff6127cf16565b60000b60001914612d415760405162461bcd60e51b81526004016104bb906140b2565b604051806101400160405280828152602001612d5b612241565b8152602001868152602001612d6e612241565b8152602080820187905260016040808401829052606080850188905260808086018990524260a080880191909152600060c09788018190526034546000190181526035875284902088515181559588015151948601949094559186015151600285015585015151600384015584015151600483015583015160058201805460ff191691151591909117905590820151600682015560e08201516007820155610100820151600882015561012090910151600990910180546001600160a01b0319166001600160a01b03909216919091179055612f43565b604051806101400160405280828152602001868152602001612e65612241565b8152602001858152602001612e78612241565b815260006020808301829052604080840187905260608085018890524260808087019190915260a0958601859052603454600019018552603584529382902086515181559286015151600184015590850151516002830155840151516003820155908301515160048201559082015160058201805460ff191691151591909117905560c0820151600682015560e08201516007820155610100820151600882015561012090910151600990910180546001600160a01b0319166001600160a01b039092169190911790555b603454612f539060001901612800565b505050505050565b612f63613637565b612f6b613637565b82518451612f7e9163ffffffff6131bd16565b81529392505050565b612f8f613637565b612f97613637565b825160001315612fad5782516000038152610e2b565b915182525090565b612fbd613637565b6040518060200160405280612fd260126131d2565b9052905090565b612fe1613637565b612fe9613637565b8351612f7e908463ffffffff6131db16565b6130048461320d565b61300c613637565b613016858461325a565b9050600061302486846132e7565b905060006060876001600160a01b03166323b872dd60e01b88888660405160240161305193929190613cb0565b60408051601f198184030181529181526020820180517bffffffffffffffffffffffffffffffffffffffffffffffffffffffff167fffffffff000000000000000000000000000000000000000000000000000000009094169390931790925290516130bc9190613b8b565b6000604051808303816000865af19150503d80600081146130f9576040519150601f19603f3d011682016040523d82523d6000602084013e6130fe565b606091505b50915091508180156131285750805115806131285750808060200190518101906131289190613a12565b6131445760405162461bcd60e51b81526004016104bb90614055565b6109428887858761335d565b5190565b61315c613637565b613164613637565b82518451612f7e9163ffffffff6133b016565b61317f613637565b613187613637565b82518451612f7e9163ffffffff6133d816565b6131a2613637565b6131aa613637565b82518451612f7e9163ffffffff6133fd16565b60006131cb8383601261340b565b9392505050565b60ff16600a0a90565b60008082116131fc5760405162461bcd60e51b81526004016104bb90613fc1565b81838161320557fe5b049392505050565b600061321882613432565b6001600160a01b0383166000908152600160205260409020549091508114613256576001600160a01b03821660009081526001602052604090208190555b5050565b613262613637565b6131cb83846001600160a01b03166370a08231856040518263ffffffff1660e01b81526004016132929190613ba7565b60206040518083038186803b1580156132aa57600080fd5b505afa1580156132be573d6000803e3d6000fd5b505050506040513d601f19601f820116820180604052508101906132e29190613afe565b61354d565b6000806132f384613432565b9050601281106133315761332961331182601263ffffffff6133b016565b600a0a61331d85613150565b9063ffffffff6135df16565b915050610e2b565b610e2761334560128363ffffffff6133b016565b600a0a61335185613150565b9063ffffffff6131db16565b61339061337a61336d868561354d565b839063ffffffff61317716565b613384868661325a565b9063ffffffff6127cf16565b60000b1561087b5760405162461bcd60e51b81526004016104bb9061427d565b6000828211156133d25760405162461bcd60e51b81526004016104bb90613f53565b50900390565b6000828201838110156131cb5760405162461bcd60e51b81526004016104bb90613e77565b60006131cb83836012613619565b600061342a8361335161341d856131d2565b879063ffffffff6135df16565b949350505050565b6001600160a01b03811660009081526001602052604081205480610e2b5760408051600481526024810182526020810180517bffffffffffffffffffffffffffffffffffffffffffffffffffffffff167f313ce5670000000000000000000000000000000000000000000000000000000017905290516000916060916001600160a01b038716916134c291613b8b565b600060405180830381855afa9150503d80600081146134fd576040519150601f19603f3d011682016040523d82523d6000602084013e613502565b606091505b50915091508180156135145750805115155b6135305760405162461bcd60e51b81526004016104bb90613ff8565b808060200190518101906135449190613afe565b95945050505050565b613555613637565b600061356084613432565b9050601281106135a55760408051602081019091528061359a61358a84601263ffffffff6133b016565b8690600a0a63ffffffff6131db16565b815250915050610e2b565b6040805160208101909152806135d56135c560128563ffffffff6133b016565b8690600a0a63ffffffff6135df16565b9052949350505050565b6000826135ee57506000610e2b565b828202828482816135fb57fe5b04146131cb5760405162461bcd60e51b81526004016104bb90614157565b600061342a613627836131d2565b613351868663ffffffff6135df16565b6040518060200160405280600081525090565b604080516101a08101825260008082526020820181905290918201908152600060208201819052604082018190526060820152608001613688613637565b8152602001613695613637565b81526020016136a2613637565b81526020016136af613637565b81526020016136bc613637565b81526020016136c9613637565b81526020016136d6613637565b905290565b60405180608001604052806136ee613637565b81526020016136fb613637565b815260200160008152602001600081525090565b604051806101400160405280613723613637565b8152602001613730613637565b815260200161373d613637565b815260200161374a613637565b8152602001613757613637565b815260200160001515815260200160008152602001600081526020016000815260200160006001600160a01b031681525090565b60006020828403121561379c578081fd5b6137a660206145c2565b9135825250919050565b6000602082840312156137c1578081fd5b6137cb60206145c2565b9151825250919050565b6000602082840312156137e6578081fd5b81356131cb81614622565b600060208284031215613802578081fd5b81516131cb81614622565b6000806000806000806000806000806101408b8d03121561382c578586fd5b8a3561383781614622565b99506138468c60208d0161378b565b98506138558c60408d0161378b565b97506138648c60608d0161378b565b96506138738c60808d0161378b565b95506138828c60a08d0161378b565b94506138918c60c08d0161378b565b93506138a08c60e08d0161378b565b92506101008b01356138b181614637565b809250506101208b013590509295989b9194979a5092959850565b600080600080600080600080610100898b0312156138e8578384fd5b88356138f381614622565b97506139028a60208b0161378b565b96506139118a60408b0161378b565b95506139208a60608b0161378b565b945061392f8a60808b0161378b565b935061393e8a60a08b0161378b565b925060c089013561394e81614637565b8092505060e089013590509295985092959890939650565b60008060008060008060008060006101208a8c031215613984578485fd5b893561398f81614622565b985061399e8b60208c0161378b565b97506139ad8b60408c0161378b565b96506139bc8b60608c0161378b565b95506139cb8b60808c0161378b565b94506139da8b60a08c0161378b565b93506139e98b60c08c0161378b565b925060e08a01356139f981614637565b809250506101008a013590509295985092959850929598565b600060208284031215613a23578081fd5b81516131cb81614637565b60008060408385031215613a40578182fd5b8235613a4b81614622565b946020939093013593505050565b600060808284031215613a6a578081fd5b613a7460806145c2565b613a7e84846137b0565b8152613a8d84602085016137b0565b602082015260408301516040820152606083015160608201528091505092915050565b600060208284031215613ac1578081fd5b6131cb838361378b565b600060208284031215613adc578081fd5b6131cb83836137b0565b600060208284031215613af7578081fd5b5035919050565b600060208284031215613b0f578081fd5b5051919050565b60008060008060008060008060006101208a8c031215613b34578283fd5b8935985061399e8b60208c0161378b565b60008060408385031215613b57578182fd5b50508035926020909101359150565b6001600160a01b03169052565b15159052565b613b8281614615565b9052565b519052565b60008251613b9d8184602087016145e9565b9190910192915050565b6001600160a01b0391909116815260200190565b6001600160a01b0387811682528616602082015260c08101613bdc86614615565b60408201959095529215156060840152901515608083015260a09091015292915050565b6001600160a01b038e811682528d1660208201526101a08101613c228d614615565b8c60408301528b151560608301528a151560808301528960a0830152613c4b60c083018a613b86565b613c5860e0830189613b86565b613c66610100830188613b86565b613c74610120830187613b86565b613c82610140830186613b86565b613c90610160830185613b86565b613c9e610180830184613b86565b9e9d5050505050505050505050505050565b6001600160a01b039384168152919092166020820152604081019190915260600190565b6000602082528251806020840152613cf38160408501602087016145e9565b601f01601f19169190910160400192915050565b6020808252600d908201527f616d6d206e6f7420666f756e6400000000000000000000000000000000000000604082015260600190565b60208082526013908201527f4d696e696d756d203178206c6576657261676500000000000000000000000000604082015260600190565b6020808252601f908201527f43616e206f6e6c79206d6f6469667920747261696c696e67206f726465727300604082015260600190565b60208082526019908201527f4f72646572206861646e2774206265656e206372656174656400000000000000604082015260600190565b60208082526026908201527f4f776e61626c653a206e6577206f776e657220697320746865207a65726f206160408201527f6464726573730000000000000000000000000000000000000000000000000000606082015260800190565b6020808252600f908201527f4e6f206c6f6e6765722076616c69640000000000000000000000000000000000604082015260600190565b6020808252601b908201527f536166654d6174683a206164646974696f6e206f766572666c6f770000000000604082015260600190565b60208082526019908201527f4576656e742077696c6c2065787069726520696e207061737400000000000000604082015260600190565b60208082526015908201527f4572726f7220657865637574696e67206f726465720000000000000000000000604082015260600190565b60208082526015908201527f496e76616c696420747261696c2070657263656e740000000000000000000000604082015260600190565b6020808252601e908201527f536166654d6174683a207375627472616374696f6e206f766572666c6f770000604082015260600190565b6020808252601d908201527f43616e206f6e6c7920706f6b6520747261696c696e67206f7264657273000000604082015260600190565b6020808252601a908201527f536166654d6174683a206469766973696f6e206279207a65726f000000000000604082015260600190565b60208082526021908201527f446563696d616c45524332303a2067657420646563696d616c73206661696c6560408201527f6400000000000000000000000000000000000000000000000000000000000000606082015260800190565b60208082526021908201527f446563696d616c45524332303a207472616e7366657246726f6d206661696c6560408201527f6400000000000000000000000000000000000000000000000000000000000000606082015260800190565b60208082526013908201527f496e76616c6964206761702070657263656e7400000000000000000000000000604082015260600190565b60208082526011908201527f4e65656420736d6172742077616c6c6574000000000000000000000000000000604082015260600190565b6020808252600a908201527f496e76616c696420494400000000000000000000000000000000000000000000604082015260600190565b60208082526021908201527f536166654d6174683a206d756c7469706c69636174696f6e206f766572666c6f60408201527f7700000000000000000000000000000000000000000000000000000000000000606082015260800190565b6020808252818101527f4f776e61626c653a2063616c6c6572206973206e6f7420746865206f776e6572604082015260600190565b6020808252602a908201527f4a757374207468652074697021205469702069732062656c6f77206d696e696d60408201527f756d207469702066656500000000000000000000000000000000000000000000606082015260800190565b60208082526018908201527f496e636f727265637420747261696c696e672070726963650000000000000000604082015260600190565b60208082526022908201527f446563696d616c45524332303a2062616c616e636520696e636f6e736973746560408201527f6e74000000000000000000000000000000000000000000000000000000000000606082015260800190565b60208082526024908201527f43616e206f6e6c792062652075706461746564206576657279203135206d696e60408201527f7574657300000000000000000000000000000000000000000000000000000000606082015260800190565b60208082526021908201527f43616e206f6e6c79206d6f646966792073746f702f6c696d6974206f7264657260408201527f7300000000000000000000000000000000000000000000000000000000000000606082015260800190565b6020808252600e908201527f4e6f7420796f7572206f72646572000000000000000000000000000000000000604082015260600190565b60006101a0820190506143df828451613b66565b60208301516143f16020840182613b66565b5060408301516144046040840182613b79565b5060608301516144176060840182613b73565b50608083015161442a6080840182613b73565b5060a083015160a083015260c083015161444760c0840182613b86565b5060e083015161445a60e0840182613b86565b506101008084015161446e82850182613b86565b50506101208084015161448382850182613b86565b50506101408084015161449882850182613b86565b5050610160808401516144ad82850182613b86565b5050610180808401516144c282850182613b86565b505092915050565b6000610140820190506144de828451613b86565b60208301516144f06020840182613b86565b5060408301516145036040840182613b86565b5060608301516145166060840182613b86565b5060808301516145296080840182613b86565b5060a083015161453c60a0840182613b73565b5060c083015160c083015260e083015160e0830152610100808401518184015250610120808401516144c282850182613b66565b9051815260200190565b965187529451602087015292516040860152905160608501525160808401525160a08301525160c082015260e00190565b90815260200190565b918252602082015260400190565b60405181810167ffffffffffffffff811182821017156145e157600080fd5b604052919050565b60005b838110156146045781810151838201526020016145ec565b8381111561087b5750506000910152565b6006811061461f57fe5b50565b6001600160a01b038116811461461f57600080fd5b801515811461461f57600080fdfea26469706673582212205be70ccef89180d2e1c214cdb0ae93e0caea1bf25589bfcd3a3a897d4723fca364736f6c63430006090033",
  "linkReferences": {},
  "deployedLinkReferences": {}
}