{
  "_format": "hh-sol-artifact-1",
  "contractName": "LimitOrderBook",
  "sourceName": "contracts/LimitOrderBook.sol",
  "abi": [
    {
      "inputs": [],
      "stateMutability": "nonpayable",
      "type": "constructor"
    },
    {
      "anonymous": false,
      "inputs": [
        {
          "indexed": true,
          "internalType": "address",
          "name": "trader",
          "type": "address"
        },
        {
          "indexed": false,
          "internalType": "uint256",
          "name": "order_id",
          "type": "uint256"
        }
      ],
      "name": "OrderCreated",
      "type": "event"
    },
    {
      "anonymous": false,
      "inputs": [
        {
          "indexed": true,
          "internalType": "address",
          "name": "previousOwner",
          "type": "address"
        },
        {
          "indexed": true,
          "internalType": "address",
          "name": "newOwner",
          "type": "address"
        }
      ],
      "name": "OwnershipTransferred",
      "type": "event"
    },
    {
      "inputs": [
        {
          "internalType": "address",
          "name": "_asset",
          "type": "address"
        },
        {
          "components": [
            {
              "internalType": "uint256",
              "name": "d",
              "type": "uint256"
            }
          ],
          "internalType": "struct Decimal.decimal",
          "name": "_limitPrice",
          "type": "tuple"
        },
        {
          "components": [
            {
              "internalType": "int256",
              "name": "d",
              "type": "int256"
            }
          ],
          "internalType": "struct SignedDecimal.signedDecimal",
          "name": "_positionSize",
          "type": "tuple"
        },
        {
          "components": [
            {
              "internalType": "uint256",
              "name": "d",
              "type": "uint256"
            }
          ],
          "internalType": "struct Decimal.decimal",
          "name": "_collateral",
          "type": "tuple"
        },
        {
          "components": [
            {
              "internalType": "uint256",
              "name": "d",
              "type": "uint256"
            }
          ],
          "internalType": "struct Decimal.decimal",
          "name": "_leverage",
          "type": "tuple"
        },
        {
          "components": [
            {
              "internalType": "uint256",
              "name": "d",
              "type": "uint256"
            }
          ],
          "internalType": "struct Decimal.decimal",
          "name": "_slippage",
          "type": "tuple"
        },
        {
          "components": [
            {
              "internalType": "uint256",
              "name": "d",
              "type": "uint256"
            }
          ],
          "internalType": "struct Decimal.decimal",
          "name": "_tipFee",
          "type": "tuple"
        },
        {
          "internalType": "bool",
          "name": "_reduceOnly",
          "type": "bool"
        },
        {
          "internalType": "uint256",
          "name": "_expiry",
          "type": "uint256"
        }
      ],
      "name": "addLimitOrder",
      "outputs": [],
      "stateMutability": "nonpayable",
      "type": "function"
    },
    {
      "inputs": [
        {
          "internalType": "address",
          "name": "_asset",
          "type": "address"
        },
        {
          "components": [
            {
              "internalType": "uint256",
              "name": "d",
              "type": "uint256"
            }
          ],
          "internalType": "struct Decimal.decimal",
          "name": "_limitPrice",
          "type": "tuple"
        },
        {
          "components": [
            {
              "internalType": "uint256",
              "name": "d",
              "type": "uint256"
            }
          ],
          "internalType": "struct Decimal.decimal",
          "name": "_stopPrice",
          "type": "tuple"
        },
        {
          "components": [
            {
              "internalType": "int256",
              "name": "d",
              "type": "int256"
            }
          ],
          "internalType": "struct SignedDecimal.signedDecimal",
          "name": "_positionSize",
          "type": "tuple"
        },
        {
          "components": [
            {
              "internalType": "uint256",
              "name": "d",
              "type": "uint256"
            }
          ],
          "internalType": "struct Decimal.decimal",
          "name": "_collateral",
          "type": "tuple"
        },
        {
          "components": [
            {
              "internalType": "uint256",
              "name": "d",
              "type": "uint256"
            }
          ],
          "internalType": "struct Decimal.decimal",
          "name": "_leverage",
          "type": "tuple"
        },
        {
          "components": [
            {
              "internalType": "uint256",
              "name": "d",
              "type": "uint256"
            }
          ],
          "internalType": "struct Decimal.decimal",
          "name": "_slippage",
          "type": "tuple"
        },
        {
          "components": [
            {
              "internalType": "uint256",
              "name": "d",
              "type": "uint256"
            }
          ],
          "internalType": "struct Decimal.decimal",
          "name": "_tipFee",
          "type": "tuple"
        },
        {
          "internalType": "bool",
          "name": "_reduceOnly",
          "type": "bool"
        },
        {
          "internalType": "uint256",
          "name": "_expiry",
          "type": "uint256"
        }
      ],
      "name": "addStopLimitOrder",
      "outputs": [],
      "stateMutability": "nonpayable",
      "type": "function"
    },
    {
      "inputs": [
        {
          "internalType": "address",
          "name": "_asset",
          "type": "address"
        },
        {
          "components": [
            {
              "internalType": "uint256",
              "name": "d",
              "type": "uint256"
            }
          ],
          "internalType": "struct Decimal.decimal",
          "name": "_stopPrice",
          "type": "tuple"
        },
        {
          "components": [
            {
              "internalType": "int256",
              "name": "d",
              "type": "int256"
            }
          ],
          "internalType": "struct SignedDecimal.signedDecimal",
          "name": "_positionSize",
          "type": "tuple"
        },
        {
          "components": [
            {
              "internalType": "uint256",
              "name": "d",
              "type": "uint256"
            }
          ],
          "internalType": "struct Decimal.decimal",
          "name": "_collateral",
          "type": "tuple"
        },
        {
          "components": [
            {
              "internalType": "uint256",
              "name": "d",
              "type": "uint256"
            }
          ],
          "internalType": "struct Decimal.decimal",
          "name": "_leverage",
          "type": "tuple"
        },
        {
          "components": [
            {
              "internalType": "uint256",
              "name": "d",
              "type": "uint256"
            }
          ],
          "internalType": "struct Decimal.decimal",
          "name": "_slippage",
          "type": "tuple"
        },
        {
          "components": [
            {
              "internalType": "uint256",
              "name": "d",
              "type": "uint256"
            }
          ],
          "internalType": "struct Decimal.decimal",
          "name": "_tipFee",
          "type": "tuple"
        },
        {
          "internalType": "bool",
          "name": "_reduceOnly",
          "type": "bool"
        },
        {
          "internalType": "uint256",
          "name": "_expiry",
          "type": "uint256"
        }
      ],
      "name": "addStopOrder",
      "outputs": [],
      "stateMutability": "nonpayable",
      "type": "function"
    },
    {
      "inputs": [
        {
          "internalType": "uint256",
          "name": "id",
          "type": "uint256"
        }
      ],
      "name": "execute",
      "outputs": [],
      "stateMutability": "nonpayable",
      "type": "function"
    },
    {
      "inputs": [],
      "name": "factory",
      "outputs": [
        {
          "internalType": "contract SmartWalletFactory",
          "name": "",
          "type": "address"
        }
      ],
      "stateMutability": "view",
      "type": "function"
    },
    {
      "inputs": [
        {
          "internalType": "uint256",
          "name": "id",
          "type": "uint256"
        }
      ],
      "name": "getLimitOrder",
      "outputs": [
        {
          "components": [
            {
              "internalType": "address",
              "name": "asset",
              "type": "address"
            },
            {
              "internalType": "address",
              "name": "trader",
              "type": "address"
            },
            {
              "internalType": "enum LimitOrderBook.OrderType",
              "name": "orderType",
              "type": "uint8"
            },
            {
              "internalType": "bool",
              "name": "reduceOnly",
              "type": "bool"
            },
            {
              "internalType": "bool",
              "name": "stillValid",
              "type": "bool"
            },
            {
              "internalType": "uint256",
              "name": "expiry",
              "type": "uint256"
            },
            {
              "components": [
                {
                  "internalType": "uint256",
                  "name": "d",
                  "type": "uint256"
                }
              ],
              "internalType": "struct Decimal.decimal",
              "name": "limitPrice",
              "type": "tuple"
            },
            {
              "components": [
                {
                  "internalType": "uint256",
                  "name": "d",
                  "type": "uint256"
                }
              ],
              "internalType": "struct Decimal.decimal",
              "name": "stopPrice",
              "type": "tuple"
            },
            {
              "components": [
                {
                  "internalType": "int256",
                  "name": "d",
                  "type": "int256"
                }
              ],
              "internalType": "struct SignedDecimal.signedDecimal",
              "name": "orderSize",
              "type": "tuple"
            },
            {
              "components": [
                {
                  "internalType": "uint256",
                  "name": "d",
                  "type": "uint256"
                }
              ],
              "internalType": "struct Decimal.decimal",
              "name": "collateral",
              "type": "tuple"
            },
            {
              "components": [
                {
                  "internalType": "uint256",
                  "name": "d",
                  "type": "uint256"
                }
              ],
              "internalType": "struct Decimal.decimal",
              "name": "leverage",
              "type": "tuple"
            },
            {
              "components": [
                {
                  "internalType": "uint256",
                  "name": "d",
                  "type": "uint256"
                }
              ],
              "internalType": "struct Decimal.decimal",
              "name": "slippage",
              "type": "tuple"
            },
            {
              "components": [
                {
                  "internalType": "uint256",
                  "name": "d",
                  "type": "uint256"
                }
              ],
              "internalType": "struct Decimal.decimal",
              "name": "tipFee",
              "type": "tuple"
            }
          ],
          "internalType": "struct LimitOrderBook.LimitOrder",
          "name": "",
          "type": "tuple"
        }
      ],
      "stateMutability": "view",
      "type": "function"
    },
    {
      "inputs": [
        {
          "internalType": "uint256",
          "name": "id",
          "type": "uint256"
        }
      ],
      "name": "getLimitOrderParams",
      "outputs": [
        {
          "internalType": "address",
          "name": "",
          "type": "address"
        },
        {
          "internalType": "address",
          "name": "",
          "type": "address"
        },
        {
          "internalType": "enum LimitOrderBook.OrderType",
          "name": "",
          "type": "uint8"
        },
        {
          "internalType": "bool",
          "name": "",
          "type": "bool"
        },
        {
          "internalType": "bool",
          "name": "",
          "type": "bool"
        },
        {
          "internalType": "uint256",
          "name": "",
          "type": "uint256"
        }
      ],
      "stateMutability": "view",
      "type": "function"
    },
    {
      "inputs": [
        {
          "internalType": "uint256",
          "name": "id",
          "type": "uint256"
        }
      ],
      "name": "getLimitOrderPrices",
      "outputs": [
        {
          "components": [
            {
              "internalType": "uint256",
              "name": "d",
              "type": "uint256"
            }
          ],
          "internalType": "struct Decimal.decimal",
          "name": "",
          "type": "tuple"
        },
        {
          "components": [
            {
              "internalType": "uint256",
              "name": "d",
              "type": "uint256"
            }
          ],
          "internalType": "struct Decimal.decimal",
          "name": "",
          "type": "tuple"
        },
        {
          "components": [
            {
              "internalType": "int256",
              "name": "d",
              "type": "int256"
            }
          ],
          "internalType": "struct SignedDecimal.signedDecimal",
          "name": "",
          "type": "tuple"
        },
        {
          "components": [
            {
              "internalType": "uint256",
              "name": "d",
              "type": "uint256"
            }
          ],
          "internalType": "struct Decimal.decimal",
          "name": "",
          "type": "tuple"
        },
        {
          "components": [
            {
              "internalType": "uint256",
              "name": "d",
              "type": "uint256"
            }
          ],
          "internalType": "struct Decimal.decimal",
          "name": "",
          "type": "tuple"
        },
        {
          "components": [
            {
              "internalType": "uint256",
              "name": "d",
              "type": "uint256"
            }
          ],
          "internalType": "struct Decimal.decimal",
          "name": "",
          "type": "tuple"
        },
        {
          "components": [
            {
              "internalType": "uint256",
              "name": "d",
              "type": "uint256"
            }
          ],
          "internalType": "struct Decimal.decimal",
          "name": "",
          "type": "tuple"
        }
      ],
      "stateMutability": "view",
      "type": "function"
    },
    {
      "inputs": [
        {
          "internalType": "uint256",
          "name": "",
          "type": "uint256"
        }
      ],
      "name": "orders",
      "outputs": [
        {
          "internalType": "address",
          "name": "asset",
          "type": "address"
        },
        {
          "internalType": "address",
          "name": "trader",
          "type": "address"
        },
        {
          "internalType": "enum LimitOrderBook.OrderType",
          "name": "orderType",
          "type": "uint8"
        },
        {
          "internalType": "bool",
          "name": "reduceOnly",
          "type": "bool"
        },
        {
          "internalType": "bool",
          "name": "stillValid",
          "type": "bool"
        },
        {
          "internalType": "uint256",
          "name": "expiry",
          "type": "uint256"
        },
        {
          "components": [
            {
              "internalType": "uint256",
              "name": "d",
              "type": "uint256"
            }
          ],
          "internalType": "struct Decimal.decimal",
          "name": "limitPrice",
          "type": "tuple"
        },
        {
          "components": [
            {
              "internalType": "uint256",
              "name": "d",
              "type": "uint256"
            }
          ],
          "internalType": "struct Decimal.decimal",
          "name": "stopPrice",
          "type": "tuple"
        },
        {
          "components": [
            {
              "internalType": "int256",
              "name": "d",
              "type": "int256"
            }
          ],
          "internalType": "struct SignedDecimal.signedDecimal",
          "name": "orderSize",
          "type": "tuple"
        },
        {
          "components": [
            {
              "internalType": "uint256",
              "name": "d",
              "type": "uint256"
            }
          ],
          "internalType": "struct Decimal.decimal",
          "name": "collateral",
          "type": "tuple"
        },
        {
          "components": [
            {
              "internalType": "uint256",
              "name": "d",
              "type": "uint256"
            }
          ],
          "internalType": "struct Decimal.decimal",
          "name": "leverage",
          "type": "tuple"
        },
        {
          "components": [
            {
              "internalType": "uint256",
              "name": "d",
              "type": "uint256"
            }
          ],
          "internalType": "struct Decimal.decimal",
          "name": "slippage",
          "type": "tuple"
        },
        {
          "components": [
            {
              "internalType": "uint256",
              "name": "d",
              "type": "uint256"
            }
          ],
          "internalType": "struct Decimal.decimal",
          "name": "tipFee",
          "type": "tuple"
        }
      ],
      "stateMutability": "view",
      "type": "function"
    },
    {
      "inputs": [],
      "name": "owner",
      "outputs": [
        {
          "internalType": "address",
          "name": "",
          "type": "address"
        }
      ],
      "stateMutability": "view",
      "type": "function"
    },
    {
      "inputs": [],
      "name": "renounceOwnership",
      "outputs": [],
      "stateMutability": "nonpayable",
      "type": "function"
    },
    {
      "inputs": [
        {
          "internalType": "address",
          "name": "_addr",
          "type": "address"
        }
      ],
      "name": "setFactory",
      "outputs": [],
      "stateMutability": "nonpayable",
      "type": "function"
    },
    {
      "inputs": [
        {
          "internalType": "address",
          "name": "newOwner",
          "type": "address"
        }
      ],
      "name": "transferOwnership",
      "outputs": [],
      "stateMutability": "nonpayable",
      "type": "function"
    }
  ],
  "bytecode": "0x608060405234801561001057600080fd5b5060006100246001600160e01b0361007316565b600080546001600160a01b0319166001600160a01b0383169081178255604051929350917f8be0079c531659141344cd1fd0a4f28419497f9722a3daafe3b4186f6b6457e0908290a350610077565b3390565b612285806100866000396000f3fe608060405234801561001057600080fd5b50600436106100df5760003560e01c806386f896421161008c578063c45a015511610066578063c45a0155146101c9578063e36a2dc0146101d1578063f2fde38b146101f7578063fe0d94c11461020a576100df565b806386f89642146101755780638da5cb5b14610188578063a85c38ef1461019d576100df565b806353061026116100bd578063530610261461013a5780635bb478081461015a578063715018a61461016d576100df565b8063032e4f6e146100e45780632736f620146100f95780634c5789e31461010c575b600080fd5b6100f76100f2366004611ada565b61021d565b005b6100f7610107366004611ada565b61047b565b61011f61011a366004611ba2565b6105ae565b60405161013196959493929190611c28565b60405180910390f35b61014d610148366004611ba2565b610756565b60405161013191906120c7565b6100f76101683660046119e3565b6108bc565b6100f761092a565b6100f7610183366004611a1b565b6109c0565b610190610c48565b6040516101319190611c14565b6101b06101ab366004611ba2565b610c57565b6040516101319d9c9b9a99989796959493929190611c6a565b610190610d25565b6101e46101df366004611ba2565b610d34565b60405161013197969594939291906121c6565b6100f76102053660046119e3565b610f20565b6100f7610218366004611ba2565b610fed565b80158061022957508042105b61024e5760405162461bcd60e51b815260040161024590611e42565b60405180910390fd5b604080516101a0810182526001600160a01b038b16815233602082015260349181016002815284151560208201526001604082015260608101849052608001610295611274565b815260208082018c905260408083018c9052606083018b9052608083018a905260a0830189905260c09092018790528354600180820186556000958652948290208451600a90920201805473ffffffffffffffffffffffffffffffffffffffff199081166001600160a01b03938416178255928501519581018054909316959091169490941780825591830151929392917fffffffffffffffffffffff00ffffffffffffffffffffffffffffffffffffffff16600160a01b83600381111561035957fe5b0217905550606082015160018201805460808501511515600160b01b027fffffffffffffffffff00ffffffffffffffffffffffffffffffffffffffffffff931515600160a81b027fffffffffffffffffffff00ffffffffffffffffffffffffffffffffffffffffff909216919091179290921691909117905560a0820151600282015560c082015151600382015560e0820151516004820155610100820151516005820155610120820151516006820155610140820151516007820155610160820151516008820155610180909101515160099091015560345460405133917fcb0c37c16aa3b0bbb7a817932094d8a20a00996d426a813f067039f0ef87ab07916104689160001901906121f7565b60405180910390a2505050505050505050565b80158061048757508042105b6104a35760405162461bcd60e51b815260040161024590611e42565b604080516101a0810182526001600160a01b038b16815233602082015260349181016001815260200184151581526020016001151581526020018381526020018a81526020016104f1611274565b815260208082018b905260408083018b9052606083018a90526080830189905260a09092018790528354600180820186556000958652948290208451600a90920201805473ffffffffffffffffffffffffffffffffffffffff199081166001600160a01b03938416178255928501519581018054909316959091169490941780825591830151929392917fffffffffffffffffffffff00ffffffffffffffffffffffffffffffffffffffff16600160a01b83600381111561035957fe5b6000806000806000808660348054905081106105dc5760405162461bcd60e51b815260040161024590611fa1565b6105e4611902565b603489815481106105f157fe5b6000918252602091829020604080516101a081018252600a90930290910180546001600160a01b03908116845260018201549081169484019490945291929083019060ff600160a01b90910416600381111561064957fe5b600381111561065457fe5b8152600182015460ff600160a81b820481161515602080850191909152600160b01b90920416151560408084019190915260028401546060808501919091528151808401835260038601548152608080860191909152825180850184526004870154815260a080870191909152835180860185526005880154815260c0870152835180860185526006880154815260e087015283518086018552600788015481526101008701528351808601855260088801548152610120870152835180860185526009909701548752610140909501959095528551928601519186015190860151948601519590930151919e909d50919b5091995091975095509350505050565b61075e611902565b603454829081106107815760405162461bcd60e51b815260040161024590611fa1565b6034838154811061078e57fe5b6000918252602091829020604080516101a081018252600a90930290910180546001600160a01b03908116845260018201549081169484019490945291929083019060ff600160a01b9091041660038111156107e657fe5b60038111156107f157fe5b8152600182015460ff600160a81b820481161515602080850191909152600160b01b9092041615156040808401919091526002840154606084015280518083018252600385015481526080840152805180830182526004850154815260a0840152805180830182526005850154815260c0840152805180830182526006850154815260e0840152805180830182526007850154815261010084015280518083018252600885015481526101208401528051918201905260099092015482526101400152915050919050565b6108c461128f565b6001600160a01b03166108d5610c48565b6001600160a01b0316146108fb5760405162461bcd60e51b815260040161024590612035565b6035805473ffffffffffffffffffffffffffffffffffffffff19166001600160a01b0392909216919091179055565b61093261128f565b6001600160a01b0316610943610c48565b6001600160a01b0316146109695760405162461bcd60e51b815260040161024590612035565b600080546040516001600160a01b03909116907f8be0079c531659141344cd1fd0a4f28419497f9722a3daafe3b4186f6b6457e0908390a36000805473ffffffffffffffffffffffffffffffffffffffff19169055565b8015806109cc57508042105b6109e85760405162461bcd60e51b815260040161024590611e42565b604080516101a0810182526001600160a01b038c8116825233602083019081526003938301848152861515606085015260016080850181905260a0850187905260c085018f905260e085018e905261010085018d905261012085018c905261014085018b905261016085018a905261018085018990526034805491820181556000528451600a9091027f46bddb1178e94d7f2892ff5f366840eb658911794f2c3a44c450aa2c505186c18101805492861673ffffffffffffffffffffffffffffffffffffffff1993841617815593517f46bddb1178e94d7f2892ff5f366840eb658911794f2c3a44c450aa2c505186c290910180549190951691161780845590519394919392917fffffffffffffffffffffff00ffffffffffffffffffffffffffffffffffffffff90911690600160a01b908490811115610b2557fe5b0217905550606082015160018201805460808501511515600160b01b027fffffffffffffffffff00ffffffffffffffffffffffffffffffffffffffffffff931515600160a81b027fffffffffffffffffffff00ffffffffffffffffffffffffffffffffffffffffff909216919091179290921691909117905560a0820151600282015560c082015151600382015560e0820151516004820155610100820151516005820155610120820151516006820155610140820151516007820155610160820151516008820155610180909101515160099091015560345460405133917fcb0c37c16aa3b0bbb7a817932094d8a20a00996d426a813f067039f0ef87ab0791610c349160001901906121f7565b60405180910390a250505050505050505050565b6000546001600160a01b031690565b60348181548110610c6457fe5b6000918252602091829020600a9091020180546001820154600283015460408051808701825260038601548152815180880183526004870154815282518089018452600588015481528351808a018552600689015481528451808b01865260078a015481528551808c01875260088b0154815286519b8c019096526009909901548a526001600160a01b039788169a509686169860ff600160a01b8804811699600160a81b8904821699600160b01b9099049091169794959394929390918d565b6035546001600160a01b031681565b610d3c611993565b610d44611993565b610d4c611993565b610d54611993565b610d5c611993565b610d64611993565b610d6c611993565b60345488908110610d8f5760405162461bcd60e51b815260040161024590611fa1565b610d97611902565b60348a81548110610da457fe5b6000918252602091829020604080516101a081018252600a90930290910180546001600160a01b03908116845260018201549081169484019490945291929083019060ff600160a01b909104166003811115610dfc57fe5b6003811115610e0757fe5b8152600182015460ff600160a81b820481161515602080850191909152600160b01b9092041615156040808401919091526002840154606084015280518083018252600385015481526080840152805180830182526004850154815260a0840152805180830182526005850154815260c080850191909152815180840183526006860154815260e08086019190915282518085018452600787015481526101008087019190915283518086018552600888015481526101208088019190915284519586019094526009909601548452610140948501939093528501519185015193850151908501519285015161016086015161018090960151929e50939c509a5090985090965090945092505050919395979092949650565b610f2861128f565b6001600160a01b0316610f39610c48565b6001600160a01b031614610f5f5760405162461bcd60e51b815260040161024590612035565b6001600160a01b038116610f855760405162461bcd60e51b815260040161024590611d77565b600080546040516001600160a01b03808516939216917f8be0079c531659141344cd1fd0a4f28419497f9722a3daafe3b4186f6b6457e091a36000805473ffffffffffffffffffffffffffffffffffffffff19166001600160a01b0392909216919091179055565b603454819081106110105760405162461bcd60e51b815260040161024590611fa1565b6034828154811061101d57fe5b90600052602060002090600a020160010160169054906101000a900460ff166110585760405162461bcd60e51b815260040161024590611dd4565b603554603480546000926001600160a01b03169163a0b73881918690811061107c57fe5b600091825260209091206001600a9092020101546040517fffffffff0000000000000000000000000000000000000000000000000000000060e084901b1681526110d2916001600160a01b031690600401611c14565b60206040518083038186803b1580156110ea57600080fd5b505afa1580156110fe573d6000803e3d6000fd5b505050506040513d601f19601f8201168201806040525081019061112291906119ff565b90506000816001600160a01b03166394f61134856040518263ffffffff1660e01b815260040161115291906121f7565b602060405180830381600087803b15801561116c57600080fd5b505af1158015611180573d6000803e3d6000fd5b505050506040513d601f19601f820116820180604052508101906111a49190611b86565b9050801561126e576111ea6040518060400160405280601481526020017f2d5375636365737366756c6c792063616c6c6564000000000000000000000000815250611293565b61123673ddafbb505ad214d7b80b1f830fccc89b60fb7a8383336034888154811061121157fe5b60009182526020918290206040805193840190526009600a9092020101548152611307565b60006034858154811061124557fe5b90600052602060002090600a020160010160166101000a81548160ff0219169083151502179055505b50505050565b61127c611993565b5060408051602081019091526000815290565b3390565b611304816040516024016112a79190611d44565b60408051601f198184030181529190526020810180517bffffffffffffffffffffffffffffffffffffffffffffffffffffffff167f41304fac00000000000000000000000000000000000000000000000000000000179052611466565b50565b61131084611487565b611318611993565b61132285846114d4565b90506000611330868461156a565b905060006060876001600160a01b03166323b872dd60e01b88888660405160240161135d93929190611d20565b60408051601f198184030181529181526020820180517bffffffffffffffffffffffffffffffffffffffffffffffffffffffff167fffffffff000000000000000000000000000000000000000000000000000000009094169390931790925290516113c89190611bf8565b6000604051808303816000865af19150503d8060008114611405576040519150601f19603f3d011682016040523d82523d6000602084013e61140a565b606091505b50915091508180156114345750805115806114345750808060200190518101906114349190611b86565b6114505760405162461bcd60e51b815260040161024590611f44565b61145c888785876115e8565b5050505050505050565b80516a636f6e736f6c652e6c6f67602083016000808483855afa5050505050565b60006114928261163b565b6001600160a01b03831660009081526001602052604090205490915081146114d0576001600160a01b03821660009081526001602052604090208190555b5050565b6114dc611993565b61156183846001600160a01b03166370a08231856040518263ffffffff1660e01b815260040161150c9190611c14565b60206040518083038186803b15801561152457600080fd5b505afa158015611538573d6000803e3d6000fd5b505050506040513d601f19601f8201168201806040525081019061155c9190611bba565b611756565b90505b92915050565b6000806115768461163b565b9050601281106115b4576115ac61159482601263ffffffff6117e816565b600a0a6115a085611810565b9063ffffffff61181416565b915050611564565b6115e06115c860128363ffffffff6117e816565b600a0a6115d485611810565b9063ffffffff61184e16565b949350505050565b61161b6116056115f88685611756565b839063ffffffff61188016565b61160f86866114d4565b9063ffffffff6118ac16565b60000b1561126e5760405162461bcd60e51b81526004016102459061206a565b6001600160a01b038116600090815260016020526040812054806115645760408051600481526024810182526020810180517bffffffffffffffffffffffffffffffffffffffffffffffffffffffff167f313ce5670000000000000000000000000000000000000000000000000000000017905290516000916060916001600160a01b038716916116cb91611bf8565b600060405180830381855afa9150503d8060008114611706576040519150601f19603f3d011682016040523d82523d6000602084013e61170b565b606091505b509150915081801561171d5750805115155b6117395760405162461bcd60e51b815260040161024590611ee7565b8080602001905181019061174d9190611bba565b95945050505050565b61175e611993565b60006117698461163b565b9050601281106117ae576040805160208101909152806117a361179384601263ffffffff6117e816565b8690600a0a63ffffffff61184e16565b815250915050611564565b6040805160208101909152806117de6117ce60128563ffffffff6117e816565b8690600a0a63ffffffff61181416565b9052949350505050565b60008282111561180a5760405162461bcd60e51b815260040161024590611e79565b50900390565b5190565b60008261182357506000611564565b8282028284828161183057fe5b04146115615760405162461bcd60e51b815260040161024590611fd8565b600080821161186f5760405162461bcd60e51b815260040161024590611eb0565b81838161187857fe5b049392505050565b611888611993565b611890611993565b825184516118a39163ffffffff6118dd16565b81529392505050565b8051825160009110156118c157506001611564565b8151835110156118d45750600019611564565b50600092915050565b6000828201838110156115615760405162461bcd60e51b815260040161024590611e0b565b604080516101a08101825260008082526020820181905290918201908152600060208201819052604082018190526060820152608001611940611993565b815260200161194d611993565b815260200161195a611993565b8152602001611967611993565b8152602001611974611993565b8152602001611981611993565b815260200161198e611993565b905290565b6040518060200160405280600081525090565b6000602082840312156119b7578081fd5b6040516020810181811067ffffffffffffffff821117156119d6578283fd5b6040529135825250919050565b6000602082840312156119f4578081fd5b81356115618161222c565b600060208284031215611a10578081fd5b81516115618161222c565b6000806000806000806000806000806101408b8d031215611a3a578586fd5b8a35611a458161222c565b9950611a548c60208d016119a6565b9850611a638c60408d016119a6565b9750611a728c60608d016119a6565b9650611a818c60808d016119a6565b9550611a908c60a08d016119a6565b9450611a9f8c60c08d016119a6565b9350611aae8c60e08d016119a6565b92506101008b0135611abf81612241565b809250506101208b013590509295989b9194979a5092959850565b60008060008060008060008060006101208a8c031215611af8578485fd5b8935611b038161222c565b9850611b128b60208c016119a6565b9750611b218b60408c016119a6565b9650611b308b60608c016119a6565b9550611b3f8b60808c016119a6565b9450611b4e8b60a08c016119a6565b9350611b5d8b60c08c016119a6565b925060e08a0135611b6d81612241565b809250506101008a013590509295985092959850929598565b600060208284031215611b97578081fd5b815161156181612241565b600060208284031215611bb3578081fd5b5035919050565b600060208284031215611bcb578081fd5b5051919050565b6001600160a01b03169052565b15159052565b60048110611bef57fe5b9052565b519052565b60008251611c0a818460208701612200565b9190910192915050565b6001600160a01b0391909116815260200190565b6001600160a01b0387811682528616602082015260c08101611c4d6040830187611be5565b9315156060820152911515608083015260a0909101529392505050565b6001600160a01b038e811682528d1660208201526101a0810160048d10611c8d57fe5b8c60408301528b15156060830152611ca8608083018c611bdf565b8960a0830152611cbb60c083018a611bf3565b611cc860e0830189611bf3565b611cd6610100830188611bf3565b611ce4610120830187611bf3565b611cf2610140830186611bf3565b611d00610160830185611bf3565b611d0e610180830184611bf3565b9e9d5050505050505050505050505050565b6001600160a01b039384168152919092166020820152604081019190915260600190565b6000602082528251806020840152611d63816040850160208701612200565b601f01601f19169190910160400192915050565b60208082526026908201527f4f776e61626c653a206e6577206f776e657220697320746865207a65726f206160408201527f6464726573730000000000000000000000000000000000000000000000000000606082015260800190565b6020808252600f908201527f4e6f206c6f6e6765722076616c69640000000000000000000000000000000000604082015260600190565b6020808252601b908201527f536166654d6174683a206164646974696f6e206f766572666c6f770000000000604082015260600190565b60208082526019908201527f4576656e742077696c6c2065787069726520696e207061737400000000000000604082015260600190565b6020808252601e908201527f536166654d6174683a207375627472616374696f6e206f766572666c6f770000604082015260600190565b6020808252601a908201527f536166654d6174683a206469766973696f6e206279207a65726f000000000000604082015260600190565b60208082526021908201527f446563696d616c45524332303a2067657420646563696d616c73206661696c6560408201527f6400000000000000000000000000000000000000000000000000000000000000606082015260800190565b60208082526021908201527f446563696d616c45524332303a207472616e7366657246726f6d206661696c6560408201527f6400000000000000000000000000000000000000000000000000000000000000606082015260800190565b6020808252600a908201527f496e76616c696420494400000000000000000000000000000000000000000000604082015260600190565b60208082526021908201527f536166654d6174683a206d756c7469706c69636174696f6e206f766572666c6f60408201527f7700000000000000000000000000000000000000000000000000000000000000606082015260800190565b6020808252818101527f4f776e61626c653a2063616c6c6572206973206e6f7420746865206f776e6572604082015260600190565b60208082526022908201527f446563696d616c45524332303a2062616c616e636520696e636f6e736973746560408201527f6e74000000000000000000000000000000000000000000000000000000000000606082015260800190565b60006101a0820190506120db828451611bd2565b60208301516120ed6020840182611bd2565b5060408301516121006040840182611be5565b5060608301516121136060840182611bdf565b5060808301516121266080840182611bdf565b5060a083015160a083015260c083015161214360c0840182611bf3565b5060e083015161215660e0840182611bf3565b506101008084015161216a82850182611bf3565b50506101208084015161217f82850182611bf3565b50506101408084015161219482850182611bf3565b5050610160808401516121a982850182611bf3565b5050610180808401516121be82850182611bf3565b505092915050565b965187529451602087015292516040860152905160608501525160808401525160a08301525160c082015260e00190565b90815260200190565b60005b8381101561221b578181015183820152602001612203565b8381111561126e5750506000910152565b6001600160a01b038116811461130457600080fd5b801515811461130457600080fdfea2646970667358221220beef2d14f58f70f4bf1027425036c715893392ac6cc727df6b225caaa6a9526c64736f6c63430006090033",
  "linkReferences": {},
  "deployedLinkReferences": {}
}