{
  "_format": "hh-sol-artifact-1",
  "contractName": "LimitOrderBook",
  "sourceName": "contracts/LimitOrderBook.sol",
  "abi": [
    {
      "inputs": [],
      "stateMutability": "nonpayable",
      "type": "constructor"
    },
    {
      "anonymous": false,
      "inputs": [
        {
          "indexed": true,
          "internalType": "address",
          "name": "trader",
          "type": "address"
        },
        {
          "indexed": false,
          "internalType": "uint256",
          "name": "order_id",
          "type": "uint256"
        }
      ],
      "name": "OrderCreated",
      "type": "event"
    },
    {
      "anonymous": false,
      "inputs": [
        {
          "indexed": true,
          "internalType": "address",
          "name": "previousOwner",
          "type": "address"
        },
        {
          "indexed": true,
          "internalType": "address",
          "name": "newOwner",
          "type": "address"
        }
      ],
      "name": "OwnershipTransferred",
      "type": "event"
    },
    {
      "inputs": [
        {
          "internalType": "address",
          "name": "_asset",
          "type": "address"
        },
        {
          "components": [
            {
              "internalType": "uint256",
              "name": "d",
              "type": "uint256"
            }
          ],
          "internalType": "struct Decimal.decimal",
          "name": "_limitPrice",
          "type": "tuple"
        },
        {
          "components": [
            {
              "internalType": "int256",
              "name": "d",
              "type": "int256"
            }
          ],
          "internalType": "struct SignedDecimal.signedDecimal",
          "name": "_positionSize",
          "type": "tuple"
        },
        {
          "components": [
            {
              "internalType": "uint256",
              "name": "d",
              "type": "uint256"
            }
          ],
          "internalType": "struct Decimal.decimal",
          "name": "_collateral",
          "type": "tuple"
        },
        {
          "components": [
            {
              "internalType": "uint256",
              "name": "d",
              "type": "uint256"
            }
          ],
          "internalType": "struct Decimal.decimal",
          "name": "_leverage",
          "type": "tuple"
        },
        {
          "components": [
            {
              "internalType": "uint256",
              "name": "d",
              "type": "uint256"
            }
          ],
          "internalType": "struct Decimal.decimal",
          "name": "_slippage",
          "type": "tuple"
        },
        {
          "components": [
            {
              "internalType": "uint256",
              "name": "d",
              "type": "uint256"
            }
          ],
          "internalType": "struct Decimal.decimal",
          "name": "_tipFee",
          "type": "tuple"
        },
        {
          "internalType": "bool",
          "name": "_reduceOnly",
          "type": "bool"
        },
        {
          "internalType": "uint256",
          "name": "_expiry",
          "type": "uint256"
        }
      ],
      "name": "addLimitOrder",
      "outputs": [],
      "stateMutability": "nonpayable",
      "type": "function"
    },
    {
      "inputs": [
        {
          "internalType": "address",
          "name": "_asset",
          "type": "address"
        },
        {
          "components": [
            {
              "internalType": "uint256",
              "name": "d",
              "type": "uint256"
            }
          ],
          "internalType": "struct Decimal.decimal",
          "name": "_limitPrice",
          "type": "tuple"
        },
        {
          "components": [
            {
              "internalType": "uint256",
              "name": "d",
              "type": "uint256"
            }
          ],
          "internalType": "struct Decimal.decimal",
          "name": "_stopPrice",
          "type": "tuple"
        },
        {
          "components": [
            {
              "internalType": "int256",
              "name": "d",
              "type": "int256"
            }
          ],
          "internalType": "struct SignedDecimal.signedDecimal",
          "name": "_positionSize",
          "type": "tuple"
        },
        {
          "components": [
            {
              "internalType": "uint256",
              "name": "d",
              "type": "uint256"
            }
          ],
          "internalType": "struct Decimal.decimal",
          "name": "_collateral",
          "type": "tuple"
        },
        {
          "components": [
            {
              "internalType": "uint256",
              "name": "d",
              "type": "uint256"
            }
          ],
          "internalType": "struct Decimal.decimal",
          "name": "_leverage",
          "type": "tuple"
        },
        {
          "components": [
            {
              "internalType": "uint256",
              "name": "d",
              "type": "uint256"
            }
          ],
          "internalType": "struct Decimal.decimal",
          "name": "_slippage",
          "type": "tuple"
        },
        {
          "components": [
            {
              "internalType": "uint256",
              "name": "d",
              "type": "uint256"
            }
          ],
          "internalType": "struct Decimal.decimal",
          "name": "_tipFee",
          "type": "tuple"
        },
        {
          "internalType": "bool",
          "name": "_reduceOnly",
          "type": "bool"
        },
        {
          "internalType": "uint256",
          "name": "_expiry",
          "type": "uint256"
        }
      ],
      "name": "addStopLimitOrder",
      "outputs": [],
      "stateMutability": "nonpayable",
      "type": "function"
    },
    {
      "inputs": [
        {
          "internalType": "address",
          "name": "_asset",
          "type": "address"
        },
        {
          "components": [
            {
              "internalType": "uint256",
              "name": "d",
              "type": "uint256"
            }
          ],
          "internalType": "struct Decimal.decimal",
          "name": "_stopPrice",
          "type": "tuple"
        },
        {
          "components": [
            {
              "internalType": "int256",
              "name": "d",
              "type": "int256"
            }
          ],
          "internalType": "struct SignedDecimal.signedDecimal",
          "name": "_positionSize",
          "type": "tuple"
        },
        {
          "components": [
            {
              "internalType": "uint256",
              "name": "d",
              "type": "uint256"
            }
          ],
          "internalType": "struct Decimal.decimal",
          "name": "_collateral",
          "type": "tuple"
        },
        {
          "components": [
            {
              "internalType": "uint256",
              "name": "d",
              "type": "uint256"
            }
          ],
          "internalType": "struct Decimal.decimal",
          "name": "_leverage",
          "type": "tuple"
        },
        {
          "components": [
            {
              "internalType": "uint256",
              "name": "d",
              "type": "uint256"
            }
          ],
          "internalType": "struct Decimal.decimal",
          "name": "_slippage",
          "type": "tuple"
        },
        {
          "components": [
            {
              "internalType": "uint256",
              "name": "d",
              "type": "uint256"
            }
          ],
          "internalType": "struct Decimal.decimal",
          "name": "_tipFee",
          "type": "tuple"
        },
        {
          "internalType": "bool",
          "name": "_reduceOnly",
          "type": "bool"
        },
        {
          "internalType": "uint256",
          "name": "_expiry",
          "type": "uint256"
        }
      ],
      "name": "addStopOrder",
      "outputs": [],
      "stateMutability": "nonpayable",
      "type": "function"
    },
    {
      "inputs": [
        {
          "internalType": "uint256",
          "name": "order_id",
          "type": "uint256"
        }
      ],
      "name": "deleteOrder",
      "outputs": [],
      "stateMutability": "nonpayable",
      "type": "function"
    },
    {
      "inputs": [
        {
          "internalType": "uint256",
          "name": "id",
          "type": "uint256"
        }
      ],
      "name": "execute",
      "outputs": [],
      "stateMutability": "nonpayable",
      "type": "function"
    },
    {
      "inputs": [],
      "name": "factory",
      "outputs": [
        {
          "internalType": "contract SmartWalletFactory",
          "name": "",
          "type": "address"
        }
      ],
      "stateMutability": "view",
      "type": "function"
    },
    {
      "inputs": [
        {
          "internalType": "uint256",
          "name": "order_id",
          "type": "uint256"
        }
      ],
      "name": "getLimitOrder",
      "outputs": [
        {
          "components": [
            {
              "internalType": "address",
              "name": "asset",
              "type": "address"
            },
            {
              "internalType": "address",
              "name": "trader",
              "type": "address"
            },
            {
              "internalType": "enum LimitOrderBook.OrderType",
              "name": "orderType",
              "type": "uint8"
            },
            {
              "internalType": "bool",
              "name": "reduceOnly",
              "type": "bool"
            },
            {
              "internalType": "bool",
              "name": "stillValid",
              "type": "bool"
            },
            {
              "internalType": "uint256",
              "name": "expiry",
              "type": "uint256"
            },
            {
              "components": [
                {
                  "internalType": "uint256",
                  "name": "d",
                  "type": "uint256"
                }
              ],
              "internalType": "struct Decimal.decimal",
              "name": "limitPrice",
              "type": "tuple"
            },
            {
              "components": [
                {
                  "internalType": "uint256",
                  "name": "d",
                  "type": "uint256"
                }
              ],
              "internalType": "struct Decimal.decimal",
              "name": "stopPrice",
              "type": "tuple"
            },
            {
              "components": [
                {
                  "internalType": "int256",
                  "name": "d",
                  "type": "int256"
                }
              ],
              "internalType": "struct SignedDecimal.signedDecimal",
              "name": "orderSize",
              "type": "tuple"
            },
            {
              "components": [
                {
                  "internalType": "uint256",
                  "name": "d",
                  "type": "uint256"
                }
              ],
              "internalType": "struct Decimal.decimal",
              "name": "collateral",
              "type": "tuple"
            },
            {
              "components": [
                {
                  "internalType": "uint256",
                  "name": "d",
                  "type": "uint256"
                }
              ],
              "internalType": "struct Decimal.decimal",
              "name": "leverage",
              "type": "tuple"
            },
            {
              "components": [
                {
                  "internalType": "uint256",
                  "name": "d",
                  "type": "uint256"
                }
              ],
              "internalType": "struct Decimal.decimal",
              "name": "slippage",
              "type": "tuple"
            },
            {
              "components": [
                {
                  "internalType": "uint256",
                  "name": "d",
                  "type": "uint256"
                }
              ],
              "internalType": "struct Decimal.decimal",
              "name": "tipFee",
              "type": "tuple"
            }
          ],
          "internalType": "struct LimitOrderBook.LimitOrder",
          "name": "",
          "type": "tuple"
        }
      ],
      "stateMutability": "view",
      "type": "function"
    },
    {
      "inputs": [
        {
          "internalType": "uint256",
          "name": "id",
          "type": "uint256"
        }
      ],
      "name": "getLimitOrderParams",
      "outputs": [
        {
          "internalType": "address",
          "name": "",
          "type": "address"
        },
        {
          "internalType": "address",
          "name": "",
          "type": "address"
        },
        {
          "internalType": "enum LimitOrderBook.OrderType",
          "name": "",
          "type": "uint8"
        },
        {
          "internalType": "bool",
          "name": "",
          "type": "bool"
        },
        {
          "internalType": "bool",
          "name": "",
          "type": "bool"
        },
        {
          "internalType": "uint256",
          "name": "",
          "type": "uint256"
        }
      ],
      "stateMutability": "view",
      "type": "function"
    },
    {
      "inputs": [
        {
          "internalType": "uint256",
          "name": "id",
          "type": "uint256"
        }
      ],
      "name": "getLimitOrderPrices",
      "outputs": [
        {
          "components": [
            {
              "internalType": "uint256",
              "name": "d",
              "type": "uint256"
            }
          ],
          "internalType": "struct Decimal.decimal",
          "name": "",
          "type": "tuple"
        },
        {
          "components": [
            {
              "internalType": "uint256",
              "name": "d",
              "type": "uint256"
            }
          ],
          "internalType": "struct Decimal.decimal",
          "name": "",
          "type": "tuple"
        },
        {
          "components": [
            {
              "internalType": "int256",
              "name": "d",
              "type": "int256"
            }
          ],
          "internalType": "struct SignedDecimal.signedDecimal",
          "name": "",
          "type": "tuple"
        },
        {
          "components": [
            {
              "internalType": "uint256",
              "name": "d",
              "type": "uint256"
            }
          ],
          "internalType": "struct Decimal.decimal",
          "name": "",
          "type": "tuple"
        },
        {
          "components": [
            {
              "internalType": "uint256",
              "name": "d",
              "type": "uint256"
            }
          ],
          "internalType": "struct Decimal.decimal",
          "name": "",
          "type": "tuple"
        },
        {
          "components": [
            {
              "internalType": "uint256",
              "name": "d",
              "type": "uint256"
            }
          ],
          "internalType": "struct Decimal.decimal",
          "name": "",
          "type": "tuple"
        },
        {
          "components": [
            {
              "internalType": "uint256",
              "name": "d",
              "type": "uint256"
            }
          ],
          "internalType": "struct Decimal.decimal",
          "name": "",
          "type": "tuple"
        }
      ],
      "stateMutability": "view",
      "type": "function"
    },
    {
      "inputs": [],
      "name": "getNextOrderId",
      "outputs": [
        {
          "internalType": "uint256",
          "name": "",
          "type": "uint256"
        }
      ],
      "stateMutability": "view",
      "type": "function"
    },
    {
      "inputs": [
        {
          "internalType": "uint256",
          "name": "order_id",
          "type": "uint256"
        },
        {
          "components": [
            {
              "internalType": "uint256",
              "name": "d",
              "type": "uint256"
            }
          ],
          "internalType": "struct Decimal.decimal",
          "name": "_limitPrice",
          "type": "tuple"
        },
        {
          "components": [
            {
              "internalType": "uint256",
              "name": "d",
              "type": "uint256"
            }
          ],
          "internalType": "struct Decimal.decimal",
          "name": "_stopPrice",
          "type": "tuple"
        },
        {
          "components": [
            {
              "internalType": "int256",
              "name": "d",
              "type": "int256"
            }
          ],
          "internalType": "struct SignedDecimal.signedDecimal",
          "name": "_orderSize",
          "type": "tuple"
        },
        {
          "components": [
            {
              "internalType": "uint256",
              "name": "d",
              "type": "uint256"
            }
          ],
          "internalType": "struct Decimal.decimal",
          "name": "_collateral",
          "type": "tuple"
        },
        {
          "components": [
            {
              "internalType": "uint256",
              "name": "d",
              "type": "uint256"
            }
          ],
          "internalType": "struct Decimal.decimal",
          "name": "_leverage",
          "type": "tuple"
        },
        {
          "components": [
            {
              "internalType": "uint256",
              "name": "d",
              "type": "uint256"
            }
          ],
          "internalType": "struct Decimal.decimal",
          "name": "_slippage",
          "type": "tuple"
        },
        {
          "components": [
            {
              "internalType": "uint256",
              "name": "d",
              "type": "uint256"
            }
          ],
          "internalType": "struct Decimal.decimal",
          "name": "_tipFee",
          "type": "tuple"
        },
        {
          "internalType": "bool",
          "name": "_reduceOnly",
          "type": "bool"
        },
        {
          "internalType": "uint256",
          "name": "_expiry",
          "type": "uint256"
        }
      ],
      "name": "modifyOrder",
      "outputs": [],
      "stateMutability": "nonpayable",
      "type": "function"
    },
    {
      "inputs": [
        {
          "internalType": "uint256",
          "name": "",
          "type": "uint256"
        }
      ],
      "name": "orders",
      "outputs": [
        {
          "internalType": "address",
          "name": "asset",
          "type": "address"
        },
        {
          "internalType": "address",
          "name": "trader",
          "type": "address"
        },
        {
          "internalType": "enum LimitOrderBook.OrderType",
          "name": "orderType",
          "type": "uint8"
        },
        {
          "internalType": "bool",
          "name": "reduceOnly",
          "type": "bool"
        },
        {
          "internalType": "bool",
          "name": "stillValid",
          "type": "bool"
        },
        {
          "internalType": "uint256",
          "name": "expiry",
          "type": "uint256"
        },
        {
          "components": [
            {
              "internalType": "uint256",
              "name": "d",
              "type": "uint256"
            }
          ],
          "internalType": "struct Decimal.decimal",
          "name": "limitPrice",
          "type": "tuple"
        },
        {
          "components": [
            {
              "internalType": "uint256",
              "name": "d",
              "type": "uint256"
            }
          ],
          "internalType": "struct Decimal.decimal",
          "name": "stopPrice",
          "type": "tuple"
        },
        {
          "components": [
            {
              "internalType": "int256",
              "name": "d",
              "type": "int256"
            }
          ],
          "internalType": "struct SignedDecimal.signedDecimal",
          "name": "orderSize",
          "type": "tuple"
        },
        {
          "components": [
            {
              "internalType": "uint256",
              "name": "d",
              "type": "uint256"
            }
          ],
          "internalType": "struct Decimal.decimal",
          "name": "collateral",
          "type": "tuple"
        },
        {
          "components": [
            {
              "internalType": "uint256",
              "name": "d",
              "type": "uint256"
            }
          ],
          "internalType": "struct Decimal.decimal",
          "name": "leverage",
          "type": "tuple"
        },
        {
          "components": [
            {
              "internalType": "uint256",
              "name": "d",
              "type": "uint256"
            }
          ],
          "internalType": "struct Decimal.decimal",
          "name": "slippage",
          "type": "tuple"
        },
        {
          "components": [
            {
              "internalType": "uint256",
              "name": "d",
              "type": "uint256"
            }
          ],
          "internalType": "struct Decimal.decimal",
          "name": "tipFee",
          "type": "tuple"
        }
      ],
      "stateMutability": "view",
      "type": "function"
    },
    {
      "inputs": [],
      "name": "owner",
      "outputs": [
        {
          "internalType": "address",
          "name": "",
          "type": "address"
        }
      ],
      "stateMutability": "view",
      "type": "function"
    },
    {
      "inputs": [],
      "name": "renounceOwnership",
      "outputs": [],
      "stateMutability": "nonpayable",
      "type": "function"
    },
    {
      "inputs": [
        {
          "internalType": "address",
          "name": "_addr",
          "type": "address"
        }
      ],
      "name": "setFactory",
      "outputs": [],
      "stateMutability": "nonpayable",
      "type": "function"
    },
    {
      "inputs": [
        {
          "internalType": "address",
          "name": "newOwner",
          "type": "address"
        }
      ],
      "name": "transferOwnership",
      "outputs": [],
      "stateMutability": "nonpayable",
      "type": "function"
    }
  ],
  "bytecode": "0x608060405234801561001057600080fd5b5060006100246001600160e01b0361007316565b600080546001600160a01b0319166001600160a01b0383169081178255604051929350917f8be0079c531659141344cd1fd0a4f28419497f9722a3daafe3b4186f6b6457e0908290a350610077565b3390565b6126a6806100866000396000f3fe608060405234801561001057600080fd5b50600436106101005760003560e01c806386f8964211610097578063c45a015511610066578063c45a015514610225578063e36a2dc01461022d578063f2fde38b14610253578063fe0d94c11461026657610100565b806386f89642146101be5780638da5cb5b146101d1578063a85c38ef146101e6578063b099b0dd1461021257610100565b806353061026116100d3578063530610261461016e5780635bb478081461018e578063715018a6146101a15780638158900b146101a957610100565b8063032e4f6e1461010557806311a003271461011a5780632736f6201461012d5780634c5789e314610140575b600080fd5b610118610113366004611e9c565b610279565b005b610118610128366004611f64565b6104d3565b61011861013b366004611e9c565b6105da565b61015361014e366004611f64565b610749565b6040516101659695949392919061201a565b60405180910390f35b61018161017c366004611f64565b6108f1565b60405161016591906124e8565b61011861019c366004611da5565b610a57565b610118610ac5565b6101b1610b5b565b6040516101659190612618565b6101186101cc366004611ddd565b610b61565b6101d9610de5565b6040516101659190612006565b6101f96101f4366004611f64565b610df4565b6040516101659d9c9b9a9998979695949392919061205c565b610118610220366004611f94565b610ec2565b6101d96110c9565b61024061023b366004611f64565b6110d8565b60405161016597969594939291906125e7565b610118610261366004611da5565b6112c4565b610118610274366004611f64565b611391565b80158061028557508042105b6102aa5760405162461bcd60e51b81526004016102a190612263565b60405180910390fd5b60345460405133917fcb0c37c16aa3b0bbb7a817932094d8a20a00996d426a813f067039f0ef87ab07916102de9190612618565b60405180910390a2604080516101a0810182526001600160a01b038b1681523360208201526034918101600281528415156020820152600160408201526060810184905260800161032d611618565b815260208082018c905260408083018c9052606083018b9052608083018a905260a0830189905260c09092018790528354600180820186556000958652948290208451600a90920201805473ffffffffffffffffffffffffffffffffffffffff199081166001600160a01b03938416178255928501519581018054909316959091169490941780825591830151929392917fffffffffffffffffffffff00ffffffffffffffffffffffffffffffffffffffff16600160a01b8360038111156103f157fe5b0217905550606082015160018201805460808501511515600160b01b027fffffffffffffffffff00ffffffffffffffffffffffffffffffffffffffffffff931515600160a81b027fffffffffffffffffffff00ffffffffffffffffffffffffffffffffffffffffff909216919091179290921691909117905560a0820151600282015560c082015151600382015560e08201515160048201556101008201515160058201556101208201515160068201556101408201515160078201556101608201515160088201556101809091015151600990910155505050505050505050565b80603481815481106104e157fe5b60009182526020909120600a90910201600101546001600160a01b0316331461051c5760405162461bcd60e51b81526004016102a190612161565b6034548290811061053f5760405162461bcd60e51b81526004016102a1906123c2565b6034838154811061054c57fe5b600091825260208220600a90910201805473ffffffffffffffffffffffffffffffffffffffff191681556001810180547fffffffffffffffffff00000000000000000000000000000000000000000000001690556002810182905560038101829055600481018290556005810182905560068101829055600781018290556008810182905560090155505050565b8015806105e657508042105b6106025760405162461bcd60e51b81526004016102a190612263565b60345460405133917fcb0c37c16aa3b0bbb7a817932094d8a20a00996d426a813f067039f0ef87ab07916106369190612618565b60405180910390a2604080516101a0810182526001600160a01b038b16815233602082015260349181016001815260200184151581526020016001151581526020018381526020018a815260200161068c611618565b815260208082018b905260408083018b9052606083018a90526080830189905260a09092018790528354600180820186556000958652948290208451600a90920201805473ffffffffffffffffffffffffffffffffffffffff199081166001600160a01b03938416178255928501519581018054909316959091169490941780825591830151929392917fffffffffffffffffffffff00ffffffffffffffffffffffffffffffffffffffff16600160a01b8360038111156103f157fe5b6000806000806000808660348054905081106107775760405162461bcd60e51b81526004016102a1906123c2565b61077f611cc4565b6034898154811061078c57fe5b6000918252602091829020604080516101a081018252600a90930290910180546001600160a01b03908116845260018201549081169484019490945291929083019060ff600160a01b9091041660038111156107e457fe5b60038111156107ef57fe5b8152600182015460ff600160a81b820481161515602080850191909152600160b01b90920416151560408084019190915260028401546060808501919091528151808401835260038601548152608080860191909152825180850184526004870154815260a080870191909152835180860185526005880154815260c0870152835180860185526006880154815260e087015283518086018552600788015481526101008701528351808601855260088801548152610120870152835180860185526009909701548752610140909501959095528551928601519186015190860151948601519590930151919e909d50919b5091995091975095509350505050565b6108f9611cc4565b6034548290811061091c5760405162461bcd60e51b81526004016102a1906123c2565b6034838154811061092957fe5b6000918252602091829020604080516101a081018252600a90930290910180546001600160a01b03908116845260018201549081169484019490945291929083019060ff600160a01b90910416600381111561098157fe5b600381111561098c57fe5b8152600182015460ff600160a81b820481161515602080850191909152600160b01b9092041615156040808401919091526002840154606084015280518083018252600385015481526080840152805180830182526004850154815260a0840152805180830182526005850154815260c0840152805180830182526006850154815260e0840152805180830182526007850154815261010084015280518083018252600885015481526101208401528051918201905260099092015482526101400152915050919050565b610a5f611633565b6001600160a01b0316610a70610de5565b6001600160a01b031614610a965760405162461bcd60e51b81526004016102a190612456565b6035805473ffffffffffffffffffffffffffffffffffffffff19166001600160a01b0392909216919091179055565b610acd611633565b6001600160a01b0316610ade610de5565b6001600160a01b031614610b045760405162461bcd60e51b81526004016102a190612456565b600080546040516001600160a01b03909116907f8be0079c531659141344cd1fd0a4f28419497f9722a3daafe3b4186f6b6457e0908390a36000805473ffffffffffffffffffffffffffffffffffffffff19169055565b60345490565b801580610b6d57508042105b610b895760405162461bcd60e51b81526004016102a190612263565b60345460405133917fcb0c37c16aa3b0bbb7a817932094d8a20a00996d426a813f067039f0ef87ab0791610bbd9190612618565b60405180910390a2604080516101a0810182526001600160a01b038c8116825233602083019081526003938301848152861515606085015260016080850181905260a0850187905260c085018f905260e085018e905261010085018d905261012085018c905261014085018b905261016085018a905261018085018990526034805491820181556000528451600a9091027f46bddb1178e94d7f2892ff5f366840eb658911794f2c3a44c450aa2c505186c18101805492861673ffffffffffffffffffffffffffffffffffffffff1993841617815593517f46bddb1178e94d7f2892ff5f366840eb658911794f2c3a44c450aa2c505186c290910180549190951691161780845590519394919392917fffffffffffffffffffffff00ffffffffffffffffffffffffffffffffffffffff90911690600160a01b908490811115610d0257fe5b0217905550606082015160018201805460808501511515600160b01b027fffffffffffffffffff00ffffffffffffffffffffffffffffffffffffffffffff931515600160a81b027fffffffffffffffffffff00ffffffffffffffffffffffffffffffffffffffffff909216919091179290921691909117905560a0820151600282015560c082015151600382015560e0820151516004820155610100820151516005820155610120820151516006820155610140820151516007820155610160820151516008820155610180909101515160099091015550505050505050505050565b6000546001600160a01b031690565b60348181548110610e0157fe5b6000918252602091829020600a9091020180546001820154600283015460408051808701825260038601548152815180880183526004870154815282518089018452600588015481528351808a018552600689015481528451808b01865260078a015481528551808c01875260088b0154815286519b8c019096526009909901548a526001600160a01b039788169a509686169860ff600160a01b8804811699600160a81b8904821699600160b01b9099049091169794959394929390918d565b8960348181548110610ed057fe5b60009182526020909120600a90910201600101546001600160a01b03163314610f0b5760405162461bcd60e51b81526004016102a190612161565b6034548b908110610f2e5760405162461bcd60e51b81526004016102a1906123c2565b8a60348d81548110610f3c57fe5b90600052602060002090600a0201600301600082015181600001559050508960348d81548110610f6857fe5b90600052602060002090600a0201600401600082015181600001559050508860348d81548110610f9457fe5b90600052602060002090600a0201600501600082015181600001559050508760348d81548110610fc057fe5b90600052602060002090600a0201600601600082015181600001559050508660348d81548110610fec57fe5b90600052602060002090600a0201600701600082015181600001559050508560348d8154811061101857fe5b90600052602060002090600a0201600801600082015181600001559050508460348d8154811061104457fe5b90600052602060002090600a0201600901600082015181600001559050508360348d8154811061107057fe5b90600052602060002090600a020160010160156101000a81548160ff0219169083151502179055508260348d815481106110a657fe5b90600052602060002090600a020160020181905550505050505050505050505050565b6035546001600160a01b031681565b6110e0611d55565b6110e8611d55565b6110f0611d55565b6110f8611d55565b611100611d55565b611108611d55565b611110611d55565b603454889081106111335760405162461bcd60e51b81526004016102a1906123c2565b61113b611cc4565b60348a8154811061114857fe5b6000918252602091829020604080516101a081018252600a90930290910180546001600160a01b03908116845260018201549081169484019490945291929083019060ff600160a01b9091041660038111156111a057fe5b60038111156111ab57fe5b8152600182015460ff600160a81b820481161515602080850191909152600160b01b9092041615156040808401919091526002840154606084015280518083018252600385015481526080840152805180830182526004850154815260a0840152805180830182526005850154815260c080850191909152815180840183526006860154815260e08086019190915282518085018452600787015481526101008087019190915283518086018552600888015481526101208088019190915284519586019094526009909601548452610140948501939093528501519185015193850151908501519285015161016086015161018090960151929e50939c509a5090985090965090945092505050919395979092949650565b6112cc611633565b6001600160a01b03166112dd610de5565b6001600160a01b0316146113035760405162461bcd60e51b81526004016102a190612456565b6001600160a01b0381166113295760405162461bcd60e51b81526004016102a190612198565b600080546040516001600160a01b03808516939216917f8be0079c531659141344cd1fd0a4f28419497f9722a3daafe3b4186f6b6457e091a36000805473ffffffffffffffffffffffffffffffffffffffff19166001600160a01b0392909216919091179055565b603454819081106113b45760405162461bcd60e51b81526004016102a1906123c2565b603482815481106113c157fe5b90600052602060002090600a020160010160169054906101000a900460ff166113fc5760405162461bcd60e51b81526004016102a1906121f5565b603554603480546000926001600160a01b03169163a0b73881918690811061142057fe5b600091825260209091206001600a9092020101546040517fffffffff0000000000000000000000000000000000000000000000000000000060e084901b168152611476916001600160a01b031690600401612006565b60206040518083038186803b15801561148e57600080fd5b505afa1580156114a2573d6000803e3d6000fd5b505050506040513d601f19601f820116820180604052508101906114c69190611dc1565b90506000816001600160a01b03166394f61134856040518263ffffffff1660e01b81526004016114f69190612618565b602060405180830381600087803b15801561151057600080fd5b505af1158015611524573d6000803e3d6000fd5b505050506040513d601f19601f820116820180604052508101906115489190611f48565b905080156116125761158e6040518060400160405280601481526020017f2d5375636365737366756c6c792063616c6c6564000000000000000000000000815250611637565b6115da73ddafbb505ad214d7b80b1f830fccc89b60fb7a838333603488815481106115b557fe5b60009182526020918290206040805193840190526009600a90920201015481526116ab565b6000603485815481106115e957fe5b90600052602060002090600a020160010160166101000a81548160ff0219169083151502179055505b50505050565b611620611d55565b5060408051602081019091526000815290565b3390565b6116a88160405160240161164b919061212e565b60408051601f198184030181529190526020810180517bffffffffffffffffffffffffffffffffffffffffffffffffffffffff167f41304fac0000000000000000000000000000000000000000000000000000000017905261180a565b50565b6116b48461182b565b6116bc611d55565b6116c68584611878565b905060006116d4868461190e565b905060006060876001600160a01b03166323b872dd60e01b8888866040516024016117019392919061210a565b60408051601f198184030181529181526020820180517bffffffffffffffffffffffffffffffffffffffffffffffffffffffff167fffffffff0000000000000000000000000000000000000000000000000000000090941693909317909252905161176c9190611fea565b6000604051808303816000865af19150503d80600081146117a9576040519150601f19603f3d011682016040523d82523d6000602084013e6117ae565b606091505b50915091508180156117d85750805115806117d85750808060200190518101906117d89190611f48565b6117f45760405162461bcd60e51b81526004016102a190612365565b6118008887858761198c565b5050505050505050565b80516a636f6e736f6c652e6c6f67602083016000808483855afa5050505050565b6000611836826119df565b6001600160a01b0383166000908152600160205260409020549091508114611874576001600160a01b03821660009081526001602052604090208190555b5050565b611880611d55565b61190583846001600160a01b03166370a08231856040518263ffffffff1660e01b81526004016118b09190612006565b60206040518083038186803b1580156118c857600080fd5b505afa1580156118dc573d6000803e3d6000fd5b505050506040513d601f19601f820116820180604052508101906119009190611f7c565b611afa565b90505b92915050565b60008061191a846119df565b9050601281106119585761195061193882601263ffffffff611b8c16565b600a0a61194485611bb4565b9063ffffffff611bb816565b915050611908565b61198461196c60128363ffffffff611b8c16565b600a0a61197885611bb4565b9063ffffffff611bf216565b949350505050565b6119bf6119a961199c8685611afa565b839063ffffffff611c2416565b6119b38686611878565b9063ffffffff611c5016565b60000b156116125760405162461bcd60e51b81526004016102a19061248b565b6001600160a01b038116600090815260016020526040812054806119085760408051600481526024810182526020810180517bffffffffffffffffffffffffffffffffffffffffffffffffffffffff167f313ce5670000000000000000000000000000000000000000000000000000000017905290516000916060916001600160a01b03871691611a6f91611fea565b600060405180830381855afa9150503d8060008114611aaa576040519150601f19603f3d011682016040523d82523d6000602084013e611aaf565b606091505b5091509150818015611ac15750805115155b611add5760405162461bcd60e51b81526004016102a190612308565b80806020019051810190611af19190611f7c565b95945050505050565b611b02611d55565b6000611b0d846119df565b905060128110611b5257604080516020810190915280611b47611b3784601263ffffffff611b8c16565b8690600a0a63ffffffff611bf216565b815250915050611908565b604080516020810190915280611b82611b7260128563ffffffff611b8c16565b8690600a0a63ffffffff611bb816565b9052949350505050565b600082821115611bae5760405162461bcd60e51b81526004016102a19061229a565b50900390565b5190565b600082611bc757506000611908565b82820282848281611bd457fe5b04146119055760405162461bcd60e51b81526004016102a1906123f9565b6000808211611c135760405162461bcd60e51b81526004016102a1906122d1565b818381611c1c57fe5b049392505050565b611c2c611d55565b611c34611d55565b82518451611c479163ffffffff611c9f16565b81529392505050565b805182516000911015611c6557506001611908565b815183511015611c9657507fffffffffffffffffffffffffffffffffffffffffffffffffffffffffffffffff611908565b50600092915050565b6000828201838110156119055760405162461bcd60e51b81526004016102a19061222c565b604080516101a08101825260008082526020820181905290918201908152600060208201819052604082018190526060820152608001611d02611d55565b8152602001611d0f611d55565b8152602001611d1c611d55565b8152602001611d29611d55565b8152602001611d36611d55565b8152602001611d43611d55565b8152602001611d50611d55565b905290565b6040518060200160405280600081525090565b600060208284031215611d79578081fd5b6040516020810181811067ffffffffffffffff82111715611d98578283fd5b6040529135825250919050565b600060208284031215611db6578081fd5b81356119058161264d565b600060208284031215611dd2578081fd5b81516119058161264d565b6000806000806000806000806000806101408b8d031215611dfc578586fd5b8a35611e078161264d565b9950611e168c60208d01611d68565b9850611e258c60408d01611d68565b9750611e348c60608d01611d68565b9650611e438c60808d01611d68565b9550611e528c60a08d01611d68565b9450611e618c60c08d01611d68565b9350611e708c60e08d01611d68565b92506101008b0135611e8181612662565b809250506101208b013590509295989b9194979a5092959850565b60008060008060008060008060006101208a8c031215611eba578485fd5b8935611ec58161264d565b9850611ed48b60208c01611d68565b9750611ee38b60408c01611d68565b9650611ef28b60608c01611d68565b9550611f018b60808c01611d68565b9450611f108b60a08c01611d68565b9350611f1f8b60c08c01611d68565b925060e08a0135611f2f81612662565b809250506101008a013590509295985092959850929598565b600060208284031215611f59578081fd5b815161190581612662565b600060208284031215611f75578081fd5b5035919050565b600060208284031215611f8d578081fd5b5051919050565b6000806000806000806000806000806101408b8d031215611fb3578586fd5b8a359950611e168c60208d01611d68565b6001600160a01b03169052565b15159052565b60048110611fe157fe5b9052565b519052565b60008251611ffc818460208701612621565b9190910192915050565b6001600160a01b0391909116815260200190565b6001600160a01b0387811682528616602082015260c0810161203f6040830187611fd7565b9315156060820152911515608083015260a0909101529392505050565b6001600160a01b038e811682528d1660208201526101a08101612082604083018e611fd7565b8b151560608301528a151560808301528960a08301526120a560c083018a611fe5565b6120b260e0830189611fe5565b6120c0610100830188611fe5565b6120ce610120830187611fe5565b6120dc610140830186611fe5565b6120ea610160830185611fe5565b6120f8610180830184611fe5565b9e9d5050505050505050505050505050565b6001600160a01b039384168152919092166020820152604081019190915260600190565b600060208252825180602084015261214d816040850160208701612621565b601f01601f19169190910160400192915050565b60208082526014908201527f4e6f7420796f7572206c696d6974206f72646572000000000000000000000000604082015260600190565b60208082526026908201527f4f776e61626c653a206e6577206f776e657220697320746865207a65726f206160408201527f6464726573730000000000000000000000000000000000000000000000000000606082015260800190565b6020808252600f908201527f4e6f206c6f6e6765722076616c69640000000000000000000000000000000000604082015260600190565b6020808252601b908201527f536166654d6174683a206164646974696f6e206f766572666c6f770000000000604082015260600190565b60208082526019908201527f4576656e742077696c6c2065787069726520696e207061737400000000000000604082015260600190565b6020808252601e908201527f536166654d6174683a207375627472616374696f6e206f766572666c6f770000604082015260600190565b6020808252601a908201527f536166654d6174683a206469766973696f6e206279207a65726f000000000000604082015260600190565b60208082526021908201527f446563696d616c45524332303a2067657420646563696d616c73206661696c6560408201527f6400000000000000000000000000000000000000000000000000000000000000606082015260800190565b60208082526021908201527f446563696d616c45524332303a207472616e7366657246726f6d206661696c6560408201527f6400000000000000000000000000000000000000000000000000000000000000606082015260800190565b6020808252600a908201527f496e76616c696420494400000000000000000000000000000000000000000000604082015260600190565b60208082526021908201527f536166654d6174683a206d756c7469706c69636174696f6e206f766572666c6f60408201527f7700000000000000000000000000000000000000000000000000000000000000606082015260800190565b6020808252818101527f4f776e61626c653a2063616c6c6572206973206e6f7420746865206f776e6572604082015260600190565b60208082526022908201527f446563696d616c45524332303a2062616c616e636520696e636f6e736973746560408201527f6e74000000000000000000000000000000000000000000000000000000000000606082015260800190565b60006101a0820190506124fc828451611fc4565b602083015161250e6020840182611fc4565b5060408301516125216040840182611fd7565b5060608301516125346060840182611fd1565b5060808301516125476080840182611fd1565b5060a083015160a083015260c083015161256460c0840182611fe5565b5060e083015161257760e0840182611fe5565b506101008084015161258b82850182611fe5565b5050610120808401516125a082850182611fe5565b5050610140808401516125b582850182611fe5565b5050610160808401516125ca82850182611fe5565b5050610180808401516125df82850182611fe5565b505092915050565b965187529451602087015292516040860152905160608501525160808401525160a08301525160c082015260e00190565b90815260200190565b60005b8381101561263c578181015183820152602001612624565b838111156116125750506000910152565b6001600160a01b03811681146116a857600080fd5b80151581146116a857600080fdfea2646970667358221220ac6e3269813ee7ddf7126a0c7df8fb9768ceb8d1ab323578dc2e0954fa24985b64736f6c63430006090033",
  "linkReferences": {},
  "deployedLinkReferences": {}
}