{
  "_format": "hh-sol-artifact-1",
  "contractName": "LimitOrderBook",
  "sourceName": "contracts/LimitOrderBook.sol",
  "abi": [
    {
      "anonymous": false,
      "inputs": [
        {
          "indexed": true,
          "internalType": "address",
          "name": "trader",
          "type": "address"
        },
        {
          "indexed": false,
          "internalType": "uint256",
          "name": "order_id",
          "type": "uint256"
        }
      ],
      "name": "OrderCreated",
      "type": "event"
    },
    {
      "anonymous": false,
      "inputs": [
        {
          "indexed": true,
          "internalType": "address",
          "name": "previousOwner",
          "type": "address"
        },
        {
          "indexed": true,
          "internalType": "address",
          "name": "newOwner",
          "type": "address"
        }
      ],
      "name": "OwnershipTransferred",
      "type": "event"
    },
    {
      "inputs": [
        {
          "internalType": "address",
          "name": "_asset",
          "type": "address"
        },
        {
          "components": [
            {
              "internalType": "uint256",
              "name": "d",
              "type": "uint256"
            }
          ],
          "internalType": "struct Decimal.decimal",
          "name": "_limitPrice",
          "type": "tuple"
        },
        {
          "components": [
            {
              "internalType": "int256",
              "name": "d",
              "type": "int256"
            }
          ],
          "internalType": "struct SignedDecimal.signedDecimal",
          "name": "_positionSize",
          "type": "tuple"
        },
        {
          "components": [
            {
              "internalType": "uint256",
              "name": "d",
              "type": "uint256"
            }
          ],
          "internalType": "struct Decimal.decimal",
          "name": "_collateral",
          "type": "tuple"
        },
        {
          "components": [
            {
              "internalType": "uint256",
              "name": "d",
              "type": "uint256"
            }
          ],
          "internalType": "struct Decimal.decimal",
          "name": "_leverage",
          "type": "tuple"
        },
        {
          "components": [
            {
              "internalType": "uint256",
              "name": "d",
              "type": "uint256"
            }
          ],
          "internalType": "struct Decimal.decimal",
          "name": "_slippage",
          "type": "tuple"
        },
        {
          "components": [
            {
              "internalType": "uint256",
              "name": "d",
              "type": "uint256"
            }
          ],
          "internalType": "struct Decimal.decimal",
          "name": "_tipFee",
          "type": "tuple"
        },
        {
          "internalType": "bool",
          "name": "_reduceOnly",
          "type": "bool"
        },
        {
          "internalType": "uint256",
          "name": "_expiry",
          "type": "uint256"
        }
      ],
      "name": "addLimitOrder",
      "outputs": [],
      "stateMutability": "nonpayable",
      "type": "function"
    },
    {
      "inputs": [
        {
          "internalType": "address",
          "name": "_asset",
          "type": "address"
        },
        {
          "components": [
            {
              "internalType": "uint256",
              "name": "d",
              "type": "uint256"
            }
          ],
          "internalType": "struct Decimal.decimal",
          "name": "_stopPrice",
          "type": "tuple"
        },
        {
          "components": [
            {
              "internalType": "uint256",
              "name": "d",
              "type": "uint256"
            }
          ],
          "internalType": "struct Decimal.decimal",
          "name": "_limitPrice",
          "type": "tuple"
        },
        {
          "components": [
            {
              "internalType": "int256",
              "name": "d",
              "type": "int256"
            }
          ],
          "internalType": "struct SignedDecimal.signedDecimal",
          "name": "_positionSize",
          "type": "tuple"
        },
        {
          "components": [
            {
              "internalType": "uint256",
              "name": "d",
              "type": "uint256"
            }
          ],
          "internalType": "struct Decimal.decimal",
          "name": "_collateral",
          "type": "tuple"
        },
        {
          "components": [
            {
              "internalType": "uint256",
              "name": "d",
              "type": "uint256"
            }
          ],
          "internalType": "struct Decimal.decimal",
          "name": "_leverage",
          "type": "tuple"
        },
        {
          "components": [
            {
              "internalType": "uint256",
              "name": "d",
              "type": "uint256"
            }
          ],
          "internalType": "struct Decimal.decimal",
          "name": "_slippage",
          "type": "tuple"
        },
        {
          "components": [
            {
              "internalType": "uint256",
              "name": "d",
              "type": "uint256"
            }
          ],
          "internalType": "struct Decimal.decimal",
          "name": "_tipFee",
          "type": "tuple"
        },
        {
          "internalType": "bool",
          "name": "_reduceOnly",
          "type": "bool"
        },
        {
          "internalType": "uint256",
          "name": "_expiry",
          "type": "uint256"
        }
      ],
      "name": "addStopLimitOrder",
      "outputs": [],
      "stateMutability": "nonpayable",
      "type": "function"
    },
    {
      "inputs": [
        {
          "internalType": "address",
          "name": "_asset",
          "type": "address"
        },
        {
          "components": [
            {
              "internalType": "uint256",
              "name": "d",
              "type": "uint256"
            }
          ],
          "internalType": "struct Decimal.decimal",
          "name": "_stopPrice",
          "type": "tuple"
        },
        {
          "components": [
            {
              "internalType": "int256",
              "name": "d",
              "type": "int256"
            }
          ],
          "internalType": "struct SignedDecimal.signedDecimal",
          "name": "_positionSize",
          "type": "tuple"
        },
        {
          "components": [
            {
              "internalType": "uint256",
              "name": "d",
              "type": "uint256"
            }
          ],
          "internalType": "struct Decimal.decimal",
          "name": "_collateral",
          "type": "tuple"
        },
        {
          "components": [
            {
              "internalType": "uint256",
              "name": "d",
              "type": "uint256"
            }
          ],
          "internalType": "struct Decimal.decimal",
          "name": "_leverage",
          "type": "tuple"
        },
        {
          "components": [
            {
              "internalType": "uint256",
              "name": "d",
              "type": "uint256"
            }
          ],
          "internalType": "struct Decimal.decimal",
          "name": "_slippage",
          "type": "tuple"
        },
        {
          "components": [
            {
              "internalType": "uint256",
              "name": "d",
              "type": "uint256"
            }
          ],
          "internalType": "struct Decimal.decimal",
          "name": "_tipFee",
          "type": "tuple"
        },
        {
          "internalType": "bool",
          "name": "_reduceOnly",
          "type": "bool"
        },
        {
          "internalType": "uint256",
          "name": "_expiry",
          "type": "uint256"
        }
      ],
      "name": "addStopOrder",
      "outputs": [],
      "stateMutability": "nonpayable",
      "type": "function"
    },
    {
      "inputs": [
        {
          "internalType": "address",
          "name": "_asset",
          "type": "address"
        },
        {
          "components": [
            {
              "internalType": "uint256",
              "name": "d",
              "type": "uint256"
            }
          ],
          "internalType": "struct Decimal.decimal",
          "name": "_trail",
          "type": "tuple"
        },
        {
          "components": [
            {
              "internalType": "uint256",
              "name": "d",
              "type": "uint256"
            }
          ],
          "internalType": "struct Decimal.decimal",
          "name": "_gap",
          "type": "tuple"
        },
        {
          "components": [
            {
              "internalType": "int256",
              "name": "d",
              "type": "int256"
            }
          ],
          "internalType": "struct SignedDecimal.signedDecimal",
          "name": "_positionSize",
          "type": "tuple"
        },
        {
          "components": [
            {
              "internalType": "uint256",
              "name": "d",
              "type": "uint256"
            }
          ],
          "internalType": "struct Decimal.decimal",
          "name": "_collateral",
          "type": "tuple"
        },
        {
          "components": [
            {
              "internalType": "uint256",
              "name": "d",
              "type": "uint256"
            }
          ],
          "internalType": "struct Decimal.decimal",
          "name": "_leverage",
          "type": "tuple"
        },
        {
          "components": [
            {
              "internalType": "uint256",
              "name": "d",
              "type": "uint256"
            }
          ],
          "internalType": "struct Decimal.decimal",
          "name": "_slippage",
          "type": "tuple"
        },
        {
          "components": [
            {
              "internalType": "uint256",
              "name": "d",
              "type": "uint256"
            }
          ],
          "internalType": "struct Decimal.decimal",
          "name": "_tipFee",
          "type": "tuple"
        },
        {
          "internalType": "bool",
          "name": "_reduceOnly",
          "type": "bool"
        },
        {
          "internalType": "uint256",
          "name": "_expiry",
          "type": "uint256"
        }
      ],
      "name": "addTrailingStopLimitOrderAbs",
      "outputs": [
        {
          "internalType": "uint256",
          "name": "",
          "type": "uint256"
        }
      ],
      "stateMutability": "nonpayable",
      "type": "function"
    },
    {
      "inputs": [
        {
          "internalType": "address",
          "name": "_asset",
          "type": "address"
        },
        {
          "components": [
            {
              "internalType": "uint256",
              "name": "d",
              "type": "uint256"
            }
          ],
          "internalType": "struct Decimal.decimal",
          "name": "_trailPct",
          "type": "tuple"
        },
        {
          "components": [
            {
              "internalType": "uint256",
              "name": "d",
              "type": "uint256"
            }
          ],
          "internalType": "struct Decimal.decimal",
          "name": "_gapPct",
          "type": "tuple"
        },
        {
          "components": [
            {
              "internalType": "int256",
              "name": "d",
              "type": "int256"
            }
          ],
          "internalType": "struct SignedDecimal.signedDecimal",
          "name": "_positionSize",
          "type": "tuple"
        },
        {
          "components": [
            {
              "internalType": "uint256",
              "name": "d",
              "type": "uint256"
            }
          ],
          "internalType": "struct Decimal.decimal",
          "name": "_collateral",
          "type": "tuple"
        },
        {
          "components": [
            {
              "internalType": "uint256",
              "name": "d",
              "type": "uint256"
            }
          ],
          "internalType": "struct Decimal.decimal",
          "name": "_leverage",
          "type": "tuple"
        },
        {
          "components": [
            {
              "internalType": "uint256",
              "name": "d",
              "type": "uint256"
            }
          ],
          "internalType": "struct Decimal.decimal",
          "name": "_slippage",
          "type": "tuple"
        },
        {
          "components": [
            {
              "internalType": "uint256",
              "name": "d",
              "type": "uint256"
            }
          ],
          "internalType": "struct Decimal.decimal",
          "name": "_tipFee",
          "type": "tuple"
        },
        {
          "internalType": "bool",
          "name": "_reduceOnly",
          "type": "bool"
        },
        {
          "internalType": "uint256",
          "name": "_expiry",
          "type": "uint256"
        }
      ],
      "name": "addTrailingStopLimitOrderPct",
      "outputs": [
        {
          "internalType": "uint256",
          "name": "",
          "type": "uint256"
        }
      ],
      "stateMutability": "nonpayable",
      "type": "function"
    },
    {
      "inputs": [
        {
          "internalType": "address",
          "name": "_asset",
          "type": "address"
        },
        {
          "components": [
            {
              "internalType": "uint256",
              "name": "d",
              "type": "uint256"
            }
          ],
          "internalType": "struct Decimal.decimal",
          "name": "_trail",
          "type": "tuple"
        },
        {
          "components": [
            {
              "internalType": "int256",
              "name": "d",
              "type": "int256"
            }
          ],
          "internalType": "struct SignedDecimal.signedDecimal",
          "name": "_positionSize",
          "type": "tuple"
        },
        {
          "components": [
            {
              "internalType": "uint256",
              "name": "d",
              "type": "uint256"
            }
          ],
          "internalType": "struct Decimal.decimal",
          "name": "_collateral",
          "type": "tuple"
        },
        {
          "components": [
            {
              "internalType": "uint256",
              "name": "d",
              "type": "uint256"
            }
          ],
          "internalType": "struct Decimal.decimal",
          "name": "_leverage",
          "type": "tuple"
        },
        {
          "components": [
            {
              "internalType": "uint256",
              "name": "d",
              "type": "uint256"
            }
          ],
          "internalType": "struct Decimal.decimal",
          "name": "_slippage",
          "type": "tuple"
        },
        {
          "components": [
            {
              "internalType": "uint256",
              "name": "d",
              "type": "uint256"
            }
          ],
          "internalType": "struct Decimal.decimal",
          "name": "_tipFee",
          "type": "tuple"
        },
        {
          "internalType": "bool",
          "name": "_reduceOnly",
          "type": "bool"
        },
        {
          "internalType": "uint256",
          "name": "_expiry",
          "type": "uint256"
        }
      ],
      "name": "addTrailingStopMarketOrderAbs",
      "outputs": [
        {
          "internalType": "uint256",
          "name": "",
          "type": "uint256"
        }
      ],
      "stateMutability": "nonpayable",
      "type": "function"
    },
    {
      "inputs": [
        {
          "internalType": "address",
          "name": "_asset",
          "type": "address"
        },
        {
          "components": [
            {
              "internalType": "uint256",
              "name": "d",
              "type": "uint256"
            }
          ],
          "internalType": "struct Decimal.decimal",
          "name": "_trailPct",
          "type": "tuple"
        },
        {
          "components": [
            {
              "internalType": "int256",
              "name": "d",
              "type": "int256"
            }
          ],
          "internalType": "struct SignedDecimal.signedDecimal",
          "name": "_positionSize",
          "type": "tuple"
        },
        {
          "components": [
            {
              "internalType": "uint256",
              "name": "d",
              "type": "uint256"
            }
          ],
          "internalType": "struct Decimal.decimal",
          "name": "_collateral",
          "type": "tuple"
        },
        {
          "components": [
            {
              "internalType": "uint256",
              "name": "d",
              "type": "uint256"
            }
          ],
          "internalType": "struct Decimal.decimal",
          "name": "_leverage",
          "type": "tuple"
        },
        {
          "components": [
            {
              "internalType": "uint256",
              "name": "d",
              "type": "uint256"
            }
          ],
          "internalType": "struct Decimal.decimal",
          "name": "_slippage",
          "type": "tuple"
        },
        {
          "components": [
            {
              "internalType": "uint256",
              "name": "d",
              "type": "uint256"
            }
          ],
          "internalType": "struct Decimal.decimal",
          "name": "_tipFee",
          "type": "tuple"
        },
        {
          "internalType": "bool",
          "name": "_reduceOnly",
          "type": "bool"
        },
        {
          "internalType": "uint256",
          "name": "_expiry",
          "type": "uint256"
        }
      ],
      "name": "addTrailingStopMarketOrderPct",
      "outputs": [
        {
          "internalType": "uint256",
          "name": "",
          "type": "uint256"
        }
      ],
      "stateMutability": "nonpayable",
      "type": "function"
    },
    {
      "inputs": [
        {
          "internalType": "uint256",
          "name": "order_id",
          "type": "uint256"
        }
      ],
      "name": "deleteOrder",
      "outputs": [],
      "stateMutability": "nonpayable",
      "type": "function"
    },
    {
      "inputs": [
        {
          "internalType": "uint256",
          "name": "order_id",
          "type": "uint256"
        }
      ],
      "name": "execute",
      "outputs": [],
      "stateMutability": "nonpayable",
      "type": "function"
    },
    {
      "inputs": [],
      "name": "factory",
      "outputs": [
        {
          "internalType": "contract SmartWalletFactory",
          "name": "",
          "type": "address"
        }
      ],
      "stateMutability": "view",
      "type": "function"
    },
    {
      "inputs": [
        {
          "internalType": "uint256",
          "name": "order_id",
          "type": "uint256"
        }
      ],
      "name": "getLimitOrder",
      "outputs": [
        {
          "components": [
            {
              "internalType": "address",
              "name": "asset",
              "type": "address"
            },
            {
              "internalType": "address",
              "name": "trader",
              "type": "address"
            },
            {
              "internalType": "enum LimitOrderBook.OrderType",
              "name": "orderType",
              "type": "uint8"
            },
            {
              "internalType": "bool",
              "name": "reduceOnly",
              "type": "bool"
            },
            {
              "internalType": "bool",
              "name": "stillValid",
              "type": "bool"
            },
            {
              "internalType": "uint256",
              "name": "expiry",
              "type": "uint256"
            },
            {
              "components": [
                {
                  "internalType": "uint256",
                  "name": "d",
                  "type": "uint256"
                }
              ],
              "internalType": "struct Decimal.decimal",
              "name": "stopPrice",
              "type": "tuple"
            },
            {
              "components": [
                {
                  "internalType": "uint256",
                  "name": "d",
                  "type": "uint256"
                }
              ],
              "internalType": "struct Decimal.decimal",
              "name": "limitPrice",
              "type": "tuple"
            },
            {
              "components": [
                {
                  "internalType": "int256",
                  "name": "d",
                  "type": "int256"
                }
              ],
              "internalType": "struct SignedDecimal.signedDecimal",
              "name": "orderSize",
              "type": "tuple"
            },
            {
              "components": [
                {
                  "internalType": "uint256",
                  "name": "d",
                  "type": "uint256"
                }
              ],
              "internalType": "struct Decimal.decimal",
              "name": "collateral",
              "type": "tuple"
            },
            {
              "components": [
                {
                  "internalType": "uint256",
                  "name": "d",
                  "type": "uint256"
                }
              ],
              "internalType": "struct Decimal.decimal",
              "name": "leverage",
              "type": "tuple"
            },
            {
              "components": [
                {
                  "internalType": "uint256",
                  "name": "d",
                  "type": "uint256"
                }
              ],
              "internalType": "struct Decimal.decimal",
              "name": "slippage",
              "type": "tuple"
            },
            {
              "components": [
                {
                  "internalType": "uint256",
                  "name": "d",
                  "type": "uint256"
                }
              ],
              "internalType": "struct Decimal.decimal",
              "name": "tipFee",
              "type": "tuple"
            }
          ],
          "internalType": "struct LimitOrderBook.LimitOrder",
          "name": "",
          "type": "tuple"
        }
      ],
      "stateMutability": "view",
      "type": "function"
    },
    {
      "inputs": [
        {
          "internalType": "uint256",
          "name": "id",
          "type": "uint256"
        }
      ],
      "name": "getLimitOrderParams",
      "outputs": [
        {
          "internalType": "address",
          "name": "",
          "type": "address"
        },
        {
          "internalType": "address",
          "name": "",
          "type": "address"
        },
        {
          "internalType": "enum LimitOrderBook.OrderType",
          "name": "",
          "type": "uint8"
        },
        {
          "internalType": "bool",
          "name": "",
          "type": "bool"
        },
        {
          "internalType": "bool",
          "name": "",
          "type": "bool"
        },
        {
          "internalType": "uint256",
          "name": "",
          "type": "uint256"
        }
      ],
      "stateMutability": "view",
      "type": "function"
    },
    {
      "inputs": [
        {
          "internalType": "uint256",
          "name": "id",
          "type": "uint256"
        }
      ],
      "name": "getLimitOrderPrices",
      "outputs": [
        {
          "components": [
            {
              "internalType": "uint256",
              "name": "d",
              "type": "uint256"
            }
          ],
          "internalType": "struct Decimal.decimal",
          "name": "",
          "type": "tuple"
        },
        {
          "components": [
            {
              "internalType": "uint256",
              "name": "d",
              "type": "uint256"
            }
          ],
          "internalType": "struct Decimal.decimal",
          "name": "",
          "type": "tuple"
        },
        {
          "components": [
            {
              "internalType": "int256",
              "name": "d",
              "type": "int256"
            }
          ],
          "internalType": "struct SignedDecimal.signedDecimal",
          "name": "",
          "type": "tuple"
        },
        {
          "components": [
            {
              "internalType": "uint256",
              "name": "d",
              "type": "uint256"
            }
          ],
          "internalType": "struct Decimal.decimal",
          "name": "",
          "type": "tuple"
        },
        {
          "components": [
            {
              "internalType": "uint256",
              "name": "d",
              "type": "uint256"
            }
          ],
          "internalType": "struct Decimal.decimal",
          "name": "",
          "type": "tuple"
        },
        {
          "components": [
            {
              "internalType": "uint256",
              "name": "d",
              "type": "uint256"
            }
          ],
          "internalType": "struct Decimal.decimal",
          "name": "",
          "type": "tuple"
        },
        {
          "components": [
            {
              "internalType": "uint256",
              "name": "d",
              "type": "uint256"
            }
          ],
          "internalType": "struct Decimal.decimal",
          "name": "",
          "type": "tuple"
        }
      ],
      "stateMutability": "view",
      "type": "function"
    },
    {
      "inputs": [],
      "name": "getNextOrderId",
      "outputs": [
        {
          "internalType": "uint256",
          "name": "",
          "type": "uint256"
        }
      ],
      "stateMutability": "view",
      "type": "function"
    },
    {
      "inputs": [
        {
          "internalType": "contract IAmm",
          "name": "_asset",
          "type": "address"
        },
        {
          "internalType": "uint256",
          "name": "_snapshotIndex",
          "type": "uint256"
        }
      ],
      "name": "getPriceAtSnapshot",
      "outputs": [
        {
          "components": [
            {
              "internalType": "uint256",
              "name": "d",
              "type": "uint256"
            }
          ],
          "internalType": "struct Decimal.decimal",
          "name": "",
          "type": "tuple"
        }
      ],
      "stateMutability": "view",
      "type": "function"
    },
    {
      "inputs": [
        {
          "internalType": "uint256",
          "name": "order_id",
          "type": "uint256"
        }
      ],
      "name": "getTrailingData",
      "outputs": [
        {
          "components": [
            {
              "components": [
                {
                  "internalType": "uint256",
                  "name": "d",
                  "type": "uint256"
                }
              ],
              "internalType": "struct Decimal.decimal",
              "name": "witnessPrice",
              "type": "tuple"
            },
            {
              "components": [
                {
                  "internalType": "uint256",
                  "name": "d",
                  "type": "uint256"
                }
              ],
              "internalType": "struct Decimal.decimal",
              "name": "trail",
              "type": "tuple"
            },
            {
              "components": [
                {
                  "internalType": "uint256",
                  "name": "d",
                  "type": "uint256"
                }
              ],
              "internalType": "struct Decimal.decimal",
              "name": "trailPct",
              "type": "tuple"
            },
            {
              "components": [
                {
                  "internalType": "uint256",
                  "name": "d",
                  "type": "uint256"
                }
              ],
              "internalType": "struct Decimal.decimal",
              "name": "gap",
              "type": "tuple"
            },
            {
              "components": [
                {
                  "internalType": "uint256",
                  "name": "d",
                  "type": "uint256"
                }
              ],
              "internalType": "struct Decimal.decimal",
              "name": "gapPct",
              "type": "tuple"
            },
            {
              "internalType": "bool",
              "name": "usePct",
              "type": "bool"
            },
            {
              "internalType": "uint256",
              "name": "snapshotCreated",
              "type": "uint256"
            },
            {
              "internalType": "uint256",
              "name": "snapshotLastUpdated",
              "type": "uint256"
            },
            {
              "internalType": "address",
              "name": "lastUpdatedKeeper",
              "type": "address"
            }
          ],
          "internalType": "struct LimitOrderBook.TrailingOrderData",
          "name": "",
          "type": "tuple"
        }
      ],
      "stateMutability": "view",
      "type": "function"
    },
    {
      "inputs": [
        {
          "internalType": "uint256",
          "name": "order_id",
          "type": "uint256"
        },
        {
          "components": [
            {
              "internalType": "uint256",
              "name": "d",
              "type": "uint256"
            }
          ],
          "internalType": "struct Decimal.decimal",
          "name": "_stopPrice",
          "type": "tuple"
        },
        {
          "components": [
            {
              "internalType": "uint256",
              "name": "d",
              "type": "uint256"
            }
          ],
          "internalType": "struct Decimal.decimal",
          "name": "_limitPrice",
          "type": "tuple"
        },
        {
          "components": [
            {
              "internalType": "int256",
              "name": "d",
              "type": "int256"
            }
          ],
          "internalType": "struct SignedDecimal.signedDecimal",
          "name": "_orderSize",
          "type": "tuple"
        },
        {
          "components": [
            {
              "internalType": "uint256",
              "name": "d",
              "type": "uint256"
            }
          ],
          "internalType": "struct Decimal.decimal",
          "name": "_collateral",
          "type": "tuple"
        },
        {
          "components": [
            {
              "internalType": "uint256",
              "name": "d",
              "type": "uint256"
            }
          ],
          "internalType": "struct Decimal.decimal",
          "name": "_leverage",
          "type": "tuple"
        },
        {
          "components": [
            {
              "internalType": "uint256",
              "name": "d",
              "type": "uint256"
            }
          ],
          "internalType": "struct Decimal.decimal",
          "name": "_slippage",
          "type": "tuple"
        },
        {
          "components": [
            {
              "internalType": "uint256",
              "name": "d",
              "type": "uint256"
            }
          ],
          "internalType": "struct Decimal.decimal",
          "name": "_tipFee",
          "type": "tuple"
        },
        {
          "internalType": "bool",
          "name": "_reduceOnly",
          "type": "bool"
        },
        {
          "internalType": "uint256",
          "name": "_expiry",
          "type": "uint256"
        }
      ],
      "name": "modifyOrder",
      "outputs": [],
      "stateMutability": "nonpayable",
      "type": "function"
    },
    {
      "inputs": [
        {
          "internalType": "uint256",
          "name": "",
          "type": "uint256"
        }
      ],
      "name": "orders",
      "outputs": [
        {
          "internalType": "address",
          "name": "asset",
          "type": "address"
        },
        {
          "internalType": "address",
          "name": "trader",
          "type": "address"
        },
        {
          "internalType": "enum LimitOrderBook.OrderType",
          "name": "orderType",
          "type": "uint8"
        },
        {
          "internalType": "bool",
          "name": "reduceOnly",
          "type": "bool"
        },
        {
          "internalType": "bool",
          "name": "stillValid",
          "type": "bool"
        },
        {
          "internalType": "uint256",
          "name": "expiry",
          "type": "uint256"
        },
        {
          "components": [
            {
              "internalType": "uint256",
              "name": "d",
              "type": "uint256"
            }
          ],
          "internalType": "struct Decimal.decimal",
          "name": "stopPrice",
          "type": "tuple"
        },
        {
          "components": [
            {
              "internalType": "uint256",
              "name": "d",
              "type": "uint256"
            }
          ],
          "internalType": "struct Decimal.decimal",
          "name": "limitPrice",
          "type": "tuple"
        },
        {
          "components": [
            {
              "internalType": "int256",
              "name": "d",
              "type": "int256"
            }
          ],
          "internalType": "struct SignedDecimal.signedDecimal",
          "name": "orderSize",
          "type": "tuple"
        },
        {
          "components": [
            {
              "internalType": "uint256",
              "name": "d",
              "type": "uint256"
            }
          ],
          "internalType": "struct Decimal.decimal",
          "name": "collateral",
          "type": "tuple"
        },
        {
          "components": [
            {
              "internalType": "uint256",
              "name": "d",
              "type": "uint256"
            }
          ],
          "internalType": "struct Decimal.decimal",
          "name": "leverage",
          "type": "tuple"
        },
        {
          "components": [
            {
              "internalType": "uint256",
              "name": "d",
              "type": "uint256"
            }
          ],
          "internalType": "struct Decimal.decimal",
          "name": "slippage",
          "type": "tuple"
        },
        {
          "components": [
            {
              "internalType": "uint256",
              "name": "d",
              "type": "uint256"
            }
          ],
          "internalType": "struct Decimal.decimal",
          "name": "tipFee",
          "type": "tuple"
        }
      ],
      "stateMutability": "view",
      "type": "function"
    },
    {
      "inputs": [],
      "name": "owner",
      "outputs": [
        {
          "internalType": "address",
          "name": "",
          "type": "address"
        }
      ],
      "stateMutability": "view",
      "type": "function"
    },
    {
      "inputs": [
        {
          "internalType": "uint256",
          "name": "order_id",
          "type": "uint256"
        },
        {
          "internalType": "uint256",
          "name": "_reserveIndex",
          "type": "uint256"
        }
      ],
      "name": "pokeContract",
      "outputs": [],
      "stateMutability": "nonpayable",
      "type": "function"
    },
    {
      "inputs": [],
      "name": "renounceOwnership",
      "outputs": [],
      "stateMutability": "nonpayable",
      "type": "function"
    },
    {
      "inputs": [
        {
          "internalType": "address",
          "name": "_addr",
          "type": "address"
        }
      ],
      "name": "setFactory",
      "outputs": [],
      "stateMutability": "nonpayable",
      "type": "function"
    },
    {
      "inputs": [
        {
          "internalType": "address",
          "name": "newOwner",
          "type": "address"
        }
      ],
      "name": "transferOwnership",
      "outputs": [],
      "stateMutability": "nonpayable",
      "type": "function"
    }
  ],
  "bytecode": "0x60806040523480156200001157600080fd5b506000620000276001600160e01b036200007716565b600080546001600160a01b0319166001600160a01b0383169081178255604051929350917f8be0079c531659141344cd1fd0a4f28419497f9722a3daafe3b4186f6b6457e0908290a3506200007b565b3390565b614226806200008b6000396000f3fe608060405234801561001057600080fd5b506004361061018d5760003560e01c80638158900b116100e3578063b96bb8061161008c578063f0d840d711610066578063f0d840d71461035f578063f2fde38b1461037f578063fe0d94c1146103925761018d565b8063b96bb8061461031e578063c45a015514610331578063e36a2dc0146103395761018d565b8063a85c38ef116100bd578063a85c38ef146102cc578063b099b0dd146102f8578063b50c4fb91461030b5761018d565b80638158900b1461029c57806386f89642146102a45780638da5cb5b146102b75761018d565b806353061026116101455780636bef74931161011f5780636bef749314610261578063715018a6146102815780637b5fe1b1146102895761018d565b8063530610261461020e5780635ad864471461022e5780635bb478081461024e5761018d565b80632736f620116101765780632736f620146101ba57806334c19830146101cd5780634c5789e3146101e05761018d565b8063032e4f6e1461019257806311a00327146101a7575b600080fd5b6101a56101a03660046137c0565b6103a5565b005b6101a56101b5366004613925565b6105a1565b6101a56101c83660046137c0565b61069b565b6101a56101db366004613985565b6107e2565b6101f36101ee366004613925565b6109dd565b60405161020596959493929190613a19565b60405180910390f35b61022161021c366004613925565b610b85565b6040516102059190613fc9565b61024161023c366004613701565b610ceb565b604051610205919061418f565b6101a561025c3660046136c9565b61114b565b61027461026f366004613888565b6111ac565b6040516102059190614154565b6101a5611275565b6102416102973660046137c0565b6112fe565b6102416117a0565b6101a56102b2366004613701565b6117a6565b6102bf6119c9565b6040516102059190613a05565b6102df6102da366004613925565b6119d8565b6040516102059d9c9b9a99989796959493929190613a5c565b6101a5610306366004613955565b611aa6565b6102416103193660046137c0565b611cad565b61024161032c366004613701565b611f87565b6102bf6122c2565b61034c610347366004613925565b6122d1565b604051610205979695949392919061415e565b61037261036d366004613925565b6124bd565b60405161020591906140c8565b6101a561038d3660046136c9565b612577565b6101a56103a0366004613925565b612637565b8015806103b157508042105b6103d65760405162461bcd60e51b81526004016103cd90613c68565b60405180910390fd5b60345460405133917fcb0c37c16aa3b0bbb7a817932094d8a20a00996d426a813f067039f0ef87ab079161040a919061418f565b60405180910390a2604080516101a0810182526001600160a01b038b16815233602082015260349181016002815260200184151581526020016001151581526020018381526020018a8152602001610460612a5e565b815260208082018b905260408083018b9052606083018a90526080830189905260a09092018790528354600180820186556000958652948290208451600a9092020180546001600160a01b03199081166001600160a01b039384161782559285015195810180549093169590911694909417808255918301519293929160ff60a01b1916600160a01b8360058111156104f557fe5b0217905550606082015160018201805460808501511515600160b01b0260ff60b01b19931515600160a81b0260ff60a81b19909216919091179290921691909117905560a0820151600282015560c082015151600382015560e08201515160048201556101008201515160058201556101208201515160068201556101408201515160078201556101608201515160088201556101809091015151600990910155505050505050505050565b80603481815481106105af57fe5b60009182526020909120600a90910201600101546001600160a01b031633146105ea5760405162461bcd60e51b81526004016103cd90613b66565b6034548290811061060d5760405162461bcd60e51b81526004016103cd90613e6c565b6034838154811061061a57fe5b600091825260208220600a9091020180546001600160a01b03191681556001810180547fffffffffffffffffff00000000000000000000000000000000000000000000001690556002810182905560038101829055600481018290556005810182905560068101829055600781018290556008810182905560090155505050565b8015806106a757508042105b6106c35760405162461bcd60e51b81526004016103cd90613c68565b60345460405133917fcb0c37c16aa3b0bbb7a817932094d8a20a00996d426a813f067039f0ef87ab07916106f7919061418f565b60405180910390a2604080516101a0810182526001600160a01b038b16815233602082015260349181016001815284151560208201526001604082015260608101849052608001610746612a5e565b815260208082018c905260408083018c9052606083018b9052608083018a905260a0830189905260c09092018790528354600180820186556000958652948290208451600a9092020180546001600160a01b03199081166001600160a01b039384161782559285015195810180549093169590911694909417808255918301519293929160ff60a01b1916600160a01b8360058111156104f557fe5b6004603483815481106107f157fe5b90600052602060002090600a020160010160149054906101000a900460ff16600581111561081b57fe5b148061085d575060056034838154811061083157fe5b90600052602060002090600a020160010160149054906101000a900460ff16600581111561085b57fe5b145b6108795760405162461bcd60e51b81526004016103cd90613d0d565b60008281526035602052604090206006015481116108a95760405162461bcd60e51b81526004016103cd90613b2f565b60006108e0603484815481106108bb57fe5b60009182526020918290206040805193840190526005600a9092020101548152612a79565b6108eb5760016108ee565b60005b90506108f861353d565b6109286034858154811061090857fe5b60009182526020909120600a90910201546001600160a01b0316846111ac565b90508161093657600161093a565b6000195b600085815260356020908152604091829020825191820190925290548152600f9190910b9061096f908363ffffffff612a9716565b60000b14156109bf5760008481526035602052604090208151815560070183905561099984612ac8565b600084815260356020526040902060080180546001600160a01b031916331790556109d7565b60405162461bcd60e51b81526004016103cd90613f35565b50505050565b600080600080600080866034805490508110610a0b5760405162461bcd60e51b81526004016103cd90613e6c565b610a13613550565b60348981548110610a2057fe5b6000918252602091829020604080516101a081018252600a90930290910180546001600160a01b03908116845260018201549081169484019490945291929083019060ff600160a01b909104166005811115610a7857fe5b6005811115610a8357fe5b8152600182015460ff600160a81b820481161515602080850191909152600160b01b90920416151560408084019190915260028401546060808501919091528151808401835260038601548152608080860191909152825180850184526004870154815260a080870191909152835180860185526005880154815260c0870152835180860185526006880154815260e087015283518086018552600788015481526101008701528351808601855260088801548152610120870152835180860185526009909701548752610140909501959095528551928601519186015190860151948601519590930151919e909d50919b5091995091975095509350505050565b610b8d613550565b60345482908110610bb05760405162461bcd60e51b81526004016103cd90613e6c565b60348381548110610bbd57fe5b6000918252602091829020604080516101a081018252600a90930290910180546001600160a01b03908116845260018201549081169484019490945291929083019060ff600160a01b909104166005811115610c1557fe5b6005811115610c2057fe5b8152600182015460ff600160a81b820481161515602080850191909152600160b01b9092041615156040808401919091526002840154606084015280518083018252600385015481526080840152805180830182526004850154815260a0840152805180830182526005850154815260c0840152805180830182526006850154815260e0840152805180830182526007850154815261010084015280518083018252600885015481526101208401528051918201905260099092015482526101400152915050919050565b6000811580610cf957508142105b610d155760405162461bcd60e51b81526004016103cd90613c68565b60345460405133917fcb0c37c16aa3b0bbb7a817932094d8a20a00996d426a813f067039f0ef87ab0791610d49919061418f565b60405180910390a2600060018c6001600160a01b0316630d451c8f6040518163ffffffff1660e01b815260040160206040518083038186803b158015610d8e57600080fd5b505afa158015610da2573d6000803e3d6000fd5b505050506040513d601f19601f82011682018060405250810190610dc6919061393d565b039050610dd161353d565b8c6001600160a01b031663dc76fabc6040518163ffffffff1660e01b815260040160206040518083038186803b158015610e0a57600080fd5b505afa158015610e1e573d6000803e3d6000fd5b505050506040513d601f19601f82011682018060405250810190610e42919061390a565b90506040518061012001604052808281526020018d8152602001610e64612a5e565b81526020018c8152602001610e77612a5e565b815260200160001515815260200183815260200183815260200160006001600160a01b031681525060356000603480549050815260200190815260200160002060008201518160000160008201518160000155505060208201518160010160008201518160000155505060408201518160020160008201518160000155505060608201518160030160008201518160000155505060808201518160040160008201518160000155505060a08201518160050160006101000a81548160ff02191690831515021790555060c0820151816006015560e082015181600701556101008201518160080160006101000a8154816001600160a01b0302191690836001600160a01b031602179055509050506034604051806101a001604052808f6001600160a01b03168152602001336001600160a01b03168152602001600580811115610fbd57fe5b815287151560208201526001604082015260608101879052608001610fe0612a5e565b8152602001610fed612a5e565b815260208082018e905260408083018e9052606083018d9052608083018c905260a09092018a90528354600180820186556000958652948290208451600a9092020180546001600160a01b03199081166001600160a01b039384161782559285015195810180549093169590911694909417808255918301519293929160ff60a01b1916600160a01b83600581111561108257fe5b0217905550606082015160018201805460808501511515600160b01b0260ff60b01b19931515600160a81b0260ff60a81b19909216919091179290921691909117905560a0820151600282015560c082015151600382015560e082015151600482015561010082015151600582015561012082015151600682015561014082015151600782015561016082015151600882015561018090910151516009909101556034546111339060001901612ac8565b5050603454600019019b9a5050505050505050505050565b611153612e63565b6001600160a01b03166111646119c9565b6001600160a01b03161461118a5760405162461bcd60e51b81526004016103cd90613f00565b603680546001600160a01b0319166001600160a01b0392909216919091179055565b6111b461353d565b6111bc6135e1565b6040517f21e009850000000000000000000000000000000000000000000000000000000081526001600160a01b038516906321e009859061120190869060040161418f565b60806040518083038186803b15801561121957600080fd5b505afa15801561122d573d6000803e3d6000fd5b505050506040513d601f19601f8201168201806040525081019061125191906138b3565b6020810151815191925061126b919063ffffffff612e6716565b9150505b92915050565b61127d612e63565b6001600160a01b031661128e6119c9565b6001600160a01b0316146112b45760405162461bcd60e51b81526004016103cd90613f00565b600080546040516001600160a01b03909116907f8be0079c531659141344cd1fd0a4f28419497f9722a3daafe3b4186f6b6457e0908390a3600080546001600160a01b0319169055565b600081158061130c57508142105b6113285760405162461bcd60e51b81526004016103cd90613c68565b611340611333612e93565b8a9063ffffffff612a9716565b60000b600019146113635760405162461bcd60e51b81526004016103cd90613c9f565b60345460405133917fcb0c37c16aa3b0bbb7a817932094d8a20a00996d426a813f067039f0ef87ab0791611397919061418f565b60405180910390a2600060018b6001600160a01b0316630d451c8f6040518163ffffffff1660e01b815260040160206040518083038186803b1580156113dc57600080fd5b505afa1580156113f0573d6000803e3d6000fd5b505050506040513d601f19601f82011682018060405250810190611414919061393d565b03905061141f61353d565b8b6001600160a01b031663dc76fabc6040518163ffffffff1660e01b815260040160206040518083038186803b15801561145857600080fd5b505afa15801561146c573d6000803e3d6000fd5b505050506040513d601f19601f82011682018060405250810190611490919061390a565b90506040518061012001604052808281526020016114ac612a5e565b81526020018c81526020016114bf612a5e565b81526020016114cc612a5e565b815260200160011515815260200183815260200183815260200160006001600160a01b031681525060356000603480549050815260200190815260200160002060008201518160000160008201518160000155505060208201518160010160008201518160000155505060408201518160020160008201518160000155505060608201518160030160008201518160000155505060808201518160040160008201518160000155505060a08201518160050160006101000a81548160ff02191690831515021790555060c0820151816006015560e082015181600701556101008201518160080160006101000a8154816001600160a01b0302191690836001600160a01b031602179055509050506034604051806101a001604052808e6001600160a01b03168152602001336001600160a01b031681526020016004600581111561161357fe5b815287151560208201526001604082015260608101879052608001611636612a5e565b8152602001611643612a5e565b815260208082018e905260408083018e9052606083018d9052608083018c905260a09092018a90528354600180820186556000958652948290208451600a9092020180546001600160a01b03199081166001600160a01b039384161782559285015195810180549093169590911694909417808255918301519293929160ff60a01b1916600160a01b8360058111156116d857fe5b0217905550606082015160018201805460808501511515600160b01b0260ff60b01b19931515600160a81b0260ff60a81b19909216919091179290921691909117905560a0820151600282015560c082015151600382015560e082015151600482015561010082015151600582015561012082015151600682015561014082015151600782015561016082015151600882015561018090910151516009909101556034546117899060001901612ac8565b5050603454600019019a9950505050505050505050565b60345490565b8015806117b257508042105b6117ce5760405162461bcd60e51b81526004016103cd90613c68565b60345460405133917fcb0c37c16aa3b0bbb7a817932094d8a20a00996d426a813f067039f0ef87ab0791611802919061418f565b60405180910390a2604080516101a0810182526001600160a01b038c8116825233602083019081526003938301938452851515606084015260016080840181905260a0840186905260c084018e905260e084018d905261010084018c905261012084018b905261014084018a9052610160840189905261018084018890526034805491820181556000528351600a9091027f46bddb1178e94d7f2892ff5f366840eb658911794f2c3a44c450aa2c505186c1810180549285166001600160a01b031993841617815592517f46bddb1178e94d7f2892ff5f366840eb658911794f2c3a44c450aa2c505186c2909101805491909416911617808355935192939092919060ff60a01b1916600160a01b83600581111561191c57fe5b0217905550606082015160018201805460808501511515600160b01b0260ff60b01b19931515600160a81b0260ff60a81b19909216919091179290921691909117905560a0820151600282015560c082015151600382015560e0820151516004820155610100820151516005820155610120820151516006820155610140820151516007820155610160820151516008820155610180909101515160099091015550505050505050505050565b6000546001600160a01b031690565b603481815481106119e557fe5b6000918252602091829020600a9091020180546001820154600283015460408051808701825260038601548152815180880183526004870154815282518089018452600588015481528351808a018552600689015481528451808b01865260078a015481528551808c01875260088b0154815286519b8c019096526009909901548a526001600160a01b039788169a509686169860ff600160a01b8804811699600160a81b8904821699600160b01b9099049091169794959394929390918d565b8960348181548110611ab457fe5b60009182526020909120600a90910201600101546001600160a01b03163314611aef5760405162461bcd60e51b81526004016103cd90613b66565b6034548b908110611b125760405162461bcd60e51b81526004016103cd90613e6c565b8a60348d81548110611b2057fe5b90600052602060002090600a0201600301600082015181600001559050508960348d81548110611b4c57fe5b90600052602060002090600a0201600401600082015181600001559050508860348d81548110611b7857fe5b90600052602060002090600a0201600501600082015181600001559050508760348d81548110611ba457fe5b90600052602060002090600a0201600601600082015181600001559050508660348d81548110611bd057fe5b90600052602060002090600a0201600701600082015181600001559050508560348d81548110611bfc57fe5b90600052602060002090600a0201600801600082015181600001559050508460348d81548110611c2857fe5b90600052602060002090600a0201600901600082015181600001559050508360348d81548110611c5457fe5b90600052602060002090600a020160010160156101000a81548160ff0219169083151502179055508260348d81548110611c8a57fe5b90600052602060002090600a020160020181905550505050505050505050505050565b6000811580611cbb57508142105b611cd75760405162461bcd60e51b81526004016103cd90613c68565b60345460405133917fcb0c37c16aa3b0bbb7a817932094d8a20a00996d426a813f067039f0ef87ab0791611d0b919061418f565b60405180910390a2600060018b6001600160a01b0316630d451c8f6040518163ffffffff1660e01b815260040160206040518083038186803b158015611d5057600080fd5b505afa158015611d64573d6000803e3d6000fd5b505050506040513d601f19601f82011682018060405250810190611d88919061393d565b039050611d9361353d565b8b6001600160a01b031663dc76fabc6040518163ffffffff1660e01b815260040160206040518083038186803b158015611dcc57600080fd5b505afa158015611de0573d6000803e3d6000fd5b505050506040513d601f19601f82011682018060405250810190611e04919061390a565b90506040518061012001604052808281526020018c8152602001611e26612a5e565b8152602001611e33612a5e565b8152602001611e40612a5e565b815260200160001515815260200183815260200183815260200160006001600160a01b031681525060356000603480549050815260200190815260200160002060008201518160000160008201518160000155505060208201518160010160008201518160000155505060408201518160020160008201518160000155505060608201518160030160008201518160000155505060808201518160040160008201518160000155505060a08201518160050160006101000a81548160ff02191690831515021790555060c0820151816006015560e082015181600701556101008201518160080160006101000a8154816001600160a01b0302191690836001600160a01b031602179055509050506034604051806101a001604052808e6001600160a01b03168152602001336001600160a01b031681526020016004600581111561161357fe5b6000811580611f9557508142105b611fb15760405162461bcd60e51b81526004016103cd90613c68565b611fc9611fbc612e93565b8b9063ffffffff612a9716565b60000b60001914611fec5760405162461bcd60e51b81526004016103cd90613c9f565b611ff7611333612e93565b60000b6000191461201a5760405162461bcd60e51b81526004016103cd90613e35565b60345460405133917fcb0c37c16aa3b0bbb7a817932094d8a20a00996d426a813f067039f0ef87ab079161204e919061418f565b60405180910390a2600060018c6001600160a01b0316630d451c8f6040518163ffffffff1660e01b815260040160206040518083038186803b15801561209357600080fd5b505afa1580156120a7573d6000803e3d6000fd5b505050506040513d601f19601f820116820180604052508101906120cb919061393d565b0390506120d661353d565b8c6001600160a01b031663dc76fabc6040518163ffffffff1660e01b815260040160206040518083038186803b15801561210f57600080fd5b505afa158015612123573d6000803e3d6000fd5b505050506040513d601f19601f82011682018060405250810190612147919061390a565b9050604051806101200160405280828152602001612163612a5e565b81526020018d8152602001612176612a5e565b81526020018c815260200160011515815260200183815260200183815260200160006001600160a01b031681525060356000603480549050815260200190815260200160002060008201518160000160008201518160000155505060208201518160010160008201518160000155505060408201518160020160008201518160000155505060608201518160030160008201518160000155505060808201518160040160008201518160000155505060a08201518160050160006101000a81548160ff02191690831515021790555060c0820151816006015560e082015181600701556101008201518160080160006101000a8154816001600160a01b0302191690836001600160a01b031602179055509050506034604051806101a001604052808f6001600160a01b03168152602001336001600160a01b03168152602001600580811115610fbd57fe5b6036546001600160a01b031681565b6122d961353d565b6122e161353d565b6122e961353d565b6122f161353d565b6122f961353d565b61230161353d565b61230961353d565b6034548890811061232c5760405162461bcd60e51b81526004016103cd90613e6c565b612334613550565b60348a8154811061234157fe5b6000918252602091829020604080516101a081018252600a90930290910180546001600160a01b03908116845260018201549081169484019490945291929083019060ff600160a01b90910416600581111561239957fe5b60058111156123a457fe5b8152600182015460ff600160a81b820481161515602080850191909152600160b01b9092041615156040808401919091526002840154606084015280518083018252600385015481526080840152805180830182526004850154815260a0840152805180830182526005850154815260c080850191909152815180840183526006860154815260e08086019190915282518085018452600787015481526101008087019190915283518086018552600888015481526101208088019190915284519586019094526009909601548452610140948501939093528501519185015193850151908501519285015161016086015161018090960151929e50939c509a5090985090965090945092505050919395979092949650565b6124c5613615565b50600081815260356020908152604091829020825161014081018452815461012082019081528152835180840185526001830154815281840152835180840185526002830154815281850152835180840185526003830154815260608201528351928301909352600481015482526080830191909152600581015460ff16151560a0830152600681015460c0830152600781015460e0830152600801546001600160a01b03166101008201525b919050565b61257f612e63565b6001600160a01b03166125906119c9565b6001600160a01b0316146125b65760405162461bcd60e51b81526004016103cd90613f00565b6001600160a01b0381166125dc5760405162461bcd60e51b81526004016103cd90613b9d565b600080546040516001600160a01b03808516939216917f8be0079c531659141344cd1fd0a4f28419497f9722a3daafe3b4186f6b6457e091a3600080546001600160a01b0319166001600160a01b0392909216919091179055565b6034548190811061265a5760405162461bcd60e51b81526004016103cd90613e6c565b6034828154811061266757fe5b90600052602060002090600a020160010160169054906101000a900460ff166126a25760405162461bcd60e51b81526004016103cd90613bfa565b603654603480546000926001600160a01b03169163a0b7388191869081106126c657fe5b600091825260209091206001600a9092020101546040517fffffffff0000000000000000000000000000000000000000000000000000000060e084901b16815261271c916001600160a01b031690600401613a05565b60206040518083038186803b15801561273457600080fd5b505afa158015612748573d6000803e3d6000fd5b505050506040513d601f19601f8201168201806040525081019061276c91906136e5565b90506000816001600160a01b03166394f61134856040518263ffffffff1660e01b815260040161279c919061418f565b602060405180830381600087803b1580156127b657600080fd5b505af11580156127ca573d6000803e3d6000fd5b505050506040513d601f19601f820116820180604052508101906127ee919061386c565b905080156109d75760046034858154811061280557fe5b90600052602060002090600a020160010160149054906101000a900460ff16600581111561282f57fe5b1480612871575060056034858154811061284557fe5b90600052602060002090600a020160010160149054906101000a900460ff16600581111561286f57fe5b145b801561289657506000848152603560205260409020600801546001600160a01b031615155b1561294c576128f873ddafbb505ad214d7b80b1f830fccc89b60fb7a8383336128f3600260348a815481106128c757fe5b60009182526020918290206040805193840190526009600a90920201015481529063ffffffff612eb716565b612ed9565b600084815260356020526040902060080154603480546129479273ddafbb505ad214d7b80b1f830fccc89b60fb7a839286926001600160a01b03909216916128f3916002918b9081106128c757fe5b612998565b61299873ddafbb505ad214d7b80b1f830fccc89b60fb7a8383336034888154811061297357fe5b60009182526020918290206040805193840190526009600a9092020101548152612ed9565b6000603485815481106129a757fe5b90600052602060002090600a020160010160166101000a81548160ff021916908315150217905550603484815481106129dc57fe5b600091825260208220600a9091020180546001600160a01b03191681556001810180547fffffffffffffffffff0000000000000000000000000000000000000000000000169055600281018290556003810182905560048101829055600581018290556006810182905560078101829055600881018290556009015550505050565b612a6661353d565b5060408051602081019091526000815290565b60008082600001511215612a8f57506001612572565b506000919050565b805182516000911015612aac5750600161126f565b815183511015612abf575060001961126f565b50600092915050565b612ad061353d565b506000818152603560209081526040808320815192830190915254815260348054919291612b039190859081106108bb57fe5b612b0e576001612b11565b60005b60008481526035602052604090206005015490915060ff1615612ccb57612b3661353d565b81612b7a5760008481526035602090815260409182902082519182019092526002909101548152612b7590612b69612e93565b9063ffffffff61305616565b612bb4565b60008481526035602090815260409182902082519182019092526002909101548152612bb490612ba8612e93565b9063ffffffff61307916565b9050612bbe61353d565b82612bf65760008581526035602090815260409182902082519182019092526004909101548152612bf190612b69612e93565b612c24565b60008581526035602090815260409182902082519182019092526004909101548152612c2490612ba8612e93565b9050612c36848363ffffffff61309c16565b60348681548110612c4357fe5b90600052602060002090600a020160030160008201518160000155905050612c9e8160348781548110612c7257fe5b60009182526020918290206040805193840190526003600a90920201015481529063ffffffff61309c16565b60348681548110612cab57fe5b6000918252602090912091516004600a909202909201015550612e5e9050565b80612d085760008381526035602090815260409182902082519182019092526001909101548152612d0390839063ffffffff61305616565b612d3b565b60008381526035602090815260409182902082519182019092526001909101548152612d3b90839063ffffffff61307916565b60348481548110612d4857fe5b6000918252602090912091516003600a909202909201015580612dd157612dcc6035600085815260200190815260200160002060030160405180602001604052908160008201548152505060348581548110612da057fe5b60009182526020918290206040805193840190526003600a90920201015481529063ffffffff61305616565b612e38565b612e386035600085815260200190815260200160002060030160405180602001604052908160008201548152505060348581548110612e0c57fe5b60009182526020918290206040805193840190526003600a90920201015481529063ffffffff61307916565b60348481548110612e4557fe5b6000918252602090912091516004600a90920290920101555b505050565b3390565b612e6f61353d565b612e7761353d565b82518451612e8a9163ffffffff6130bf16565b81529392505050565b612e9b61353d565b6040518060200160405280612eb060126130d4565b9052905090565b612ebf61353d565b612ec761353d565b8351612e8a908463ffffffff6130dd16565b612ee28461310f565b612eea61353d565b612ef4858461315c565b90506000612f0286846131e9565b905060006060876001600160a01b03166323b872dd60e01b888886604051602401612f2f93929190613b0b565b604080517fffffffffffffffffffffffffffffffffffffffffffffffffffffffffffffffe08184030181529181526020820180517bffffffffffffffffffffffffffffffffffffffffffffffffffffffff167fffffffff00000000000000000000000000000000000000000000000000000000909416939093179092529051612fb891906139cc565b6000604051808303816000865af19150503d8060008114612ff5576040519150601f19603f3d011682016040523d82523d6000602084013e612ffa565b606091505b5091509150818015613024575080511580613024575080806020019051810190613024919061386c565b6130405760405162461bcd60e51b81526004016103cd90613dd8565b61304c8887858761325f565b5050505050505050565b61305e61353d565b61306661353d565b82518451612e8a9163ffffffff6132b216565b61308161353d565b61308961353d565b82518451612e8a9163ffffffff6132da16565b6130a461353d565b6130ac61353d565b82518451612e8a9163ffffffff6132ff16565b60006130cd8383601261330d565b9392505050565b60ff16600a0a90565b60008082116130fe5760405162461bcd60e51b81526004016103cd90613d44565b81838161310757fe5b049392505050565b600061311a82613334565b6001600160a01b0383166000908152600160205260409020549091508114613158576001600160a01b03821660009081526001602052604090208190555b5050565b61316461353d565b6130cd83846001600160a01b03166370a08231856040518263ffffffff1660e01b81526004016131949190613a05565b60206040518083038186803b1580156131ac57600080fd5b505afa1580156131c0573d6000803e3d6000fd5b505050506040513d601f19601f820116820180604052508101906131e4919061393d565b61344f565b6000806131f584613334565b9050601281106132335761322b61321382601263ffffffff6132b216565b600a0a61321f856134e1565b9063ffffffff6134e516565b91505061126f565b61126b61324760128363ffffffff6132b216565b600a0a613253856134e1565b9063ffffffff6130dd16565b61329261327c61326f868561344f565b839063ffffffff61307916565b613286868661315c565b9063ffffffff612a9716565b60000b156109d75760405162461bcd60e51b81526004016103cd90613f6c565b6000828211156132d45760405162461bcd60e51b81526004016103cd90613cd6565b50900390565b6000828201838110156130cd5760405162461bcd60e51b81526004016103cd90613c31565b60006130cd8383601261351f565b600061332c8361325361331f856130d4565b879063ffffffff6134e516565b949350505050565b6001600160a01b0381166000908152600160205260408120548061126f5760408051600481526024810182526020810180517bffffffffffffffffffffffffffffffffffffffffffffffffffffffff167f313ce5670000000000000000000000000000000000000000000000000000000017905290516000916060916001600160a01b038716916133c4916139cc565b600060405180830381855afa9150503d80600081146133ff576040519150601f19603f3d011682016040523d82523d6000602084013e613404565b606091505b50915091508180156134165750805115155b6134325760405162461bcd60e51b81526004016103cd90613d7b565b80806020019051810190613446919061393d565b95945050505050565b61345761353d565b600061346284613334565b9050601281106134a75760408051602081019091528061349c61348c84601263ffffffff6132b216565b8690600a0a63ffffffff6130dd16565b81525091505061126f565b6040805160208101909152806134d76134c760128563ffffffff6132b216565b8690600a0a63ffffffff6134e516565b9052949350505050565b5190565b6000826134f45750600061126f565b8282028284828161350157fe5b04146130cd5760405162461bcd60e51b81526004016103cd90613ea3565b600061332c61352d836130d4565b613253868663ffffffff6134e516565b6040518060200160405280600081525090565b604080516101a0810182526000808252602082018190529091820190815260006020820181905260408201819052606082015260800161358e61353d565b815260200161359b61353d565b81526020016135a861353d565b81526020016135b561353d565b81526020016135c261353d565b81526020016135cf61353d565b81526020016135dc61353d565b905290565b60405180608001604052806135f461353d565b815260200161360161353d565b815260200160008152602001600081525090565b60405180610120016040528061362961353d565b815260200161363661353d565b815260200161364361353d565b815260200161365061353d565b815260200161365d61353d565b8152600060208201819052604082018190526060820181905260809091015290565b600060208284031215613690578081fd5b61369a6020614198565b9135825250919050565b6000602082840312156136b5578081fd5b6136bf6020614198565b9151825250919050565b6000602082840312156136da578081fd5b81356130cd816141ca565b6000602082840312156136f6578081fd5b81516130cd816141ca565b6000806000806000806000806000806101408b8d031215613720578586fd5b8a3561372b816141ca565b995061373a8c60208d0161367f565b98506137498c60408d0161367f565b97506137588c60608d0161367f565b96506137678c60808d0161367f565b95506137768c60a08d0161367f565b94506137858c60c08d0161367f565b93506137948c60e08d0161367f565b92506101008b01356137a5816141e2565b809250506101208b013590509295989b9194979a5092959850565b60008060008060008060008060006101208a8c0312156137de578485fd5b89356137e9816141ca565b98506137f88b60208c0161367f565b97506138078b60408c0161367f565b96506138168b60608c0161367f565b95506138258b60808c0161367f565b94506138348b60a08c0161367f565b93506138438b60c08c0161367f565b925060e08a0135613853816141e2565b809250506101008a013590509295985092959850929598565b60006020828403121561387d578081fd5b81516130cd816141e2565b6000806040838503121561389a578182fd5b82356138a5816141ca565b946020939093013593505050565b6000608082840312156138c4578081fd5b6138ce6080614198565b6138d884846136a4565b81526138e784602085016136a4565b602082015260408301516040820152606083015160608201528091505092915050565b60006020828403121561391b578081fd5b6130cd83836136a4565b600060208284031215613936578081fd5b5035919050565b60006020828403121561394e578081fd5b5051919050565b6000806000806000806000806000806101408b8d031215613974578384fd5b8a35995061373a8c60208d0161367f565b60008060408385031215613997578182fd5b50508035926020909101359150565b6001600160a01b03169052565b15159052565b600681106139c357fe5b9052565b519052565b60008251815b818110156139ec57602081860181015185830152016139d2565b818111156139fa5782828501525b509190910192915050565b6001600160a01b0391909116815260200190565b6001600160a01b0387811682528616602082015260c08101613a3a866141bf565b60408301529315156060820152911515608083015260a0909101529392505050565b6001600160a01b038e811682528d1660208201526101a08101613a7e8d6141bf565b60408301528b151560608301528a151560808301528960a0830152613aa660c083018a6139c7565b613ab360e08301896139c7565b613ac16101008301886139c7565b613acf6101208301876139c7565b613add6101408301866139c7565b613aeb6101608301856139c7565b613af96101808301846139c7565b9e9d5050505050505050505050505050565b6001600160a01b039384168152919092166020820152604081019190915260600190565b60208082526019908201527f4f72646572206861646e2774206265656e206372656174656400000000000000604082015260600190565b60208082526014908201527f4e6f7420796f7572206c696d6974206f72646572000000000000000000000000604082015260600190565b60208082526026908201527f4f776e61626c653a206e6577206f776e657220697320746865207a65726f206160408201527f6464726573730000000000000000000000000000000000000000000000000000606082015260800190565b6020808252600f908201527f4e6f206c6f6e6765722076616c69640000000000000000000000000000000000604082015260600190565b6020808252601b908201527f536166654d6174683a206164646974696f6e206f766572666c6f770000000000604082015260600190565b60208082526019908201527f4576656e742077696c6c2065787069726520696e207061737400000000000000604082015260600190565b60208082526015908201527f496e76616c696420747261696c2070657263656e740000000000000000000000604082015260600190565b6020808252601e908201527f536166654d6174683a207375627472616374696f6e206f766572666c6f770000604082015260600190565b6020808252601d908201527f43616e206f6e6c7920706f6b6520747261696c696e67206f7264657273000000604082015260600190565b6020808252601a908201527f536166654d6174683a206469766973696f6e206279207a65726f000000000000604082015260600190565b60208082526021908201527f446563696d616c45524332303a2067657420646563696d616c73206661696c6560408201527f6400000000000000000000000000000000000000000000000000000000000000606082015260800190565b60208082526021908201527f446563696d616c45524332303a207472616e7366657246726f6d206661696c6560408201527f6400000000000000000000000000000000000000000000000000000000000000606082015260800190565b60208082526013908201527f496e76616c6964206761702070657263656e7400000000000000000000000000604082015260600190565b6020808252600a908201527f496e76616c696420494400000000000000000000000000000000000000000000604082015260600190565b60208082526021908201527f536166654d6174683a206d756c7469706c69636174696f6e206f766572666c6f60408201527f7700000000000000000000000000000000000000000000000000000000000000606082015260800190565b6020808252818101527f4f776e61626c653a2063616c6c6572206973206e6f7420746865206f776e6572604082015260600190565b60208082526018908201527f496e636f727265637420747261696c696e672070726963650000000000000000604082015260600190565b60208082526022908201527f446563696d616c45524332303a2062616c616e636520696e636f6e736973746560408201527f6e74000000000000000000000000000000000000000000000000000000000000606082015260800190565b60006101a082019050613fdd8284516139a6565b6020830151613fef60208401826139a6565b50604083015161400260408401826139b9565b50606083015161401560608401826139b3565b50608083015161402860808401826139b3565b5060a083015160a083015260c083015161404560c08401826139c7565b5060e083015161405860e08401826139c7565b506101008084015161406c828501826139c7565b505061012080840151614081828501826139c7565b505061014080840151614096828501826139c7565b5050610160808401516140ab828501826139c7565b5050610180808401516140c0828501826139c7565b505092915050565b6000610120820190508251518252602083015151602083015260408301516140f360408401826139c7565b50606083015161410660608401826139c7565b50608083015161411960808401826139c7565b5060a083015161412c60a08401826139b3565b5060c083015160c083015260e083015160e0830152610100808401516140c0828501826139a6565b9051815260200190565b965187529451602087015292516040860152905160608501525160808401525160a08301525160c082015260e00190565b90815260200190565b60405181810167ffffffffffffffff811182821017156141b757600080fd5b604052919050565b806006811061257257fe5b6001600160a01b03811681146141df57600080fd5b50565b80151581146141df57600080fdfea26469706673582212209fbb6a48c4e67f02453f79c103ce331431d9d3df4d378c55613083366e14426164736f6c63430006090033",
  "linkReferences": {},
  "deployedLinkReferences": {}
}