{
  "_format": "hh-sol-artifact-1",
  "contractName": "LimitOrderBook",
  "sourceName": "contracts/LimitOrderBook.sol",
  "abi": [
    {
      "anonymous": false,
      "inputs": [
        {
          "indexed": true,
          "internalType": "address",
          "name": "trader",
          "type": "address"
        },
        {
          "indexed": false,
          "internalType": "uint256",
          "name": "order_id",
          "type": "uint256"
        }
      ],
      "name": "OrderChanged",
      "type": "event"
    },
    {
      "anonymous": false,
      "inputs": [
        {
          "indexed": true,
          "internalType": "address",
          "name": "trader",
          "type": "address"
        },
        {
          "indexed": false,
          "internalType": "uint256",
          "name": "order_id",
          "type": "uint256"
        }
      ],
      "name": "OrderCreated",
      "type": "event"
    },
    {
      "anonymous": false,
      "inputs": [
        {
          "indexed": true,
          "internalType": "address",
          "name": "trader",
          "type": "address"
        },
        {
          "indexed": false,
          "internalType": "uint256",
          "name": "order_id",
          "type": "uint256"
        }
      ],
      "name": "OrderFilled",
      "type": "event"
    },
    {
      "anonymous": false,
      "inputs": [
        {
          "indexed": true,
          "internalType": "address",
          "name": "previousOwner",
          "type": "address"
        },
        {
          "indexed": true,
          "internalType": "address",
          "name": "newOwner",
          "type": "address"
        }
      ],
      "name": "OwnershipTransferred",
      "type": "event"
    },
    {
      "anonymous": false,
      "inputs": [
        {
          "indexed": false,
          "internalType": "uint256",
          "name": "order_id",
          "type": "uint256"
        },
        {
          "indexed": false,
          "internalType": "uint256",
          "name": "snapshotIndex",
          "type": "uint256"
        }
      ],
      "name": "TrailingOrderCreated",
      "type": "event"
    },
    {
      "anonymous": false,
      "inputs": [
        {
          "indexed": false,
          "internalType": "uint256",
          "name": "order_id",
          "type": "uint256"
        }
      ],
      "name": "TrailingOrderFilled",
      "type": "event"
    },
    {
      "inputs": [
        {
          "internalType": "address",
          "name": "_asset",
          "type": "address"
        },
        {
          "components": [
            {
              "internalType": "uint256",
              "name": "d",
              "type": "uint256"
            }
          ],
          "internalType": "struct Decimal.decimal",
          "name": "_limitPrice",
          "type": "tuple"
        },
        {
          "components": [
            {
              "internalType": "int256",
              "name": "d",
              "type": "int256"
            }
          ],
          "internalType": "struct SignedDecimal.signedDecimal",
          "name": "_positionSize",
          "type": "tuple"
        },
        {
          "components": [
            {
              "internalType": "uint256",
              "name": "d",
              "type": "uint256"
            }
          ],
          "internalType": "struct Decimal.decimal",
          "name": "_collateral",
          "type": "tuple"
        },
        {
          "components": [
            {
              "internalType": "uint256",
              "name": "d",
              "type": "uint256"
            }
          ],
          "internalType": "struct Decimal.decimal",
          "name": "_leverage",
          "type": "tuple"
        },
        {
          "components": [
            {
              "internalType": "uint256",
              "name": "d",
              "type": "uint256"
            }
          ],
          "internalType": "struct Decimal.decimal",
          "name": "_slippage",
          "type": "tuple"
        },
        {
          "components": [
            {
              "internalType": "uint256",
              "name": "d",
              "type": "uint256"
            }
          ],
          "internalType": "struct Decimal.decimal",
          "name": "_tipFee",
          "type": "tuple"
        },
        {
          "internalType": "bool",
          "name": "_reduceOnly",
          "type": "bool"
        },
        {
          "internalType": "uint256",
          "name": "_expiry",
          "type": "uint256"
        }
      ],
      "name": "addLimitOrder",
      "outputs": [],
      "stateMutability": "nonpayable",
      "type": "function"
    },
    {
      "inputs": [
        {
          "internalType": "address",
          "name": "_asset",
          "type": "address"
        },
        {
          "components": [
            {
              "internalType": "uint256",
              "name": "d",
              "type": "uint256"
            }
          ],
          "internalType": "struct Decimal.decimal",
          "name": "_stopPrice",
          "type": "tuple"
        },
        {
          "components": [
            {
              "internalType": "uint256",
              "name": "d",
              "type": "uint256"
            }
          ],
          "internalType": "struct Decimal.decimal",
          "name": "_limitPrice",
          "type": "tuple"
        },
        {
          "components": [
            {
              "internalType": "int256",
              "name": "d",
              "type": "int256"
            }
          ],
          "internalType": "struct SignedDecimal.signedDecimal",
          "name": "_positionSize",
          "type": "tuple"
        },
        {
          "components": [
            {
              "internalType": "uint256",
              "name": "d",
              "type": "uint256"
            }
          ],
          "internalType": "struct Decimal.decimal",
          "name": "_collateral",
          "type": "tuple"
        },
        {
          "components": [
            {
              "internalType": "uint256",
              "name": "d",
              "type": "uint256"
            }
          ],
          "internalType": "struct Decimal.decimal",
          "name": "_leverage",
          "type": "tuple"
        },
        {
          "components": [
            {
              "internalType": "uint256",
              "name": "d",
              "type": "uint256"
            }
          ],
          "internalType": "struct Decimal.decimal",
          "name": "_slippage",
          "type": "tuple"
        },
        {
          "components": [
            {
              "internalType": "uint256",
              "name": "d",
              "type": "uint256"
            }
          ],
          "internalType": "struct Decimal.decimal",
          "name": "_tipFee",
          "type": "tuple"
        },
        {
          "internalType": "bool",
          "name": "_reduceOnly",
          "type": "bool"
        },
        {
          "internalType": "uint256",
          "name": "_expiry",
          "type": "uint256"
        }
      ],
      "name": "addStopLimitOrder",
      "outputs": [],
      "stateMutability": "nonpayable",
      "type": "function"
    },
    {
      "inputs": [
        {
          "internalType": "address",
          "name": "_asset",
          "type": "address"
        },
        {
          "components": [
            {
              "internalType": "uint256",
              "name": "d",
              "type": "uint256"
            }
          ],
          "internalType": "struct Decimal.decimal",
          "name": "_stopPrice",
          "type": "tuple"
        },
        {
          "components": [
            {
              "internalType": "int256",
              "name": "d",
              "type": "int256"
            }
          ],
          "internalType": "struct SignedDecimal.signedDecimal",
          "name": "_positionSize",
          "type": "tuple"
        },
        {
          "components": [
            {
              "internalType": "uint256",
              "name": "d",
              "type": "uint256"
            }
          ],
          "internalType": "struct Decimal.decimal",
          "name": "_collateral",
          "type": "tuple"
        },
        {
          "components": [
            {
              "internalType": "uint256",
              "name": "d",
              "type": "uint256"
            }
          ],
          "internalType": "struct Decimal.decimal",
          "name": "_leverage",
          "type": "tuple"
        },
        {
          "components": [
            {
              "internalType": "uint256",
              "name": "d",
              "type": "uint256"
            }
          ],
          "internalType": "struct Decimal.decimal",
          "name": "_slippage",
          "type": "tuple"
        },
        {
          "components": [
            {
              "internalType": "uint256",
              "name": "d",
              "type": "uint256"
            }
          ],
          "internalType": "struct Decimal.decimal",
          "name": "_tipFee",
          "type": "tuple"
        },
        {
          "internalType": "bool",
          "name": "_reduceOnly",
          "type": "bool"
        },
        {
          "internalType": "uint256",
          "name": "_expiry",
          "type": "uint256"
        }
      ],
      "name": "addStopOrder",
      "outputs": [],
      "stateMutability": "nonpayable",
      "type": "function"
    },
    {
      "inputs": [
        {
          "internalType": "address",
          "name": "_asset",
          "type": "address"
        },
        {
          "components": [
            {
              "internalType": "uint256",
              "name": "d",
              "type": "uint256"
            }
          ],
          "internalType": "struct Decimal.decimal",
          "name": "_trail",
          "type": "tuple"
        },
        {
          "components": [
            {
              "internalType": "uint256",
              "name": "d",
              "type": "uint256"
            }
          ],
          "internalType": "struct Decimal.decimal",
          "name": "_gap",
          "type": "tuple"
        },
        {
          "components": [
            {
              "internalType": "int256",
              "name": "d",
              "type": "int256"
            }
          ],
          "internalType": "struct SignedDecimal.signedDecimal",
          "name": "_positionSize",
          "type": "tuple"
        },
        {
          "components": [
            {
              "internalType": "uint256",
              "name": "d",
              "type": "uint256"
            }
          ],
          "internalType": "struct Decimal.decimal",
          "name": "_collateral",
          "type": "tuple"
        },
        {
          "components": [
            {
              "internalType": "uint256",
              "name": "d",
              "type": "uint256"
            }
          ],
          "internalType": "struct Decimal.decimal",
          "name": "_leverage",
          "type": "tuple"
        },
        {
          "components": [
            {
              "internalType": "uint256",
              "name": "d",
              "type": "uint256"
            }
          ],
          "internalType": "struct Decimal.decimal",
          "name": "_slippage",
          "type": "tuple"
        },
        {
          "components": [
            {
              "internalType": "uint256",
              "name": "d",
              "type": "uint256"
            }
          ],
          "internalType": "struct Decimal.decimal",
          "name": "_tipFee",
          "type": "tuple"
        },
        {
          "internalType": "bool",
          "name": "_reduceOnly",
          "type": "bool"
        },
        {
          "internalType": "uint256",
          "name": "_expiry",
          "type": "uint256"
        }
      ],
      "name": "addTrailingStopLimitOrderAbs",
      "outputs": [],
      "stateMutability": "nonpayable",
      "type": "function"
    },
    {
      "inputs": [
        {
          "internalType": "address",
          "name": "_asset",
          "type": "address"
        },
        {
          "components": [
            {
              "internalType": "uint256",
              "name": "d",
              "type": "uint256"
            }
          ],
          "internalType": "struct Decimal.decimal",
          "name": "_trailPct",
          "type": "tuple"
        },
        {
          "components": [
            {
              "internalType": "uint256",
              "name": "d",
              "type": "uint256"
            }
          ],
          "internalType": "struct Decimal.decimal",
          "name": "_gapPct",
          "type": "tuple"
        },
        {
          "components": [
            {
              "internalType": "int256",
              "name": "d",
              "type": "int256"
            }
          ],
          "internalType": "struct SignedDecimal.signedDecimal",
          "name": "_positionSize",
          "type": "tuple"
        },
        {
          "components": [
            {
              "internalType": "uint256",
              "name": "d",
              "type": "uint256"
            }
          ],
          "internalType": "struct Decimal.decimal",
          "name": "_collateral",
          "type": "tuple"
        },
        {
          "components": [
            {
              "internalType": "uint256",
              "name": "d",
              "type": "uint256"
            }
          ],
          "internalType": "struct Decimal.decimal",
          "name": "_leverage",
          "type": "tuple"
        },
        {
          "components": [
            {
              "internalType": "uint256",
              "name": "d",
              "type": "uint256"
            }
          ],
          "internalType": "struct Decimal.decimal",
          "name": "_slippage",
          "type": "tuple"
        },
        {
          "components": [
            {
              "internalType": "uint256",
              "name": "d",
              "type": "uint256"
            }
          ],
          "internalType": "struct Decimal.decimal",
          "name": "_tipFee",
          "type": "tuple"
        },
        {
          "internalType": "bool",
          "name": "_reduceOnly",
          "type": "bool"
        },
        {
          "internalType": "uint256",
          "name": "_expiry",
          "type": "uint256"
        }
      ],
      "name": "addTrailingStopLimitOrderPct",
      "outputs": [],
      "stateMutability": "nonpayable",
      "type": "function"
    },
    {
      "inputs": [
        {
          "internalType": "address",
          "name": "_asset",
          "type": "address"
        },
        {
          "components": [
            {
              "internalType": "uint256",
              "name": "d",
              "type": "uint256"
            }
          ],
          "internalType": "struct Decimal.decimal",
          "name": "_trail",
          "type": "tuple"
        },
        {
          "components": [
            {
              "internalType": "int256",
              "name": "d",
              "type": "int256"
            }
          ],
          "internalType": "struct SignedDecimal.signedDecimal",
          "name": "_positionSize",
          "type": "tuple"
        },
        {
          "components": [
            {
              "internalType": "uint256",
              "name": "d",
              "type": "uint256"
            }
          ],
          "internalType": "struct Decimal.decimal",
          "name": "_collateral",
          "type": "tuple"
        },
        {
          "components": [
            {
              "internalType": "uint256",
              "name": "d",
              "type": "uint256"
            }
          ],
          "internalType": "struct Decimal.decimal",
          "name": "_leverage",
          "type": "tuple"
        },
        {
          "components": [
            {
              "internalType": "uint256",
              "name": "d",
              "type": "uint256"
            }
          ],
          "internalType": "struct Decimal.decimal",
          "name": "_tipFee",
          "type": "tuple"
        },
        {
          "internalType": "bool",
          "name": "_reduceOnly",
          "type": "bool"
        },
        {
          "internalType": "uint256",
          "name": "_expiry",
          "type": "uint256"
        }
      ],
      "name": "addTrailingStopMarketOrderAbs",
      "outputs": [],
      "stateMutability": "nonpayable",
      "type": "function"
    },
    {
      "inputs": [
        {
          "internalType": "address",
          "name": "_asset",
          "type": "address"
        },
        {
          "components": [
            {
              "internalType": "uint256",
              "name": "d",
              "type": "uint256"
            }
          ],
          "internalType": "struct Decimal.decimal",
          "name": "_trailPct",
          "type": "tuple"
        },
        {
          "components": [
            {
              "internalType": "int256",
              "name": "d",
              "type": "int256"
            }
          ],
          "internalType": "struct SignedDecimal.signedDecimal",
          "name": "_positionSize",
          "type": "tuple"
        },
        {
          "components": [
            {
              "internalType": "uint256",
              "name": "d",
              "type": "uint256"
            }
          ],
          "internalType": "struct Decimal.decimal",
          "name": "_collateral",
          "type": "tuple"
        },
        {
          "components": [
            {
              "internalType": "uint256",
              "name": "d",
              "type": "uint256"
            }
          ],
          "internalType": "struct Decimal.decimal",
          "name": "_leverage",
          "type": "tuple"
        },
        {
          "components": [
            {
              "internalType": "uint256",
              "name": "d",
              "type": "uint256"
            }
          ],
          "internalType": "struct Decimal.decimal",
          "name": "_tipFee",
          "type": "tuple"
        },
        {
          "internalType": "bool",
          "name": "_reduceOnly",
          "type": "bool"
        },
        {
          "internalType": "uint256",
          "name": "_expiry",
          "type": "uint256"
        }
      ],
      "name": "addTrailingStopMarketOrderPct",
      "outputs": [],
      "stateMutability": "nonpayable",
      "type": "function"
    },
    {
      "inputs": [
        {
          "components": [
            {
              "internalType": "uint256",
              "name": "d",
              "type": "uint256"
            }
          ],
          "internalType": "struct Decimal.decimal",
          "name": "_fee",
          "type": "tuple"
        }
      ],
      "name": "changeMinimumFee",
      "outputs": [],
      "stateMutability": "nonpayable",
      "type": "function"
    },
    {
      "inputs": [
        {
          "internalType": "uint256",
          "name": "order_id",
          "type": "uint256"
        }
      ],
      "name": "deleteOrder",
      "outputs": [],
      "stateMutability": "nonpayable",
      "type": "function"
    },
    {
      "inputs": [
        {
          "internalType": "uint256",
          "name": "order_id",
          "type": "uint256"
        }
      ],
      "name": "execute",
      "outputs": [],
      "stateMutability": "nonpayable",
      "type": "function"
    },
    {
      "inputs": [],
      "name": "factory",
      "outputs": [
        {
          "internalType": "contract SmartWalletFactory",
          "name": "",
          "type": "address"
        }
      ],
      "stateMutability": "view",
      "type": "function"
    },
    {
      "inputs": [
        {
          "internalType": "uint256",
          "name": "order_id",
          "type": "uint256"
        }
      ],
      "name": "getLimitOrder",
      "outputs": [
        {
          "components": [
            {
              "internalType": "address",
              "name": "asset",
              "type": "address"
            },
            {
              "internalType": "address",
              "name": "trader",
              "type": "address"
            },
            {
              "internalType": "enum LimitOrderBook.OrderType",
              "name": "orderType",
              "type": "uint8"
            },
            {
              "internalType": "bool",
              "name": "reduceOnly",
              "type": "bool"
            },
            {
              "internalType": "bool",
              "name": "stillValid",
              "type": "bool"
            },
            {
              "internalType": "uint256",
              "name": "expiry",
              "type": "uint256"
            },
            {
              "components": [
                {
                  "internalType": "uint256",
                  "name": "d",
                  "type": "uint256"
                }
              ],
              "internalType": "struct Decimal.decimal",
              "name": "stopPrice",
              "type": "tuple"
            },
            {
              "components": [
                {
                  "internalType": "uint256",
                  "name": "d",
                  "type": "uint256"
                }
              ],
              "internalType": "struct Decimal.decimal",
              "name": "limitPrice",
              "type": "tuple"
            },
            {
              "components": [
                {
                  "internalType": "int256",
                  "name": "d",
                  "type": "int256"
                }
              ],
              "internalType": "struct SignedDecimal.signedDecimal",
              "name": "orderSize",
              "type": "tuple"
            },
            {
              "components": [
                {
                  "internalType": "uint256",
                  "name": "d",
                  "type": "uint256"
                }
              ],
              "internalType": "struct Decimal.decimal",
              "name": "collateral",
              "type": "tuple"
            },
            {
              "components": [
                {
                  "internalType": "uint256",
                  "name": "d",
                  "type": "uint256"
                }
              ],
              "internalType": "struct Decimal.decimal",
              "name": "leverage",
              "type": "tuple"
            },
            {
              "components": [
                {
                  "internalType": "uint256",
                  "name": "d",
                  "type": "uint256"
                }
              ],
              "internalType": "struct Decimal.decimal",
              "name": "slippage",
              "type": "tuple"
            },
            {
              "components": [
                {
                  "internalType": "uint256",
                  "name": "d",
                  "type": "uint256"
                }
              ],
              "internalType": "struct Decimal.decimal",
              "name": "tipFee",
              "type": "tuple"
            }
          ],
          "internalType": "struct LimitOrderBook.LimitOrder",
          "name": "",
          "type": "tuple"
        }
      ],
      "stateMutability": "view",
      "type": "function"
    },
    {
      "inputs": [
        {
          "internalType": "uint256",
          "name": "id",
          "type": "uint256"
        }
      ],
      "name": "getLimitOrderParams",
      "outputs": [
        {
          "internalType": "address",
          "name": "",
          "type": "address"
        },
        {
          "internalType": "address",
          "name": "",
          "type": "address"
        },
        {
          "internalType": "enum LimitOrderBook.OrderType",
          "name": "",
          "type": "uint8"
        },
        {
          "internalType": "bool",
          "name": "",
          "type": "bool"
        },
        {
          "internalType": "bool",
          "name": "",
          "type": "bool"
        },
        {
          "internalType": "uint256",
          "name": "",
          "type": "uint256"
        }
      ],
      "stateMutability": "view",
      "type": "function"
    },
    {
      "inputs": [
        {
          "internalType": "uint256",
          "name": "id",
          "type": "uint256"
        }
      ],
      "name": "getLimitOrderPrices",
      "outputs": [
        {
          "components": [
            {
              "internalType": "uint256",
              "name": "d",
              "type": "uint256"
            }
          ],
          "internalType": "struct Decimal.decimal",
          "name": "",
          "type": "tuple"
        },
        {
          "components": [
            {
              "internalType": "uint256",
              "name": "d",
              "type": "uint256"
            }
          ],
          "internalType": "struct Decimal.decimal",
          "name": "",
          "type": "tuple"
        },
        {
          "components": [
            {
              "internalType": "int256",
              "name": "d",
              "type": "int256"
            }
          ],
          "internalType": "struct SignedDecimal.signedDecimal",
          "name": "",
          "type": "tuple"
        },
        {
          "components": [
            {
              "internalType": "uint256",
              "name": "d",
              "type": "uint256"
            }
          ],
          "internalType": "struct Decimal.decimal",
          "name": "",
          "type": "tuple"
        },
        {
          "components": [
            {
              "internalType": "uint256",
              "name": "d",
              "type": "uint256"
            }
          ],
          "internalType": "struct Decimal.decimal",
          "name": "",
          "type": "tuple"
        },
        {
          "components": [
            {
              "internalType": "uint256",
              "name": "d",
              "type": "uint256"
            }
          ],
          "internalType": "struct Decimal.decimal",
          "name": "",
          "type": "tuple"
        },
        {
          "components": [
            {
              "internalType": "uint256",
              "name": "d",
              "type": "uint256"
            }
          ],
          "internalType": "struct Decimal.decimal",
          "name": "",
          "type": "tuple"
        }
      ],
      "stateMutability": "view",
      "type": "function"
    },
    {
      "inputs": [],
      "name": "getNumberOrders",
      "outputs": [
        {
          "internalType": "uint256",
          "name": "",
          "type": "uint256"
        }
      ],
      "stateMutability": "view",
      "type": "function"
    },
    {
      "inputs": [
        {
          "internalType": "contract IAmm",
          "name": "_asset",
          "type": "address"
        },
        {
          "internalType": "uint256",
          "name": "_snapshotIndex",
          "type": "uint256"
        }
      ],
      "name": "getPriceAtSnapshot",
      "outputs": [
        {
          "components": [
            {
              "internalType": "uint256",
              "name": "d",
              "type": "uint256"
            }
          ],
          "internalType": "struct Decimal.decimal",
          "name": "",
          "type": "tuple"
        }
      ],
      "stateMutability": "view",
      "type": "function"
    },
    {
      "inputs": [
        {
          "internalType": "uint256",
          "name": "order_id",
          "type": "uint256"
        }
      ],
      "name": "getTrailingData",
      "outputs": [
        {
          "components": [
            {
              "components": [
                {
                  "internalType": "uint256",
                  "name": "d",
                  "type": "uint256"
                }
              ],
              "internalType": "struct Decimal.decimal",
              "name": "witnessPrice",
              "type": "tuple"
            },
            {
              "components": [
                {
                  "internalType": "uint256",
                  "name": "d",
                  "type": "uint256"
                }
              ],
              "internalType": "struct Decimal.decimal",
              "name": "trail",
              "type": "tuple"
            },
            {
              "components": [
                {
                  "internalType": "uint256",
                  "name": "d",
                  "type": "uint256"
                }
              ],
              "internalType": "struct Decimal.decimal",
              "name": "trailPct",
              "type": "tuple"
            },
            {
              "components": [
                {
                  "internalType": "uint256",
                  "name": "d",
                  "type": "uint256"
                }
              ],
              "internalType": "struct Decimal.decimal",
              "name": "gap",
              "type": "tuple"
            },
            {
              "components": [
                {
                  "internalType": "uint256",
                  "name": "d",
                  "type": "uint256"
                }
              ],
              "internalType": "struct Decimal.decimal",
              "name": "gapPct",
              "type": "tuple"
            },
            {
              "internalType": "bool",
              "name": "usePct",
              "type": "bool"
            },
            {
              "internalType": "uint256",
              "name": "snapshotCreated",
              "type": "uint256"
            },
            {
              "internalType": "uint256",
              "name": "snapshotLastUpdated",
              "type": "uint256"
            },
            {
              "internalType": "uint256",
              "name": "snapshotTimestamp",
              "type": "uint256"
            },
            {
              "internalType": "address",
              "name": "lastUpdatedKeeper",
              "type": "address"
            }
          ],
          "internalType": "struct LimitOrderBook.TrailingOrderData",
          "name": "",
          "type": "tuple"
        }
      ],
      "stateMutability": "view",
      "type": "function"
    },
    {
      "inputs": [],
      "name": "minimumTipFee",
      "outputs": [
        {
          "internalType": "uint256",
          "name": "d",
          "type": "uint256"
        }
      ],
      "stateMutability": "view",
      "type": "function"
    },
    {
      "inputs": [
        {
          "internalType": "uint256",
          "name": "order_id",
          "type": "uint256"
        },
        {
          "components": [
            {
              "internalType": "uint256",
              "name": "d",
              "type": "uint256"
            }
          ],
          "internalType": "struct Decimal.decimal",
          "name": "_stopPrice",
          "type": "tuple"
        },
        {
          "components": [
            {
              "internalType": "uint256",
              "name": "d",
              "type": "uint256"
            }
          ],
          "internalType": "struct Decimal.decimal",
          "name": "_limitPrice",
          "type": "tuple"
        },
        {
          "components": [
            {
              "internalType": "int256",
              "name": "d",
              "type": "int256"
            }
          ],
          "internalType": "struct SignedDecimal.signedDecimal",
          "name": "_orderSize",
          "type": "tuple"
        },
        {
          "components": [
            {
              "internalType": "uint256",
              "name": "d",
              "type": "uint256"
            }
          ],
          "internalType": "struct Decimal.decimal",
          "name": "_collateral",
          "type": "tuple"
        },
        {
          "components": [
            {
              "internalType": "uint256",
              "name": "d",
              "type": "uint256"
            }
          ],
          "internalType": "struct Decimal.decimal",
          "name": "_leverage",
          "type": "tuple"
        },
        {
          "components": [
            {
              "internalType": "uint256",
              "name": "d",
              "type": "uint256"
            }
          ],
          "internalType": "struct Decimal.decimal",
          "name": "_slippage",
          "type": "tuple"
        },
        {
          "internalType": "bool",
          "name": "_reduceOnly",
          "type": "bool"
        },
        {
          "internalType": "uint256",
          "name": "_expiry",
          "type": "uint256"
        }
      ],
      "name": "modifyOrder",
      "outputs": [],
      "stateMutability": "nonpayable",
      "type": "function"
    },
    {
      "inputs": [
        {
          "internalType": "uint256",
          "name": "order_id",
          "type": "uint256"
        },
        {
          "components": [
            {
              "internalType": "uint256",
              "name": "d",
              "type": "uint256"
            }
          ],
          "internalType": "struct Decimal.decimal",
          "name": "_newStop",
          "type": "tuple"
        },
        {
          "components": [
            {
              "internalType": "uint256",
              "name": "d",
              "type": "uint256"
            }
          ],
          "internalType": "struct Decimal.decimal",
          "name": "_newLimit",
          "type": "tuple"
        },
        {
          "components": [
            {
              "internalType": "int256",
              "name": "d",
              "type": "int256"
            }
          ],
          "internalType": "struct SignedDecimal.signedDecimal",
          "name": "_orderSize",
          "type": "tuple"
        },
        {
          "components": [
            {
              "internalType": "uint256",
              "name": "d",
              "type": "uint256"
            }
          ],
          "internalType": "struct Decimal.decimal",
          "name": "_collateral",
          "type": "tuple"
        },
        {
          "components": [
            {
              "internalType": "uint256",
              "name": "d",
              "type": "uint256"
            }
          ],
          "internalType": "struct Decimal.decimal",
          "name": "_leverage",
          "type": "tuple"
        },
        {
          "components": [
            {
              "internalType": "uint256",
              "name": "d",
              "type": "uint256"
            }
          ],
          "internalType": "struct Decimal.decimal",
          "name": "_slippage",
          "type": "tuple"
        },
        {
          "internalType": "bool",
          "name": "_reduceOnly",
          "type": "bool"
        },
        {
          "internalType": "uint256",
          "name": "_expiry",
          "type": "uint256"
        }
      ],
      "name": "modifyTrailingOrder",
      "outputs": [],
      "stateMutability": "nonpayable",
      "type": "function"
    },
    {
      "inputs": [
        {
          "internalType": "uint256",
          "name": "",
          "type": "uint256"
        }
      ],
      "name": "orders",
      "outputs": [
        {
          "internalType": "address",
          "name": "asset",
          "type": "address"
        },
        {
          "internalType": "address",
          "name": "trader",
          "type": "address"
        },
        {
          "internalType": "enum LimitOrderBook.OrderType",
          "name": "orderType",
          "type": "uint8"
        },
        {
          "internalType": "bool",
          "name": "reduceOnly",
          "type": "bool"
        },
        {
          "internalType": "bool",
          "name": "stillValid",
          "type": "bool"
        },
        {
          "internalType": "uint256",
          "name": "expiry",
          "type": "uint256"
        },
        {
          "components": [
            {
              "internalType": "uint256",
              "name": "d",
              "type": "uint256"
            }
          ],
          "internalType": "struct Decimal.decimal",
          "name": "stopPrice",
          "type": "tuple"
        },
        {
          "components": [
            {
              "internalType": "uint256",
              "name": "d",
              "type": "uint256"
            }
          ],
          "internalType": "struct Decimal.decimal",
          "name": "limitPrice",
          "type": "tuple"
        },
        {
          "components": [
            {
              "internalType": "int256",
              "name": "d",
              "type": "int256"
            }
          ],
          "internalType": "struct SignedDecimal.signedDecimal",
          "name": "orderSize",
          "type": "tuple"
        },
        {
          "components": [
            {
              "internalType": "uint256",
              "name": "d",
              "type": "uint256"
            }
          ],
          "internalType": "struct Decimal.decimal",
          "name": "collateral",
          "type": "tuple"
        },
        {
          "components": [
            {
              "internalType": "uint256",
              "name": "d",
              "type": "uint256"
            }
          ],
          "internalType": "struct Decimal.decimal",
          "name": "leverage",
          "type": "tuple"
        },
        {
          "components": [
            {
              "internalType": "uint256",
              "name": "d",
              "type": "uint256"
            }
          ],
          "internalType": "struct Decimal.decimal",
          "name": "slippage",
          "type": "tuple"
        },
        {
          "components": [
            {
              "internalType": "uint256",
              "name": "d",
              "type": "uint256"
            }
          ],
          "internalType": "struct Decimal.decimal",
          "name": "tipFee",
          "type": "tuple"
        }
      ],
      "stateMutability": "view",
      "type": "function"
    },
    {
      "inputs": [],
      "name": "owner",
      "outputs": [
        {
          "internalType": "address",
          "name": "",
          "type": "address"
        }
      ],
      "stateMutability": "view",
      "type": "function"
    },
    {
      "inputs": [
        {
          "internalType": "uint256",
          "name": "order_id",
          "type": "uint256"
        },
        {
          "internalType": "uint256",
          "name": "_reserveIndex",
          "type": "uint256"
        }
      ],
      "name": "pokeContract",
      "outputs": [],
      "stateMutability": "nonpayable",
      "type": "function"
    },
    {
      "inputs": [],
      "name": "pokeContractDelay",
      "outputs": [
        {
          "internalType": "uint256",
          "name": "",
          "type": "uint256"
        }
      ],
      "stateMutability": "view",
      "type": "function"
    },
    {
      "inputs": [],
      "name": "renounceOwnership",
      "outputs": [],
      "stateMutability": "nonpayable",
      "type": "function"
    },
    {
      "inputs": [
        {
          "internalType": "address",
          "name": "_addr",
          "type": "address"
        }
      ],
      "name": "setFactory",
      "outputs": [],
      "stateMutability": "nonpayable",
      "type": "function"
    },
    {
      "inputs": [
        {
          "internalType": "address",
          "name": "newOwner",
          "type": "address"
        }
      ],
      "name": "transferOwnership",
      "outputs": [],
      "stateMutability": "nonpayable",
      "type": "function"
    }
  ],
  "bytecode": "0x60806040526103846037553480156200001757600080fd5b5060006200002d6001600160e01b036200007d16565b600080546001600160a01b0319166001600160a01b0383169081178255604051929350917f8be0079c531659141344cd1fd0a4f28419497f9722a3daafe3b4186f6b6457e0908290a35062000081565b3390565b6145da80620000916000396000f3fe608060405234801561001057600080fd5b50600436106101b95760003560e01c806386f89642116100f9578063c45a015511610097578063e54ff5e511610071578063e54ff5e5146103b9578063f0d840d7146103c1578063f2fde38b146103e1578063fe0d94c1146103f4576101b9565b8063c45a015514610378578063dc4cb10714610380578063e36a2dc014610393576101b9565b8063a85c38ef116100d3578063a85c38ef14610313578063af52775d1461033f578063b96bb80614610352578063bc9aa8c314610365576101b9565b806386f89642146102e35780638ceddd77146102f65780638da5cb5b146102fe576101b9565b80634b5924af116101665780635ad86447116101405780635ad86447146102955780635bb47808146102a85780636bef7493146102bb578063715018a6146102db576101b9565b80634b5924af1461023d5780634c5789e3146102505780635306102614610275576101b9565b80632736f620116101975780632736f6201461020457806334c19830146102175780634885fd581461022a576101b9565b8063032e4f6e146101be5780630c39bb7a146101d357806311a00327146101f1575b600080fd5b6101d16101cc3660046138fc565b610407565b005b6101db61046c565b6040516101e8919061450a565b60405180910390f35b6101d16101ff366004613a7c565b610472565b6101d16102123660046138fc565b6105da565b6101d1610225366004613adb565b610634565b6101d1610238366004613a46565b610881565b6101d161024b366004613862565b6108c6565b61026361025e366004613a7c565b61094c565b6040516101e896959493929190613b51565b610288610283366004613a7c565b610af4565b6040516101e8919061432a565b6101d16102a33660046137a3565b610c5a565b6101d16102b636600461376b565b610d07565b6102ce6102c93660046139c4565b610d68565b6040516101e891906144cf565b6101d1610e31565b6101d16102f13660046137a3565b610eba565b6101db610f4c565b610306610f52565b6040516101e89190613b3d565b610326610321366004613a7c565b610f61565b6040516101e89d9c9b9a99989796959493929190613b96565b6101d161034d366004613aac565b61102f565b6101d16103603660046137a3565b611433565b6101d1610373366004613aac565b6114cc565b610306611873565b6101d161038e366004613862565b611882565b6103a66103a1366004613a7c565b6118e3565b6040516101e897969594939291906144d9565b6101db611acf565b6103d46103cf366004613a7c565b611ad5565b6040516101e89190614429565b6101d16103ef36600461376b565b611b9a565b6101d1610402366004613a7c565b611c5a565b610446886040518060400160405280601381526020017f53746f702063616e6e6f74206265207a65726f0000000000000000000000000081525061221d565b6104618960028a61045561224a565b8b8b8b8b8b8b8b612265565b505050505050505050565b60385481565b806034818154811061048057fe5b60009182526020909120600a90910201600101546001600160a01b031633146104c45760405162461bcd60e51b81526004016104bb906142f3565b60405180910390fd5b603454829081106104e75760405162461bcd60e51b81526004016104bb9061407f565b603483815481106104f457fe5b600091825260209091206001600a9092020101546040516001600160a01b03909116907f9839c5aee45262b904f4ede97f671e296b41355f52a965a7076f4d4db9321d4b9061054490869061450a565b60405180910390a26034838154811061055957fe5b600091825260208220600a9091020180546001600160a01b03191681556001810180547fffffffffffffffffff00000000000000000000000000000000000000000000001690556002810182905560038101829055600481018290556005810182905560068101829055600781018290556008810182905560090155505050565b610619886040518060400160405280601481526020017f4c696d69742063616e6e6f74206265207a65726f00000000000000000000000081525061221d565b61046189600161062761224a565b8b8b8b8b8b8b8b8b612265565b60046034838154811061064357fe5b90600052602060002090600a020160010160149054906101000a900460ff16600581111561066d57fe5b14806106af575060056034838154811061068357fe5b90600052602060002090600a020160010160149054906101000a900460ff1660058111156106ad57fe5b145b6106cb5760405162461bcd60e51b81526004016104bb90613ee9565b60008281526035602052604090206006015481116106fb5760405162461bcd60e51b81526004016104bb90613d0b565b60008281526035602052604090206007015481108061072e57506037546000838152603560205260409020600801544203115b61074a5760405162461bcd60e51b81526004016104bb90614239565b6000828152603560205260408120426008909101556034805461079791908590811061077257fe5b60009182526020918290206040805193840190526005600a909202010154815261273a565b6107a25760016107a5565b60005b90506107af6135cd565b6107df603485815481106107bf57fe5b60009182526020909120600a90910201546001600160a01b031684610d68565b9050816107ee576000196107f1565b60015b600085815260356020908152604091829020825191820190925290548152600f9190910b90610826908363ffffffff61275816565b60000b146108465760405162461bcd60e51b81526004016104bb906141a5565b6000848152603560205260409020815181556007810184905560090180546001600160a01b0319163317905561087b84612789565b50505050565b610889612b23565b6001600160a01b031661089a610f52565b6001600160a01b0316146108c05760405162461bcd60e51b81526004016104bb90614113565b51603855565b610905876040518060400160405280601481526020017f547261696c2063616e6e6f74206265207a65726f00000000000000000000000081525061221d565b61092e88600461091361224a565b61091b61224a565b8a8a8a61092661224a565b8b8b8b612265565b610942888861093b61224a565b6001612b27565b5050505050505050565b60008060008060008086603480549050811061097a5760405162461bcd60e51b81526004016104bb9061407f565b6109826135e0565b6034898154811061098f57fe5b6000918252602091829020604080516101a081018252600a90930290910180546001600160a01b03908116845260018201549081169484019490945291929083019060ff600160a01b9091041660058111156109e757fe5b60058111156109f257fe5b8152600182015460ff600160a81b820481161515602080850191909152600160b01b90920416151560408084019190915260028401546060808501919091528151808401835260038601548152608080860191909152825180850184526004870154815260a080870191909152835180860185526005880154815260c0870152835180860185526006880154815260e087015283518086018552600788015481526101008701528351808601855260088801548152610120870152835180860185526009909701548752610140909501959095528551928601519186015190860151948601519590930151919e909d50919b5091995091975095509350505050565b610afc6135e0565b60345482908110610b1f5760405162461bcd60e51b81526004016104bb9061407f565b60348381548110610b2c57fe5b6000918252602091829020604080516101a081018252600a90930290910180546001600160a01b03908116845260018201549081169484019490945291929083019060ff600160a01b909104166005811115610b8457fe5b6005811115610b8f57fe5b8152600182015460ff600160a81b820481161515602080850191909152600160b01b9092041615156040808401919091526002840154606084015280518083018252600385015481526080840152805180830182526004850154815260a0840152805180830182526005850154815260c0840152805180830182526006850154815260e0840152805180830182526007850154815261010084015280518083018252600885015481526101208401528051918201905260099092015482526101400152915050919050565b610c99896040518060400160405280601481526020017f547261696c2063616e6e6f74206265207a65726f00000000000000000000000081525061221d565b610cd8886040518060400160405280601281526020017f4761702063616e6e6f74206265207a65726f000000000000000000000000000081525061221d565b610cee8a6005610ce661224a565b61045561224a565b610cfb8a8a8a6000612b27565b50505050505050505050565b610d0f612b23565b6001600160a01b0316610d20610f52565b6001600160a01b031614610d465760405162461bcd60e51b81526004016104bb90614113565b603680546001600160a01b0319166001600160a01b0392909216919091179055565b610d706135cd565b610d78613671565b6040517f21e009850000000000000000000000000000000000000000000000000000000081526001600160a01b038516906321e0098590610dbd90869060040161450a565b60806040518083038186803b158015610dd557600080fd5b505afa158015610de9573d6000803e3d6000fd5b505050506040513d601f19601f82011682018060405250810190610e0d91906139ef565b60208101518151919250610e27919063ffffffff612ef116565b9150505b92915050565b610e39612b23565b6001600160a01b0316610e4a610f52565b6001600160a01b031614610e705760405162461bcd60e51b81526004016104bb90614113565b600080546040516001600160a01b03909116907f8be0079c531659141344cd1fd0a4f28419497f9722a3daafe3b4186f6b6457e0908390a3600080546001600160a01b0319169055565b610ef9886040518060400160405280601481526020017f4c696d69742063616e6e6f74206265207a65726f00000000000000000000000081525061221d565b610f38896040518060400160405280601381526020017f53746f702063616e6e6f74206265207a65726f0000000000000000000000000081525061221d565b610cfb8a60038b8b8b8b8b8b8b8b8b612265565b60345490565b6000546001600160a01b031690565b60348181548110610f6e57fe5b6000918252602091829020600a9091020180546001820154600283015460408051808701825260038601548152815180880183526004870154815282518089018452600588015481528351808a018552600689015481528451808b01865260078a015481528551808c01875260088b0154815286519b8c019096526009909901548a526001600160a01b039788169a509686169860ff600160a01b8804811699600160a81b8904821699600160b01b9099049091169794959394929390918d565b886034818154811061103d57fe5b60009182526020909120600a90910201600101546001600160a01b031633146110785760405162461bcd60e51b81526004016104bb906142f3565b6034548a90811061109b5760405162461bcd60e51b81526004016104bb9061407f565b8215806110a757508242105b6110c35760405162461bcd60e51b81526004016104bb90613e0d565b600160348c815481106110d257fe5b90600052602060002090600a020160010160149054906101000a900460ff1660058111156110fc57fe5b148061113e5750600260348c8154811061111257fe5b90600052602060002090600a020160010160149054906101000a900460ff16600581111561113c57fe5b145b8061117f5750600360348c8154811061115357fe5b90600052602060002090600a020160010160149054906101000a900460ff16600581111561117d57fe5b145b61119b5760405162461bcd60e51b81526004016104bb90614296565b6111e26111a789612f1d565b6040518060400160405280601581526020017f43616e6e6f7420646f20656d707479206f72646572000000000000000000000081525061221d565b611221876040518060400160405280601981526020017f43616e6e6f74207370656e64203020636f6c6c61746572616c0000000000000081525061221d565b611260866040518060400160405280601681526020017f43616e6e6f7420757365203078206c657665726167650000000000000000000081525061221d565b8960348c8154811061126e57fe5b90600052602060002090600a0201600301600082015181600001559050508860348c8154811061129a57fe5b90600052602060002090600a0201600401600082015181600001559050508760348c815481106112c657fe5b90600052602060002090600a0201600501600082015181600001559050508660348c815481106112f257fe5b90600052602060002090600a0201600601600082015181600001559050508560348c8154811061131e57fe5b90600052602060002090600a0201600701600082015181600001559050508460348c8154811061134a57fe5b90600052602060002090600a0201600801600082015181600001559050508360348c8154811061137657fe5b90600052602060002090600a020160010160156101000a81548160ff0219169083151502179055508260348c815481106113ac57fe5b90600052602060002090600a02016002018190555060348b815481106113ce57fe5b600091825260209091206001600a9092020101546040516001600160a01b03909116907f9839c5aee45262b904f4ede97f671e296b41355f52a965a7076f4d4db9321d4b9061141e908e9061450a565b60405180910390a25050505050505050505050565b611472896040518060400160405280601481526020017f547261696c2063616e6e6f74206265207a65726f00000000000000000000000081525061221d565b6114b1886040518060400160405280601281526020017f4761702063616e6e6f74206265207a65726f000000000000000000000000000081525061221d565b6114bf8a6005610ce661224a565b610cfb8a8a8a6001612b27565b88603481815481106114da57fe5b60009182526020909120600a90910201600101546001600160a01b031633146115155760405162461bcd60e51b81526004016104bb906142f3565b6034548a9081106115385760405162461bcd60e51b81526004016104bb9061407f565b82158061154457508242105b6115605760405162461bcd60e51b81526004016104bb90613e0d565b600460348c8154811061156f57fe5b90600052602060002090600a020160010160149054906101000a900460ff16600581111561159957fe5b14806115db5750600560348c815481106115af57fe5b90600052602060002090600a020160010160149054906101000a900460ff1660058111156115d957fe5b145b6115f75760405162461bcd60e51b81526004016104bb90613cd4565b6116036111a789612f1d565b611642876040518060400160405280601981526020017f43616e6e6f74207370656e64203020636f6c6c61746572616c0000000000000081525061221d565b611681866040518060400160405280601681526020017f43616e6e6f7420757365203078206c657665726167650000000000000000000081525061221d565b8760348c8154811061168f57fe5b90600052602060002090600a0201600501600082015181600001559050508660348c815481106116bb57fe5b90600052602060002090600a0201600601600082015181600001559050508560348c815481106116e757fe5b90600052602060002090600a0201600701600082015181600001559050508460348c8154811061171357fe5b90600052602060002090600a0201600801600082015181600001559050508360348c8154811061173f57fe5b90600052602060002090600a020160010160156101000a81548160ff0219169083151502179055508260348c8154811061177557fe5b600091825260208083206002600a9093020191909101929092558c81526035909152604090206005015460ff161561183f576117bf6117b2612f4b565b8b9063ffffffff61275816565b60000b600019146117e25760405162461bcd60e51b81526004016104bb90613e7b565b6117fa6117ed612f4b565b8a9063ffffffff61275816565b60000b6000191461181d5760405162461bcd60e51b81526004016104bb90614011565b60008b81526035602052604090208a516002820155895160049091015561185d565b60008b81526035602052604090208a51600182015589516003909101555b6118668b612789565b60348b815481106113ce57fe5b6036546001600160a01b031681565b6118c1876040518060400160405280601481526020017f547261696c2063616e6e6f74206265207a65726f00000000000000000000000081525061221d565b6118cf88600461091361224a565b61094288886118dc61224a565b6000612b27565b6118eb6135cd565b6118f36135cd565b6118fb6135cd565b6119036135cd565b61190b6135cd565b6119136135cd565b61191b6135cd565b6034548890811061193e5760405162461bcd60e51b81526004016104bb9061407f565b6119466135e0565b60348a8154811061195357fe5b6000918252602091829020604080516101a081018252600a90930290910180546001600160a01b03908116845260018201549081169484019490945291929083019060ff600160a01b9091041660058111156119ab57fe5b60058111156119b657fe5b8152600182015460ff600160a81b820481161515602080850191909152600160b01b9092041615156040808401919091526002840154606084015280518083018252600385015481526080840152805180830182526004850154815260a0840152805180830182526005850154815260c080850191909152815180840183526006860154815260e08086019190915282518085018452600787015481526101008087019190915283518086018552600888015481526101208088019190915284519586019094526009909601548452610140948501939093528501519185015193850151908501519285015161016086015161018090960151929e50939c509a5090985090965090945092505050919395979092949650565b60375481565b611add6136a5565b50600081815260356020908152604091829020825161016081018452815461014082019081528152835180840185526001830154815281840152835180840185526002830154815281850152835180840185526003830154815260608201528351928301909352600481015482526080830191909152600581015460ff16151560a0830152600681015460c0830152600781015460e08301526008810154610100830152600901546001600160a01b03166101208201525b919050565b611ba2612b23565b6001600160a01b0316611bb3610f52565b6001600160a01b031614611bd95760405162461bcd60e51b81526004016104bb90614113565b6001600160a01b038116611bff5760405162461bcd60e51b81526004016104bb90613d42565b600080546040516001600160a01b03808516939216917f8be0079c531659141344cd1fd0a4f28419497f9722a3daafe3b4186f6b6457e091a3600080546001600160a01b0319166001600160a01b0392909216919091179055565b60345481908110611c7d5760405162461bcd60e51b81526004016104bb9061407f565b60348281548110611c8a57fe5b90600052602060002090600a020160010160169054906101000a900460ff16611cc55760405162461bcd60e51b81526004016104bb90613d9f565b603654603480546000926001600160a01b03169163a0b738819186908110611ce957fe5b600091825260209091206001600a9092020101546040517fffffffff0000000000000000000000000000000000000000000000000000000060e084901b168152611d3f916001600160a01b031690600401613b3d565b60206040518083038186803b158015611d5757600080fd5b505afa158015611d6b573d6000803e3d6000fd5b505050506040513d601f19601f82011682018060405250810190611d8f9190613787565b90506000816001600160a01b03166394f61134856040518263ffffffff1660e01b8152600401611dbf919061450a565b602060405180830381600087803b158015611dd957600080fd5b505af1158015611ded573d6000803e3d6000fd5b505050506040513d601f19601f82011682018060405250810190611e1191906139a8565b905080611e305760405162461bcd60e51b81526004016104bb90613e44565b600460348581548110611e3f57fe5b90600052602060002090600a020160010160149054906101000a900460ff166005811115611e6957fe5b1480611eab5750600560348581548110611e7f57fe5b90600052602060002090600a020160010160149054906101000a900460ff166005811115611ea957fe5b145b15612101576000848152603560205260409020600901546001600160a01b03161561201857611f2d73ddafbb505ad214d7b80b1f830fccc89b60fb7a833033611f28600260348a81548110611efc57fe5b60009182526020918290206040805193840190526009600a90920201015481529063ffffffff612f6f16565b612f91565b60008481526035602052604090206009015460348054611f7c9273ddafbb505ad214d7b80b1f830fccc89b60fb7a839230926001600160a01b0390921691611f28916002918b908110611efc57fe5b7ffc0ec3e59df0924914ac81382ddd54522bb0c38d2b91b0667f0103cf6502559d84604051611fab919061450a565b60405180910390a160008481526035602052604081208181556001810182905560028101829055600381018290556004810182905560058101805460ff191690556006810182905560078101829055600881019190915560090180546001600160a01b03191690556120fc565b61206473ddafbb505ad214d7b80b1f830fccc89b60fb7a8330336034888154811061203f57fe5b60009182526020918290206040805193840190526009600a9092020101548152612f91565b7ffc0ec3e59df0924914ac81382ddd54522bb0c38d2b91b0667f0103cf6502559d84604051612093919061450a565b60405180910390a160008481526035602052604081208181556001810182905560028101829055600381018290556004810182905560058101805460ff191690556006810182905560078101829055600881019190915560090180546001600160a01b03191690555b612128565b61212873ddafbb505ad214d7b80b1f830fccc89b60fb7a8330336034888154811061203f57fe5b6034848154811061213557fe5b600091825260208220600a9091020180546001600160a01b03191681556001810180547fffffffffffffffffff0000000000000000000000000000000000000000000000169055600281018290556003810182905560048101829055600581018290556006810182905560078101829055600881018290556009015560348054859081106121bf57fe5b600091825260209091206001600a9092020101546040516001600160a01b03909116907f6ac084fe52cc25f2f64ae4aea087b0bf8e92c0a900b2425c1edda1f36c8cab0d9061220f90879061450a565b60405180910390a250505050565b612226826130e6565b81906122455760405162461bcd60e51b81526004016104bb9190613c6a565b505050565b6122526135cd565b5060408051602081019091526000815290565b80158061227157508042105b61228d5760405162461bcd60e51b81526004016104bb90613e0d565b604080516020810190915260385481526122ae90849063ffffffff61275816565b60000b60001914156122d25760405162461bcd60e51b81526004016104bb90614148565b6036546040517fa0b738810000000000000000000000000000000000000000000000000000000081526000916001600160a01b03169063a0b738819061231c903390600401613b3d565b60206040518083038186803b15801561233457600080fd5b505afa158015612348573d6000803e3d6000fd5b505050506040513d601f19601f8201168201806040525081019061236c9190613787565b6001600160a01b031614156123935760405162461bcd60e51b81526004016104bb90614048565b6040517f0774a784000000000000000000000000000000000000000000000000000000008152738c29f6f7fc1999ab84b476952e986f974acb382490630774a784906123e3908e90600401613b3d565b60206040518083038186803b1580156123fb57600080fd5b505afa15801561240f573d6000803e3d6000fd5b505050506040513d601f19601f8201168201806040525081019061243391906139a8565b61244f5760405162461bcd60e51b81526004016104bb90613c9d565b61245b6111a788612f1d565b6036546040517fa0b738810000000000000000000000000000000000000000000000000000000081526125159173ddafbb505ad214d7b80b1f830fccc89b60fb7a83916001600160a01b039091169063a0b73881906124be903390600401613b3d565b60206040518083038186803b1580156124d657600080fd5b505afa1580156124ea573d6000803e3d6000fd5b505050506040513d601f19601f8201168201806040525081019061250e9190613787565b3086612f91565b60345460405133917fcb0c37c16aa3b0bbb7a817932094d8a20a00996d426a813f067039f0ef87ab0791612549919061450a565b60405180910390a2604080516101a0810182526001600160a01b038d16815233602082015260349181018c600581111561257f57fe5b81528415156020808301919091526001604080840182905260608401879052608084018f905260a084018e905260c084018d905260e084018c905261010084018b905261012084018a9052610140909301889052845480820186556000958652948290208451600a9096020180546001600160a01b03199081166001600160a01b03978816178255928501519181018054909316919095161780825591830151929392917fffffffffffffffffffffff00ffffffffffffffffffffffffffffffffffffffff16600160a01b83600581111561265657fe5b0217905550606082015160018201805460808501511515600160b01b027fffffffffffffffffff00ffffffffffffffffffffffffffffffffffffffffffff931515600160a81b027fffffffffffffffffffff00ffffffffffffffffffffffffffffffffffffffffff909216919091179290921691909117905560a0820151600282015560c082015151600382015560e082015151600482015561010082015151600582015561012082015151600682015561014082015151600782015561016082015151600882015561018090910151516009909101555050505050505050505050565b6000808260000151121561275057506001611b95565b506000919050565b80518251600091101561276d57506001610e2b565b8151835110156127805750600019610e2b565b50600092915050565b6127916135cd565b5060008181526035602090815260408083208151928301909152548152603480549192916127c491908590811061077257fe5b6127cf5760016127d2565b60005b60008481526035602052604090206005015490915060ff161561298c576127f76135cd565b8161283b57600084815260356020908152604091829020825191820190925260029091015481526128369061282a612f4b565b9063ffffffff6130ea16565b612875565b6000848152603560209081526040918290208251918201909252600290910154815261287590612869612f4b565b9063ffffffff61310d16565b905061287f6135cd565b826128b757600085815260356020908152604091829020825191820190925260049091015481526128b29061282a612f4b565b6128e5565b600085815260356020908152604091829020825191820190925260049091015481526128e590612869612f4b565b90506128f7848363ffffffff61313016565b6034868154811061290457fe5b90600052602060002090600a02016003016000820151816000015590505061295f816034878154811061293357fe5b60009182526020918290206040805193840190526003600a90920201015481529063ffffffff61313016565b6034868154811061296c57fe5b6000918252602090912091516004600a9092029092010155506122459050565b806129c957600083815260356020908152604091829020825191820190925260019091015481526129c490839063ffffffff6130ea16565b6129fc565b600083815260356020908152604091829020825191820190925260019091015481526129fc90839063ffffffff61310d16565b60348481548110612a0957fe5b6000918252602090912091516003600a909202909201015580612a9257612a8d6035600085815260200190815260200160002060030160405180602001604052908160008201548152505060348581548110612a6157fe5b60009182526020918290206040805193840190526003600a90920201015481529063ffffffff6130ea16565b612af9565b612af96035600085815260200190815260200160002060030160405180602001604052908160008201548152505060348581548110612acd57fe5b60009182526020918290206040805193840190526003600a90920201015481529063ffffffff61310d16565b60348481548110612b0657fe5b6000918252602090912091516004600a9092029092010155505050565b3390565b60006001856001600160a01b0316630d451c8f6040518163ffffffff1660e01b815260040160206040518083038186803b158015612b6457600080fd5b505afa158015612b78573d6000803e3d6000fd5b505050506040513d601f19601f82011682018060405250810190612b9c9190613a94565b0390507f4c307a456602a1cfcbea38a491adb935be2ec87ce2d533dfecf1240ad30d710d60016034805490500382604051612bd8929190614513565b60405180910390a1612be86135cd565b856001600160a01b031663dc76fabc6040518163ffffffff1660e01b815260040160206040518083038186803b158015612c2157600080fd5b505afa158015612c35573d6000803e3d6000fd5b505050506040513d601f19601f82011682018060405250810190612c599190613a61565b90508215612ddb57612c79612c6c612f4b565b869063ffffffff61275816565b60000b60001914612c9c5760405162461bcd60e51b81526004016104bb90613e7b565b612cb4612ca7612f4b565b859063ffffffff61275816565b60000b60001914612cd75760405162461bcd60e51b81526004016104bb90614011565b604051806101400160405280828152602001612cf161224a565b8152602001868152602001612d0461224a565b8152602080820187905260016040808401829052606080850188905260808086018990524260a080880191909152600060c09788018190526034546000190181526035875284902088515181559588015151948601949094559186015151600285015585015151600384015584015151600483015583015160058201805460ff191691151591909117905590820151600682015560e08201516007820155610100820151600882015561012090910151600990910180546001600160a01b0319166001600160a01b03909216919091179055612ed9565b604051806101400160405280828152602001868152602001612dfb61224a565b8152602001858152602001612e0e61224a565b815260006020808301829052604080840187905260608085018890524260808087019190915260a0958601859052603454600019018552603584529382902086515181559286015151600184015590850151516002830155840151516003820155908301515160048201559082015160058201805460ff191691151591909117905560c0820151600682015560e08201516007820155610100820151600882015561012090910151600990910180546001600160a01b0319166001600160a01b039092169190911790555b603454612ee99060001901612789565b505050505050565b612ef96135cd565b612f016135cd565b82518451612f149163ffffffff61315316565b81529392505050565b612f256135cd565b612f2d6135cd565b825160001315612f435782516000038152610e2b565b915182525090565b612f536135cd565b6040518060200160405280612f686012613168565b9052905090565b612f776135cd565b612f7f6135cd565b8351612f14908463ffffffff61317116565b612f9a846131a3565b612fa26135cd565b612fac85846131f0565b90506000612fba868461327d565b905060006060876001600160a01b03166323b872dd60e01b888886604051602401612fe793929190613c46565b60408051601f198184030181529181526020820180517bffffffffffffffffffffffffffffffffffffffffffffffffffffffff167fffffffff000000000000000000000000000000000000000000000000000000009094169390931790925290516130529190613b21565b6000604051808303816000865af19150503d806000811461308f576040519150601f19603f3d011682016040523d82523d6000602084013e613094565b606091505b50915091508180156130be5750805115806130be5750808060200190518101906130be91906139a8565b6130da5760405162461bcd60e51b81526004016104bb90613fb4565b610942888785876132f3565b5190565b6130f26135cd565b6130fa6135cd565b82518451612f149163ffffffff61334616565b6131156135cd565b61311d6135cd565b82518451612f149163ffffffff61336e16565b6131386135cd565b6131406135cd565b82518451612f149163ffffffff61339316565b6000613161838360126133a1565b9392505050565b60ff16600a0a90565b60008082116131925760405162461bcd60e51b81526004016104bb90613f20565b81838161319b57fe5b049392505050565b60006131ae826133c8565b6001600160a01b03831660009081526001602052604090205490915081146131ec576001600160a01b03821660009081526001602052604090208190555b5050565b6131f86135cd565b61316183846001600160a01b03166370a08231856040518263ffffffff1660e01b81526004016132289190613b3d565b60206040518083038186803b15801561324057600080fd5b505afa158015613254573d6000803e3d6000fd5b505050506040513d601f19601f820116820180604052508101906132789190613a94565b6134e3565b600080613289846133c8565b9050601281106132c7576132bf6132a782601263ffffffff61334616565b600a0a6132b3856130e6565b9063ffffffff61357516565b915050610e2b565b610e276132db60128363ffffffff61334616565b600a0a6132e7856130e6565b9063ffffffff61317116565b61332661331061330386856134e3565b839063ffffffff61310d16565b61331a86866131f0565b9063ffffffff61275816565b60000b1561087b5760405162461bcd60e51b81526004016104bb906141dc565b6000828211156133685760405162461bcd60e51b81526004016104bb90613eb2565b50900390565b6000828201838110156131615760405162461bcd60e51b81526004016104bb90613dd6565b6000613161838360126135af565b60006133c0836132e76133b385613168565b879063ffffffff61357516565b949350505050565b6001600160a01b03811660009081526001602052604081205480610e2b5760408051600481526024810182526020810180517bffffffffffffffffffffffffffffffffffffffffffffffffffffffff167f313ce5670000000000000000000000000000000000000000000000000000000017905290516000916060916001600160a01b0387169161345891613b21565b600060405180830381855afa9150503d8060008114613493576040519150601f19603f3d011682016040523d82523d6000602084013e613498565b606091505b50915091508180156134aa5750805115155b6134c65760405162461bcd60e51b81526004016104bb90613f57565b808060200190518101906134da9190613a94565b95945050505050565b6134eb6135cd565b60006134f6846133c8565b90506012811061353b5760408051602081019091528061353061352084601263ffffffff61334616565b8690600a0a63ffffffff61317116565b815250915050610e2b565b60408051602081019091528061356b61355b60128563ffffffff61334616565b8690600a0a63ffffffff61357516565b9052949350505050565b60008261358457506000610e2b565b8282028284828161359157fe5b04146131615760405162461bcd60e51b81526004016104bb906140b6565b60006133c06135bd83613168565b6132e7868663ffffffff61357516565b6040518060200160405280600081525090565b604080516101a0810182526000808252602082018190529091820190815260006020820181905260408201819052606082015260800161361e6135cd565b815260200161362b6135cd565b81526020016136386135cd565b81526020016136456135cd565b81526020016136526135cd565b815260200161365f6135cd565b815260200161366c6135cd565b905290565b60405180608001604052806136846135cd565b81526020016136916135cd565b815260200160008152602001600081525090565b6040518061014001604052806136b96135cd565b81526020016136c66135cd565b81526020016136d36135cd565b81526020016136e06135cd565b81526020016136ed6135cd565b815260200160001515815260200160008152602001600081526020016000815260200160006001600160a01b031681525090565b600060208284031215613732578081fd5b61373c6020614521565b9135825250919050565b600060208284031215613757578081fd5b6137616020614521565b9151825250919050565b60006020828403121561377c578081fd5b813561316181614581565b600060208284031215613798578081fd5b815161316181614581565b6000806000806000806000806000806101408b8d0312156137c2578586fd5b8a356137cd81614581565b99506137dc8c60208d01613721565b98506137eb8c60408d01613721565b97506137fa8c60608d01613721565b96506138098c60808d01613721565b95506138188c60a08d01613721565b94506138278c60c08d01613721565b93506138368c60e08d01613721565b92506101008b013561384781614596565b809250506101208b013590509295989b9194979a5092959850565b600080600080600080600080610100898b03121561387e578384fd5b883561388981614581565b97506138988a60208b01613721565b96506138a78a60408b01613721565b95506138b68a60608b01613721565b94506138c58a60808b01613721565b93506138d48a60a08b01613721565b925060c08901356138e481614596565b8092505060e089013590509295985092959890939650565b60008060008060008060008060006101208a8c03121561391a578485fd5b893561392581614581565b98506139348b60208c01613721565b97506139438b60408c01613721565b96506139528b60608c01613721565b95506139618b60808c01613721565b94506139708b60a08c01613721565b935061397f8b60c08c01613721565b925060e08a013561398f81614596565b809250506101008a013590509295985092959850929598565b6000602082840312156139b9578081fd5b815161316181614596565b600080604083850312156139d6578182fd5b82356139e181614581565b946020939093013593505050565b600060808284031215613a00578081fd5b613a0a6080614521565b613a148484613746565b8152613a238460208501613746565b602082015260408301516040820152606083015160608201528091505092915050565b600060208284031215613a57578081fd5b6131618383613721565b600060208284031215613a72578081fd5b6131618383613746565b600060208284031215613a8d578081fd5b5035919050565b600060208284031215613aa5578081fd5b5051919050565b60008060008060008060008060006101208a8c031215613aca578283fd5b893598506139348b60208c01613721565b60008060408385031215613aed578182fd5b50508035926020909101359150565b6001600160a01b03169052565b15159052565b613b1881614574565b9052565b519052565b60008251613b33818460208701614548565b9190910192915050565b6001600160a01b0391909116815260200190565b6001600160a01b0387811682528616602082015260c08101613b7286614574565b60408201959095529215156060840152901515608083015260a09091015292915050565b6001600160a01b038e811682528d1660208201526101a08101613bb88d614574565b8c60408301528b151560608301528a151560808301528960a0830152613be160c083018a613b1c565b613bee60e0830189613b1c565b613bfc610100830188613b1c565b613c0a610120830187613b1c565b613c18610140830186613b1c565b613c26610160830185613b1c565b613c34610180830184613b1c565b9e9d5050505050505050505050505050565b6001600160a01b039384168152919092166020820152604081019190915260600190565b6000602082528251806020840152613c89816040850160208701614548565b601f01601f19169190910160400192915050565b6020808252600d908201527f616d6d206e6f7420666f756e6400000000000000000000000000000000000000604082015260600190565b6020808252601f908201527f43616e206f6e6c79206d6f6469667920747261696c696e67206f726465727300604082015260600190565b60208082526019908201527f4f72646572206861646e2774206265656e206372656174656400000000000000604082015260600190565b60208082526026908201527f4f776e61626c653a206e6577206f776e657220697320746865207a65726f206160408201527f6464726573730000000000000000000000000000000000000000000000000000606082015260800190565b6020808252600f908201527f4e6f206c6f6e6765722076616c69640000000000000000000000000000000000604082015260600190565b6020808252601b908201527f536166654d6174683a206164646974696f6e206f766572666c6f770000000000604082015260600190565b60208082526019908201527f4576656e742077696c6c2065787069726520696e207061737400000000000000604082015260600190565b60208082526015908201527f4572726f7220657865637574696e67206f726465720000000000000000000000604082015260600190565b60208082526015908201527f496e76616c696420747261696c2070657263656e740000000000000000000000604082015260600190565b6020808252601e908201527f536166654d6174683a207375627472616374696f6e206f766572666c6f770000604082015260600190565b6020808252601d908201527f43616e206f6e6c7920706f6b6520747261696c696e67206f7264657273000000604082015260600190565b6020808252601a908201527f536166654d6174683a206469766973696f6e206279207a65726f000000000000604082015260600190565b60208082526021908201527f446563696d616c45524332303a2067657420646563696d616c73206661696c6560408201527f6400000000000000000000000000000000000000000000000000000000000000606082015260800190565b60208082526021908201527f446563696d616c45524332303a207472616e7366657246726f6d206661696c6560408201527f6400000000000000000000000000000000000000000000000000000000000000606082015260800190565b60208082526013908201527f496e76616c6964206761702070657263656e7400000000000000000000000000604082015260600190565b60208082526011908201527f4e65656420736d6172742077616c6c6574000000000000000000000000000000604082015260600190565b6020808252600a908201527f496e76616c696420494400000000000000000000000000000000000000000000604082015260600190565b60208082526021908201527f536166654d6174683a206d756c7469706c69636174696f6e206f766572666c6f60408201527f7700000000000000000000000000000000000000000000000000000000000000606082015260800190565b6020808252818101527f4f776e61626c653a2063616c6c6572206973206e6f7420746865206f776e6572604082015260600190565b6020808252602a908201527f4a757374207468652074697021205469702069732062656c6f77206d696e696d60408201527f756d207469702066656500000000000000000000000000000000000000000000606082015260800190565b60208082526018908201527f496e636f727265637420747261696c696e672070726963650000000000000000604082015260600190565b60208082526022908201527f446563696d616c45524332303a2062616c616e636520696e636f6e736973746560408201527f6e74000000000000000000000000000000000000000000000000000000000000606082015260800190565b60208082526024908201527f43616e206f6e6c792062652075706461746564206576657279203135206d696e60408201527f7574657300000000000000000000000000000000000000000000000000000000606082015260800190565b60208082526021908201527f43616e206f6e6c79206d6f646966792073746f702f6c696d6974206f7264657260408201527f7300000000000000000000000000000000000000000000000000000000000000606082015260800190565b6020808252600e908201527f4e6f7420796f7572206f72646572000000000000000000000000000000000000604082015260600190565b60006101a08201905061433e828451613afc565b60208301516143506020840182613afc565b5060408301516143636040840182613b0f565b5060608301516143766060840182613b09565b5060808301516143896080840182613b09565b5060a083015160a083015260c08301516143a660c0840182613b1c565b5060e08301516143b960e0840182613b1c565b50610100808401516143cd82850182613b1c565b5050610120808401516143e282850182613b1c565b5050610140808401516143f782850182613b1c565b50506101608084015161440c82850182613b1c565b50506101808084015161442182850182613b1c565b505092915050565b60006101408201905061443d828451613b1c565b602083015161444f6020840182613b1c565b5060408301516144626040840182613b1c565b5060608301516144756060840182613b1c565b5060808301516144886080840182613b1c565b5060a083015161449b60a0840182613b09565b5060c083015160c083015260e083015160e08301526101008084015181840152506101208084015161442182850182613afc565b9051815260200190565b965187529451602087015292516040860152905160608501525160808401525160a08301525160c082015260e00190565b90815260200190565b918252602082015260400190565b60405181810167ffffffffffffffff8111828210171561454057600080fd5b604052919050565b60005b8381101561456357818101518382015260200161454b565b8381111561087b5750506000910152565b6006811061457e57fe5b50565b6001600160a01b038116811461457e57600080fd5b801515811461457e57600080fdfea26469706673582212208f8bce939c64a694d51b6976d774a94870163cf240c03f7fd34841341cdbeec664736f6c63430006090033",
  "linkReferences": {},
  "deployedLinkReferences": {}
}