{
  "_format": "hh-sol-artifact-1",
  "contractName": "LimitOrderBook",
  "sourceName": "contracts/LimitOrderBook.sol",
  "abi": [
    {
      "inputs": [],
      "stateMutability": "nonpayable",
      "type": "constructor"
    },
    {
      "anonymous": false,
      "inputs": [
        {
          "indexed": true,
          "internalType": "address",
          "name": "trader",
          "type": "address"
        },
        {
          "indexed": false,
          "internalType": "int256",
          "name": "limit",
          "type": "int256"
        },
        {
          "indexed": false,
          "internalType": "int256",
          "name": "size",
          "type": "int256"
        },
        {
          "indexed": false,
          "internalType": "int256",
          "name": "expiry",
          "type": "int256"
        },
        {
          "indexed": false,
          "internalType": "int256",
          "name": "leverage",
          "type": "int256"
        },
        {
          "indexed": false,
          "internalType": "address",
          "name": "asset",
          "type": "address"
        }
      ],
      "name": "OrderCreated",
      "type": "event"
    },
    {
      "inputs": [
        {
          "internalType": "int256",
          "name": "_limit",
          "type": "int256"
        },
        {
          "internalType": "int256",
          "name": "_size",
          "type": "int256"
        },
        {
          "internalType": "int256",
          "name": "_expiry",
          "type": "int256"
        },
        {
          "internalType": "int256",
          "name": "_leverage",
          "type": "int256"
        },
        {
          "internalType": "address",
          "name": "_asset",
          "type": "address"
        }
      ],
      "name": "addLimitOrder",
      "outputs": [],
      "stateMutability": "nonpayable",
      "type": "function"
    },
    {
      "inputs": [
        {
          "internalType": "uint256",
          "name": "id",
          "type": "uint256"
        }
      ],
      "name": "getLimitOrder",
      "outputs": [
        {
          "internalType": "int256",
          "name": "",
          "type": "int256"
        },
        {
          "internalType": "int256",
          "name": "",
          "type": "int256"
        },
        {
          "internalType": "int256",
          "name": "",
          "type": "int256"
        },
        {
          "internalType": "int256",
          "name": "",
          "type": "int256"
        },
        {
          "internalType": "bool",
          "name": "",
          "type": "bool"
        },
        {
          "internalType": "address",
          "name": "",
          "type": "address"
        }
      ],
      "stateMutability": "view",
      "type": "function"
    },
    {
      "inputs": [
        {
          "internalType": "uint256",
          "name": "",
          "type": "uint256"
        }
      ],
      "name": "orders",
      "outputs": [
        {
          "internalType": "int256",
          "name": "LimitPrice",
          "type": "int256"
        },
        {
          "internalType": "int256",
          "name": "PositionSize",
          "type": "int256"
        },
        {
          "internalType": "int256",
          "name": "Expiry",
          "type": "int256"
        },
        {
          "internalType": "int256",
          "name": "Leverage",
          "type": "int256"
        },
        {
          "internalType": "bool",
          "name": "StillValid",
          "type": "bool"
        },
        {
          "internalType": "address",
          "name": "Asset",
          "type": "address"
        }
      ],
      "stateMutability": "view",
      "type": "function"
    }
  ],
  "bytecode": "0x608060405234801561001057600080fd5b5061057f806100206000396000f3fe608060405234801561001057600080fd5b50600436106100415760003560e01c806353061026146100465780636490801f146100db578063a85c38ef14610147575b600080fd5b6100726004803603602081101561005c57600080fd5b81019080803590602001909291905050506101dc565b60405180878152602001868152602001858152602001848152602001831515151581526020018273ffffffffffffffffffffffffffffffffffffffff1673ffffffffffffffffffffffffffffffffffffffff168152602001965050505050505060405180910390f35b610145600480360360a08110156100f157600080fd5b8101908080359060200190929190803590602001909291908035906020019092919080359060200190929190803573ffffffffffffffffffffffffffffffffffffffff1690602001909291905050506102e2565b005b6101736004803603602081101561015d57600080fd5b8101908080359060200190929190505050610485565b60405180878152602001868152602001858152602001848152602001831515151581526020018273ffffffffffffffffffffffffffffffffffffffff1673ffffffffffffffffffffffffffffffffffffffff168152602001965050505050505060405180910390f35b6000806000806000806101ed6104fb565b600088815481106101fa57fe5b90600052602060002090600502016040518060c0016040529081600082015481526020016001820154815260200160028201548152602001600382015481526020016004820160009054906101000a900460ff161515151581526020016004820160019054906101000a900473ffffffffffffffffffffffffffffffffffffffff1673ffffffffffffffffffffffffffffffffffffffff1673ffffffffffffffffffffffffffffffffffffffff16815250509050806000015181602001518260400151836060015184608001518560a001519650965096509650965096505091939550919395565b60006040518060c001604052808781526020018681526020018581526020018481526020016001151581526020018373ffffffffffffffffffffffffffffffffffffffff1681525090806001815401808255809150506001900390600052602060002090600502016000909190919091506000820151816000015560208201518160010155604082015181600201556060820151816003015560808201518160040160006101000a81548160ff02191690831515021790555060a08201518160040160016101000a81548173ffffffffffffffffffffffffffffffffffffffff021916908373ffffffffffffffffffffffffffffffffffffffff16021790555050503373ffffffffffffffffffffffffffffffffffffffff167f3c854f7e068d2e79754470a7c7415a02dd528460d6ff0f71bc1aa924849fa14e8686868686604051808681526020018581526020018481526020018381526020018273ffffffffffffffffffffffffffffffffffffffff1673ffffffffffffffffffffffffffffffffffffffff1681526020019550505050505060405180910390a25050505050565b6000818154811061049257fe5b90600052602060002090600502016000915090508060000154908060010154908060020154908060030154908060040160009054906101000a900460ff16908060040160019054906101000a900473ffffffffffffffffffffffffffffffffffffffff16905086565b6040518060c0016040528060008152602001600081526020016000815260200160008152602001600015158152602001600073ffffffffffffffffffffffffffffffffffffffff168152509056fea2646970667358221220b18ff3258f1b7f1743d4b7c319280bcccefed61911a95245af6087c83e0a367864736f6c63430006090033",
  "linkReferences": {},
  "deployedLinkReferences": {}
}