{
  "_format": "hh-sol-artifact-1",
  "contractName": "LimitOrderBook",
  "sourceName": "contracts/LimitOrderBook.sol",
  "abi": [
    {
      "anonymous": false,
      "inputs": [
        {
          "indexed": true,
          "internalType": "address",
          "name": "trader",
          "type": "address"
        },
        {
          "indexed": false,
          "internalType": "uint256",
          "name": "order_id",
          "type": "uint256"
        }
      ],
      "name": "OrderChanged",
      "type": "event"
    },
    {
      "anonymous": false,
      "inputs": [
        {
          "indexed": true,
          "internalType": "address",
          "name": "trader",
          "type": "address"
        },
        {
          "indexed": false,
          "internalType": "uint256",
          "name": "order_id",
          "type": "uint256"
        }
      ],
      "name": "OrderCreated",
      "type": "event"
    },
    {
      "anonymous": false,
      "inputs": [
        {
          "indexed": true,
          "internalType": "address",
          "name": "trader",
          "type": "address"
        },
        {
          "indexed": false,
          "internalType": "uint256",
          "name": "order_id",
          "type": "uint256"
        }
      ],
      "name": "OrderFilled",
      "type": "event"
    },
    {
      "anonymous": false,
      "inputs": [
        {
          "indexed": true,
          "internalType": "address",
          "name": "previousOwner",
          "type": "address"
        },
        {
          "indexed": true,
          "internalType": "address",
          "name": "newOwner",
          "type": "address"
        }
      ],
      "name": "OwnershipTransferred",
      "type": "event"
    },
    {
      "anonymous": false,
      "inputs": [
        {
          "indexed": false,
          "internalType": "uint256",
          "name": "order_id",
          "type": "uint256"
        },
        {
          "indexed": false,
          "internalType": "uint256",
          "name": "snapshotIndex",
          "type": "uint256"
        }
      ],
      "name": "TrailingOrderCreated",
      "type": "event"
    },
    {
      "anonymous": false,
      "inputs": [
        {
          "indexed": false,
          "internalType": "uint256",
          "name": "order_id",
          "type": "uint256"
        }
      ],
      "name": "TrailingOrderFilled",
      "type": "event"
    },
    {
      "inputs": [
        {
          "internalType": "address",
          "name": "_asset",
          "type": "address"
        },
        {
          "components": [
            {
              "internalType": "uint256",
              "name": "d",
              "type": "uint256"
            }
          ],
          "internalType": "struct Decimal.decimal",
          "name": "_limitPrice",
          "type": "tuple"
        },
        {
          "components": [
            {
              "internalType": "int256",
              "name": "d",
              "type": "int256"
            }
          ],
          "internalType": "struct SignedDecimal.signedDecimal",
          "name": "_positionSize",
          "type": "tuple"
        },
        {
          "components": [
            {
              "internalType": "uint256",
              "name": "d",
              "type": "uint256"
            }
          ],
          "internalType": "struct Decimal.decimal",
          "name": "_collateral",
          "type": "tuple"
        },
        {
          "components": [
            {
              "internalType": "uint256",
              "name": "d",
              "type": "uint256"
            }
          ],
          "internalType": "struct Decimal.decimal",
          "name": "_leverage",
          "type": "tuple"
        },
        {
          "components": [
            {
              "internalType": "uint256",
              "name": "d",
              "type": "uint256"
            }
          ],
          "internalType": "struct Decimal.decimal",
          "name": "_slippage",
          "type": "tuple"
        },
        {
          "components": [
            {
              "internalType": "uint256",
              "name": "d",
              "type": "uint256"
            }
          ],
          "internalType": "struct Decimal.decimal",
          "name": "_tipFee",
          "type": "tuple"
        },
        {
          "internalType": "bool",
          "name": "_reduceOnly",
          "type": "bool"
        },
        {
          "internalType": "uint256",
          "name": "_expiry",
          "type": "uint256"
        }
      ],
      "name": "addLimitOrder",
      "outputs": [],
      "stateMutability": "nonpayable",
      "type": "function"
    },
    {
      "inputs": [
        {
          "internalType": "address",
          "name": "_asset",
          "type": "address"
        },
        {
          "components": [
            {
              "internalType": "uint256",
              "name": "d",
              "type": "uint256"
            }
          ],
          "internalType": "struct Decimal.decimal",
          "name": "_stopPrice",
          "type": "tuple"
        },
        {
          "components": [
            {
              "internalType": "uint256",
              "name": "d",
              "type": "uint256"
            }
          ],
          "internalType": "struct Decimal.decimal",
          "name": "_limitPrice",
          "type": "tuple"
        },
        {
          "components": [
            {
              "internalType": "int256",
              "name": "d",
              "type": "int256"
            }
          ],
          "internalType": "struct SignedDecimal.signedDecimal",
          "name": "_positionSize",
          "type": "tuple"
        },
        {
          "components": [
            {
              "internalType": "uint256",
              "name": "d",
              "type": "uint256"
            }
          ],
          "internalType": "struct Decimal.decimal",
          "name": "_collateral",
          "type": "tuple"
        },
        {
          "components": [
            {
              "internalType": "uint256",
              "name": "d",
              "type": "uint256"
            }
          ],
          "internalType": "struct Decimal.decimal",
          "name": "_leverage",
          "type": "tuple"
        },
        {
          "components": [
            {
              "internalType": "uint256",
              "name": "d",
              "type": "uint256"
            }
          ],
          "internalType": "struct Decimal.decimal",
          "name": "_slippage",
          "type": "tuple"
        },
        {
          "components": [
            {
              "internalType": "uint256",
              "name": "d",
              "type": "uint256"
            }
          ],
          "internalType": "struct Decimal.decimal",
          "name": "_tipFee",
          "type": "tuple"
        },
        {
          "internalType": "bool",
          "name": "_reduceOnly",
          "type": "bool"
        },
        {
          "internalType": "uint256",
          "name": "_expiry",
          "type": "uint256"
        }
      ],
      "name": "addStopLimitOrder",
      "outputs": [],
      "stateMutability": "nonpayable",
      "type": "function"
    },
    {
      "inputs": [
        {
          "internalType": "address",
          "name": "_asset",
          "type": "address"
        },
        {
          "components": [
            {
              "internalType": "uint256",
              "name": "d",
              "type": "uint256"
            }
          ],
          "internalType": "struct Decimal.decimal",
          "name": "_stopPrice",
          "type": "tuple"
        },
        {
          "components": [
            {
              "internalType": "int256",
              "name": "d",
              "type": "int256"
            }
          ],
          "internalType": "struct SignedDecimal.signedDecimal",
          "name": "_positionSize",
          "type": "tuple"
        },
        {
          "components": [
            {
              "internalType": "uint256",
              "name": "d",
              "type": "uint256"
            }
          ],
          "internalType": "struct Decimal.decimal",
          "name": "_collateral",
          "type": "tuple"
        },
        {
          "components": [
            {
              "internalType": "uint256",
              "name": "d",
              "type": "uint256"
            }
          ],
          "internalType": "struct Decimal.decimal",
          "name": "_leverage",
          "type": "tuple"
        },
        {
          "components": [
            {
              "internalType": "uint256",
              "name": "d",
              "type": "uint256"
            }
          ],
          "internalType": "struct Decimal.decimal",
          "name": "_slippage",
          "type": "tuple"
        },
        {
          "components": [
            {
              "internalType": "uint256",
              "name": "d",
              "type": "uint256"
            }
          ],
          "internalType": "struct Decimal.decimal",
          "name": "_tipFee",
          "type": "tuple"
        },
        {
          "internalType": "bool",
          "name": "_reduceOnly",
          "type": "bool"
        },
        {
          "internalType": "uint256",
          "name": "_expiry",
          "type": "uint256"
        }
      ],
      "name": "addStopOrder",
      "outputs": [],
      "stateMutability": "nonpayable",
      "type": "function"
    },
    {
      "inputs": [
        {
          "internalType": "address",
          "name": "_asset",
          "type": "address"
        },
        {
          "components": [
            {
              "internalType": "uint256",
              "name": "d",
              "type": "uint256"
            }
          ],
          "internalType": "struct Decimal.decimal",
          "name": "_trail",
          "type": "tuple"
        },
        {
          "components": [
            {
              "internalType": "uint256",
              "name": "d",
              "type": "uint256"
            }
          ],
          "internalType": "struct Decimal.decimal",
          "name": "_gap",
          "type": "tuple"
        },
        {
          "components": [
            {
              "internalType": "int256",
              "name": "d",
              "type": "int256"
            }
          ],
          "internalType": "struct SignedDecimal.signedDecimal",
          "name": "_positionSize",
          "type": "tuple"
        },
        {
          "components": [
            {
              "internalType": "uint256",
              "name": "d",
              "type": "uint256"
            }
          ],
          "internalType": "struct Decimal.decimal",
          "name": "_collateral",
          "type": "tuple"
        },
        {
          "components": [
            {
              "internalType": "uint256",
              "name": "d",
              "type": "uint256"
            }
          ],
          "internalType": "struct Decimal.decimal",
          "name": "_leverage",
          "type": "tuple"
        },
        {
          "components": [
            {
              "internalType": "uint256",
              "name": "d",
              "type": "uint256"
            }
          ],
          "internalType": "struct Decimal.decimal",
          "name": "_slippage",
          "type": "tuple"
        },
        {
          "components": [
            {
              "internalType": "uint256",
              "name": "d",
              "type": "uint256"
            }
          ],
          "internalType": "struct Decimal.decimal",
          "name": "_tipFee",
          "type": "tuple"
        },
        {
          "internalType": "bool",
          "name": "_reduceOnly",
          "type": "bool"
        },
        {
          "internalType": "uint256",
          "name": "_expiry",
          "type": "uint256"
        }
      ],
      "name": "addTrailingStopLimitOrderAbs",
      "outputs": [],
      "stateMutability": "nonpayable",
      "type": "function"
    },
    {
      "inputs": [
        {
          "internalType": "address",
          "name": "_asset",
          "type": "address"
        },
        {
          "components": [
            {
              "internalType": "uint256",
              "name": "d",
              "type": "uint256"
            }
          ],
          "internalType": "struct Decimal.decimal",
          "name": "_trailPct",
          "type": "tuple"
        },
        {
          "components": [
            {
              "internalType": "uint256",
              "name": "d",
              "type": "uint256"
            }
          ],
          "internalType": "struct Decimal.decimal",
          "name": "_gapPct",
          "type": "tuple"
        },
        {
          "components": [
            {
              "internalType": "int256",
              "name": "d",
              "type": "int256"
            }
          ],
          "internalType": "struct SignedDecimal.signedDecimal",
          "name": "_positionSize",
          "type": "tuple"
        },
        {
          "components": [
            {
              "internalType": "uint256",
              "name": "d",
              "type": "uint256"
            }
          ],
          "internalType": "struct Decimal.decimal",
          "name": "_collateral",
          "type": "tuple"
        },
        {
          "components": [
            {
              "internalType": "uint256",
              "name": "d",
              "type": "uint256"
            }
          ],
          "internalType": "struct Decimal.decimal",
          "name": "_leverage",
          "type": "tuple"
        },
        {
          "components": [
            {
              "internalType": "uint256",
              "name": "d",
              "type": "uint256"
            }
          ],
          "internalType": "struct Decimal.decimal",
          "name": "_slippage",
          "type": "tuple"
        },
        {
          "components": [
            {
              "internalType": "uint256",
              "name": "d",
              "type": "uint256"
            }
          ],
          "internalType": "struct Decimal.decimal",
          "name": "_tipFee",
          "type": "tuple"
        },
        {
          "internalType": "bool",
          "name": "_reduceOnly",
          "type": "bool"
        },
        {
          "internalType": "uint256",
          "name": "_expiry",
          "type": "uint256"
        }
      ],
      "name": "addTrailingStopLimitOrderPct",
      "outputs": [],
      "stateMutability": "nonpayable",
      "type": "function"
    },
    {
      "inputs": [
        {
          "internalType": "address",
          "name": "_asset",
          "type": "address"
        },
        {
          "components": [
            {
              "internalType": "uint256",
              "name": "d",
              "type": "uint256"
            }
          ],
          "internalType": "struct Decimal.decimal",
          "name": "_trail",
          "type": "tuple"
        },
        {
          "components": [
            {
              "internalType": "int256",
              "name": "d",
              "type": "int256"
            }
          ],
          "internalType": "struct SignedDecimal.signedDecimal",
          "name": "_positionSize",
          "type": "tuple"
        },
        {
          "components": [
            {
              "internalType": "uint256",
              "name": "d",
              "type": "uint256"
            }
          ],
          "internalType": "struct Decimal.decimal",
          "name": "_collateral",
          "type": "tuple"
        },
        {
          "components": [
            {
              "internalType": "uint256",
              "name": "d",
              "type": "uint256"
            }
          ],
          "internalType": "struct Decimal.decimal",
          "name": "_leverage",
          "type": "tuple"
        },
        {
          "components": [
            {
              "internalType": "uint256",
              "name": "d",
              "type": "uint256"
            }
          ],
          "internalType": "struct Decimal.decimal",
          "name": "_tipFee",
          "type": "tuple"
        },
        {
          "internalType": "bool",
          "name": "_reduceOnly",
          "type": "bool"
        },
        {
          "internalType": "uint256",
          "name": "_expiry",
          "type": "uint256"
        }
      ],
      "name": "addTrailingStopMarketOrderAbs",
      "outputs": [],
      "stateMutability": "nonpayable",
      "type": "function"
    },
    {
      "inputs": [
        {
          "internalType": "address",
          "name": "_asset",
          "type": "address"
        },
        {
          "components": [
            {
              "internalType": "uint256",
              "name": "d",
              "type": "uint256"
            }
          ],
          "internalType": "struct Decimal.decimal",
          "name": "_trailPct",
          "type": "tuple"
        },
        {
          "components": [
            {
              "internalType": "int256",
              "name": "d",
              "type": "int256"
            }
          ],
          "internalType": "struct SignedDecimal.signedDecimal",
          "name": "_positionSize",
          "type": "tuple"
        },
        {
          "components": [
            {
              "internalType": "uint256",
              "name": "d",
              "type": "uint256"
            }
          ],
          "internalType": "struct Decimal.decimal",
          "name": "_collateral",
          "type": "tuple"
        },
        {
          "components": [
            {
              "internalType": "uint256",
              "name": "d",
              "type": "uint256"
            }
          ],
          "internalType": "struct Decimal.decimal",
          "name": "_leverage",
          "type": "tuple"
        },
        {
          "components": [
            {
              "internalType": "uint256",
              "name": "d",
              "type": "uint256"
            }
          ],
          "internalType": "struct Decimal.decimal",
          "name": "_tipFee",
          "type": "tuple"
        },
        {
          "internalType": "bool",
          "name": "_reduceOnly",
          "type": "bool"
        },
        {
          "internalType": "uint256",
          "name": "_expiry",
          "type": "uint256"
        }
      ],
      "name": "addTrailingStopMarketOrderPct",
      "outputs": [],
      "stateMutability": "nonpayable",
      "type": "function"
    },
    {
      "inputs": [
        {
          "components": [
            {
              "internalType": "uint256",
              "name": "d",
              "type": "uint256"
            }
          ],
          "internalType": "struct Decimal.decimal",
          "name": "_fee",
          "type": "tuple"
        }
      ],
      "name": "changeMinimumFee",
      "outputs": [],
      "stateMutability": "nonpayable",
      "type": "function"
    },
    {
      "inputs": [
        {
          "internalType": "uint256",
          "name": "order_id",
          "type": "uint256"
        }
      ],
      "name": "deleteOrder",
      "outputs": [],
      "stateMutability": "nonpayable",
      "type": "function"
    },
    {
      "inputs": [
        {
          "internalType": "uint256",
          "name": "order_id",
          "type": "uint256"
        }
      ],
      "name": "execute",
      "outputs": [],
      "stateMutability": "nonpayable",
      "type": "function"
    },
    {
      "inputs": [],
      "name": "factory",
      "outputs": [
        {
          "internalType": "contract SmartWalletFactory",
          "name": "",
          "type": "address"
        }
      ],
      "stateMutability": "view",
      "type": "function"
    },
    {
      "inputs": [
        {
          "internalType": "uint256",
          "name": "order_id",
          "type": "uint256"
        }
      ],
      "name": "getLimitOrder",
      "outputs": [
        {
          "components": [
            {
              "internalType": "address",
              "name": "asset",
              "type": "address"
            },
            {
              "internalType": "address",
              "name": "trader",
              "type": "address"
            },
            {
              "internalType": "enum LimitOrderBook.OrderType",
              "name": "orderType",
              "type": "uint8"
            },
            {
              "internalType": "bool",
              "name": "reduceOnly",
              "type": "bool"
            },
            {
              "internalType": "bool",
              "name": "stillValid",
              "type": "bool"
            },
            {
              "internalType": "uint256",
              "name": "expiry",
              "type": "uint256"
            },
            {
              "components": [
                {
                  "internalType": "uint256",
                  "name": "d",
                  "type": "uint256"
                }
              ],
              "internalType": "struct Decimal.decimal",
              "name": "stopPrice",
              "type": "tuple"
            },
            {
              "components": [
                {
                  "internalType": "uint256",
                  "name": "d",
                  "type": "uint256"
                }
              ],
              "internalType": "struct Decimal.decimal",
              "name": "limitPrice",
              "type": "tuple"
            },
            {
              "components": [
                {
                  "internalType": "int256",
                  "name": "d",
                  "type": "int256"
                }
              ],
              "internalType": "struct SignedDecimal.signedDecimal",
              "name": "orderSize",
              "type": "tuple"
            },
            {
              "components": [
                {
                  "internalType": "uint256",
                  "name": "d",
                  "type": "uint256"
                }
              ],
              "internalType": "struct Decimal.decimal",
              "name": "collateral",
              "type": "tuple"
            },
            {
              "components": [
                {
                  "internalType": "uint256",
                  "name": "d",
                  "type": "uint256"
                }
              ],
              "internalType": "struct Decimal.decimal",
              "name": "leverage",
              "type": "tuple"
            },
            {
              "components": [
                {
                  "internalType": "uint256",
                  "name": "d",
                  "type": "uint256"
                }
              ],
              "internalType": "struct Decimal.decimal",
              "name": "slippage",
              "type": "tuple"
            },
            {
              "components": [
                {
                  "internalType": "uint256",
                  "name": "d",
                  "type": "uint256"
                }
              ],
              "internalType": "struct Decimal.decimal",
              "name": "tipFee",
              "type": "tuple"
            }
          ],
          "internalType": "struct LimitOrderBook.LimitOrder",
          "name": "",
          "type": "tuple"
        }
      ],
      "stateMutability": "view",
      "type": "function"
    },
    {
      "inputs": [
        {
          "internalType": "uint256",
          "name": "id",
          "type": "uint256"
        }
      ],
      "name": "getLimitOrderParams",
      "outputs": [
        {
          "internalType": "address",
          "name": "",
          "type": "address"
        },
        {
          "internalType": "address",
          "name": "",
          "type": "address"
        },
        {
          "internalType": "enum LimitOrderBook.OrderType",
          "name": "",
          "type": "uint8"
        },
        {
          "internalType": "bool",
          "name": "",
          "type": "bool"
        },
        {
          "internalType": "bool",
          "name": "",
          "type": "bool"
        },
        {
          "internalType": "uint256",
          "name": "",
          "type": "uint256"
        }
      ],
      "stateMutability": "view",
      "type": "function"
    },
    {
      "inputs": [
        {
          "internalType": "uint256",
          "name": "id",
          "type": "uint256"
        }
      ],
      "name": "getLimitOrderPrices",
      "outputs": [
        {
          "components": [
            {
              "internalType": "uint256",
              "name": "d",
              "type": "uint256"
            }
          ],
          "internalType": "struct Decimal.decimal",
          "name": "",
          "type": "tuple"
        },
        {
          "components": [
            {
              "internalType": "uint256",
              "name": "d",
              "type": "uint256"
            }
          ],
          "internalType": "struct Decimal.decimal",
          "name": "",
          "type": "tuple"
        },
        {
          "components": [
            {
              "internalType": "int256",
              "name": "d",
              "type": "int256"
            }
          ],
          "internalType": "struct SignedDecimal.signedDecimal",
          "name": "",
          "type": "tuple"
        },
        {
          "components": [
            {
              "internalType": "uint256",
              "name": "d",
              "type": "uint256"
            }
          ],
          "internalType": "struct Decimal.decimal",
          "name": "",
          "type": "tuple"
        },
        {
          "components": [
            {
              "internalType": "uint256",
              "name": "d",
              "type": "uint256"
            }
          ],
          "internalType": "struct Decimal.decimal",
          "name": "",
          "type": "tuple"
        },
        {
          "components": [
            {
              "internalType": "uint256",
              "name": "d",
              "type": "uint256"
            }
          ],
          "internalType": "struct Decimal.decimal",
          "name": "",
          "type": "tuple"
        },
        {
          "components": [
            {
              "internalType": "uint256",
              "name": "d",
              "type": "uint256"
            }
          ],
          "internalType": "struct Decimal.decimal",
          "name": "",
          "type": "tuple"
        }
      ],
      "stateMutability": "view",
      "type": "function"
    },
    {
      "inputs": [],
      "name": "getNumberOrders",
      "outputs": [
        {
          "internalType": "uint256",
          "name": "",
          "type": "uint256"
        }
      ],
      "stateMutability": "view",
      "type": "function"
    },
    {
      "inputs": [
        {
          "internalType": "contract IAmm",
          "name": "_asset",
          "type": "address"
        },
        {
          "internalType": "uint256",
          "name": "_snapshotIndex",
          "type": "uint256"
        }
      ],
      "name": "getPriceAtSnapshot",
      "outputs": [
        {
          "components": [
            {
              "internalType": "uint256",
              "name": "d",
              "type": "uint256"
            }
          ],
          "internalType": "struct Decimal.decimal",
          "name": "",
          "type": "tuple"
        }
      ],
      "stateMutability": "view",
      "type": "function"
    },
    {
      "inputs": [
        {
          "internalType": "uint256",
          "name": "order_id",
          "type": "uint256"
        }
      ],
      "name": "getTrailingData",
      "outputs": [
        {
          "components": [
            {
              "components": [
                {
                  "internalType": "uint256",
                  "name": "d",
                  "type": "uint256"
                }
              ],
              "internalType": "struct Decimal.decimal",
              "name": "witnessPrice",
              "type": "tuple"
            },
            {
              "components": [
                {
                  "internalType": "uint256",
                  "name": "d",
                  "type": "uint256"
                }
              ],
              "internalType": "struct Decimal.decimal",
              "name": "trail",
              "type": "tuple"
            },
            {
              "components": [
                {
                  "internalType": "uint256",
                  "name": "d",
                  "type": "uint256"
                }
              ],
              "internalType": "struct Decimal.decimal",
              "name": "trailPct",
              "type": "tuple"
            },
            {
              "components": [
                {
                  "internalType": "uint256",
                  "name": "d",
                  "type": "uint256"
                }
              ],
              "internalType": "struct Decimal.decimal",
              "name": "gap",
              "type": "tuple"
            },
            {
              "components": [
                {
                  "internalType": "uint256",
                  "name": "d",
                  "type": "uint256"
                }
              ],
              "internalType": "struct Decimal.decimal",
              "name": "gapPct",
              "type": "tuple"
            },
            {
              "internalType": "bool",
              "name": "usePct",
              "type": "bool"
            },
            {
              "internalType": "uint256",
              "name": "snapshotCreated",
              "type": "uint256"
            },
            {
              "internalType": "uint256",
              "name": "snapshotLastUpdated",
              "type": "uint256"
            },
            {
              "internalType": "address",
              "name": "lastUpdatedKeeper",
              "type": "address"
            }
          ],
          "internalType": "struct LimitOrderBook.TrailingOrderData",
          "name": "",
          "type": "tuple"
        }
      ],
      "stateMutability": "view",
      "type": "function"
    },
    {
      "inputs": [
        {
          "internalType": "uint256",
          "name": "order_id",
          "type": "uint256"
        },
        {
          "components": [
            {
              "internalType": "uint256",
              "name": "d",
              "type": "uint256"
            }
          ],
          "internalType": "struct Decimal.decimal",
          "name": "_stopPrice",
          "type": "tuple"
        },
        {
          "components": [
            {
              "internalType": "uint256",
              "name": "d",
              "type": "uint256"
            }
          ],
          "internalType": "struct Decimal.decimal",
          "name": "_limitPrice",
          "type": "tuple"
        },
        {
          "components": [
            {
              "internalType": "int256",
              "name": "d",
              "type": "int256"
            }
          ],
          "internalType": "struct SignedDecimal.signedDecimal",
          "name": "_orderSize",
          "type": "tuple"
        },
        {
          "components": [
            {
              "internalType": "uint256",
              "name": "d",
              "type": "uint256"
            }
          ],
          "internalType": "struct Decimal.decimal",
          "name": "_collateral",
          "type": "tuple"
        },
        {
          "components": [
            {
              "internalType": "uint256",
              "name": "d",
              "type": "uint256"
            }
          ],
          "internalType": "struct Decimal.decimal",
          "name": "_leverage",
          "type": "tuple"
        },
        {
          "components": [
            {
              "internalType": "uint256",
              "name": "d",
              "type": "uint256"
            }
          ],
          "internalType": "struct Decimal.decimal",
          "name": "_slippage",
          "type": "tuple"
        },
        {
          "internalType": "bool",
          "name": "_reduceOnly",
          "type": "bool"
        },
        {
          "internalType": "uint256",
          "name": "_expiry",
          "type": "uint256"
        }
      ],
      "name": "modifyOrder",
      "outputs": [],
      "stateMutability": "nonpayable",
      "type": "function"
    },
    {
      "inputs": [
        {
          "internalType": "uint256",
          "name": "order_id",
          "type": "uint256"
        },
        {
          "components": [
            {
              "internalType": "uint256",
              "name": "d",
              "type": "uint256"
            }
          ],
          "internalType": "struct Decimal.decimal",
          "name": "_newStop",
          "type": "tuple"
        },
        {
          "components": [
            {
              "internalType": "uint256",
              "name": "d",
              "type": "uint256"
            }
          ],
          "internalType": "struct Decimal.decimal",
          "name": "_newLimit",
          "type": "tuple"
        },
        {
          "components": [
            {
              "internalType": "int256",
              "name": "d",
              "type": "int256"
            }
          ],
          "internalType": "struct SignedDecimal.signedDecimal",
          "name": "_orderSize",
          "type": "tuple"
        },
        {
          "components": [
            {
              "internalType": "uint256",
              "name": "d",
              "type": "uint256"
            }
          ],
          "internalType": "struct Decimal.decimal",
          "name": "_collateral",
          "type": "tuple"
        },
        {
          "components": [
            {
              "internalType": "uint256",
              "name": "d",
              "type": "uint256"
            }
          ],
          "internalType": "struct Decimal.decimal",
          "name": "_leverage",
          "type": "tuple"
        },
        {
          "components": [
            {
              "internalType": "uint256",
              "name": "d",
              "type": "uint256"
            }
          ],
          "internalType": "struct Decimal.decimal",
          "name": "_slippage",
          "type": "tuple"
        },
        {
          "internalType": "bool",
          "name": "_reduceOnly",
          "type": "bool"
        },
        {
          "internalType": "uint256",
          "name": "_expiry",
          "type": "uint256"
        }
      ],
      "name": "modifyTrailingOrder",
      "outputs": [],
      "stateMutability": "nonpayable",
      "type": "function"
    },
    {
      "inputs": [
        {
          "internalType": "uint256",
          "name": "",
          "type": "uint256"
        }
      ],
      "name": "orders",
      "outputs": [
        {
          "internalType": "address",
          "name": "asset",
          "type": "address"
        },
        {
          "internalType": "address",
          "name": "trader",
          "type": "address"
        },
        {
          "internalType": "enum LimitOrderBook.OrderType",
          "name": "orderType",
          "type": "uint8"
        },
        {
          "internalType": "bool",
          "name": "reduceOnly",
          "type": "bool"
        },
        {
          "internalType": "bool",
          "name": "stillValid",
          "type": "bool"
        },
        {
          "internalType": "uint256",
          "name": "expiry",
          "type": "uint256"
        },
        {
          "components": [
            {
              "internalType": "uint256",
              "name": "d",
              "type": "uint256"
            }
          ],
          "internalType": "struct Decimal.decimal",
          "name": "stopPrice",
          "type": "tuple"
        },
        {
          "components": [
            {
              "internalType": "uint256",
              "name": "d",
              "type": "uint256"
            }
          ],
          "internalType": "struct Decimal.decimal",
          "name": "limitPrice",
          "type": "tuple"
        },
        {
          "components": [
            {
              "internalType": "int256",
              "name": "d",
              "type": "int256"
            }
          ],
          "internalType": "struct SignedDecimal.signedDecimal",
          "name": "orderSize",
          "type": "tuple"
        },
        {
          "components": [
            {
              "internalType": "uint256",
              "name": "d",
              "type": "uint256"
            }
          ],
          "internalType": "struct Decimal.decimal",
          "name": "collateral",
          "type": "tuple"
        },
        {
          "components": [
            {
              "internalType": "uint256",
              "name": "d",
              "type": "uint256"
            }
          ],
          "internalType": "struct Decimal.decimal",
          "name": "leverage",
          "type": "tuple"
        },
        {
          "components": [
            {
              "internalType": "uint256",
              "name": "d",
              "type": "uint256"
            }
          ],
          "internalType": "struct Decimal.decimal",
          "name": "slippage",
          "type": "tuple"
        },
        {
          "components": [
            {
              "internalType": "uint256",
              "name": "d",
              "type": "uint256"
            }
          ],
          "internalType": "struct Decimal.decimal",
          "name": "tipFee",
          "type": "tuple"
        }
      ],
      "stateMutability": "view",
      "type": "function"
    },
    {
      "inputs": [],
      "name": "owner",
      "outputs": [
        {
          "internalType": "address",
          "name": "",
          "type": "address"
        }
      ],
      "stateMutability": "view",
      "type": "function"
    },
    {
      "inputs": [
        {
          "internalType": "uint256",
          "name": "order_id",
          "type": "uint256"
        },
        {
          "internalType": "uint256",
          "name": "_reserveIndex",
          "type": "uint256"
        }
      ],
      "name": "pokeContract",
      "outputs": [],
      "stateMutability": "nonpayable",
      "type": "function"
    },
    {
      "inputs": [],
      "name": "renounceOwnership",
      "outputs": [],
      "stateMutability": "nonpayable",
      "type": "function"
    },
    {
      "inputs": [
        {
          "internalType": "address",
          "name": "_addr",
          "type": "address"
        }
      ],
      "name": "setFactory",
      "outputs": [],
      "stateMutability": "nonpayable",
      "type": "function"
    },
    {
      "inputs": [
        {
          "internalType": "address",
          "name": "newOwner",
          "type": "address"
        }
      ],
      "name": "transferOwnership",
      "outputs": [],
      "stateMutability": "nonpayable",
      "type": "function"
    }
  ],
  "bytecode": "0x6080604052603880546001600160a01b031916738c29f6f7fc1999ab84b476952e986f974acb38241790553480156200003757600080fd5b5060006200004d6001600160e01b036200009d16565b600080546001600160a01b0319166001600160a01b0383169081178255604051929350917f8be0079c531659141344cd1fd0a4f28419497f9722a3daafe3b4186f6b6457e0908290a350620000a1565b3390565b61440180620000b16000396000f3fe608060405234801561001057600080fd5b50600436106101a35760003560e01c806386f89642116100ee578063bc9aa8c311610097578063e36a2dc011610071578063e36a2dc014610375578063f0d840d71461039b578063f2fde38b146103bb578063fe0d94c1146103ce576101a3565b8063bc9aa8c314610347578063c45a01551461035a578063dc4cb10714610362576101a3565b8063a85c38ef116100c8578063a85c38ef146102f5578063af52775d14610321578063b96bb80614610334576101a3565b806386f89642146102b85780638ceddd77146102cb5780638da5cb5b146102e0576101a3565b80634c5789e3116101505780635bb478081161012a5780635bb478081461027d5780636bef749314610290578063715018a6146102b0576101a3565b80634c5789e31461021c578063530610261461024a5780635ad864471461026a576101a3565b806334c198301161018157806334c19830146101e35780634885fd58146101f65780634b5924af14610209576101a3565b8063032e4f6e146101a857806311a00327146101bd5780632736f620146101d0575b600080fd5b6101bb6101b636600461377e565b6103e1565b005b6101bb6101cb3660046138fe565b610446565b6101bb6101de36600461377e565b61055c565b6101bb6101f136600461395d565b6105b6565b6101bb6102043660046138c8565b610813565b6101bb6102173660046136e4565b610858565b61022f61022a3660046138fe565b6108de565b604051610241969594939291906139d4565b60405180910390f35b61025d6102583660046138fe565b610a86565b6040516102419190614175565b6101bb610278366004613625565b610bec565b6101bb61028b3660046135ed565b610c99565b6102a361029e366004613846565b610d07565b6040516102419190614300565b6101bb610dd0565b6101bb6102c6366004613625565b610e66565b6102d3610ef8565b604051610241919061433b565b6102e8610efe565b60405161024191906139c0565b6103086103033660046138fe565b610f0d565b6040516102419d9c9b9a99989796959493929190613a1a565b6101bb61032f36600461392e565b610fdb565b6101bb610342366004613625565b6113df565b6101bb61035536600461392e565b611478565b6102e861181f565b6101bb6103703660046136e4565b61182e565b6103886103833660046138fe565b61188f565b604051610241979695949392919061430a565b6103ae6103a93660046138fe565b611a7b565b6040516102419190614274565b6101bb6103c93660046135ed565b611b35565b6101bb6103dc3660046138fe565b611c02565b610420886040518060400160405280601381526020017f53746f702063616e6e6f74206265207a65726f0000000000000000000000000081525061203c565b61043b8960028a61042f612069565b8b8b8b8b8b8b8b612084565b505050505050505050565b806034818154811061045457fe5b60009182526020909120600a90910201600101546001600160a01b031633146104985760405162461bcd60e51b815260040161048f90614084565b60405180910390fd5b603454829081106104bb5760405162461bcd60e51b815260040161048f90613eca565b603483815481106104c857fe5b600091825260209091206001600a9092020101546040516001600160a01b03909116907f9839c5aee45262b904f4ede97f671e296b41355f52a965a7076f4d4db9321d4b9061051890869061433b565b60405180910390a260006034848154811061052f57fe5b90600052602060002090600a020160010160166101000a81548160ff021916908315150217905550505050565b61059b886040518060400160405280601481526020017f4c696d69742063616e6e6f74206265207a65726f00000000000000000000000081525061203c565b61043b8960016105a9612069565b8b8b8b8b8b8b8b8b612084565b6004603483815481106105c557fe5b90600052602060002090600a020160010160149054906101000a900460ff1660058111156105ef57fe5b1480610631575060056034838154811061060557fe5b90600052602060002090600a020160010160149054906101000a900460ff16600581111561062f57fe5b145b61064d5760405162461bcd60e51b815260040161048f90613d34565b600082815260356020526040902060060154811161067d5760405162461bcd60e51b815260040161048f90613b8d565b6000828152603560205260409020600701548110806106b357506000828152603560205260409020600701546103844291909103115b6106cf5760405162461bcd60e51b815260040161048f906140bb565b6000828152603560205260408120426007909101556034805461071c9190859081106106f757fe5b60009182526020918290206040805193840190526005600a90920201015481526125db565b61072757600161072a565b60005b9050610734613461565b6107646034858154811061074457fe5b60009182526020909120600a90910201546001600160a01b031684610d07565b90508161077357600019610776565b60015b600085815260356020908152604091829020825191820190925290548152600f9190910b906107ab908363ffffffff6125f916565b60000b146107cb5760405162461bcd60e51b815260040161048f90613ff0565b60008481526035602052604090208151815560078101849055600801805473ffffffffffffffffffffffffffffffffffffffff19163317905561080d8461262a565b50505050565b61081b6129c4565b6001600160a01b031661082c610efe565b6001600160a01b0316146108525760405162461bcd60e51b815260040161048f90613f5e565b51603755565b610897876040518060400160405280601481526020017f547261696c2063616e6e6f74206265207a65726f00000000000000000000000081525061203c565b6108c08860046108a5612069565b6108ad612069565b8a8a8a6108b8612069565b8b8b8b612084565b6108d488886108cd612069565b60016129c8565b5050505050505050565b60008060008060008086603480549050811061090c5760405162461bcd60e51b815260040161048f90613eca565b610914613474565b6034898154811061092157fe5b6000918252602091829020604080516101a081018252600a90930290910180546001600160a01b03908116845260018201549081169484019490945291929083019060ff600160a01b90910416600581111561097957fe5b600581111561098457fe5b8152600182015460ff600160a81b820481161515602080850191909152600160b01b90920416151560408084019190915260028401546060808501919091528151808401835260038601548152608080860191909152825180850184526004870154815260a080870191909152835180860185526005880154815260c0870152835180860185526006880154815260e087015283518086018552600788015481526101008701528351808601855260088801548152610120870152835180860185526009909701548752610140909501959095528551928601519186015190860151948601519590930151919e909d50919b5091995091975095509350505050565b610a8e613474565b60345482908110610ab15760405162461bcd60e51b815260040161048f90613eca565b60348381548110610abe57fe5b6000918252602091829020604080516101a081018252600a90930290910180546001600160a01b03908116845260018201549081169484019490945291929083019060ff600160a01b909104166005811115610b1657fe5b6005811115610b2157fe5b8152600182015460ff600160a81b820481161515602080850191909152600160b01b9092041615156040808401919091526002840154606084015280518083018252600385015481526080840152805180830182526004850154815260a0840152805180830182526005850154815260c0840152805180830182526006850154815260e0840152805180830182526007850154815261010084015280518083018252600885015481526101208401528051918201905260099092015482526101400152915050919050565b610c2b896040518060400160405280601481526020017f547261696c2063616e6e6f74206265207a65726f00000000000000000000000081525061203c565b610c6a886040518060400160405280601281526020017f4761702063616e6e6f74206265207a65726f000000000000000000000000000081525061203c565b610c808a6005610c78612069565b61042f612069565b610c8d8a8a8a60006129c8565b50505050505050505050565b610ca16129c4565b6001600160a01b0316610cb2610efe565b6001600160a01b031614610cd85760405162461bcd60e51b815260040161048f90613f5e565b6036805473ffffffffffffffffffffffffffffffffffffffff19166001600160a01b0392909216919091179055565b610d0f613461565b610d17613505565b6040517f21e009850000000000000000000000000000000000000000000000000000000081526001600160a01b038516906321e0098590610d5c90869060040161433b565b60806040518083038186803b158015610d7457600080fd5b505afa158015610d88573d6000803e3d6000fd5b505050506040513d601f19601f82011682018060405250810190610dac9190613871565b60208101518151919250610dc6919063ffffffff612d8516565b9150505b92915050565b610dd86129c4565b6001600160a01b0316610de9610efe565b6001600160a01b031614610e0f5760405162461bcd60e51b815260040161048f90613f5e565b600080546040516001600160a01b03909116907f8be0079c531659141344cd1fd0a4f28419497f9722a3daafe3b4186f6b6457e0908390a36000805473ffffffffffffffffffffffffffffffffffffffff19169055565b610ea5886040518060400160405280601481526020017f4c696d69742063616e6e6f74206265207a65726f00000000000000000000000081525061203c565b610ee4896040518060400160405280601381526020017f53746f702063616e6e6f74206265207a65726f0000000000000000000000000081525061203c565b610c8d8a60038b8b8b8b8b8b8b8b8b612084565b60345490565b6000546001600160a01b031690565b60348181548110610f1a57fe5b6000918252602091829020600a9091020180546001820154600283015460408051808701825260038601548152815180880183526004870154815282518089018452600588015481528351808a018552600689015481528451808b01865260078a015481528551808c01875260088b0154815286519b8c019096526009909901548a526001600160a01b039788169a509686169860ff600160a01b8804811699600160a81b8904821699600160b01b9099049091169794959394929390918d565b8860348181548110610fe957fe5b60009182526020909120600a90910201600101546001600160a01b031633146110245760405162461bcd60e51b815260040161048f90614084565b6034548a9081106110475760405162461bcd60e51b815260040161048f90613eca565b82158061105357508242105b61106f5760405162461bcd60e51b815260040161048f90613c8f565b600160348c8154811061107e57fe5b90600052602060002090600a020160010160149054906101000a900460ff1660058111156110a857fe5b14806110ea5750600260348c815481106110be57fe5b90600052602060002090600a020160010160149054906101000a900460ff1660058111156110e857fe5b145b8061112b5750600360348c815481106110ff57fe5b90600052602060002090600a020160010160149054906101000a900460ff16600581111561112957fe5b145b6111475760405162461bcd60e51b815260040161048f90614118565b61118e61115389612db1565b6040518060400160405280601581526020017f43616e6e6f7420646f20656d707479206f72646572000000000000000000000081525061203c565b6111cd876040518060400160405280601981526020017f43616e6e6f74207370656e64203020636f6c6c61746572616c0000000000000081525061203c565b61120c866040518060400160405280601681526020017f43616e6e6f7420757365203078206c657665726167650000000000000000000081525061203c565b8960348c8154811061121a57fe5b90600052602060002090600a0201600301600082015181600001559050508860348c8154811061124657fe5b90600052602060002090600a0201600401600082015181600001559050508760348c8154811061127257fe5b90600052602060002090600a0201600501600082015181600001559050508660348c8154811061129e57fe5b90600052602060002090600a0201600601600082015181600001559050508560348c815481106112ca57fe5b90600052602060002090600a0201600701600082015181600001559050508460348c815481106112f657fe5b90600052602060002090600a0201600801600082015181600001559050508360348c8154811061132257fe5b90600052602060002090600a020160010160156101000a81548160ff0219169083151502179055508260348c8154811061135857fe5b90600052602060002090600a02016002018190555060348b8154811061137a57fe5b600091825260209091206001600a9092020101546040516001600160a01b03909116907f9839c5aee45262b904f4ede97f671e296b41355f52a965a7076f4d4db9321d4b906113ca908e9061433b565b60405180910390a25050505050505050505050565b61141e896040518060400160405280601481526020017f547261696c2063616e6e6f74206265207a65726f00000000000000000000000081525061203c565b61145d886040518060400160405280601281526020017f4761702063616e6e6f74206265207a65726f000000000000000000000000000081525061203c565b61146b8a6005610c78612069565b610c8d8a8a8a60016129c8565b886034818154811061148657fe5b60009182526020909120600a90910201600101546001600160a01b031633146114c15760405162461bcd60e51b815260040161048f90614084565b6034548a9081106114e45760405162461bcd60e51b815260040161048f90613eca565b8215806114f057508242105b61150c5760405162461bcd60e51b815260040161048f90613c8f565b600460348c8154811061151b57fe5b90600052602060002090600a020160010160149054906101000a900460ff16600581111561154557fe5b14806115875750600560348c8154811061155b57fe5b90600052602060002090600a020160010160149054906101000a900460ff16600581111561158557fe5b145b6115a35760405162461bcd60e51b815260040161048f90613b56565b6115af61115389612db1565b6115ee876040518060400160405280601981526020017f43616e6e6f74207370656e64203020636f6c6c61746572616c0000000000000081525061203c565b61162d866040518060400160405280601681526020017f43616e6e6f7420757365203078206c657665726167650000000000000000000081525061203c565b8760348c8154811061163b57fe5b90600052602060002090600a0201600501600082015181600001559050508660348c8154811061166757fe5b90600052602060002090600a0201600601600082015181600001559050508560348c8154811061169357fe5b90600052602060002090600a0201600701600082015181600001559050508460348c815481106116bf57fe5b90600052602060002090600a0201600801600082015181600001559050508360348c815481106116eb57fe5b90600052602060002090600a020160010160156101000a81548160ff0219169083151502179055508260348c8154811061172157fe5b600091825260208083206002600a9093020191909101929092558c81526035909152604090206005015460ff16156117eb5761176b61175e612ddf565b8b9063ffffffff6125f916565b60000b6000191461178e5760405162461bcd60e51b815260040161048f90613cc6565b6117a6611799612ddf565b8a9063ffffffff6125f916565b60000b600019146117c95760405162461bcd60e51b815260040161048f90613e5c565b60008b81526035602052604090208a5160028201558951600490910155611809565b60008b81526035602052604090208a51600182015589516003909101555b6118128b61262a565b60348b8154811061137a57fe5b6036546001600160a01b031681565b61186d876040518060400160405280601481526020017f547261696c2063616e6e6f74206265207a65726f00000000000000000000000081525061203c565b61187b8860046108a5612069565b6108d48888611888612069565b60006129c8565b611897613461565b61189f613461565b6118a7613461565b6118af613461565b6118b7613461565b6118bf613461565b6118c7613461565b603454889081106118ea5760405162461bcd60e51b815260040161048f90613eca565b6118f2613474565b60348a815481106118ff57fe5b6000918252602091829020604080516101a081018252600a90930290910180546001600160a01b03908116845260018201549081169484019490945291929083019060ff600160a01b90910416600581111561195757fe5b600581111561196257fe5b8152600182015460ff600160a81b820481161515602080850191909152600160b01b9092041615156040808401919091526002840154606084015280518083018252600385015481526080840152805180830182526004850154815260a0840152805180830182526005850154815260c080850191909152815180840183526006860154815260e08086019190915282518085018452600787015481526101008087019190915283518086018552600888015481526101208088019190915284519586019094526009909601548452610140948501939093528501519185015193850151908501519285015161016086015161018090960151929e50939c509a5090985090965090945092505050919395979092949650565b611a83613539565b50600081815260356020908152604091829020825161014081018452815461012082019081528152835180840185526001830154815281840152835180840185526002830154815281850152835180840185526003830154815260608201528351928301909352600481015482526080830191909152600581015460ff16151560a0830152600681015460c0830152600781015460e0830152600801546001600160a01b03166101008201525b919050565b611b3d6129c4565b6001600160a01b0316611b4e610efe565b6001600160a01b031614611b745760405162461bcd60e51b815260040161048f90613f5e565b6001600160a01b038116611b9a5760405162461bcd60e51b815260040161048f90613bc4565b600080546040516001600160a01b03808516939216917f8be0079c531659141344cd1fd0a4f28419497f9722a3daafe3b4186f6b6457e091a36000805473ffffffffffffffffffffffffffffffffffffffff19166001600160a01b0392909216919091179055565b60345481908110611c255760405162461bcd60e51b815260040161048f90613eca565b60348281548110611c3257fe5b90600052602060002090600a020160010160169054906101000a900460ff16611c6d5760405162461bcd60e51b815260040161048f90613c21565b60348281548110611c7a57fe5b600091825260209091206001600a9092020101546040516001600160a01b03909116907f6ac084fe52cc25f2f64ae4aea087b0bf8e92c0a900b2425c1edda1f36c8cab0d90611cca90859061433b565b60405180910390a2603654603480546000926001600160a01b03169163a0b738819186908110611cf657fe5b600091825260209091206001600a9092020101546040517fffffffff0000000000000000000000000000000000000000000000000000000060e084901b168152611d4c916001600160a01b0316906004016139c0565b60206040518083038186803b158015611d6457600080fd5b505afa158015611d78573d6000803e3d6000fd5b505050506040513d601f19601f82011682018060405250810190611d9c9190613609565b90506000816001600160a01b03166394f61134856040518263ffffffff1660e01b8152600401611dcc919061433b565b602060405180830381600087803b158015611de657600080fd5b505af1158015611dfa573d6000803e3d6000fd5b505050506040513d601f19601f82011682018060405250810190611e1e919061382a565b9050801561080d57600460348581548110611e3557fe5b90600052602060002090600a020160010160149054906101000a900460ff166005811115611e5f57fe5b1480611ea15750600560348581548110611e7557fe5b90600052602060002090600a020160010160149054906101000a900460ff166005811115611e9f57fe5b145b8015611ec657506000848152603560205260409020600801546001600160a01b031615155b15611fb357611f2873ddafbb505ad214d7b80b1f830fccc89b60fb7a833033611f23600260348a81548110611ef757fe5b60009182526020918290206040805193840190526009600a90920201015481529063ffffffff612e0316565b612e25565b60008481526035602052604090206008015460348054611f779273ddafbb505ad214d7b80b1f830fccc89b60fb7a839230926001600160a01b0390921691611f23916002918b908110611ef757fe5b7ffc0ec3e59df0924914ac81382ddd54522bb0c38d2b91b0667f0103cf6502559d84604051611fa6919061433b565b60405180910390a1611fff565b611fff73ddafbb505ad214d7b80b1f830fccc89b60fb7a83303360348881548110611fda57fe5b60009182526020918290206040805193840190526009600a9092020101548152612e25565b60006034858154811061200e57fe5b90600052602060002090600a020160010160166101000a81548160ff02191690831515021790555050505050565b61204582612f7a565b81906120645760405162461bcd60e51b815260040161048f9190613aec565b505050565b612071613461565b5060408051602081019091526000815290565b80158061209057508042105b6120ac5760405162461bcd60e51b815260040161048f90613c8f565b604080516020810190915260375481526120cd90849063ffffffff6125f916565b60000b6001146120ef5760405162461bcd60e51b815260040161048f90613f93565b6036546040517fa0b738810000000000000000000000000000000000000000000000000000000081526000916001600160a01b03169063a0b73881906121399033906004016139c0565b60206040518083038186803b15801561215157600080fd5b505afa158015612165573d6000803e3d6000fd5b505050506040513d601f19601f820116820180604052508101906121899190613609565b6001600160a01b031614156121b05760405162461bcd60e51b815260040161048f90613e93565b6038546040517f0774a7840000000000000000000000000000000000000000000000000000000081526001600160a01b0390911690630774a784906121f9908e906004016139c0565b60206040518083038186803b15801561221157600080fd5b505afa158015612225573d6000803e3d6000fd5b505050506040513d601f19601f82011682018060405250810190612249919061382a565b6122655760405162461bcd60e51b815260040161048f90613b1f565b61227161115388612db1565b6122b0866040518060400160405280601981526020017f43616e6e6f74207370656e64203020636f6c6c61746572616c0000000000000081525061203c565b6122ef856040518060400160405280601681526020017f43616e6e6f7420757365203078206c657665726167650000000000000000000081525061203c565b6036546040517fa0b738810000000000000000000000000000000000000000000000000000000081526123a99173ddafbb505ad214d7b80b1f830fccc89b60fb7a83916001600160a01b039091169063a0b73881906123529033906004016139c0565b60206040518083038186803b15801561236a57600080fd5b505afa15801561237e573d6000803e3d6000fd5b505050506040513d601f19601f820116820180604052508101906123a29190613609565b3086612e25565b60345460405133917fcb0c37c16aa3b0bbb7a817932094d8a20a00996d426a813f067039f0ef87ab07916123dd919061433b565b60405180910390a2604080516101a0810182526001600160a01b038d16815233602082015260349181018c600581111561241357fe5b81528415156020808301919091526001604080840182905260608401879052608084018f905260a084018e905260c084018d905260e084018c905261010084018b905261012084018a9052610140909301889052845480820186556000958652948290208451600a90960201805473ffffffffffffffffffffffffffffffffffffffff199081166001600160a01b03978816178255928501519181018054909316919095161780825591830151929392917fffffffffffffffffffffff00ffffffffffffffffffffffffffffffffffffffff16600160a01b8360058111156124f757fe5b0217905550606082015160018201805460808501511515600160b01b027fffffffffffffffffff00ffffffffffffffffffffffffffffffffffffffffffff931515600160a81b027fffffffffffffffffffff00ffffffffffffffffffffffffffffffffffffffffff909216919091179290921691909117905560a0820151600282015560c082015151600382015560e082015151600482015561010082015151600582015561012082015151600682015561014082015151600782015561016082015151600882015561018090910151516009909101555050505050505050505050565b600080826000015112156125f157506001611b30565b506000919050565b80518251600091101561260e57506001610dca565b8151835110156126215750600019610dca565b50600092915050565b612632613461565b5060008181526035602090815260408083208151928301909152548152603480549192916126659190859081106106f757fe5b612670576001612673565b60005b60008481526035602052604090206005015490915060ff161561282d57612698613461565b816126dc57600084815260356020908152604091829020825191820190925260029091015481526126d7906126cb612ddf565b9063ffffffff612f7e16565b612716565b600084815260356020908152604091829020825191820190925260029091015481526127169061270a612ddf565b9063ffffffff612fa116565b9050612720613461565b826127585760008581526035602090815260409182902082519182019092526004909101548152612753906126cb612ddf565b612786565b600085815260356020908152604091829020825191820190925260049091015481526127869061270a612ddf565b9050612798848363ffffffff612fc416565b603486815481106127a557fe5b90600052602060002090600a02016003016000820151816000015590505061280081603487815481106127d457fe5b60009182526020918290206040805193840190526003600a90920201015481529063ffffffff612fc416565b6034868154811061280d57fe5b6000918252602090912091516004600a9092029092010155506120649050565b8061286a576000838152603560209081526040918290208251918201909252600190910154815261286590839063ffffffff612f7e16565b61289d565b6000838152603560209081526040918290208251918201909252600190910154815261289d90839063ffffffff612fa116565b603484815481106128aa57fe5b6000918252602090912091516003600a9092029092010155806129335761292e603560008581526020019081526020016000206003016040518060200160405290816000820154815250506034858154811061290257fe5b60009182526020918290206040805193840190526003600a90920201015481529063ffffffff612f7e16565b61299a565b61299a603560008581526020019081526020016000206003016040518060200160405290816000820154815250506034858154811061296e57fe5b60009182526020918290206040805193840190526003600a90920201015481529063ffffffff612fa116565b603484815481106129a757fe5b6000918252602090912091516004600a9092029092010155505050565b3390565b60006001856001600160a01b0316630d451c8f6040518163ffffffff1660e01b815260040160206040518083038186803b158015612a0557600080fd5b505afa158015612a19573d6000803e3d6000fd5b505050506040513d601f19601f82011682018060405250810190612a3d9190613916565b0390507f4c307a456602a1cfcbea38a491adb935be2ec87ce2d533dfecf1240ad30d710d60016034805490500382604051612a79929190614344565b60405180910390a1612a89613461565b856001600160a01b031663dc76fabc6040518163ffffffff1660e01b815260040160206040518083038186803b158015612ac257600080fd5b505afa158015612ad6573d6000803e3d6000fd5b505050506040513d601f19601f82011682018060405250810190612afa91906138e3565b90508215612c7657612b1a612b0d612ddf565b869063ffffffff6125f916565b60000b60001914612b3d5760405162461bcd60e51b815260040161048f90613cc6565b612b55612b48612ddf565b859063ffffffff6125f916565b60000b60001914612b785760405162461bcd60e51b815260040161048f90613e5c565b604051806101200160405280828152602001612b92612069565b8152602001868152602001612ba5612069565b815260208082018790526001604080840182905260608085018890526080808601899052600060a0968701819052603454600019018152603586528390208751518155948701515193850193909355908501515160028401558401515160038301558301515160048201559082015160058201805460ff191691151591909117905560c0820151600682015560e08201516007820155610100909101516008909101805473ffffffffffffffffffffffffffffffffffffffff19166001600160a01b03909216919091179055612d6d565b604051806101200160405280828152602001868152602001612c96612069565b8152602001858152602001612ca9612069565b8152600060208083018290526040808401879052606080850188905260809485018490526034546000190184526035835292819020855151815591850151516001830155840151516002820155908301515160038201559082015151600482015560a082015160058201805460ff191691151591909117905560c0820151600682015560e08201516007820155610100909101516008909101805473ffffffffffffffffffffffffffffffffffffffff19166001600160a01b039092169190911790555b603454612d7d906000190161262a565b505050505050565b612d8d613461565b612d95613461565b82518451612da89163ffffffff612fe716565b81529392505050565b612db9613461565b612dc1613461565b825160001315612dd75782516000038152610dca565b915182525090565b612de7613461565b6040518060200160405280612dfc6012612ffc565b9052905090565b612e0b613461565b612e13613461565b8351612da8908463ffffffff61300516565b612e2e84613037565b612e36613461565b612e408584613084565b90506000612e4e8684613111565b905060006060876001600160a01b03166323b872dd60e01b888886604051602401612e7b93929190613ac8565b60408051601f198184030181529181526020820180517bffffffffffffffffffffffffffffffffffffffffffffffffffffffff167fffffffff00000000000000000000000000000000000000000000000000000000909416939093179092529051612ee691906139a4565b6000604051808303816000865af19150503d8060008114612f23576040519150601f19603f3d011682016040523d82523d6000602084013e612f28565b606091505b5091509150818015612f52575080511580612f52575080806020019051810190612f52919061382a565b612f6e5760405162461bcd60e51b815260040161048f90613dff565b6108d488878587613187565b5190565b612f86613461565b612f8e613461565b82518451612da89163ffffffff6131da16565b612fa9613461565b612fb1613461565b82518451612da89163ffffffff61320216565b612fcc613461565b612fd4613461565b82518451612da89163ffffffff61322716565b6000612ff583836012613235565b9392505050565b60ff16600a0a90565b60008082116130265760405162461bcd60e51b815260040161048f90613d6b565b81838161302f57fe5b049392505050565b60006130428261325c565b6001600160a01b0383166000908152600160205260409020549091508114613080576001600160a01b03821660009081526001602052604090208190555b5050565b61308c613461565b612ff583846001600160a01b03166370a08231856040518263ffffffff1660e01b81526004016130bc91906139c0565b60206040518083038186803b1580156130d457600080fd5b505afa1580156130e8573d6000803e3d6000fd5b505050506040513d601f19601f8201168201806040525081019061310c9190613916565b613377565b60008061311d8461325c565b90506012811061315b5761315361313b82601263ffffffff6131da16565b600a0a61314785612f7a565b9063ffffffff61340916565b915050610dca565b610dc661316f60128363ffffffff6131da16565b600a0a61317b85612f7a565b9063ffffffff61300516565b6131ba6131a46131978685613377565b839063ffffffff612fa116565b6131ae8686613084565b9063ffffffff6125f916565b60000b1561080d5760405162461bcd60e51b815260040161048f90614027565b6000828211156131fc5760405162461bcd60e51b815260040161048f90613cfd565b50900390565b600082820183811015612ff55760405162461bcd60e51b815260040161048f90613c58565b6000612ff583836012613443565b60006132548361317b61324785612ffc565b879063ffffffff61340916565b949350505050565b6001600160a01b03811660009081526001602052604081205480610dca5760408051600481526024810182526020810180517bffffffffffffffffffffffffffffffffffffffffffffffffffffffff167f313ce5670000000000000000000000000000000000000000000000000000000017905290516000916060916001600160a01b038716916132ec916139a4565b600060405180830381855afa9150503d8060008114613327576040519150601f19603f3d011682016040523d82523d6000602084013e61332c565b606091505b509150915081801561333e5750805115155b61335a5760405162461bcd60e51b815260040161048f90613da2565b8080602001905181019061336e9190613916565b95945050505050565b61337f613461565b600061338a8461325c565b9050601281106133cf576040805160208101909152806133c46133b484601263ffffffff6131da16565b8690600a0a63ffffffff61300516565b815250915050610dca565b6040805160208101909152806133ff6133ef60128563ffffffff6131da16565b8690600a0a63ffffffff61340916565b9052949350505050565b60008261341857506000610dca565b8282028284828161342557fe5b0414612ff55760405162461bcd60e51b815260040161048f90613f01565b600061325461345183612ffc565b61317b868663ffffffff61340916565b6040518060200160405280600081525090565b604080516101a081018252600080825260208201819052909182019081526000602082018190526040820181905260608201526080016134b2613461565b81526020016134bf613461565b81526020016134cc613461565b81526020016134d9613461565b81526020016134e6613461565b81526020016134f3613461565b8152602001613500613461565b905290565b6040518060800160405280613518613461565b8152602001613525613461565b815260200160008152602001600081525090565b60405180610120016040528061354d613461565b815260200161355a613461565b8152602001613567613461565b8152602001613574613461565b8152602001613581613461565b8152600060208201819052604082018190526060820181905260809091015290565b6000602082840312156135b4578081fd5b6135be6020614352565b9135825250919050565b6000602082840312156135d9578081fd5b6135e36020614352565b9151825250919050565b6000602082840312156135fe578081fd5b8135612ff5816143a5565b60006020828403121561361a578081fd5b8151612ff5816143a5565b6000806000806000806000806000806101408b8d031215613644578586fd5b8a3561364f816143a5565b995061365e8c60208d016135a3565b985061366d8c60408d016135a3565b975061367c8c60608d016135a3565b965061368b8c60808d016135a3565b955061369a8c60a08d016135a3565b94506136a98c60c08d016135a3565b93506136b88c60e08d016135a3565b92506101008b01356136c9816143bd565b809250506101208b013590509295989b9194979a5092959850565b600080600080600080600080610100898b031215613700578384fd5b883561370b816143a5565b975061371a8a60208b016135a3565b96506137298a60408b016135a3565b95506137388a60608b016135a3565b94506137478a60808b016135a3565b93506137568a60a08b016135a3565b925060c0890135613766816143bd565b8092505060e089013590509295985092959890939650565b60008060008060008060008060006101208a8c03121561379c578485fd5b89356137a7816143a5565b98506137b68b60208c016135a3565b97506137c58b60408c016135a3565b96506137d48b60608c016135a3565b95506137e38b60808c016135a3565b94506137f28b60a08c016135a3565b93506138018b60c08c016135a3565b925060e08a0135613811816143bd565b809250506101008a013590509295985092959850929598565b60006020828403121561383b578081fd5b8151612ff5816143bd565b60008060408385031215613858578182fd5b8235613863816143a5565b946020939093013593505050565b600060808284031215613882578081fd5b61388c6080614352565b61389684846135c8565b81526138a584602085016135c8565b602082015260408301516040820152606083015160608201528091505092915050565b6000602082840312156138d9578081fd5b612ff583836135a3565b6000602082840312156138f4578081fd5b612ff583836135c8565b60006020828403121561390f578081fd5b5035919050565b600060208284031215613927578081fd5b5051919050565b60008060008060008060008060006101208a8c03121561394c578283fd5b893598506137b68b60208c016135a3565b6000806040838503121561396f578182fd5b50508035926020909101359150565b6001600160a01b03169052565b15159052565b6006811061399b57fe5b9052565b519052565b600082516139b6818460208701614379565b9190910192915050565b6001600160a01b0391909116815260200190565b6001600160a01b0387811682528616602082015260c08101600686106139f657fe5b60408201959095529215156060840152901515608083015260a09091015292915050565b6001600160a01b038e811682528d1660208201526101a08101613a40604083018e613991565b8b151560608301528a151560808301528960a0830152613a6360c083018a61399f565b613a7060e083018961399f565b613a7e61010083018861399f565b613a8c61012083018761399f565b613a9a61014083018661399f565b613aa861016083018561399f565b613ab661018083018461399f565b9e9d5050505050505050505050505050565b6001600160a01b039384168152919092166020820152604081019190915260600190565b6000602082528251806020840152613b0b816040850160208701614379565b601f01601f19169190910160400192915050565b6020808252600d908201527f616d6d206e6f7420666f756e6400000000000000000000000000000000000000604082015260600190565b6020808252601f908201527f43616e206f6e6c79206d6f6469667920747261696c696e67206f726465727300604082015260600190565b60208082526019908201527f4f72646572206861646e2774206265656e206372656174656400000000000000604082015260600190565b60208082526026908201527f4f776e61626c653a206e6577206f776e657220697320746865207a65726f206160408201527f6464726573730000000000000000000000000000000000000000000000000000606082015260800190565b6020808252600f908201527f4e6f206c6f6e6765722076616c69640000000000000000000000000000000000604082015260600190565b6020808252601b908201527f536166654d6174683a206164646974696f6e206f766572666c6f770000000000604082015260600190565b60208082526019908201527f4576656e742077696c6c2065787069726520696e207061737400000000000000604082015260600190565b60208082526015908201527f496e76616c696420747261696c2070657263656e740000000000000000000000604082015260600190565b6020808252601e908201527f536166654d6174683a207375627472616374696f6e206f766572666c6f770000604082015260600190565b6020808252601d908201527f43616e206f6e6c7920706f6b6520747261696c696e67206f7264657273000000604082015260600190565b6020808252601a908201527f536166654d6174683a206469766973696f6e206279207a65726f000000000000604082015260600190565b60208082526021908201527f446563696d616c45524332303a2067657420646563696d616c73206661696c6560408201527f6400000000000000000000000000000000000000000000000000000000000000606082015260800190565b60208082526021908201527f446563696d616c45524332303a207472616e7366657246726f6d206661696c6560408201527f6400000000000000000000000000000000000000000000000000000000000000606082015260800190565b60208082526013908201527f496e76616c6964206761702070657263656e7400000000000000000000000000604082015260600190565b60208082526011908201527f4e65656420736d6172742077616c6c6574000000000000000000000000000000604082015260600190565b6020808252600a908201527f496e76616c696420494400000000000000000000000000000000000000000000604082015260600190565b60208082526021908201527f536166654d6174683a206d756c7469706c69636174696f6e206f766572666c6f60408201527f7700000000000000000000000000000000000000000000000000000000000000606082015260800190565b6020808252818101527f4f776e61626c653a2063616c6c6572206973206e6f7420746865206f776e6572604082015260600190565b6020808252602a908201527f4a757374207468652074697021205469702069732062656c6f77206d696e696d60408201527f756d207469702066656500000000000000000000000000000000000000000000606082015260800190565b60208082526018908201527f496e636f727265637420747261696c696e672070726963650000000000000000604082015260600190565b60208082526022908201527f446563696d616c45524332303a2062616c616e636520696e636f6e736973746560408201527f6e74000000000000000000000000000000000000000000000000000000000000606082015260800190565b60208082526019908201527f4a757374206e6f7420796f7572206c696d6974206f7264657200000000000000604082015260600190565b60208082526024908201527f43616e206f6e6c792062652075706461746564206576657279203135206d696e60408201527f7574657300000000000000000000000000000000000000000000000000000000606082015260800190565b60208082526021908201527f43616e206f6e6c79206d6f646966792073746f702f6c696d6974206f7264657260408201527f7300000000000000000000000000000000000000000000000000000000000000606082015260800190565b60006101a08201905061418982845161397e565b602083015161419b602084018261397e565b5060408301516141ae6040840182613991565b5060608301516141c1606084018261398b565b5060808301516141d4608084018261398b565b5060a083015160a083015260c08301516141f160c084018261399f565b5060e083015161420460e084018261399f565b50610100808401516142188285018261399f565b50506101208084015161422d8285018261399f565b5050610140808401516142428285018261399f565b5050610160808401516142578285018261399f565b50506101808084015161426c8285018261399f565b505092915050565b60006101208201905082515182526020830151516020830152604083015161429f604084018261399f565b5060608301516142b2606084018261399f565b5060808301516142c5608084018261399f565b5060a08301516142d860a084018261398b565b5060c083015160c083015260e083015160e08301526101008084015161426c8285018261397e565b9051815260200190565b965187529451602087015292516040860152905160608501525160808401525160a08301525160c082015260e00190565b90815260200190565b918252602082015260400190565b60405181810167ffffffffffffffff8111828210171561437157600080fd5b604052919050565b60005b8381101561439457818101518382015260200161437c565b8381111561080d5750506000910152565b6001600160a01b03811681146143ba57600080fd5b50565b80151581146143ba57600080fdfea2646970667358221220d488eab4790b80dc9e995d00a2661dccd4d07382ed10598a5cba9560a686c41a64736f6c63430006090033",
  "linkReferences": {},
  "deployedLinkReferences": {}
}