{
  "_format": "hh-sol-artifact-1",
  "contractName": "LimitOrderBook",
  "sourceName": "contracts/LimitOrderBook.sol",
  "abi": [
    {
      "inputs": [],
      "stateMutability": "nonpayable",
      "type": "constructor"
    },
    {
      "anonymous": false,
      "inputs": [
        {
          "indexed": true,
          "internalType": "address",
          "name": "trader",
          "type": "address"
        },
        {
          "indexed": false,
          "internalType": "uint256",
          "name": "order_id",
          "type": "uint256"
        }
      ],
      "name": "OrderCreated",
      "type": "event"
    },
    {
      "anonymous": false,
      "inputs": [
        {
          "indexed": true,
          "internalType": "address",
          "name": "previousOwner",
          "type": "address"
        },
        {
          "indexed": true,
          "internalType": "address",
          "name": "newOwner",
          "type": "address"
        }
      ],
      "name": "OwnershipTransferred",
      "type": "event"
    },
    {
      "inputs": [
        {
          "internalType": "address",
          "name": "_asset",
          "type": "address"
        },
        {
          "components": [
            {
              "internalType": "uint256",
              "name": "d",
              "type": "uint256"
            }
          ],
          "internalType": "struct Decimal.decimal",
          "name": "_limitPrice",
          "type": "tuple"
        },
        {
          "components": [
            {
              "internalType": "int256",
              "name": "d",
              "type": "int256"
            }
          ],
          "internalType": "struct SignedDecimal.signedDecimal",
          "name": "_positionSize",
          "type": "tuple"
        },
        {
          "components": [
            {
              "internalType": "uint256",
              "name": "d",
              "type": "uint256"
            }
          ],
          "internalType": "struct Decimal.decimal",
          "name": "_collateral",
          "type": "tuple"
        },
        {
          "components": [
            {
              "internalType": "uint256",
              "name": "d",
              "type": "uint256"
            }
          ],
          "internalType": "struct Decimal.decimal",
          "name": "_leverage",
          "type": "tuple"
        },
        {
          "components": [
            {
              "internalType": "uint256",
              "name": "d",
              "type": "uint256"
            }
          ],
          "internalType": "struct Decimal.decimal",
          "name": "_slippage",
          "type": "tuple"
        },
        {
          "components": [
            {
              "internalType": "uint256",
              "name": "d",
              "type": "uint256"
            }
          ],
          "internalType": "struct Decimal.decimal",
          "name": "_tipFee",
          "type": "tuple"
        },
        {
          "internalType": "bool",
          "name": "_reduceOnly",
          "type": "bool"
        },
        {
          "internalType": "uint256",
          "name": "_expiry",
          "type": "uint256"
        }
      ],
      "name": "addLimitOrder",
      "outputs": [],
      "stateMutability": "nonpayable",
      "type": "function"
    },
    {
      "inputs": [
        {
          "internalType": "address",
          "name": "_asset",
          "type": "address"
        },
        {
          "components": [
            {
              "internalType": "uint256",
              "name": "d",
              "type": "uint256"
            }
          ],
          "internalType": "struct Decimal.decimal",
          "name": "_stopPrice",
          "type": "tuple"
        },
        {
          "components": [
            {
              "internalType": "uint256",
              "name": "d",
              "type": "uint256"
            }
          ],
          "internalType": "struct Decimal.decimal",
          "name": "_limitPrice",
          "type": "tuple"
        },
        {
          "components": [
            {
              "internalType": "int256",
              "name": "d",
              "type": "int256"
            }
          ],
          "internalType": "struct SignedDecimal.signedDecimal",
          "name": "_positionSize",
          "type": "tuple"
        },
        {
          "components": [
            {
              "internalType": "uint256",
              "name": "d",
              "type": "uint256"
            }
          ],
          "internalType": "struct Decimal.decimal",
          "name": "_collateral",
          "type": "tuple"
        },
        {
          "components": [
            {
              "internalType": "uint256",
              "name": "d",
              "type": "uint256"
            }
          ],
          "internalType": "struct Decimal.decimal",
          "name": "_leverage",
          "type": "tuple"
        },
        {
          "components": [
            {
              "internalType": "uint256",
              "name": "d",
              "type": "uint256"
            }
          ],
          "internalType": "struct Decimal.decimal",
          "name": "_slippage",
          "type": "tuple"
        },
        {
          "components": [
            {
              "internalType": "uint256",
              "name": "d",
              "type": "uint256"
            }
          ],
          "internalType": "struct Decimal.decimal",
          "name": "_tipFee",
          "type": "tuple"
        },
        {
          "internalType": "bool",
          "name": "_reduceOnly",
          "type": "bool"
        },
        {
          "internalType": "uint256",
          "name": "_expiry",
          "type": "uint256"
        }
      ],
      "name": "addStopLimitOrder",
      "outputs": [],
      "stateMutability": "nonpayable",
      "type": "function"
    },
    {
      "inputs": [
        {
          "internalType": "address",
          "name": "_asset",
          "type": "address"
        },
        {
          "components": [
            {
              "internalType": "uint256",
              "name": "d",
              "type": "uint256"
            }
          ],
          "internalType": "struct Decimal.decimal",
          "name": "_stopPrice",
          "type": "tuple"
        },
        {
          "components": [
            {
              "internalType": "int256",
              "name": "d",
              "type": "int256"
            }
          ],
          "internalType": "struct SignedDecimal.signedDecimal",
          "name": "_positionSize",
          "type": "tuple"
        },
        {
          "components": [
            {
              "internalType": "uint256",
              "name": "d",
              "type": "uint256"
            }
          ],
          "internalType": "struct Decimal.decimal",
          "name": "_collateral",
          "type": "tuple"
        },
        {
          "components": [
            {
              "internalType": "uint256",
              "name": "d",
              "type": "uint256"
            }
          ],
          "internalType": "struct Decimal.decimal",
          "name": "_leverage",
          "type": "tuple"
        },
        {
          "components": [
            {
              "internalType": "uint256",
              "name": "d",
              "type": "uint256"
            }
          ],
          "internalType": "struct Decimal.decimal",
          "name": "_slippage",
          "type": "tuple"
        },
        {
          "components": [
            {
              "internalType": "uint256",
              "name": "d",
              "type": "uint256"
            }
          ],
          "internalType": "struct Decimal.decimal",
          "name": "_tipFee",
          "type": "tuple"
        },
        {
          "internalType": "bool",
          "name": "_reduceOnly",
          "type": "bool"
        },
        {
          "internalType": "uint256",
          "name": "_expiry",
          "type": "uint256"
        }
      ],
      "name": "addStopOrder",
      "outputs": [],
      "stateMutability": "nonpayable",
      "type": "function"
    },
    {
      "inputs": [
        {
          "internalType": "address",
          "name": "_asset",
          "type": "address"
        },
        {
          "components": [
            {
              "internalType": "uint256",
              "name": "d",
              "type": "uint256"
            }
          ],
          "internalType": "struct Decimal.decimal",
          "name": "_trail",
          "type": "tuple"
        },
        {
          "components": [
            {
              "internalType": "uint256",
              "name": "d",
              "type": "uint256"
            }
          ],
          "internalType": "struct Decimal.decimal",
          "name": "_gap",
          "type": "tuple"
        },
        {
          "components": [
            {
              "internalType": "int256",
              "name": "d",
              "type": "int256"
            }
          ],
          "internalType": "struct SignedDecimal.signedDecimal",
          "name": "_positionSize",
          "type": "tuple"
        },
        {
          "components": [
            {
              "internalType": "uint256",
              "name": "d",
              "type": "uint256"
            }
          ],
          "internalType": "struct Decimal.decimal",
          "name": "_collateral",
          "type": "tuple"
        },
        {
          "components": [
            {
              "internalType": "uint256",
              "name": "d",
              "type": "uint256"
            }
          ],
          "internalType": "struct Decimal.decimal",
          "name": "_leverage",
          "type": "tuple"
        },
        {
          "components": [
            {
              "internalType": "uint256",
              "name": "d",
              "type": "uint256"
            }
          ],
          "internalType": "struct Decimal.decimal",
          "name": "_slippage",
          "type": "tuple"
        },
        {
          "components": [
            {
              "internalType": "uint256",
              "name": "d",
              "type": "uint256"
            }
          ],
          "internalType": "struct Decimal.decimal",
          "name": "_tipFee",
          "type": "tuple"
        },
        {
          "internalType": "bool",
          "name": "_reduceOnly",
          "type": "bool"
        },
        {
          "internalType": "uint256",
          "name": "_expiry",
          "type": "uint256"
        }
      ],
      "name": "addTrailingStopLimitOrderAbs",
      "outputs": [
        {
          "internalType": "uint256",
          "name": "",
          "type": "uint256"
        }
      ],
      "stateMutability": "nonpayable",
      "type": "function"
    },
    {
      "inputs": [
        {
          "internalType": "uint256",
          "name": "order_id",
          "type": "uint256"
        }
      ],
      "name": "deleteOrder",
      "outputs": [],
      "stateMutability": "nonpayable",
      "type": "function"
    },
    {
      "inputs": [
        {
          "internalType": "uint256",
          "name": "id",
          "type": "uint256"
        }
      ],
      "name": "execute",
      "outputs": [],
      "stateMutability": "nonpayable",
      "type": "function"
    },
    {
      "inputs": [],
      "name": "factory",
      "outputs": [
        {
          "internalType": "contract SmartWalletFactory",
          "name": "",
          "type": "address"
        }
      ],
      "stateMutability": "view",
      "type": "function"
    },
    {
      "inputs": [
        {
          "internalType": "uint256",
          "name": "order_id",
          "type": "uint256"
        }
      ],
      "name": "getLimitOrder",
      "outputs": [
        {
          "components": [
            {
              "internalType": "address",
              "name": "asset",
              "type": "address"
            },
            {
              "internalType": "address",
              "name": "trader",
              "type": "address"
            },
            {
              "internalType": "enum LimitOrderBook.OrderType",
              "name": "orderType",
              "type": "uint8"
            },
            {
              "internalType": "bool",
              "name": "reduceOnly",
              "type": "bool"
            },
            {
              "internalType": "bool",
              "name": "stillValid",
              "type": "bool"
            },
            {
              "internalType": "uint256",
              "name": "expiry",
              "type": "uint256"
            },
            {
              "components": [
                {
                  "internalType": "uint256",
                  "name": "d",
                  "type": "uint256"
                }
              ],
              "internalType": "struct Decimal.decimal",
              "name": "stopPrice",
              "type": "tuple"
            },
            {
              "components": [
                {
                  "internalType": "uint256",
                  "name": "d",
                  "type": "uint256"
                }
              ],
              "internalType": "struct Decimal.decimal",
              "name": "limitPrice",
              "type": "tuple"
            },
            {
              "components": [
                {
                  "internalType": "int256",
                  "name": "d",
                  "type": "int256"
                }
              ],
              "internalType": "struct SignedDecimal.signedDecimal",
              "name": "orderSize",
              "type": "tuple"
            },
            {
              "components": [
                {
                  "internalType": "uint256",
                  "name": "d",
                  "type": "uint256"
                }
              ],
              "internalType": "struct Decimal.decimal",
              "name": "collateral",
              "type": "tuple"
            },
            {
              "components": [
                {
                  "internalType": "uint256",
                  "name": "d",
                  "type": "uint256"
                }
              ],
              "internalType": "struct Decimal.decimal",
              "name": "leverage",
              "type": "tuple"
            },
            {
              "components": [
                {
                  "internalType": "uint256",
                  "name": "d",
                  "type": "uint256"
                }
              ],
              "internalType": "struct Decimal.decimal",
              "name": "slippage",
              "type": "tuple"
            },
            {
              "components": [
                {
                  "internalType": "uint256",
                  "name": "d",
                  "type": "uint256"
                }
              ],
              "internalType": "struct Decimal.decimal",
              "name": "tipFee",
              "type": "tuple"
            }
          ],
          "internalType": "struct LimitOrderBook.LimitOrder",
          "name": "",
          "type": "tuple"
        }
      ],
      "stateMutability": "view",
      "type": "function"
    },
    {
      "inputs": [
        {
          "internalType": "uint256",
          "name": "id",
          "type": "uint256"
        }
      ],
      "name": "getLimitOrderParams",
      "outputs": [
        {
          "internalType": "address",
          "name": "",
          "type": "address"
        },
        {
          "internalType": "address",
          "name": "",
          "type": "address"
        },
        {
          "internalType": "enum LimitOrderBook.OrderType",
          "name": "",
          "type": "uint8"
        },
        {
          "internalType": "bool",
          "name": "",
          "type": "bool"
        },
        {
          "internalType": "bool",
          "name": "",
          "type": "bool"
        },
        {
          "internalType": "uint256",
          "name": "",
          "type": "uint256"
        }
      ],
      "stateMutability": "view",
      "type": "function"
    },
    {
      "inputs": [
        {
          "internalType": "uint256",
          "name": "id",
          "type": "uint256"
        }
      ],
      "name": "getLimitOrderPrices",
      "outputs": [
        {
          "components": [
            {
              "internalType": "uint256",
              "name": "d",
              "type": "uint256"
            }
          ],
          "internalType": "struct Decimal.decimal",
          "name": "",
          "type": "tuple"
        },
        {
          "components": [
            {
              "internalType": "uint256",
              "name": "d",
              "type": "uint256"
            }
          ],
          "internalType": "struct Decimal.decimal",
          "name": "",
          "type": "tuple"
        },
        {
          "components": [
            {
              "internalType": "int256",
              "name": "d",
              "type": "int256"
            }
          ],
          "internalType": "struct SignedDecimal.signedDecimal",
          "name": "",
          "type": "tuple"
        },
        {
          "components": [
            {
              "internalType": "uint256",
              "name": "d",
              "type": "uint256"
            }
          ],
          "internalType": "struct Decimal.decimal",
          "name": "",
          "type": "tuple"
        },
        {
          "components": [
            {
              "internalType": "uint256",
              "name": "d",
              "type": "uint256"
            }
          ],
          "internalType": "struct Decimal.decimal",
          "name": "",
          "type": "tuple"
        },
        {
          "components": [
            {
              "internalType": "uint256",
              "name": "d",
              "type": "uint256"
            }
          ],
          "internalType": "struct Decimal.decimal",
          "name": "",
          "type": "tuple"
        },
        {
          "components": [
            {
              "internalType": "uint256",
              "name": "d",
              "type": "uint256"
            }
          ],
          "internalType": "struct Decimal.decimal",
          "name": "",
          "type": "tuple"
        }
      ],
      "stateMutability": "view",
      "type": "function"
    },
    {
      "inputs": [],
      "name": "getNextOrderId",
      "outputs": [
        {
          "internalType": "uint256",
          "name": "",
          "type": "uint256"
        }
      ],
      "stateMutability": "view",
      "type": "function"
    },
    {
      "inputs": [
        {
          "internalType": "contract IAmm",
          "name": "_asset",
          "type": "address"
        },
        {
          "internalType": "uint256",
          "name": "_snapshotIndex",
          "type": "uint256"
        }
      ],
      "name": "getPriceAtSnapshot",
      "outputs": [
        {
          "components": [
            {
              "internalType": "uint256",
              "name": "d",
              "type": "uint256"
            }
          ],
          "internalType": "struct Decimal.decimal",
          "name": "",
          "type": "tuple"
        }
      ],
      "stateMutability": "view",
      "type": "function"
    },
    {
      "inputs": [
        {
          "internalType": "uint256",
          "name": "order_id",
          "type": "uint256"
        }
      ],
      "name": "getTrailingData",
      "outputs": [
        {
          "components": [
            {
              "components": [
                {
                  "internalType": "uint256",
                  "name": "d",
                  "type": "uint256"
                }
              ],
              "internalType": "struct Decimal.decimal",
              "name": "witnessPrice",
              "type": "tuple"
            },
            {
              "components": [
                {
                  "internalType": "uint256",
                  "name": "d",
                  "type": "uint256"
                }
              ],
              "internalType": "struct Decimal.decimal",
              "name": "trail",
              "type": "tuple"
            },
            {
              "components": [
                {
                  "internalType": "uint256",
                  "name": "d",
                  "type": "uint256"
                }
              ],
              "internalType": "struct Decimal.decimal",
              "name": "trailPct",
              "type": "tuple"
            },
            {
              "components": [
                {
                  "internalType": "uint256",
                  "name": "d",
                  "type": "uint256"
                }
              ],
              "internalType": "struct Decimal.decimal",
              "name": "gap",
              "type": "tuple"
            },
            {
              "components": [
                {
                  "internalType": "uint256",
                  "name": "d",
                  "type": "uint256"
                }
              ],
              "internalType": "struct Decimal.decimal",
              "name": "gapPct",
              "type": "tuple"
            },
            {
              "internalType": "bool",
              "name": "usePct",
              "type": "bool"
            },
            {
              "internalType": "uint256",
              "name": "snapshotCreated",
              "type": "uint256"
            },
            {
              "internalType": "uint256",
              "name": "snapshotLastUpdated",
              "type": "uint256"
            }
          ],
          "internalType": "struct LimitOrderBook.TrailingOrderData",
          "name": "",
          "type": "tuple"
        }
      ],
      "stateMutability": "view",
      "type": "function"
    },
    {
      "inputs": [
        {
          "internalType": "uint256",
          "name": "order_id",
          "type": "uint256"
        },
        {
          "components": [
            {
              "internalType": "uint256",
              "name": "d",
              "type": "uint256"
            }
          ],
          "internalType": "struct Decimal.decimal",
          "name": "_stopPrice",
          "type": "tuple"
        },
        {
          "components": [
            {
              "internalType": "uint256",
              "name": "d",
              "type": "uint256"
            }
          ],
          "internalType": "struct Decimal.decimal",
          "name": "_limitPrice",
          "type": "tuple"
        },
        {
          "components": [
            {
              "internalType": "int256",
              "name": "d",
              "type": "int256"
            }
          ],
          "internalType": "struct SignedDecimal.signedDecimal",
          "name": "_orderSize",
          "type": "tuple"
        },
        {
          "components": [
            {
              "internalType": "uint256",
              "name": "d",
              "type": "uint256"
            }
          ],
          "internalType": "struct Decimal.decimal",
          "name": "_collateral",
          "type": "tuple"
        },
        {
          "components": [
            {
              "internalType": "uint256",
              "name": "d",
              "type": "uint256"
            }
          ],
          "internalType": "struct Decimal.decimal",
          "name": "_leverage",
          "type": "tuple"
        },
        {
          "components": [
            {
              "internalType": "uint256",
              "name": "d",
              "type": "uint256"
            }
          ],
          "internalType": "struct Decimal.decimal",
          "name": "_slippage",
          "type": "tuple"
        },
        {
          "components": [
            {
              "internalType": "uint256",
              "name": "d",
              "type": "uint256"
            }
          ],
          "internalType": "struct Decimal.decimal",
          "name": "_tipFee",
          "type": "tuple"
        },
        {
          "internalType": "bool",
          "name": "_reduceOnly",
          "type": "bool"
        },
        {
          "internalType": "uint256",
          "name": "_expiry",
          "type": "uint256"
        }
      ],
      "name": "modifyOrder",
      "outputs": [],
      "stateMutability": "nonpayable",
      "type": "function"
    },
    {
      "inputs": [
        {
          "internalType": "uint256",
          "name": "",
          "type": "uint256"
        }
      ],
      "name": "orders",
      "outputs": [
        {
          "internalType": "address",
          "name": "asset",
          "type": "address"
        },
        {
          "internalType": "address",
          "name": "trader",
          "type": "address"
        },
        {
          "internalType": "enum LimitOrderBook.OrderType",
          "name": "orderType",
          "type": "uint8"
        },
        {
          "internalType": "bool",
          "name": "reduceOnly",
          "type": "bool"
        },
        {
          "internalType": "bool",
          "name": "stillValid",
          "type": "bool"
        },
        {
          "internalType": "uint256",
          "name": "expiry",
          "type": "uint256"
        },
        {
          "components": [
            {
              "internalType": "uint256",
              "name": "d",
              "type": "uint256"
            }
          ],
          "internalType": "struct Decimal.decimal",
          "name": "stopPrice",
          "type": "tuple"
        },
        {
          "components": [
            {
              "internalType": "uint256",
              "name": "d",
              "type": "uint256"
            }
          ],
          "internalType": "struct Decimal.decimal",
          "name": "limitPrice",
          "type": "tuple"
        },
        {
          "components": [
            {
              "internalType": "int256",
              "name": "d",
              "type": "int256"
            }
          ],
          "internalType": "struct SignedDecimal.signedDecimal",
          "name": "orderSize",
          "type": "tuple"
        },
        {
          "components": [
            {
              "internalType": "uint256",
              "name": "d",
              "type": "uint256"
            }
          ],
          "internalType": "struct Decimal.decimal",
          "name": "collateral",
          "type": "tuple"
        },
        {
          "components": [
            {
              "internalType": "uint256",
              "name": "d",
              "type": "uint256"
            }
          ],
          "internalType": "struct Decimal.decimal",
          "name": "leverage",
          "type": "tuple"
        },
        {
          "components": [
            {
              "internalType": "uint256",
              "name": "d",
              "type": "uint256"
            }
          ],
          "internalType": "struct Decimal.decimal",
          "name": "slippage",
          "type": "tuple"
        },
        {
          "components": [
            {
              "internalType": "uint256",
              "name": "d",
              "type": "uint256"
            }
          ],
          "internalType": "struct Decimal.decimal",
          "name": "tipFee",
          "type": "tuple"
        }
      ],
      "stateMutability": "view",
      "type": "function"
    },
    {
      "inputs": [],
      "name": "owner",
      "outputs": [
        {
          "internalType": "address",
          "name": "",
          "type": "address"
        }
      ],
      "stateMutability": "view",
      "type": "function"
    },
    {
      "inputs": [
        {
          "internalType": "uint256",
          "name": "order_id",
          "type": "uint256"
        },
        {
          "internalType": "uint256",
          "name": "_reserveIndex",
          "type": "uint256"
        }
      ],
      "name": "pokeContract",
      "outputs": [],
      "stateMutability": "nonpayable",
      "type": "function"
    },
    {
      "inputs": [],
      "name": "renounceOwnership",
      "outputs": [],
      "stateMutability": "nonpayable",
      "type": "function"
    },
    {
      "inputs": [
        {
          "internalType": "address",
          "name": "_addr",
          "type": "address"
        }
      ],
      "name": "setFactory",
      "outputs": [],
      "stateMutability": "nonpayable",
      "type": "function"
    },
    {
      "inputs": [
        {
          "internalType": "address",
          "name": "newOwner",
          "type": "address"
        }
      ],
      "name": "transferOwnership",
      "outputs": [],
      "stateMutability": "nonpayable",
      "type": "function"
    }
  ],
  "bytecode": "0x60806040523480156200001157600080fd5b506000620000276001600160e01b036200007716565b600080546001600160a01b0319166001600160a01b0383169081178255604051929350917f8be0079c531659141344cd1fd0a4f28419497f9722a3daafe3b4186f6b6457e0908290a3506200007b565b3390565b6135f3806200008b6000396000f3fe608060405234801561001057600080fd5b506004361061016c5760003560e01c80638158900b116100cd578063c45a015511610081578063f0d840d711610066578063f0d840d714610305578063f2fde38b14610325578063fe0d94c1146103385761016c565b8063c45a0155146102d7578063e36a2dc0146102df5761016c565b80638da5cb5b116100b25780638da5cb5b14610283578063a85c38ef14610298578063b099b0dd146102c45761016c565b80638158900b1461026857806386f89642146102705761016c565b806353061026116101245780635bb47808116101095780635bb478081461022d5780636bef749314610240578063715018a6146102605761016c565b806353061026146101ed5780635ad864471461020d5761016c565b80632736f620116101555780632736f6201461019957806334c19830146101ac5780634c5789e3146101bf5761016c565b8063032e4f6e1461017157806311a0032714610186575b600080fd5b61018461017f366004612bf5565b61034b565b005b610184610194366004612d5a565b61058a565b6101846101a7366004612bf5565b610691565b6101846101ba366004612dba565b6107e5565b6101d26101cd366004612d5a565b6109bf565b6040516101e496959493929190612e31565b60405180910390f35b6102006101fb366004612d5a565b610b67565b6040516101e491906133a4565b61022061021b366004612b36565b610ccd565b6040516101e4919061353e565b61018461023b366004612afe565b611132565b61025361024e366004612cbd565b6111a0565b6040516101e49190613503565b610184611269565b6102206112ff565b61018461027e366004612b36565b611305565b61028b61156b565b6040516101e49190612e1d565b6102ab6102a6366004612d5a565b61157a565b6040516101e49d9c9b9a99989796959493929190612e73565b6101846102d2366004612d8a565b611648565b61028b61184f565b6102f26102ed366004612d5a565b61185e565b6040516101e4979695949392919061350d565b610318610313366004612d5a565b611a4a565b6040516101e491906134a3565b610184610333366004612afe565b611af0565b610184610346366004612d5a565b611bbd565b80158061035757508042105b61037c5760405162461bcd60e51b8152600401610373906130b1565b60405180910390fd5b60345460405133917fcb0c37c16aa3b0bbb7a817932094d8a20a00996d426a813f067039f0ef87ab07916103b0919061353e565b60405180910390a2604080516101a0810182526001600160a01b038b16815233602082015260349181016002815260200184151581526020016001151581526020018381526020018a8152602001610406611e43565b815260208082018b905260408083018b9052606083018a90526080830189905260a09092018790528354600180820186556000958652948290208451600a90920201805473ffffffffffffffffffffffffffffffffffffffff199081166001600160a01b039384161782559285015195810180549093169590911694909417808255918301519293929160ff60a01b1916600160a01b8360058111156104a857fe5b0217905550606082015160018201805460808501511515600160b01b027fffffffffffffffffff00ffffffffffffffffffffffffffffffffffffffffffff931515600160a81b027fffffffffffffffffffff00ffffffffffffffffffffffffffffffffffffffffff909216919091179290921691909117905560a0820151600282015560c082015151600382015560e08201515160048201556101008201515160058201556101208201515160068201556101408201515160078201556101608201515160088201556101809091015151600990910155505050505050505050565b806034818154811061059857fe5b60009182526020909120600a90910201600101546001600160a01b031633146105d35760405162461bcd60e51b815260040161037390612faf565b603454829081106105f65760405162461bcd60e51b815260040161037390613247565b6034838154811061060357fe5b600091825260208220600a90910201805473ffffffffffffffffffffffffffffffffffffffff191681556001810180547fffffffffffffffffff00000000000000000000000000000000000000000000001690556002810182905560038101829055600481018290556005810182905560068101829055600781018290556008810182905560090155505050565b80158061069d57508042105b6106b95760405162461bcd60e51b8152600401610373906130b1565b60345460405133917fcb0c37c16aa3b0bbb7a817932094d8a20a00996d426a813f067039f0ef87ab07916106ed919061353e565b60405180910390a2604080516101a0810182526001600160a01b038b1681523360208201526034918101600181528415156020820152600160408201526060810184905260800161073c611e43565b815260208082018c905260408083018c9052606083018b9052608083018a905260a0830189905260c09092018790528354600180820186556000958652948290208451600a90920201805473ffffffffffffffffffffffffffffffffffffffff199081166001600160a01b039384161782559285015195810180549093169590911694909417808255918301519293929160ff60a01b1916600160a01b8360058111156104a857fe5b6004603483815481106107f457fe5b90600052602060002090600a020160010160149054906101000a900460ff16600581111561081e57fe5b1480610860575060056034838154811061083457fe5b90600052602060002090600a020160010160149054906101000a900460ff16600581111561085e57fe5b145b61087c5760405162461bcd60e51b81526004016103739061311f565b60008281526036602052604090206006015481116108ac5760405162461bcd60e51b815260040161037390612f78565b60006108e3603484815481106108be57fe5b60009182526020918290206040805193840190526005600a9092020101548152611e5e565b6108ee5760016108f1565b60005b90506108fb612977565b61092b6034858154811061090b57fe5b60009182526020909120600a90910201546001600160a01b0316846111a0565b90508161093957600161093d565b6000195b600085815260366020908152604091829020825191820190925290548152600f9190910b90610972908363ffffffff611e7c16565b60000b14156109a15760008481526036602052604090208151815560070183905561099c84611ead565b6109b9565b60405162461bcd60e51b815260040161037390613310565b50505050565b6000806000806000808660348054905081106109ed5760405162461bcd60e51b815260040161037390613247565b6109f561298a565b60348981548110610a0257fe5b6000918252602091829020604080516101a081018252600a90930290910180546001600160a01b03908116845260018201549081169484019490945291929083019060ff600160a01b909104166005811115610a5a57fe5b6005811115610a6557fe5b8152600182015460ff600160a81b820481161515602080850191909152600160b01b90920416151560408084019190915260028401546060808501919091528151808401835260038601548152608080860191909152825180850184526004870154815260a080870191909152835180860185526005880154815260c0870152835180860185526006880154815260e087015283518086018552600788015481526101008701528351808601855260088801548152610120870152835180860185526009909701548752610140909501959095528551928601519186015190860151948601519590930151919e909d50919b5091995091975095509350505050565b610b6f61298a565b60345482908110610b925760405162461bcd60e51b815260040161037390613247565b60348381548110610b9f57fe5b6000918252602091829020604080516101a081018252600a90930290910180546001600160a01b03908116845260018201549081169484019490945291929083019060ff600160a01b909104166005811115610bf757fe5b6005811115610c0257fe5b8152600182015460ff600160a81b820481161515602080850191909152600160b01b9092041615156040808401919091526002840154606084015280518083018252600385015481526080840152805180830182526004850154815260a0840152805180830182526005850154815260c0840152805180830182526006850154815260e0840152805180830182526007850154815261010084015280518083018252600885015481526101208401528051918201905260099092015482526101400152915050919050565b6000811580610cdb57508142105b610cf75760405162461bcd60e51b8152600401610373906130b1565b60345460405133917fcb0c37c16aa3b0bbb7a817932094d8a20a00996d426a813f067039f0ef87ab0791610d2b919061353e565b60405180910390a2600060018c6001600160a01b0316630d451c8f6040518163ffffffff1660e01b815260040160206040518083038186803b158015610d7057600080fd5b505afa158015610d84573d6000803e3d6000fd5b505050506040513d601f19601f82011682018060405250810190610da89190612d72565b039050610db3612977565b8c6001600160a01b031663dc76fabc6040518163ffffffff1660e01b815260040160206040518083038186803b158015610dec57600080fd5b505afa158015610e00573d6000803e3d6000fd5b505050506040513d601f19601f82011682018060405250810190610e249190612d3f565b90506040518061010001604052808281526020018d8152602001610e46611e43565b81526020018c8152602001610e59611e43565b81526020016000151581526020018381526020018381525060366000603480549050815260200190815260200160002060008201518160000160008201518160000155505060208201518160010160008201518160000155505060408201518160020160008201518160000155505060608201518160030160008201518160000155505060808201518160040160008201518160000155505060a08201518160050160006101000a81548160ff02191690831515021790555060c0820151816006015560e082015181600701559050506034604051806101a001604052808f6001600160a01b03168152602001336001600160a01b03168152602001600580811115610f6157fe5b815287151560208201526001604082015260608101879052608001610f84611e43565b8152602001610f91611e43565b815260208082018e905260408083018e9052606083018d9052608083018c905260a09092018a90528354600180820186556000958652948290208451600a90920201805473ffffffffffffffffffffffffffffffffffffffff199081166001600160a01b039384161782559285015195810180549093169590911694909417808255918301519293929160ff60a01b1916600160a01b83600581111561103357fe5b0217905550606082015160018201805460808501511515600160b01b027fffffffffffffffffff00ffffffffffffffffffffffffffffffffffffffffffff931515600160a81b027fffffffffffffffffffff00ffffffffffffffffffffffffffffffffffffffffff909216919091179290921691909117905560a0820151600282015560c082015151600382015560e0820151516004820155610100820151516005820155610120820151516006820155610140820151516007820155610160820151516008820155610180909101515160099091015560345461111a9060001901611ead565b5050603454600019019b9a5050505050505050505050565b61113a612248565b6001600160a01b031661114b61156b565b6001600160a01b0316146111715760405162461bcd60e51b8152600401610373906132db565b6035805473ffffffffffffffffffffffffffffffffffffffff19166001600160a01b0392909216919091179055565b6111a8612977565b6111b0612a1b565b6040517f21e009850000000000000000000000000000000000000000000000000000000081526001600160a01b038516906321e00985906111f590869060040161353e565b60806040518083038186803b15801561120d57600080fd5b505afa158015611221573d6000803e3d6000fd5b505050506040513d601f19601f820116820180604052508101906112459190612ce8565b6020810151815191925061125f919063ffffffff61224c16565b9150505b92915050565b611271612248565b6001600160a01b031661128261156b565b6001600160a01b0316146112a85760405162461bcd60e51b8152600401610373906132db565b600080546040516001600160a01b03909116907f8be0079c531659141344cd1fd0a4f28419497f9722a3daafe3b4186f6b6457e0908390a36000805473ffffffffffffffffffffffffffffffffffffffff19169055565b60345490565b80158061131157508042105b61132d5760405162461bcd60e51b8152600401610373906130b1565b60345460405133917fcb0c37c16aa3b0bbb7a817932094d8a20a00996d426a813f067039f0ef87ab0791611361919061353e565b60405180910390a2604080516101a0810182526001600160a01b038c8116825233602083019081526003938301938452851515606084015260016080840181905260a0840186905260c084018e905260e084018d905261010084018c905261012084018b905261014084018a9052610160840189905261018084018890526034805491820181556000528351600a9091027f46bddb1178e94d7f2892ff5f366840eb658911794f2c3a44c450aa2c505186c18101805492851673ffffffffffffffffffffffffffffffffffffffff1993841617815592517f46bddb1178e94d7f2892ff5f366840eb658911794f2c3a44c450aa2c505186c2909101805491909416911617808355935192939092919060ff60a01b1916600160a01b83600581111561148857fe5b0217905550606082015160018201805460808501511515600160b01b027fffffffffffffffffff00ffffffffffffffffffffffffffffffffffffffffffff931515600160a81b027fffffffffffffffffffff00ffffffffffffffffffffffffffffffffffffffffff909216919091179290921691909117905560a0820151600282015560c082015151600382015560e0820151516004820155610100820151516005820155610120820151516006820155610140820151516007820155610160820151516008820155610180909101515160099091015550505050505050505050565b6000546001600160a01b031690565b6034818154811061158757fe5b6000918252602091829020600a9091020180546001820154600283015460408051808701825260038601548152815180880183526004870154815282518089018452600588015481528351808a018552600689015481528451808b01865260078a015481528551808c01875260088b0154815286519b8c019096526009909901548a526001600160a01b039788169a509686169860ff600160a01b8804811699600160a81b8904821699600160b01b9099049091169794959394929390918d565b896034818154811061165657fe5b60009182526020909120600a90910201600101546001600160a01b031633146116915760405162461bcd60e51b815260040161037390612faf565b6034548b9081106116b45760405162461bcd60e51b815260040161037390613247565b8a60348d815481106116c257fe5b90600052602060002090600a0201600301600082015181600001559050508960348d815481106116ee57fe5b90600052602060002090600a0201600401600082015181600001559050508860348d8154811061171a57fe5b90600052602060002090600a0201600501600082015181600001559050508760348d8154811061174657fe5b90600052602060002090600a0201600601600082015181600001559050508660348d8154811061177257fe5b90600052602060002090600a0201600701600082015181600001559050508560348d8154811061179e57fe5b90600052602060002090600a0201600801600082015181600001559050508460348d815481106117ca57fe5b90600052602060002090600a0201600901600082015181600001559050508360348d815481106117f657fe5b90600052602060002090600a020160010160156101000a81548160ff0219169083151502179055508260348d8154811061182c57fe5b90600052602060002090600a020160020181905550505050505050505050505050565b6035546001600160a01b031681565b611866612977565b61186e612977565b611876612977565b61187e612977565b611886612977565b61188e612977565b611896612977565b603454889081106118b95760405162461bcd60e51b815260040161037390613247565b6118c161298a565b60348a815481106118ce57fe5b6000918252602091829020604080516101a081018252600a90930290910180546001600160a01b03908116845260018201549081169484019490945291929083019060ff600160a01b90910416600581111561192657fe5b600581111561193157fe5b8152600182015460ff600160a81b820481161515602080850191909152600160b01b9092041615156040808401919091526002840154606084015280518083018252600385015481526080840152805180830182526004850154815260a0840152805180830182526005850154815260c080850191909152815180840183526006860154815260e08086019190915282518085018452600787015481526101008087019190915283518086018552600888015481526101208088019190915284519586019094526009909601548452610140948501939093528501519185015193850151908501519285015161016086015161018090960151929e50939c509a5090985090965090945092505050919395979092949650565b611a52612a4f565b50600081815260366020908152604091829020825161012081018452815461010082019081528152835180840185526001830154815281840152835180840185526002830154815281850152835180840185526003830154815260608201528351928301909352600481015482526080830191909152600581015460ff16151560a0830152600681015460c08301526007015460e08201525b919050565b611af8612248565b6001600160a01b0316611b0961156b565b6001600160a01b031614611b2f5760405162461bcd60e51b8152600401610373906132db565b6001600160a01b038116611b555760405162461bcd60e51b815260040161037390612fe6565b600080546040516001600160a01b03808516939216917f8be0079c531659141344cd1fd0a4f28419497f9722a3daafe3b4186f6b6457e091a36000805473ffffffffffffffffffffffffffffffffffffffff19166001600160a01b0392909216919091179055565b60345481908110611be05760405162461bcd60e51b815260040161037390613247565b60348281548110611bed57fe5b90600052602060002090600a020160010160169054906101000a900460ff16611c285760405162461bcd60e51b815260040161037390613043565b603554603480546000926001600160a01b03169163a0b738819186908110611c4c57fe5b600091825260209091206001600a9092020101546040517fffffffff0000000000000000000000000000000000000000000000000000000060e084901b168152611ca2916001600160a01b031690600401612e1d565b60206040518083038186803b158015611cba57600080fd5b505afa158015611cce573d6000803e3d6000fd5b505050506040513d601f19601f82011682018060405250810190611cf29190612b1a565b90506000816001600160a01b03166394f61134856040518263ffffffff1660e01b8152600401611d22919061353e565b602060405180830381600087803b158015611d3c57600080fd5b505af1158015611d50573d6000803e3d6000fd5b505050506040513d601f19601f82011682018060405250810190611d749190612ca1565b905080156109b957611dba6040518060400160405280601481526020017f2d5375636365737366756c6c792063616c6c6564000000000000000000000000815250612278565b611e0673ddafbb505ad214d7b80b1f830fccc89b60fb7a83833360348881548110611de157fe5b60009182526020918290206040805193840190526009600a90920201015481526122ec565b600060348581548110611e1557fe5b90600052602060002090600a020160010160166101000a81548160ff02191690831515021790555050505050565b611e4b612977565b5060408051602081019091526000815290565b60008082600001511215611e7457506001611aeb565b506000919050565b805182516000911015611e9157506001611263565b815183511015611ea45750600019611263565b50600092915050565b611eb5612977565b506000818152603660209081526040808320815192830190915254815260348054919291611ee89190859081106108be57fe5b611ef3576001611ef6565b60005b60008481526036602052604090206005015490915060ff16156120b057611f1b612977565b81611f5f5760008481526036602090815260409182902082519182019092526002909101548152611f5a90611f4e61244b565b9063ffffffff61246f16565b611f99565b60008481526036602090815260409182902082519182019092526002909101548152611f9990611f8d61244b565b9063ffffffff61249216565b9050611fa3612977565b82611fdb5760008581526036602090815260409182902082519182019092526004909101548152611fd690611f4e61244b565b612009565b6000858152603660209081526040918290208251918201909252600490910154815261200990611f8d61244b565b905061201b848363ffffffff6124b516565b6034868154811061202857fe5b90600052602060002090600a020160030160008201518160000155905050612083816034878154811061205757fe5b60009182526020918290206040805193840190526003600a90920201015481529063ffffffff6124b516565b6034868154811061209057fe5b6000918252602090912091516004600a9092029092010155506122439050565b806120ed57600083815260366020908152604091829020825191820190925260019091015481526120e890839063ffffffff61246f16565b612120565b6000838152603660209081526040918290208251918201909252600190910154815261212090839063ffffffff61249216565b6034848154811061212d57fe5b6000918252602090912091516003600a9092029092010155806121b6576121b1603660008581526020019081526020016000206003016040518060200160405290816000820154815250506034858154811061218557fe5b60009182526020918290206040805193840190526003600a90920201015481529063ffffffff61246f16565b61221d565b61221d60366000858152602001908152602001600020600301604051806020016040529081600082015481525050603485815481106121f157fe5b60009182526020918290206040805193840190526003600a90920201015481529063ffffffff61249216565b6034848154811061222a57fe5b6000918252602090912091516004600a90920290920101555b505050565b3390565b612254612977565b61225c612977565b8251845161226f9163ffffffff6124d816565b81529392505050565b6122e98160405160240161228c9190612f45565b60408051601f198184030181529190526020810180517bffffffffffffffffffffffffffffffffffffffffffffffffffffffff167f41304fac000000000000000000000000000000000000000000000000000000001790526124ed565b50565b6122f58461250e565b6122fd612977565b612307858461255b565b9050600061231586846125e8565b905060006060876001600160a01b03166323b872dd60e01b88888660405160240161234293929190612f21565b60408051601f198184030181529181526020820180517bffffffffffffffffffffffffffffffffffffffffffffffffffffffff167fffffffff000000000000000000000000000000000000000000000000000000009094169390931790925290516123ad9190612e01565b6000604051808303816000865af19150503d80600081146123ea576040519150601f19603f3d011682016040523d82523d6000602084013e6123ef565b606091505b50915091508180156124195750805115806124195750808060200190518101906124199190612ca1565b6124355760405162461bcd60e51b8152600401610373906131ea565b6124418887858761265e565b5050505050505050565b612453612977565b604051806020016040528061246860126126b1565b9052905090565b612477612977565b61247f612977565b8251845161226f9163ffffffff6126ba16565b61249a612977565b6124a2612977565b8251845161226f9163ffffffff6126e216565b6124bd612977565b6124c5612977565b8251845161226f9163ffffffff61270716565b60006124e683836012612715565b9392505050565b80516a636f6e736f6c652e6c6f67602083016000808483855afa5050505050565b60006125198261273c565b6001600160a01b0383166000908152600160205260409020549091508114612557576001600160a01b03821660009081526001602052604090208190555b5050565b612563612977565b6124e683846001600160a01b03166370a08231856040518263ffffffff1660e01b81526004016125939190612e1d565b60206040518083038186803b1580156125ab57600080fd5b505afa1580156125bf573d6000803e3d6000fd5b505050506040513d601f19601f820116820180604052508101906125e39190612d72565b612857565b6000806125f48461273c565b9050601281106126325761262a61261282601263ffffffff6126ba16565b600a0a61261e856128e9565b9063ffffffff6128ed16565b915050611263565b61125f61264660128363ffffffff6126ba16565b600a0a612652856128e9565b9063ffffffff61292716565b61269161267b61266e8685612857565b839063ffffffff61249216565b612685868661255b565b9063ffffffff611e7c16565b60000b156109b95760405162461bcd60e51b815260040161037390613347565b60ff16600a0a90565b6000828211156126dc5760405162461bcd60e51b8152600401610373906130e8565b50900390565b6000828201838110156124e65760405162461bcd60e51b81526004016103739061307a565b60006124e683836012612959565b600061273483612652612727856126b1565b879063ffffffff6128ed16565b949350505050565b6001600160a01b038116600090815260016020526040812054806112635760408051600481526024810182526020810180517bffffffffffffffffffffffffffffffffffffffffffffffffffffffff167f313ce5670000000000000000000000000000000000000000000000000000000017905290516000916060916001600160a01b038716916127cc91612e01565b600060405180830381855afa9150503d8060008114612807576040519150601f19603f3d011682016040523d82523d6000602084013e61280c565b606091505b509150915081801561281e5750805115155b61283a5760405162461bcd60e51b81526004016103739061318d565b8080602001905181019061284e9190612d72565b95945050505050565b61285f612977565b600061286a8461273c565b9050601281106128af576040805160208101909152806128a461289484601263ffffffff6126ba16565b8690600a0a63ffffffff61292716565b815250915050611263565b6040805160208101909152806128df6128cf60128563ffffffff6126ba16565b8690600a0a63ffffffff6128ed16565b9052949350505050565b5190565b6000826128fc57506000611263565b8282028284828161290957fe5b04146124e65760405162461bcd60e51b81526004016103739061327e565b60008082116129485760405162461bcd60e51b815260040161037390613156565b81838161295157fe5b049392505050565b6000612734612967836126b1565b612652868663ffffffff6128ed16565b6040518060200160405280600081525090565b604080516101a081018252600080825260208201819052909182019081526000602082018190526040820181905260608201526080016129c8612977565b81526020016129d5612977565b81526020016129e2612977565b81526020016129ef612977565b81526020016129fc612977565b8152602001612a09612977565b8152602001612a16612977565b905290565b6040518060800160405280612a2e612977565b8152602001612a3b612977565b815260200160008152602001600081525090565b604051806101000160405280612a63612977565b8152602001612a70612977565b8152602001612a7d612977565b8152602001612a8a612977565b8152602001612a97612977565b815260200160001515815260200160008152602001600081525090565b600060208284031215612ac5578081fd5b612acf6020613547565b9135825250919050565b600060208284031215612aea578081fd5b612af46020613547565b9151825250919050565b600060208284031215612b0f578081fd5b81356124e68161359a565b600060208284031215612b2b578081fd5b81516124e68161359a565b6000806000806000806000806000806101408b8d031215612b55578586fd5b8a35612b608161359a565b9950612b6f8c60208d01612ab4565b9850612b7e8c60408d01612ab4565b9750612b8d8c60608d01612ab4565b9650612b9c8c60808d01612ab4565b9550612bab8c60a08d01612ab4565b9450612bba8c60c08d01612ab4565b9350612bc98c60e08d01612ab4565b92506101008b0135612bda816135af565b809250506101208b013590509295989b9194979a5092959850565b60008060008060008060008060006101208a8c031215612c13578485fd5b8935612c1e8161359a565b9850612c2d8b60208c01612ab4565b9750612c3c8b60408c01612ab4565b9650612c4b8b60608c01612ab4565b9550612c5a8b60808c01612ab4565b9450612c698b60a08c01612ab4565b9350612c788b60c08c01612ab4565b925060e08a0135612c88816135af565b809250506101008a013590509295985092959850929598565b600060208284031215612cb2578081fd5b81516124e6816135af565b60008060408385031215612ccf578182fd5b8235612cda8161359a565b946020939093013593505050565b600060808284031215612cf9578081fd5b612d036080613547565b612d0d8484612ad9565b8152612d1c8460208501612ad9565b602082015260408301516040820152606083015160608201528091505092915050565b600060208284031215612d50578081fd5b6124e68383612ad9565b600060208284031215612d6b578081fd5b5035919050565b600060208284031215612d83578081fd5b5051919050565b6000806000806000806000806000806101408b8d031215612da9578384fd5b8a359950612b6f8c60208d01612ab4565b60008060408385031215612dcc578182fd5b50508035926020909101359150565b6001600160a01b03169052565b15159052565b60068110612df857fe5b9052565b519052565b60008251612e1381846020870161356e565b9190910192915050565b6001600160a01b0391909116815260200190565b6001600160a01b0387811682528616602082015260c08101612e566040830187612dee565b9315156060820152911515608083015260a0909101529392505050565b6001600160a01b038e811682528d1660208201526101a08101612e99604083018e612dee565b8b151560608301528a151560808301528960a0830152612ebc60c083018a612dfc565b612ec960e0830189612dfc565b612ed7610100830188612dfc565b612ee5610120830187612dfc565b612ef3610140830186612dfc565b612f01610160830185612dfc565b612f0f610180830184612dfc565b9e9d5050505050505050505050505050565b6001600160a01b039384168152919092166020820152604081019190915260600190565b6000602082528251806020840152612f6481604085016020870161356e565b601f01601f19169190910160400192915050565b60208082526019908201527f4f72646572206861646e2774206265656e206372656174656400000000000000604082015260600190565b60208082526014908201527f4e6f7420796f7572206c696d6974206f72646572000000000000000000000000604082015260600190565b60208082526026908201527f4f776e61626c653a206e6577206f776e657220697320746865207a65726f206160408201527f6464726573730000000000000000000000000000000000000000000000000000606082015260800190565b6020808252600f908201527f4e6f206c6f6e6765722076616c69640000000000000000000000000000000000604082015260600190565b6020808252601b908201527f536166654d6174683a206164646974696f6e206f766572666c6f770000000000604082015260600190565b60208082526019908201527f4576656e742077696c6c2065787069726520696e207061737400000000000000604082015260600190565b6020808252601e908201527f536166654d6174683a207375627472616374696f6e206f766572666c6f770000604082015260600190565b6020808252601d908201527f43616e206f6e6c7920706f6b6520747261696c696e67206f7264657273000000604082015260600190565b6020808252601a908201527f536166654d6174683a206469766973696f6e206279207a65726f000000000000604082015260600190565b60208082526021908201527f446563696d616c45524332303a2067657420646563696d616c73206661696c6560408201527f6400000000000000000000000000000000000000000000000000000000000000606082015260800190565b60208082526021908201527f446563696d616c45524332303a207472616e7366657246726f6d206661696c6560408201527f6400000000000000000000000000000000000000000000000000000000000000606082015260800190565b6020808252600a908201527f496e76616c696420494400000000000000000000000000000000000000000000604082015260600190565b60208082526021908201527f536166654d6174683a206d756c7469706c69636174696f6e206f766572666c6f60408201527f7700000000000000000000000000000000000000000000000000000000000000606082015260800190565b6020808252818101527f4f776e61626c653a2063616c6c6572206973206e6f7420746865206f776e6572604082015260600190565b60208082526018908201527f496e636f727265637420747261696c696e672070726963650000000000000000604082015260600190565b60208082526022908201527f446563696d616c45524332303a2062616c616e636520696e636f6e736973746560408201527f6e74000000000000000000000000000000000000000000000000000000000000606082015260800190565b60006101a0820190506133b8828451612ddb565b60208301516133ca6020840182612ddb565b5060408301516133dd6040840182612dee565b5060608301516133f06060840182612de8565b5060808301516134036080840182612de8565b5060a083015160a083015260c083015161342060c0840182612dfc565b5060e083015161343360e0840182612dfc565b506101008084015161344782850182612dfc565b50506101208084015161345c82850182612dfc565b50506101408084015161347182850182612dfc565b50506101608084015161348682850182612dfc565b50506101808084015161349b82850182612dfc565b505092915050565b6000610100820190508251518252602083015151602083015260408301515160408301526060830151516060830152608083015151608083015260a0830151151560a083015260c083015160c083015260e083015160e083015292915050565b9051815260200190565b965187529451602087015292516040860152905160608501525160808401525160a08301525160c082015260e00190565b90815260200190565b60405181810167ffffffffffffffff8111828210171561356657600080fd5b604052919050565b60005b83811015613589578181015183820152602001613571565b838111156109b95750506000910152565b6001600160a01b03811681146122e957600080fd5b80151581146122e957600080fdfea2646970667358221220d2132c513539513e179fc916e1aba2a6ca4bb4a3b5eb4e03e622b493840d05b564736f6c63430006090033",
  "linkReferences": {},
  "deployedLinkReferences": {}
}