{
  "_format": "hh-sol-artifact-1",
  "contractName": "LimitOrderBook",
  "sourceName": "contracts/LimitOrderBook.sol",
  "abi": [
    {
      "inputs": [],
      "stateMutability": "nonpayable",
      "type": "constructor"
    },
    {
      "anonymous": false,
      "inputs": [
        {
          "indexed": true,
          "internalType": "address",
          "name": "trader",
          "type": "address"
        },
        {
          "indexed": false,
          "internalType": "uint256",
          "name": "order_id",
          "type": "uint256"
        }
      ],
      "name": "OrderCreated",
      "type": "event"
    },
    {
      "anonymous": false,
      "inputs": [
        {
          "indexed": true,
          "internalType": "address",
          "name": "previousOwner",
          "type": "address"
        },
        {
          "indexed": true,
          "internalType": "address",
          "name": "newOwner",
          "type": "address"
        }
      ],
      "name": "OwnershipTransferred",
      "type": "event"
    },
    {
      "inputs": [
        {
          "internalType": "address",
          "name": "_asset",
          "type": "address"
        },
        {
          "components": [
            {
              "internalType": "uint256",
              "name": "d",
              "type": "uint256"
            }
          ],
          "internalType": "struct Decimal.decimal",
          "name": "_limitPrice",
          "type": "tuple"
        },
        {
          "components": [
            {
              "internalType": "int256",
              "name": "d",
              "type": "int256"
            }
          ],
          "internalType": "struct SignedDecimal.signedDecimal",
          "name": "_positionSize",
          "type": "tuple"
        },
        {
          "components": [
            {
              "internalType": "uint256",
              "name": "d",
              "type": "uint256"
            }
          ],
          "internalType": "struct Decimal.decimal",
          "name": "_collateral",
          "type": "tuple"
        },
        {
          "components": [
            {
              "internalType": "uint256",
              "name": "d",
              "type": "uint256"
            }
          ],
          "internalType": "struct Decimal.decimal",
          "name": "_leverage",
          "type": "tuple"
        },
        {
          "components": [
            {
              "internalType": "uint256",
              "name": "d",
              "type": "uint256"
            }
          ],
          "internalType": "struct Decimal.decimal",
          "name": "_slippage",
          "type": "tuple"
        },
        {
          "components": [
            {
              "internalType": "uint256",
              "name": "d",
              "type": "uint256"
            }
          ],
          "internalType": "struct Decimal.decimal",
          "name": "_tipFee",
          "type": "tuple"
        },
        {
          "internalType": "bool",
          "name": "_reduceOnly",
          "type": "bool"
        },
        {
          "internalType": "uint256",
          "name": "_expiry",
          "type": "uint256"
        }
      ],
      "name": "addLimitOrder",
      "outputs": [],
      "stateMutability": "nonpayable",
      "type": "function"
    },
    {
      "inputs": [
        {
          "internalType": "uint256",
          "name": "id",
          "type": "uint256"
        }
      ],
      "name": "execute",
      "outputs": [],
      "stateMutability": "nonpayable",
      "type": "function"
    },
    {
      "inputs": [],
      "name": "factory",
      "outputs": [
        {
          "internalType": "contract SmartWalletFactory",
          "name": "",
          "type": "address"
        }
      ],
      "stateMutability": "view",
      "type": "function"
    },
    {
      "inputs": [
        {
          "internalType": "uint256",
          "name": "id",
          "type": "uint256"
        }
      ],
      "name": "getLimitOrder",
      "outputs": [
        {
          "components": [
            {
              "internalType": "address",
              "name": "asset",
              "type": "address"
            },
            {
              "internalType": "address",
              "name": "trader",
              "type": "address"
            },
            {
              "internalType": "enum LimitOrderBook.OrderType",
              "name": "orderType",
              "type": "uint8"
            },
            {
              "internalType": "bool",
              "name": "reduceOnly",
              "type": "bool"
            },
            {
              "internalType": "bool",
              "name": "stillValid",
              "type": "bool"
            },
            {
              "internalType": "uint256",
              "name": "expiry",
              "type": "uint256"
            },
            {
              "components": [
                {
                  "internalType": "uint256",
                  "name": "d",
                  "type": "uint256"
                }
              ],
              "internalType": "struct Decimal.decimal",
              "name": "limitPrice",
              "type": "tuple"
            },
            {
              "components": [
                {
                  "internalType": "uint256",
                  "name": "d",
                  "type": "uint256"
                }
              ],
              "internalType": "struct Decimal.decimal",
              "name": "stopPrice",
              "type": "tuple"
            },
            {
              "components": [
                {
                  "internalType": "int256",
                  "name": "d",
                  "type": "int256"
                }
              ],
              "internalType": "struct SignedDecimal.signedDecimal",
              "name": "orderSize",
              "type": "tuple"
            },
            {
              "components": [
                {
                  "internalType": "uint256",
                  "name": "d",
                  "type": "uint256"
                }
              ],
              "internalType": "struct Decimal.decimal",
              "name": "collateral",
              "type": "tuple"
            },
            {
              "components": [
                {
                  "internalType": "uint256",
                  "name": "d",
                  "type": "uint256"
                }
              ],
              "internalType": "struct Decimal.decimal",
              "name": "leverage",
              "type": "tuple"
            },
            {
              "components": [
                {
                  "internalType": "uint256",
                  "name": "d",
                  "type": "uint256"
                }
              ],
              "internalType": "struct Decimal.decimal",
              "name": "slippage",
              "type": "tuple"
            },
            {
              "components": [
                {
                  "internalType": "uint256",
                  "name": "d",
                  "type": "uint256"
                }
              ],
              "internalType": "struct Decimal.decimal",
              "name": "tipFee",
              "type": "tuple"
            }
          ],
          "internalType": "struct LimitOrderBook.LimitOrder",
          "name": "",
          "type": "tuple"
        }
      ],
      "stateMutability": "view",
      "type": "function"
    },
    {
      "inputs": [
        {
          "internalType": "uint256",
          "name": "id",
          "type": "uint256"
        }
      ],
      "name": "getLimitOrderParams",
      "outputs": [
        {
          "internalType": "address",
          "name": "",
          "type": "address"
        },
        {
          "internalType": "address",
          "name": "",
          "type": "address"
        },
        {
          "internalType": "enum LimitOrderBook.OrderType",
          "name": "",
          "type": "uint8"
        },
        {
          "internalType": "bool",
          "name": "",
          "type": "bool"
        },
        {
          "internalType": "bool",
          "name": "",
          "type": "bool"
        },
        {
          "internalType": "uint256",
          "name": "",
          "type": "uint256"
        }
      ],
      "stateMutability": "view",
      "type": "function"
    },
    {
      "inputs": [
        {
          "internalType": "uint256",
          "name": "id",
          "type": "uint256"
        }
      ],
      "name": "getLimitOrderPrices",
      "outputs": [
        {
          "components": [
            {
              "internalType": "uint256",
              "name": "d",
              "type": "uint256"
            }
          ],
          "internalType": "struct Decimal.decimal",
          "name": "",
          "type": "tuple"
        },
        {
          "components": [
            {
              "internalType": "uint256",
              "name": "d",
              "type": "uint256"
            }
          ],
          "internalType": "struct Decimal.decimal",
          "name": "",
          "type": "tuple"
        },
        {
          "components": [
            {
              "internalType": "int256",
              "name": "d",
              "type": "int256"
            }
          ],
          "internalType": "struct SignedDecimal.signedDecimal",
          "name": "",
          "type": "tuple"
        },
        {
          "components": [
            {
              "internalType": "uint256",
              "name": "d",
              "type": "uint256"
            }
          ],
          "internalType": "struct Decimal.decimal",
          "name": "",
          "type": "tuple"
        },
        {
          "components": [
            {
              "internalType": "uint256",
              "name": "d",
              "type": "uint256"
            }
          ],
          "internalType": "struct Decimal.decimal",
          "name": "",
          "type": "tuple"
        },
        {
          "components": [
            {
              "internalType": "uint256",
              "name": "d",
              "type": "uint256"
            }
          ],
          "internalType": "struct Decimal.decimal",
          "name": "",
          "type": "tuple"
        },
        {
          "components": [
            {
              "internalType": "uint256",
              "name": "d",
              "type": "uint256"
            }
          ],
          "internalType": "struct Decimal.decimal",
          "name": "",
          "type": "tuple"
        }
      ],
      "stateMutability": "view",
      "type": "function"
    },
    {
      "inputs": [
        {
          "internalType": "uint256",
          "name": "",
          "type": "uint256"
        }
      ],
      "name": "orders",
      "outputs": [
        {
          "internalType": "address",
          "name": "asset",
          "type": "address"
        },
        {
          "internalType": "address",
          "name": "trader",
          "type": "address"
        },
        {
          "internalType": "enum LimitOrderBook.OrderType",
          "name": "orderType",
          "type": "uint8"
        },
        {
          "internalType": "bool",
          "name": "reduceOnly",
          "type": "bool"
        },
        {
          "internalType": "bool",
          "name": "stillValid",
          "type": "bool"
        },
        {
          "internalType": "uint256",
          "name": "expiry",
          "type": "uint256"
        },
        {
          "components": [
            {
              "internalType": "uint256",
              "name": "d",
              "type": "uint256"
            }
          ],
          "internalType": "struct Decimal.decimal",
          "name": "limitPrice",
          "type": "tuple"
        },
        {
          "components": [
            {
              "internalType": "uint256",
              "name": "d",
              "type": "uint256"
            }
          ],
          "internalType": "struct Decimal.decimal",
          "name": "stopPrice",
          "type": "tuple"
        },
        {
          "components": [
            {
              "internalType": "int256",
              "name": "d",
              "type": "int256"
            }
          ],
          "internalType": "struct SignedDecimal.signedDecimal",
          "name": "orderSize",
          "type": "tuple"
        },
        {
          "components": [
            {
              "internalType": "uint256",
              "name": "d",
              "type": "uint256"
            }
          ],
          "internalType": "struct Decimal.decimal",
          "name": "collateral",
          "type": "tuple"
        },
        {
          "components": [
            {
              "internalType": "uint256",
              "name": "d",
              "type": "uint256"
            }
          ],
          "internalType": "struct Decimal.decimal",
          "name": "leverage",
          "type": "tuple"
        },
        {
          "components": [
            {
              "internalType": "uint256",
              "name": "d",
              "type": "uint256"
            }
          ],
          "internalType": "struct Decimal.decimal",
          "name": "slippage",
          "type": "tuple"
        },
        {
          "components": [
            {
              "internalType": "uint256",
              "name": "d",
              "type": "uint256"
            }
          ],
          "internalType": "struct Decimal.decimal",
          "name": "tipFee",
          "type": "tuple"
        }
      ],
      "stateMutability": "view",
      "type": "function"
    },
    {
      "inputs": [],
      "name": "owner",
      "outputs": [
        {
          "internalType": "address",
          "name": "",
          "type": "address"
        }
      ],
      "stateMutability": "view",
      "type": "function"
    },
    {
      "inputs": [],
      "name": "renounceOwnership",
      "outputs": [],
      "stateMutability": "nonpayable",
      "type": "function"
    },
    {
      "inputs": [
        {
          "internalType": "address",
          "name": "_addr",
          "type": "address"
        }
      ],
      "name": "setFactory",
      "outputs": [],
      "stateMutability": "nonpayable",
      "type": "function"
    },
    {
      "inputs": [
        {
          "internalType": "address",
          "name": "newOwner",
          "type": "address"
        }
      ],
      "name": "transferOwnership",
      "outputs": [],
      "stateMutability": "nonpayable",
      "type": "function"
    }
  ],
  "bytecode": "0x608060405234801561001057600080fd5b5060006100246001600160e01b0361007316565b600080546001600160a01b0319166001600160a01b0383169081178255604051929350917f8be0079c531659141344cd1fd0a4f28419497f9722a3daafe3b4186f6b6457e0908290a350610077565b3390565b611e0b806100866000396000f3fe608060405234801561001057600080fd5b50600436106100c95760003560e01c80638da5cb5b11610081578063e36a2dc01161005b578063e36a2dc014610195578063f2fde38b146101bb578063fe0d94c1146101ce576100c9565b80638da5cb5b1461014c578063a85c38ef14610161578063c45a01551461018d576100c9565b806353061026116100b257806353061026146101115780635bb4780814610131578063715018a614610144576100c9565b80632736f620146100ce5780634c5789e3146100e3575b600080fd5b6100e16100dc36600461160c565b6101e1565b005b6100f66100f1366004611709565b61043f565b6040516101089695949392919061178f565b60405180910390f35b61012461011f366004611709565b6105e7565b6040516101089190611c26565b6100e161013f3660046115d4565b61074d565b6100e16107bb565b610154610851565b604051610108919061177b565b61017461016f366004611709565b610860565b6040516101089d9c9b9a999897969594939291906117d1565b61015461092e565b6101a86101a3366004611709565b61093d565b6040516101089796959493929190611d25565b6100e16101c93660046115d4565b610b29565b6100e16101dc366004611709565b610bf6565b8015806101ed57508042105b6102125760405162461bcd60e51b8152600401610209906119a1565b60405180910390fd5b604080516101a0810182526001600160a01b038b16815233602082015260349181016001815260200184151581526020016001151581526020018381526020018a8152602001610260610e7d565b815260208082018b905260408083018b9052606083018a90526080830189905260a09092018790528354600180820186556000958652948290208451600a90920201805473ffffffffffffffffffffffffffffffffffffffff199081166001600160a01b03938416178255928501519581018054909316959091169490941780825591830151929392917fffffffffffffffffffffff00ffffffffffffffffffffffffffffffffffffffff16600160a01b83600381111561031d57fe5b0217905550606082015160018201805460808501511515600160b01b027fffffffffffffffffff00ffffffffffffffffffffffffffffffffffffffffffff931515600160a81b027fffffffffffffffffffff00ffffffffffffffffffffffffffffffffffffffffff909216919091179290921691909117905560a0820151600282015560c082015151600382015560e0820151516004820155610100820151516005820155610120820151516006820155610140820151516007820155610160820151516008820155610180909101515160099091015560345460405133917fcb0c37c16aa3b0bbb7a817932094d8a20a00996d426a813f067039f0ef87ab079161042c916000190190611d56565b60405180910390a2505050505050505050565b60008060008060008086603480549050811061046d5760405162461bcd60e51b815260040161020990611b00565b61047561150b565b6034898154811061048257fe5b6000918252602091829020604080516101a081018252600a90930290910180546001600160a01b03908116845260018201549081169484019490945291929083019060ff600160a01b9091041660038111156104da57fe5b60038111156104e557fe5b8152600182015460ff600160a81b820481161515602080850191909152600160b01b90920416151560408084019190915260028401546060808501919091528151808401835260038601548152608080860191909152825180850184526004870154815260a080870191909152835180860185526005880154815260c0870152835180860185526006880154815260e087015283518086018552600788015481526101008701528351808601855260088801548152610120870152835180860185526009909701548752610140909501959095528551928601519186015190860151948601519590930151919e909d50919b5091995091975095509350505050565b6105ef61150b565b603454829081106106125760405162461bcd60e51b815260040161020990611b00565b6034838154811061061f57fe5b6000918252602091829020604080516101a081018252600a90930290910180546001600160a01b03908116845260018201549081169484019490945291929083019060ff600160a01b90910416600381111561067757fe5b600381111561068257fe5b8152600182015460ff600160a81b820481161515602080850191909152600160b01b9092041615156040808401919091526002840154606084015280518083018252600385015481526080840152805180830182526004850154815260a0840152805180830182526005850154815260c0840152805180830182526006850154815260e0840152805180830182526007850154815261010084015280518083018252600885015481526101208401528051918201905260099092015482526101400152915050919050565b610755610e98565b6001600160a01b0316610766610851565b6001600160a01b03161461078c5760405162461bcd60e51b815260040161020990611b94565b6035805473ffffffffffffffffffffffffffffffffffffffff19166001600160a01b0392909216919091179055565b6107c3610e98565b6001600160a01b03166107d4610851565b6001600160a01b0316146107fa5760405162461bcd60e51b815260040161020990611b94565b600080546040516001600160a01b03909116907f8be0079c531659141344cd1fd0a4f28419497f9722a3daafe3b4186f6b6457e0908390a36000805473ffffffffffffffffffffffffffffffffffffffff19169055565b6000546001600160a01b031690565b6034818154811061086d57fe5b6000918252602091829020600a9091020180546001820154600283015460408051808701825260038601548152815180880183526004870154815282518089018452600588015481528351808a018552600689015481528451808b01865260078a015481528551808c01875260088b0154815286519b8c019096526009909901548a526001600160a01b039788169a509686169860ff600160a01b8804811699600160a81b8904821699600160b01b9099049091169794959394929390918d565b6035546001600160a01b031681565b61094561159c565b61094d61159c565b61095561159c565b61095d61159c565b61096561159c565b61096d61159c565b61097561159c565b603454889081106109985760405162461bcd60e51b815260040161020990611b00565b6109a061150b565b60348a815481106109ad57fe5b6000918252602091829020604080516101a081018252600a90930290910180546001600160a01b03908116845260018201549081169484019490945291929083019060ff600160a01b909104166003811115610a0557fe5b6003811115610a1057fe5b8152600182015460ff600160a81b820481161515602080850191909152600160b01b9092041615156040808401919091526002840154606084015280518083018252600385015481526080840152805180830182526004850154815260a0840152805180830182526005850154815260c080850191909152815180840183526006860154815260e08086019190915282518085018452600787015481526101008087019190915283518086018552600888015481526101208088019190915284519586019094526009909601548452610140948501939093528501519185015193850151908501519285015161016086015161018090960151929e50939c509a5090985090965090945092505050919395979092949650565b610b31610e98565b6001600160a01b0316610b42610851565b6001600160a01b031614610b685760405162461bcd60e51b815260040161020990611b94565b6001600160a01b038116610b8e5760405162461bcd60e51b8152600401610209906118d6565b600080546040516001600160a01b03808516939216917f8be0079c531659141344cd1fd0a4f28419497f9722a3daafe3b4186f6b6457e091a36000805473ffffffffffffffffffffffffffffffffffffffff19166001600160a01b0392909216919091179055565b60345481908110610c195760405162461bcd60e51b815260040161020990611b00565b60348281548110610c2657fe5b90600052602060002090600a020160010160169054906101000a900460ff16610c615760405162461bcd60e51b815260040161020990611933565b603554603480546000926001600160a01b03169163a0b738819186908110610c8557fe5b600091825260209091206001600a9092020101546040517fffffffff0000000000000000000000000000000000000000000000000000000060e084901b168152610cdb916001600160a01b03169060040161177b565b60206040518083038186803b158015610cf357600080fd5b505afa158015610d07573d6000803e3d6000fd5b505050506040513d601f19601f82011682018060405250810190610d2b91906115f0565b90506000816001600160a01b03166394f61134856040518263ffffffff1660e01b8152600401610d5b9190611d56565b602060405180830381600087803b158015610d7557600080fd5b505af1158015610d89573d6000803e3d6000fd5b505050506040513d601f19601f82011682018060405250810190610dad91906116ed565b90508015610e7757610df36040518060400160405280601481526020017f2d5375636365737366756c6c792063616c6c6564000000000000000000000000815250610e9c565b610e3f73ddafbb505ad214d7b80b1f830fccc89b60fb7a83833360348881548110610e1a57fe5b60009182526020918290206040805193840190526009600a9092020101548152610f10565b600060348581548110610e4e57fe5b90600052602060002090600a020160010160166101000a81548160ff0219169083151502179055505b50505050565b610e8561159c565b5060408051602081019091526000815290565b3390565b610f0d81604051602401610eb091906118a3565b60408051601f198184030181529190526020810180517bffffffffffffffffffffffffffffffffffffffffffffffffffffffff167f41304fac0000000000000000000000000000000000000000000000000000000017905261106f565b50565b610f1984611090565b610f2161159c565b610f2b85846110dd565b90506000610f398684611173565b905060006060876001600160a01b03166323b872dd60e01b888886604051602401610f669392919061187f565b60408051601f198184030181529181526020820180517bffffffffffffffffffffffffffffffffffffffffffffffffffffffff167fffffffff00000000000000000000000000000000000000000000000000000000909416939093179092529051610fd1919061175f565b6000604051808303816000865af19150503d806000811461100e576040519150601f19603f3d011682016040523d82523d6000602084013e611013565b606091505b509150915081801561103d57508051158061103d57508080602001905181019061103d91906116ed565b6110595760405162461bcd60e51b815260040161020990611aa3565b611065888785876111f1565b5050505050505050565b80516a636f6e736f6c652e6c6f67602083016000808483855afa5050505050565b600061109b82611244565b6001600160a01b03831660009081526001602052604090205490915081146110d9576001600160a01b03821660009081526001602052604090208190555b5050565b6110e561159c565b61116a83846001600160a01b03166370a08231856040518263ffffffff1660e01b8152600401611115919061177b565b60206040518083038186803b15801561112d57600080fd5b505afa158015611141573d6000803e3d6000fd5b505050506040513d601f19601f820116820180604052508101906111659190611721565b61135f565b90505b92915050565b60008061117f84611244565b9050601281106111bd576111b561119d82601263ffffffff6113f116565b600a0a6111a985611419565b9063ffffffff61141d16565b91505061116d565b6111e96111d160128363ffffffff6113f116565b600a0a6111dd85611419565b9063ffffffff61145716565b949350505050565b61122461120e611201868561135f565b839063ffffffff61148916565b61121886866110dd565b9063ffffffff6114b516565b60000b15610e775760405162461bcd60e51b815260040161020990611bc9565b6001600160a01b0381166000908152600160205260408120548061116d5760408051600481526024810182526020810180517bffffffffffffffffffffffffffffffffffffffffffffffffffffffff167f313ce5670000000000000000000000000000000000000000000000000000000017905290516000916060916001600160a01b038716916112d49161175f565b600060405180830381855afa9150503d806000811461130f576040519150601f19603f3d011682016040523d82523d6000602084013e611314565b606091505b50915091508180156113265750805115155b6113425760405162461bcd60e51b815260040161020990611a46565b808060200190518101906113569190611721565b95945050505050565b61136761159c565b600061137284611244565b9050601281106113b7576040805160208101909152806113ac61139c84601263ffffffff6113f116565b8690600a0a63ffffffff61145716565b81525091505061116d565b6040805160208101909152806113e76113d760128563ffffffff6113f116565b8690600a0a63ffffffff61141d16565b9052949350505050565b6000828211156114135760405162461bcd60e51b8152600401610209906119d8565b50900390565b5190565b60008261142c5750600061116d565b8282028284828161143957fe5b041461116a5760405162461bcd60e51b815260040161020990611b37565b60008082116114785760405162461bcd60e51b815260040161020990611a0f565b81838161148157fe5b049392505050565b61149161159c565b61149961159c565b825184516114ac9163ffffffff6114e616565b81529392505050565b8051825160009110156114ca5750600161116d565b8151835110156114dd575060001961116d565b50600092915050565b60008282018381101561116a5760405162461bcd60e51b81526004016102099061196a565b604080516101a0810182526000808252602082018190529091820190815260006020820181905260408201819052606082015260800161154961159c565b815260200161155661159c565b815260200161156361159c565b815260200161157061159c565b815260200161157d61159c565b815260200161158a61159c565b815260200161159761159c565b905290565b6040518060200160405280600081525090565b6000602082840312156115c0578081fd5b6115ca6020611d5f565b9135825250919050565b6000602082840312156115e5578081fd5b813561116a81611db2565b600060208284031215611601578081fd5b815161116a81611db2565b6000806000806000806000806000898b0361012081121561162b578586fd5b8a3561163681611db2565b99506116458c60208d016115af565b985060207fffffffffffffffffffffffffffffffffffffffffffffffffffffffffffffffc082011215611676578586fd5b506116816020611d5f565b60408b0135815296506116978b60608c016115af565b95506116a68b60808c016115af565b94506116b58b60a08c016115af565b93506116c48b60c08c016115af565b925060e08a01356116d481611dc7565b809250506101008a013590509295985092959850929598565b6000602082840312156116fe578081fd5b815161116a81611dc7565b60006020828403121561171a578081fd5b5035919050565b600060208284031215611732578081fd5b5051919050565b6001600160a01b03169052565b15159052565b6004811061175657fe5b9052565b519052565b60008251611771818460208701611d86565b9190910192915050565b6001600160a01b0391909116815260200190565b6001600160a01b0387811682528616602082015260c081016117b4604083018761174c565b9315156060820152911515608083015260a0909101529392505050565b6001600160a01b038e811682528d1660208201526101a081016117f7604083018e61174c565b8b151560608301528a151560808301528960a083015261181a60c083018a61175a565b61182760e083018961175a565b61183561010083018861175a565b61184361012083018761175a565b61185161014083018661175a565b61185f61016083018561175a565b61186d61018083018461175a565b9e9d5050505050505050505050505050565b6001600160a01b039384168152919092166020820152604081019190915260600190565b60006020825282518060208401526118c2816040850160208701611d86565b601f01601f19169190910160400192915050565b60208082526026908201527f4f776e61626c653a206e6577206f776e657220697320746865207a65726f206160408201527f6464726573730000000000000000000000000000000000000000000000000000606082015260800190565b6020808252600f908201527f4e6f206c6f6e6765722076616c69640000000000000000000000000000000000604082015260600190565b6020808252601b908201527f536166654d6174683a206164646974696f6e206f766572666c6f770000000000604082015260600190565b60208082526019908201527f4576656e742077696c6c2065787069726520696e207061737400000000000000604082015260600190565b6020808252601e908201527f536166654d6174683a207375627472616374696f6e206f766572666c6f770000604082015260600190565b6020808252601a908201527f536166654d6174683a206469766973696f6e206279207a65726f000000000000604082015260600190565b60208082526021908201527f446563696d616c45524332303a2067657420646563696d616c73206661696c6560408201527f6400000000000000000000000000000000000000000000000000000000000000606082015260800190565b60208082526021908201527f446563696d616c45524332303a207472616e7366657246726f6d206661696c6560408201527f6400000000000000000000000000000000000000000000000000000000000000606082015260800190565b6020808252600a908201527f496e76616c696420494400000000000000000000000000000000000000000000604082015260600190565b60208082526021908201527f536166654d6174683a206d756c7469706c69636174696f6e206f766572666c6f60408201527f7700000000000000000000000000000000000000000000000000000000000000606082015260800190565b6020808252818101527f4f776e61626c653a2063616c6c6572206973206e6f7420746865206f776e6572604082015260600190565b60208082526022908201527f446563696d616c45524332303a2062616c616e636520696e636f6e736973746560408201527f6e74000000000000000000000000000000000000000000000000000000000000606082015260800190565b60006101a082019050611c3a828451611739565b6020830151611c4c6020840182611739565b506040830151611c5f604084018261174c565b506060830151611c726060840182611746565b506080830151611c856080840182611746565b5060a083015160a083015260c0830151611ca260c084018261175a565b5060e0830151611cb560e084018261175a565b5061010080840151611cc98285018261175a565b505061012080840151611cde8285018261175a565b505061014080840151611cf38285018261175a565b505061016080840151611d088285018261175a565b505061018080840151611d1d8285018261175a565b505092915050565b965187529451602087015292516040860152905160608501525160808401525160a08301525160c082015260e00190565b90815260200190565b60405181810167ffffffffffffffff81118282101715611d7e57600080fd5b604052919050565b60005b83811015611da1578181015183820152602001611d89565b83811115610e775750506000910152565b6001600160a01b0381168114610f0d57600080fd5b8015158114610f0d57600080fdfea2646970667358221220cabeb3af780b8b1bef1a8494ab36d28c7bcfcfbe12de46fbdba01f3d3ad1aacf64736f6c63430006090033",
  "linkReferences": {},
  "deployedLinkReferences": {}
}