{
  "_format": "hh-sol-artifact-1",
  "contractName": "LimitOrderBook",
  "sourceName": "contracts/LimitOrderBook.sol",
  "abi": [
    {
      "inputs": [],
      "stateMutability": "nonpayable",
      "type": "constructor"
    },
    {
      "anonymous": false,
      "inputs": [
        {
          "indexed": true,
          "internalType": "address",
          "name": "trader",
          "type": "address"
        },
        {
          "indexed": false,
          "internalType": "int256",
          "name": "limit",
          "type": "int256"
        },
        {
          "indexed": false,
          "internalType": "int256",
          "name": "size",
          "type": "int256"
        },
        {
          "indexed": false,
          "internalType": "int256",
          "name": "expiry",
          "type": "int256"
        },
        {
          "indexed": false,
          "internalType": "int256",
          "name": "leverage",
          "type": "int256"
        },
        {
          "indexed": false,
          "internalType": "address",
          "name": "asset",
          "type": "address"
        }
      ],
      "name": "OrderCreated",
      "type": "event"
    },
    {
      "anonymous": false,
      "inputs": [
        {
          "indexed": true,
          "internalType": "address",
          "name": "previousOwner",
          "type": "address"
        },
        {
          "indexed": true,
          "internalType": "address",
          "name": "newOwner",
          "type": "address"
        }
      ],
      "name": "OwnershipTransferred",
      "type": "event"
    },
    {
      "inputs": [
        {
          "internalType": "int256",
          "name": "_limit",
          "type": "int256"
        },
        {
          "internalType": "int256",
          "name": "_size",
          "type": "int256"
        },
        {
          "internalType": "int256",
          "name": "_expiry",
          "type": "int256"
        },
        {
          "internalType": "int256",
          "name": "_leverage",
          "type": "int256"
        },
        {
          "internalType": "address",
          "name": "_asset",
          "type": "address"
        }
      ],
      "name": "addLimitOrder",
      "outputs": [],
      "stateMutability": "nonpayable",
      "type": "function"
    },
    {
      "inputs": [
        {
          "internalType": "uint256",
          "name": "id",
          "type": "uint256"
        }
      ],
      "name": "execute",
      "outputs": [],
      "stateMutability": "nonpayable",
      "type": "function"
    },
    {
      "inputs": [],
      "name": "factory",
      "outputs": [
        {
          "internalType": "contract SmartWalletFactory",
          "name": "",
          "type": "address"
        }
      ],
      "stateMutability": "view",
      "type": "function"
    },
    {
      "inputs": [
        {
          "internalType": "uint256",
          "name": "id",
          "type": "uint256"
        }
      ],
      "name": "getLimitOrder",
      "outputs": [
        {
          "internalType": "int256",
          "name": "",
          "type": "int256"
        },
        {
          "internalType": "int256",
          "name": "",
          "type": "int256"
        },
        {
          "internalType": "int256",
          "name": "",
          "type": "int256"
        },
        {
          "internalType": "int256",
          "name": "",
          "type": "int256"
        },
        {
          "internalType": "bool",
          "name": "",
          "type": "bool"
        },
        {
          "internalType": "address",
          "name": "",
          "type": "address"
        },
        {
          "internalType": "address",
          "name": "",
          "type": "address"
        }
      ],
      "stateMutability": "view",
      "type": "function"
    },
    {
      "inputs": [
        {
          "internalType": "uint256",
          "name": "",
          "type": "uint256"
        }
      ],
      "name": "orders",
      "outputs": [
        {
          "internalType": "enum LimitOrderBook.OrderType",
          "name": "Type",
          "type": "uint8"
        },
        {
          "internalType": "int256",
          "name": "LimitPrice",
          "type": "int256"
        },
        {
          "internalType": "int256",
          "name": "PositionSize",
          "type": "int256"
        },
        {
          "internalType": "int256",
          "name": "Expiry",
          "type": "int256"
        },
        {
          "internalType": "int256",
          "name": "Leverage",
          "type": "int256"
        },
        {
          "internalType": "bool",
          "name": "StillValid",
          "type": "bool"
        },
        {
          "internalType": "address",
          "name": "Asset",
          "type": "address"
        },
        {
          "internalType": "address",
          "name": "Trader",
          "type": "address"
        }
      ],
      "stateMutability": "view",
      "type": "function"
    },
    {
      "inputs": [],
      "name": "owner",
      "outputs": [
        {
          "internalType": "address",
          "name": "",
          "type": "address"
        }
      ],
      "stateMutability": "view",
      "type": "function"
    },
    {
      "inputs": [],
      "name": "renounceOwnership",
      "outputs": [],
      "stateMutability": "nonpayable",
      "type": "function"
    },
    {
      "inputs": [
        {
          "internalType": "address",
          "name": "_addr",
          "type": "address"
        }
      ],
      "name": "setFactory",
      "outputs": [],
      "stateMutability": "nonpayable",
      "type": "function"
    },
    {
      "inputs": [
        {
          "internalType": "address",
          "name": "newOwner",
          "type": "address"
        }
      ],
      "name": "transferOwnership",
      "outputs": [],
      "stateMutability": "nonpayable",
      "type": "function"
    }
  ],
  "bytecode": "0x608060405234801561001057600080fd5b5060006100216100c460201b60201c565b9050806000806101000a81548173ffffffffffffffffffffffffffffffffffffffff021916908373ffffffffffffffffffffffffffffffffffffffff1602179055508073ffffffffffffffffffffffffffffffffffffffff16600073ffffffffffffffffffffffffffffffffffffffff167f8be0079c531659141344cd1fd0a4f28419497f9722a3daafe3b4186f6b6457e060405160405180910390a3506100cc565b600033905090565b6115ac806100db6000396000f3fe608060405234801561001057600080fd5b50600436106100935760003560e01c80638da5cb5b116100665780638da5cb5b1461021a578063a85c38ef14610264578063c45a015514610341578063f2fde38b1461038b578063fe0d94c1146103cf57610093565b806353061026146100985780635bb47808146101605780636490801f146101a4578063715018a614610210575b600080fd5b6100c4600480360360208110156100ae57600080fd5b81019080803590602001909291905050506103fd565b60405180888152602001878152602001868152602001858152602001841515151581526020018373ffffffffffffffffffffffffffffffffffffffff1673ffffffffffffffffffffffffffffffffffffffff1681526020018273ffffffffffffffffffffffffffffffffffffffff1673ffffffffffffffffffffffffffffffffffffffff16815260200197505050505050505060405180910390f35b6101a26004803603602081101561017657600080fd5b81019080803573ffffffffffffffffffffffffffffffffffffffff16906020019092919050505061060e565b005b61020e600480360360a08110156101ba57600080fd5b8101908080359060200190929190803590602001909291908035906020019092919080359060200190929190803573ffffffffffffffffffffffffffffffffffffffff169060200190929190505050610701565b005b610218610943565b005b610222610ab1565b604051808273ffffffffffffffffffffffffffffffffffffffff1673ffffffffffffffffffffffffffffffffffffffff16815260200191505060405180910390f35b6102906004803603602081101561027a57600080fd5b8101908080359060200190929190505050610ada565b604051808960038111156102a057fe5b60ff168152602001888152602001878152602001868152602001858152602001841515151581526020018373ffffffffffffffffffffffffffffffffffffffff1673ffffffffffffffffffffffffffffffffffffffff1681526020018273ffffffffffffffffffffffffffffffffffffffff1673ffffffffffffffffffffffffffffffffffffffff1681526020019850505050505050505060405180910390f35b610349610b89565b604051808273ffffffffffffffffffffffffffffffffffffffff1673ffffffffffffffffffffffffffffffffffffffff16815260200191505060405180910390f35b6103cd600480360360208110156103a157600080fd5b81019080803573ffffffffffffffffffffffffffffffffffffffff169060200190929190505050610baf565b005b6103fb600480360360208110156103e557600080fd5b8101908080359060200190929190505050610da2565b005b6000806000806000806000876001805490508110610483576040517f08c379a000000000000000000000000000000000000000000000000000000000815260040180806020018281038252600a8152602001807f496e76616c69642049440000000000000000000000000000000000000000000081525060200191505060405180910390fd5b61048b6114d2565b60018a8154811061049857fe5b9060005260206000209060070201604051806101000160405290816000820160009054906101000a900460ff1660038111156104d057fe5b60038111156104db57fe5b8152602001600182015481526020016002820154815260200160038201548152602001600482015481526020016005820160009054906101000a900460ff161515151581526020016005820160019054906101000a900473ffffffffffffffffffffffffffffffffffffffff1673ffffffffffffffffffffffffffffffffffffffff1673ffffffffffffffffffffffffffffffffffffffff1681526020016006820160009054906101000a900473ffffffffffffffffffffffffffffffffffffffff1673ffffffffffffffffffffffffffffffffffffffff1673ffffffffffffffffffffffffffffffffffffffff1681525050905080602001518160400151826060015183608001518460a001518560c001518660e0015198509850985098509850985098505050919395979092949650565b610616611169565b73ffffffffffffffffffffffffffffffffffffffff16610634610ab1565b73ffffffffffffffffffffffffffffffffffffffff16146106bd576040517f08c379a00000000000000000000000000000000000000000000000000000000081526004018080602001828103825260208152602001807f4f776e61626c653a2063616c6c6572206973206e6f7420746865206f776e657281525060200191505060405180910390fd5b80600260006101000a81548173ffffffffffffffffffffffffffffffffffffffff021916908373ffffffffffffffffffffffffffffffffffffffff16021790555050565b60016040518061010001604052806000600381111561071c57fe5b81526020018781526020018681526020018581526020018481526020016001151581526020018373ffffffffffffffffffffffffffffffffffffffff1681526020013373ffffffffffffffffffffffffffffffffffffffff16815250908060018154018082558091505060019003906000526020600020906007020160009091909190915060008201518160000160006101000a81548160ff021916908360038111156107c557fe5b02179055506020820151816001015560408201518160020155606082015181600301556080820151816004015560a08201518160050160006101000a81548160ff02191690831515021790555060c08201518160050160016101000a81548173ffffffffffffffffffffffffffffffffffffffff021916908373ffffffffffffffffffffffffffffffffffffffff16021790555060e08201518160060160006101000a81548173ffffffffffffffffffffffffffffffffffffffff021916908373ffffffffffffffffffffffffffffffffffffffff16021790555050503373ffffffffffffffffffffffffffffffffffffffff167f3c854f7e068d2e79754470a7c7415a02dd528460d6ff0f71bc1aa924849fa14e8686868686604051808681526020018581526020018481526020018381526020018273ffffffffffffffffffffffffffffffffffffffff1673ffffffffffffffffffffffffffffffffffffffff1681526020019550505050505060405180910390a25050505050565b61094b611169565b73ffffffffffffffffffffffffffffffffffffffff16610969610ab1565b73ffffffffffffffffffffffffffffffffffffffff16146109f2576040517f08c379a00000000000000000000000000000000000000000000000000000000081526004018080602001828103825260208152602001807f4f776e61626c653a2063616c6c6572206973206e6f7420746865206f776e657281525060200191505060405180910390fd5b600073ffffffffffffffffffffffffffffffffffffffff166000809054906101000a900473ffffffffffffffffffffffffffffffffffffffff1673ffffffffffffffffffffffffffffffffffffffff167f8be0079c531659141344cd1fd0a4f28419497f9722a3daafe3b4186f6b6457e060405160405180910390a360008060006101000a81548173ffffffffffffffffffffffffffffffffffffffff021916908373ffffffffffffffffffffffffffffffffffffffff160217905550565b60008060009054906101000a900473ffffffffffffffffffffffffffffffffffffffff16905090565b60018181548110610ae757fe5b90600052602060002090600702016000915090508060000160009054906101000a900460ff16908060010154908060020154908060030154908060040154908060050160009054906101000a900460ff16908060050160019054906101000a900473ffffffffffffffffffffffffffffffffffffffff16908060060160009054906101000a900473ffffffffffffffffffffffffffffffffffffffff16905088565b600260009054906101000a900473ffffffffffffffffffffffffffffffffffffffff1681565b610bb7611169565b73ffffffffffffffffffffffffffffffffffffffff16610bd5610ab1565b73ffffffffffffffffffffffffffffffffffffffff1614610c5e576040517f08c379a00000000000000000000000000000000000000000000000000000000081526004018080602001828103825260208152602001807f4f776e61626c653a2063616c6c6572206973206e6f7420746865206f776e657281525060200191505060405180910390fd5b600073ffffffffffffffffffffffffffffffffffffffff168173ffffffffffffffffffffffffffffffffffffffff161415610ce4576040517f08c379a00000000000000000000000000000000000000000000000000000000081526004018080602001828103825260268152602001806115516026913960400191505060405180910390fd5b8073ffffffffffffffffffffffffffffffffffffffff166000809054906101000a900473ffffffffffffffffffffffffffffffffffffffff1673ffffffffffffffffffffffffffffffffffffffff167f8be0079c531659141344cd1fd0a4f28419497f9722a3daafe3b4186f6b6457e060405160405180910390a3806000806101000a81548173ffffffffffffffffffffffffffffffffffffffff021916908373ffffffffffffffffffffffffffffffffffffffff16021790555050565b806001805490508110610e1d576040517f08c379a000000000000000000000000000000000000000000000000000000000815260040180806020018281038252600a8152602001807f496e76616c69642049440000000000000000000000000000000000000000000081525060200191505060405180910390fd5b60018281548110610e2a57fe5b906000526020600020906007020160050160009054906101000a900460ff16610ebb576040517f08c379a000000000000000000000000000000000000000000000000000000000815260040180806020018281038252600f8152602001807f4e6f206c6f6e6765722076616c6964000000000000000000000000000000000081525060200191505060405180910390fd5b610efa6040518060400160405280600d81526020017f4c4f423a2065786563757465200000000000000000000000000000000000000081525083611171565b6000600260009054906101000a900473ffffffffffffffffffffffffffffffffffffffff1673ffffffffffffffffffffffffffffffffffffffff1663a0b7388160018581548110610f4757fe5b906000526020600020906007020160060160009054906101000a900473ffffffffffffffffffffffffffffffffffffffff166040518263ffffffff1660e01b8152600401808273ffffffffffffffffffffffffffffffffffffffff1673ffffffffffffffffffffffffffffffffffffffff16815260200191505060206040518083038186803b158015610fd957600080fd5b505afa158015610fed573d6000803e3d6000fd5b505050506040513d602081101561100357600080fd5b810190808051906020019092919050505090506110556040518060400160405280600d81526020017f50726f787920616464726573730000000000000000000000000000000000000081525082611278565b60008173ffffffffffffffffffffffffffffffffffffffff166394f61134856040518263ffffffff1660e01b815260040180828152602001915050602060405180830381600087803b1580156110aa57600080fd5b505af11580156110be573d6000803e3d6000fd5b505050506040513d60208110156110d457600080fd5b8101908080519060200190929190505050905080156111635761112b6040518060400160405280601381526020017f5375636365737366756c6c792063616c6c6564000000000000000000000000008152506113ab565b60006001858154811061113a57fe5b906000526020600020906007020160050160006101000a81548160ff0219169083151502179055505b50505050565b600033905090565b61127482826040516024018080602001838152602001828103825284818151815260200191508051906020019080838360005b838110156111bf5780820151818401526020810190506111a4565b50505050905090810190601f1680156111ec5780820380516001836020036101000a031916815260200191505b5093505050506040516020818303038152906040527f9710a9d0000000000000000000000000000000000000000000000000000000007bffffffffffffffffffffffffffffffffffffffffffffffffffffffff19166020820180517bffffffffffffffffffffffffffffffffffffffffffffffffffffffff83818316178352505050506114a9565b5050565b6113a7828260405160240180806020018373ffffffffffffffffffffffffffffffffffffffff1673ffffffffffffffffffffffffffffffffffffffff168152602001828103825284818151815260200191508051906020019080838360005b838110156112f25780820151818401526020810190506112d7565b50505050905090810190601f16801561131f5780820380516001836020036101000a031916815260200191505b5093505050506040516020818303038152906040527f319af333000000000000000000000000000000000000000000000000000000007bffffffffffffffffffffffffffffffffffffffffffffffffffffffff19166020820180517bffffffffffffffffffffffffffffffffffffffffffffffffffffffff83818316178352505050506114a9565b5050565b6114a6816040516024018080602001828103825283818151815260200191508051906020019080838360005b838110156113f25780820151818401526020810190506113d7565b50505050905090810190601f16801561141f5780820380516001836020036101000a031916815260200191505b50925050506040516020818303038152906040527f41304fac000000000000000000000000000000000000000000000000000000007bffffffffffffffffffffffffffffffffffffffffffffffffffffffff19166020820180517bffffffffffffffffffffffffffffffffffffffffffffffffffffffff83818316178352505050506114a9565b50565b60008151905060006a636f6e736f6c652e6c6f679050602083016000808483855afa5050505050565b604051806101000160405280600060038111156114eb57fe5b815260200160008152602001600081526020016000815260200160008152602001600015158152602001600073ffffffffffffffffffffffffffffffffffffffff168152602001600073ffffffffffffffffffffffffffffffffffffffff168152509056fe4f776e61626c653a206e6577206f776e657220697320746865207a65726f2061646472657373a26469706673582212207993a743eb033f09bdb0c99dda241f484931467d95c832f1ef078f9f345b8f7064736f6c63430006090033",
  "linkReferences": {},
  "deployedLinkReferences": {}
}