{
  "_format": "hh-sol-artifact-1",
  "contractName": "LimitOrderBook",
  "sourceName": "contracts/LimitOrderBook.sol",
  "abi": [
    {
      "anonymous": false,
      "inputs": [
        {
          "indexed": true,
          "internalType": "address",
          "name": "trader",
          "type": "address"
        },
        {
          "indexed": false,
          "internalType": "uint256",
          "name": "order_id",
          "type": "uint256"
        }
      ],
      "name": "OrderChanged",
      "type": "event"
    },
    {
      "anonymous": false,
      "inputs": [
        {
          "indexed": true,
          "internalType": "address",
          "name": "trader",
          "type": "address"
        },
        {
          "indexed": false,
          "internalType": "uint256",
          "name": "order_id",
          "type": "uint256"
        }
      ],
      "name": "OrderCreated",
      "type": "event"
    },
    {
      "anonymous": false,
      "inputs": [
        {
          "indexed": true,
          "internalType": "address",
          "name": "trader",
          "type": "address"
        },
        {
          "indexed": false,
          "internalType": "uint256",
          "name": "order_id",
          "type": "uint256"
        }
      ],
      "name": "OrderFilled",
      "type": "event"
    },
    {
      "anonymous": false,
      "inputs": [
        {
          "indexed": true,
          "internalType": "address",
          "name": "previousOwner",
          "type": "address"
        },
        {
          "indexed": true,
          "internalType": "address",
          "name": "newOwner",
          "type": "address"
        }
      ],
      "name": "OwnershipTransferred",
      "type": "event"
    },
    {
      "anonymous": false,
      "inputs": [
        {
          "indexed": false,
          "internalType": "uint256",
          "name": "order_id",
          "type": "uint256"
        },
        {
          "indexed": false,
          "internalType": "uint256",
          "name": "snapshotIndex",
          "type": "uint256"
        }
      ],
      "name": "TrailingOrderCreated",
      "type": "event"
    },
    {
      "anonymous": false,
      "inputs": [
        {
          "indexed": false,
          "internalType": "uint256",
          "name": "order_id",
          "type": "uint256"
        }
      ],
      "name": "TrailingOrderFilled",
      "type": "event"
    },
    {
      "inputs": [
        {
          "internalType": "address",
          "name": "_asset",
          "type": "address"
        },
        {
          "components": [
            {
              "internalType": "uint256",
              "name": "d",
              "type": "uint256"
            }
          ],
          "internalType": "struct Decimal.decimal",
          "name": "_limitPrice",
          "type": "tuple"
        },
        {
          "components": [
            {
              "internalType": "int256",
              "name": "d",
              "type": "int256"
            }
          ],
          "internalType": "struct SignedDecimal.signedDecimal",
          "name": "_positionSize",
          "type": "tuple"
        },
        {
          "components": [
            {
              "internalType": "uint256",
              "name": "d",
              "type": "uint256"
            }
          ],
          "internalType": "struct Decimal.decimal",
          "name": "_collateral",
          "type": "tuple"
        },
        {
          "components": [
            {
              "internalType": "uint256",
              "name": "d",
              "type": "uint256"
            }
          ],
          "internalType": "struct Decimal.decimal",
          "name": "_leverage",
          "type": "tuple"
        },
        {
          "components": [
            {
              "internalType": "uint256",
              "name": "d",
              "type": "uint256"
            }
          ],
          "internalType": "struct Decimal.decimal",
          "name": "_slippage",
          "type": "tuple"
        },
        {
          "components": [
            {
              "internalType": "uint256",
              "name": "d",
              "type": "uint256"
            }
          ],
          "internalType": "struct Decimal.decimal",
          "name": "_tipFee",
          "type": "tuple"
        },
        {
          "internalType": "bool",
          "name": "_reduceOnly",
          "type": "bool"
        },
        {
          "internalType": "uint256",
          "name": "_expiry",
          "type": "uint256"
        }
      ],
      "name": "addLimitOrder",
      "outputs": [],
      "stateMutability": "nonpayable",
      "type": "function"
    },
    {
      "inputs": [
        {
          "internalType": "address",
          "name": "_asset",
          "type": "address"
        },
        {
          "components": [
            {
              "internalType": "uint256",
              "name": "d",
              "type": "uint256"
            }
          ],
          "internalType": "struct Decimal.decimal",
          "name": "_stopPrice",
          "type": "tuple"
        },
        {
          "components": [
            {
              "internalType": "uint256",
              "name": "d",
              "type": "uint256"
            }
          ],
          "internalType": "struct Decimal.decimal",
          "name": "_limitPrice",
          "type": "tuple"
        },
        {
          "components": [
            {
              "internalType": "int256",
              "name": "d",
              "type": "int256"
            }
          ],
          "internalType": "struct SignedDecimal.signedDecimal",
          "name": "_positionSize",
          "type": "tuple"
        },
        {
          "components": [
            {
              "internalType": "uint256",
              "name": "d",
              "type": "uint256"
            }
          ],
          "internalType": "struct Decimal.decimal",
          "name": "_collateral",
          "type": "tuple"
        },
        {
          "components": [
            {
              "internalType": "uint256",
              "name": "d",
              "type": "uint256"
            }
          ],
          "internalType": "struct Decimal.decimal",
          "name": "_leverage",
          "type": "tuple"
        },
        {
          "components": [
            {
              "internalType": "uint256",
              "name": "d",
              "type": "uint256"
            }
          ],
          "internalType": "struct Decimal.decimal",
          "name": "_slippage",
          "type": "tuple"
        },
        {
          "components": [
            {
              "internalType": "uint256",
              "name": "d",
              "type": "uint256"
            }
          ],
          "internalType": "struct Decimal.decimal",
          "name": "_tipFee",
          "type": "tuple"
        },
        {
          "internalType": "bool",
          "name": "_reduceOnly",
          "type": "bool"
        },
        {
          "internalType": "uint256",
          "name": "_expiry",
          "type": "uint256"
        }
      ],
      "name": "addStopLimitOrder",
      "outputs": [],
      "stateMutability": "nonpayable",
      "type": "function"
    },
    {
      "inputs": [
        {
          "internalType": "address",
          "name": "_asset",
          "type": "address"
        },
        {
          "components": [
            {
              "internalType": "uint256",
              "name": "d",
              "type": "uint256"
            }
          ],
          "internalType": "struct Decimal.decimal",
          "name": "_stopPrice",
          "type": "tuple"
        },
        {
          "components": [
            {
              "internalType": "int256",
              "name": "d",
              "type": "int256"
            }
          ],
          "internalType": "struct SignedDecimal.signedDecimal",
          "name": "_positionSize",
          "type": "tuple"
        },
        {
          "components": [
            {
              "internalType": "uint256",
              "name": "d",
              "type": "uint256"
            }
          ],
          "internalType": "struct Decimal.decimal",
          "name": "_collateral",
          "type": "tuple"
        },
        {
          "components": [
            {
              "internalType": "uint256",
              "name": "d",
              "type": "uint256"
            }
          ],
          "internalType": "struct Decimal.decimal",
          "name": "_leverage",
          "type": "tuple"
        },
        {
          "components": [
            {
              "internalType": "uint256",
              "name": "d",
              "type": "uint256"
            }
          ],
          "internalType": "struct Decimal.decimal",
          "name": "_slippage",
          "type": "tuple"
        },
        {
          "components": [
            {
              "internalType": "uint256",
              "name": "d",
              "type": "uint256"
            }
          ],
          "internalType": "struct Decimal.decimal",
          "name": "_tipFee",
          "type": "tuple"
        },
        {
          "internalType": "bool",
          "name": "_reduceOnly",
          "type": "bool"
        },
        {
          "internalType": "uint256",
          "name": "_expiry",
          "type": "uint256"
        }
      ],
      "name": "addStopOrder",
      "outputs": [],
      "stateMutability": "nonpayable",
      "type": "function"
    },
    {
      "inputs": [
        {
          "internalType": "address",
          "name": "_asset",
          "type": "address"
        },
        {
          "components": [
            {
              "internalType": "uint256",
              "name": "d",
              "type": "uint256"
            }
          ],
          "internalType": "struct Decimal.decimal",
          "name": "_trail",
          "type": "tuple"
        },
        {
          "components": [
            {
              "internalType": "uint256",
              "name": "d",
              "type": "uint256"
            }
          ],
          "internalType": "struct Decimal.decimal",
          "name": "_gap",
          "type": "tuple"
        },
        {
          "components": [
            {
              "internalType": "int256",
              "name": "d",
              "type": "int256"
            }
          ],
          "internalType": "struct SignedDecimal.signedDecimal",
          "name": "_positionSize",
          "type": "tuple"
        },
        {
          "components": [
            {
              "internalType": "uint256",
              "name": "d",
              "type": "uint256"
            }
          ],
          "internalType": "struct Decimal.decimal",
          "name": "_collateral",
          "type": "tuple"
        },
        {
          "components": [
            {
              "internalType": "uint256",
              "name": "d",
              "type": "uint256"
            }
          ],
          "internalType": "struct Decimal.decimal",
          "name": "_leverage",
          "type": "tuple"
        },
        {
          "components": [
            {
              "internalType": "uint256",
              "name": "d",
              "type": "uint256"
            }
          ],
          "internalType": "struct Decimal.decimal",
          "name": "_slippage",
          "type": "tuple"
        },
        {
          "components": [
            {
              "internalType": "uint256",
              "name": "d",
              "type": "uint256"
            }
          ],
          "internalType": "struct Decimal.decimal",
          "name": "_tipFee",
          "type": "tuple"
        },
        {
          "internalType": "bool",
          "name": "_reduceOnly",
          "type": "bool"
        },
        {
          "internalType": "uint256",
          "name": "_expiry",
          "type": "uint256"
        }
      ],
      "name": "addTrailingStopLimitOrderAbs",
      "outputs": [],
      "stateMutability": "nonpayable",
      "type": "function"
    },
    {
      "inputs": [
        {
          "internalType": "address",
          "name": "_asset",
          "type": "address"
        },
        {
          "components": [
            {
              "internalType": "uint256",
              "name": "d",
              "type": "uint256"
            }
          ],
          "internalType": "struct Decimal.decimal",
          "name": "_trailPct",
          "type": "tuple"
        },
        {
          "components": [
            {
              "internalType": "uint256",
              "name": "d",
              "type": "uint256"
            }
          ],
          "internalType": "struct Decimal.decimal",
          "name": "_gapPct",
          "type": "tuple"
        },
        {
          "components": [
            {
              "internalType": "int256",
              "name": "d",
              "type": "int256"
            }
          ],
          "internalType": "struct SignedDecimal.signedDecimal",
          "name": "_positionSize",
          "type": "tuple"
        },
        {
          "components": [
            {
              "internalType": "uint256",
              "name": "d",
              "type": "uint256"
            }
          ],
          "internalType": "struct Decimal.decimal",
          "name": "_collateral",
          "type": "tuple"
        },
        {
          "components": [
            {
              "internalType": "uint256",
              "name": "d",
              "type": "uint256"
            }
          ],
          "internalType": "struct Decimal.decimal",
          "name": "_leverage",
          "type": "tuple"
        },
        {
          "components": [
            {
              "internalType": "uint256",
              "name": "d",
              "type": "uint256"
            }
          ],
          "internalType": "struct Decimal.decimal",
          "name": "_slippage",
          "type": "tuple"
        },
        {
          "components": [
            {
              "internalType": "uint256",
              "name": "d",
              "type": "uint256"
            }
          ],
          "internalType": "struct Decimal.decimal",
          "name": "_tipFee",
          "type": "tuple"
        },
        {
          "internalType": "bool",
          "name": "_reduceOnly",
          "type": "bool"
        },
        {
          "internalType": "uint256",
          "name": "_expiry",
          "type": "uint256"
        }
      ],
      "name": "addTrailingStopLimitOrderPct",
      "outputs": [],
      "stateMutability": "nonpayable",
      "type": "function"
    },
    {
      "inputs": [
        {
          "internalType": "address",
          "name": "_asset",
          "type": "address"
        },
        {
          "components": [
            {
              "internalType": "uint256",
              "name": "d",
              "type": "uint256"
            }
          ],
          "internalType": "struct Decimal.decimal",
          "name": "_trail",
          "type": "tuple"
        },
        {
          "components": [
            {
              "internalType": "int256",
              "name": "d",
              "type": "int256"
            }
          ],
          "internalType": "struct SignedDecimal.signedDecimal",
          "name": "_positionSize",
          "type": "tuple"
        },
        {
          "components": [
            {
              "internalType": "uint256",
              "name": "d",
              "type": "uint256"
            }
          ],
          "internalType": "struct Decimal.decimal",
          "name": "_collateral",
          "type": "tuple"
        },
        {
          "components": [
            {
              "internalType": "uint256",
              "name": "d",
              "type": "uint256"
            }
          ],
          "internalType": "struct Decimal.decimal",
          "name": "_leverage",
          "type": "tuple"
        },
        {
          "components": [
            {
              "internalType": "uint256",
              "name": "d",
              "type": "uint256"
            }
          ],
          "internalType": "struct Decimal.decimal",
          "name": "_slippage",
          "type": "tuple"
        },
        {
          "components": [
            {
              "internalType": "uint256",
              "name": "d",
              "type": "uint256"
            }
          ],
          "internalType": "struct Decimal.decimal",
          "name": "_tipFee",
          "type": "tuple"
        },
        {
          "internalType": "bool",
          "name": "_reduceOnly",
          "type": "bool"
        },
        {
          "internalType": "uint256",
          "name": "_expiry",
          "type": "uint256"
        }
      ],
      "name": "addTrailingStopMarketOrderAbs",
      "outputs": [],
      "stateMutability": "nonpayable",
      "type": "function"
    },
    {
      "inputs": [
        {
          "internalType": "address",
          "name": "_asset",
          "type": "address"
        },
        {
          "components": [
            {
              "internalType": "uint256",
              "name": "d",
              "type": "uint256"
            }
          ],
          "internalType": "struct Decimal.decimal",
          "name": "_trailPct",
          "type": "tuple"
        },
        {
          "components": [
            {
              "internalType": "int256",
              "name": "d",
              "type": "int256"
            }
          ],
          "internalType": "struct SignedDecimal.signedDecimal",
          "name": "_positionSize",
          "type": "tuple"
        },
        {
          "components": [
            {
              "internalType": "uint256",
              "name": "d",
              "type": "uint256"
            }
          ],
          "internalType": "struct Decimal.decimal",
          "name": "_collateral",
          "type": "tuple"
        },
        {
          "components": [
            {
              "internalType": "uint256",
              "name": "d",
              "type": "uint256"
            }
          ],
          "internalType": "struct Decimal.decimal",
          "name": "_leverage",
          "type": "tuple"
        },
        {
          "components": [
            {
              "internalType": "uint256",
              "name": "d",
              "type": "uint256"
            }
          ],
          "internalType": "struct Decimal.decimal",
          "name": "_slippage",
          "type": "tuple"
        },
        {
          "components": [
            {
              "internalType": "uint256",
              "name": "d",
              "type": "uint256"
            }
          ],
          "internalType": "struct Decimal.decimal",
          "name": "_tipFee",
          "type": "tuple"
        },
        {
          "internalType": "bool",
          "name": "_reduceOnly",
          "type": "bool"
        },
        {
          "internalType": "uint256",
          "name": "_expiry",
          "type": "uint256"
        }
      ],
      "name": "addTrailingStopMarketOrderPct",
      "outputs": [],
      "stateMutability": "nonpayable",
      "type": "function"
    },
    {
      "inputs": [
        {
          "components": [
            {
              "internalType": "uint256",
              "name": "d",
              "type": "uint256"
            }
          ],
          "internalType": "struct Decimal.decimal",
          "name": "_fee",
          "type": "tuple"
        }
      ],
      "name": "changeMinimumFee",
      "outputs": [],
      "stateMutability": "nonpayable",
      "type": "function"
    },
    {
      "inputs": [
        {
          "internalType": "uint256",
          "name": "order_id",
          "type": "uint256"
        }
      ],
      "name": "deleteOrder",
      "outputs": [],
      "stateMutability": "nonpayable",
      "type": "function"
    },
    {
      "inputs": [
        {
          "internalType": "uint256",
          "name": "order_id",
          "type": "uint256"
        }
      ],
      "name": "execute",
      "outputs": [],
      "stateMutability": "nonpayable",
      "type": "function"
    },
    {
      "inputs": [],
      "name": "factory",
      "outputs": [
        {
          "internalType": "contract SmartWalletFactory",
          "name": "",
          "type": "address"
        }
      ],
      "stateMutability": "view",
      "type": "function"
    },
    {
      "inputs": [
        {
          "internalType": "uint256",
          "name": "order_id",
          "type": "uint256"
        }
      ],
      "name": "getLimitOrder",
      "outputs": [
        {
          "components": [
            {
              "internalType": "address",
              "name": "asset",
              "type": "address"
            },
            {
              "internalType": "address",
              "name": "trader",
              "type": "address"
            },
            {
              "internalType": "enum LimitOrderBook.OrderType",
              "name": "orderType",
              "type": "uint8"
            },
            {
              "internalType": "bool",
              "name": "reduceOnly",
              "type": "bool"
            },
            {
              "internalType": "bool",
              "name": "stillValid",
              "type": "bool"
            },
            {
              "internalType": "uint256",
              "name": "expiry",
              "type": "uint256"
            },
            {
              "components": [
                {
                  "internalType": "uint256",
                  "name": "d",
                  "type": "uint256"
                }
              ],
              "internalType": "struct Decimal.decimal",
              "name": "stopPrice",
              "type": "tuple"
            },
            {
              "components": [
                {
                  "internalType": "uint256",
                  "name": "d",
                  "type": "uint256"
                }
              ],
              "internalType": "struct Decimal.decimal",
              "name": "limitPrice",
              "type": "tuple"
            },
            {
              "components": [
                {
                  "internalType": "int256",
                  "name": "d",
                  "type": "int256"
                }
              ],
              "internalType": "struct SignedDecimal.signedDecimal",
              "name": "orderSize",
              "type": "tuple"
            },
            {
              "components": [
                {
                  "internalType": "uint256",
                  "name": "d",
                  "type": "uint256"
                }
              ],
              "internalType": "struct Decimal.decimal",
              "name": "collateral",
              "type": "tuple"
            },
            {
              "components": [
                {
                  "internalType": "uint256",
                  "name": "d",
                  "type": "uint256"
                }
              ],
              "internalType": "struct Decimal.decimal",
              "name": "leverage",
              "type": "tuple"
            },
            {
              "components": [
                {
                  "internalType": "uint256",
                  "name": "d",
                  "type": "uint256"
                }
              ],
              "internalType": "struct Decimal.decimal",
              "name": "slippage",
              "type": "tuple"
            },
            {
              "components": [
                {
                  "internalType": "uint256",
                  "name": "d",
                  "type": "uint256"
                }
              ],
              "internalType": "struct Decimal.decimal",
              "name": "tipFee",
              "type": "tuple"
            }
          ],
          "internalType": "struct LimitOrderBook.LimitOrder",
          "name": "",
          "type": "tuple"
        }
      ],
      "stateMutability": "view",
      "type": "function"
    },
    {
      "inputs": [
        {
          "internalType": "uint256",
          "name": "id",
          "type": "uint256"
        }
      ],
      "name": "getLimitOrderParams",
      "outputs": [
        {
          "internalType": "address",
          "name": "",
          "type": "address"
        },
        {
          "internalType": "address",
          "name": "",
          "type": "address"
        },
        {
          "internalType": "enum LimitOrderBook.OrderType",
          "name": "",
          "type": "uint8"
        },
        {
          "internalType": "bool",
          "name": "",
          "type": "bool"
        },
        {
          "internalType": "bool",
          "name": "",
          "type": "bool"
        },
        {
          "internalType": "uint256",
          "name": "",
          "type": "uint256"
        }
      ],
      "stateMutability": "view",
      "type": "function"
    },
    {
      "inputs": [
        {
          "internalType": "uint256",
          "name": "id",
          "type": "uint256"
        }
      ],
      "name": "getLimitOrderPrices",
      "outputs": [
        {
          "components": [
            {
              "internalType": "uint256",
              "name": "d",
              "type": "uint256"
            }
          ],
          "internalType": "struct Decimal.decimal",
          "name": "",
          "type": "tuple"
        },
        {
          "components": [
            {
              "internalType": "uint256",
              "name": "d",
              "type": "uint256"
            }
          ],
          "internalType": "struct Decimal.decimal",
          "name": "",
          "type": "tuple"
        },
        {
          "components": [
            {
              "internalType": "int256",
              "name": "d",
              "type": "int256"
            }
          ],
          "internalType": "struct SignedDecimal.signedDecimal",
          "name": "",
          "type": "tuple"
        },
        {
          "components": [
            {
              "internalType": "uint256",
              "name": "d",
              "type": "uint256"
            }
          ],
          "internalType": "struct Decimal.decimal",
          "name": "",
          "type": "tuple"
        },
        {
          "components": [
            {
              "internalType": "uint256",
              "name": "d",
              "type": "uint256"
            }
          ],
          "internalType": "struct Decimal.decimal",
          "name": "",
          "type": "tuple"
        },
        {
          "components": [
            {
              "internalType": "uint256",
              "name": "d",
              "type": "uint256"
            }
          ],
          "internalType": "struct Decimal.decimal",
          "name": "",
          "type": "tuple"
        },
        {
          "components": [
            {
              "internalType": "uint256",
              "name": "d",
              "type": "uint256"
            }
          ],
          "internalType": "struct Decimal.decimal",
          "name": "",
          "type": "tuple"
        }
      ],
      "stateMutability": "view",
      "type": "function"
    },
    {
      "inputs": [],
      "name": "getNumberOrders",
      "outputs": [
        {
          "internalType": "uint256",
          "name": "",
          "type": "uint256"
        }
      ],
      "stateMutability": "view",
      "type": "function"
    },
    {
      "inputs": [
        {
          "internalType": "contract IAmm",
          "name": "_asset",
          "type": "address"
        },
        {
          "internalType": "uint256",
          "name": "_snapshotIndex",
          "type": "uint256"
        }
      ],
      "name": "getPriceAtSnapshot",
      "outputs": [
        {
          "components": [
            {
              "internalType": "uint256",
              "name": "d",
              "type": "uint256"
            }
          ],
          "internalType": "struct Decimal.decimal",
          "name": "",
          "type": "tuple"
        }
      ],
      "stateMutability": "view",
      "type": "function"
    },
    {
      "inputs": [
        {
          "internalType": "uint256",
          "name": "order_id",
          "type": "uint256"
        }
      ],
      "name": "getTrailingData",
      "outputs": [
        {
          "components": [
            {
              "components": [
                {
                  "internalType": "uint256",
                  "name": "d",
                  "type": "uint256"
                }
              ],
              "internalType": "struct Decimal.decimal",
              "name": "witnessPrice",
              "type": "tuple"
            },
            {
              "components": [
                {
                  "internalType": "uint256",
                  "name": "d",
                  "type": "uint256"
                }
              ],
              "internalType": "struct Decimal.decimal",
              "name": "trail",
              "type": "tuple"
            },
            {
              "components": [
                {
                  "internalType": "uint256",
                  "name": "d",
                  "type": "uint256"
                }
              ],
              "internalType": "struct Decimal.decimal",
              "name": "trailPct",
              "type": "tuple"
            },
            {
              "components": [
                {
                  "internalType": "uint256",
                  "name": "d",
                  "type": "uint256"
                }
              ],
              "internalType": "struct Decimal.decimal",
              "name": "gap",
              "type": "tuple"
            },
            {
              "components": [
                {
                  "internalType": "uint256",
                  "name": "d",
                  "type": "uint256"
                }
              ],
              "internalType": "struct Decimal.decimal",
              "name": "gapPct",
              "type": "tuple"
            },
            {
              "internalType": "bool",
              "name": "usePct",
              "type": "bool"
            },
            {
              "internalType": "uint256",
              "name": "snapshotCreated",
              "type": "uint256"
            },
            {
              "internalType": "uint256",
              "name": "snapshotLastUpdated",
              "type": "uint256"
            },
            {
              "internalType": "address",
              "name": "lastUpdatedKeeper",
              "type": "address"
            }
          ],
          "internalType": "struct LimitOrderBook.TrailingOrderData",
          "name": "",
          "type": "tuple"
        }
      ],
      "stateMutability": "view",
      "type": "function"
    },
    {
      "inputs": [
        {
          "internalType": "uint256",
          "name": "order_id",
          "type": "uint256"
        },
        {
          "components": [
            {
              "internalType": "uint256",
              "name": "d",
              "type": "uint256"
            }
          ],
          "internalType": "struct Decimal.decimal",
          "name": "_stopPrice",
          "type": "tuple"
        },
        {
          "components": [
            {
              "internalType": "uint256",
              "name": "d",
              "type": "uint256"
            }
          ],
          "internalType": "struct Decimal.decimal",
          "name": "_limitPrice",
          "type": "tuple"
        },
        {
          "components": [
            {
              "internalType": "int256",
              "name": "d",
              "type": "int256"
            }
          ],
          "internalType": "struct SignedDecimal.signedDecimal",
          "name": "_orderSize",
          "type": "tuple"
        },
        {
          "components": [
            {
              "internalType": "uint256",
              "name": "d",
              "type": "uint256"
            }
          ],
          "internalType": "struct Decimal.decimal",
          "name": "_collateral",
          "type": "tuple"
        },
        {
          "components": [
            {
              "internalType": "uint256",
              "name": "d",
              "type": "uint256"
            }
          ],
          "internalType": "struct Decimal.decimal",
          "name": "_leverage",
          "type": "tuple"
        },
        {
          "components": [
            {
              "internalType": "uint256",
              "name": "d",
              "type": "uint256"
            }
          ],
          "internalType": "struct Decimal.decimal",
          "name": "_slippage",
          "type": "tuple"
        },
        {
          "internalType": "bool",
          "name": "_reduceOnly",
          "type": "bool"
        },
        {
          "internalType": "uint256",
          "name": "_expiry",
          "type": "uint256"
        }
      ],
      "name": "modifyOrder",
      "outputs": [],
      "stateMutability": "nonpayable",
      "type": "function"
    },
    {
      "inputs": [
        {
          "internalType": "uint256",
          "name": "order_id",
          "type": "uint256"
        },
        {
          "components": [
            {
              "internalType": "uint256",
              "name": "d",
              "type": "uint256"
            }
          ],
          "internalType": "struct Decimal.decimal",
          "name": "_newStop",
          "type": "tuple"
        },
        {
          "components": [
            {
              "internalType": "uint256",
              "name": "d",
              "type": "uint256"
            }
          ],
          "internalType": "struct Decimal.decimal",
          "name": "_newLimit",
          "type": "tuple"
        },
        {
          "components": [
            {
              "internalType": "int256",
              "name": "d",
              "type": "int256"
            }
          ],
          "internalType": "struct SignedDecimal.signedDecimal",
          "name": "_orderSize",
          "type": "tuple"
        },
        {
          "components": [
            {
              "internalType": "uint256",
              "name": "d",
              "type": "uint256"
            }
          ],
          "internalType": "struct Decimal.decimal",
          "name": "_collateral",
          "type": "tuple"
        },
        {
          "components": [
            {
              "internalType": "uint256",
              "name": "d",
              "type": "uint256"
            }
          ],
          "internalType": "struct Decimal.decimal",
          "name": "_leverage",
          "type": "tuple"
        },
        {
          "components": [
            {
              "internalType": "uint256",
              "name": "d",
              "type": "uint256"
            }
          ],
          "internalType": "struct Decimal.decimal",
          "name": "_slippage",
          "type": "tuple"
        },
        {
          "internalType": "bool",
          "name": "_reduceOnly",
          "type": "bool"
        },
        {
          "internalType": "uint256",
          "name": "_expiry",
          "type": "uint256"
        }
      ],
      "name": "modifyTrailingOrder",
      "outputs": [],
      "stateMutability": "nonpayable",
      "type": "function"
    },
    {
      "inputs": [
        {
          "internalType": "uint256",
          "name": "",
          "type": "uint256"
        }
      ],
      "name": "orders",
      "outputs": [
        {
          "internalType": "address",
          "name": "asset",
          "type": "address"
        },
        {
          "internalType": "address",
          "name": "trader",
          "type": "address"
        },
        {
          "internalType": "enum LimitOrderBook.OrderType",
          "name": "orderType",
          "type": "uint8"
        },
        {
          "internalType": "bool",
          "name": "reduceOnly",
          "type": "bool"
        },
        {
          "internalType": "bool",
          "name": "stillValid",
          "type": "bool"
        },
        {
          "internalType": "uint256",
          "name": "expiry",
          "type": "uint256"
        },
        {
          "components": [
            {
              "internalType": "uint256",
              "name": "d",
              "type": "uint256"
            }
          ],
          "internalType": "struct Decimal.decimal",
          "name": "stopPrice",
          "type": "tuple"
        },
        {
          "components": [
            {
              "internalType": "uint256",
              "name": "d",
              "type": "uint256"
            }
          ],
          "internalType": "struct Decimal.decimal",
          "name": "limitPrice",
          "type": "tuple"
        },
        {
          "components": [
            {
              "internalType": "int256",
              "name": "d",
              "type": "int256"
            }
          ],
          "internalType": "struct SignedDecimal.signedDecimal",
          "name": "orderSize",
          "type": "tuple"
        },
        {
          "components": [
            {
              "internalType": "uint256",
              "name": "d",
              "type": "uint256"
            }
          ],
          "internalType": "struct Decimal.decimal",
          "name": "collateral",
          "type": "tuple"
        },
        {
          "components": [
            {
              "internalType": "uint256",
              "name": "d",
              "type": "uint256"
            }
          ],
          "internalType": "struct Decimal.decimal",
          "name": "leverage",
          "type": "tuple"
        },
        {
          "components": [
            {
              "internalType": "uint256",
              "name": "d",
              "type": "uint256"
            }
          ],
          "internalType": "struct Decimal.decimal",
          "name": "slippage",
          "type": "tuple"
        },
        {
          "components": [
            {
              "internalType": "uint256",
              "name": "d",
              "type": "uint256"
            }
          ],
          "internalType": "struct Decimal.decimal",
          "name": "tipFee",
          "type": "tuple"
        }
      ],
      "stateMutability": "view",
      "type": "function"
    },
    {
      "inputs": [],
      "name": "owner",
      "outputs": [
        {
          "internalType": "address",
          "name": "",
          "type": "address"
        }
      ],
      "stateMutability": "view",
      "type": "function"
    },
    {
      "inputs": [
        {
          "internalType": "uint256",
          "name": "order_id",
          "type": "uint256"
        },
        {
          "internalType": "uint256",
          "name": "_reserveIndex",
          "type": "uint256"
        }
      ],
      "name": "pokeContract",
      "outputs": [],
      "stateMutability": "nonpayable",
      "type": "function"
    },
    {
      "inputs": [],
      "name": "renounceOwnership",
      "outputs": [],
      "stateMutability": "nonpayable",
      "type": "function"
    },
    {
      "inputs": [
        {
          "internalType": "address",
          "name": "_addr",
          "type": "address"
        }
      ],
      "name": "setFactory",
      "outputs": [],
      "stateMutability": "nonpayable",
      "type": "function"
    },
    {
      "inputs": [
        {
          "internalType": "address",
          "name": "newOwner",
          "type": "address"
        }
      ],
      "name": "transferOwnership",
      "outputs": [],
      "stateMutability": "nonpayable",
      "type": "function"
    }
  ],
  "bytecode": "0x6080604052603880546001600160a01b031916738c29f6f7fc1999ab84b476952e986f974acb38241790553480156200003757600080fd5b5060006200004d6001600160e01b036200009d16565b600080546001600160a01b0319166001600160a01b0383169081178255604051929350917f8be0079c531659141344cd1fd0a4f28419497f9722a3daafe3b4186f6b6457e0908290a350620000a1565b3390565b613e0380620000b16000396000f3fe608060405234801561001057600080fd5b50600436106101a35760003560e01c806386f89642116100ee578063b96bb80611610097578063e36a2dc011610071578063e36a2dc014610375578063f0d840d71461039b578063f2fde38b146103bb578063fe0d94c1146103ce576101a3565b8063b96bb80614610347578063bc9aa8c31461035a578063c45a01551461036d576101a3565b8063a85c38ef116100c8578063a85c38ef146102f5578063af52775d14610321578063b50c4fb914610334576101a3565b806386f89642146102b85780638ceddd77146102cb5780638da5cb5b146102e0576101a3565b806353061026116101505780636bef74931161012a5780636bef74931461027d578063715018a61461029d5780637b5fe1b1146102a5576101a3565b806353061026146102375780635ad86447146102575780635bb478081461026a576101a3565b806334c198301161018157806334c19830146101e35780634885fd58146101f65780634c5789e314610209576101a3565b8063032e4f6e146101a857806311a00327146101bd5780632736f620146101d0575b600080fd5b6101bb6101b6366004613227565b6103e1565b005b6101bb6101cb3660046133a7565b610407565b6101bb6101de366004613227565b61056f565b6101bb6101f1366004613406565b61058a565b6101bb610204366004613371565b6107da565b61021c6102173660046133a7565b61081f565b60405161022e9695949392919061349a565b60405180910390f35b61024a6102453660046133a7565b6109c7565b60405161022e9190613b98565b6101bb610265366004613168565b610b2d565b6101bb610278366004613130565b610b5c565b61029061028b3660046132ef565b610bbd565b60405161022e9190613d23565b6101bb610c86565b6101bb6102b3366004613227565b610d0f565b6101bb6102c6366004613168565b610d31565b6102d3610d45565b60405161022e9190613d5e565b6102e8610d4b565b60405161022e9190613486565b6103086103033660046133a7565b610d5a565b60405161022e9d9c9b9a999897969594939291906134dd565b6101bb61032f3660046133d7565b610e28565b6101bb610342366004613227565b611167565b6101bb610355366004613168565b611189565b6101bb6103683660046133d7565b6111a4565b6102e861144b565b6103886103833660046133a7565b61145a565b60405161022e9796959493929190613d2d565b6103ae6103a93660046133a7565b611646565b60405161022e9190613c97565b6101bb6103c9366004613130565b611700565b6101bb6103dc3660046133a7565b6117c0565b6103fc8960028a6103f0611cdc565b8b8b8b8b8b8b8b611cf7565b505050505050505050565b806034818154811061041557fe5b60009182526020909120600a90910201600101546001600160a01b031633146104595760405162461bcd60e51b815260040161045090613aa7565b60405180910390fd5b6034548290811061047c5760405162461bcd60e51b8152600401610450906138ed565b6034838154811061048957fe5b600091825260209091206001600a9092020101546040516001600160a01b03909116907f9839c5aee45262b904f4ede97f671e296b41355f52a965a7076f4d4db9321d4b906104d9908690613d5e565b60405180910390a2603483815481106104ee57fe5b600091825260208220600a9091020180546001600160a01b03191681556001810180547fffffffffffffffffff00000000000000000000000000000000000000000000001690556002810182905560038101829055600481018290556005810182905560068101829055600781018290556008810182905560090155505050565b6103fc89600161057d611cdc565b8b8b8b8b8b8b8b8b611cf7565b60046034838154811061059957fe5b90600052602060002090600a020160010160149054906101000a900460ff1660058111156105c357fe5b148061060557506005603483815481106105d957fe5b90600052602060002090600a020160010160149054906101000a900460ff16600581111561060357fe5b145b6106215760405162461bcd60e51b81526004016104509061378e565b60008281526035602052604090206006015481116106515760405162461bcd60e51b81526004016104509061361e565b60008281526035602052604090206007015481108061068757506000828152603560205260409020600701546103844291909103115b6106a35760405162461bcd60e51b815260040161045090613ade565b600082815260356020526040812042600790910155603480546106f09190859081106106cb57fe5b60009182526020918290206040805193840190526005600a90920201015481526121b7565b6106fb5760016106fe565b60005b9050610708612fa4565b6107386034858154811061071857fe5b60009182526020909120600a90910201546001600160a01b031684610bbd565b9050816107475760001961074a565b60015b600085815260356020908152604091829020825191820190925290548152600f9190910b9061077f908363ffffffff6121d516565b60000b1461079f5760405162461bcd60e51b815260040161045090613a13565b6000848152603560205260409020815181556007810184905560080180546001600160a01b031916331790556107d484612206565b50505050565b6107e26125a1565b6001600160a01b03166107f3610d4b565b6001600160a01b0316146108195760405162461bcd60e51b815260040161045090613981565b51603755565b60008060008060008086603480549050811061084d5760405162461bcd60e51b8152600401610450906138ed565b610855612fb7565b6034898154811061086257fe5b6000918252602091829020604080516101a081018252600a90930290910180546001600160a01b03908116845260018201549081169484019490945291929083019060ff600160a01b9091041660058111156108ba57fe5b60058111156108c557fe5b8152600182015460ff600160a81b820481161515602080850191909152600160b01b90920416151560408084019190915260028401546060808501919091528151808401835260038601548152608080860191909152825180850184526004870154815260a080870191909152835180860185526005880154815260c0870152835180860185526006880154815260e087015283518086018552600788015481526101008701528351808601855260088801548152610120870152835180860185526009909701548752610140909501959095528551928601519186015190860151948601519590930151919e909d50919b5091995091975095509350505050565b6109cf612fb7565b603454829081106109f25760405162461bcd60e51b8152600401610450906138ed565b603483815481106109ff57fe5b6000918252602091829020604080516101a081018252600a90930290910180546001600160a01b03908116845260018201549081169484019490945291929083019060ff600160a01b909104166005811115610a5757fe5b6005811115610a6257fe5b8152600182015460ff600160a81b820481161515602080850191909152600160b01b9092041615156040808401919091526002840154606084015280518083018252600385015481526080840152805180830182526004850154815260a0840152805180830182526005850154815260c0840152805180830182526006850154815260e0840152805180830182526007850154815261010084015280518083018252600885015481526101208401528051918201905260099092015482526101400152915050919050565b610b438a6005610b3b611cdc565b6103f0611cdc565b610b508a8a8a60006125a5565b50505050505050505050565b610b646125a1565b6001600160a01b0316610b75610d4b565b6001600160a01b031614610b9b5760405162461bcd60e51b815260040161045090613981565b603680546001600160a01b0319166001600160a01b0392909216919091179055565b610bc5612fa4565b610bcd613048565b6040517f21e009850000000000000000000000000000000000000000000000000000000081526001600160a01b038516906321e0098590610c12908690600401613d5e565b60806040518083038186803b158015610c2a57600080fd5b505afa158015610c3e573d6000803e3d6000fd5b505050506040513d601f19601f82011682018060405250810190610c62919061331a565b60208101518151919250610c7c919063ffffffff6128ce16565b9150505b92915050565b610c8e6125a1565b6001600160a01b0316610c9f610d4b565b6001600160a01b031614610cc55760405162461bcd60e51b815260040161045090613981565b600080546040516001600160a01b03909116907f8be0079c531659141344cd1fd0a4f28419497f9722a3daafe3b4186f6b6457e0908390a3600080546001600160a01b0319169055565b610d1d896004610b3b611cdc565b6103fc8989610d2a611cdc565b60016125a5565b610b508a60038b8b8b8b8b8b8b8b8b611cf7565b60345490565b6000546001600160a01b031690565b60348181548110610d6757fe5b6000918252602091829020600a9091020180546001820154600283015460408051808701825260038601548152815180880183526004870154815282518089018452600588015481528351808a018552600689015481528451808b01865260078a015481528551808c01875260088b0154815286519b8c019096526009909901548a526001600160a01b039788169a509686169860ff600160a01b8804811699600160a81b8904821699600160b01b9099049091169794959394929390918d565b8860348181548110610e3657fe5b60009182526020909120600a90910201600101546001600160a01b03163314610e715760405162461bcd60e51b815260040161045090613aa7565b6034548a908110610e945760405162461bcd60e51b8152600401610450906138ed565b821580610ea057508242105b610ebc5760405162461bcd60e51b815260040161045090613720565b600160348c81548110610ecb57fe5b90600052602060002090600a020160010160149054906101000a900460ff166005811115610ef557fe5b1480610f375750600260348c81548110610f0b57fe5b90600052602060002090600a020160010160149054906101000a900460ff166005811115610f3557fe5b145b80610f785750600360348c81548110610f4c57fe5b90600052602060002090600a020160010160149054906101000a900460ff166005811115610f7657fe5b145b610f945760405162461bcd60e51b815260040161045090613b3b565b8960348c81548110610fa257fe5b90600052602060002090600a0201600301600082015181600001559050508860348c81548110610fce57fe5b90600052602060002090600a0201600401600082015181600001559050508760348c81548110610ffa57fe5b90600052602060002090600a0201600501600082015181600001559050508660348c8154811061102657fe5b90600052602060002090600a0201600601600082015181600001559050508560348c8154811061105257fe5b90600052602060002090600a0201600701600082015181600001559050508460348c8154811061107e57fe5b90600052602060002090600a0201600801600082015181600001559050508360348c815481106110aa57fe5b90600052602060002090600a020160010160156101000a81548160ff0219169083151502179055508260348c815481106110e057fe5b90600052602060002090600a02016002018190555060348b8154811061110257fe5b600091825260209091206001600a9092020101546040516001600160a01b03909116907f9839c5aee45262b904f4ede97f671e296b41355f52a965a7076f4d4db9321d4b90611152908e90613d5e565b60405180910390a25050505050505050505050565b611175896004610b3b611cdc565b6103fc8989611182611cdc565b60006125a5565b6111978a6005610b3b611cdc565b610b508a8a8a60016125a5565b88603481815481106111b257fe5b60009182526020909120600a90910201600101546001600160a01b031633146111ed5760405162461bcd60e51b815260040161045090613aa7565b6034548a9081106112105760405162461bcd60e51b8152600401610450906138ed565b82158061121c57508242105b6112385760405162461bcd60e51b815260040161045090613720565b600460348c8154811061124757fe5b90600052602060002090600a020160010160149054906101000a900460ff16600581111561127157fe5b14806112b35750600560348c8154811061128757fe5b90600052602060002090600a020160010160149054906101000a900460ff1660058111156112b157fe5b145b6112cf5760405162461bcd60e51b8152600401610450906135e7565b8760348c815481106112dd57fe5b90600052602060002090600a0201600501600082015181600001559050508660348c8154811061130957fe5b90600052602060002090600a0201600601600082015181600001559050508560348c8154811061133557fe5b90600052602060002090600a0201600701600082015181600001559050508460348c8154811061136157fe5b90600052602060002090600a0201600801600082015181600001559050508360348c8154811061138d57fe5b90600052602060002090600a020160010160156101000a81548160ff0219169083151502179055508260348c815481106113c357fe5b600091825260208083206002600a9093020191909101929092558c81526035909152604090206005015460ff16156114175760008b81526035602052604090208a5160028201558951600490910155611435565b60008b81526035602052604090208a51600182015589516003909101555b61143e8b612206565b60348b8154811061110257fe5b6036546001600160a01b031681565b611462612fa4565b61146a612fa4565b611472612fa4565b61147a612fa4565b611482612fa4565b61148a612fa4565b611492612fa4565b603454889081106114b55760405162461bcd60e51b8152600401610450906138ed565b6114bd612fb7565b60348a815481106114ca57fe5b6000918252602091829020604080516101a081018252600a90930290910180546001600160a01b03908116845260018201549081169484019490945291929083019060ff600160a01b90910416600581111561152257fe5b600581111561152d57fe5b8152600182015460ff600160a81b820481161515602080850191909152600160b01b9092041615156040808401919091526002840154606084015280518083018252600385015481526080840152805180830182526004850154815260a0840152805180830182526005850154815260c080850191909152815180840183526006860154815260e08086019190915282518085018452600787015481526101008087019190915283518086018552600888015481526101208088019190915284519586019094526009909601548452610140948501939093528501519185015193850151908501519285015161016086015161018090960151929e50939c509a5090985090965090945092505050919395979092949650565b61164e61307c565b50600081815260356020908152604091829020825161014081018452815461012082019081528152835180840185526001830154815281840152835180840185526002830154815281850152835180840185526003830154815260608201528351928301909352600481015482526080830191909152600581015460ff16151560a0830152600681015460c0830152600781015460e0830152600801546001600160a01b03166101008201525b919050565b6117086125a1565b6001600160a01b0316611719610d4b565b6001600160a01b03161461173f5760405162461bcd60e51b815260040161045090613981565b6001600160a01b0381166117655760405162461bcd60e51b815260040161045090613655565b600080546040516001600160a01b03808516939216917f8be0079c531659141344cd1fd0a4f28419497f9722a3daafe3b4186f6b6457e091a3600080546001600160a01b0319166001600160a01b0392909216919091179055565b603454819081106117e35760405162461bcd60e51b8152600401610450906138ed565b603482815481106117f057fe5b90600052602060002090600a020160010160169054906101000a900460ff1661182b5760405162461bcd60e51b8152600401610450906136b2565b6034828154811061183857fe5b600091825260209091206001600a9092020101546040516001600160a01b03909116907f6ac084fe52cc25f2f64ae4aea087b0bf8e92c0a900b2425c1edda1f36c8cab0d90611888908590613d5e565b60405180910390a2603654603480546000926001600160a01b03169163a0b7388191869081106118b457fe5b600091825260209091206001600a9092020101546040517fffffffff0000000000000000000000000000000000000000000000000000000060e084901b16815261190a916001600160a01b031690600401613486565b60206040518083038186803b15801561192257600080fd5b505afa158015611936573d6000803e3d6000fd5b505050506040513d601f19601f8201168201806040525081019061195a919061314c565b90506000816001600160a01b03166394f61134856040518263ffffffff1660e01b815260040161198a9190613d5e565b602060405180830381600087803b1580156119a457600080fd5b505af11580156119b8573d6000803e3d6000fd5b505050506040513d601f19601f820116820180604052508101906119dc91906132d3565b905080156107d4576004603485815481106119f357fe5b90600052602060002090600a020160010160149054906101000a900460ff166005811115611a1d57fe5b1480611a5f5750600560348581548110611a3357fe5b90600052602060002090600a020160010160149054906101000a900460ff166005811115611a5d57fe5b145b8015611a8457506000848152603560205260409020600801546001600160a01b031615155b15611bca57611ae673ddafbb505ad214d7b80b1f830fccc89b60fb7a833033611ae1600260348a81548110611ab557fe5b60009182526020918290206040805193840190526009600a90920201015481529063ffffffff6128fa16565b61291c565b60008481526035602052604090206008015460348054611b359273ddafbb505ad214d7b80b1f830fccc89b60fb7a839230926001600160a01b0390921691611ae1916002918b908110611ab557fe5b7ffc0ec3e59df0924914ac81382ddd54522bb0c38d2b91b0667f0103cf6502559d84604051611b649190613d5e565b60405180910390a160008481526035602052604081208181556001810182905560028101829055600381018290556004810182905560058101805460ff1916905560068101829055600781019190915560080180546001600160a01b0319169055611c16565b611c1673ddafbb505ad214d7b80b1f830fccc89b60fb7a83303360348881548110611bf157fe5b60009182526020918290206040805193840190526009600a909202010154815261291c565b600060348581548110611c2557fe5b90600052602060002090600a020160010160166101000a81548160ff02191690831515021790555060348481548110611c5a57fe5b600091825260208220600a9091020180546001600160a01b03191681556001810180547fffffffffffffffffff0000000000000000000000000000000000000000000000169055600281018290556003810182905560048101829055600581018290556006810182905560078101829055600881018290556009015550505050565b611ce4612fa4565b5060408051602081019091526000815290565b801580611d0357508042105b611d1f5760405162461bcd60e51b815260040161045090613720565b60408051602081019091526037548152611d4090849063ffffffff6121d516565b60000b600114611d625760405162461bcd60e51b8152600401610450906139b6565b6036546040517fa0b738810000000000000000000000000000000000000000000000000000000081526000916001600160a01b03169063a0b7388190611dac903390600401613486565b60206040518083038186803b158015611dc457600080fd5b505afa158015611dd8573d6000803e3d6000fd5b505050506040513d601f19601f82011682018060405250810190611dfc919061314c565b6001600160a01b03161415611e235760405162461bcd60e51b8152600401610450906138b6565b6038546040517f0774a7840000000000000000000000000000000000000000000000000000000081526001600160a01b0390911690630774a78490611e6c908e90600401613486565b60206040518083038186803b158015611e8457600080fd5b505afa158015611e98573d6000803e3d6000fd5b505050506040513d601f19601f82011682018060405250810190611ebc91906132d3565b611ed85760405162461bcd60e51b8152600401610450906135b0565b6036546040517fa0b73881000000000000000000000000000000000000000000000000000000008152611f929173ddafbb505ad214d7b80b1f830fccc89b60fb7a83916001600160a01b039091169063a0b7388190611f3b903390600401613486565b60206040518083038186803b158015611f5357600080fd5b505afa158015611f67573d6000803e3d6000fd5b505050506040513d601f19601f82011682018060405250810190611f8b919061314c565b308661291c565b60345460405133917fcb0c37c16aa3b0bbb7a817932094d8a20a00996d426a813f067039f0ef87ab0791611fc69190613d5e565b60405180910390a2604080516101a0810182526001600160a01b038d16815233602082015260349181018c6005811115611ffc57fe5b81528415156020808301919091526001604080840182905260608401879052608084018f905260a084018e905260c084018d905260e084018c905261010084018b905261012084018a9052610140909301889052845480820186556000958652948290208451600a9096020180546001600160a01b03199081166001600160a01b03978816178255928501519181018054909316919095161780825591830151929392917fffffffffffffffffffffff00ffffffffffffffffffffffffffffffffffffffff16600160a01b8360058111156120d357fe5b0217905550606082015160018201805460808501511515600160b01b027fffffffffffffffffff00ffffffffffffffffffffffffffffffffffffffffffff931515600160a81b027fffffffffffffffffffff00ffffffffffffffffffffffffffffffffffffffffff909216919091179290921691909117905560a0820151600282015560c082015151600382015560e082015151600482015561010082015151600582015561012082015151600682015561014082015151600782015561016082015151600882015561018090910151516009909101555050505050505050505050565b600080826000015112156121cd575060016116fb565b506000919050565b8051825160009110156121ea57506001610c80565b8151835110156121fd5750600019610c80565b50600092915050565b61220e612fa4565b5060008181526035602090815260408083208151928301909152548152603480549192916122419190859081106106cb57fe5b61224c57600161224f565b60005b60008481526035602052604090206005015490915060ff161561240957612274612fa4565b816122b857600084815260356020908152604091829020825191820190925260029091015481526122b3906122a7612a99565b9063ffffffff612abd16565b6122f2565b600084815260356020908152604091829020825191820190925260029091015481526122f2906122e6612a99565b9063ffffffff612ae016565b90506122fc612fa4565b82612334576000858152603560209081526040918290208251918201909252600490910154815261232f906122a7612a99565b612362565b60008581526035602090815260409182902082519182019092526004909101548152612362906122e6612a99565b9050612374848363ffffffff612b0316565b6034868154811061238157fe5b90600052602060002090600a0201600301600082015181600001559050506123dc81603487815481106123b057fe5b60009182526020918290206040805193840190526003600a90920201015481529063ffffffff612b0316565b603486815481106123e957fe5b6000918252602090912091516004600a90920290920101555061259c9050565b80612446576000838152603560209081526040918290208251918201909252600190910154815261244190839063ffffffff612abd16565b612479565b6000838152603560209081526040918290208251918201909252600190910154815261247990839063ffffffff612ae016565b6034848154811061248657fe5b6000918252602090912091516003600a90920290920101558061250f5761250a60356000858152602001908152602001600020600301604051806020016040529081600082015481525050603485815481106124de57fe5b60009182526020918290206040805193840190526003600a90920201015481529063ffffffff612abd16565b612576565b612576603560008581526020019081526020016000206003016040518060200160405290816000820154815250506034858154811061254a57fe5b60009182526020918290206040805193840190526003600a90920201015481529063ffffffff612ae016565b6034848154811061258357fe5b6000918252602090912091516004600a90920290920101555b505050565b3390565b60006001856001600160a01b0316630d451c8f6040518163ffffffff1660e01b815260040160206040518083038186803b1580156125e257600080fd5b505afa1580156125f6573d6000803e3d6000fd5b505050506040513d601f19601f8201168201806040525081019061261a91906133bf565b0390507f4c307a456602a1cfcbea38a491adb935be2ec87ce2d533dfecf1240ad30d710d60016034805490500382604051612656929190613d67565b60405180910390a1612666612fa4565b856001600160a01b031663dc76fabc6040518163ffffffff1660e01b815260040160206040518083038186803b15801561269f57600080fd5b505afa1580156126b3573d6000803e3d6000fd5b505050506040513d601f19601f820116820180604052508101906126d7919061338c565b905082156127cc576040518061012001604052808281526020016126f9611cdc565b815260200186815260200161270c611cdc565b815260208082018790526001604080840182905260608085018890526080808601899052600060a09687018190526034548152603586528390208751518155948701515193850193909355908501515160028401558401515160038301558301515160048201559082015160058201805460ff191691151591909117905560c0820151600682015560e0820151600782015561010090910151600890910180546001600160a01b0319166001600160a01b039092169190911790556128b6565b6040518061012001604052808281526020018681526020016127ec611cdc565b81526020018581526020016127ff611cdc565b8152600060208083018290526040808401879052606080850188905260809485018490526034546000190184526035835292819020855151815591850151516001830155840151516002820155908301515160038201559082015151600482015560a082015160058201805460ff191691151591909117905560c0820151600682015560e0820151600782015561010090910151600890910180546001600160a01b0319166001600160a01b039092169190911790555b6034546128c69060001901612206565b505050505050565b6128d6612fa4565b6128de612fa4565b825184516128f19163ffffffff612b2616565b81529392505050565b612902612fa4565b61290a612fa4565b83516128f1908463ffffffff612b3b16565b61292584612b6d565b61292d612fa4565b6129378584612bba565b905060006129458684612c47565b905060006060876001600160a01b03166323b872dd60e01b8888866040516024016129729392919061358c565b604080517fffffffffffffffffffffffffffffffffffffffffffffffffffffffffffffffe08184030181529181526020820180517bffffffffffffffffffffffffffffffffffffffffffffffffffffffff167fffffffff000000000000000000000000000000000000000000000000000000009094169390931790925290516129fb919061344d565b6000604051808303816000865af19150503d8060008114612a38576040519150601f19603f3d011682016040523d82523d6000602084013e612a3d565b606091505b5091509150818015612a67575080511580612a67575080806020019051810190612a6791906132d3565b612a835760405162461bcd60e51b815260040161045090613859565b612a8f88878587612cbd565b5050505050505050565b612aa1612fa4565b6040518060200160405280612ab66012612d10565b9052905090565b612ac5612fa4565b612acd612fa4565b825184516128f19163ffffffff612d1916565b612ae8612fa4565b612af0612fa4565b825184516128f19163ffffffff612d4116565b612b0b612fa4565b612b13612fa4565b825184516128f19163ffffffff612d6616565b6000612b3483836012612d74565b9392505050565b6000808211612b5c5760405162461bcd60e51b8152600401610450906137c5565b818381612b6557fe5b049392505050565b6000612b7882612d9b565b6001600160a01b0383166000908152600160205260409020549091508114612bb6576001600160a01b03821660009081526001602052604090208190555b5050565b612bc2612fa4565b612b3483846001600160a01b03166370a08231856040518263ffffffff1660e01b8152600401612bf29190613486565b60206040518083038186803b158015612c0a57600080fd5b505afa158015612c1e573d6000803e3d6000fd5b505050506040513d601f19601f82011682018060405250810190612c4291906133bf565b612eb6565b600080612c5384612d9b565b905060128110612c9157612c89612c7182601263ffffffff612d1916565b600a0a612c7d85612f48565b9063ffffffff612f4c16565b915050610c80565b610c7c612ca560128363ffffffff612d1916565b600a0a612cb185612f48565b9063ffffffff612b3b16565b612cf0612cda612ccd8685612eb6565b839063ffffffff612ae016565b612ce48686612bba565b9063ffffffff6121d516565b60000b156107d45760405162461bcd60e51b815260040161045090613a4a565b60ff16600a0a90565b600082821115612d3b5760405162461bcd60e51b815260040161045090613757565b50900390565b600082820183811015612b345760405162461bcd60e51b8152600401610450906136e9565b6000612b3483836012612f86565b6000612d9383612cb1612d8685612d10565b879063ffffffff612f4c16565b949350505050565b6001600160a01b03811660009081526001602052604081205480610c805760408051600481526024810182526020810180517bffffffffffffffffffffffffffffffffffffffffffffffffffffffff167f313ce5670000000000000000000000000000000000000000000000000000000017905290516000916060916001600160a01b03871691612e2b9161344d565b600060405180830381855afa9150503d8060008114612e66576040519150601f19603f3d011682016040523d82523d6000602084013e612e6b565b606091505b5091509150818015612e7d5750805115155b612e995760405162461bcd60e51b8152600401610450906137fc565b80806020019051810190612ead91906133bf565b95945050505050565b612ebe612fa4565b6000612ec984612d9b565b905060128110612f0e57604080516020810190915280612f03612ef384601263ffffffff612d1916565b8690600a0a63ffffffff612b3b16565b815250915050610c80565b604080516020810190915280612f3e612f2e60128563ffffffff612d1916565b8690600a0a63ffffffff612f4c16565b9052949350505050565b5190565b600082612f5b57506000610c80565b82820282848281612f6857fe5b0414612b345760405162461bcd60e51b815260040161045090613924565b6000612d93612f9483612d10565b612cb1868663ffffffff612f4c16565b6040518060200160405280600081525090565b604080516101a08101825260008082526020820181905290918201908152600060208201819052604082018190526060820152608001612ff5612fa4565b8152602001613002612fa4565b815260200161300f612fa4565b815260200161301c612fa4565b8152602001613029612fa4565b8152602001613036612fa4565b8152602001613043612fa4565b905290565b604051806080016040528061305b612fa4565b8152602001613068612fa4565b815260200160008152602001600081525090565b604051806101200160405280613090612fa4565b815260200161309d612fa4565b81526020016130aa612fa4565b81526020016130b7612fa4565b81526020016130c4612fa4565b8152600060208201819052604082018190526060820181905260809091015290565b6000602082840312156130f7578081fd5b6131016020613d75565b9135825250919050565b60006020828403121561311c578081fd5b6131266020613d75565b9151825250919050565b600060208284031215613141578081fd5b8135612b3481613da7565b60006020828403121561315d578081fd5b8151612b3481613da7565b6000806000806000806000806000806101408b8d031215613187578586fd5b8a3561319281613da7565b99506131a18c60208d016130e6565b98506131b08c60408d016130e6565b97506131bf8c60608d016130e6565b96506131ce8c60808d016130e6565b95506131dd8c60a08d016130e6565b94506131ec8c60c08d016130e6565b93506131fb8c60e08d016130e6565b92506101008b013561320c81613dbf565b809250506101208b013590509295989b9194979a5092959850565b60008060008060008060008060006101208a8c031215613245578485fd5b893561325081613da7565b985061325f8b60208c016130e6565b975061326e8b60408c016130e6565b965061327d8b60608c016130e6565b955061328c8b60808c016130e6565b945061329b8b60a08c016130e6565b93506132aa8b60c08c016130e6565b925060e08a01356132ba81613dbf565b809250506101008a013590509295985092959850929598565b6000602082840312156132e4578081fd5b8151612b3481613dbf565b60008060408385031215613301578182fd5b823561330c81613da7565b946020939093013593505050565b60006080828403121561332b578081fd5b6133356080613d75565b61333f848461310b565b815261334e846020850161310b565b602082015260408301516040820152606083015160608201528091505092915050565b600060208284031215613382578081fd5b612b3483836130e6565b60006020828403121561339d578081fd5b612b34838361310b565b6000602082840312156133b8578081fd5b5035919050565b6000602082840312156133d0578081fd5b5051919050565b60008060008060008060008060006101208a8c0312156133f5578283fd5b8935985061325f8b60208c016130e6565b60008060408385031215613418578182fd5b50508035926020909101359150565b6001600160a01b03169052565b15159052565b6006811061344457fe5b9052565b519052565b60008251815b8181101561346d5760208186018101518583015201613453565b8181111561347b5782828501525b509190910192915050565b6001600160a01b0391909116815260200190565b6001600160a01b0387811682528616602082015260c081016134bb86613d9c565b60408301529315156060820152911515608083015260a0909101529392505050565b6001600160a01b038e811682528d1660208201526101a081016134ff8d613d9c565b60408301528b151560608301528a151560808301528960a083015261352760c083018a613448565b61353460e0830189613448565b613542610100830188613448565b613550610120830187613448565b61355e610140830186613448565b61356c610160830185613448565b61357a610180830184613448565b9e9d5050505050505050505050505050565b6001600160a01b039384168152919092166020820152604081019190915260600190565b6020808252600d908201527f616d6d206e6f7420666f756e6400000000000000000000000000000000000000604082015260600190565b6020808252601f908201527f43616e206f6e6c79206d6f6469667920747261696c696e67206f726465727300604082015260600190565b60208082526019908201527f4f72646572206861646e2774206265656e206372656174656400000000000000604082015260600190565b60208082526026908201527f4f776e61626c653a206e6577206f776e657220697320746865207a65726f206160408201527f6464726573730000000000000000000000000000000000000000000000000000606082015260800190565b6020808252600f908201527f4e6f206c6f6e6765722076616c69640000000000000000000000000000000000604082015260600190565b6020808252601b908201527f536166654d6174683a206164646974696f6e206f766572666c6f770000000000604082015260600190565b60208082526019908201527f4576656e742077696c6c2065787069726520696e207061737400000000000000604082015260600190565b6020808252601e908201527f536166654d6174683a207375627472616374696f6e206f766572666c6f770000604082015260600190565b6020808252601d908201527f43616e206f6e6c7920706f6b6520747261696c696e67206f7264657273000000604082015260600190565b6020808252601a908201527f536166654d6174683a206469766973696f6e206279207a65726f000000000000604082015260600190565b60208082526021908201527f446563696d616c45524332303a2067657420646563696d616c73206661696c6560408201527f6400000000000000000000000000000000000000000000000000000000000000606082015260800190565b60208082526021908201527f446563696d616c45524332303a207472616e7366657246726f6d206661696c6560408201527f6400000000000000000000000000000000000000000000000000000000000000606082015260800190565b60208082526011908201527f4e65656420736d6172742077616c6c6574000000000000000000000000000000604082015260600190565b6020808252600a908201527f496e76616c696420494400000000000000000000000000000000000000000000604082015260600190565b60208082526021908201527f536166654d6174683a206d756c7469706c69636174696f6e206f766572666c6f60408201527f7700000000000000000000000000000000000000000000000000000000000000606082015260800190565b6020808252818101527f4f776e61626c653a2063616c6c6572206973206e6f7420746865206f776e6572604082015260600190565b6020808252602a908201527f4a757374207468652074697021205469702069732062656c6f77206d696e696d60408201527f756d207469702066656500000000000000000000000000000000000000000000606082015260800190565b60208082526018908201527f496e636f727265637420747261696c696e672070726963650000000000000000604082015260600190565b60208082526022908201527f446563696d616c45524332303a2062616c616e636520696e636f6e736973746560408201527f6e74000000000000000000000000000000000000000000000000000000000000606082015260800190565b60208082526019908201527f4a757374206e6f7420796f7572206c696d6974206f7264657200000000000000604082015260600190565b60208082526024908201527f43616e206f6e6c792062652075706461746564206576657279203135206d696e60408201527f7574657300000000000000000000000000000000000000000000000000000000606082015260800190565b60208082526021908201527f43616e206f6e6c79206d6f646966792073746f702f6c696d6974206f7264657260408201527f7300000000000000000000000000000000000000000000000000000000000000606082015260800190565b60006101a082019050613bac828451613427565b6020830151613bbe6020840182613427565b506040830151613bd1604084018261343a565b506060830151613be46060840182613434565b506080830151613bf76080840182613434565b5060a083015160a083015260c0830151613c1460c0840182613448565b5060e0830151613c2760e0840182613448565b5061010080840151613c3b82850182613448565b505061012080840151613c5082850182613448565b505061014080840151613c6582850182613448565b505061016080840151613c7a82850182613448565b505061018080840151613c8f82850182613448565b505092915050565b600061012082019050825151825260208301515160208301526040830151613cc26040840182613448565b506060830151613cd56060840182613448565b506080830151613ce86080840182613448565b5060a0830151613cfb60a0840182613434565b5060c083015160c083015260e083015160e083015261010080840151613c8f82850182613427565b9051815260200190565b965187529451602087015292516040860152905160608501525160808401525160a08301525160c082015260e00190565b90815260200190565b918252602082015260400190565b60405181810167ffffffffffffffff81118282101715613d9457600080fd5b604052919050565b80600681106116fb57fe5b6001600160a01b0381168114613dbc57600080fd5b50565b8015158114613dbc57600080fdfea26469706673582212207b5dbbf12be4b4bb2084506e1ce0a3be0d118e85abcca420563816a6254bbeeb64736f6c63430006090033",
  "linkReferences": {},
  "deployedLinkReferences": {}
}