{
  "_format": "hh-sol-artifact-1",
  "contractName": "LimitOrderBook",
  "sourceName": "contracts/LimitOrderBook.sol",
  "abi": [
    {
      "anonymous": false,
      "inputs": [
        {
          "indexed": true,
          "internalType": "address",
          "name": "trader",
          "type": "address"
        },
        {
          "indexed": false,
          "internalType": "uint256",
          "name": "order_id",
          "type": "uint256"
        }
      ],
      "name": "OrderChanged",
      "type": "event"
    },
    {
      "anonymous": false,
      "inputs": [
        {
          "indexed": true,
          "internalType": "address",
          "name": "trader",
          "type": "address"
        },
        {
          "indexed": false,
          "internalType": "uint256",
          "name": "order_id",
          "type": "uint256"
        }
      ],
      "name": "OrderCreated",
      "type": "event"
    },
    {
      "anonymous": false,
      "inputs": [
        {
          "indexed": true,
          "internalType": "address",
          "name": "trader",
          "type": "address"
        },
        {
          "indexed": false,
          "internalType": "uint256",
          "name": "order_id",
          "type": "uint256"
        }
      ],
      "name": "OrderFilled",
      "type": "event"
    },
    {
      "anonymous": false,
      "inputs": [
        {
          "indexed": true,
          "internalType": "address",
          "name": "previousOwner",
          "type": "address"
        },
        {
          "indexed": true,
          "internalType": "address",
          "name": "newOwner",
          "type": "address"
        }
      ],
      "name": "OwnershipTransferred",
      "type": "event"
    },
    {
      "anonymous": false,
      "inputs": [
        {
          "indexed": false,
          "internalType": "uint256",
          "name": "order_id",
          "type": "uint256"
        },
        {
          "indexed": false,
          "internalType": "uint256",
          "name": "snapshotIndex",
          "type": "uint256"
        }
      ],
      "name": "TrailingOrderCreated",
      "type": "event"
    },
    {
      "anonymous": false,
      "inputs": [
        {
          "indexed": false,
          "internalType": "uint256",
          "name": "order_id",
          "type": "uint256"
        }
      ],
      "name": "TrailingOrderFilled",
      "type": "event"
    },
    {
      "inputs": [
        {
          "internalType": "contract IAmm",
          "name": "_asset",
          "type": "address"
        },
        {
          "components": [
            {
              "internalType": "uint256",
              "name": "d",
              "type": "uint256"
            }
          ],
          "internalType": "struct Decimal.decimal",
          "name": "_limitPrice",
          "type": "tuple"
        },
        {
          "components": [
            {
              "internalType": "int256",
              "name": "d",
              "type": "int256"
            }
          ],
          "internalType": "struct SignedDecimal.signedDecimal",
          "name": "_positionSize",
          "type": "tuple"
        },
        {
          "components": [
            {
              "internalType": "uint256",
              "name": "d",
              "type": "uint256"
            }
          ],
          "internalType": "struct Decimal.decimal",
          "name": "_collateral",
          "type": "tuple"
        },
        {
          "components": [
            {
              "internalType": "uint256",
              "name": "d",
              "type": "uint256"
            }
          ],
          "internalType": "struct Decimal.decimal",
          "name": "_leverage",
          "type": "tuple"
        },
        {
          "components": [
            {
              "internalType": "uint256",
              "name": "d",
              "type": "uint256"
            }
          ],
          "internalType": "struct Decimal.decimal",
          "name": "_slippage",
          "type": "tuple"
        },
        {
          "components": [
            {
              "internalType": "uint256",
              "name": "d",
              "type": "uint256"
            }
          ],
          "internalType": "struct Decimal.decimal",
          "name": "_tipFee",
          "type": "tuple"
        },
        {
          "internalType": "bool",
          "name": "_reduceOnly",
          "type": "bool"
        },
        {
          "internalType": "uint256",
          "name": "_expiry",
          "type": "uint256"
        }
      ],
      "name": "addLimitOrder",
      "outputs": [],
      "stateMutability": "nonpayable",
      "type": "function"
    },
    {
      "inputs": [
        {
          "internalType": "contract IAmm",
          "name": "_asset",
          "type": "address"
        },
        {
          "components": [
            {
              "internalType": "uint256",
              "name": "d",
              "type": "uint256"
            }
          ],
          "internalType": "struct Decimal.decimal",
          "name": "_stopPrice",
          "type": "tuple"
        },
        {
          "components": [
            {
              "internalType": "uint256",
              "name": "d",
              "type": "uint256"
            }
          ],
          "internalType": "struct Decimal.decimal",
          "name": "_limitPrice",
          "type": "tuple"
        },
        {
          "components": [
            {
              "internalType": "int256",
              "name": "d",
              "type": "int256"
            }
          ],
          "internalType": "struct SignedDecimal.signedDecimal",
          "name": "_positionSize",
          "type": "tuple"
        },
        {
          "components": [
            {
              "internalType": "uint256",
              "name": "d",
              "type": "uint256"
            }
          ],
          "internalType": "struct Decimal.decimal",
          "name": "_collateral",
          "type": "tuple"
        },
        {
          "components": [
            {
              "internalType": "uint256",
              "name": "d",
              "type": "uint256"
            }
          ],
          "internalType": "struct Decimal.decimal",
          "name": "_leverage",
          "type": "tuple"
        },
        {
          "components": [
            {
              "internalType": "uint256",
              "name": "d",
              "type": "uint256"
            }
          ],
          "internalType": "struct Decimal.decimal",
          "name": "_slippage",
          "type": "tuple"
        },
        {
          "components": [
            {
              "internalType": "uint256",
              "name": "d",
              "type": "uint256"
            }
          ],
          "internalType": "struct Decimal.decimal",
          "name": "_tipFee",
          "type": "tuple"
        },
        {
          "internalType": "bool",
          "name": "_reduceOnly",
          "type": "bool"
        },
        {
          "internalType": "uint256",
          "name": "_expiry",
          "type": "uint256"
        }
      ],
      "name": "addStopLimitOrder",
      "outputs": [],
      "stateMutability": "nonpayable",
      "type": "function"
    },
    {
      "inputs": [
        {
          "internalType": "contract IAmm",
          "name": "_asset",
          "type": "address"
        },
        {
          "components": [
            {
              "internalType": "uint256",
              "name": "d",
              "type": "uint256"
            }
          ],
          "internalType": "struct Decimal.decimal",
          "name": "_stopPrice",
          "type": "tuple"
        },
        {
          "components": [
            {
              "internalType": "int256",
              "name": "d",
              "type": "int256"
            }
          ],
          "internalType": "struct SignedDecimal.signedDecimal",
          "name": "_positionSize",
          "type": "tuple"
        },
        {
          "components": [
            {
              "internalType": "uint256",
              "name": "d",
              "type": "uint256"
            }
          ],
          "internalType": "struct Decimal.decimal",
          "name": "_collateral",
          "type": "tuple"
        },
        {
          "components": [
            {
              "internalType": "uint256",
              "name": "d",
              "type": "uint256"
            }
          ],
          "internalType": "struct Decimal.decimal",
          "name": "_leverage",
          "type": "tuple"
        },
        {
          "components": [
            {
              "internalType": "uint256",
              "name": "d",
              "type": "uint256"
            }
          ],
          "internalType": "struct Decimal.decimal",
          "name": "_slippage",
          "type": "tuple"
        },
        {
          "components": [
            {
              "internalType": "uint256",
              "name": "d",
              "type": "uint256"
            }
          ],
          "internalType": "struct Decimal.decimal",
          "name": "_tipFee",
          "type": "tuple"
        },
        {
          "internalType": "bool",
          "name": "_reduceOnly",
          "type": "bool"
        },
        {
          "internalType": "uint256",
          "name": "_expiry",
          "type": "uint256"
        }
      ],
      "name": "addStopOrder",
      "outputs": [],
      "stateMutability": "nonpayable",
      "type": "function"
    },
    {
      "inputs": [
        {
          "internalType": "contract IAmm",
          "name": "_asset",
          "type": "address"
        },
        {
          "components": [
            {
              "internalType": "uint256",
              "name": "d",
              "type": "uint256"
            }
          ],
          "internalType": "struct Decimal.decimal",
          "name": "_trail",
          "type": "tuple"
        },
        {
          "components": [
            {
              "internalType": "uint256",
              "name": "d",
              "type": "uint256"
            }
          ],
          "internalType": "struct Decimal.decimal",
          "name": "_gap",
          "type": "tuple"
        },
        {
          "components": [
            {
              "internalType": "int256",
              "name": "d",
              "type": "int256"
            }
          ],
          "internalType": "struct SignedDecimal.signedDecimal",
          "name": "_positionSize",
          "type": "tuple"
        },
        {
          "components": [
            {
              "internalType": "uint256",
              "name": "d",
              "type": "uint256"
            }
          ],
          "internalType": "struct Decimal.decimal",
          "name": "_collateral",
          "type": "tuple"
        },
        {
          "components": [
            {
              "internalType": "uint256",
              "name": "d",
              "type": "uint256"
            }
          ],
          "internalType": "struct Decimal.decimal",
          "name": "_leverage",
          "type": "tuple"
        },
        {
          "components": [
            {
              "internalType": "uint256",
              "name": "d",
              "type": "uint256"
            }
          ],
          "internalType": "struct Decimal.decimal",
          "name": "_slippage",
          "type": "tuple"
        },
        {
          "components": [
            {
              "internalType": "uint256",
              "name": "d",
              "type": "uint256"
            }
          ],
          "internalType": "struct Decimal.decimal",
          "name": "_tipFee",
          "type": "tuple"
        },
        {
          "internalType": "bool",
          "name": "_reduceOnly",
          "type": "bool"
        },
        {
          "internalType": "uint256",
          "name": "_expiry",
          "type": "uint256"
        }
      ],
      "name": "addTrailingStopLimitOrderAbs",
      "outputs": [],
      "stateMutability": "nonpayable",
      "type": "function"
    },
    {
      "inputs": [
        {
          "internalType": "contract IAmm",
          "name": "_asset",
          "type": "address"
        },
        {
          "components": [
            {
              "internalType": "uint256",
              "name": "d",
              "type": "uint256"
            }
          ],
          "internalType": "struct Decimal.decimal",
          "name": "_trailPct",
          "type": "tuple"
        },
        {
          "components": [
            {
              "internalType": "uint256",
              "name": "d",
              "type": "uint256"
            }
          ],
          "internalType": "struct Decimal.decimal",
          "name": "_gapPct",
          "type": "tuple"
        },
        {
          "components": [
            {
              "internalType": "int256",
              "name": "d",
              "type": "int256"
            }
          ],
          "internalType": "struct SignedDecimal.signedDecimal",
          "name": "_positionSize",
          "type": "tuple"
        },
        {
          "components": [
            {
              "internalType": "uint256",
              "name": "d",
              "type": "uint256"
            }
          ],
          "internalType": "struct Decimal.decimal",
          "name": "_collateral",
          "type": "tuple"
        },
        {
          "components": [
            {
              "internalType": "uint256",
              "name": "d",
              "type": "uint256"
            }
          ],
          "internalType": "struct Decimal.decimal",
          "name": "_leverage",
          "type": "tuple"
        },
        {
          "components": [
            {
              "internalType": "uint256",
              "name": "d",
              "type": "uint256"
            }
          ],
          "internalType": "struct Decimal.decimal",
          "name": "_slippage",
          "type": "tuple"
        },
        {
          "components": [
            {
              "internalType": "uint256",
              "name": "d",
              "type": "uint256"
            }
          ],
          "internalType": "struct Decimal.decimal",
          "name": "_tipFee",
          "type": "tuple"
        },
        {
          "internalType": "bool",
          "name": "_reduceOnly",
          "type": "bool"
        },
        {
          "internalType": "uint256",
          "name": "_expiry",
          "type": "uint256"
        }
      ],
      "name": "addTrailingStopLimitOrderPct",
      "outputs": [],
      "stateMutability": "nonpayable",
      "type": "function"
    },
    {
      "inputs": [
        {
          "internalType": "contract IAmm",
          "name": "_asset",
          "type": "address"
        },
        {
          "components": [
            {
              "internalType": "uint256",
              "name": "d",
              "type": "uint256"
            }
          ],
          "internalType": "struct Decimal.decimal",
          "name": "_trail",
          "type": "tuple"
        },
        {
          "components": [
            {
              "internalType": "int256",
              "name": "d",
              "type": "int256"
            }
          ],
          "internalType": "struct SignedDecimal.signedDecimal",
          "name": "_positionSize",
          "type": "tuple"
        },
        {
          "components": [
            {
              "internalType": "uint256",
              "name": "d",
              "type": "uint256"
            }
          ],
          "internalType": "struct Decimal.decimal",
          "name": "_collateral",
          "type": "tuple"
        },
        {
          "components": [
            {
              "internalType": "uint256",
              "name": "d",
              "type": "uint256"
            }
          ],
          "internalType": "struct Decimal.decimal",
          "name": "_leverage",
          "type": "tuple"
        },
        {
          "components": [
            {
              "internalType": "uint256",
              "name": "d",
              "type": "uint256"
            }
          ],
          "internalType": "struct Decimal.decimal",
          "name": "_tipFee",
          "type": "tuple"
        },
        {
          "internalType": "bool",
          "name": "_reduceOnly",
          "type": "bool"
        },
        {
          "internalType": "uint256",
          "name": "_expiry",
          "type": "uint256"
        }
      ],
      "name": "addTrailingStopMarketOrderAbs",
      "outputs": [],
      "stateMutability": "nonpayable",
      "type": "function"
    },
    {
      "inputs": [
        {
          "internalType": "contract IAmm",
          "name": "_asset",
          "type": "address"
        },
        {
          "components": [
            {
              "internalType": "uint256",
              "name": "d",
              "type": "uint256"
            }
          ],
          "internalType": "struct Decimal.decimal",
          "name": "_trailPct",
          "type": "tuple"
        },
        {
          "components": [
            {
              "internalType": "int256",
              "name": "d",
              "type": "int256"
            }
          ],
          "internalType": "struct SignedDecimal.signedDecimal",
          "name": "_positionSize",
          "type": "tuple"
        },
        {
          "components": [
            {
              "internalType": "uint256",
              "name": "d",
              "type": "uint256"
            }
          ],
          "internalType": "struct Decimal.decimal",
          "name": "_collateral",
          "type": "tuple"
        },
        {
          "components": [
            {
              "internalType": "uint256",
              "name": "d",
              "type": "uint256"
            }
          ],
          "internalType": "struct Decimal.decimal",
          "name": "_leverage",
          "type": "tuple"
        },
        {
          "components": [
            {
              "internalType": "uint256",
              "name": "d",
              "type": "uint256"
            }
          ],
          "internalType": "struct Decimal.decimal",
          "name": "_tipFee",
          "type": "tuple"
        },
        {
          "internalType": "bool",
          "name": "_reduceOnly",
          "type": "bool"
        },
        {
          "internalType": "uint256",
          "name": "_expiry",
          "type": "uint256"
        }
      ],
      "name": "addTrailingStopMarketOrderPct",
      "outputs": [],
      "stateMutability": "nonpayable",
      "type": "function"
    },
    {
      "inputs": [
        {
          "components": [
            {
              "internalType": "uint256",
              "name": "d",
              "type": "uint256"
            }
          ],
          "internalType": "struct Decimal.decimal",
          "name": "_fee",
          "type": "tuple"
        }
      ],
      "name": "changeMinimumFee",
      "outputs": [],
      "stateMutability": "nonpayable",
      "type": "function"
    },
    {
      "inputs": [
        {
          "internalType": "uint256",
          "name": "order_id",
          "type": "uint256"
        }
      ],
      "name": "deleteOrder",
      "outputs": [],
      "stateMutability": "nonpayable",
      "type": "function"
    },
    {
      "inputs": [
        {
          "internalType": "uint256",
          "name": "order_id",
          "type": "uint256"
        }
      ],
      "name": "execute",
      "outputs": [],
      "stateMutability": "nonpayable",
      "type": "function"
    },
    {
      "inputs": [],
      "name": "factory",
      "outputs": [
        {
          "internalType": "contract SmartWalletFactory",
          "name": "",
          "type": "address"
        }
      ],
      "stateMutability": "view",
      "type": "function"
    },
    {
      "inputs": [
        {
          "internalType": "uint256",
          "name": "order_id",
          "type": "uint256"
        }
      ],
      "name": "getLimitOrder",
      "outputs": [
        {
          "components": [
            {
              "internalType": "address",
              "name": "asset",
              "type": "address"
            },
            {
              "internalType": "address",
              "name": "trader",
              "type": "address"
            },
            {
              "internalType": "bool",
              "name": "reduceOnly",
              "type": "bool"
            },
            {
              "internalType": "bool",
              "name": "stillValid",
              "type": "bool"
            },
            {
              "internalType": "enum LimitOrderBook.OrderType",
              "name": "orderType",
              "type": "uint8"
            },
            {
              "internalType": "uint256",
              "name": "expiry",
              "type": "uint256"
            },
            {
              "components": [
                {
                  "internalType": "uint256",
                  "name": "d",
                  "type": "uint256"
                }
              ],
              "internalType": "struct Decimal.decimal",
              "name": "stopPrice",
              "type": "tuple"
            },
            {
              "components": [
                {
                  "internalType": "uint256",
                  "name": "d",
                  "type": "uint256"
                }
              ],
              "internalType": "struct Decimal.decimal",
              "name": "limitPrice",
              "type": "tuple"
            },
            {
              "components": [
                {
                  "internalType": "int256",
                  "name": "d",
                  "type": "int256"
                }
              ],
              "internalType": "struct SignedDecimal.signedDecimal",
              "name": "orderSize",
              "type": "tuple"
            },
            {
              "components": [
                {
                  "internalType": "uint256",
                  "name": "d",
                  "type": "uint256"
                }
              ],
              "internalType": "struct Decimal.decimal",
              "name": "collateral",
              "type": "tuple"
            },
            {
              "components": [
                {
                  "internalType": "uint256",
                  "name": "d",
                  "type": "uint256"
                }
              ],
              "internalType": "struct Decimal.decimal",
              "name": "leverage",
              "type": "tuple"
            },
            {
              "components": [
                {
                  "internalType": "uint256",
                  "name": "d",
                  "type": "uint256"
                }
              ],
              "internalType": "struct Decimal.decimal",
              "name": "slippage",
              "type": "tuple"
            },
            {
              "components": [
                {
                  "internalType": "uint256",
                  "name": "d",
                  "type": "uint256"
                }
              ],
              "internalType": "struct Decimal.decimal",
              "name": "tipFee",
              "type": "tuple"
            }
          ],
          "internalType": "struct LimitOrderBook.LimitOrder",
          "name": "",
          "type": "tuple"
        }
      ],
      "stateMutability": "view",
      "type": "function"
    },
    {
      "inputs": [
        {
          "internalType": "uint256",
          "name": "id",
          "type": "uint256"
        }
      ],
      "name": "getLimitOrderParams",
      "outputs": [
        {
          "internalType": "address",
          "name": "",
          "type": "address"
        },
        {
          "internalType": "address",
          "name": "",
          "type": "address"
        },
        {
          "internalType": "enum LimitOrderBook.OrderType",
          "name": "",
          "type": "uint8"
        },
        {
          "internalType": "bool",
          "name": "",
          "type": "bool"
        },
        {
          "internalType": "bool",
          "name": "",
          "type": "bool"
        },
        {
          "internalType": "uint256",
          "name": "",
          "type": "uint256"
        }
      ],
      "stateMutability": "view",
      "type": "function"
    },
    {
      "inputs": [
        {
          "internalType": "uint256",
          "name": "id",
          "type": "uint256"
        }
      ],
      "name": "getLimitOrderPrices",
      "outputs": [
        {
          "components": [
            {
              "internalType": "uint256",
              "name": "d",
              "type": "uint256"
            }
          ],
          "internalType": "struct Decimal.decimal",
          "name": "",
          "type": "tuple"
        },
        {
          "components": [
            {
              "internalType": "uint256",
              "name": "d",
              "type": "uint256"
            }
          ],
          "internalType": "struct Decimal.decimal",
          "name": "",
          "type": "tuple"
        },
        {
          "components": [
            {
              "internalType": "int256",
              "name": "d",
              "type": "int256"
            }
          ],
          "internalType": "struct SignedDecimal.signedDecimal",
          "name": "",
          "type": "tuple"
        },
        {
          "components": [
            {
              "internalType": "uint256",
              "name": "d",
              "type": "uint256"
            }
          ],
          "internalType": "struct Decimal.decimal",
          "name": "",
          "type": "tuple"
        },
        {
          "components": [
            {
              "internalType": "uint256",
              "name": "d",
              "type": "uint256"
            }
          ],
          "internalType": "struct Decimal.decimal",
          "name": "",
          "type": "tuple"
        },
        {
          "components": [
            {
              "internalType": "uint256",
              "name": "d",
              "type": "uint256"
            }
          ],
          "internalType": "struct Decimal.decimal",
          "name": "",
          "type": "tuple"
        },
        {
          "components": [
            {
              "internalType": "uint256",
              "name": "d",
              "type": "uint256"
            }
          ],
          "internalType": "struct Decimal.decimal",
          "name": "",
          "type": "tuple"
        }
      ],
      "stateMutability": "view",
      "type": "function"
    },
    {
      "inputs": [],
      "name": "getNumberOrders",
      "outputs": [
        {
          "internalType": "uint256",
          "name": "",
          "type": "uint256"
        }
      ],
      "stateMutability": "view",
      "type": "function"
    },
    {
      "inputs": [
        {
          "internalType": "contract IAmm",
          "name": "_asset",
          "type": "address"
        },
        {
          "internalType": "uint256",
          "name": "_snapshotIndex",
          "type": "uint256"
        }
      ],
      "name": "getPriceAtSnapshot",
      "outputs": [
        {
          "components": [
            {
              "internalType": "uint256",
              "name": "d",
              "type": "uint256"
            }
          ],
          "internalType": "struct Decimal.decimal",
          "name": "",
          "type": "tuple"
        }
      ],
      "stateMutability": "view",
      "type": "function"
    },
    {
      "inputs": [
        {
          "internalType": "uint256",
          "name": "order_id",
          "type": "uint256"
        }
      ],
      "name": "getTrailingData",
      "outputs": [
        {
          "components": [
            {
              "components": [
                {
                  "internalType": "uint256",
                  "name": "d",
                  "type": "uint256"
                }
              ],
              "internalType": "struct Decimal.decimal",
              "name": "witnessPrice",
              "type": "tuple"
            },
            {
              "components": [
                {
                  "internalType": "uint256",
                  "name": "d",
                  "type": "uint256"
                }
              ],
              "internalType": "struct Decimal.decimal",
              "name": "trail",
              "type": "tuple"
            },
            {
              "components": [
                {
                  "internalType": "uint256",
                  "name": "d",
                  "type": "uint256"
                }
              ],
              "internalType": "struct Decimal.decimal",
              "name": "trailPct",
              "type": "tuple"
            },
            {
              "components": [
                {
                  "internalType": "uint256",
                  "name": "d",
                  "type": "uint256"
                }
              ],
              "internalType": "struct Decimal.decimal",
              "name": "gap",
              "type": "tuple"
            },
            {
              "components": [
                {
                  "internalType": "uint256",
                  "name": "d",
                  "type": "uint256"
                }
              ],
              "internalType": "struct Decimal.decimal",
              "name": "gapPct",
              "type": "tuple"
            },
            {
              "internalType": "uint256",
              "name": "snapshotCreated",
              "type": "uint256"
            },
            {
              "internalType": "uint256",
              "name": "snapshotLastUpdated",
              "type": "uint256"
            },
            {
              "internalType": "uint256",
              "name": "snapshotTimestamp",
              "type": "uint256"
            },
            {
              "internalType": "address",
              "name": "lastUpdatedKeeper",
              "type": "address"
            },
            {
              "internalType": "bool",
              "name": "usePct",
              "type": "bool"
            }
          ],
          "internalType": "struct LimitOrderBook.TrailingOrderData",
          "name": "",
          "type": "tuple"
        }
      ],
      "stateMutability": "view",
      "type": "function"
    },
    {
      "inputs": [],
      "name": "minimumTipFee",
      "outputs": [
        {
          "internalType": "uint256",
          "name": "d",
          "type": "uint256"
        }
      ],
      "stateMutability": "view",
      "type": "function"
    },
    {
      "inputs": [
        {
          "internalType": "uint256",
          "name": "order_id",
          "type": "uint256"
        },
        {
          "components": [
            {
              "internalType": "uint256",
              "name": "d",
              "type": "uint256"
            }
          ],
          "internalType": "struct Decimal.decimal",
          "name": "_stopPrice",
          "type": "tuple"
        },
        {
          "components": [
            {
              "internalType": "uint256",
              "name": "d",
              "type": "uint256"
            }
          ],
          "internalType": "struct Decimal.decimal",
          "name": "_limitPrice",
          "type": "tuple"
        },
        {
          "components": [
            {
              "internalType": "int256",
              "name": "d",
              "type": "int256"
            }
          ],
          "internalType": "struct SignedDecimal.signedDecimal",
          "name": "_orderSize",
          "type": "tuple"
        },
        {
          "components": [
            {
              "internalType": "uint256",
              "name": "d",
              "type": "uint256"
            }
          ],
          "internalType": "struct Decimal.decimal",
          "name": "_collateral",
          "type": "tuple"
        },
        {
          "components": [
            {
              "internalType": "uint256",
              "name": "d",
              "type": "uint256"
            }
          ],
          "internalType": "struct Decimal.decimal",
          "name": "_leverage",
          "type": "tuple"
        },
        {
          "components": [
            {
              "internalType": "uint256",
              "name": "d",
              "type": "uint256"
            }
          ],
          "internalType": "struct Decimal.decimal",
          "name": "_slippage",
          "type": "tuple"
        },
        {
          "internalType": "bool",
          "name": "_reduceOnly",
          "type": "bool"
        },
        {
          "internalType": "uint256",
          "name": "_expiry",
          "type": "uint256"
        }
      ],
      "name": "modifyOrder",
      "outputs": [],
      "stateMutability": "nonpayable",
      "type": "function"
    },
    {
      "inputs": [
        {
          "internalType": "uint256",
          "name": "order_id",
          "type": "uint256"
        },
        {
          "components": [
            {
              "internalType": "uint256",
              "name": "d",
              "type": "uint256"
            }
          ],
          "internalType": "struct Decimal.decimal",
          "name": "_newStop",
          "type": "tuple"
        },
        {
          "components": [
            {
              "internalType": "uint256",
              "name": "d",
              "type": "uint256"
            }
          ],
          "internalType": "struct Decimal.decimal",
          "name": "_newLimit",
          "type": "tuple"
        },
        {
          "components": [
            {
              "internalType": "int256",
              "name": "d",
              "type": "int256"
            }
          ],
          "internalType": "struct SignedDecimal.signedDecimal",
          "name": "_orderSize",
          "type": "tuple"
        },
        {
          "components": [
            {
              "internalType": "uint256",
              "name": "d",
              "type": "uint256"
            }
          ],
          "internalType": "struct Decimal.decimal",
          "name": "_collateral",
          "type": "tuple"
        },
        {
          "components": [
            {
              "internalType": "uint256",
              "name": "d",
              "type": "uint256"
            }
          ],
          "internalType": "struct Decimal.decimal",
          "name": "_leverage",
          "type": "tuple"
        },
        {
          "components": [
            {
              "internalType": "uint256",
              "name": "d",
              "type": "uint256"
            }
          ],
          "internalType": "struct Decimal.decimal",
          "name": "_slippage",
          "type": "tuple"
        },
        {
          "internalType": "bool",
          "name": "_reduceOnly",
          "type": "bool"
        },
        {
          "internalType": "uint256",
          "name": "_expiry",
          "type": "uint256"
        }
      ],
      "name": "modifyTrailingOrder",
      "outputs": [],
      "stateMutability": "nonpayable",
      "type": "function"
    },
    {
      "inputs": [
        {
          "internalType": "uint256",
          "name": "",
          "type": "uint256"
        }
      ],
      "name": "orders",
      "outputs": [
        {
          "internalType": "address",
          "name": "asset",
          "type": "address"
        },
        {
          "internalType": "address",
          "name": "trader",
          "type": "address"
        },
        {
          "internalType": "bool",
          "name": "reduceOnly",
          "type": "bool"
        },
        {
          "internalType": "bool",
          "name": "stillValid",
          "type": "bool"
        },
        {
          "internalType": "enum LimitOrderBook.OrderType",
          "name": "orderType",
          "type": "uint8"
        },
        {
          "internalType": "uint256",
          "name": "expiry",
          "type": "uint256"
        },
        {
          "components": [
            {
              "internalType": "uint256",
              "name": "d",
              "type": "uint256"
            }
          ],
          "internalType": "struct Decimal.decimal",
          "name": "stopPrice",
          "type": "tuple"
        },
        {
          "components": [
            {
              "internalType": "uint256",
              "name": "d",
              "type": "uint256"
            }
          ],
          "internalType": "struct Decimal.decimal",
          "name": "limitPrice",
          "type": "tuple"
        },
        {
          "components": [
            {
              "internalType": "int256",
              "name": "d",
              "type": "int256"
            }
          ],
          "internalType": "struct SignedDecimal.signedDecimal",
          "name": "orderSize",
          "type": "tuple"
        },
        {
          "components": [
            {
              "internalType": "uint256",
              "name": "d",
              "type": "uint256"
            }
          ],
          "internalType": "struct Decimal.decimal",
          "name": "collateral",
          "type": "tuple"
        },
        {
          "components": [
            {
              "internalType": "uint256",
              "name": "d",
              "type": "uint256"
            }
          ],
          "internalType": "struct Decimal.decimal",
          "name": "leverage",
          "type": "tuple"
        },
        {
          "components": [
            {
              "internalType": "uint256",
              "name": "d",
              "type": "uint256"
            }
          ],
          "internalType": "struct Decimal.decimal",
          "name": "slippage",
          "type": "tuple"
        },
        {
          "components": [
            {
              "internalType": "uint256",
              "name": "d",
              "type": "uint256"
            }
          ],
          "internalType": "struct Decimal.decimal",
          "name": "tipFee",
          "type": "tuple"
        }
      ],
      "stateMutability": "view",
      "type": "function"
    },
    {
      "inputs": [],
      "name": "owner",
      "outputs": [
        {
          "internalType": "address",
          "name": "",
          "type": "address"
        }
      ],
      "stateMutability": "view",
      "type": "function"
    },
    {
      "inputs": [
        {
          "internalType": "uint256",
          "name": "order_id",
          "type": "uint256"
        },
        {
          "internalType": "uint256",
          "name": "_reserveIndex",
          "type": "uint256"
        }
      ],
      "name": "pokeContract",
      "outputs": [],
      "stateMutability": "nonpayable",
      "type": "function"
    },
    {
      "inputs": [],
      "name": "pokeContractDelay",
      "outputs": [
        {
          "internalType": "uint256",
          "name": "",
          "type": "uint256"
        }
      ],
      "stateMutability": "view",
      "type": "function"
    },
    {
      "inputs": [],
      "name": "renounceOwnership",
      "outputs": [],
      "stateMutability": "nonpayable",
      "type": "function"
    },
    {
      "inputs": [
        {
          "internalType": "address",
          "name": "_addr",
          "type": "address"
        }
      ],
      "name": "setFactory",
      "outputs": [],
      "stateMutability": "nonpayable",
      "type": "function"
    },
    {
      "inputs": [
        {
          "internalType": "uint256",
          "name": "",
          "type": "uint256"
        }
      ],
      "name": "trailingOrders",
      "outputs": [
        {
          "components": [
            {
              "internalType": "uint256",
              "name": "d",
              "type": "uint256"
            }
          ],
          "internalType": "struct Decimal.decimal",
          "name": "witnessPrice",
          "type": "tuple"
        },
        {
          "components": [
            {
              "internalType": "uint256",
              "name": "d",
              "type": "uint256"
            }
          ],
          "internalType": "struct Decimal.decimal",
          "name": "trail",
          "type": "tuple"
        },
        {
          "components": [
            {
              "internalType": "uint256",
              "name": "d",
              "type": "uint256"
            }
          ],
          "internalType": "struct Decimal.decimal",
          "name": "trailPct",
          "type": "tuple"
        },
        {
          "components": [
            {
              "internalType": "uint256",
              "name": "d",
              "type": "uint256"
            }
          ],
          "internalType": "struct Decimal.decimal",
          "name": "gap",
          "type": "tuple"
        },
        {
          "components": [
            {
              "internalType": "uint256",
              "name": "d",
              "type": "uint256"
            }
          ],
          "internalType": "struct Decimal.decimal",
          "name": "gapPct",
          "type": "tuple"
        },
        {
          "internalType": "uint256",
          "name": "snapshotCreated",
          "type": "uint256"
        },
        {
          "internalType": "uint256",
          "name": "snapshotLastUpdated",
          "type": "uint256"
        },
        {
          "internalType": "uint256",
          "name": "snapshotTimestamp",
          "type": "uint256"
        },
        {
          "internalType": "address",
          "name": "lastUpdatedKeeper",
          "type": "address"
        },
        {
          "internalType": "bool",
          "name": "usePct",
          "type": "bool"
        }
      ],
      "stateMutability": "view",
      "type": "function"
    },
    {
      "inputs": [
        {
          "internalType": "address",
          "name": "newOwner",
          "type": "address"
        }
      ],
      "name": "transferOwnership",
      "outputs": [],
      "stateMutability": "nonpayable",
      "type": "function"
    }
  ],
  "bytecode": "0x60806040526102586037553480156200001757600080fd5b5060006200002d6001600160e01b036200007d16565b600080546001600160a01b0319166001600160a01b0383169081178255604051929350917f8be0079c531659141344cd1fd0a4f28419497f9722a3daafe3b4186f6b6457e0908290a35062000081565b3390565b61495f80620000916000396000f3fe608060405234801561001057600080fd5b50600436106101c45760003560e01c80638ceddd77116100f9578063c45a015511610097578063e54ff5e511610071578063e54ff5e5146103ed578063f0d840d7146103f5578063f2fde38b14610415578063fe0d94c114610428576101c4565b8063c45a0155146103ac578063dc4cb107146103b4578063e36a2dc0146103c7576101c4565b8063af52775d116100d3578063af52775d1461034a578063b96bb8061461035d578063bc9aa8c314610370578063c01fd7a414610383576101c4565b80638ceddd77146103015780638da5cb5b14610309578063a85c38ef1461031e576101c4565b80634c5789e3116101665780635bb47808116101405780635bb47808146102b35780636bef7493146102c6578063715018a6146102e657806386f89642146102ee576101c4565b80634c5789e31461025b57806353061026146102805780635ad86447146102a0576101c4565b80632736f620116101a25780632736f6201461020f57806334c19830146102225780634885fd58146102355780634b5924af14610248576101c4565b8063032e4f6e146101c95780630c39bb7a146101de57806311a00327146101fc575b600080fd5b6101dc6101d7366004613b5d565b61043b565b005b6101e66104a0565b6040516101f3919061488f565b60405180910390f35b6101dc61020a366004613cc1565b6104a6565b6101dc61021d366004613b5d565b61061b565b6101dc610230366004613d20565b610675565b6101dc610243366004613c8b565b6108a9565b6101dc610256366004613ac3565b6108ee565b61026e610269366004613cc1565b610974565b6040516101f396959493929190613e44565b61029361028e366004613cc1565b610b13565b6040516101f39190614662565b6101dc6102ae366004613a04565b610c6f565b6101dc6102c13660046139b0565b610d1c565b6102d96102d4366004613c09565b610d8a565b6040516101f39190614807565b6101dc610ee2565b6101dc6102fc366004613a04565b610f78565b6101e661100a565b610311611010565b6040516101f39190613d82565b61033161032c366004613cc1565b61101f565b6040516101f39d9c9b9a99989796959493929190613d96565b6101dc610358366004613cf1565b6110ed565b6101dc61036b366004613a04565b61149d565b6101dc61037e366004613cf1565b611536565b610396610391366004613cc1565b6118ad565b6040516101f39a99989796959493929190614811565b61031161193f565b6101dc6103c2366004613ac3565b61194e565b6103da6103d5366004613cc1565b6119af565b6040516101f3979695949392919061485e565b6101e6611b8e565b610408610403366004613cc1565b611b94565b6040516101f39190614761565b6101dc6104233660046139b0565b611c5c565b6101dc610436366004613cc1565b611d29565b61047a886040518060400160405280601381526020017f53746f702063616e6e6f74206265207a65726f0000000000000000000000000081525061229e565b6104958960028a6104896122cb565b8b8b8b8b8b8b8b6122e6565b505050505050505050565b60385481565b80603481815481106104b457fe5b60009182526020909120600a90910201600101546001600160a01b031633146104f85760405162461bcd60e51b81526004016104ef9061462b565b60405180910390fd5b6034548290811061051b5760405162461bcd60e51b81526004016104ef906143dd565b6034838154811061052857fe5b600091825260209091206001600a9092020101546040516001600160a01b03909116907f9839c5aee45262b904f4ede97f671e296b41355f52a965a7076f4d4db9321d4b9061057890869061488f565b60405180910390a26034838154811061058d57fe5b600091825260208220600a90910201805473ffffffffffffffffffffffffffffffffffffffff191681556001810180547fffffffffffffffffff00000000000000000000000000000000000000000000001690556002810182905560038101829055600481018290556005810182905560068101829055600781018290556008810182905560090155505050565b61065a886040518060400160405280601481526020017f4c696d69742063616e6e6f74206265207a65726f00000000000000000000000081525061229e565b6104958960016106686122cb565b8b8b8b8b8b8b8b8b6122e6565b60006034838154811061068457fe5b60009182526020909120600a9091020160010154600160b01b900460ff16905060048160058111156106b257fe5b14806106c9575060058160058111156106c757fe5b145b6106e55760405162461bcd60e51b81526004016104ef906141ea565b60008381526035602052604090206005015482116107155760405162461bcd60e51b81526004016104ef90613f9e565b60008381526035602052604090206006015482108061074857506037546000848152603560205260409020600701544203115b6107645760405162461bcd60e51b81526004016104ef90614312565b600083815260356020526040812042600790910155603480546107b191908690811061078c57fe5b60009182526020918290206040805193840190526005600a90920201015481526127e4565b6107bc5760016107bf565b60005b90506107c9613812565b6107f9603486815481106107d957fe5b60009182526020909120600a90910201546001600160a01b031685610d8a565b9050816108085760001961080b565b60015b600086815260356020908152604091829020825191820190925290548152600f9190910b90610840908363ffffffff61280216565b60000b146108605760405162461bcd60e51b81526004016104ef90614503565b60008581526035602052604090208151815560068101859055600801805473ffffffffffffffffffffffffffffffffffffffff1916331790556108a285612833565b5050505050565b6108b1612bd4565b6001600160a01b03166108c2611010565b6001600160a01b0316146108e85760405162461bcd60e51b81526004016104ef90614471565b51603855565b61092d876040518060400160405280601481526020017f547261696c2063616e6e6f74206265207a65726f00000000000000000000000081525061229e565b61095688600461093b6122cb565b6109436122cb565b8a8a8a61094e6122cb565b8b8b8b6122e6565b61096a88886109636122cb565b6001612bd8565b5050505050505050565b6000806000806000808660348054905081106109a25760405162461bcd60e51b81526004016104ef906143dd565b6109aa613825565b603489815481106109b757fe5b6000918252602091829020604080516101a081018252600a90930290910180546001600160a01b03908116845260018201549081169484019490945260ff600160a01b85048116151592840192909252600160a81b840482161515606084015291926080840191600160b01b909104166005811115610a3257fe5b6005811115610a3d57fe5b81526002820154602080830191909152604080518083018252600385015481528184015280518083018252600485015481526060808501919091528151808401835260058601548152608080860191909152825180850184526006870154815260a080870191909152835180860185526007880154815260c0870152835180860185526008880154815260e0870152835180860185526009909701548752610100909501959095528551928601519486015191860151908601519590930151919e939d509b509099509197509095509350505050565b610b1b613825565b60345482908110610b3e5760405162461bcd60e51b81526004016104ef906143dd565b60348381548110610b4b57fe5b6000918252602091829020604080516101a081018252600a90930290910180546001600160a01b03908116845260018201549081169484019490945260ff600160a01b85048116151592840192909252600160a81b840482161515606084015291926080840191600160b01b909104166005811115610bc657fe5b6005811115610bd157fe5b8152600282015460208083019190915260408051808301825260038501548152818401528051808301825260048501548152606084015280518083018252600585015481526080840152805180830182526006850154815260a0840152805180830182526007850154815260c0840152805180830182526008850154815260e084015280519182019052600990920154825261010001529392505050565b610cae896040518060400160405280601481526020017f547261696c2063616e6e6f74206265207a65726f00000000000000000000000081525061229e565b610ced886040518060400160405280601281526020017f4761702063616e6e6f74206265207a65726f000000000000000000000000000081525061229e565b610d038a6005610cfb6122cb565b6104896122cb565b610d108a8a8a6000612bd8565b50505050505050505050565b610d24612bd4565b6001600160a01b0316610d35611010565b6001600160a01b031614610d5b5760405162461bcd60e51b81526004016104ef90614471565b6036805473ffffffffffffffffffffffffffffffffffffffff19166001600160a01b0392909216919091179055565b610d92613812565b826001600160a01b0316630d451c8f6040518163ffffffff1660e01b815260040160206040518083038186803b158015610dcb57600080fd5b505afa158015610ddf573d6000803e3d6000fd5b505050506040513d601f19601f82011682018060405250810190610e039190613cd9565b8210610e215760405162461bcd60e51b81526004016104ef90614597565b610e296138b6565b6040517f21e009850000000000000000000000000000000000000000000000000000000081526001600160a01b038516906321e0098590610e6e90869060040161488f565b60806040518083038186803b158015610e8657600080fd5b505afa158015610e9a573d6000803e3d6000fd5b505050506040513d601f19601f82011682018060405250810190610ebe9190613c34565b60208101518151919250610ed8919063ffffffff612fd416565b9150505b92915050565b610eea612bd4565b6001600160a01b0316610efb611010565b6001600160a01b031614610f215760405162461bcd60e51b81526004016104ef90614471565b600080546040516001600160a01b03909116907f8be0079c531659141344cd1fd0a4f28419497f9722a3daafe3b4186f6b6457e0908390a36000805473ffffffffffffffffffffffffffffffffffffffff19169055565b610fb7886040518060400160405280601481526020017f4c696d69742063616e6e6f74206265207a65726f00000000000000000000000081525061229e565b610ff6896040518060400160405280601381526020017f53746f702063616e6e6f74206265207a65726f0000000000000000000000000081525061229e565b610d108a60038b8b8b8b8b8b8b8b8b6122e6565b60345490565b6000546001600160a01b031690565b6034818154811061102c57fe5b6000918252602091829020600a9091020180546001820154600283015460408051808701825260038601548152815180880183526004870154815282518089018452600588015481528351808a018552600689015481528451808b01865260078a015481528551808c01875260088b0154815286519b8c019096526009909901548a526001600160a01b039788169a509686169860ff600160a01b8804811699600160a81b8904821699600160b01b9099049091169794959394929390918d565b88603481815481106110fb57fe5b60009182526020909120600a90910201600101546001600160a01b031633146111365760405162461bcd60e51b81526004016104ef9061462b565b6034548a9081106111595760405162461bcd60e51b81526004016104ef906143dd565b82158061116557508242105b6111815760405162461bcd60e51b81526004016104ef9061410e565b600060348c8154811061119057fe5b600091825260209091206001600a9092020181015460ff600160b01b9091041691508160058111156111be57fe5b14806111d5575060028160058111156111d357fe5b145b806111eb575060038160058111156111e957fe5b145b6112075760405162461bcd60e51b81526004016104ef906145ce565b61124e6112138a613000565b6040518060400160405280601581526020017f43616e6e6f7420646f20656d707479206f72646572000000000000000000000081525061229e565b61128d886040518060400160405280601981526020017f43616e6e6f74207370656e64203020636f6c6c61746572616c0000000000000081525061229e565b6112a561129861302e565b889063ffffffff61280216565b60000b60001914156112c95760405162461bcd60e51b81526004016104ef90613f30565b8a60348d815481106112d757fe5b90600052602060002090600a0201600301600082015181600001559050508960348d8154811061130357fe5b90600052602060002090600a0201600401600082015181600001559050508860348d8154811061132f57fe5b90600052602060002090600a0201600501600082015181600001559050508760348d8154811061135b57fe5b90600052602060002090600a0201600601600082015181600001559050508660348d8154811061138757fe5b90600052602060002090600a0201600701600082015181600001559050508560348d815481106113b357fe5b90600052602060002090600a0201600801600082015181600001559050508460348d815481106113df57fe5b90600052602060002090600a020160010160146101000a81548160ff0219169083151502179055508360348d8154811061141557fe5b90600052602060002090600a02016002018190555060348c8154811061143757fe5b600091825260209091206001600a9092020101546040516001600160a01b03909116907f9839c5aee45262b904f4ede97f671e296b41355f52a965a7076f4d4db9321d4b90611487908f9061488f565b60405180910390a2505050505050505050505050565b6114dc896040518060400160405280601481526020017f547261696c2063616e6e6f74206265207a65726f00000000000000000000000081525061229e565b61151b886040518060400160405280601281526020017f4761702063616e6e6f74206265207a65726f000000000000000000000000000081525061229e565b6115298a6005610cfb6122cb565b610d108a8a8a6001612bd8565b886034818154811061154457fe5b60009182526020909120600a90910201600101546001600160a01b0316331461157f5760405162461bcd60e51b81526004016104ef9061462b565b6034548a9081106115a25760405162461bcd60e51b81526004016104ef906143dd565b8215806115ae57508242105b6115ca5760405162461bcd60e51b81526004016104ef9061410e565b600060348c815481106115d957fe5b60009182526020909120600a9091020160010154600160b01b900460ff169050600481600581111561160757fe5b148061161e5750600581600581111561161c57fe5b145b61163a5760405162461bcd60e51b81526004016104ef90613f67565b6116466112138a613000565b611685886040518060400160405280601981526020017f43616e6e6f74207370656e64203020636f6c6c61746572616c0000000000000081525061229e565b61169061129861302e565b60000b60001914156116b45760405162461bcd60e51b81526004016104ef90613f30565b8860348d815481106116c257fe5b90600052602060002090600a0201600501600082015181600001559050508760348d815481106116ee57fe5b90600052602060002090600a0201600601600082015181600001559050508660348d8154811061171a57fe5b90600052602060002090600a0201600701600082015181600001559050508560348d8154811061174657fe5b90600052602060002090600a0201600801600082015181600001559050508460348d8154811061177257fe5b90600052602060002090600a020160010160146101000a81548160ff0219169083151502179055508360348d815481106117a857fe5b60009182526020808320600a92909202909101600201929092558d815260359091526040902060080154600160a01b900460ff1615611879576117f96117ec61302e565b8c9063ffffffff61280216565b60000b6000191461181c5760405162461bcd60e51b81526004016104ef9061417c565b61183461182761302e565b8b9063ffffffff61280216565b60000b600019146118575760405162461bcd60e51b81526004016104ef9061436f565b60008c81526035602052604090208b5160028201558a51600490910155611897565b60008c81526035602052604090208b5160018201558a516003909101555b6118a08c612833565b60348c8154811061143757fe5b60356020908152600091825260409182902082518083018452815481528351808401855260018301548152845180850186526002840154815285518086018752600385015481528651958601909652600484015485526005840154600685015460078601546008909601549497939692959394929391929091906001600160a01b03811690600160a01b900460ff168a565b6036546001600160a01b031681565b61198d876040518060400160405280601481526020017f547261696c2063616e6e6f74206265207a65726f00000000000000000000000081525061229e565b61199b88600461093b6122cb565b61096a88886119a86122cb565b6000612bd8565b6119b7613812565b6119bf613812565b6119c7613812565b6119cf613812565b6119d7613812565b6119df613812565b6119e7613812565b60345488908110611a0a5760405162461bcd60e51b81526004016104ef906143dd565b611a12613825565b60348a81548110611a1f57fe5b6000918252602091829020604080516101a081018252600a90930290910180546001600160a01b03908116845260018201549081169484019490945260ff600160a01b85048116151592840192909252600160a81b840482161515606084015291926080840191600160b01b909104166005811115611a9a57fe5b6005811115611aa557fe5b8152600282015460208083019190915260408051808301825260038501548152818401528051808301825260048501548152606084015280518083018252600585015481526080840152805180830182526006850154815260a0840152805180830182526007850154815260c080850191909152815180840183526008860154815260e080860191909152825193840190925260099094015482526101009283019190915291830151918301519083015161012084015161014085015161016086015161018090960151949e50929c50909a509850965090945092505050919395979092949650565b60375481565b611b9c6138ea565b50600081815260356020908152604091829020825161016081018452815461014082019081528152835180840185526001830154815281840152835180840185526002830154815281850152835180840185526003830154815260608201528351928301909352600481015482526080830191909152600581015460a0830152600681015460c0830152600781015460e0830152600801546001600160a01b038116610100830152600160a01b900460ff1615156101208201525b919050565b611c64612bd4565b6001600160a01b0316611c75611010565b6001600160a01b031614611c9b5760405162461bcd60e51b81526004016104ef90614471565b6001600160a01b038116611cc15760405162461bcd60e51b81526004016104ef90614043565b600080546040516001600160a01b03808516939216917f8be0079c531659141344cd1fd0a4f28419497f9722a3daafe3b4186f6b6457e091a36000805473ffffffffffffffffffffffffffffffffffffffff19166001600160a01b0392909216919091179055565b60345481908110611d4c5760405162461bcd60e51b81526004016104ef906143dd565b611d54613825565b60348381548110611d6157fe5b6000918252602091829020604080516101a081018252600a90930290910180546001600160a01b03908116845260018201549081169484019490945260ff600160a01b85048116151592840192909252600160a81b840482161515606084015291926080840191600160b01b909104166005811115611ddc57fe5b6005811115611de757fe5b815260028201546020808301919091526040805180830182526003850154815281840152805180830182526004850154815260608085019190915281518084018352600586015481526080850152815180840183526006860154815260a0850152815180840183526007860154815260c0850152815180840183526008860154815260e08501528151928301909152600990930154815261010090910152810151909150611ea75760405162461bcd60e51b81526004016104ef906140a0565b60365460208201516040517fa0b738810000000000000000000000000000000000000000000000000000000081526000926001600160a01b03169163a0b7388191611ef59190600401613d82565b60206040518083038186803b158015611f0d57600080fd5b505afa158015611f21573d6000803e3d6000fd5b505050506040513d601f19601f82011682018060405250810190611f4591906139cc565b90506000816001600160a01b03166394f61134866040518263ffffffff1660e01b8152600401611f75919061488f565b602060405180830381600087803b158015611f8f57600080fd5b505af1158015611fa3573d6000803e3d6000fd5b505050506040513d601f19601f82011682018060405250810190611fc791906139e8565b905080611fe65760405162461bcd60e51b81526004016104ef90614145565b600483608001516005811115611ff857fe5b1480612013575060058360800151600581111561201157fe5b145b1561218f576000858152603560205260409020600801546001600160a01b0316156120c35761206f73ddafbb505ad214d7b80b1f830fccc89b60fb7a833361206a600287610180015161305290919063ffffffff16565b613074565b6000858152603560205260409020600801546101808401516120be9173ddafbb505ad214d7b80b1f830fccc89b60fb7a83916001600160a01b039091169061206a90600263ffffffff61305216565b6120e7565b6120e773ddafbb505ad214d7b80b1f830fccc89b60fb7a8333856101800151613074565b7ffc0ec3e59df0924914ac81382ddd54522bb0c38d2b91b0667f0103cf6502559d85604051612116919061488f565b60405180910390a16000858152603560205260408120818155600181018290556002810182905560038101829055600481018290556005810182905560068101829055600781019190915560080180547fffffffffffffffffffffff0000000000000000000000000000000000000000001690556121b3565b6121b373ddafbb505ad214d7b80b1f830fccc89b60fb7a8333856101800151613074565b603485815481106121c057fe5b60009182526020808320600a909202909101805473ffffffffffffffffffffffffffffffffffffffff191681556001810180547fffffffffffffffffff000000000000000000000000000000000000000000000016905560028101839055600381018390556004810183905560058101839055600681018390556007810183905560088101839055600901919091558301516040516001600160a01b0391909116907f6ac084fe52cc25f2f64ae4aea087b0bf8e92c0a900b2425c1edda1f36c8cab0d9061228f90889061488f565b60405180910390a25050505050565b6122a7826131d0565b81906122c65760405162461bcd60e51b81526004016104ef9190613ec6565b505050565b6122d3613812565b5060408051602081019091526000815290565b8015806122f257508042105b61230e5760405162461bcd60e51b81526004016104ef9061410e565b6040805160208101909152603854815260009061233290859063ffffffff61280216565b60000b12156123535760405162461bcd60e51b81526004016104ef906144a6565b6036546040517fa0b738810000000000000000000000000000000000000000000000000000000081526000916001600160a01b03169063a0b738819061239d903390600401613d82565b60206040518083038186803b1580156123b557600080fd5b505afa1580156123c9573d6000803e3d6000fd5b505050506040513d601f19601f820116820180604052508101906123ed91906139cc565b90506001600160a01b0381166124155760405162461bcd60e51b81526004016104ef906143a6565b6040517f0774a784000000000000000000000000000000000000000000000000000000008152738c29f6f7fc1999ab84b476952e986f974acb382490630774a78490612465908f90600401613d82565b60206040518083038186803b15801561247d57600080fd5b505afa158015612491573d6000803e3d6000fd5b505050506040513d601f19601f820116820180604052508101906124b591906139e8565b6124d15760405162461bcd60e51b81526004016104ef90613ef9565b6124dd61121389613000565b6124f56124e861302e565b869063ffffffff61280216565b60000b600019146125185760405162461bcd60e51b81526004016104ef9061400c565b612557876040518060400160405280601981526020017f43616e6e6f74207370656e64203020636f6c6c61746572616c0000000000000081525061229e565b61256f61256261302e565b879063ffffffff61280216565b60000b60001914156125935760405162461bcd60e51b81526004016104ef90613f30565b6125b373ddafbb505ad214d7b80b1f830fccc89b60fb7a838230876131d4565b60345460405133917fcb0c37c16aa3b0bbb7a817932094d8a20a00996d426a813f067039f0ef87ab07916125e7919061488f565b60405180910390a26034604051806101a001604052808e6001600160a01b03168152602001336001600160a01b0316815260200185151581526020016001151581526020018d600581111561263857fe5b8152602080820186905260408083018f905260608084018f905260808085018f905260a085018e905260c085018d905260e085018c90526101009094018a90528554600181810188556000978852968490208651600a9092020180546001600160a01b0392831673ffffffffffffffffffffffffffffffffffffffff1991821617825594870151978101805494880151938801511515600160a81b027fffffffffffffffffffff00ffffffffffffffffffffffffffffffffffffffffff941515600160a01b027fffffffffffffffffffffff00ffffffffffffffffffffffffffffffffffffffff9a90941695909616949094179790971617169190911780825591830151929392917fffffffffffffffffff00ffffffffffffffffffffffffffffffffffffffffffff16600160b01b83600581111561277357fe5b021790555060a0820151600282015560c082015151600382015560e08201515160048201556101008201515160058201556101208201515160068201556101408201515160078201556101608201515160088201556101809091015151600990910155505050505050505050505050565b600080826000015112156127fa57506001611c57565b506000919050565b80518251600091101561281757506001610edc565b81518351101561282a5750600019610edc565b50600092915050565b61283b613812565b50600081815260356020908152604080832081519283019091525481526034805491929161286e91908590811061078c57fe5b61287957600161287c565b60005b600084815260356020526040902060080154909150600160a01b900460ff1615612a3d576128a8613812565b816128ec57600084815260356020908152604091829020825191820190925260029091015481526128e7906128db61302e565b9063ffffffff61332916565b612926565b600084815260356020908152604091829020825191820190925260029091015481526129269061291a61302e565b9063ffffffff61334c16565b9050612930613812565b826129685760008581526035602090815260409182902082519182019092526004909101548152612963906128db61302e565b612996565b600085815260356020908152604091829020825191820190925260049091015481526129969061291a61302e565b90506129a8848363ffffffff61336f16565b603486815481106129b557fe5b90600052602060002090600a020160030160008201518160000155905050612a1081603487815481106129e457fe5b60009182526020918290206040805193840190526003600a90920201015481529063ffffffff61336f16565b60348681548110612a1d57fe5b6000918252602090912091516004600a9092029092010155506122c69050565b80612a7a5760008381526035602090815260409182902082519182019092526001909101548152612a7590839063ffffffff61332916565b612aad565b60008381526035602090815260409182902082519182019092526001909101548152612aad90839063ffffffff61334c16565b60348481548110612aba57fe5b6000918252602090912091516003600a909202909201015580612b4357612b3e6035600085815260200190815260200160002060030160405180602001604052908160008201548152505060348581548110612b1257fe5b60009182526020918290206040805193840190526003600a90920201015481529063ffffffff61332916565b612baa565b612baa6035600085815260200190815260200160002060030160405180602001604052908160008201548152505060348581548110612b7e57fe5b60009182526020918290206040805193840190526003600a90920201015481529063ffffffff61334c16565b60348481548110612bb757fe5b6000918252602090912091516004600a9092029092010155505050565b3390565b60006001856001600160a01b0316630d451c8f6040518163ffffffff1660e01b815260040160206040518083038186803b158015612c1557600080fd5b505afa158015612c29573d6000803e3d6000fd5b505050506040513d601f19601f82011682018060405250810190612c4d9190613cd9565b603454919003915060001901612c61613812565b866001600160a01b031663dc76fabc6040518163ffffffff1660e01b815260040160206040518083038186803b158015612c9a57600080fd5b505afa158015612cae573d6000803e3d6000fd5b505050506040513d601f19601f82011682018060405250810190612cd29190613ca6565b90508315612e6457612ce561256261302e565b60000b60001914612d085760405162461bcd60e51b81526004016104ef9061417c565b612d136124e861302e565b60000b60001914612d365760405162461bcd60e51b81526004016104ef9061436f565b604051806101400160405280828152602001612d506122cb565b8152602001878152602001612d636122cb565b815260208082018890526040808301879052606080840188905242608080860191909152600060a0808701829052600160c09788018190528a8352603587529185902088515181559588015151918601919091559286015151600285015590850151516003840155840151516004830155830151600582015590820151600682015560e0820151600782015561010082015160089091018054610120909301511515600160a01b027fffffffffffffffffffffff00ffffffffffffffffffffffffffffffffffffffff6001600160a01b039390931673ffffffffffffffffffffffffffffffffffffffff199094169390931791909116919091179055612f89565b604051806101400160405280828152602001878152602001612e846122cb565b8152602001868152602001612e976122cb565b815260208082018690526040808301879052426060808501919091526000608080860182905260a095860182905288825260358552908390208651518155938601515160018501559185015151600284015584015151600383015583015151600482015590820151600582015560c0820151600682015560e0820151600782015561010082015160089091018054610120909301511515600160a01b027fffffffffffffffffffffff00ffffffffffffffffffffffffffffffffffffffff6001600160a01b039390931673ffffffffffffffffffffffffffffffffffffffff1990941693909317919091169190911790555b612f9282612833565b7f4c307a456602a1cfcbea38a491adb935be2ec87ce2d533dfecf1240ad30d710d8284604051612fc3929190614898565b60405180910390a150505050505050565b612fdc613812565b612fe4613812565b82518451612ff79163ffffffff61339216565b81529392505050565b613008613812565b613010613812565b8251600013156130265782516000038152610edc565b915182525090565b613036613812565b604051806020016040528061304b60126133a7565b9052905090565b61305a613812565b613062613812565b8351612ff7908463ffffffff6133b016565b61307d836133e2565b613085613812565b61308f848461342f565b9050600061309d85846134bc565b905060006060866001600160a01b031663a9059cbb60e01b87856040516024016130c8929190613ead565b60408051601f198184030181529181526020820180517bffffffffffffffffffffffffffffffffffffffffffffffffffffffff167fffffffff000000000000000000000000000000000000000000000000000000009094169390931790925290516131339190613d66565b6000604051808303816000865af19150503d8060008114613170576040519150601f19603f3d011682016040523d82523d6000602084013e613175565b606091505b509150915081801561319f57508051158061319f57508080602001905181019061319f91906139e8565b6131bb5760405162461bcd60e51b81526004016104ef90613fd5565b6131c787878587613532565b50505050505050565b5190565b6131dd846133e2565b6131e5613812565b6131ef858461342f565b905060006131fd86846134bc565b905060006060876001600160a01b03166323b872dd60e01b88888660405160240161322a93929190613e89565b60408051601f198184030181529181526020820180517bffffffffffffffffffffffffffffffffffffffffffffffffffffffff167fffffffff000000000000000000000000000000000000000000000000000000009094169390931790925290516132959190613d66565b6000604051808303816000865af19150503d80600081146132d2576040519150601f19603f3d011682016040523d82523d6000602084013e6132d7565b606091505b509150915081801561330157508051158061330157508080602001905181019061330191906139e8565b61331d5760405162461bcd60e51b81526004016104ef906142b5565b61096a88878587613532565b613331613812565b613339613812565b82518451612ff79163ffffffff61358b16565b613354613812565b61335c613812565b82518451612ff79163ffffffff6135b316565b613377613812565b61337f613812565b82518451612ff79163ffffffff6135d816565b60006133a0838360126135e6565b9392505050565b60ff16600a0a90565b60008082116133d15760405162461bcd60e51b81526004016104ef90614221565b8183816133da57fe5b049392505050565b60006133ed8261360d565b6001600160a01b038316600090815260016020526040902054909150811461342b576001600160a01b03821660009081526001602052604090208190555b5050565b613437613812565b6133a083846001600160a01b03166370a08231856040518263ffffffff1660e01b81526004016134679190613d82565b60206040518083038186803b15801561347f57600080fd5b505afa158015613493573d6000803e3d6000fd5b505050506040513d601f19601f820116820180604052508101906134b79190613cd9565b613728565b6000806134c88461360d565b905060128110613506576134fe6134e682601263ffffffff61358b16565b600a0a6134f2856131d0565b9063ffffffff6137ba16565b915050610edc565b610ed861351a60128363ffffffff61358b16565b600a0a613526856131d0565b9063ffffffff6133b016565b61356561354f6135428685613728565b839063ffffffff61334c16565b613559868661342f565b9063ffffffff61280216565b60000b156135855760405162461bcd60e51b81526004016104ef9061453a565b50505050565b6000828211156135ad5760405162461bcd60e51b81526004016104ef906141b3565b50900390565b6000828201838110156133a05760405162461bcd60e51b81526004016104ef906140d7565b60006133a0838360126137f4565b6000613605836135266135f8856133a7565b879063ffffffff6137ba16565b949350505050565b6001600160a01b03811660009081526001602052604081205480610edc5760408051600481526024810182526020810180517bffffffffffffffffffffffffffffffffffffffffffffffffffffffff167f313ce5670000000000000000000000000000000000000000000000000000000017905290516000916060916001600160a01b0387169161369d91613d66565b600060405180830381855afa9150503d80600081146136d8576040519150601f19603f3d011682016040523d82523d6000602084013e6136dd565b606091505b50915091508180156136ef5750805115155b61370b5760405162461bcd60e51b81526004016104ef90614258565b8080602001905181019061371f9190613cd9565b95945050505050565b613730613812565b600061373b8461360d565b9050601281106137805760408051602081019091528061377561376584601263ffffffff61358b16565b8690600a0a63ffffffff6133b016565b815250915050610edc565b6040805160208101909152806137b06137a060128563ffffffff61358b16565b8690600a0a63ffffffff6137ba16565b9052949350505050565b6000826137c957506000610edc565b828202828482816137d657fe5b04146133a05760405162461bcd60e51b81526004016104ef90614414565b6000613605613802836133a7565b613526868663ffffffff6137ba16565b6040518060200160405280600081525090565b604080516101a08101825260008082526020820181905291810182905260608101829052906080820190815260200160008152602001613863613812565b8152602001613870613812565b815260200161387d613812565b815260200161388a613812565b8152602001613897613812565b81526020016138a4613812565b81526020016138b1613812565b905290565b60405180608001604052806138c9613812565b81526020016138d6613812565b815260200160008152602001600081525090565b6040518061014001604052806138fe613812565b815260200161390b613812565b8152602001613918613812565b8152602001613925613812565b8152602001613932613812565b815260200160008152602001600081526020016000815260200160006001600160a01b031681526020016000151581525090565b600060208284031215613977578081fd5b61398160206148a6565b9135825250919050565b60006020828403121561399c578081fd5b6139a660206148a6565b9151825250919050565b6000602082840312156139c1578081fd5b81356133a081614906565b6000602082840312156139dd578081fd5b81516133a081614906565b6000602082840312156139f9578081fd5b81516133a08161491b565b6000806000806000806000806000806101408b8d031215613a23578586fd5b8a35613a2e81614906565b9950613a3d8c60208d01613966565b9850613a4c8c60408d01613966565b9750613a5b8c60608d01613966565b9650613a6a8c60808d01613966565b9550613a798c60a08d01613966565b9450613a888c60c08d01613966565b9350613a978c60e08d01613966565b92506101008b0135613aa88161491b565b809250506101208b013590509295989b9194979a5092959850565b600080600080600080600080610100898b031215613adf578384fd5b8835613aea81614906565b9750613af98a60208b01613966565b9650613b088a60408b01613966565b9550613b178a60608b01613966565b9450613b268a60808b01613966565b9350613b358a60a08b01613966565b925060c0890135613b458161491b565b8092505060e089013590509295985092959890939650565b60008060008060008060008060006101208a8c031215613b7b578485fd5b8935613b8681614906565b9850613b958b60208c01613966565b9750613ba48b60408c01613966565b9650613bb38b60608c01613966565b9550613bc28b60808c01613966565b9450613bd18b60a08c01613966565b9350613be08b60c08c01613966565b925060e08a0135613bf08161491b565b809250506101008a013590509295985092959850929598565b60008060408385031215613c1b578182fd5b8235613c2681614906565b946020939093013593505050565b600060808284031215613c45578081fd5b613c4f60806148a6565b613c59848461398b565b8152613c68846020850161398b565b602082015260408301516040820152606083015160608201528091505092915050565b600060208284031215613c9c578081fd5b6133a08383613966565b600060208284031215613cb7578081fd5b6133a0838361398b565b600060208284031215613cd2578081fd5b5035919050565b600060208284031215613cea578081fd5b5051919050565b60008060008060008060008060006101208a8c031215613d0f578283fd5b89359850613b958b60208c01613966565b60008060408385031215613d32578182fd5b50508035926020909101359150565b6001600160a01b03169052565b15159052565b613d5d816148f9565b9052565b519052565b60008251613d788184602087016148cd565b9190910192915050565b6001600160a01b0391909116815260200190565b6001600160a01b038e811682528d1660208201528b151560408201528a151560608201526101a08101613dcc608083018c613d54565b8960a0830152613ddf60c083018a613d61565b613dec60e0830189613d61565b613dfa610100830188613d61565b613e08610120830187613d61565b613e16610140830186613d61565b613e24610160830185613d61565b613e32610180830184613d61565b9e9d5050505050505050505050505050565b6001600160a01b0387811682528616602082015260c08101613e65866148f9565b60408201959095529215156060840152901515608083015260a09091015292915050565b6001600160a01b039384168152919092166020820152604081019190915260600190565b6001600160a01b03929092168252602082015260400190565b6000602082528251806020840152613ee58160408501602087016148cd565b601f01601f19169190910160400192915050565b6020808252600d908201527f616d6d206e6f7420666f756e6400000000000000000000000000000000000000604082015260600190565b60208082526013908201527f4d696e696d756d203178206c6576657261676500000000000000000000000000604082015260600190565b6020808252601f908201527f43616e206f6e6c79206d6f6469667920747261696c696e67206f726465727300604082015260600190565b60208082526019908201527f4f72646572206861646e2774206265656e206372656174656400000000000000604082015260600190565b6020808252601d908201527f446563696d616c45524332303a207472616e73666572206661696c6564000000604082015260600190565b6020808252601b908201527f536c697070616765206d7573742062652070657263656e746167650000000000604082015260600190565b60208082526026908201527f4f776e61626c653a206e6577206f776e657220697320746865207a65726f206160408201527f6464726573730000000000000000000000000000000000000000000000000000606082015260800190565b6020808252600f908201527f4e6f206c6f6e6765722076616c69640000000000000000000000000000000000604082015260600190565b6020808252601b908201527f536166654d6174683a206164646974696f6e206f766572666c6f770000000000604082015260600190565b60208082526019908201527f4576656e742077696c6c2065787069726520696e207061737400000000000000604082015260600190565b60208082526015908201527f4572726f7220657865637574696e67206f726465720000000000000000000000604082015260600190565b60208082526015908201527f496e76616c696420747261696c2070657263656e740000000000000000000000604082015260600190565b6020808252601e908201527f536166654d6174683a207375627472616374696f6e206f766572666c6f770000604082015260600190565b6020808252601d908201527f43616e206f6e6c7920706f6b6520747261696c696e67206f7264657273000000604082015260600190565b6020808252601a908201527f536166654d6174683a206469766973696f6e206279207a65726f000000000000604082015260600190565b60208082526021908201527f446563696d616c45524332303a2067657420646563696d616c73206661696c6560408201527f6400000000000000000000000000000000000000000000000000000000000000606082015260800190565b60208082526021908201527f446563696d616c45524332303a207472616e7366657246726f6d206661696c6560408201527f6400000000000000000000000000000000000000000000000000000000000000606082015260800190565b60208082526024908201527f43616e206f6e6c792062652075706461746564206576657279203130206d696e60408201527f7574657300000000000000000000000000000000000000000000000000000000606082015260800190565b60208082526013908201527f496e76616c6964206761702070657263656e7400000000000000000000000000604082015260600190565b60208082526011908201527f4e65656420736d6172742077616c6c6574000000000000000000000000000000604082015260600190565b6020808252600a908201527f496e76616c696420494400000000000000000000000000000000000000000000604082015260600190565b60208082526021908201527f536166654d6174683a206d756c7469706c69636174696f6e206f766572666c6f60408201527f7700000000000000000000000000000000000000000000000000000000000000606082015260800190565b6020808252818101527f4f776e61626c653a2063616c6c6572206973206e6f7420746865206f776e6572604082015260600190565b6020808252602a908201527f4a757374207468652074697021205469702069732062656c6f77206d696e696d60408201527f756d207469702066656500000000000000000000000000000000000000000000606082015260800190565b60208082526018908201527f496e636f727265637420747261696c696e672070726963650000000000000000604082015260600190565b60208082526022908201527f446563696d616c45524332303a2062616c616e636520696e636f6e736973746560408201527f6e74000000000000000000000000000000000000000000000000000000000000606082015260800190565b6020808252601d908201527f536e617073686f7420496e64657820646f6573206e6f74206578697374000000604082015260600190565b60208082526021908201527f43616e206f6e6c79206d6f646966792073746f702f6c696d6974206f7264657260408201527f7300000000000000000000000000000000000000000000000000000000000000606082015260800190565b6020808252600e908201527f4e6f7420796f7572206f72646572000000000000000000000000000000000000604082015260600190565b60006101a082019050614676828451613d41565b60208301516146886020840182613d41565b50604083015161469b6040840182613d4e565b5060608301516146ae6060840182613d4e565b5060808301516146c16080840182613d54565b5060a083015160a083015260c08301516146de60c0840182613d61565b5060e08301516146f160e0840182613d61565b506101008084015161470582850182613d61565b50506101208084015161471a82850182613d61565b50506101408084015161472f82850182613d61565b50506101608084015161474482850182613d61565b50506101808084015161475982850182613d61565b505092915050565b600061014082019050614775828451613d61565b60208301516147876020840182613d61565b50604083015161479a6040840182613d61565b5060608301516147ad6060840182613d61565b5060808301516147c06080840182613d61565b5060a083015160a083015260c083015160c083015260e083015160e0830152610100808401516147f282850182613d41565b50506101208084015161475982850182613d4e565b9051815260200190565b99518a52975160208a015295516040890152935160608801529151608087015260a086015260c085015260e08401526001600160a01b031661010083015215156101208201526101400190565b965187529451602087015292516040860152905160608501525160808401525160a08301525160c082015260e00190565b90815260200190565b918252602082015260400190565b60405181810167ffffffffffffffff811182821017156148c557600080fd5b604052919050565b60005b838110156148e85781810151838201526020016148d0565b838111156135855750506000910152565b6006811061490357fe5b50565b6001600160a01b038116811461490357600080fd5b801515811461490357600080fdfea2646970667358221220313cd85f5e62fb980f6e99e25abfc0ae58949668a4c5bb8c0c8f9c41ec71e4c564736f6c63430006090033",
  "linkReferences": {},
  "deployedLinkReferences": {}
}