{
  "_format": "hh-sol-artifact-1",
  "contractName": "SmartWalletFactory",
  "sourceName": "contracts/SmartWallet.sol",
  "abi": [
    {
      "inputs": [
        {
          "internalType": "address",
          "name": "_addr",
          "type": "address"
        }
      ],
      "stateMutability": "nonpayable",
      "type": "constructor"
    },
    {
      "anonymous": false,
      "inputs": [
        {
          "indexed": true,
          "internalType": "address",
          "name": "owner",
          "type": "address"
        },
        {
          "indexed": true,
          "internalType": "address",
          "name": "smartWallet",
          "type": "address"
        }
      ],
      "name": "Created",
      "type": "event"
    },
    {
      "anonymous": false,
      "inputs": [
        {
          "indexed": true,
          "internalType": "address",
          "name": "previousOwner",
          "type": "address"
        },
        {
          "indexed": true,
          "internalType": "address",
          "name": "newOwner",
          "type": "address"
        }
      ],
      "name": "OwnershipTransferred",
      "type": "event"
    },
    {
      "inputs": [],
      "name": "LimitOrderBook",
      "outputs": [
        {
          "internalType": "address",
          "name": "",
          "type": "address"
        }
      ],
      "stateMutability": "view",
      "type": "function"
    },
    {
      "inputs": [
        {
          "internalType": "address",
          "name": "_contract",
          "type": "address"
        }
      ],
      "name": "addToWhitelist",
      "outputs": [],
      "stateMutability": "nonpayable",
      "type": "function"
    },
    {
      "inputs": [
        {
          "internalType": "address",
          "name": "",
          "type": "address"
        }
      ],
      "name": "getSmartWallet",
      "outputs": [
        {
          "internalType": "address",
          "name": "",
          "type": "address"
        }
      ],
      "stateMutability": "view",
      "type": "function"
    },
    {
      "inputs": [
        {
          "internalType": "address",
          "name": "",
          "type": "address"
        }
      ],
      "name": "isWhitelisted",
      "outputs": [
        {
          "internalType": "bool",
          "name": "",
          "type": "bool"
        }
      ],
      "stateMutability": "view",
      "type": "function"
    },
    {
      "inputs": [],
      "name": "owner",
      "outputs": [
        {
          "internalType": "address",
          "name": "",
          "type": "address"
        }
      ],
      "stateMutability": "view",
      "type": "function"
    },
    {
      "inputs": [
        {
          "internalType": "address",
          "name": "_contract",
          "type": "address"
        }
      ],
      "name": "removeFromWhitelist",
      "outputs": [],
      "stateMutability": "nonpayable",
      "type": "function"
    },
    {
      "inputs": [],
      "name": "renounceOwnership",
      "outputs": [],
      "stateMutability": "nonpayable",
      "type": "function"
    },
    {
      "inputs": [],
      "name": "spawn",
      "outputs": [
        {
          "internalType": "address",
          "name": "smartWallet",
          "type": "address"
        }
      ],
      "stateMutability": "nonpayable",
      "type": "function"
    },
    {
      "inputs": [
        {
          "internalType": "address",
          "name": "newOwner",
          "type": "address"
        }
      ],
      "name": "transferOwnership",
      "outputs": [],
      "stateMutability": "nonpayable",
      "type": "function"
    }
  ],
  "bytecode": "0x608060405234801561001057600080fd5b5060405161323b38038061323b83398101604081905261002f916100b5565b60006100426001600160e01b036100b116565b600080546001600160a01b0319166001600160a01b0383169081178255604051929350917f8be0079c531659141344cd1fd0a4f28419497f9722a3daafe3b4186f6b6457e0908290a350600380546001600160a01b0319166001600160a01b03929092169190911790556100e3565b3390565b6000602082840312156100c6578081fd5b81516001600160a01b03811681146100dc578182fd5b9392505050565b613149806100f26000396000f3fe608060405234801561001057600080fd5b50600436106100a35760003560e01c8063971b052111610076578063b547aeda1161005b578063b547aeda1461011e578063e43252d714610126578063f2fde38b14610139576100a3565b8063971b052114610103578063a0b738811461010b576100a3565b80633af32abf146100a8578063715018a6146100d15780638ab1d681146100db5780638da5cb5b146100ee575b600080fd5b6100bb6100b6366004610561565b61014c565b6040516100c891906105ed565b60405180910390f35b6100d9610161565b005b6100d96100e9366004610561565b610200565b6100f6610260565b6040516100c891906105bf565b6100f661026f565b6100f6610119366004610561565b61027e565b6100f6610299565b6100d9610134366004610561565b610420565b6100d9610147366004610561565b610483565b60026020526000908152604090205460ff1681565b610169610550565b6001600160a01b031661017a610260565b6001600160a01b0316146101a95760405162461bcd60e51b81526004016101a09061068c565b60405180910390fd5b600080546040516001600160a01b03909116907f8be0079c531659141344cd1fd0a4f28419497f9722a3daafe3b4186f6b6457e0908390a36000805473ffffffffffffffffffffffffffffffffffffffff19169055565b610208610550565b6001600160a01b0316610219610260565b6001600160a01b03161461023f5760405162461bcd60e51b81526004016101a09061068c565b6001600160a01b03166000908152600260205260409020805460ff19169055565b6000546001600160a01b031690565b6003546001600160a01b031681565b6001602052600090815260409020546001600160a01b031681565b336000908152600160205260408120546001600160a01b0316156102cf5760405162461bcd60e51b81526004016101a0906105f8565b6060604051806020016102e190610554565b6020820181038252601f19601f82011660405250905060003360405160200161030a919061058f565b604051602081830303815290604052805190602001209050808251602084016000f56040519093506001600160a01b0384169033907f587ece4cd19692c5be1a4184503d607d45542d2aca0698c0068f52e09ccb541c90600090a36003546040517f485cc9550000000000000000000000000000000000000000000000000000000081526001600160a01b038581169263485cc955926103b2929091169033906004016105d3565b600060405180830381600087803b1580156103cc57600080fd5b505af11580156103e0573d6000803e3d6000fd5b5050336000908152600160205260409020805473ffffffffffffffffffffffffffffffffffffffff19166001600160a01b03871617905550929392505050565b610428610550565b6001600160a01b0316610439610260565b6001600160a01b03161461045f5760405162461bcd60e51b81526004016101a09061068c565b6001600160a01b03166000908152600260205260409020805460ff19166001179055565b61048b610550565b6001600160a01b031661049c610260565b6001600160a01b0316146104c25760405162461bcd60e51b81526004016101a09061068c565b6001600160a01b0381166104e85760405162461bcd60e51b81526004016101a09061062f565b600080546040516001600160a01b03808516939216917f8be0079c531659141344cd1fd0a4f28419497f9722a3daafe3b4186f6b6457e091a36000805473ffffffffffffffffffffffffffffffffffffffff19166001600160a01b0392909216919091179055565b3390565b612a52806106c283390190565b600060208284031215610572578081fd5b81356001600160a01b0381168114610588578182fd5b9392505050565b60609190911b7fffffffffffffffffffffffffffffffffffffffff00000000000000000000000016815260140190565b6001600160a01b0391909116815260200190565b6001600160a01b0392831681529116602082015260400190565b901515815260200190565b60208082526018908201527f416c72656164792068617320736d6172742077616c6c65740000000000000000604082015260600190565b60208082526026908201527f4f776e61626c653a206e6577206f776e657220697320746865207a65726f206160408201527f6464726573730000000000000000000000000000000000000000000000000000606082015260800190565b6020808252818101527f4f776e61626c653a2063616c6c6572206973206e6f7420746865206f776e657260408201526060019056fe608060405234801561001057600080fd5b50612a32806100206000396000f3fe608060405234801561001057600080fd5b506004361061007d5760003560e01c806394f611341161005b57806394f61134146100c8578063bca8c7b5146100e8578063c45a015514610108578063f9d8e3c7146101105761007d565b8063485cc955146100825780635b6a8b431461009757806365ead111146100aa575b600080fd5b610095610090366004611ec7565b610123565b005b6100956100a536600461204d565b61024c565b6100b261028a565b6040516100bf91906122c0565b60405180910390f35b6100db6100d6366004612248565b61029f565b6040516100bf9190612307565b6100fb6100f6366004611f7e565b610524565b6040516100bf9190612312565b6100b261068e565b61009561011e366004612018565b61069d565b603354610100900460ff168061013c575061013c6106d5565b8061014a575060335460ff16155b61016f5760405162461bcd60e51b8152600401610166906126d2565b60405180910390fd5b603354610100900460ff161580156101b857603380547fffffffffffffffffffffffffffffffffffffffffffffffffffffffffffffff0061ff0019909116610100171660011790555b603380546001600160a01b0380861662010000027fffffffffffffffffffff0000000000000000000000000000000000000000ffff90921691909117909155603480547fffffffffffffffffffffffff0000000000000000000000000000000000000000908116331790915560358054928516929091169190911790558015610247576033805461ff00191690555b505050565b6035546001600160a01b031633146102765760405162461bcd60e51b81526004016101669061278c565b61028385858585856106e6565b5050505050565b6033546201000090046001600160a01b031681565b6033546000906201000090046001600160a01b031633146102d25760405162461bcd60e51b81526004016101669061289d565b600080600080603360029054906101000a90046001600160a01b03166001600160a01b0316634c5789e3876040518263ffffffff1660e01b81526004016103199190612970565b60c06040518083038186803b15801561033157600080fd5b505afa158015610345573d6000803e3d6000fd5b505050506040513d601f19601f820116820180604052508101906103699190611eff565b6034546040517fa0b73881000000000000000000000000000000000000000000000000000000008152959a509398509096509450309350506001600160a01b03169063a0b73881906103bf9088906004016122c0565b60206040518083038186803b1580156103d757600080fd5b505afa1580156103eb573d6000803e3d6000fd5b505050506040513d601f19601f8201168201806040525081019061040f9190611eab565b6001600160a01b0316146104355760405162461bcd60e51b81526004016101669061282f565b80158061044157508042105b61045d5760405162461bcd60e51b8152600401610166906127c1565b8161047a5760405162461bcd60e51b8152600401610166906123cc565b600183600581111561048857fe5b14156104a2576104978661098e565b94505050505061051f565b60028360058111156104b057fe5b14156104bf5761049786610be9565b60038360058111156104cd57fe5b14156104dc5761049786610e15565b60048360058111156104ea57fe5b14156104f95761049786610be9565b600583600581111561050757fe5b14156105165761049786610e15565b60009450505050505b919050565b6035546060906001600160a01b031633146105515760405162461bcd60e51b81526004016101669061278c565b610563846001600160a01b0316611095565b61057f5760405162461bcd60e51b8152600401610166906124ce565b6034546040517f3af32abf0000000000000000000000000000000000000000000000000000000081526001600160a01b0390911690633af32abf906105c89087906004016122c0565b60206040518083038186803b1580156105e057600080fd5b505afa1580156105f4573d6000803e3d6000fd5b505050506040513d601f19601f820116820180604052508101906106189190611ffc565b6106345760405162461bcd60e51b8152600401610166906125d0565b61068483838080601f016020809104026020016040519081016040528093929190818152602001838380828437600092019190915250506001600160a01b0388169291505063ffffffff61109b16565b90505b9392505050565b6034546001600160a01b031681565b6035546001600160a01b031633146106c75760405162461bcd60e51b81526004016101669061278c565b6106d182826110e6565b5050565b60006106e030611095565b15905090565b6106ee611e00565b6106f6611e00565b6001600160a01b0387166362267955610715878763ffffffff6113b316565b6040518263ffffffff1660e01b81526004016107319190612966565b604080518083038186803b15801561074857600080fd5b505afa15801561075c573d6000803e3d6000fd5b505050506040513d601f19601f820116820180604052508101906107809190612164565b9150915061078c611e00565b6107ac826107a0888663ffffffff6113df16565b9063ffffffff6113df16565b9050610806735d9593586b4b5edbd23e7eba8d88fd8f09d83ebd6107e473ddafbb505ad214d7b80b1f830fccc89b60fb7a8384611402565b73ddafbb505ad214d7b80b1f830fccc89b60fb7a83919063ffffffff61148016565b60006108118861159b565b61081c57600161081f565b60005b9050610829611e00565b610832896115b9565b905061083c611e00565b8a6001600160a01b031663da0c59278461085757600061085a565b60015b846040518363ffffffff1660e01b815260040161087892919061237a565b60206040518083038186803b15801561089057600080fd5b505afa1580156108a4573d6000803e3d6000fd5b505050506040513d601f19601f820116820180604052508101906108c89190612149565b90506108d2611e00565b506040805160208101909152600181526108ff6108f9826107a0858e63ffffffff6115e716565b8a61160a565b9850735d9593586b4b5edbd23e7eba8d88fd8f09d83ebd63893d242d8d8661092857600161092b565b60005b8d8d8d6040518663ffffffff1660e01b815260040161094e959493929190612325565b600060405180830381600087803b15801561096857600080fd5b505af115801561097c573d6000803e3d6000fd5b50505050505050505050505050505050565b6000610998611e00565b6109a0611e00565b6109a8611e00565b6109b0611e00565b6109b8611e00565b60335460405163038da8b760e61b81526000918291620100009091046001600160a01b03169063e36a2dc0906109f2908c90600401612970565b6101206040518083038186803b158015610a0b57600080fd5b505afa158015610a1f573d6000803e3d6000fd5b505050506040513d601f19601f82011682018060405250810190610a43919061218f565b9850985050975097509750975097505060008090508115610a6b57610a688388611639565b90505b6000610a768861159b565b610a81576001610a84565b60005b9050610a8e611e00565b846001600160a01b031663dc76fabc6040518163ffffffff1660e01b815260040160206040518083038186803b158015610ac757600080fd5b505afa158015610adb573d6000803e3d6000fd5b505050506040513d601f19601f82011682018060405250810190610aff9190612149565b90506001610b1b610b0e6117bb565b839063ffffffff6117d616565b60000b1215610b3c5760405162461bcd60e51b81526004016101669061253c565b81610b4957600019610b4c565b60015b600f0b610b5f8b8363ffffffff6117d616565b60000b14610b7f5760405162461bcd60e51b815260040161016690612866565b8215610bab57610b8d611e00565b610b99868c858a611807565b9050610ba586826110e6565b50610bd7565b610bb3611e00565b610bc6610bbf8b6115b9565b8489611964565b9050610bd5868b8b8b856106e6565b505b5060019b9a5050505050505050505050565b6000610bf3611e00565b610bfb611e00565b610c03611e00565b610c0b611e00565b60335460405163038da8b760e61b81526000918291620100009091046001600160a01b03169063e36a2dc090610c45908b90600401612970565b6101206040518083038186803b158015610c5e57600080fd5b505afa158015610c72573d6000803e3d6000fd5b505050506040513d601f19601f82011682018060405250810190610c96919061218f565b98509850505096509650965050955060008090508115610cbd57610cba8387611639565b90505b6000610cc88761159b565b610cd3576001610cd6565b60005b9050610ce0611e00565b846001600160a01b031663dc76fabc6040518163ffffffff1660e01b815260040160206040518083038186803b158015610d1957600080fd5b505afa158015610d2d573d6000803e3d6000fd5b505050506040513d601f19601f82011682018060405250810190610d519190612149565b90506001610d60610b0e6117bb565b60000b1215610d815760405162461bcd60e51b81526004016101669061253c565b81610d8e57600019610d91565b60015b600f0b610da4828b63ffffffff6117d616565b60000b14610dc45760405162461bcd60e51b81526004016101669061269b565b8215610de857610de385604051806020016040528060008152506110e6565b610e04565b610e0485898989604051806020016040528060008152506106e6565b5060019a9950505050505050505050565b6000610e1f611e00565b610e27611e00565b610e2f611e00565b610e37611e00565b610e3f611e00565b610e47611e00565b60335460405163038da8b760e61b81526000918291620100009091046001600160a01b03169063e36a2dc090610e81908d90600401612970565b6101206040518083038186803b158015610e9a57600080fd5b505afa158015610eae573d6000803e3d6000fd5b505050506040513d601f19601f82011682018060405250810190610ed2919061218f565b985098505097509750975097509750975060008090508115610efb57610ef88388611639565b90505b6000610f068861159b565b610f11576001610f14565b60005b9050610f1e611e00565b846001600160a01b031663dc76fabc6040518163ffffffff1660e01b815260040160206040518083038186803b158015610f5757600080fd5b505afa158015610f6b573d6000803e3d6000fd5b505050506040513d601f19601f82011682018060405250810190610f8f9190612149565b90506001610f9e610b0e6117bb565b60000b1215610fbf5760405162461bcd60e51b81526004016101669061253c565b81610fcc57600019610fcf565b60015b600f0b610fe28b8363ffffffff6117d616565b60000b148015611015575081610ffa57600019610ffd565b60015b600f0b611010828d63ffffffff6117d616565b60000b145b6110315760405162461bcd60e51b815260040161016690612395565b821561105d5761103f611e00565b61104b868c858a611807565b905061105786826110e6565b50611082565b611065611e00565b611071610bbf8b6115b9565b9050611080868b8b8b856106e6565b505b5060019c9b505050505050505050505050565b3b151590565b60606110dd83836040518060400160405280601e81526020017f416464726573733a206c6f772d6c6576656c2063616c6c206661696c656400008152506119f0565b90505b92915050565b6110ee611e13565b604051630b33dc1960e41b8152735d9593586b4b5edbd23e7eba8d88fd8f09d83ebd9063b33dc1909061112790869030906004016122d4565b60c06040518083038186803b15801561113f57600080fd5b505afa158015611153573d6000803e3d6000fd5b505050506040513d601f19601f8201168201806040525081019061117791906120ce565b9050611181611e00565b50805161118c611e00565b846001600160a01b031663da0c592760006111a6856119ff565b136111b25760016111b5565b60005b6111be856115b9565b6040518363ffffffff1660e01b81526004016111db92919061237a565b60206040518083038186803b1580156111f357600080fd5b505afa158015611207573d6000803e3d6000fd5b505050506040513d601f19601f8201168201806040525081019061122b9190612149565b9050611235611e00565b61123d611e00565b6040517f622679550000000000000000000000000000000000000000000000000000000081526001600160a01b03881690636226795590611282908690600401612966565b604080518083038186803b15801561129957600080fd5b505afa1580156112ad573d6000803e3d6000fd5b505050506040513d601f19601f820116820180604052508101906112d19190612164565b915091506112dd611e00565b6112ed838363ffffffff6113df16565b9050611325735d9593586b4b5edbd23e7eba8d88fd8f09d83ebd6107e473ddafbb505ad214d7b80b1f830fccc89b60fb7a8384611402565b6040517fa8c1b0bc000000000000000000000000000000000000000000000000000000008152735d9593586b4b5edbd23e7eba8d88fd8f09d83ebd9063a8c1b0bc90611377908b908b90600401612360565b600060405180830381600087803b15801561139157600080fd5b505af11580156113a5573d6000803e3d6000fd5b505050505050505050505050565b6113bb611e00565b6113c3611e00565b825184516113d69163ffffffff611a0316565b81529392505050565b6113e7611e00565b6113ef611e00565b825184516113d69163ffffffff611a1116565b60008061140e84611a36565b90506012811061144c5761144461142c82601263ffffffff611b4816565b600a0a611438856119ff565b9063ffffffff611b7016565b9150506110e0565b61147861146060128363ffffffff611b4816565b600a0a61146c856119ff565b9063ffffffff611baa16565b949350505050565b600061151082856001600160a01b031663dd62ed3e30876040518363ffffffff1660e01b81526004016114b49291906122d4565b60206040518083038186803b1580156114cc57600080fd5b505afa1580156114e0573d6000803e3d6000fd5b505050506040513d601f19601f820116820180604052508101906115049190612260565b9063ffffffff611a1116565b90506115958463095ea7b360e01b85846040516024016115319291906122ee565b60408051601f198184030181529190526020810180517bffffffffffffffffffffffffffffffffffffffffffffffffffffffff167fffffffff0000000000000000000000000000000000000000000000000000000090931692909217909152611bdc565b50505050565b600080826000015112156115b15750600161051f565b506000919050565b6115c1611e00565b6115c9611e00565b8251600013156115df57825160000381526110e0565b915182525090565b6115ef611e00565b6115f7611e00565b825184516113d69163ffffffff611c6b16565b611612611e00565b6001611624848463ffffffff6117d616565b60000b121561163357826110dd565b50919050565b6000611643611e13565b604051630b33dc1960e41b8152735d9593586b4b5edbd23e7eba8d88fd8f09d83ebd9063b33dc1909061167c90879030906004016122d4565b60c06040518083038186803b15801561169457600080fd5b505afa1580156116a8573d6000803e3d6000fd5b505050506040513d601f19601f820116820180604052508101906116cc91906120ce565b90506116d6611e00565b5080516116ea6116e5826115b9565b6119ff565b6117065760405162461bcd60e51b81526004016101669061292f565b61170f8161159b565b151561171a8561159b565b15151461179b5761172a8461159b565b1561176b5761175061173b826115b9565b611744866115b9565b9063ffffffff6117d616565b60000b60011415611766576001925050506110e0565b611796565b611780611777856115b9565b611744836115b9565b60000b60011415611796576001925050506110e0565b6117b3565b60405162461bcd60e51b815260040161016690612403565b505092915050565b6117c3611e00565b5060408051602081019091526000815290565b8051825160009110156117eb575060016110e0565b8151835110156117fe57506000196110e0565b50600092915050565b61180f611e00565b611817611e13565b604051630b33dc1960e41b8152735d9593586b4b5edbd23e7eba8d88fd8f09d83ebd9063b33dc1909061185090899030906004016122d4565b60c06040518083038186803b15801561186857600080fd5b505afa15801561187c573d6000803e3d6000fd5b505050506040513d601f19601f820116820180604052508101906118a091906120ce565b90506118aa611e00565b5080516118b5611e00565b6118ce876118c2846115b9565b9063ffffffff6113b316565b90506118d8611e00565b6118f06118e3611c79565b879063ffffffff6117d616565b60000b600019146119135760405162461bcd60e51b815260040161016690612497565b86156119385761193186611925611c79565b9063ffffffff611c9d16565b9050611947565b611944866107a0611c79565b90505b611957818363ffffffff6113b316565b9998505050505050505050565b61196c611e00565b611974611e00565b61198c61197f611c79565b849063ffffffff6117d616565b60000b600019146119af5760405162461bcd60e51b815260040161016690612497565b83156119c8576119c183611925611c79565b90506119d7565b6119d4836107a0611c79565b90505b6119e7818663ffffffff6113b316565b95945050505050565b60606106848484600085611cc0565b5190565b60006110dd83836012611d81565b6000828201838110156110dd5760405162461bcd60e51b815260040161016690612460565b6001600160a01b038116600090815260208190526040812054806110e05760408051600481526024810182526020810180517bffffffffffffffffffffffffffffffffffffffffffffffffffffffff167f313ce5670000000000000000000000000000000000000000000000000000000017905290516000916060916001600160a01b03871691611ac6916122a4565b600060405180830381855afa9150503d8060008114611b01576040519150601f19603f3d011682016040523d82523d6000602084013e611b06565b606091505b5091509150818015611b185750805115155b611b345760405162461bcd60e51b81526004016101669061263e565b808060200190518101906119e79190612260565b600082821115611b6a5760405162461bcd60e51b815260040161016690612505565b50900390565b600082611b7f575060006110e0565b82820282848281611b8c57fe5b04146110dd5760405162461bcd60e51b81526004016101669061272f565b6000808211611bcb5760405162461bcd60e51b815260040161016690612607565b818381611bd457fe5b049392505050565b6060611c31826040518060400160405280602081526020017f5361666545524332303a206c6f772d6c6576656c2063616c6c206661696c6564815250856001600160a01b03166119f09092919063ffffffff16565b8051909150156102475780806020019051810190611c4f9190611ffc565b6102475760405162461bcd60e51b8152600401610166906128d2565b60006110dd83836012611d9f565b611c81611e00565b6040518060200160405280611c966012611dbe565b9052905090565b611ca5611e00565b611cad611e00565b825184516113d69163ffffffff611b4816565b606082471015611ce25760405162461bcd60e51b815260040161016690612573565b611ceb85611095565b611d075760405162461bcd60e51b8152600401610166906127f8565b60006060866001600160a01b03168587604051611d2491906122a4565b60006040518083038185875af1925050503d8060008114611d61576040519150601f19603f3d011682016040523d82523d6000602084013e611d66565b606091505b5091509150611d76828286611dc7565b979650505050505050565b6000610684611d8f83611dbe565b61146c868663ffffffff611b7016565b60006106848361146c611db185611dbe565b879063ffffffff611b7016565b60ff16600a0a90565b60608315611dd6575081610687565b825115611de65782518084602001fd5b8160405162461bcd60e51b81526004016101669190612312565b6040518060200160405280600081525090565b6040518060c00160405280611e26611e00565b8152602001611e33611e00565b8152602001611e40611e00565b8152602001611e4d611e00565b815260200160008152602001600081525090565b600060208284031215611e72578081fd5b611e7c6020612979565b9135825250919050565b600060208284031215611e97578081fd5b611ea16020612979565b9151825250919050565b600060208284031215611ebc578081fd5b81516110dd816129d9565b60008060408385031215611ed9578081fd5b8235611ee4816129d9565b91506020830135611ef4816129d9565b809150509250929050565b60008060008060008060c08789031215611f17578182fd5b8651611f22816129d9565b6020880151909650611f33816129d9565b604088015190955060068110611f47578283fd5b6060880151909450611f58816129ee565b6080880151909350611f69816129ee565b8092505060a087015190509295509295509295565b600080600060408486031215611f92578283fd5b8335611f9d816129d9565b9250602084013567ffffffffffffffff80821115611fb9578384fd5b81860187601f820112611fca578485fd5b8035925081831115611fda578485fd5b876020848301011115611feb578485fd5b949760209095019650909450505050565b60006020828403121561200d578081fd5b81516110dd816129ee565b6000806040838503121561202a578182fd5b8235612035816129d9565b91506120448460208501611e61565b90509250929050565b600080600080600085870360a0811215612065578182fd5b8635612070816129d9565b95506020601f1982011215612083578182fd5b5061208e6020612979565b6020870135815293506120a48760408801611e61565b92506120b38760608801611e61565b91506120c28760808801611e61565b90509295509295909350565b600060c082840312156120df578081fd5b6120e960c0612979565b6120f38484611e86565b81526121028460208501611e86565b60208201526121148460408501611e86565b60408201526121268460608501611e86565b60608201526080830151608082015260a083015160a08201528091505092915050565b60006020828403121561215a578081fd5b6110dd8383611e86565b60008060408385031215612176578182fd5b6121808484611e86565b91506120448460208501611e86565b60008060008060008060008060006101208a8c0312156121ad578687fd5b6121b78b8b611e86565b98506121c68b60208c01611e86565b97506121d58b60408c01611e86565b96506121e48b60608c01611e86565b95506121f38b60808c01611e86565b94506122028b60a08c01611e86565b93506122118b60c08c01611e86565b925060e08a0151612221816129d9565b6101008b01519092508015158114612237578182fd5b809150509295985092959850929598565b600060208284031215612259578081fd5b5035919050565b600060208284031215612271578081fd5b5051919050565b600081518084526122908160208601602086016129a0565b601f01601f19169290920160200192915050565b600082516122b68184602087016129a0565b9190910192915050565b6001600160a01b0391909116815260200190565b6001600160a01b0392831681529116602082015260400190565b6001600160a01b03929092168252602082015260400190565b901515815260200190565b6000602082526110dd6020830184612278565b6001600160a01b038616815260a0810161233e866129cc565b6020820195909552925160408401529051606083015251608090910152919050565b6001600160a01b0392909216825251602082015260400190565b60408101612387846129cc565b928152905160209091015290565b6020808252601c908201527f496e76616c69642073746f702d6c696d697420636f6e646974696f6e00000000604082015260600190565b60208082526015908201527f4f72646572206e6f206c6f6e6765722076616c69640000000000000000000000604082015260600190565b6020808252602d908201527f237265647563654f6e6c793a2063616e6e6f7420696e6372656173652073697a60408201527f65206f6620706f736974696f6e00000000000000000000000000000000000000606082015260800190565b6020808252601b908201527f536166654d6174683a206164646974696f6e206f766572666c6f770000000000604082015260600190565b60208082526012908201527f536c697070616765206d75737420626520250000000000000000000000000000604082015260600190565b60208082526014908201527f63616c6c20746f206e6f6e2d636f6e7472616374000000000000000000000000604082015260600190565b6020808252601e908201527f536166654d6174683a207375627472616374696f6e206f766572666c6f770000604082015260600190565b60208082526018908201527f4572726f722067657474696e67206d61726b2070726963650000000000000000604082015260600190565b60208082526026908201527f416464726573733a20696e73756666696369656e742062616c616e636520666f60408201527f722063616c6c0000000000000000000000000000000000000000000000000000606082015260800190565b60208082526017908201527f496e76616c69642074617267657420636f6e7472616374000000000000000000604082015260600190565b6020808252601a908201527f536166654d6174683a206469766973696f6e206279207a65726f000000000000604082015260600190565b60208082526021908201527f446563696d616c45524332303a2067657420646563696d616c73206661696c6560408201527f6400000000000000000000000000000000000000000000000000000000000000606082015260800190565b6020808252601d908201527f496e76616c69642073746f70206f7264657220636f6e646974696f6e73000000604082015260600190565b6020808252602e908201527f496e697469616c697a61626c653a20636f6e747261637420697320616c72656160408201527f647920696e697469616c697a6564000000000000000000000000000000000000606082015260800190565b60208082526021908201527f536166654d6174683a206d756c7469706c69636174696f6e206f766572666c6f60408201527f7700000000000000000000000000000000000000000000000000000000000000606082015260800190565b6020808252818101527f4f776e61626c653a2063616c6c6572206973206e6f7420746865206f776e6572604082015260600190565b6020808252600d908201527f4f72646572206578706972656400000000000000000000000000000000000000604082015260600190565b6020808252601d908201527f416464726573733a2063616c6c20746f206e6f6e2d636f6e7472616374000000604082015260600190565b60208082526016908201527f496e636f727265637420736d6172742077616c6c657400000000000000000000604082015260600190565b6020808252601d908201527f496e76616c6964206c696d6974206f7264657220636f6e646974696f6e000000604082015260600190565b6020808252818101527f4f6e6c7920657865637574652066726f6d20746865206f7264657220626f6f6b604082015260600190565b6020808252602a908201527f5361666545524332303a204552433230206f7065726174696f6e20646964206e60408201527f6f74207375636365656400000000000000000000000000000000000000000000606082015260800190565b6020808252601e908201527f237265647563654f6e6c793a2063757272656e742073697a6520697320300000604082015260600190565b9051815260200190565b90815260200190565b60405181810167ffffffffffffffff8111828210171561299857600080fd5b604052919050565b60005b838110156129bb5781810151838201526020016129a3565b838111156115955750506000910152565b600281106129d657fe5b50565b6001600160a01b03811681146129d657600080fd5b80151581146129d657600080fdfea2646970667358221220a6a7a6fdefd2475d5e041d333f788fa7aebefd17851873225ce5d18506bee19064736f6c63430006090033a2646970667358221220b17425f25e0b59bf8c91942a20a8ae03f19b8156be87c2d8177b98a6e00b080064736f6c63430006090033",
  "linkReferences": {},
  "deployedLinkReferences": {}
}