{
  "_format": "hh-sol-artifact-1",
  "contractName": "SmartWallet",
  "sourceName": "contracts/SmartWallet.sol",
  "abi": [
    {
      "anonymous": false,
      "inputs": [
        {
          "indexed": true,
          "internalType": "address",
          "name": "previousOwner",
          "type": "address"
        },
        {
          "indexed": true,
          "internalType": "address",
          "name": "newOwner",
          "type": "address"
        }
      ],
      "name": "OwnershipTransferred",
      "type": "event"
    },
    {
      "inputs": [],
      "name": "LOB",
      "outputs": [
        {
          "internalType": "contract LimitOrderBook",
          "name": "",
          "type": "address"
        }
      ],
      "stateMutability": "view",
      "type": "function"
    },
    {
      "inputs": [
        {
          "internalType": "address",
          "name": "target",
          "type": "address"
        },
        {
          "internalType": "bytes",
          "name": "callData",
          "type": "bytes"
        }
      ],
      "name": "executeCall",
      "outputs": [
        {
          "internalType": "bytes",
          "name": "",
          "type": "bytes"
        }
      ],
      "stateMutability": "nonpayable",
      "type": "function"
    },
    {
      "inputs": [
        {
          "internalType": "contract IAmm",
          "name": "_asset",
          "type": "address"
        },
        {
          "components": [
            {
              "internalType": "uint256",
              "name": "d",
              "type": "uint256"
            }
          ],
          "internalType": "struct Decimal.decimal",
          "name": "_slippage",
          "type": "tuple"
        }
      ],
      "name": "executeClosePosition",
      "outputs": [],
      "stateMutability": "nonpayable",
      "type": "function"
    },
    {
      "inputs": [
        {
          "internalType": "contract IAmm",
          "name": "_asset",
          "type": "address"
        },
        {
          "components": [
            {
              "internalType": "int256",
              "name": "d",
              "type": "int256"
            }
          ],
          "internalType": "struct SignedDecimal.signedDecimal",
          "name": "_orderSize",
          "type": "tuple"
        },
        {
          "components": [
            {
              "internalType": "uint256",
              "name": "d",
              "type": "uint256"
            }
          ],
          "internalType": "struct Decimal.decimal",
          "name": "_collateral",
          "type": "tuple"
        },
        {
          "components": [
            {
              "internalType": "uint256",
              "name": "d",
              "type": "uint256"
            }
          ],
          "internalType": "struct Decimal.decimal",
          "name": "_leverage",
          "type": "tuple"
        },
        {
          "components": [
            {
              "internalType": "uint256",
              "name": "d",
              "type": "uint256"
            }
          ],
          "internalType": "struct Decimal.decimal",
          "name": "_slippage",
          "type": "tuple"
        }
      ],
      "name": "executeMarketOrder",
      "outputs": [],
      "stateMutability": "nonpayable",
      "type": "function"
    },
    {
      "inputs": [
        {
          "internalType": "uint256",
          "name": "order_id",
          "type": "uint256"
        }
      ],
      "name": "executeOrder",
      "outputs": [
        {
          "internalType": "bool",
          "name": "",
          "type": "bool"
        }
      ],
      "stateMutability": "nonpayable",
      "type": "function"
    },
    {
      "inputs": [],
      "name": "factory",
      "outputs": [
        {
          "internalType": "contract SmartWalletFactory",
          "name": "",
          "type": "address"
        }
      ],
      "stateMutability": "view",
      "type": "function"
    },
    {
      "inputs": [
        {
          "components": [
            {
              "internalType": "uint256",
              "name": "d",
              "type": "uint256"
            }
          ],
          "internalType": "struct Decimal.decimal",
          "name": "a",
          "type": "tuple"
        },
        {
          "components": [
            {
              "internalType": "uint256",
              "name": "d",
              "type": "uint256"
            }
          ],
          "internalType": "struct Decimal.decimal",
          "name": "b",
          "type": "tuple"
        }
      ],
      "name": "minD",
      "outputs": [
        {
          "components": [
            {
              "internalType": "uint256",
              "name": "d",
              "type": "uint256"
            }
          ],
          "internalType": "struct Decimal.decimal",
          "name": "",
          "type": "tuple"
        }
      ],
      "stateMutability": "pure",
      "type": "function"
    },
    {
      "inputs": [],
      "name": "owner",
      "outputs": [
        {
          "internalType": "address",
          "name": "",
          "type": "address"
        }
      ],
      "stateMutability": "view",
      "type": "function"
    },
    {
      "inputs": [],
      "name": "renounceOwnership",
      "outputs": [],
      "stateMutability": "nonpayable",
      "type": "function"
    },
    {
      "inputs": [
        {
          "internalType": "contract SmartWalletFactory",
          "name": "_addr",
          "type": "address"
        }
      ],
      "name": "setFactory",
      "outputs": [],
      "stateMutability": "nonpayable",
      "type": "function"
    },
    {
      "inputs": [
        {
          "internalType": "address",
          "name": "_addr",
          "type": "address"
        }
      ],
      "name": "setOrderBook",
      "outputs": [],
      "stateMutability": "nonpayable",
      "type": "function"
    },
    {
      "inputs": [
        {
          "internalType": "address",
          "name": "newOwner",
          "type": "address"
        }
      ],
      "name": "transferOwnership",
      "outputs": [],
      "stateMutability": "nonpayable",
      "type": "function"
    }
  ],
  "bytecode": "0x608060405234801561001057600080fd5b5060006100246001600160e01b0361007316565b600080546001600160a01b0319166001600160a01b0383169081178255604051929350917f8be0079c531659141344cd1fd0a4f28419497f9722a3daafe3b4186f6b6457e0908290a350610077565b3390565b612935806100866000396000f3fe608060405234801561001057600080fd5b50600436106100d45760003560e01c80639a1598c811610081578063cca9dfa91161005b578063cca9dfa91461018a578063f2fde38b146101aa578063f9d8e3c7146101bd576100d4565b80639a1598c81461014f578063bca8c7b514610162578063c45a015514610182576100d4565b8063715018a6116100b2578063715018a61461011f5780638da5cb5b1461012757806394f611341461012f576100d4565b80633dbd33ee146100d95780635b6a8b43146100f75780635bb478081461010c575b600080fd5b6100e16101d0565b6040516100ee9190612231565b60405180910390f35b61010a610105366004611fcf565b6101df565b005b61010a61011a366004611e49565b61023b565b61010a610293565b6100e1610329565b61014261013d3660046121b9565b610338565b6040516100ee9190612278565b61010a61015d366004611e49565b6105a9565b610175610170366004611f00565b610601565b6040516100ee9190612283565b6100e16106ca565b61019d6101983660046120e6565b6106d9565b6040516100ee9190612869565b61010a6101b8366004611e49565b61070c565b61010a6101cb366004611f9a565b6107d9565b6001546001600160a01b031681565b6101e7610826565b6001600160a01b03166101f8610329565b6001600160a01b0316146102275760405162461bcd60e51b815260040161021e906125fb565b60405180910390fd5b610234858585858561082a565b5050505050565b6002546001600160a01b0316156102645760405162461bcd60e51b815260040161021e906126fb565b6002805473ffffffffffffffffffffffffffffffffffffffff19166001600160a01b0392909216919091179055565b61029b610826565b6001600160a01b03166102ac610329565b6001600160a01b0316146102d25760405162461bcd60e51b815260040161021e906125fb565b600080546040516001600160a01b03909116907f8be0079c531659141344cd1fd0a4f28419497f9722a3daafe3b4186f6b6457e0908390a36000805473ffffffffffffffffffffffffffffffffffffffff19169055565b6000546001600160a01b031690565b6001546000906001600160a01b031633146103655760405162461bcd60e51b815260040161021e906127a0565b600154604051634c5789e360e01b81526000918291829182916001600160a01b0390911690634c5789e39061039e908990600401612873565b60c06040518083038186803b1580156103b657600080fd5b505afa1580156103ca573d6000803e3d6000fd5b505050506040513d601f19601f820116820180604052508101906103ee9190611e81565b6002546040517fa0b73881000000000000000000000000000000000000000000000000000000008152959a509398509096509450309350506001600160a01b03169063a0b7388190610444908890600401612231565b60206040518083038186803b15801561045c57600080fd5b505afa158015610470573d6000803e3d6000fd5b505050506040513d601f19601f820116820180604052508101906104949190611e65565b6001600160a01b0316146104ba5760405162461bcd60e51b815260040161021e90612769565b8015806104c657508042105b6104e25760405162461bcd60e51b815260040161021e90612630565b816104ff5760405162461bcd60e51b815260040161021e9061233d565b600183600581111561050d57fe5b14156105275761051c86610b06565b9450505050506105a4565b600283600581111561053557fe5b14156105445761051c86610e50565b600383600581111561055257fe5b14156105615761051c866110db565b600483600581111561056f57fe5b141561057e5761051c86610e50565b600583600581111561058c57fe5b141561059b5761051c866110db565b60009450505050505b919050565b6001546001600160a01b0316156105d25760405162461bcd60e51b815260040161021e90612306565b6001805473ffffffffffffffffffffffffffffffffffffffff19166001600160a01b0392909216919091179055565b606061060b610826565b6001600160a01b031661061c610329565b6001600160a01b0316146106425760405162461bcd60e51b815260040161021e906125fb565b610654846001600160a01b0316611438565b6106705760405162461bcd60e51b815260040161021e906124d3565b6106c083838080601f016020809104026020016040519081016040528093929190818152602001838380828437600092019190915250506001600160a01b0388169291505063ffffffff61143e16565b90505b9392505050565b6002546001600160a01b031681565b6106e1611d9e565b6106f1838363ffffffff61148016565b60000b6001146107015782610703565b815b90505b92915050565b610714610826565b6001600160a01b0316610725610329565b6001600160a01b03161461074b5760405162461bcd60e51b815260040161021e906125fb565b6001600160a01b0381166107715760405162461bcd60e51b815260040161021e906123d1565b600080546040516001600160a01b03808516939216917f8be0079c531659141344cd1fd0a4f28419497f9722a3daafe3b4186f6b6457e091a36000805473ffffffffffffffffffffffffffffffffffffffff19166001600160a01b0392909216919091179055565b6107e1610826565b6001600160a01b03166107f2610329565b6001600160a01b0316146108185760405162461bcd60e51b815260040161021e906125fb565b61082282826114b1565b5050565b3390565b610832611d9e565b61083a611d9e565b6001600160a01b0387166362267955610859878763ffffffff61176f16565b6040518263ffffffff1660e01b81526004016108759190612869565b604080518083038186803b15801561088c57600080fd5b505afa1580156108a0573d6000803e3d6000fd5b505050506040513d601f19601f820116820180604052508101906108c49190612102565b915091506108d0611d9e565b6108f0826108e4888663ffffffff61179b16565b9063ffffffff61179b16565b9050610944735d9593586b4b5edbd23e7eba8d88fd8f09d83ebd64e8d4a51000610919846117be565b8161092057fe5b73ddafbb505ad214d7b80b1f830fccc89b60fb7a839291900463ffffffff6117c216565b600061094f886118dd565b61095a57600161095d565b60005b9050610967611d9e565b610970896118fb565b905061097a611d9e565b8a6001600160a01b031663da0c592784610995576000610998565b60015b846040518363ffffffff1660e01b81526004016109b69291906122eb565b60206040518083038186803b1580156109ce57600080fd5b505afa1580156109e2573d6000803e3d6000fd5b505050506040513d601f19601f82011682018060405250810190610a0691906120cb565b9050610a10611d9e565b506040805160208101909152600181526000610a3a610a2d611929565b8c9063ffffffff61148016565b60000b13610a5a5760405162461bcd60e51b815260040161021e9061249c565b610a77610a71826108e4858e63ffffffff61194416565b8a6106d9565b9850735d9593586b4b5edbd23e7eba8d88fd8f09d83ebd63893d242d8d86610aa0576001610aa3565b60005b8d8d8d6040518663ffffffff1660e01b8152600401610ac6959493929190612296565b600060405180830381600087803b158015610ae057600080fd5b505af1158015610af4573d6000803e3d6000fd5b50505050505050505050505050505050565b6000610b10611d9e565b610b18611d9e565b610b20611d9e565b610b28611d9e565b610b30611d9e565b60015460405163038da8b760e61b81526001600160a01b039091169063e36a2dc090610b60908a90600401612873565b60e06040518083038186803b158015610b7857600080fd5b505afa158015610b8c573d6000803e3d6000fd5b505050506040513d601f19601f82011682018060405250810190610bb0919061212d565b50600154604051634c5789e360e01b8152959b50939950919750955093506000925082916001600160a01b0390911690634c5789e390610bf4908c90600401612873565b60c06040518083038186803b158015610c0c57600080fd5b505afa158015610c20573d6000803e3d6000fd5b505050506040513d601f19601f82011682018060405250810190610c449190611e81565b505093505050915060008090508115610c6457610c618388611967565b90505b6000610c6f886118dd565b610c7a576001610c7d565b60005b9050610c87611d9e565b846001600160a01b031663dc76fabc6040518163ffffffff1660e01b815260040160206040518083038186803b158015610cc057600080fd5b505afa158015610cd4573d6000803e3d6000fd5b505050506040513d601f19601f82011682018060405250810190610cf891906120cb565b9050600082610d0957600019610d0c565b60015b600f0b610d1f8c8463ffffffff61148016565b60000b1490508015610e25578315610e1357610d39611db1565b60405163023aedad60e11b8152735d9593586b4b5edbd23e7eba8d88fd8f09d83ebd90630475db5a90610d72908a903090600401612245565b60c06040518083038186803b158015610d8a57600080fd5b505afa158015610d9e573d6000803e3d6000fd5b505050506040513d601f19601f82011682018060405250810190610dc29190612050565b9050610dcc611d9e565b508051610e00610ddb8d6118fb565b610df4610de7846118fb565b8c9063ffffffff61176f16565b9063ffffffff61194416565b9850610e0c888a6114b1565b5050610e20565b610e20868b8b8b8b61082a565b610e3d565b60405162461bcd60e51b815260040161021e90612667565b5060019c9b505050505050505050505050565b6000610e5a611d9e565b610e62611d9e565b610e6a611d9e565b610e72611d9e565b60015460405163038da8b760e61b81526001600160a01b039091169063e36a2dc090610ea2908990600401612873565b60e06040518083038186803b158015610eba57600080fd5b505afa158015610ece573d6000803e3d6000fd5b505050506040513d601f19601f82011682018060405250810190610ef2919061212d565b5050600154604051634c5789e360e01b815295995092975090955093506000928392506001600160a01b0390911690634c5789e390610f35908b90600401612873565b60c06040518083038186803b158015610f4d57600080fd5b505afa158015610f61573d6000803e3d6000fd5b505050506040513d601f19601f82011682018060405250810190610f859190611e81565b505093505050915060008090508115610fa557610fa28387611967565b90505b6000610fb0876118dd565b610fbb576001610fbe565b60005b9050610fc8611d9e565b846001600160a01b031663dc76fabc6040518163ffffffff1660e01b815260040160206040518083038186803b15801561100157600080fd5b505afa158015611015573d6000803e3d6000fd5b505050506040513d601f19601f8201168201806040525081019061103991906120cb565b905060008261104a5760001961104d565b60015b600f0b611060838c63ffffffff61148016565b60000b14905080156110b15783156110905761108b86604051806020016040528060008152506114b1565b6110ac565b6110ac868a8a8a6040518060200160405280600081525061082a565b6110c9565b60405162461bcd60e51b815260040161021e9061242e565b5060019b9a5050505050505050505050565b60006110e5611d9e565b6110ed611d9e565b6110f5611d9e565b6110fd611d9e565b611105611d9e565b61110d611d9e565b60015460405163038da8b760e61b81526001600160a01b039091169063e36a2dc09061113d908b90600401612873565b60e06040518083038186803b15801561115557600080fd5b505afa158015611169573d6000803e3d6000fd5b505050506040513d601f19601f8201168201806040525081019061118d919061212d565b50600154604051634c5789e360e01b8152969c50949a509298509096509450925060009182916001600160a01b031690634c5789e3906111d1908d90600401612873565b60c06040518083038186803b1580156111e957600080fd5b505afa1580156111fd573d6000803e3d6000fd5b505050506040513d601f19601f820116820180604052508101906112219190611e81565b5050935050509150600080905081156112415761123e8388611967565b90505b600061124c886118dd565b61125757600161125a565b60005b9050611264611d9e565b846001600160a01b031663dc76fabc6040518163ffffffff1660e01b815260040160206040518083038186803b15801561129d57600080fd5b505afa1580156112b1573d6000803e3d6000fd5b505050506040513d601f19601f820116820180604052508101906112d591906120cb565b90506000826112e6576000196112e9565b60015b600f0b6112fc8c8463ffffffff61148016565b60000b14801561132f57508261131457600019611317565b60015b600f0b61132a838e63ffffffff61148016565b60000b145b9050801561140c5783156113fa57611345611db1565b60405163023aedad60e11b8152735d9593586b4b5edbd23e7eba8d88fd8f09d83ebd90630475db5a9061137e908a903090600401612245565b60c06040518083038186803b15801561139657600080fd5b505afa1580156113aa573d6000803e3d6000fd5b505050506040513d601f19601f820116820180604052508101906113ce9190612050565b90506113d8611d9e565b5080516113e7610ddb8d6118fb565b98506113f3888a6114b1565b5050611407565b611407868b8b8b8b61082a565b611424565b60405162461bcd60e51b815260040161021e9061269e565b5060019d9c50505050505050505050505050565b3b151590565b606061070383836040518060400160405280601e81526020017f416464726573733a206c6f772d6c6576656c2063616c6c206661696c65640000815250611b02565b80518251600091101561149557506001610706565b8151835110156114a85750600019610706565b50600092915050565b6114b9611db1565b60405163023aedad60e11b8152735d9593586b4b5edbd23e7eba8d88fd8f09d83ebd90630475db5a906114f29086903090600401612245565b60c06040518083038186803b15801561150a57600080fd5b505afa15801561151e573d6000803e3d6000fd5b505050506040513d601f19601f820116820180604052508101906115429190612050565b905061154c611d9e565b508051611557611d9e565b846001600160a01b031663da0c59276000611571856117be565b1361157d576001611580565b60005b611589856118fb565b6040518363ffffffff1660e01b81526004016115a69291906122eb565b60206040518083038186803b1580156115be57600080fd5b505afa1580156115d2573d6000803e3d6000fd5b505050506040513d601f19601f820116820180604052508101906115f691906120cb565b9050611600611d9e565b611608611d9e565b6040517f622679550000000000000000000000000000000000000000000000000000000081526001600160a01b0388169063622679559061164d908690600401612869565b604080518083038186803b15801561166457600080fd5b505afa158015611678573d6000803e3d6000fd5b505050506040513d601f19601f8201168201806040525081019061169c9190612102565b915091506116a8611d9e565b6116b8838363ffffffff61179b16565b90506116e1735d9593586b4b5edbd23e7eba8d88fd8f09d83ebd64e8d4a51000610919846117be565b6040517fa8c1b0bc000000000000000000000000000000000000000000000000000000008152735d9593586b4b5edbd23e7eba8d88fd8f09d83ebd9063a8c1b0bc90611733908b908b906004016122d1565b600060405180830381600087803b15801561174d57600080fd5b505af1158015611761573d6000803e3d6000fd5b505050505050505050505050565b611777611d9e565b61177f611d9e565b825184516117929163ffffffff611b1116565b81529392505050565b6117a3611d9e565b6117ab611d9e565b825184516117929163ffffffff611b1f16565b5190565b600061185282856001600160a01b031663dd62ed3e30876040518363ffffffff1660e01b81526004016117f6929190612245565b60206040518083038186803b15801561180e57600080fd5b505afa158015611822573d6000803e3d6000fd5b505050506040513d601f19601f8201168201806040525081019061184691906121d1565b9063ffffffff611b1f16565b90506118d78463095ea7b360e01b858460405160240161187392919061225f565b60408051601f198184030181529190526020810180517bffffffffffffffffffffffffffffffffffffffffffffffffffffffff167fffffffff0000000000000000000000000000000000000000000000000000000090931692909217909152611b44565b50505050565b600080826000015112156118f3575060016105a4565b506000919050565b611903611d9e565b61190b611d9e565b8251600013156119215782516000038152610706565b915182525090565b611931611d9e565b5060408051602081019091526000815290565b61194c611d9e565b611954611d9e565b825184516117929163ffffffff611bd816565b6000611971611db1565b6040517fb33dc190000000000000000000000000000000000000000000000000000000008152735d9593586b4b5edbd23e7eba8d88fd8f09d83ebd9063b33dc190906119c39087903090600401612245565b60c06040518083038186803b1580156119db57600080fd5b505afa1580156119ef573d6000803e3d6000fd5b505050506040513d601f19601f82011682018060405250810190611a139190612050565b9050611a1d611d9e565b508051611a31611a2c826118fb565b6117be565b611a4d5760405162461bcd60e51b815260040161021e90612832565b611a56816118dd565b1515611a61856118dd565b151514611ae257611a71846118dd565b15611ab257611a97611a82826118fb565b611a8b866118fb565b9063ffffffff61148016565b60000b60011415611aad57600192505050610706565b611add565b611ac7611abe856118fb565b611a8b836118fb565b60000b60011415611add57600192505050610706565b611afa565b60405162461bcd60e51b815260040161021e90612374565b505092915050565b60606106c08484600085611be6565b600061070383836012611ca7565b6000828201838110156107035760405162461bcd60e51b815260040161021e90612465565b6060611b99826040518060400160405280602081526020017f5361666545524332303a206c6f772d6c6576656c2063616c6c206661696c6564815250856001600160a01b0316611b029092919063ffffffff16565b805190915015611bd35780806020019051810190611bb79190611f7e565b611bd35760405162461bcd60e51b815260040161021e906127d5565b505050565b600061070383836012611cd1565b606082471015611c085760405162461bcd60e51b815260040161021e9061250a565b611c1185611438565b611c2d5760405162461bcd60e51b815260040161021e90612732565b60006060866001600160a01b03168587604051611c4a9190612215565b60006040518083038185875af1925050503d8060008114611c87576040519150601f19603f3d011682016040523d82523d6000602084013e611c8c565b606091505b5091509150611c9c828286611cf0565b979650505050505050565b60006106c0611cb583611d29565b611cc5868663ffffffff611d3216565b9063ffffffff611d6c16565b60006106c083611cc5611ce385611d29565b879063ffffffff611d3216565b60608315611cff5750816106c3565b825115611d0f5782518084602001fd5b8160405162461bcd60e51b815260040161021e9190612283565b60ff16600a0a90565b600082611d4157506000610706565b82820282848281611d4e57fe5b04146107035760405162461bcd60e51b815260040161021e9061259e565b6000808211611d8d5760405162461bcd60e51b815260040161021e90612567565b818381611d9657fe5b049392505050565b6040518060200160405280600081525090565b6040518060c00160405280611dc4611d9e565b8152602001611dd1611d9e565b8152602001611dde611d9e565b8152602001611deb611d9e565b815260200160008152602001600081525090565b600060208284031215611e10578081fd5b611e1a602061287c565b9135825250919050565b600060208284031215611e35578081fd5b611e3f602061287c565b9151825250919050565b600060208284031215611e5a578081fd5b8135610703816128dc565b600060208284031215611e76578081fd5b8151610703816128dc565b60008060008060008060c08789031215611e99578182fd5b8651611ea4816128dc565b6020880151909650611eb5816128dc565b604088015190955060068110611ec9578283fd5b6060880151909450611eda816128f1565b6080880151909350611eeb816128f1565b8092505060a087015190509295509295509295565b600080600060408486031215611f14578283fd5b8335611f1f816128dc565b9250602084013567ffffffffffffffff80821115611f3b578384fd5b81860187601f820112611f4c578485fd5b8035925081831115611f5c578485fd5b876020848301011115611f6d578485fd5b949760209095019650909450505050565b600060208284031215611f8f578081fd5b8151610703816128f1565b60008060408385031215611fac578182fd5b8235611fb7816128dc565b9150611fc68460208501611dff565b90509250929050565b600080600080600085870360a0811215611fe7578182fd5b8635611ff2816128dc565b95506020601f1982011215612005578182fd5b50612010602061287c565b6020870135815293506120268760408801611dff565b92506120358760608801611dff565b91506120448760808801611dff565b90509295509295909350565b600060c08284031215612061578081fd5b61206b60c061287c565b6120758484611e24565b81526120848460208501611e24565b60208201526120968460408501611e24565b60408201526120a88460608501611e24565b60608201526080830151608082015260a083015160a08201528091505092915050565b6000602082840312156120dc578081fd5b6107038383611e24565b600080604083850312156120f8578182fd5b611fb78484611dff565b60008060408385031215612114578182fd5b61211e8484611e24565b9150611fc68460208501611e24565b600080600080600080600060e0888a031215612147578485fd5b6121518989611e24565b96506121608960208a01611e24565b955061216f8960408a01611e24565b945061217e8960608a01611e24565b935061218d8960808a01611e24565b925061219c8960a08a01611e24565b91506121ab8960c08a01611e24565b905092959891949750929550565b6000602082840312156121ca578081fd5b5035919050565b6000602082840312156121e2578081fd5b5051919050565b600081518084526122018160208601602086016128a3565b601f01601f19169290920160200192915050565b600082516122278184602087016128a3565b9190910192915050565b6001600160a01b0391909116815260200190565b6001600160a01b0392831681529116602082015260400190565b6001600160a01b03929092168252602082015260400190565b901515815260200190565b60006020825261070360208301846121e9565b6001600160a01b038616815260a081016122af866128cf565b6020820195909552925160408401529051606083015251608090910152919050565b6001600160a01b0392909216825251602082015260400190565b604081016122f8846128cf565b928152905160209091015290565b60208082526018908201527f4c4f422068617320616c7265616479206265656e207365740000000000000000604082015260600190565b60208082526015908201527f4f72646572206e6f206c6f6e6765722076616c69640000000000000000000000604082015260600190565b6020808252602d908201527f237265647563654f6e6c793a2063616e6e6f7420696e6372656173652073697a60408201527f65206f6620706f736974696f6e00000000000000000000000000000000000000606082015260800190565b60208082526026908201527f4f776e61626c653a206e6577206f776e657220697320746865207a65726f206160408201527f6464726573730000000000000000000000000000000000000000000000000000606082015260800190565b6020808252601c908201527f507269636520686173206e6f74206869742073746f7020707269636500000000604082015260600190565b6020808252601b908201527f536166654d6174683a206164646974696f6e206f766572666c6f770000000000604082015260600190565b60208082526017908201527f43616e6e6f7420757365203020636f6c6c61746572616c000000000000000000604082015260600190565b60208082526014908201527f63616c6c20746f206e6f6e2d636f6e7472616374000000000000000000000000604082015260600190565b60208082526026908201527f416464726573733a20696e73756666696369656e742062616c616e636520666f60408201527f722063616c6c0000000000000000000000000000000000000000000000000000606082015260800190565b6020808252601a908201527f536166654d6174683a206469766973696f6e206279207a65726f000000000000604082015260600190565b60208082526021908201527f536166654d6174683a206d756c7469706c69636174696f6e206f766572666c6f60408201527f7700000000000000000000000000000000000000000000000000000000000000606082015260800190565b6020808252818101527f4f776e61626c653a2063616c6c6572206973206e6f7420746865206f776e6572604082015260600190565b6020808252600d908201527f4f72646572206578706972656400000000000000000000000000000000000000604082015260600190565b6020808252601d908201527f507269636520686173206e6f7420686974206c696d6974207072696365000000604082015260600190565b60208082526021908201527f507269636520686173206e6f74206869742073746f706c696d6974207072696360408201527f6500000000000000000000000000000000000000000000000000000000000000606082015260800190565b60208082526018908201527f5357462068617320616c7265616479206265656e207365740000000000000000604082015260600190565b6020808252601d908201527f416464726573733a2063616c6c20746f206e6f6e2d636f6e7472616374000000604082015260600190565b60208082526016908201527f496e636f727265637420736d6172742077616c6c657400000000000000000000604082015260600190565b6020808252818101527f4f6e6c7920657865637574652066726f6d20746865206f7264657220626f6f6b604082015260600190565b6020808252602a908201527f5361666545524332303a204552433230206f7065726174696f6e20646964206e60408201527f6f74207375636365656400000000000000000000000000000000000000000000606082015260800190565b6020808252601e908201527f237265647563654f6e6c793a2063757272656e742073697a6520697320300000604082015260600190565b9051815260200190565b90815260200190565b60405181810167ffffffffffffffff8111828210171561289b57600080fd5b604052919050565b60005b838110156128be5781810151838201526020016128a6565b838111156118d75750506000910152565b600281106128d957fe5b50565b6001600160a01b03811681146128d957600080fd5b80151581146128d957600080fdfea2646970667358221220efab9ea3e5e34e833e6395ced3250138e73db7317c6124ee719314f553907c0964736f6c63430006090033",
  "linkReferences": {},
  "deployedLinkReferences": {}
}