{
  "_format": "hh-sol-artifact-1",
  "contractName": "SmartWallet",
  "sourceName": "contracts/SmartWallet.sol",
  "abi": [
    {
      "anonymous": false,
      "inputs": [
        {
          "indexed": true,
          "internalType": "address",
          "name": "previousOwner",
          "type": "address"
        },
        {
          "indexed": true,
          "internalType": "address",
          "name": "newOwner",
          "type": "address"
        }
      ],
      "name": "OwnershipTransferred",
      "type": "event"
    },
    {
      "inputs": [],
      "name": "LOB",
      "outputs": [
        {
          "internalType": "contract LimitOrderBook",
          "name": "",
          "type": "address"
        }
      ],
      "stateMutability": "view",
      "type": "function"
    },
    {
      "inputs": [],
      "name": "approveAll",
      "outputs": [],
      "stateMutability": "nonpayable",
      "type": "function"
    },
    {
      "inputs": [
        {
          "internalType": "address",
          "name": "target",
          "type": "address"
        },
        {
          "internalType": "bytes",
          "name": "callData",
          "type": "bytes"
        }
      ],
      "name": "executeCall",
      "outputs": [
        {
          "internalType": "bytes",
          "name": "",
          "type": "bytes"
        }
      ],
      "stateMutability": "nonpayable",
      "type": "function"
    },
    {
      "inputs": [
        {
          "internalType": "uint256",
          "name": "order_id",
          "type": "uint256"
        }
      ],
      "name": "executeOrder",
      "outputs": [
        {
          "internalType": "bool",
          "name": "",
          "type": "bool"
        }
      ],
      "stateMutability": "nonpayable",
      "type": "function"
    },
    {
      "inputs": [],
      "name": "factory",
      "outputs": [
        {
          "internalType": "contract SmartWalletFactory",
          "name": "",
          "type": "address"
        }
      ],
      "stateMutability": "view",
      "type": "function"
    },
    {
      "inputs": [
        {
          "components": [
            {
              "internalType": "uint256",
              "name": "d",
              "type": "uint256"
            }
          ],
          "internalType": "struct Decimal.decimal",
          "name": "a",
          "type": "tuple"
        },
        {
          "components": [
            {
              "internalType": "uint256",
              "name": "d",
              "type": "uint256"
            }
          ],
          "internalType": "struct Decimal.decimal",
          "name": "b",
          "type": "tuple"
        }
      ],
      "name": "minD",
      "outputs": [
        {
          "components": [
            {
              "internalType": "uint256",
              "name": "d",
              "type": "uint256"
            }
          ],
          "internalType": "struct Decimal.decimal",
          "name": "",
          "type": "tuple"
        }
      ],
      "stateMutability": "pure",
      "type": "function"
    },
    {
      "inputs": [],
      "name": "owner",
      "outputs": [
        {
          "internalType": "address",
          "name": "",
          "type": "address"
        }
      ],
      "stateMutability": "view",
      "type": "function"
    },
    {
      "inputs": [],
      "name": "renounceOwnership",
      "outputs": [],
      "stateMutability": "nonpayable",
      "type": "function"
    },
    {
      "inputs": [
        {
          "internalType": "contract SmartWalletFactory",
          "name": "_addr",
          "type": "address"
        }
      ],
      "name": "setFactory",
      "outputs": [],
      "stateMutability": "nonpayable",
      "type": "function"
    },
    {
      "inputs": [
        {
          "internalType": "address",
          "name": "_addr",
          "type": "address"
        }
      ],
      "name": "setOrderBook",
      "outputs": [],
      "stateMutability": "nonpayable",
      "type": "function"
    },
    {
      "inputs": [
        {
          "internalType": "address",
          "name": "newOwner",
          "type": "address"
        }
      ],
      "name": "transferOwnership",
      "outputs": [],
      "stateMutability": "nonpayable",
      "type": "function"
    }
  ],
  "bytecode": "0x608060405234801561001057600080fd5b5060006100246001600160e01b0361007316565b600080546001600160a01b0319166001600160a01b0383169081178255604051929350917f8be0079c531659141344cd1fd0a4f28419497f9722a3daafe3b4186f6b6457e0908290a350610077565b3390565b612997806100866000396000f3fe608060405234801561001057600080fd5b50600436106100c95760003560e01c806394f6113411610081578063c45a01551161005b578063c45a01551461016c578063cca9dfa914610174578063f2fde38b14610194576100c9565b806394f61134146101195780639a1598c814610139578063bca8c7b51461014c576100c9565b80635bb47808116100b25780635bb47808146100f6578063715018a6146101095780638da5cb5b14610111576100c9565b8063380d0c08146100ce5780633dbd33ee146100d8575b600080fd5b6100d66101a7565b005b6100e061025b565b6040516100ed9190612217565b60405180910390f35b6100d6610104366004611ecd565b61026a565b6100d66102cb565b6100e0610361565b61012c61012736600461219f565b610370565b6040516100ed919061225e565b6100d6610147366004611ecd565b6105e1565b61015f61015a366004611f84565b610639565b6040516100ed9190612269565b6100e0610702565b6101876101823660046120b4565b610711565b6040516100ed91906128ce565b6100d66101a2366004611ecd565b610744565b6001546040517f095ea7b300000000000000000000000000000000000000000000000000000000815273ddafbb505ad214d7b80b1f830fccc89b60fb7a839163095ea7b391610206916001600160a01b03169060001990600401612245565b602060405180830381600087803b15801561022057600080fd5b505af1158015610234573d6000803e3d6000fd5b505050506040513d601f19601f820116820180604052508101906102589190612002565b50565b6001546001600160a01b031681565b6002546001600160a01b03161561029c5760405162461bcd60e51b815260040161029390612760565b60405180910390fd5b6002805473ffffffffffffffffffffffffffffffffffffffff19166001600160a01b0392909216919091179055565b6102d3610811565b6001600160a01b03166102e4610361565b6001600160a01b03161461030a5760405162461bcd60e51b815260040161029390612603565b600080546040516001600160a01b03909116907f8be0079c531659141344cd1fd0a4f28419497f9722a3daafe3b4186f6b6457e0908390a36000805473ffffffffffffffffffffffffffffffffffffffff19169055565b6000546001600160a01b031690565b6001546000906001600160a01b0316331461039d5760405162461bcd60e51b815260040161029390612805565b600154604051634c5789e360e01b81526000918291829182916001600160a01b0390911690634c5789e3906103d69089906004016128d8565b60c06040518083038186803b1580156103ee57600080fd5b505afa158015610402573d6000803e3d6000fd5b505050506040513d601f19601f820116820180604052508101906104269190611f05565b6002546040517fa0b73881000000000000000000000000000000000000000000000000000000008152959a509398509096509450309350506001600160a01b03169063a0b738819061047c908890600401612217565b60206040518083038186803b15801561049457600080fd5b505afa1580156104a8573d6000803e3d6000fd5b505050506040513d601f19601f820116820180604052508101906104cc9190611ee9565b6001600160a01b0316146104f25760405162461bcd60e51b8152600401610293906127ce565b8015806104fe57508042105b61051a5760405162461bcd60e51b815260040161029390612638565b816105375760405162461bcd60e51b815260040161029390612345565b600183600581111561054557fe5b141561055f5761055486610815565b9450505050506105dc565b600283600581111561056d57fe5b141561057c5761055486610bf7565b600383600581111561058a57fe5b14156105995761055486610fb0565b60048360058111156105a757fe5b14156105b65761055486610bf7565b60058360058111156105c457fe5b14156105d35761055486610fb0565b60009450505050505b919050565b6001546001600160a01b03161561060a5760405162461bcd60e51b81526004016102939061230e565b6001805473ffffffffffffffffffffffffffffffffffffffff19166001600160a01b0392909216919091179055565b6060610643610811565b6001600160a01b0316610654610361565b6001600160a01b03161461067a5760405162461bcd60e51b815260040161029390612603565b61068c846001600160a01b031661139b565b6106a85760405162461bcd60e51b8152600401610293906124a4565b6106f883838080601f016020809104026020016040519081016040528093929190818152602001838380828437600092019190915250506001600160a01b0388169291505063ffffffff6113a116565b90505b9392505050565b6002546001600160a01b031681565b610719611e22565b610729838363ffffffff6113e316565b60000b600114610739578261073b565b815b90505b92915050565b61074c610811565b6001600160a01b031661075d610361565b6001600160a01b0316146107835760405162461bcd60e51b815260040161029390612603565b6001600160a01b0381166107a95760405162461bcd60e51b8152600401610293906123d9565b600080546040516001600160a01b03808516939216917f8be0079c531659141344cd1fd0a4f28419497f9722a3daafe3b4186f6b6457e091a36000805473ffffffffffffffffffffffffffffffffffffffff19166001600160a01b0392909216919091179055565b3390565b600061081f611e22565b610827611e22565b61082f611e22565b610837611e22565b61083f611e22565b60015460405163038da8b760e61b81526001600160a01b039091169063e36a2dc09061086f908a906004016128d8565b60e06040518083038186803b15801561088757600080fd5b505afa15801561089b573d6000803e3d6000fd5b505050506040513d601f19601f820116820180604052508101906108bf9190612113565b50600154604051634c5789e360e01b8152959b50939950919750955093506000925082916001600160a01b0390911690634c5789e390610903908c906004016128d8565b60c06040518083038186803b15801561091b57600080fd5b505afa15801561092f573d6000803e3d6000fd5b505050506040513d601f19601f820116820180604052508101906109539190611f05565b505093505050915060008090508115610973576109708388611414565b90505b600061097e886115d7565b61098957600161098c565b60005b9050610996611e22565b846001600160a01b031663dc76fabc6040518163ffffffff1660e01b815260040160206040518083038186803b1580156109cf57600080fd5b505afa1580156109e3573d6000803e3d6000fd5b505050506040513d601f19601f82011682018060405250810190610a079190612099565b9050600082610a1857600019610a1b565b60015b600f0b610a2e8c8463ffffffff6113e316565b60000b1490508015610bcc57610a42611e22565b610a4b8b6115f5565b9050610a55611e22565b876001600160a01b031663da0c592786610a70576000610a73565b60015b846040518363ffffffff1660e01b8152600401610a919291906122d1565b60206040518083038186803b158015610aa957600080fd5b505afa158015610abd573d6000803e3d6000fd5b505050506040513d601f19601f82011682018060405250810190610ae19190612099565b9050610b13610b0d610af1611623565b610b01848f63ffffffff61164716565b9063ffffffff61167316565b8b610711565b99508515610bb857610b2b828e63ffffffff61169616565b9850610b45610b38611623565b8a9063ffffffff6116b916565b604051632a306c2f60e21b8152909950735d9593586b4b5edbd23e7eba8d88fd8f09d83ebd9063a8c1b0bc90610b81908b908d906004016122b7565b600060405180830381600087803b158015610b9b57600080fd5b505af1158015610baf573d6000803e3d6000fd5b50505050610bc5565b610bc588868d8d8d6116dc565b5050610be4565b60405162461bcd60e51b81526004016102939061266f565b5060019c9b505050505050505050505050565b6000610c01611e22565b610c09611e22565b610c11611e22565b610c19611e22565b60015460405163038da8b760e61b81526001600160a01b039091169063e36a2dc090610c499089906004016128d8565b60e06040518083038186803b158015610c6157600080fd5b505afa158015610c75573d6000803e3d6000fd5b505050506040513d601f19601f82011682018060405250810190610c999190612113565b5050600154604051634c5789e360e01b815295995092975090955093506000928392506001600160a01b0390911690634c5789e390610cdc908b906004016128d8565b60c06040518083038186803b158015610cf457600080fd5b505afa158015610d08573d6000803e3d6000fd5b505050506040513d601f19601f82011682018060405250810190610d2c9190611f05565b505093505050915060008090508115610d4c57610d498387611414565b90505b6000610d57876115d7565b610d62576001610d65565b60005b9050610d6f611e22565b846001600160a01b031663dc76fabc6040518163ffffffff1660e01b815260040160206040518083038186803b158015610da857600080fd5b505afa158015610dbc573d6000803e3d6000fd5b505050506040513d601f19601f82011682018060405250810190610de09190612099565b9050600082610df157600019610df4565b60015b600f0b610e07838c63ffffffff6113e316565b60000b1490508015610f8657610e1b611e22565b610e248a6115f5565b9050610e2e611e22565b876001600160a01b031663da0c592786610e49576000610e4c565b60015b846040518363ffffffff1660e01b8152600401610e6a9291906122d1565b60206040518083038186803b158015610e8257600080fd5b505afa158015610e96573d6000803e3d6000fd5b505050506040513d601f19601f82011682018060405250810190610eba9190612099565b9050610ee0610eda610eca611623565b610b01848e63ffffffff61164716565b8a610711565b98508515610f635760408051602081018252600081529051632a306c2f60e21b8152735d9593586b4b5edbd23e7eba8d88fd8f09d83ebd9163a8c1b0bc91610f2c918c916004016122b7565b600060405180830381600087803b158015610f4657600080fd5b505af1158015610f5a573d6000803e3d6000fd5b50505050610f7f565b610f7f88868c8c604051806020016040528060008152506116dc565b5050610f9e565b60405162461bcd60e51b815260040161029390612436565b5060019b9a5050505050505050505050565b6000610fba611e22565b610fc2611e22565b610fca611e22565b610fd2611e22565b610fda611e22565b610fe2611e22565b60015460405163038da8b760e61b81526001600160a01b039091169063e36a2dc090611012908b906004016128d8565b60e06040518083038186803b15801561102a57600080fd5b505afa15801561103e573d6000803e3d6000fd5b505050506040513d601f19601f820116820180604052508101906110629190612113565b50600154604051634c5789e360e01b8152969c50949a509298509096509450925060009182916001600160a01b031690634c5789e3906110a6908d906004016128d8565b60c06040518083038186803b1580156110be57600080fd5b505afa1580156110d2573d6000803e3d6000fd5b505050506040513d601f19601f820116820180604052508101906110f69190611f05565b505093505050915060008090508115611116576111138388611414565b90505b6000611121886115d7565b61112c57600161112f565b60005b9050611139611e22565b846001600160a01b031663dc76fabc6040518163ffffffff1660e01b815260040160206040518083038186803b15801561117257600080fd5b505afa158015611186573d6000803e3d6000fd5b505050506040513d601f19601f820116820180604052508101906111aa9190612099565b90506000826111bb576000196111be565b60015b600f0b6111d18c8463ffffffff6113e316565b60000b1480156112045750826111e9576000196111ec565b60015b600f0b6111ff838e63ffffffff6113e316565b60000b145b9050801561136f57611214611e22565b61121d8b6115f5565b9050611227611e22565b876001600160a01b031663da0c592786611242576000611245565b60015b846040518363ffffffff1660e01b81526004016112639291906122d1565b60206040518083038186803b15801561127b57600080fd5b505afa15801561128f573d6000803e3d6000fd5b505050506040513d601f19601f820116820180604052508101906112b39190612099565b90506112c3610b0d610af1611623565b9950851561135b576112db828e63ffffffff61169616565b98506112e8610b38611623565b604051632a306c2f60e21b8152909950735d9593586b4b5edbd23e7eba8d88fd8f09d83ebd9063a8c1b0bc90611324908b908d906004016122b7565b600060405180830381600087803b15801561133e57600080fd5b505af1158015611352573d6000803e3d6000fd5b50505050611368565b61136888868d8d8d6116dc565b5050611387565b60405162461bcd60e51b815260040161029390612703565b5060019d9c50505050505050505050505050565b3b151590565b606061073b83836040518060400160405280601e81526020017f416464726573733a206c6f772d6c6576656c2063616c6c206661696c656400008152506119a7565b8051825160009110156113f85750600161073e565b81518351101561140b575060001961073e565b50600092915050565b600061141e611e35565b6040517fb33dc190000000000000000000000000000000000000000000000000000000008152735d9593586b4b5edbd23e7eba8d88fd8f09d83ebd9063b33dc19090611470908790309060040161222b565b60c06040518083038186803b15801561148857600080fd5b505afa15801561149c573d6000803e3d6000fd5b505050506040513d601f19601f820116820180604052508101906114c0919061201e565b90506114ca611e22565b5080516114de6114d9826115f5565b6119b6565b6114fa5760405162461bcd60e51b815260040161029390612897565b611503816115d7565b151561150e856115d7565b1515146115b75761151e846115d7565b1561155f5761154461152f826115f5565b611538866115f5565b9063ffffffff6113e316565b60000b6001141561155a5760019250505061073e565b61158a565b61157461156b856115f5565b611538836115f5565b60000b6001141561158a5760019250505061073e565b6115966114d9856115f5565b6115b25760405162461bcd60e51b8152600401610293906126a6565b6115cf565b60405162461bcd60e51b81526004016102939061237c565b505092915050565b600080826000015112156115ed575060016105dc565b506000919050565b6115fd611e22565b611605611e22565b82516000131561161b578251600003815261073e565b915182525090565b61162b611e22565b604051806020016040528061164060126119ba565b9052905090565b61164f611e22565b611657611e22565b8251845161166a9163ffffffff6119c316565b81529392505050565b61167b611e22565b611683611e22565b8251845161166a9163ffffffff6119d116565b61169e611e22565b6116a6611e22565b8251845161166a9163ffffffff6119f616565b6116c1611e22565b6116c9611e22565b8251845161166a9163ffffffff611a0416565b6116e4611e22565b6116ec611e22565b6001600160a01b038716636226795561170b878763ffffffff61169616565b6040518263ffffffff1660e01b815260040161172791906128ce565b604080518083038186803b15801561173e57600080fd5b505afa158015611752573d6000803e3d6000fd5b505050506040513d601f19601f8201168201806040525081019061177691906120e8565b91509150611782611e22565b61179682610b01888663ffffffff61167316565b90506117df6040518060400160405280600a81526020017f544f54414c20434f5354000000000000000000000000000000000000000000008152506117da836119b6565b611a2c565b611831735d9593586b4b5edbd23e7eba8d88fd8f09d83ebd64e8d4a51000611806846119b6565b8161180d57fe5b73ddafbb505ad214d7b80b1f830fccc89b60fb7a839291900463ffffffff611aa316565b604080518082018252600981527f415050524f56414c3a0000000000000000000000000000000000000000000000602082015290517fdd62ed3e00000000000000000000000000000000000000000000000000000000815261191e919073ddafbb505ad214d7b80b1f830fccc89b60fb7a839063dd62ed3e906118ce903090735d9593586b4b5edbd23e7eba8d88fd8f09d83ebd9060040161222b565b60206040518083038186803b1580156118e657600080fd5b505afa1580156118fa573d6000803e3d6000fd5b505050506040513d601f19601f820116820180604052508101906117da91906121b7565b735d9593586b4b5edbd23e7eba8d88fd8f09d83ebd63893d242d8989611945576001611948565b60005b8989896040518663ffffffff1660e01b815260040161196b95949392919061227c565b600060405180830381600087803b15801561198557600080fd5b505af1158015611999573d6000803e3d6000fd5b505050505050505050505050565b60606106f88484600085611bbe565b5190565b60ff16600a0a90565b600061073b83836012611c7f565b60008282018381101561073b5760405162461bcd60e51b81526004016102939061246d565b600061073b83836012611caa565b600082821115611a265760405162461bcd60e51b8152600401610293906124db565b50900390565b611a9f8282604051602401611a429291906122ec565b60408051601f198184030181529190526020810180517bffffffffffffffffffffffffffffffffffffffffffffffffffffffff167f9710a9d000000000000000000000000000000000000000000000000000000000179052611cc8565b5050565b6000611b3382856001600160a01b031663dd62ed3e30876040518363ffffffff1660e01b8152600401611ad792919061222b565b60206040518083038186803b158015611aef57600080fd5b505afa158015611b03573d6000803e3d6000fd5b505050506040513d601f19601f82011682018060405250810190611b2791906121b7565b9063ffffffff6119d116565b9050611bb88463095ea7b360e01b8584604051602401611b54929190612245565b60408051601f198184030181529190526020810180517bffffffffffffffffffffffffffffffffffffffffffffffffffffffff167fffffffff0000000000000000000000000000000000000000000000000000000090931692909217909152611ce9565b50505050565b606082471015611be05760405162461bcd60e51b815260040161029390612512565b611be98561139b565b611c055760405162461bcd60e51b815260040161029390612797565b60006060866001600160a01b03168587604051611c2291906121fb565b60006040518083038185875af1925050503d8060008114611c5f576040519150601f19603f3d011682016040523d82523d6000602084013e611c64565b606091505b5091509150611c74828286611d7d565b979650505050505050565b60006106f883611c9e611c91856119ba565b879063ffffffff611db616565b9063ffffffff611df016565b60006106f8611cb8836119ba565b611c9e868663ffffffff611db616565b80516a636f6e736f6c652e6c6f67602083016000808483855afa5050505050565b6060611d3e826040518060400160405280602081526020017f5361666545524332303a206c6f772d6c6576656c2063616c6c206661696c6564815250856001600160a01b03166119a79092919063ffffffff16565b805190915015611d785780806020019051810190611d5c9190612002565b611d785760405162461bcd60e51b81526004016102939061283a565b505050565b60608315611d8c5750816106fb565b825115611d9c5782518084602001fd5b8160405162461bcd60e51b81526004016102939190612269565b600082611dc55750600061073e565b82820282848281611dd257fe5b041461073b5760405162461bcd60e51b8152600401610293906125a6565b6000808211611e115760405162461bcd60e51b81526004016102939061256f565b818381611e1a57fe5b049392505050565b6040518060200160405280600081525090565b6040518060c00160405280611e48611e22565b8152602001611e55611e22565b8152602001611e62611e22565b8152602001611e6f611e22565b815260200160008152602001600081525090565b600060208284031215611e94578081fd5b611e9e60206128e1565b9135825250919050565b600060208284031215611eb9578081fd5b611ec360206128e1565b9151825250919050565b600060208284031215611ede578081fd5b813561073b8161293e565b600060208284031215611efa578081fd5b815161073b8161293e565b60008060008060008060c08789031215611f1d578182fd5b8651611f288161293e565b6020880151909650611f398161293e565b604088015190955060068110611f4d578283fd5b6060880151909450611f5e81612953565b6080880151909350611f6f81612953565b8092505060a087015190509295509295509295565b600080600060408486031215611f98578283fd5b8335611fa38161293e565b9250602084013567ffffffffffffffff80821115611fbf578384fd5b81860187601f820112611fd0578485fd5b8035925081831115611fe0578485fd5b876020848301011115611ff1578485fd5b949760209095019650909450505050565b600060208284031215612013578081fd5b815161073b81612953565b600060c0828403121561202f578081fd5b61203960c06128e1565b6120438484611ea8565b81526120528460208501611ea8565b60208201526120648460408501611ea8565b60408201526120768460608501611ea8565b60608201526080830151608082015260a083015160a08201528091505092915050565b6000602082840312156120aa578081fd5b61073b8383611ea8565b600080604083850312156120c6578182fd5b6120d08484611e83565b91506120df8460208501611e83565b90509250929050565b600080604083850312156120fa578182fd5b6121048484611ea8565b91506120df8460208501611ea8565b600080600080600080600060e0888a03121561212d578081fd5b6121378989611ea8565b96506121468960208a01611ea8565b95506121558960408a01611ea8565b94506121648960608a01611ea8565b93506121738960808a01611ea8565b92506121828960a08a01611ea8565b91506121918960c08a01611ea8565b905092959891949750929550565b6000602082840312156121b0578081fd5b5035919050565b6000602082840312156121c8578081fd5b5051919050565b600081518084526121e7816020860160208601612908565b601f01601f19169290920160200192915050565b6000825161220d818460208701612908565b9190910192915050565b6001600160a01b0391909116815260200190565b6001600160a01b0392831681529116602082015260400190565b6001600160a01b03929092168252602082015260400190565b901515815260200190565b60006020825261073b60208301846121cf565b6001600160a01b038616815260a0810161229586612934565b6020820195909552925160408401529051606083015251608090910152919050565b6001600160a01b0392909216825251602082015260400190565b604081016122de84612934565b928152905160209091015290565b6000604082526122ff60408301856121cf565b90508260208301529392505050565b60208082526018908201527f4c4f422068617320616c7265616479206265656e207365740000000000000000604082015260600190565b60208082526015908201527f4f72646572206e6f206c6f6e6765722076616c69640000000000000000000000604082015260600190565b6020808252602d908201527f237265647563654f6e6c793a2063616e6e6f7420696e6372656173652073697a60408201527f65206f6620706f736974696f6e00000000000000000000000000000000000000606082015260800190565b60208082526026908201527f4f776e61626c653a206e6577206f776e657220697320746865207a65726f206160408201527f6464726573730000000000000000000000000000000000000000000000000000606082015260800190565b6020808252601c908201527f507269636520686173206e6f74206869742073746f7020707269636500000000604082015260600190565b6020808252601b908201527f536166654d6174683a206164646974696f6e206f766572666c6f770000000000604082015260600190565b60208082526014908201527f63616c6c20746f206e6f6e2d636f6e7472616374000000000000000000000000604082015260600190565b6020808252601e908201527f536166654d6174683a207375627472616374696f6e206f766572666c6f770000604082015260600190565b60208082526026908201527f416464726573733a20696e73756666696369656e742062616c616e636520666f60408201527f722063616c6c0000000000000000000000000000000000000000000000000000606082015260800190565b6020808252601a908201527f536166654d6174683a206469766973696f6e206279207a65726f000000000000604082015260600190565b60208082526021908201527f536166654d6174683a206d756c7469706c69636174696f6e206f766572666c6f60408201527f7700000000000000000000000000000000000000000000000000000000000000606082015260800190565b6020808252818101527f4f776e61626c653a2063616c6c6572206973206e6f7420746865206f776e6572604082015260600190565b6020808252600d908201527f4f72646572206578706972656400000000000000000000000000000000000000604082015260600190565b6020808252601d908201527f507269636520686173206e6f7420686974206c696d6974207072696365000000604082015260600190565b60208082526022908201527f237265647563654f6e6c793a206f7264657253697a652063616e6e6f7420626560408201527f2030000000000000000000000000000000000000000000000000000000000000606082015260800190565b60208082526021908201527f507269636520686173206e6f74206869742073746f706c696d6974207072696360408201527f6500000000000000000000000000000000000000000000000000000000000000606082015260800190565b60208082526018908201527f5357462068617320616c7265616479206265656e207365740000000000000000604082015260600190565b6020808252601d908201527f416464726573733a2063616c6c20746f206e6f6e2d636f6e7472616374000000604082015260600190565b60208082526016908201527f496e636f727265637420736d6172742077616c6c657400000000000000000000604082015260600190565b6020808252818101527f4f6e6c7920657865637574652066726f6d20746865206f7264657220626f6f6b604082015260600190565b6020808252602a908201527f5361666545524332303a204552433230206f7065726174696f6e20646964206e60408201527f6f74207375636365656400000000000000000000000000000000000000000000606082015260800190565b6020808252601e908201527f237265647563654f6e6c793a2063757272656e742073697a6520697320300000604082015260600190565b9051815260200190565b90815260200190565b60405181810167ffffffffffffffff8111828210171561290057600080fd5b604052919050565b60005b8381101561292357818101518382015260200161290b565b83811115611bb85750506000910152565b6002811061025857fe5b6001600160a01b038116811461025857600080fd5b801515811461025857600080fdfea26469706673582212207f13ab4a051fcd7737590780af2064382d2d4ea80e853db4ca9cbe2d61b0b12564736f6c63430006090033",
  "linkReferences": {},
  "deployedLinkReferences": {}
}