{
  "_format": "hh-sol-artifact-1",
  "contractName": "SmartWallet",
  "sourceName": "contracts/SmartWallet.sol",
  "abi": [
    {
      "anonymous": false,
      "inputs": [
        {
          "indexed": true,
          "internalType": "address",
          "name": "previousOwner",
          "type": "address"
        },
        {
          "indexed": true,
          "internalType": "address",
          "name": "newOwner",
          "type": "address"
        }
      ],
      "name": "OwnershipTransferred",
      "type": "event"
    },
    {
      "inputs": [],
      "name": "approveAll",
      "outputs": [],
      "stateMutability": "nonpayable",
      "type": "function"
    },
    {
      "inputs": [
        {
          "internalType": "address",
          "name": "target",
          "type": "address"
        },
        {
          "internalType": "bytes",
          "name": "callData",
          "type": "bytes"
        }
      ],
      "name": "executeCall",
      "outputs": [
        {
          "internalType": "bytes",
          "name": "",
          "type": "bytes"
        }
      ],
      "stateMutability": "nonpayable",
      "type": "function"
    },
    {
      "inputs": [
        {
          "internalType": "uint256",
          "name": "order_id",
          "type": "uint256"
        }
      ],
      "name": "executeOrder",
      "outputs": [
        {
          "internalType": "bool",
          "name": "",
          "type": "bool"
        }
      ],
      "stateMutability": "nonpayable",
      "type": "function"
    },
    {
      "inputs": [
        {
          "components": [
            {
              "internalType": "uint256",
              "name": "d",
              "type": "uint256"
            }
          ],
          "internalType": "struct Decimal.decimal",
          "name": "a",
          "type": "tuple"
        },
        {
          "components": [
            {
              "internalType": "uint256",
              "name": "d",
              "type": "uint256"
            }
          ],
          "internalType": "struct Decimal.decimal",
          "name": "b",
          "type": "tuple"
        }
      ],
      "name": "minD",
      "outputs": [
        {
          "components": [
            {
              "internalType": "uint256",
              "name": "d",
              "type": "uint256"
            }
          ],
          "internalType": "struct Decimal.decimal",
          "name": "",
          "type": "tuple"
        }
      ],
      "stateMutability": "pure",
      "type": "function"
    },
    {
      "inputs": [],
      "name": "owner",
      "outputs": [
        {
          "internalType": "address",
          "name": "",
          "type": "address"
        }
      ],
      "stateMutability": "view",
      "type": "function"
    },
    {
      "inputs": [],
      "name": "renounceOwnership",
      "outputs": [],
      "stateMutability": "nonpayable",
      "type": "function"
    },
    {
      "inputs": [
        {
          "internalType": "contract SmartWalletFactory",
          "name": "_addr",
          "type": "address"
        }
      ],
      "name": "setFactory",
      "outputs": [],
      "stateMutability": "nonpayable",
      "type": "function"
    },
    {
      "inputs": [
        {
          "internalType": "address",
          "name": "_addr",
          "type": "address"
        }
      ],
      "name": "setOrderBook",
      "outputs": [],
      "stateMutability": "nonpayable",
      "type": "function"
    },
    {
      "inputs": [
        {
          "internalType": "address",
          "name": "newOwner",
          "type": "address"
        }
      ],
      "name": "transferOwnership",
      "outputs": [],
      "stateMutability": "nonpayable",
      "type": "function"
    }
  ],
  "bytecode": "0x608060405234801561001057600080fd5b5060006100246001600160e01b0361007316565b600080546001600160a01b0319166001600160a01b0383169081178255604051929350917f8be0079c531659141344cd1fd0a4f28419497f9722a3daafe3b4186f6b6457e0908290a350610077565b3390565b611558806100866000396000f3fe608060405234801561001057600080fd5b50600436106100a35760003560e01c806394f6113411610076578063bca8c7b51161005b578063bca8c7b51461011e578063cca9dfa91461013e578063f2fde38b1461015e576100a3565b806394f61134146100eb5780639a1598c81461010b576100a3565b8063380d0c08146100a85780635bb47808146100b2578063715018a6146100c55780638da5cb5b146100cd575b600080fd5b6100b0610171565b005b6100b06100c0366004610e48565b61022e565b6100b061028f565b6100d5610325565b6040516100e2919061111c565b60405180910390f35b6100fe6100f93660046110a9565b610334565b6040516100e29190611149565b6100b0610119366004610e48565b610589565b61013161012c366004610eff565b6105e1565b6040516100e29190611154565b61015161014c366004610fb4565b6106c8565b6040516100e291906114bb565b6100b061016c366004610e48565b6106fb565b6040517f095ea7b300000000000000000000000000000000000000000000000000000000815273ddafbb505ad214d7b80b1f830fccc89b60fb7a839063095ea7b3906101d990735d9593586b4b5edbd23e7eba8d88fd8f09d83ebd9060001990600401611130565b602060405180830381600087803b1580156101f357600080fd5b505af1158015610207573d6000803e3d6000fd5b505050506040513d601f19601f8201168201806040525081019061022b9190610f7d565b50565b6002546001600160a01b0316156102605760405162461bcd60e51b815260040161025790611418565b60405180910390fd5b6002805473ffffffffffffffffffffffffffffffffffffffff19166001600160a01b0392909216919091179055565b6102976107c8565b6001600160a01b03166102a8610325565b6001600160a01b0316146102ce5760405162461bcd60e51b8152600401610257906113ac565b600080546040516001600160a01b03909116907f8be0079c531659141344cd1fd0a4f28419497f9722a3daafe3b4186f6b6457e0908390a36000805473ffffffffffffffffffffffffffffffffffffffff19169055565b6000546001600160a01b031690565b6001546000906001600160a01b031633146103615760405162461bcd60e51b815260040161025790611486565b6103a06040518060400160405280600d81526020017f2d2d53573a204f72646572202300000000000000000000000000000000000000815250836107cc565b6001546040517f4c5789e30000000000000000000000000000000000000000000000000000000081526000918291829182916001600160a01b0390911690634c5789e3906103f29089906004016114c5565b60c06040518083038186803b15801561040a57600080fd5b505afa15801561041e573d6000803e3d6000fd5b505050506040513d601f19601f820116820180604052508101906104429190610e80565b6002546040517fa0b73881000000000000000000000000000000000000000000000000000000008152959a509398509096509450309350506001600160a01b03169063a0b738819061049890889060040161111c565b60206040518083038186803b1580156104b057600080fd5b505afa1580156104c4573d6000803e3d6000fd5b505050506040513d601f19601f820116820180604052508101906104e89190610e64565b6001600160a01b03161461050e5760405162461bcd60e51b81526004016102579061144f565b80158061051a57508042105b6105365760405162461bcd60e51b8152600401610257906113e1565b816105535760405162461bcd60e51b815260040161025790611216565b600183600381111561056157fe5b141561057b5761057086610843565b945050505050610584565b60009450505050505b919050565b6001546001600160a01b0316156105b25760405162461bcd60e51b8152600401610257906111df565b6001805473ffffffffffffffffffffffffffffffffffffffff19166001600160a01b0392909216919091179055565b60606105eb6107c8565b6001600160a01b03166105fc610325565b6001600160a01b0316146106225760405162461bcd60e51b8152600401610257906113ac565b61062b84610c1b565b6106475760405162461bcd60e51b8152600401610257906112aa565b60006060856001600160a01b0316858560405161066592919061110c565b6000604051808303816000865af19150503d80600081146106a2576040519150601f19603f3d011682016040523d82523d6000602084013e6106a7565b606091505b509092509050816106bf576040513d806000833e8082fd5b95945050505050565b6106d0610deb565b6106e0838363ffffffff610c2116565b60000b6001146106f057826106f2565b815b90505b92915050565b6107036107c8565b6001600160a01b0316610714610325565b6001600160a01b03161461073a5760405162461bcd60e51b8152600401610257906113ac565b6001600160a01b0381166107605760405162461bcd60e51b81526004016102579061124d565b600080546040516001600160a01b03808516939216917f8be0079c531659141344cd1fd0a4f28419497f9722a3daafe3b4186f6b6457e091a36000805473ffffffffffffffffffffffffffffffffffffffff19166001600160a01b0392909216919091179055565b3390565b61083f82826040516024016107e29291906111bd565b60408051601f198184030181529190526020810180517bffffffffffffffffffffffffffffffffffffffffffffffffffffffff167f9710a9d000000000000000000000000000000000000000000000000000000000179052610c52565b5050565b600061084d610deb565b610855610deb565b61085d610deb565b610865610deb565b61086d610deb565b6001546040517fe36a2dc00000000000000000000000000000000000000000000000000000000081526001600160a01b039091169063e36a2dc0906108b6908a906004016114c5565b60e06040518083038186803b1580156108ce57600080fd5b505afa1580156108e2573d6000803e3d6000fd5b505050506040513d601f19601f820116820180604052508101906109069190610fe8565b506001546040517f4c5789e3000000000000000000000000000000000000000000000000000000008152969b50939950919750955093506000928392506001600160a01b0390911690634c5789e390610963908c906004016114c5565b60c06040518083038186803b15801561097b57600080fd5b505afa15801561098f573d6000803e3d6000fd5b505050506040513d601f19601f820116820180604052508101906109b39190610e80565b505093505050915060006109c687610c73565b1590506109d1610deb565b836001600160a01b031663dc76fabc6040518163ffffffff1660e01b815260040160206040518083038186803b158015610a0a57600080fd5b505afa158015610a1e573d6000803e3d6000fd5b505050506040513d601f19601f82011682018060405250810190610a429190610f99565b9050600082610a5357600019610a56565b60015b600f0b610a698b8463ffffffff610c2116565b60000b1490508015610bf657610a7d610deb565b610a868a610c91565b9050610a90610deb565b866001600160a01b031663da0c592786610aab576000610aae565b60015b846040518363ffffffff1660e01b8152600401610acc9291906111a2565b60206040518083038186803b158015610ae457600080fd5b505afa158015610af8573d6000803e3d6000fd5b505050506040513d601f19601f82011682018060405250810190610b1c9190610f99565b9050610b2788610cbf565b15610b5157604080516020810190915260018152610b4c90899063ffffffff610cc316565b610b53565b875b9750610b6e610b68828c63ffffffff610cef16565b8a6106c8565b9850735d9593586b4b5edbd23e7eba8d88fd8f09d83ebd63893d242d8887610b97576001610b9a565b60005b8d8d8d6040518663ffffffff1660e01b8152600401610bbd959493929190611167565b600060405180830381600087803b158015610bd757600080fd5b505af1158015610beb573d6000803e3d6000fd5b505050505050610c09565b60009a5050505050505050505050610584565b5060019b9a5050505050505050505050565b3b151590565b805182516000911015610c36575060016106f5565b815183511015610c4957506000196106f5565b50600092915050565b80516a636f6e736f6c652e6c6f67602083016000808483855afa5050505050565b60008082600001511215610c8957506001610584565b506000919050565b610c99610deb565b610ca1610deb565b825160001315610cb757825160000381526106f5565b915182525090565b5190565b610ccb610deb565b610cd3610deb565b82518451610ce69163ffffffff610d1216565b81529392505050565b610cf7610deb565b610cff610deb565b82518451610ce69163ffffffff610d3a16565b600082821115610d345760405162461bcd60e51b8152600401610257906112e1565b50900390565b60006106f2838360126000610d6e83610d62610d5585610d76565b879063ffffffff610d7f16565b9063ffffffff610db916565b949350505050565b60ff16600a0a90565b600082610d8e575060006106f5565b82820282848281610d9b57fe5b04146106f25760405162461bcd60e51b81526004016102579061134f565b6000808211610dda5760405162461bcd60e51b815260040161025790611318565b818381610de357fe5b049392505050565b6040518060200160405280600081525090565b600060208284031215610e0f578081fd5b610e1960206114ce565b9135825250919050565b600060208284031215610e34578081fd5b610e3e60206114ce565b9151825250919050565b600060208284031215610e59578081fd5b81356106f2816114ff565b600060208284031215610e75578081fd5b81516106f2816114ff565b60008060008060008060c08789031215610e98578182fd5b8651610ea3816114ff565b6020880151909650610eb4816114ff565b604088015190955060048110610ec8578283fd5b6060880151909450610ed981611514565b6080880151909350610eea81611514565b8092505060a087015190509295509295509295565b600080600060408486031215610f13578283fd5b8335610f1e816114ff565b9250602084013567ffffffffffffffff80821115610f3a578384fd5b81860187601f820112610f4b578485fd5b8035925081831115610f5b578485fd5b876020848301011115610f6c578485fd5b949760209095019650909450505050565b600060208284031215610f8e578081fd5b81516106f281611514565b600060208284031215610faa578081fd5b6106f28383610e23565b60008060408385031215610fc6578182fd5b610fd08484610dfe565b9150610fdf8460208501610dfe565b90509250929050565b600080600080600080600087890360e0811215611003578182fd5b61100d8a8a610e23565b975061101c8a60208b01610e23565b965060207fffffffffffffffffffffffffffffffffffffffffffffffffffffffffffffffc08201121561104d578182fd5b5061105860206114ce565b60408901518152945061106e8960608a01610e23565b935061107d8960808a01610e23565b925061108c8960a08a01610e23565b915061109b8960c08a01610e23565b905092959891949750929550565b6000602082840312156110ba578081fd5b5035919050565b60008151808452815b818110156110e6576020818501810151868301820152016110ca565b818111156110f75782602083870101525b50601f01601f19169290920160200192915050565b6000828483379101908152919050565b6001600160a01b0391909116815260200190565b6001600160a01b03929092168252602082015260400190565b901515815260200190565b6000602082526106f260208301846110c1565b6001600160a01b038616815260a08101611180866114f5565b6020820195909552925160408401529051606083015251608090910152919050565b604081016111af846114f5565b928152905160209091015290565b6000604082526111d060408301856110c1565b90508260208301529392505050565b60208082526018908201527f4c4f422068617320616c7265616479206265656e207365740000000000000000604082015260600190565b60208082526015908201527f4f72646572206e6f206c6f6e6765722076616c69640000000000000000000000604082015260600190565b60208082526026908201527f4f776e61626c653a206e6577206f776e657220697320746865207a65726f206160408201527f6464726573730000000000000000000000000000000000000000000000000000606082015260800190565b60208082526014908201527f63616c6c20746f206e6f6e2d636f6e7472616374000000000000000000000000604082015260600190565b6020808252601e908201527f536166654d6174683a207375627472616374696f6e206f766572666c6f770000604082015260600190565b6020808252601a908201527f536166654d6174683a206469766973696f6e206279207a65726f000000000000604082015260600190565b60208082526021908201527f536166654d6174683a206d756c7469706c69636174696f6e206f766572666c6f60408201527f7700000000000000000000000000000000000000000000000000000000000000606082015260800190565b6020808252818101527f4f776e61626c653a2063616c6c6572206973206e6f7420746865206f776e6572604082015260600190565b6020808252600d908201527f4f72646572206578706972656400000000000000000000000000000000000000604082015260600190565b60208082526018908201527f5357462068617320616c7265616479206265656e207365740000000000000000604082015260600190565b60208082526016908201527f496e636f727265637420736d6172742077616c6c657400000000000000000000604082015260600190565b6020808252818101527f4f6e6c7920657865637574652066726f6d20746865206f7264657220626f6f6b604082015260600190565b9051815260200190565b90815260200190565b60405181810167ffffffffffffffff811182821017156114ed57600080fd5b604052919050565b6002811061022b57fe5b6001600160a01b038116811461022b57600080fd5b801515811461022b57600080fdfea26469706673582212204c500f320e189a4ca7a32d6b6cab211d11bd57927b27d5493a45b138708a649064736f6c63430006090033",
  "linkReferences": {},
  "deployedLinkReferences": {}
}