{
  "_format": "hh-sol-artifact-1",
  "contractName": "SmartWalletFactory",
  "sourceName": "contracts/SmartWallet.sol",
  "abi": [
    {
      "inputs": [
        {
          "internalType": "address",
          "name": "_addr",
          "type": "address"
        }
      ],
      "stateMutability": "nonpayable",
      "type": "constructor"
    },
    {
      "anonymous": false,
      "inputs": [
        {
          "indexed": true,
          "internalType": "address",
          "name": "owner",
          "type": "address"
        },
        {
          "indexed": true,
          "internalType": "address",
          "name": "smartWallet",
          "type": "address"
        }
      ],
      "name": "Created",
      "type": "event"
    },
    {
      "anonymous": false,
      "inputs": [
        {
          "indexed": true,
          "internalType": "address",
          "name": "previousOwner",
          "type": "address"
        },
        {
          "indexed": true,
          "internalType": "address",
          "name": "newOwner",
          "type": "address"
        }
      ],
      "name": "OwnershipTransferred",
      "type": "event"
    },
    {
      "inputs": [],
      "name": "LimitOrderBook",
      "outputs": [
        {
          "internalType": "address",
          "name": "",
          "type": "address"
        }
      ],
      "stateMutability": "view",
      "type": "function"
    },
    {
      "inputs": [
        {
          "internalType": "address",
          "name": "_contract",
          "type": "address"
        }
      ],
      "name": "addToWhitelist",
      "outputs": [],
      "stateMutability": "nonpayable",
      "type": "function"
    },
    {
      "inputs": [
        {
          "internalType": "address",
          "name": "",
          "type": "address"
        }
      ],
      "name": "getSmartWallet",
      "outputs": [
        {
          "internalType": "address",
          "name": "",
          "type": "address"
        }
      ],
      "stateMutability": "view",
      "type": "function"
    },
    {
      "inputs": [
        {
          "internalType": "address",
          "name": "",
          "type": "address"
        }
      ],
      "name": "isWhitelisted",
      "outputs": [
        {
          "internalType": "bool",
          "name": "",
          "type": "bool"
        }
      ],
      "stateMutability": "view",
      "type": "function"
    },
    {
      "inputs": [],
      "name": "owner",
      "outputs": [
        {
          "internalType": "address",
          "name": "",
          "type": "address"
        }
      ],
      "stateMutability": "view",
      "type": "function"
    },
    {
      "inputs": [
        {
          "internalType": "address",
          "name": "_contract",
          "type": "address"
        }
      ],
      "name": "removeFromWhitelist",
      "outputs": [],
      "stateMutability": "nonpayable",
      "type": "function"
    },
    {
      "inputs": [],
      "name": "renounceOwnership",
      "outputs": [],
      "stateMutability": "nonpayable",
      "type": "function"
    },
    {
      "inputs": [],
      "name": "spawn",
      "outputs": [
        {
          "internalType": "address",
          "name": "smartWallet",
          "type": "address"
        }
      ],
      "stateMutability": "nonpayable",
      "type": "function"
    },
    {
      "inputs": [
        {
          "internalType": "address",
          "name": "newOwner",
          "type": "address"
        }
      ],
      "name": "transferOwnership",
      "outputs": [],
      "stateMutability": "nonpayable",
      "type": "function"
    }
  ],
  "bytecode": "0x608060405234801561001057600080fd5b506040516134ca3803806134ca83398101604081905261002f916100b5565b60006100426001600160e01b036100b116565b600080546001600160a01b0319166001600160a01b0383169081178255604051929350917f8be0079c531659141344cd1fd0a4f28419497f9722a3daafe3b4186f6b6457e0908290a350600380546001600160a01b0319166001600160a01b03929092169190911790556100e3565b3390565b6000602082840312156100c6578081fd5b81516001600160a01b03811681146100dc578182fd5b9392505050565b6133d8806100f26000396000f3fe608060405234801561001057600080fd5b50600436106100a35760003560e01c8063971b052111610076578063b547aeda1161005b578063b547aeda1461011e578063e43252d714610126578063f2fde38b14610139576100a3565b8063971b052114610103578063a0b738811461010b576100a3565b80633af32abf146100a8578063715018a6146100d15780638ab1d681146100db5780638da5cb5b146100ee575b600080fd5b6100bb6100b6366004610561565b61014c565b6040516100c891906105ed565b60405180910390f35b6100d9610161565b005b6100d96100e9366004610561565b610200565b6100f6610260565b6040516100c891906105bf565b6100f661026f565b6100f6610119366004610561565b61027e565b6100f6610299565b6100d9610134366004610561565b610420565b6100d9610147366004610561565b610483565b60026020526000908152604090205460ff1681565b610169610550565b6001600160a01b031661017a610260565b6001600160a01b0316146101a95760405162461bcd60e51b81526004016101a09061068c565b60405180910390fd5b600080546040516001600160a01b03909116907f8be0079c531659141344cd1fd0a4f28419497f9722a3daafe3b4186f6b6457e0908390a36000805473ffffffffffffffffffffffffffffffffffffffff19169055565b610208610550565b6001600160a01b0316610219610260565b6001600160a01b03161461023f5760405162461bcd60e51b81526004016101a09061068c565b6001600160a01b03166000908152600260205260409020805460ff19169055565b6000546001600160a01b031690565b6003546001600160a01b031681565b6001602052600090815260409020546001600160a01b031681565b336000908152600160205260408120546001600160a01b0316156102cf5760405162461bcd60e51b81526004016101a0906105f8565b6060604051806020016102e190610554565b6020820181038252601f19601f82011660405250905060003360405160200161030a919061058f565b604051602081830303815290604052805190602001209050808251602084016000f56040519093506001600160a01b0384169033907f587ece4cd19692c5be1a4184503d607d45542d2aca0698c0068f52e09ccb541c90600090a36003546040517f485cc9550000000000000000000000000000000000000000000000000000000081526001600160a01b038581169263485cc955926103b2929091169033906004016105d3565b600060405180830381600087803b1580156103cc57600080fd5b505af11580156103e0573d6000803e3d6000fd5b5050336000908152600160205260409020805473ffffffffffffffffffffffffffffffffffffffff19166001600160a01b03871617905550929392505050565b610428610550565b6001600160a01b0316610439610260565b6001600160a01b03161461045f5760405162461bcd60e51b81526004016101a09061068c565b6001600160a01b03166000908152600260205260409020805460ff19166001179055565b61048b610550565b6001600160a01b031661049c610260565b6001600160a01b0316146104c25760405162461bcd60e51b81526004016101a09061068c565b6001600160a01b0381166104e85760405162461bcd60e51b81526004016101a09061062f565b600080546040516001600160a01b03808516939216917f8be0079c531659141344cd1fd0a4f28419497f9722a3daafe3b4186f6b6457e091a36000805473ffffffffffffffffffffffffffffffffffffffff19166001600160a01b0392909216919091179055565b3390565b612ce1806106c283390190565b600060208284031215610572578081fd5b81356001600160a01b0381168114610588578182fd5b9392505050565b60609190911b7fffffffffffffffffffffffffffffffffffffffff00000000000000000000000016815260140190565b6001600160a01b0391909116815260200190565b6001600160a01b0392831681529116602082015260400190565b901515815260200190565b60208082526018908201527f416c72656164792068617320736d6172742077616c6c65740000000000000000604082015260600190565b60208082526026908201527f4f776e61626c653a206e6577206f776e657220697320746865207a65726f206160408201527f6464726573730000000000000000000000000000000000000000000000000000606082015260800190565b6020808252818101527f4f776e61626c653a2063616c6c6572206973206e6f7420746865206f776e657260408201526060019056fe608060405234801561001057600080fd5b506033805462ff000019169055612cb58061002c6000396000f3fe608060405234801561001057600080fd5b50600436106100be5760003560e01c806394f6113411610076578063c45a01551161005b578063c45a015514610159578063e5da60f714610161578063f9d8e3c714610169576100be565b806394f6113414610126578063bca8c7b514610139576100be565b80635b6a8b43116100a75780635b6a8b43146100e05780635c975abb146100f357806365ead11114610111576100be565b80631e3d1029146100c3578063485cc955146100cd575b600080fd5b6100cb61017c565b005b6100cb6100db3660046120dc565b6101b9565b6100cb6100ee366004612262565b6102da565b6100fb61033d565b604051610108919061251c565b60405180910390f35b61011961034c565b60405161010891906124d5565b6100fb61013436600461245d565b610362565b61014c610147366004612193565b61060c565b6040516101089190612527565b610119610776565b6100cb610785565b6100cb61017736600461222d565b6107b7565b6035546001600160a01b031633146101af5760405162461bcd60e51b81526004016101a690612a0f565b60405180910390fd5b6101b7610814565b565b603354610100900460ff16806101d257506101d2610884565b806101e0575060335460ff16155b6101fc5760405162461bcd60e51b81526004016101a690612955565b603354610100900460ff1615801561024557603380547fffffffffffffffffffffffffffffffffffffffffffffffffffffffffffffff0061ff0019909116610100171660011790555b603380546001600160a01b038086166301000000027fffffffffffffffffff0000000000000000000000000000000000000000ffffff90921691909117909155603480547fffffffffffffffffffffffff00000000000000000000000000000000000000009081163317909155603580549285169290911691909117905580156102d5576033805461ff00191690555b505050565b6035546001600160a01b031633146103045760405162461bcd60e51b81526004016101a690612a0f565b61030c61033d565b156103295760405162461bcd60e51b81526004016101a69061291e565b6103368585858585610895565b5050505050565b60335462010000900460ff1690565b603354630100000090046001600160a01b031681565b600061036c61033d565b156103895760405162461bcd60e51b81526004016101a69061291e565b603354630100000090046001600160a01b031633146103ba5760405162461bcd60e51b81526004016101a690612b20565b600080600080603360039054906101000a90046001600160a01b03166001600160a01b0316634c5789e3876040518263ffffffff1660e01b81526004016104019190612bf3565b60c06040518083038186803b15801561041957600080fd5b505afa15801561042d573d6000803e3d6000fd5b505050506040513d601f19601f820116820180604052508101906104519190612114565b6034546040517fa0b73881000000000000000000000000000000000000000000000000000000008152959a509398509096509450309350506001600160a01b03169063a0b73881906104a79088906004016124d5565b60206040518083038186803b1580156104bf57600080fd5b505afa1580156104d3573d6000803e3d6000fd5b505050506040513d601f19601f820116820180604052508101906104f791906120c0565b6001600160a01b03161461051d5760405162461bcd60e51b81526004016101a690612ab2565b80158061052957508042105b6105455760405162461bcd60e51b81526004016101a690612a44565b816105625760405162461bcd60e51b81526004016101a690612618565b600183600581111561057057fe5b141561058a5761057f86610b3d565b945050505050610607565b600283600581111561059857fe5b14156105a75761057f86610d99565b60038360058111156105b557fe5b14156105c45761057f86610fc6565b60048360058111156105d257fe5b14156105e15761057f86610d99565b60058360058111156105ef57fe5b14156105fe5761057f86610fc6565b60009450505050505b919050565b6035546060906001600160a01b031633146106395760405162461bcd60e51b81526004016101a690612a0f565b61064b846001600160a01b0316611247565b6106675760405162461bcd60e51b81526004016101a69061271a565b6034546040517f3af32abf0000000000000000000000000000000000000000000000000000000081526001600160a01b0390911690633af32abf906106b09087906004016124d5565b60206040518083038186803b1580156106c857600080fd5b505afa1580156106dc573d6000803e3d6000fd5b505050506040513d601f19601f820116820180604052508101906107009190612211565b61071c5760405162461bcd60e51b81526004016101a69061281c565b61076c83838080601f016020809104026020016040519081016040528093929190818152602001838380828437600092019190915250506001600160a01b0388169291505063ffffffff61124d16565b90505b9392505050565b6034546001600160a01b031681565b6035546001600160a01b031633146107af5760405162461bcd60e51b81526004016101a690612a0f565b6101b7611298565b6035546001600160a01b031633146107e15760405162461bcd60e51b81526004016101a690612a0f565b6107e961033d565b156108065760405162461bcd60e51b81526004016101a69061291e565b61081082826112f7565b5050565b61081c61033d565b6108385760405162461bcd60e51b81526004016101a6906125aa565b6033805462ff0000191690557f5db9ee0a495bf2e6ff9c91a7834c1ba4fdd244a5e8aa4e537bd38aeae4b073aa61086d6115c4565b60405161087a91906124d5565b60405180910390a1565b600061088f30611247565b15905090565b61089d612015565b6108a5612015565b6001600160a01b03871663622679556108c4878763ffffffff6115c816565b6040518263ffffffff1660e01b81526004016108e09190612be9565b604080518083038186803b1580156108f757600080fd5b505afa15801561090b573d6000803e3d6000fd5b505050506040513d601f19601f8201168201806040525081019061092f9190612379565b9150915061093b612015565b61095b8261094f888663ffffffff6115f416565b9063ffffffff6115f416565b90506109b5735d9593586b4b5edbd23e7eba8d88fd8f09d83ebd61099373ddafbb505ad214d7b80b1f830fccc89b60fb7a8384611617565b73ddafbb505ad214d7b80b1f830fccc89b60fb7a83919063ffffffff61169516565b60006109c0886117b0565b6109cb5760016109ce565b60005b90506109d8612015565b6109e1896117ce565b90506109eb612015565b8a6001600160a01b031663da0c592784610a06576000610a09565b60015b846040518363ffffffff1660e01b8152600401610a2792919061258f565b60206040518083038186803b158015610a3f57600080fd5b505afa158015610a53573d6000803e3d6000fd5b505050506040513d601f19601f82011682018060405250810190610a77919061235e565b9050610a81612015565b50604080516020810190915260018152610aae610aa88261094f858e63ffffffff6117fc16565b8a61181f565b9850735d9593586b4b5edbd23e7eba8d88fd8f09d83ebd63893d242d8d86610ad7576001610ada565b60005b8d8d8d6040518663ffffffff1660e01b8152600401610afd95949392919061253a565b600060405180830381600087803b158015610b1757600080fd5b505af1158015610b2b573d6000803e3d6000fd5b50505050505050505050505050505050565b6000610b47612015565b610b4f612015565b610b57612015565b610b5f612015565b610b67612015565b60335460405163038da8b760e61b8152600091829163010000009091046001600160a01b03169063e36a2dc090610ba2908c90600401612bf3565b6101206040518083038186803b158015610bbb57600080fd5b505afa158015610bcf573d6000803e3d6000fd5b505050506040513d601f19601f82011682018060405250810190610bf391906123a4565b9850985050975097509750975097505060008090508115610c1b57610c18838861184e565b90505b6000610c26886117b0565b610c31576001610c34565b60005b9050610c3e612015565b846001600160a01b031663dc76fabc6040518163ffffffff1660e01b815260040160206040518083038186803b158015610c7757600080fd5b505afa158015610c8b573d6000803e3d6000fd5b505050506040513d601f19601f82011682018060405250810190610caf919061235e565b90506001610ccb610cbe6119d0565b839063ffffffff6119eb16565b60000b1215610cec5760405162461bcd60e51b81526004016101a690612788565b81610cf957600019610cfc565b60015b600f0b610d0f8b8363ffffffff6119eb16565b60000b14610d2f5760405162461bcd60e51b81526004016101a690612ae9565b8215610d5b57610d3d612015565b610d49868c858a611a1c565b9050610d5586826112f7565b50610d87565b610d63612015565b610d76610d6f8b6117ce565b8489611b79565b9050610d85868b8b8b85610895565b505b5060019b9a5050505050505050505050565b6000610da3612015565b610dab612015565b610db3612015565b610dbb612015565b60335460405163038da8b760e61b8152600091829163010000009091046001600160a01b03169063e36a2dc090610df6908b90600401612bf3565b6101206040518083038186803b158015610e0f57600080fd5b505afa158015610e23573d6000803e3d6000fd5b505050506040513d601f19601f82011682018060405250810190610e4791906123a4565b98509850505096509650965050955060008090508115610e6e57610e6b838761184e565b90505b6000610e79876117b0565b610e84576001610e87565b60005b9050610e91612015565b846001600160a01b031663dc76fabc6040518163ffffffff1660e01b815260040160206040518083038186803b158015610eca57600080fd5b505afa158015610ede573d6000803e3d6000fd5b505050506040513d601f19601f82011682018060405250810190610f02919061235e565b90506001610f11610cbe6119d0565b60000b1215610f325760405162461bcd60e51b81526004016101a690612788565b81610f3f57600019610f42565b60015b600f0b610f55828b63ffffffff6119eb16565b60000b14610f755760405162461bcd60e51b81526004016101a6906128e7565b8215610f9957610f9485604051806020016040528060008152506112f7565b610fb5565b610fb58589898960405180602001604052806000815250610895565b5060019a9950505050505050505050565b6000610fd0612015565b610fd8612015565b610fe0612015565b610fe8612015565b610ff0612015565b610ff8612015565b60335460405163038da8b760e61b8152600091829163010000009091046001600160a01b03169063e36a2dc090611033908d90600401612bf3565b6101206040518083038186803b15801561104c57600080fd5b505afa158015611060573d6000803e3d6000fd5b505050506040513d601f19601f8201168201806040525081019061108491906123a4565b9850985050975097509750975097509750600080905081156110ad576110aa838861184e565b90505b60006110b8886117b0565b6110c35760016110c6565b60005b90506110d0612015565b846001600160a01b031663dc76fabc6040518163ffffffff1660e01b815260040160206040518083038186803b15801561110957600080fd5b505afa15801561111d573d6000803e3d6000fd5b505050506040513d601f19601f82011682018060405250810190611141919061235e565b90506001611150610cbe6119d0565b60000b12156111715760405162461bcd60e51b81526004016101a690612788565b8161117e57600019611181565b60015b600f0b6111948b8363ffffffff6119eb16565b60000b1480156111c75750816111ac576000196111af565b60015b600f0b6111c2828d63ffffffff6119eb16565b60000b145b6111e35760405162461bcd60e51b81526004016101a6906125e1565b821561120f576111f1612015565b6111fd868c858a611a1c565b905061120986826112f7565b50611234565b611217612015565b611223610d6f8b6117ce565b9050611232868b8b8b85610895565b505b5060019c9b505050505050505050505050565b3b151590565b606061128f83836040518060400160405280601e81526020017f416464726573733a206c6f772d6c6576656c2063616c6c206661696c65640000815250611c05565b90505b92915050565b6112a061033d565b156112bd5760405162461bcd60e51b81526004016101a69061291e565b6033805462ff00001916620100001790557f62e78cea01bee320cd4e420270b5ea74000d11b0c9f74754ebdbfc544b05a25861086d6115c4565b6112ff612028565b604051630b33dc1960e41b8152735d9593586b4b5edbd23e7eba8d88fd8f09d83ebd9063b33dc1909061133890869030906004016124e9565b60c06040518083038186803b15801561135057600080fd5b505afa158015611364573d6000803e3d6000fd5b505050506040513d601f19601f8201168201806040525081019061138891906122e3565b9050611392612015565b50805161139d612015565b846001600160a01b031663da0c592760006113b785611c14565b136113c35760016113c6565b60005b6113cf856117ce565b6040518363ffffffff1660e01b81526004016113ec92919061258f565b60206040518083038186803b15801561140457600080fd5b505afa158015611418573d6000803e3d6000fd5b505050506040513d601f19601f8201168201806040525081019061143c919061235e565b9050611446612015565b61144e612015565b6040517f622679550000000000000000000000000000000000000000000000000000000081526001600160a01b03881690636226795590611493908690600401612be9565b604080518083038186803b1580156114aa57600080fd5b505afa1580156114be573d6000803e3d6000fd5b505050506040513d601f19601f820116820180604052508101906114e29190612379565b915091506114ee612015565b6114fe838363ffffffff6115f416565b9050611536735d9593586b4b5edbd23e7eba8d88fd8f09d83ebd61099373ddafbb505ad214d7b80b1f830fccc89b60fb7a8384611617565b6040517fa8c1b0bc000000000000000000000000000000000000000000000000000000008152735d9593586b4b5edbd23e7eba8d88fd8f09d83ebd9063a8c1b0bc90611588908b908b90600401612575565b600060405180830381600087803b1580156115a257600080fd5b505af11580156115b6573d6000803e3d6000fd5b505050505050505050505050565b3390565b6115d0612015565b6115d8612015565b825184516115eb9163ffffffff611c1816565b81529392505050565b6115fc612015565b611604612015565b825184516115eb9163ffffffff611c2616565b60008061162384611c4b565b9050601281106116615761165961164182601263ffffffff611d5d16565b600a0a61164d85611c14565b9063ffffffff611d8516565b915050611292565b61168d61167560128363ffffffff611d5d16565b600a0a61168185611c14565b9063ffffffff611dbf16565b949350505050565b600061172582856001600160a01b031663dd62ed3e30876040518363ffffffff1660e01b81526004016116c99291906124e9565b60206040518083038186803b1580156116e157600080fd5b505afa1580156116f5573d6000803e3d6000fd5b505050506040513d601f19601f820116820180604052508101906117199190612475565b9063ffffffff611c2616565b90506117aa8463095ea7b360e01b8584604051602401611746929190612503565b60408051601f198184030181529190526020810180517bffffffffffffffffffffffffffffffffffffffffffffffffffffffff167fffffffff0000000000000000000000000000000000000000000000000000000090931692909217909152611df1565b50505050565b600080826000015112156117c657506001610607565b506000919050565b6117d6612015565b6117de612015565b8251600013156117f45782516000038152611292565b915182525090565b611804612015565b61180c612015565b825184516115eb9163ffffffff611e8016565b611827612015565b6001611839848463ffffffff6119eb16565b60000b1215611848578261128f565b50919050565b6000611858612028565b604051630b33dc1960e41b8152735d9593586b4b5edbd23e7eba8d88fd8f09d83ebd9063b33dc1909061189190879030906004016124e9565b60c06040518083038186803b1580156118a957600080fd5b505afa1580156118bd573d6000803e3d6000fd5b505050506040513d601f19601f820116820180604052508101906118e191906122e3565b90506118eb612015565b5080516118ff6118fa826117ce565b611c14565b61191b5760405162461bcd60e51b81526004016101a690612bb2565b611924816117b0565b151561192f856117b0565b1515146119b05761193f846117b0565b1561198057611965611950826117ce565b611959866117ce565b9063ffffffff6119eb16565b60000b6001141561197b57600192505050611292565b6119ab565b61199561198c856117ce565b611959836117ce565b60000b600114156119ab57600192505050611292565b6119c8565b60405162461bcd60e51b81526004016101a69061264f565b505092915050565b6119d8612015565b5060408051602081019091526000815290565b805182516000911015611a0057506001611292565b815183511015611a135750600019611292565b50600092915050565b611a24612015565b611a2c612028565b604051630b33dc1960e41b8152735d9593586b4b5edbd23e7eba8d88fd8f09d83ebd9063b33dc19090611a6590899030906004016124e9565b60c06040518083038186803b158015611a7d57600080fd5b505afa158015611a91573d6000803e3d6000fd5b505050506040513d601f19601f82011682018060405250810190611ab591906122e3565b9050611abf612015565b508051611aca612015565b611ae387611ad7846117ce565b9063ffffffff6115c816565b9050611aed612015565b611b05611af8611e8e565b879063ffffffff6119eb16565b60000b60001914611b285760405162461bcd60e51b81526004016101a6906126e3565b8615611b4d57611b4686611b3a611e8e565b9063ffffffff611eb216565b9050611b5c565b611b598661094f611e8e565b90505b611b6c818363ffffffff6115c816565b9998505050505050505050565b611b81612015565b611b89612015565b611ba1611b94611e8e565b849063ffffffff6119eb16565b60000b60001914611bc45760405162461bcd60e51b81526004016101a6906126e3565b8315611bdd57611bd683611b3a611e8e565b9050611bec565b611be98361094f611e8e565b90505b611bfc818663ffffffff6115c816565b95945050505050565b606061076c8484600085611ed5565b5190565b600061128f83836012611f96565b60008282018381101561128f5760405162461bcd60e51b81526004016101a6906126ac565b6001600160a01b038116600090815260208190526040812054806112925760408051600481526024810182526020810180517bffffffffffffffffffffffffffffffffffffffffffffffffffffffff167f313ce5670000000000000000000000000000000000000000000000000000000017905290516000916060916001600160a01b03871691611cdb916124b9565b600060405180830381855afa9150503d8060008114611d16576040519150601f19603f3d011682016040523d82523d6000602084013e611d1b565b606091505b5091509150818015611d2d5750805115155b611d495760405162461bcd60e51b81526004016101a69061288a565b80806020019051810190611bfc9190612475565b600082821115611d7f5760405162461bcd60e51b81526004016101a690612751565b50900390565b600082611d9457506000611292565b82820282848281611da157fe5b041461128f5760405162461bcd60e51b81526004016101a6906129b2565b6000808211611de05760405162461bcd60e51b81526004016101a690612853565b818381611de957fe5b049392505050565b6060611e46826040518060400160405280602081526020017f5361666545524332303a206c6f772d6c6576656c2063616c6c206661696c6564815250856001600160a01b0316611c059092919063ffffffff16565b8051909150156102d55780806020019051810190611e649190612211565b6102d55760405162461bcd60e51b81526004016101a690612b55565b600061128f83836012611fb4565b611e96612015565b6040518060200160405280611eab6012611fd3565b9052905090565b611eba612015565b611ec2612015565b825184516115eb9163ffffffff611d5d16565b606082471015611ef75760405162461bcd60e51b81526004016101a6906127bf565b611f0085611247565b611f1c5760405162461bcd60e51b81526004016101a690612a7b565b60006060866001600160a01b03168587604051611f3991906124b9565b60006040518083038185875af1925050503d8060008114611f76576040519150601f19603f3d011682016040523d82523d6000602084013e611f7b565b606091505b5091509150611f8b828286611fdc565b979650505050505050565b600061076c611fa483611fd3565b611681868663ffffffff611d8516565b600061076c83611681611fc685611fd3565b879063ffffffff611d8516565b60ff16600a0a90565b60608315611feb57508161076f565b825115611ffb5782518084602001fd5b8160405162461bcd60e51b81526004016101a69190612527565b6040518060200160405280600081525090565b6040518060c0016040528061203b612015565b8152602001612048612015565b8152602001612055612015565b8152602001612062612015565b815260200160008152602001600081525090565b600060208284031215612087578081fd5b6120916020612bfc565b9135825250919050565b6000602082840312156120ac578081fd5b6120b66020612bfc565b9151825250919050565b6000602082840312156120d1578081fd5b815161128f81612c5c565b600080604083850312156120ee578081fd5b82356120f981612c5c565b9150602083013561210981612c5c565b809150509250929050565b60008060008060008060c0878903121561212c578182fd5b865161213781612c5c565b602088015190965061214881612c5c565b60408801519095506006811061215c578283fd5b606088015190945061216d81612c71565b608088015190935061217e81612c71565b8092505060a087015190509295509295509295565b6000806000604084860312156121a7578283fd5b83356121b281612c5c565b9250602084013567ffffffffffffffff808211156121ce578384fd5b81860187601f8201126121df578485fd5b80359250818311156121ef578485fd5b876020848301011115612200578485fd5b949760209095019650909450505050565b600060208284031215612222578081fd5b815161128f81612c71565b6000806040838503121561223f578182fd5b823561224a81612c5c565b91506122598460208501612076565b90509250929050565b600080600080600085870360a081121561227a578182fd5b863561228581612c5c565b95506020601f1982011215612298578182fd5b506122a36020612bfc565b6020870135815293506122b98760408801612076565b92506122c88760608801612076565b91506122d78760808801612076565b90509295509295909350565b600060c082840312156122f4578081fd5b6122fe60c0612bfc565b612308848461209b565b8152612317846020850161209b565b6020820152612329846040850161209b565b604082015261233b846060850161209b565b60608201526080830151608082015260a083015160a08201528091505092915050565b60006020828403121561236f578081fd5b61128f838361209b565b6000806040838503121561238b578182fd5b612395848461209b565b9150612259846020850161209b565b60008060008060008060008060006101208a8c0312156123c2578687fd5b6123cc8b8b61209b565b98506123db8b60208c0161209b565b97506123ea8b60408c0161209b565b96506123f98b60608c0161209b565b95506124088b60808c0161209b565b94506124178b60a08c0161209b565b93506124268b60c08c0161209b565b925060e08a015161243681612c5c565b6101008b0151909250801515811461244c578182fd5b809150509295985092959850929598565b60006020828403121561246e578081fd5b5035919050565b600060208284031215612486578081fd5b5051919050565b600081518084526124a5816020860160208601612c23565b601f01601f19169290920160200192915050565b600082516124cb818460208701612c23565b9190910192915050565b6001600160a01b0391909116815260200190565b6001600160a01b0392831681529116602082015260400190565b6001600160a01b03929092168252602082015260400190565b901515815260200190565b60006020825261128f602083018461248d565b6001600160a01b038616815260a0810161255386612c4f565b6020820195909552925160408401529051606083015251608090910152919050565b6001600160a01b0392909216825251602082015260400190565b6040810161259c84612c4f565b928152905160209091015290565b60208082526014908201527f5061757361626c653a206e6f7420706175736564000000000000000000000000604082015260600190565b6020808252601c908201527f496e76616c69642073746f702d6c696d697420636f6e646974696f6e00000000604082015260600190565b60208082526015908201527f4f72646572206e6f206c6f6e6765722076616c69640000000000000000000000604082015260600190565b6020808252602d908201527f237265647563654f6e6c793a2063616e6e6f7420696e6372656173652073697a60408201527f65206f6620706f736974696f6e00000000000000000000000000000000000000606082015260800190565b6020808252601b908201527f536166654d6174683a206164646974696f6e206f766572666c6f770000000000604082015260600190565b60208082526012908201527f536c697070616765206d75737420626520250000000000000000000000000000604082015260600190565b60208082526014908201527f63616c6c20746f206e6f6e2d636f6e7472616374000000000000000000000000604082015260600190565b6020808252601e908201527f536166654d6174683a207375627472616374696f6e206f766572666c6f770000604082015260600190565b60208082526018908201527f4572726f722067657474696e67206d61726b2070726963650000000000000000604082015260600190565b60208082526026908201527f416464726573733a20696e73756666696369656e742062616c616e636520666f60408201527f722063616c6c0000000000000000000000000000000000000000000000000000606082015260800190565b60208082526017908201527f496e76616c69642074617267657420636f6e7472616374000000000000000000604082015260600190565b6020808252601a908201527f536166654d6174683a206469766973696f6e206279207a65726f000000000000604082015260600190565b60208082526021908201527f446563696d616c45524332303a2067657420646563696d616c73206661696c6560408201527f6400000000000000000000000000000000000000000000000000000000000000606082015260800190565b6020808252601d908201527f496e76616c69642073746f70206f7264657220636f6e646974696f6e73000000604082015260600190565b60208082526010908201527f5061757361626c653a2070617573656400000000000000000000000000000000604082015260600190565b6020808252602e908201527f496e697469616c697a61626c653a20636f6e747261637420697320616c72656160408201527f647920696e697469616c697a6564000000000000000000000000000000000000606082015260800190565b60208082526021908201527f536166654d6174683a206d756c7469706c69636174696f6e206f766572666c6f60408201527f7700000000000000000000000000000000000000000000000000000000000000606082015260800190565b6020808252818101527f4f776e61626c653a2063616c6c6572206973206e6f7420746865206f776e6572604082015260600190565b6020808252600d908201527f4f72646572206578706972656400000000000000000000000000000000000000604082015260600190565b6020808252601d908201527f416464726573733a2063616c6c20746f206e6f6e2d636f6e7472616374000000604082015260600190565b60208082526016908201527f496e636f727265637420736d6172742077616c6c657400000000000000000000604082015260600190565b6020808252601d908201527f496e76616c6964206c696d6974206f7264657220636f6e646974696f6e000000604082015260600190565b6020808252818101527f4f6e6c7920657865637574652066726f6d20746865206f7264657220626f6f6b604082015260600190565b6020808252602a908201527f5361666545524332303a204552433230206f7065726174696f6e20646964206e60408201527f6f74207375636365656400000000000000000000000000000000000000000000606082015260800190565b6020808252601e908201527f237265647563654f6e6c793a2063757272656e742073697a6520697320300000604082015260600190565b9051815260200190565b90815260200190565b60405181810167ffffffffffffffff81118282101715612c1b57600080fd5b604052919050565b60005b83811015612c3e578181015183820152602001612c26565b838111156117aa5750506000910152565b60028110612c5957fe5b50565b6001600160a01b0381168114612c5957600080fd5b8015158114612c5957600080fdfea264697066735822122041e92ab6300f60c9c2a5b7a9572fa44e29bda856eb061f66244166a9c957748464736f6c63430006090033a2646970667358221220a4649f89c9123863272192ff3ea53b225232c693680f3eef35069e1a6b839f6164736f6c63430006090033",
  "linkReferences": {},
  "deployedLinkReferences": {}
}