{
  "_format": "hh-sol-artifact-1",
  "contractName": "SmartWalletFactory",
  "sourceName": "contracts/SmartWallet.sol",
  "abi": [
    {
      "inputs": [
        {
          "internalType": "address",
          "name": "_addr",
          "type": "address"
        }
      ],
      "stateMutability": "nonpayable",
      "type": "constructor"
    },
    {
      "anonymous": false,
      "inputs": [
        {
          "indexed": true,
          "internalType": "address",
          "name": "owner",
          "type": "address"
        },
        {
          "indexed": true,
          "internalType": "address",
          "name": "smartWallet",
          "type": "address"
        }
      ],
      "name": "Created",
      "type": "event"
    },
    {
      "inputs": [],
      "name": "LimitOrderBook",
      "outputs": [
        {
          "internalType": "address",
          "name": "",
          "type": "address"
        }
      ],
      "stateMutability": "view",
      "type": "function"
    },
    {
      "inputs": [],
      "name": "getChainID",
      "outputs": [
        {
          "internalType": "uint256",
          "name": "",
          "type": "uint256"
        }
      ],
      "stateMutability": "view",
      "type": "function"
    },
    {
      "inputs": [
        {
          "internalType": "address",
          "name": "",
          "type": "address"
        }
      ],
      "name": "getSmartWallet",
      "outputs": [
        {
          "internalType": "address",
          "name": "",
          "type": "address"
        }
      ],
      "stateMutability": "view",
      "type": "function"
    },
    {
      "inputs": [],
      "name": "spawn",
      "outputs": [
        {
          "internalType": "address",
          "name": "smartWallet",
          "type": "address"
        }
      ],
      "stateMutability": "nonpayable",
      "type": "function"
    }
  ],
  "bytecode": "0x608060405234801561001057600080fd5b50604051612c1c380380612c1c83398101604081905261002f91610054565b600180546001600160a01b0319166001600160a01b0392909216919091179055610082565b600060208284031215610065578081fd5b81516001600160a01b038116811461007b578182fd5b9392505050565b612b8b806100916000396000f3fe608060405234801561001057600080fd5b506004361061004c5760003560e01c8063564b81ef14610051578063971b05211461006f578063a0b7388114610084578063b547aeda14610097575b600080fd5b61005961009f565b6040516100669190610477565b60405180910390f35b6100776100a3565b604051610066919061042c565b6100776100923660046103ce565b6100b2565b6100776100cd565b4690565b6001546001600160a01b031681565b6000602081905290815260409020546001600160a01b031681565b336000908152602081905260408120546001600160a01b031615610126576040517f08c379a000000000000000000000000000000000000000000000000000000000815260040161011d90610440565b60405180910390fd5b606060405180602001610138906103c1565b6020820181038252601f19601f82011660405250905060003360405160200161016191906103fc565b604051602081830303815290604052805190602001209050808251602084016000f56040519093506001600160a01b0384169033907f587ece4cd19692c5be1a4184503d607d45542d2aca0698c0068f52e09ccb541c90600090a36001546040517f9a1598c80000000000000000000000000000000000000000000000000000000081526001600160a01b0385811692639a1598c892610207929091169060040161042c565b600060405180830381600087803b15801561022157600080fd5b505af1158015610235573d6000803e3d6000fd5b50506040517f5bb478080000000000000000000000000000000000000000000000000000000081526001600160a01b0386169250635bb47808915061027e90309060040161042c565b600060405180830381600087803b15801561029857600080fd5b505af11580156102ac573d6000803e3d6000fd5b50505050826001600160a01b031663380d0c086040518163ffffffff1660e01b8152600401600060405180830381600087803b1580156102eb57600080fd5b505af11580156102ff573d6000803e3d6000fd5b50506040517ff2fde38b0000000000000000000000000000000000000000000000000000000081526001600160a01b038616925063f2fde38b915061034890339060040161042c565b600060405180830381600087803b15801561036257600080fd5b505af1158015610376573d6000803e3d6000fd5b505033600090815260208190526040902080547fffffffffffffffffffffffff0000000000000000000000000000000000000000166001600160a01b03871617905550929392505050565b6126d58061048183390190565b6000602082840312156103df578081fd5b81356001600160a01b03811681146103f5578182fd5b9392505050565b60609190911b7fffffffffffffffffffffffffffffffffffffffff00000000000000000000000016815260140190565b6001600160a01b0391909116815260200190565b60208082526018908201527f416c72656164792068617320736d6172742077616c6c65740000000000000000604082015260600190565b9081526020019056fe608060405234801561001057600080fd5b5060006100246001600160e01b0361007316565b600080546001600160a01b0319166001600160a01b0383169081178255604051929350917f8be0079c531659141344cd1fd0a4f28419497f9722a3daafe3b4186f6b6457e0908290a350610077565b3390565b61264f806100866000396000f3fe608060405234801561001057600080fd5b50600436106100a35760003560e01c806394f6113411610076578063bca8c7b51161005b578063bca8c7b51461011e578063cca9dfa91461013e578063f2fde38b1461015e576100a3565b806394f61134146100eb5780639a1598c81461010b576100a3565b8063380d0c08146100a85780635bb47808146100b2578063715018a6146100c55780638da5cb5b146100cd575b600080fd5b6100b0610171565b005b6100b06100c0366004611d0f565b61036f565b6100b06103d0565b6100d5610466565b6040516100e29190612041565b60405180910390f35b6100fe6100f9366004611fb6565b610475565b6040516100e2919061209c565b6100b0610119366004611d0f565b6106eb565b61013161012c366004611dc6565b610743565b6040516100e291906120a7565b61015161014c366004611ef6565b61082a565b6040516100e291906125b2565b6100b061016c366004611d0f565b61085d565b600260009054906101000a90046001600160a01b03166001600160a01b031663564b81ef6040518163ffffffff1660e01b815260040160206040518083038186803b1580156101bf57600080fd5b505afa1580156101d3573d6000803e3d6000fd5b505050506040513d601f19601f820116820180604052508101906101f79190611fce565b6064141561036d576040517f095ea7b300000000000000000000000000000000000000000000000000000000815273ddafbb505ad214d7b80b1f830fccc89b60fb7a839063095ea7b39061026790735d9593586b4b5edbd23e7eba8d88fd8f09d83ebd9060001990600401612055565b602060405180830381600087803b15801561028157600080fd5b505af1158015610295573d6000803e3d6000fd5b505050506040513d601f19601f820116820180604052508101906102b99190611e44565b506001546040517f095ea7b300000000000000000000000000000000000000000000000000000000815273ddafbb505ad214d7b80b1f830fccc89b60fb7a839163095ea7b391610319916001600160a01b03169060001990600401612055565b602060405180830381600087803b15801561033357600080fd5b505af1158015610347573d6000803e3d6000fd5b505050506040513d601f19601f8201168201806040525081019061036b9190611e44565b505b565b6002546001600160a01b0316156103a15760405162461bcd60e51b81526004016103989061250f565b60405180910390fd5b6002805473ffffffffffffffffffffffffffffffffffffffff19166001600160a01b0392909216919091179055565b6103d861092a565b6001600160a01b03166103e9610466565b6001600160a01b03161461040f5760405162461bcd60e51b81526004016103989061240f565b600080546040516001600160a01b03909116907f8be0079c531659141344cd1fd0a4f28419497f9722a3daafe3b4186f6b6457e0908390a36000805473ffffffffffffffffffffffffffffffffffffffff19169055565b6000546001600160a01b031690565b6001546000906001600160a01b031633146104a25760405162461bcd60e51b81526004016103989061257d565b6104e16040518060400160405280600d81526020017f2d2d53573a204f726465722023000000000000000000000000000000000000008152508361092e565b600154604051634c5789e360e01b81526000918291829182916001600160a01b0390911690634c5789e39061051a9089906004016125bc565b60c06040518083038186803b15801561053257600080fd5b505afa158015610546573d6000803e3d6000fd5b505050506040513d601f19601f8201168201806040525081019061056a9190611d47565b6002546040517fa0b73881000000000000000000000000000000000000000000000000000000008152959a509398509096509450309350506001600160a01b03169063a0b73881906105c0908890600401612041565b60206040518083038186803b1580156105d857600080fd5b505afa1580156105ec573d6000803e3d6000fd5b505050506040513d601f19601f820116820180604052508101906106109190611d2b565b6001600160a01b0316146106365760405162461bcd60e51b815260040161039890612546565b80158061064257508042105b61065e5760405162461bcd60e51b815260040161039890612444565b8161067b5760405162461bcd60e51b81526004016103989061219d565b600183600581111561068957fe5b14156106a357610698866109a5565b9450505050506106e6565b60028360058111156106b157fe5b14156106c05761069886610ea9565b60038360058111156106ce57fe5b14156106dd5761069886611310565b60009450505050505b919050565b6001546001600160a01b0316156107145760405162461bcd60e51b815260040161039890612166565b6001805473ffffffffffffffffffffffffffffffffffffffff19166001600160a01b0392909216919091179055565b606061074d61092a565b6001600160a01b031661075e610466565b6001600160a01b0316146107845760405162461bcd60e51b81526004016103989061240f565b61078d84611839565b6107a95760405162461bcd60e51b81526004016103989061230d565b60006060856001600160a01b031685856040516107c7929190612031565b6000604051808303816000865af19150503d8060008114610804576040519150601f19603f3d011682016040523d82523d6000602084013e610809565b606091505b50909250905081610821576040513d806000833e8082fd5b95945050505050565b610832611c64565b610842838363ffffffff61183f16565b60000b6001146108525782610854565b815b90505b92915050565b61086561092a565b6001600160a01b0316610876610466565b6001600160a01b03161461089c5760405162461bcd60e51b81526004016103989061240f565b6001600160a01b0381166108c25760405162461bcd60e51b8152600401610398906121d4565b600080546040516001600160a01b03808516939216917f8be0079c531659141344cd1fd0a4f28419497f9722a3daafe3b4186f6b6457e091a36000805473ffffffffffffffffffffffffffffffffffffffff19166001600160a01b0392909216919091179055565b3390565b6109a18282604051602401610944929190612144565b60408051601f198184030181529190526020810180517bffffffffffffffffffffffffffffffffffffffffffffffffffffffff167f9710a9d000000000000000000000000000000000000000000000000000000000179052611870565b5050565b60006109af611c64565b6109b7611c64565b6109bf611c64565b6109c7611c64565b6109cf611c64565b60015460405163038da8b760e61b81526001600160a01b039091169063e36a2dc0906109ff908a906004016125bc565b60e06040518083038186803b158015610a1757600080fd5b505afa158015610a2b573d6000803e3d6000fd5b505050506040513d601f19601f82011682018060405250810190610a4f9190611f2a565b50600154604051634c5789e360e01b8152959b50939950919750955093506000925082916001600160a01b0390911690634c5789e390610a93908c906004016125bc565b60c06040518083038186803b158015610aab57600080fd5b505afa158015610abf573d6000803e3d6000fd5b505050506040513d601f19601f82011682018060405250810190610ae39190611d47565b505093505050915060008090508115610b0357610b008388611891565b90505b6000610b0e88611a2c565b610b19576001610b1c565b60005b9050610b26611c64565b846001600160a01b031663dc76fabc6040518163ffffffff1660e01b815260040160206040518083038186803b158015610b5f57600080fd5b505afa158015610b73573d6000803e3d6000fd5b505050506040513d601f19601f82011682018060405250810190610b979190611edb565b9050600082610ba857600019610bab565b60015b600f0b610bbe8c8463ffffffff61183f16565b60000b1490508015610e7e57610bd2611c64565b610bdb8b611a4a565b9050610be5611c64565b876001600160a01b031663da0c592786610c00576000610c03565b60015b846040518363ffffffff1660e01b8152600401610c21929190612129565b60206040518083038186803b158015610c3957600080fd5b505afa158015610c4d573d6000803e3d6000fd5b505050506040513d601f19601f82011682018060405250810190610c719190611edb565b9050610c7c89611a78565b15610cd05784610cab57604080516020810190915260018152610ca6908a9063ffffffff611a7c16565b610ccb565b604080516020810190915260018152610ccb908a9063ffffffff611aa816565b610cd2565b885b9850610ced610ce7828d63ffffffff611acb16565b8b61082a565b99507f4941de5e673640f9e84addc3e999d06b1fbb1b2760106594b9f81cbf5e0ac78f8886610d1d576001610d20565b60005b610d298e611a78565b610d328e611a78565b610d3b8e611a78565b604051610d4c95949392919061206e565b60405180910390a18515610df757610d6a828e63ffffffff611aee16565b9850610d84610d77611b11565b8a9063ffffffff611aa816565b604051632a306c2f60e21b8152909950735d9593586b4b5edbd23e7eba8d88fd8f09d83ebd9063a8c1b0bc90610dc0908b908d9060040161210f565b600060405180830381600087803b158015610dda57600080fd5b505af1158015610dee573d6000803e3d6000fd5b50505050610e77565b735d9593586b4b5edbd23e7eba8d88fd8f09d83ebd63893d242d8987610e1e576001610e21565b60005b8e8e8e6040518663ffffffff1660e01b8152600401610e449594939291906120d4565b600060405180830381600087803b158015610e5e57600080fd5b505af1158015610e72573d6000803e3d6000fd5b505050505b5050610e96565b60405162461bcd60e51b81526004016103989061247b565b5060019c9b505050505050505050505050565b6000610eb3611c64565b610ebb611c64565b610ec3611c64565b610ecb611c64565b610ed3611c64565b60015460405163038da8b760e61b81526001600160a01b039091169063e36a2dc090610f03908a906004016125bc565b60e06040518083038186803b158015610f1b57600080fd5b505afa158015610f2f573d6000803e3d6000fd5b505050506040513d601f19601f82011682018060405250810190610f539190611f2a565b50600154604051634c5789e360e01b8152969b50939950919750955093506000928392506001600160a01b0390911690634c5789e390610f97908c906004016125bc565b60c06040518083038186803b158015610faf57600080fd5b505afa158015610fc3573d6000803e3d6000fd5b505050506040513d601f19601f82011682018060405250810190610fe79190611d47565b505093505050915060008090508115611007576110048388611891565b90505b600061101288611a2c565b61101d576001611020565b60005b905061102a611c64565b846001600160a01b031663dc76fabc6040518163ffffffff1660e01b815260040160206040518083038186803b15801561106357600080fd5b505afa158015611077573d6000803e3d6000fd5b505050506040513d601f19601f8201168201806040525081019061109b9190611edb565b90506000826110ac576000196110af565b60015b600f0b6110c2838d63ffffffff61183f16565b60000b14905080156112f8576110d6611c64565b6110df8b611a4a565b90506110e9611c64565b876001600160a01b031663da0c592786611104576000611107565b60015b846040518363ffffffff1660e01b8152600401611125929190612129565b60206040518083038186803b15801561113d57600080fd5b505afa158015611151573d6000803e3d6000fd5b505050506040513d601f19601f820116820180604052508101906111759190611edb565b905061118089611a78565b156111d457846111af576040805160208101909152600181526111aa908a9063ffffffff611a7c16565b6111cf565b6040805160208101909152600181526111cf908a9063ffffffff611aa816565b6111d6565b885b98506111eb610ce7828d63ffffffff611acb16565b99507f4941de5e673640f9e84addc3e999d06b1fbb1b2760106594b9f81cbf5e0ac78f888661121b57600161121e565b60005b6112278e611a78565b6112308e611a78565b6112398e611a78565b60405161124a95949392919061206e565b60405180910390a1851561129c5760408051602081018252600081529051632a306c2f60e21b8152735d9593586b4b5edbd23e7eba8d88fd8f09d83ebd9163a8c1b0bc91610dc0918c9160040161210f565b735d9593586b4b5edbd23e7eba8d88fd8f09d83ebd63893d242d89876112c35760016112c6565b60005b8e8e604051806020016040528060008152506040518663ffffffff1660e01b8152600401610e449594939291906120d4565b60405162461bcd60e51b815260040161039890612268565b600061131a611c64565b611322611c64565b61132a611c64565b611332611c64565b61133a611c64565b611342611c64565b60015460405163038da8b760e61b81526001600160a01b039091169063e36a2dc090611372908b906004016125bc565b60e06040518083038186803b15801561138a57600080fd5b505afa15801561139e573d6000803e3d6000fd5b505050506040513d601f19601f820116820180604052508101906113c29190611f2a565b50600154604051634c5789e360e01b8152969c50949a509298509096509450925060009182916001600160a01b031690634c5789e390611406908d906004016125bc565b60c06040518083038186803b15801561141e57600080fd5b505afa158015611432573d6000803e3d6000fd5b505050506040513d601f19601f820116820180604052508101906114569190611d47565b505093505050915060008090508115611476576114738388611891565b90505b600061148188611a2c565b61148c57600161148f565b60005b9050611499611c64565b846001600160a01b031663dc76fabc6040518163ffffffff1660e01b815260040160206040518083038186803b1580156114d257600080fd5b505afa1580156114e6573d6000803e3d6000fd5b505050506040513d601f19601f8201168201806040525081019061150a9190611edb565b905060008261151b5760001961151e565b60015b600f0b6115318c8463ffffffff61183f16565b60000b1480156115645750826115495760001961154c565b60015b600f0b61155f838e63ffffffff61183f16565b60000b145b9050801561180d57611574611c64565b61157d8b611a4a565b9050611587611c64565b876001600160a01b031663da0c5927866115a25760006115a5565b60015b846040518363ffffffff1660e01b81526004016115c3929190612129565b60206040518083038186803b1580156115db57600080fd5b505afa1580156115ef573d6000803e3d6000fd5b505050506040513d601f19601f820116820180604052508101906116139190611edb565b905061161e89611a78565b15611672578461164d57604080516020810190915260018152611648908a9063ffffffff611a7c16565b61166d565b60408051602081019091526001815261166d908a9063ffffffff611aa816565b611674565b885b9850611689610ce7828d63ffffffff611acb16565b99507f4941de5e673640f9e84addc3e999d06b1fbb1b2760106594b9f81cbf5e0ac78f88866116b95760016116bc565b60005b6116c58e611a78565b6116ce8e611a78565b6116d78e611a78565b6040516116e895949392919061206e565b60405180910390a1851561178657611706828e63ffffffff611aee16565b9850611713610d77611b11565b604051632a306c2f60e21b8152909950735d9593586b4b5edbd23e7eba8d88fd8f09d83ebd9063a8c1b0bc9061174f908b908d9060040161210f565b600060405180830381600087803b15801561176957600080fd5b505af115801561177d573d6000803e3d6000fd5b50505050611806565b735d9593586b4b5edbd23e7eba8d88fd8f09d83ebd63893d242d89876117ad5760016117b0565b60005b8e8e8e6040518663ffffffff1660e01b81526004016117d39594939291906120d4565b600060405180830381600087803b1580156117ed57600080fd5b505af1158015611801573d6000803e3d6000fd5b505050505b5050611825565b60405162461bcd60e51b8152600401610398906124b2565b5060019d9c50505050505050505050505050565b3b151590565b80518251600091101561185457506001610857565b8151835110156118675750600019610857565b50600092915050565b80516a636f6e736f6c652e6c6f67602083016000808483855afa5050505050565b600061189b611c77565b6040517fb33dc190000000000000000000000000000000000000000000000000000000008152735d9593586b4b5edbd23e7eba8d88fd8f09d83ebd9063b33dc190906118ed90879030906004016120ba565b60c06040518083038186803b15801561190557600080fd5b505afa158015611919573d6000803e3d6000fd5b505050506040513d601f19601f8201168201806040525081019061193d9190611e60565b9050611947611c64565b50805161195381611a2c565b151561195e85611a2c565b151514611a0c5761196e84611a2c565b156119af5761199461197f82611a4a565b61198886611a4a565b9063ffffffff61183f16565b60000b600114156119aa57600192505050610857565b6119da565b6119c46119bb85611a4a565b61198883611a4a565b60000b600114156119da57600192505050610857565b6119eb6119e685611a4a565b611a78565b611a075760405162461bcd60e51b815260040161039890612231565b611a24565b60405162461bcd60e51b8152600401610398906122d6565b505092915050565b60008082600001511215611a42575060016106e6565b506000919050565b611a52611c64565b611a5a611c64565b825160001315611a705782516000038152610857565b915182525090565b5190565b611a84611c64565b611a8c611c64565b82518451611a9f9163ffffffff611b3516565b81529392505050565b611ab0611c64565b611ab8611c64565b82518451611a9f9163ffffffff611b5a16565b611ad3611c64565b611adb611c64565b82518451611a9f9163ffffffff611b8216565b611af6611c64565b611afe611c64565b82518451611a9f9163ffffffff611b9016565b611b19611c64565b6040518060200160405280611b2e6012611b9e565b9052905090565b6000828201838110156108545760405162461bcd60e51b81526004016103989061229f565b600082821115611b7c5760405162461bcd60e51b815260040161039890612344565b50900390565b600061085483836012611ba7565b600061085483836012611bda565b60ff16600a0a90565b6000611bd283611bc6611bb985611b9e565b879063ffffffff611bf816565b9063ffffffff611c3216565b949350505050565b6000611bd2611be883611b9e565b611bc6868663ffffffff611bf816565b600082611c0757506000610857565b82820282848281611c1457fe5b04146108545760405162461bcd60e51b8152600401610398906123b2565b6000808211611c535760405162461bcd60e51b81526004016103989061237b565b818381611c5c57fe5b049392505050565b6040518060200160405280600081525090565b6040518060c00160405280611c8a611c64565b8152602001611c97611c64565b8152602001611ca4611c64565b8152602001611cb1611c64565b815260200160008152602001600081525090565b600060208284031215611cd6578081fd5b611ce060206125c5565b9135825250919050565b600060208284031215611cfb578081fd5b611d0560206125c5565b9151825250919050565b600060208284031215611d20578081fd5b8135610854816125f6565b600060208284031215611d3c578081fd5b8151610854816125f6565b60008060008060008060c08789031215611d5f578182fd5b8651611d6a816125f6565b6020880151909650611d7b816125f6565b604088015190955060068110611d8f578283fd5b6060880151909450611da08161260b565b6080880151909350611db18161260b565b8092505060a087015190509295509295509295565b600080600060408486031215611dda578283fd5b8335611de5816125f6565b9250602084013567ffffffffffffffff80821115611e01578384fd5b81860187601f820112611e12578485fd5b8035925081831115611e22578485fd5b876020848301011115611e33578485fd5b949760209095019650909450505050565b600060208284031215611e55578081fd5b81516108548161260b565b600060c08284031215611e71578081fd5b611e7b60c06125c5565b611e858484611cea565b8152611e948460208501611cea565b6020820152611ea68460408501611cea565b6040820152611eb88460608501611cea565b60608201526080830151608082015260a083015160a08201528091505092915050565b600060208284031215611eec578081fd5b6108548383611cea565b60008060408385031215611f08578182fd5b611f128484611cc5565b9150611f218460208501611cc5565b90509250929050565b600080600080600080600060e0888a031215611f44578081fd5b611f4e8989611cea565b9650611f5d8960208a01611cea565b9550611f6c8960408a01611cea565b9450611f7b8960608a01611cea565b9350611f8a8960808a01611cea565b9250611f998960a08a01611cea565b9150611fa88960c08a01611cea565b905092959891949750929550565b600060208284031215611fc7578081fd5b5035919050565b600060208284031215611fdf578081fd5b5051919050565b60008151808452815b8181101561200b57602081850181015186830182015201611fef565b8181111561201c5782602083870101525b50601f01601f19169290920160200192915050565b6000828483379101908152919050565b6001600160a01b0391909116815260200190565b6001600160a01b03929092168252602082015260400190565b6001600160a01b03959095168552602085019390935260408401919091526060830152608082015260a00190565b901515815260200190565b6000602082526108546020830184611fe6565b6001600160a01b0392831681529116602082015260400190565b6001600160a01b038616815260a081016120ed866125ec565b6020820195909552925160408401529051606083015251608090910152919050565b6001600160a01b0392909216825251602082015260400190565b60408101612136846125ec565b928152905160209091015290565b6000604082526121576040830185611fe6565b90508260208301529392505050565b60208082526018908201527f4c4f422068617320616c7265616479206265656e207365740000000000000000604082015260600190565b60208082526015908201527f4f72646572206e6f206c6f6e6765722076616c69640000000000000000000000604082015260600190565b60208082526026908201527f4f776e61626c653a206e6577206f776e657220697320746865207a65726f206160408201527f6464726573730000000000000000000000000000000000000000000000000000606082015260800190565b60208082526015908201527f696e76616c6964207265647563654f6e6c792023310000000000000000000000604082015260600190565b6020808252601c908201527f507269636520686173206e6f74206869742073746f7020707269636500000000604082015260600190565b6020808252601b908201527f536166654d6174683a206164646974696f6e206f766572666c6f770000000000604082015260600190565b60208082526015908201527f696e76616c6964207265647563654f6e6c792023320000000000000000000000604082015260600190565b60208082526014908201527f63616c6c20746f206e6f6e2d636f6e7472616374000000000000000000000000604082015260600190565b6020808252601e908201527f536166654d6174683a207375627472616374696f6e206f766572666c6f770000604082015260600190565b6020808252601a908201527f536166654d6174683a206469766973696f6e206279207a65726f000000000000604082015260600190565b60208082526021908201527f536166654d6174683a206d756c7469706c69636174696f6e206f766572666c6f60408201527f7700000000000000000000000000000000000000000000000000000000000000606082015260800190565b6020808252818101527f4f776e61626c653a2063616c6c6572206973206e6f7420746865206f776e6572604082015260600190565b6020808252600d908201527f4f72646572206578706972656400000000000000000000000000000000000000604082015260600190565b6020808252601d908201527f507269636520686173206e6f7420686974206c696d6974207072696365000000604082015260600190565b60208082526021908201527f507269636520686173206e6f74206869742073746f706c696d6974207072696360408201527f6500000000000000000000000000000000000000000000000000000000000000606082015260800190565b60208082526018908201527f5357462068617320616c7265616479206265656e207365740000000000000000604082015260600190565b60208082526016908201527f496e636f727265637420736d6172742077616c6c657400000000000000000000604082015260600190565b6020808252818101527f4f6e6c7920657865637574652066726f6d20746865206f7264657220626f6f6b604082015260600190565b9051815260200190565b90815260200190565b60405181810167ffffffffffffffff811182821017156125e457600080fd5b604052919050565b6002811061036b57fe5b6001600160a01b038116811461036b57600080fd5b801515811461036b57600080fdfea264697066735822122042af4779a5832a6a0aa63e048d21f5004f4056b10d008b4057ee3ca2df38f8f164736f6c63430006090033a2646970667358221220a02f1a1798d2a9b6c6ce8b99d0a6aea167ff13e396c0a60276b224d224005a8064736f6c63430006090033",
  "linkReferences": {},
  "deployedLinkReferences": {}
}