{
  "_format": "hh-sol-artifact-1",
  "contractName": "SmartWallet",
  "sourceName": "contracts/SmartWallet.sol",
  "abi": [
    {
      "anonymous": false,
      "inputs": [
        {
          "indexed": false,
          "internalType": "address",
          "name": "asset",
          "type": "address"
        },
        {
          "indexed": false,
          "internalType": "uint256",
          "name": "dir",
          "type": "uint256"
        },
        {
          "indexed": false,
          "internalType": "uint256",
          "name": "collateral",
          "type": "uint256"
        },
        {
          "indexed": false,
          "internalType": "uint256",
          "name": "leverage",
          "type": "uint256"
        },
        {
          "indexed": false,
          "internalType": "uint256",
          "name": "slippage",
          "type": "uint256"
        }
      ],
      "name": "OpenPosition",
      "type": "event"
    },
    {
      "anonymous": false,
      "inputs": [
        {
          "indexed": true,
          "internalType": "address",
          "name": "previousOwner",
          "type": "address"
        },
        {
          "indexed": true,
          "internalType": "address",
          "name": "newOwner",
          "type": "address"
        }
      ],
      "name": "OwnershipTransferred",
      "type": "event"
    },
    {
      "inputs": [],
      "name": "approveAll",
      "outputs": [],
      "stateMutability": "nonpayable",
      "type": "function"
    },
    {
      "inputs": [
        {
          "internalType": "address",
          "name": "target",
          "type": "address"
        },
        {
          "internalType": "bytes",
          "name": "callData",
          "type": "bytes"
        }
      ],
      "name": "executeCall",
      "outputs": [
        {
          "internalType": "bytes",
          "name": "",
          "type": "bytes"
        }
      ],
      "stateMutability": "nonpayable",
      "type": "function"
    },
    {
      "inputs": [
        {
          "internalType": "uint256",
          "name": "order_id",
          "type": "uint256"
        }
      ],
      "name": "executeOrder",
      "outputs": [
        {
          "internalType": "bool",
          "name": "",
          "type": "bool"
        }
      ],
      "stateMutability": "nonpayable",
      "type": "function"
    },
    {
      "inputs": [
        {
          "components": [
            {
              "internalType": "uint256",
              "name": "d",
              "type": "uint256"
            }
          ],
          "internalType": "struct Decimal.decimal",
          "name": "a",
          "type": "tuple"
        },
        {
          "components": [
            {
              "internalType": "uint256",
              "name": "d",
              "type": "uint256"
            }
          ],
          "internalType": "struct Decimal.decimal",
          "name": "b",
          "type": "tuple"
        }
      ],
      "name": "minD",
      "outputs": [
        {
          "components": [
            {
              "internalType": "uint256",
              "name": "d",
              "type": "uint256"
            }
          ],
          "internalType": "struct Decimal.decimal",
          "name": "",
          "type": "tuple"
        }
      ],
      "stateMutability": "pure",
      "type": "function"
    },
    {
      "inputs": [
        {
          "components": [
            {
              "internalType": "int256",
              "name": "d",
              "type": "int256"
            }
          ],
          "internalType": "struct SignedDecimal.signedDecimal",
          "name": "a",
          "type": "tuple"
        },
        {
          "components": [
            {
              "internalType": "int256",
              "name": "d",
              "type": "int256"
            }
          ],
          "internalType": "struct SignedDecimal.signedDecimal",
          "name": "b",
          "type": "tuple"
        }
      ],
      "name": "minSD",
      "outputs": [
        {
          "components": [
            {
              "internalType": "int256",
              "name": "d",
              "type": "int256"
            }
          ],
          "internalType": "struct SignedDecimal.signedDecimal",
          "name": "",
          "type": "tuple"
        }
      ],
      "stateMutability": "pure",
      "type": "function"
    },
    {
      "inputs": [],
      "name": "owner",
      "outputs": [
        {
          "internalType": "address",
          "name": "",
          "type": "address"
        }
      ],
      "stateMutability": "view",
      "type": "function"
    },
    {
      "inputs": [],
      "name": "renounceOwnership",
      "outputs": [],
      "stateMutability": "nonpayable",
      "type": "function"
    },
    {
      "inputs": [
        {
          "internalType": "contract SmartWalletFactory",
          "name": "_addr",
          "type": "address"
        }
      ],
      "name": "setFactory",
      "outputs": [],
      "stateMutability": "nonpayable",
      "type": "function"
    },
    {
      "inputs": [
        {
          "internalType": "address",
          "name": "_addr",
          "type": "address"
        }
      ],
      "name": "setOrderBook",
      "outputs": [],
      "stateMutability": "nonpayable",
      "type": "function"
    },
    {
      "inputs": [
        {
          "internalType": "address",
          "name": "newOwner",
          "type": "address"
        }
      ],
      "name": "transferOwnership",
      "outputs": [],
      "stateMutability": "nonpayable",
      "type": "function"
    }
  ],
  "bytecode": "0x608060405234801561001057600080fd5b5060006100246001600160e01b0361007316565b600080546001600160a01b0319166001600160a01b0383169081178255604051929350917f8be0079c531659141344cd1fd0a4f28419497f9722a3daafe3b4186f6b6457e0908290a350610077565b3390565b611b89806100866000396000f3fe608060405234801561001057600080fd5b50600436106100be5760003560e01c806394f6113411610076578063bca8c7b51161005b578063bca8c7b514610159578063cca9dfa914610179578063f2fde38b1461018c576100be565b806394f61134146101265780639a1598c814610146576100be565b80635bb47808116100a75780635bb47808146100f6578063715018a6146101095780638da5cb5b14610111576100be565b80632a8656d2146100c3578063380d0c08146100ec575b600080fd5b6100d66100d13660046114dc565b61019f565b6040516100e39190611aec565b60405180910390f35b6100f461020f565b005b6100f46101043660046112f5565b61037e565b6100f46103df565b610119610475565b6040516100e3919061160f565b61013961013436600461159c565b610484565b6040516100e3919061166a565b6100f46101543660046112f5565b6106d9565b61016c6101673660046113ac565b610731565b6040516100e39190611675565b6100d66101873660046114dc565b610818565b6100f461019a3660046112f5565b610846565b6101a761124a565b6101c86101b383610913565b6101bc85610913565b9063ffffffff61094116565b60000b6001146101ee5760405180602001604052806101e685610913565b519052610206565b604051806020016040528061020284610913565b5190525b90505b92915050565b6040517f095ea7b300000000000000000000000000000000000000000000000000000000815273ddafbb505ad214d7b80b1f830fccc89b60fb7a839063095ea7b39061027790735d9593586b4b5edbd23e7eba8d88fd8f09d83ebd9060001990600401611623565b602060405180830381600087803b15801561029157600080fd5b505af11580156102a5573d6000803e3d6000fd5b505050506040513d601f19601f820116820180604052508101906102c9919061142a565b506002546040517f095ea7b300000000000000000000000000000000000000000000000000000000815273ddafbb505ad214d7b80b1f830fccc89b60fb7a839163095ea7b391610329916001600160a01b03169060001990600401611623565b602060405180830381600087803b15801561034357600080fd5b505af1158015610357573d6000803e3d6000fd5b505050506040513d601f19601f8201168201806040525081019061037b919061142a565b50565b6002546001600160a01b0316156103b05760405162461bcd60e51b81526004016103a790611a49565b60405180910390fd5b6002805473ffffffffffffffffffffffffffffffffffffffff19166001600160a01b0392909216919091179055565b6103e7610972565b6001600160a01b03166103f8610475565b6001600160a01b03161461041e5760405162461bcd60e51b81526004016103a7906119a6565b600080546040516001600160a01b03909116907f8be0079c531659141344cd1fd0a4f28419497f9722a3daafe3b4186f6b6457e0908390a36000805473ffffffffffffffffffffffffffffffffffffffff19169055565b6000546001600160a01b031690565b6001546000906001600160a01b031633146104b15760405162461bcd60e51b81526004016103a790611ab7565b6104f06040518060400160405280600d81526020017f2d2d53573a204f7264657220230000000000000000000000000000000000000081525083610976565b6001546040517f4c5789e30000000000000000000000000000000000000000000000000000000081526000918291829182916001600160a01b0390911690634c5789e390610542908990600401611af6565b60c06040518083038186803b15801561055a57600080fd5b505afa15801561056e573d6000803e3d6000fd5b505050506040513d601f19601f82011682018060405250810190610592919061132d565b6002546040517fa0b73881000000000000000000000000000000000000000000000000000000008152959a509398509096509450309350506001600160a01b03169063a0b73881906105e890889060040161160f565b60206040518083038186803b15801561060057600080fd5b505afa158015610614573d6000803e3d6000fd5b505050506040513d601f19601f820116820180604052508101906106389190611311565b6001600160a01b03161461065e5760405162461bcd60e51b81526004016103a790611a80565b80158061066a57508042105b6106865760405162461bcd60e51b81526004016103a7906119db565b816106a35760405162461bcd60e51b81526004016103a79061176b565b60018360038111156106b157fe5b14156106cb576106c0866109ed565b9450505050506106d4565b60009450505050505b919050565b6001546001600160a01b0316156107025760405162461bcd60e51b81526004016103a790611734565b6001805473ffffffffffffffffffffffffffffffffffffffff19166001600160a01b0392909216919091179055565b606061073b610972565b6001600160a01b031661074c610475565b6001600160a01b0316146107725760405162461bcd60e51b81526004016103a7906119a6565b61077b84611091565b6107975760405162461bcd60e51b81526004016103a7906118a4565b60006060856001600160a01b031685856040516107b59291906115ff565b6000604051808303816000865af19150503d80600081146107f2576040519150601f19603f3d011682016040523d82523d6000602084013e6107f7565b606091505b5090925090508161080f576040513d806000833e8082fd5b95945050505050565b61082061124a565b610830838363ffffffff61094116565b60000b6001146108405782610206565b50919050565b61084e610972565b6001600160a01b031661085f610475565b6001600160a01b0316146108855760405162461bcd60e51b81526004016103a7906119a6565b6001600160a01b0381166108ab5760405162461bcd60e51b81526004016103a7906117a2565b600080546040516001600160a01b03808516939216917f8be0079c531659141344cd1fd0a4f28419497f9722a3daafe3b4186f6b6457e091a36000805473ffffffffffffffffffffffffffffffffffffffff19166001600160a01b0392909216919091179055565b61091b61124a565b61092361124a565b8251600013156109395782516000038152610209565b915182525090565b80518251600091101561095657506001610209565b8151835110156109695750600019610209565b50600092915050565b3390565b6109e9828260405160240161098c929190611712565b60408051601f198184030181529190526020810180517bffffffffffffffffffffffffffffffffffffffffffffffffffffffff167f9710a9d000000000000000000000000000000000000000000000000000000000179052611097565b5050565b60006109f761124a565b6109ff61124a565b610a0761124a565b610a0f61124a565b610a1761124a565b6001546040517fe36a2dc00000000000000000000000000000000000000000000000000000000081526001600160a01b039091169063e36a2dc090610a60908a90600401611af6565b60e06040518083038186803b158015610a7857600080fd5b505afa158015610a8c573d6000803e3d6000fd5b505050506040513d601f19601f82011682018060405250810190610ab09190611510565b506001546040517f4c5789e3000000000000000000000000000000000000000000000000000000008152969b50939950919750955093506000928392506001600160a01b0390911690634c5789e390610b0d908c90600401611af6565b60c06040518083038186803b158015610b2557600080fd5b505afa158015610b39573d6000803e3d6000fd5b505050506040513d601f19601f82011682018060405250810190610b5d919061132d565b5050935050509150610b6d61124a565b508560008215610cf357610b7f61125d565b6040517fb33dc190000000000000000000000000000000000000000000000000000000008152735d9593586b4b5edbd23e7eba8d88fd8f09d83ebd9063b33dc19090610bd19088903090600401611688565b60c06040518083038186803b158015610be957600080fd5b505afa158015610bfd573d6000803e3d6000fd5b505050506040513d601f19601f82011682018060405250810190610c219190611446565b9050610c2b61124a565b508051610c37816110b8565b1515610c428b6110b8565b151514610cd857610c528a6110b8565b15610c8157610c6c610c6382610913565b6101bc8c610913565b60000b60011415610c7c57600192505b610ca6565b610c96610c8d8b610913565b6101bc83610913565b60000b60011415610ca657600192505b610cb7610cb28b610913565b6110d6565b610cd35760405162461bcd60e51b81526004016103a7906117ff565b610cf0565b60405162461bcd60e51b81526004016103a79061186d565b50505b6000610cfe896110b8565b610d09576001610d0c565b60005b9050610d1661124a565b856001600160a01b031663dc76fabc6040518163ffffffff1660e01b815260040160206040518083038186803b158015610d4f57600080fd5b505afa158015610d63573d6000803e3d6000fd5b505050506040513d601f19601f82011682018060405250810190610d8791906114c1565b9050600082610d9857600019610d9b565b60015b600f0b610dae8d8463ffffffff61094116565b60000b149050801561106557610dc261124a565b610dcb8c610913565b9050610dd561124a565b886001600160a01b031663da0c592786610df0576000610df3565b60015b846040518363ffffffff1660e01b8152600401610e119291906116f7565b60206040518083038186803b158015610e2957600080fd5b505afa158015610e3d573d6000803e3d6000fd5b505050506040513d601f19601f82011682018060405250810190610e6191906114c1565b9050610e6c8a6110d6565b15610ec05784610e9b57604080516020810190915260018152610e96908b9063ffffffff6110da16565b610ebb565b604080516020810190915260018152610ebb908b9063ffffffff61110616565b610ec2565b895b9950610edd610ed7828e63ffffffff61112916565b8c610818565b9a507f4941de5e673640f9e84addc3e999d06b1fbb1b2760106594b9f81cbf5e0ac78f8986610f0d576001610f10565b60005b610f198f6110d6565b610f228f6110d6565b610f2b8f6110d6565b604051610f3c95949392919061163c565b60405180910390a18515610fde57604080516020810182526000815290517fa8c1b0bc000000000000000000000000000000000000000000000000000000008152735d9593586b4b5edbd23e7eba8d88fd8f09d83ebd9163a8c1b0bc91610fa7918d916004016116dd565b600060405180830381600087803b158015610fc157600080fd5b505af1158015610fd5573d6000803e3d6000fd5b5050505061105e565b735d9593586b4b5edbd23e7eba8d88fd8f09d83ebd63893d242d8a87611005576001611008565b60005b8f8f8f6040518663ffffffff1660e01b815260040161102b9594939291906116a2565b600060405180830381600087803b15801561104557600080fd5b505af1158015611059573d6000803e3d6000fd5b505050505b505061107d565b60405162461bcd60e51b81526004016103a790611a12565b5060019d9c50505050505050505050505050565b3b151590565b80516a636f6e736f6c652e6c6f67602083016000808483855afa5050505050565b600080826000015112156110ce575060016106d4565b506000919050565b5190565b6110e261124a565b6110ea61124a565b825184516110fd9163ffffffff61114c16565b81529392505050565b61110e61124a565b61111661124a565b825184516110fd9163ffffffff61117116565b61113161124a565b61113961124a565b825184516110fd9163ffffffff61119916565b6000828201838110156102065760405162461bcd60e51b81526004016103a790611836565b6000828211156111935760405162461bcd60e51b81526004016103a7906118db565b50900390565b60006102068383601260006111cd836111c16111b4856111d5565b879063ffffffff6111de16565b9063ffffffff61121816565b949350505050565b60ff16600a0a90565b6000826111ed57506000610209565b828202828482816111fa57fe5b04146102065760405162461bcd60e51b81526004016103a790611949565b60008082116112395760405162461bcd60e51b81526004016103a790611912565b81838161124257fe5b049392505050565b6040518060200160405280600081525090565b6040518060c0016040528061127061124a565b815260200161127d61124a565b815260200161128a61124a565b815260200161129761124a565b815260200160008152602001600081525090565b6000602082840312156112bc578081fd5b6112c66020611aff565b9135825250919050565b6000602082840312156112e1578081fd5b6112eb6020611aff565b9151825250919050565b600060208284031215611306578081fd5b813561020681611b30565b600060208284031215611322578081fd5b815161020681611b30565b60008060008060008060c08789031215611345578182fd5b865161135081611b30565b602088015190965061136181611b30565b604088015190955060048110611375578283fd5b606088015190945061138681611b45565b608088015190935061139781611b45565b8092505060a087015190509295509295509295565b6000806000604084860312156113c0578283fd5b83356113cb81611b30565b9250602084013567ffffffffffffffff808211156113e7578384fd5b81860187601f8201126113f8578485fd5b8035925081831115611408578485fd5b876020848301011115611419578485fd5b949760209095019650909450505050565b60006020828403121561143b578081fd5b815161020681611b45565b600060c08284031215611457578081fd5b61146160c0611aff565b61146b84846112d0565b815261147a84602085016112d0565b602082015261148c84604085016112d0565b604082015261149e84606085016112d0565b60608201526080830151608082015260a083015160a08201528091505092915050565b6000602082840312156114d2578081fd5b61020683836112d0565b600080604083850312156114ee578182fd5b6114f884846112ab565b915061150784602085016112ab565b90509250929050565b600080600080600080600060e0888a03121561152a578081fd5b61153489896112d0565b96506115438960208a016112d0565b95506115528960408a016112d0565b94506115618960608a016112d0565b93506115708960808a016112d0565b925061157f8960a08a016112d0565b915061158e8960c08a016112d0565b905092959891949750929550565b6000602082840312156115ad578081fd5b5035919050565b60008151808452815b818110156115d9576020818501810151868301820152016115bd565b818111156115ea5782602083870101525b50601f01601f19169290920160200192915050565b6000828483379101908152919050565b6001600160a01b0391909116815260200190565b6001600160a01b03929092168252602082015260400190565b6001600160a01b03959095168552602085019390935260408401919091526060830152608082015260a00190565b901515815260200190565b60006020825261020660208301846115b4565b6001600160a01b0392831681529116602082015260400190565b6001600160a01b038616815260a081016116bb86611b26565b6020820195909552925160408401529051606083015251608090910152919050565b6001600160a01b0392909216825251602082015260400190565b6040810161170484611b26565b928152905160209091015290565b60006040825261172560408301856115b4565b90508260208301529392505050565b60208082526018908201527f4c4f422068617320616c7265616479206265656e207365740000000000000000604082015260600190565b60208082526015908201527f4f72646572206e6f206c6f6e6765722076616c69640000000000000000000000604082015260600190565b60208082526026908201527f4f776e61626c653a206e6577206f776e657220697320746865207a65726f206160408201527f6464726573730000000000000000000000000000000000000000000000000000606082015260800190565b60208082526015908201527f696e76616c6964207265647563654f6e6c792023310000000000000000000000604082015260600190565b6020808252601b908201527f536166654d6174683a206164646974696f6e206f766572666c6f770000000000604082015260600190565b60208082526015908201527f696e76616c6964207265647563654f6e6c792023320000000000000000000000604082015260600190565b60208082526014908201527f63616c6c20746f206e6f6e2d636f6e7472616374000000000000000000000000604082015260600190565b6020808252601e908201527f536166654d6174683a207375627472616374696f6e206f766572666c6f770000604082015260600190565b6020808252601a908201527f536166654d6174683a206469766973696f6e206279207a65726f000000000000604082015260600190565b60208082526021908201527f536166654d6174683a206d756c7469706c69636174696f6e206f766572666c6f60408201527f7700000000000000000000000000000000000000000000000000000000000000606082015260800190565b6020808252818101527f4f776e61626c653a2063616c6c6572206973206e6f7420746865206f776e6572604082015260600190565b6020808252600d908201527f4f72646572206578706972656400000000000000000000000000000000000000604082015260600190565b6020808252601d908201527f507269636520686173206e6f7420686974206c696d6974207072696365000000604082015260600190565b60208082526018908201527f5357462068617320616c7265616479206265656e207365740000000000000000604082015260600190565b60208082526016908201527f496e636f727265637420736d6172742077616c6c657400000000000000000000604082015260600190565b6020808252818101527f4f6e6c7920657865637574652066726f6d20746865206f7264657220626f6f6b604082015260600190565b9051815260200190565b90815260200190565b60405181810167ffffffffffffffff81118282101715611b1e57600080fd5b604052919050565b6002811061037b57fe5b6001600160a01b038116811461037b57600080fd5b801515811461037b57600080fdfea2646970667358221220441e8b40c31509e33fbf7e4e7aa65ece669135de1c8b765b9110924f0dc0aee764736f6c63430006090033",
  "linkReferences": {},
  "deployedLinkReferences": {}
}