{
  "_format": "hh-sol-artifact-1",
  "contractName": "SmartWalletFactory",
  "sourceName": "contracts/SmartWallet.sol",
  "abi": [
    {
      "inputs": [
        {
          "internalType": "address",
          "name": "_addr",
          "type": "address"
        }
      ],
      "stateMutability": "nonpayable",
      "type": "constructor"
    },
    {
      "anonymous": false,
      "inputs": [
        {
          "indexed": true,
          "internalType": "address",
          "name": "owner",
          "type": "address"
        },
        {
          "indexed": true,
          "internalType": "address",
          "name": "smartWallet",
          "type": "address"
        }
      ],
      "name": "Created",
      "type": "event"
    },
    {
      "inputs": [],
      "name": "LimitOrderBook",
      "outputs": [
        {
          "internalType": "address",
          "name": "",
          "type": "address"
        }
      ],
      "stateMutability": "view",
      "type": "function"
    },
    {
      "inputs": [],
      "name": "getChainID",
      "outputs": [
        {
          "internalType": "uint256",
          "name": "",
          "type": "uint256"
        }
      ],
      "stateMutability": "pure",
      "type": "function"
    },
    {
      "inputs": [
        {
          "internalType": "address",
          "name": "",
          "type": "address"
        }
      ],
      "name": "getSmartWallet",
      "outputs": [
        {
          "internalType": "address",
          "name": "",
          "type": "address"
        }
      ],
      "stateMutability": "view",
      "type": "function"
    },
    {
      "inputs": [],
      "name": "spawn",
      "outputs": [
        {
          "internalType": "address",
          "name": "smartWallet",
          "type": "address"
        }
      ],
      "stateMutability": "nonpayable",
      "type": "function"
    }
  ],
  "bytecode": "0x608060405234801561001057600080fd5b50604051612c56380380612c5683398101604081905261002f91610054565b600180546001600160a01b0319166001600160a01b0392909216919091179055610082565b600060208284031215610065578081fd5b81516001600160a01b038116811461007b578182fd5b9392505050565b612bc5806100916000396000f3fe608060405234801561001057600080fd5b506004361061004c5760003560e01c8063564b81ef14610051578063971b05211461006f578063a0b7388114610084578063b547aeda14610097575b600080fd5b61005961009f565b6040516100669190610477565b60405180910390f35b6100776100a3565b604051610066919061042c565b6100776100923660046103ce565b6100b2565b6100776100cd565b4690565b6001546001600160a01b031681565b6000602081905290815260409020546001600160a01b031681565b336000908152602081905260408120546001600160a01b031615610126576040517f08c379a000000000000000000000000000000000000000000000000000000000815260040161011d90610440565b60405180910390fd5b606060405180602001610138906103c1565b6020820181038252601f19601f82011660405250905060003360405160200161016191906103fc565b604051602081830303815290604052805190602001209050808251602084016000f56040519093506001600160a01b0384169033907f587ece4cd19692c5be1a4184503d607d45542d2aca0698c0068f52e09ccb541c90600090a36001546040517f9a1598c80000000000000000000000000000000000000000000000000000000081526001600160a01b0385811692639a1598c892610207929091169060040161042c565b600060405180830381600087803b15801561022157600080fd5b505af1158015610235573d6000803e3d6000fd5b50506040517f5bb478080000000000000000000000000000000000000000000000000000000081526001600160a01b0386169250635bb47808915061027e90309060040161042c565b600060405180830381600087803b15801561029857600080fd5b505af11580156102ac573d6000803e3d6000fd5b50505050826001600160a01b031663380d0c086040518163ffffffff1660e01b8152600401600060405180830381600087803b1580156102eb57600080fd5b505af11580156102ff573d6000803e3d6000fd5b50506040517ff2fde38b0000000000000000000000000000000000000000000000000000000081526001600160a01b038616925063f2fde38b915061034890339060040161042c565b600060405180830381600087803b15801561036257600080fd5b505af1158015610376573d6000803e3d6000fd5b505033600090815260208190526040902080547fffffffffffffffffffffffff0000000000000000000000000000000000000000166001600160a01b03871617905550929392505050565b61270f8061048183390190565b6000602082840312156103df578081fd5b81356001600160a01b03811681146103f5578182fd5b9392505050565b60609190911b7fffffffffffffffffffffffffffffffffffffffff00000000000000000000000016815260140190565b6001600160a01b0391909116815260200190565b60208082526018908201527f416c72656164792068617320736d6172742077616c6c65740000000000000000604082015260600190565b9081526020019056fe608060405234801561001057600080fd5b5060006100246001600160e01b0361007316565b600080546001600160a01b0319166001600160a01b0383169081178255604051929350917f8be0079c531659141344cd1fd0a4f28419497f9722a3daafe3b4186f6b6457e0908290a350610077565b3390565b612689806100866000396000f3fe608060405234801561001057600080fd5b50600436106100a35760003560e01c806394f6113411610076578063bca8c7b51161005b578063bca8c7b51461011e578063cca9dfa91461013e578063f2fde38b1461015e576100a3565b806394f61134146100eb5780639a1598c81461010b576100a3565b8063380d0c08146100a85780635bb47808146100b2578063715018a6146100c55780638da5cb5b146100cd575b600080fd5b6100b0610171565b005b6100b06100c0366004611d59565b61036f565b6100b06103d0565b6100d5610466565b6040516100e29190612089565b60405180910390f35b6100fe6100f9366004611ffe565b610475565b6040516100e291906120e4565b6100b0610119366004611d59565b610725565b61013161012c366004611e0a565b61077d565b6040516100e291906120ef565b61015161014c366004611f3e565b610864565b6040516100e291906125fa565b6100b061016c366004611d59565b610897565b600260009054906101000a90046001600160a01b03166001600160a01b031663564b81ef6040518163ffffffff1660e01b815260040160206040518083038186803b1580156101bf57600080fd5b505afa1580156101d3573d6000803e3d6000fd5b505050506040513d601f19601f820116820180604052508101906101f79190612016565b6064141561036d576040517f095ea7b300000000000000000000000000000000000000000000000000000000815273ddafbb505ad214d7b80b1f830fccc89b60fb7a839063095ea7b39061026790735d9593586b4b5edbd23e7eba8d88fd8f09d83ebd906000199060040161209d565b602060405180830381600087803b15801561028157600080fd5b505af1158015610295573d6000803e3d6000fd5b505050506040513d601f19601f820116820180604052508101906102b99190611e88565b506001546040517f095ea7b300000000000000000000000000000000000000000000000000000000815273ddafbb505ad214d7b80b1f830fccc89b60fb7a839163095ea7b391610319916001600160a01b0316906000199060040161209d565b602060405180830381600087803b15801561033357600080fd5b505af1158015610347573d6000803e3d6000fd5b505050506040513d601f19601f8201168201806040525081019061036b9190611e88565b505b565b6002546001600160a01b0316156103a15760405162461bcd60e51b815260040161039890612557565b60405180910390fd5b6002805473ffffffffffffffffffffffffffffffffffffffff19166001600160a01b0392909216919091179055565b6103d8610964565b6001600160a01b03166103e9610466565b6001600160a01b03161461040f5760405162461bcd60e51b815260040161039890612457565b600080546040516001600160a01b03909116907f8be0079c531659141344cd1fd0a4f28419497f9722a3daafe3b4186f6b6457e0908390a36000805473ffffffffffffffffffffffffffffffffffffffff19169055565b6000546001600160a01b031690565b6001546000906001600160a01b031633146104a25760405162461bcd60e51b8152600401610398906125c5565b6104e16040518060400160405280600d81526020017f2d2d53573a204f7264657220230000000000000000000000000000000000000081525083610968565b600154604051634c5789e360e01b81526000918291829182916001600160a01b0390911690634c5789e39061051a908990600401612604565b60c06040518083038186803b15801561053257600080fd5b505afa158015610546573d6000803e3d6000fd5b505050506040513d601f19601f8201168201806040525081019061056a9190611d91565b6002546040517fa0b73881000000000000000000000000000000000000000000000000000000008152959a509398509096509450309350506001600160a01b03169063a0b73881906105c0908890600401612089565b60206040518083038186803b1580156105d857600080fd5b505afa1580156105ec573d6000803e3d6000fd5b505050506040513d601f19601f820116820180604052508101906106109190611d75565b6001600160a01b0316146106365760405162461bcd60e51b81526004016103989061258e565b80158061064257508042105b61065e5760405162461bcd60e51b81526004016103989061248c565b8161067b5760405162461bcd60e51b8152600401610398906121e5565b600183600581111561068957fe5b14156106a357610698866109df565b945050505050610720565b60028360058111156106b157fe5b14156106c05761069886610ee3565b60038360058111156106ce57fe5b14156106dd576106988661134a565b60048360058111156106eb57fe5b14156106fa5761069886610ee3565b600583600581111561070857fe5b1415610717576106988661134a565b60009450505050505b919050565b6001546001600160a01b03161561074e5760405162461bcd60e51b8152600401610398906121ae565b6001805473ffffffffffffffffffffffffffffffffffffffff19166001600160a01b0392909216919091179055565b6060610787610964565b6001600160a01b0316610798610466565b6001600160a01b0316146107be5760405162461bcd60e51b815260040161039890612457565b6107c784611873565b6107e35760405162461bcd60e51b815260040161039890612355565b60006060856001600160a01b03168585604051610801929190612079565b6000604051808303816000865af19150503d806000811461083e576040519150601f19603f3d011682016040523d82523d6000602084013e610843565b606091505b5090925090508161085b576040513d806000833e8082fd5b95945050505050565b61086c611c9e565b61087c838363ffffffff61187916565b60000b60011461088c578261088e565b815b90505b92915050565b61089f610964565b6001600160a01b03166108b0610466565b6001600160a01b0316146108d65760405162461bcd60e51b815260040161039890612457565b6001600160a01b0381166108fc5760405162461bcd60e51b81526004016103989061221c565b600080546040516001600160a01b03808516939216917f8be0079c531659141344cd1fd0a4f28419497f9722a3daafe3b4186f6b6457e091a36000805473ffffffffffffffffffffffffffffffffffffffff19166001600160a01b0392909216919091179055565b3390565b6109db828260405160240161097e92919061218c565b60408051601f198184030181529190526020810180517bffffffffffffffffffffffffffffffffffffffffffffffffffffffff167f9710a9d0000000000000000000000000000000000000000000000000000000001790526118aa565b5050565b60006109e9611c9e565b6109f1611c9e565b6109f9611c9e565b610a01611c9e565b610a09611c9e565b60015460405163038da8b760e61b81526001600160a01b039091169063e36a2dc090610a39908a90600401612604565b60e06040518083038186803b158015610a5157600080fd5b505afa158015610a65573d6000803e3d6000fd5b505050506040513d601f19601f82011682018060405250810190610a899190611f72565b50600154604051634c5789e360e01b8152959b50939950919750955093506000925082916001600160a01b0390911690634c5789e390610acd908c90600401612604565b60c06040518083038186803b158015610ae557600080fd5b505afa158015610af9573d6000803e3d6000fd5b505050506040513d601f19601f82011682018060405250810190610b1d9190611d91565b505093505050915060008090508115610b3d57610b3a83886118cb565b90505b6000610b4888611a66565b610b53576001610b56565b60005b9050610b60611c9e565b846001600160a01b031663dc76fabc6040518163ffffffff1660e01b815260040160206040518083038186803b158015610b9957600080fd5b505afa158015610bad573d6000803e3d6000fd5b505050506040513d601f19601f82011682018060405250810190610bd19190611f23565b9050600082610be257600019610be5565b60015b600f0b610bf88c8463ffffffff61187916565b60000b1490508015610eb857610c0c611c9e565b610c158b611a84565b9050610c1f611c9e565b876001600160a01b031663da0c592786610c3a576000610c3d565b60015b846040518363ffffffff1660e01b8152600401610c5b929190612171565b60206040518083038186803b158015610c7357600080fd5b505afa158015610c87573d6000803e3d6000fd5b505050506040513d601f19601f82011682018060405250810190610cab9190611f23565b9050610cb689611ab2565b15610d0a5784610ce557604080516020810190915260018152610ce0908a9063ffffffff611ab616565b610d05565b604080516020810190915260018152610d05908a9063ffffffff611ae216565b610d0c565b885b9850610d27610d21828d63ffffffff611b0516565b8b610864565b99507f4941de5e673640f9e84addc3e999d06b1fbb1b2760106594b9f81cbf5e0ac78f8886610d57576001610d5a565b60005b610d638e611ab2565b610d6c8e611ab2565b610d758e611ab2565b604051610d869594939291906120b6565b60405180910390a18515610e3157610da4828e63ffffffff611b2816565b9850610dbe610db1611b4b565b8a9063ffffffff611ae216565b604051632a306c2f60e21b8152909950735d9593586b4b5edbd23e7eba8d88fd8f09d83ebd9063a8c1b0bc90610dfa908b908d90600401612157565b600060405180830381600087803b158015610e1457600080fd5b505af1158015610e28573d6000803e3d6000fd5b50505050610eb1565b735d9593586b4b5edbd23e7eba8d88fd8f09d83ebd63893d242d8987610e58576001610e5b565b60005b8e8e8e6040518663ffffffff1660e01b8152600401610e7e95949392919061211c565b600060405180830381600087803b158015610e9857600080fd5b505af1158015610eac573d6000803e3d6000fd5b505050505b5050610ed0565b60405162461bcd60e51b8152600401610398906124c3565b5060019c9b505050505050505050505050565b6000610eed611c9e565b610ef5611c9e565b610efd611c9e565b610f05611c9e565b610f0d611c9e565b60015460405163038da8b760e61b81526001600160a01b039091169063e36a2dc090610f3d908a90600401612604565b60e06040518083038186803b158015610f5557600080fd5b505afa158015610f69573d6000803e3d6000fd5b505050506040513d601f19601f82011682018060405250810190610f8d9190611f72565b50600154604051634c5789e360e01b8152969b50939950919750955093506000928392506001600160a01b0390911690634c5789e390610fd1908c90600401612604565b60c06040518083038186803b158015610fe957600080fd5b505afa158015610ffd573d6000803e3d6000fd5b505050506040513d601f19601f820116820180604052508101906110219190611d91565b5050935050509150600080905081156110415761103e83886118cb565b90505b600061104c88611a66565b61105757600161105a565b60005b9050611064611c9e565b846001600160a01b031663dc76fabc6040518163ffffffff1660e01b815260040160206040518083038186803b15801561109d57600080fd5b505afa1580156110b1573d6000803e3d6000fd5b505050506040513d601f19601f820116820180604052508101906110d59190611f23565b90506000826110e6576000196110e9565b60015b600f0b6110fc838d63ffffffff61187916565b60000b149050801561133257611110611c9e565b6111198b611a84565b9050611123611c9e565b876001600160a01b031663da0c59278661113e576000611141565b60015b846040518363ffffffff1660e01b815260040161115f929190612171565b60206040518083038186803b15801561117757600080fd5b505afa15801561118b573d6000803e3d6000fd5b505050506040513d601f19601f820116820180604052508101906111af9190611f23565b90506111ba89611ab2565b1561120e57846111e9576040805160208101909152600181526111e4908a9063ffffffff611ab616565b611209565b604080516020810190915260018152611209908a9063ffffffff611ae216565b611210565b885b9850611225610d21828d63ffffffff611b0516565b99507f4941de5e673640f9e84addc3e999d06b1fbb1b2760106594b9f81cbf5e0ac78f8886611255576001611258565b60005b6112618e611ab2565b61126a8e611ab2565b6112738e611ab2565b6040516112849594939291906120b6565b60405180910390a185156112d65760408051602081018252600081529051632a306c2f60e21b8152735d9593586b4b5edbd23e7eba8d88fd8f09d83ebd9163a8c1b0bc91610dfa918c91600401612157565b735d9593586b4b5edbd23e7eba8d88fd8f09d83ebd63893d242d89876112fd576001611300565b60005b8e8e604051806020016040528060008152506040518663ffffffff1660e01b8152600401610e7e95949392919061211c565b60405162461bcd60e51b8152600401610398906122b0565b6000611354611c9e565b61135c611c9e565b611364611c9e565b61136c611c9e565b611374611c9e565b61137c611c9e565b60015460405163038da8b760e61b81526001600160a01b039091169063e36a2dc0906113ac908b90600401612604565b60e06040518083038186803b1580156113c457600080fd5b505afa1580156113d8573d6000803e3d6000fd5b505050506040513d601f19601f820116820180604052508101906113fc9190611f72565b50600154604051634c5789e360e01b8152969c50949a509298509096509450925060009182916001600160a01b031690634c5789e390611440908d90600401612604565b60c06040518083038186803b15801561145857600080fd5b505afa15801561146c573d6000803e3d6000fd5b505050506040513d601f19601f820116820180604052508101906114909190611d91565b5050935050509150600080905081156114b0576114ad83886118cb565b90505b60006114bb88611a66565b6114c65760016114c9565b60005b90506114d3611c9e565b846001600160a01b031663dc76fabc6040518163ffffffff1660e01b815260040160206040518083038186803b15801561150c57600080fd5b505afa158015611520573d6000803e3d6000fd5b505050506040513d601f19601f820116820180604052508101906115449190611f23565b905060008261155557600019611558565b60015b600f0b61156b8c8463ffffffff61187916565b60000b14801561159e57508261158357600019611586565b60015b600f0b611599838e63ffffffff61187916565b60000b145b90508015611847576115ae611c9e565b6115b78b611a84565b90506115c1611c9e565b876001600160a01b031663da0c5927866115dc5760006115df565b60015b846040518363ffffffff1660e01b81526004016115fd929190612171565b60206040518083038186803b15801561161557600080fd5b505afa158015611629573d6000803e3d6000fd5b505050506040513d601f19601f8201168201806040525081019061164d9190611f23565b905061165889611ab2565b156116ac578461168757604080516020810190915260018152611682908a9063ffffffff611ab616565b6116a7565b6040805160208101909152600181526116a7908a9063ffffffff611ae216565b6116ae565b885b98506116c3610d21828d63ffffffff611b0516565b99507f4941de5e673640f9e84addc3e999d06b1fbb1b2760106594b9f81cbf5e0ac78f88866116f35760016116f6565b60005b6116ff8e611ab2565b6117088e611ab2565b6117118e611ab2565b6040516117229594939291906120b6565b60405180910390a185156117c057611740828e63ffffffff611b2816565b985061174d610db1611b4b565b604051632a306c2f60e21b8152909950735d9593586b4b5edbd23e7eba8d88fd8f09d83ebd9063a8c1b0bc90611789908b908d90600401612157565b600060405180830381600087803b1580156117a357600080fd5b505af11580156117b7573d6000803e3d6000fd5b50505050611840565b735d9593586b4b5edbd23e7eba8d88fd8f09d83ebd63893d242d89876117e75760016117ea565b60005b8e8e8e6040518663ffffffff1660e01b815260040161180d95949392919061211c565b600060405180830381600087803b15801561182757600080fd5b505af115801561183b573d6000803e3d6000fd5b505050505b505061185f565b60405162461bcd60e51b8152600401610398906124fa565b5060019d9c50505050505050505050505050565b3b151590565b80518251600091101561188e57506001610891565b8151835110156118a15750600019610891565b50600092915050565b80516a636f6e736f6c652e6c6f67602083016000808483855afa5050505050565b60006118d5611cb1565b6040517fb33dc190000000000000000000000000000000000000000000000000000000008152735d9593586b4b5edbd23e7eba8d88fd8f09d83ebd9063b33dc190906119279087903090600401612102565b60c06040518083038186803b15801561193f57600080fd5b505afa158015611953573d6000803e3d6000fd5b505050506040513d601f19601f820116820180604052508101906119779190611ea8565b9050611981611c9e565b50805161198d81611a66565b151561199885611a66565b151514611a46576119a884611a66565b156119e9576119ce6119b982611a84565b6119c286611a84565b9063ffffffff61187916565b60000b600114156119e457600192505050610891565b611a14565b6119fe6119f585611a84565b6119c283611a84565b60000b60011415611a1457600192505050610891565b611a25611a2085611a84565b611ab2565b611a415760405162461bcd60e51b815260040161039890612279565b611a5e565b60405162461bcd60e51b81526004016103989061231e565b505092915050565b60008082600001511215611a7c57506001610720565b506000919050565b611a8c611c9e565b611a94611c9e565b825160001315611aaa5782516000038152610891565b915182525090565b5190565b611abe611c9e565b611ac6611c9e565b82518451611ad99163ffffffff611b6f16565b81529392505050565b611aea611c9e565b611af2611c9e565b82518451611ad99163ffffffff611b9416565b611b0d611c9e565b611b15611c9e565b82518451611ad99163ffffffff611bbc16565b611b30611c9e565b611b38611c9e565b82518451611ad99163ffffffff611bca16565b611b53611c9e565b6040518060200160405280611b686012611bd8565b9052905090565b60008282018381101561088e5760405162461bcd60e51b8152600401610398906122e7565b600082821115611bb65760405162461bcd60e51b81526004016103989061238c565b50900390565b600061088e83836012611be1565b600061088e83836012611c14565b60ff16600a0a90565b6000611c0c83611c00611bf385611bd8565b879063ffffffff611c3216565b9063ffffffff611c6c16565b949350505050565b6000611c0c611c2283611bd8565b611c00868663ffffffff611c3216565b600082611c4157506000610891565b82820282848281611c4e57fe5b041461088e5760405162461bcd60e51b8152600401610398906123fa565b6000808211611c8d5760405162461bcd60e51b8152600401610398906123c3565b818381611c9657fe5b049392505050565b6040518060200160405280600081525090565b6040518060c00160405280611cc4611c9e565b8152602001611cd1611c9e565b8152602001611cde611c9e565b8152602001611ceb611c9e565b815260200160008152602001600081525090565b8051801515811461089157600080fd5b600060208284031215611d20578081fd5b611d2a602061260d565b9135825250919050565b600060208284031215611d45578081fd5b611d4f602061260d565b9151825250919050565b600060208284031215611d6a578081fd5b813561088e8161263e565b600060208284031215611d86578081fd5b815161088e8161263e565b60008060008060008060c08789031215611da9578182fd5b8651611db48161263e565b6020880151909650611dc58161263e565b604088015190955060068110611dd9578283fd5b9350611de88860608901611cff565b9250611df78860808901611cff565b915060a087015190509295509295509295565b600080600060408486031215611e1e578283fd5b8335611e298161263e565b9250602084013567ffffffffffffffff80821115611e45578384fd5b81860187601f820112611e56578485fd5b8035925081831115611e66578485fd5b876020848301011115611e77578485fd5b949760209095019650909450505050565b600060208284031215611e99578081fd5b8151801515811461088e578182fd5b600060c08284031215611eb9578081fd5b611ec360c061260d565b611ecd8484611d34565b8152611edc8460208501611d34565b6020820152611eee8460408501611d34565b6040820152611f008460608501611d34565b60608201526080830151608082015260a083015160a08201528091505092915050565b600060208284031215611f34578081fd5b61088e8383611d34565b60008060408385031215611f50578182fd5b611f5a8484611d0f565b9150611f698460208501611d0f565b90509250929050565b600080600080600080600060e0888a031215611f8c578081fd5b611f968989611d34565b9650611fa58960208a01611d34565b9550611fb48960408a01611d34565b9450611fc38960608a01611d34565b9350611fd28960808a01611d34565b9250611fe18960a08a01611d34565b9150611ff08960c08a01611d34565b905092959891949750929550565b60006020828403121561200f578081fd5b5035919050565b600060208284031215612027578081fd5b5051919050565b60008151808452815b8181101561205357602081850181015186830182015201612037565b818111156120645782602083870101525b50601f01601f19169290920160200192915050565b6000828483379101908152919050565b6001600160a01b0391909116815260200190565b6001600160a01b03929092168252602082015260400190565b6001600160a01b03959095168552602085019390935260408401919091526060830152608082015260a00190565b901515815260200190565b60006020825261088e602083018461202e565b6001600160a01b0392831681529116602082015260400190565b6001600160a01b038616815260a0810161213586612634565b6020820195909552925160408401529051606083015251608090910152919050565b6001600160a01b0392909216825251602082015260400190565b6040810161217e84612634565b928152905160209091015290565b60006040825261219f604083018561202e565b90508260208301529392505050565b60208082526018908201527f4c4f422068617320616c7265616479206265656e207365740000000000000000604082015260600190565b60208082526015908201527f4f72646572206e6f206c6f6e6765722076616c69640000000000000000000000604082015260600190565b60208082526026908201527f4f776e61626c653a206e6577206f776e657220697320746865207a65726f206160408201527f6464726573730000000000000000000000000000000000000000000000000000606082015260800190565b60208082526015908201527f696e76616c6964207265647563654f6e6c792023310000000000000000000000604082015260600190565b6020808252601c908201527f507269636520686173206e6f74206869742073746f7020707269636500000000604082015260600190565b6020808252601b908201527f536166654d6174683a206164646974696f6e206f766572666c6f770000000000604082015260600190565b60208082526015908201527f696e76616c6964207265647563654f6e6c792023320000000000000000000000604082015260600190565b60208082526014908201527f63616c6c20746f206e6f6e2d636f6e7472616374000000000000000000000000604082015260600190565b6020808252601e908201527f536166654d6174683a207375627472616374696f6e206f766572666c6f770000604082015260600190565b6020808252601a908201527f536166654d6174683a206469766973696f6e206279207a65726f000000000000604082015260600190565b60208082526021908201527f536166654d6174683a206d756c7469706c69636174696f6e206f766572666c6f60408201527f7700000000000000000000000000000000000000000000000000000000000000606082015260800190565b6020808252818101527f4f776e61626c653a2063616c6c6572206973206e6f7420746865206f776e6572604082015260600190565b6020808252600d908201527f4f72646572206578706972656400000000000000000000000000000000000000604082015260600190565b6020808252601d908201527f507269636520686173206e6f7420686974206c696d6974207072696365000000604082015260600190565b60208082526021908201527f507269636520686173206e6f74206869742073746f706c696d6974207072696360408201527f6500000000000000000000000000000000000000000000000000000000000000606082015260800190565b60208082526018908201527f5357462068617320616c7265616479206265656e207365740000000000000000604082015260600190565b60208082526016908201527f496e636f727265637420736d6172742077616c6c657400000000000000000000604082015260600190565b6020808252818101527f4f6e6c7920657865637574652066726f6d20746865206f7264657220626f6f6b604082015260600190565b9051815260200190565b90815260200190565b60405181810167ffffffffffffffff8111828210171561262c57600080fd5b604052919050565b6002811061036b57fe5b6001600160a01b038116811461036b57600080fdfea2646970667358221220aa30d9b6ae6c4dd02f89359ae631374da0ad977ca92b208312a8c4215156b9e564736f6c63430006090033a2646970667358221220622a472a0309fd986fa4a5fda35c86ed7b793c8c640b8c1ca0fc999b46f86a9e64736f6c63430006090033",
  "linkReferences": {},
  "deployedLinkReferences": {}
}