{
  "_format": "hh-sol-artifact-1",
  "contractName": "SmartWalletFactory",
  "sourceName": "contracts/SmartWallet.sol",
  "abi": [
    {
      "inputs": [
        {
          "internalType": "address",
          "name": "_addr",
          "type": "address"
        }
      ],
      "stateMutability": "nonpayable",
      "type": "constructor"
    },
    {
      "anonymous": false,
      "inputs": [
        {
          "indexed": true,
          "internalType": "address",
          "name": "owner",
          "type": "address"
        },
        {
          "indexed": true,
          "internalType": "address",
          "name": "smartWallet",
          "type": "address"
        }
      ],
      "name": "Created",
      "type": "event"
    },
    {
      "inputs": [],
      "name": "LimitOrderBook",
      "outputs": [
        {
          "internalType": "address",
          "name": "",
          "type": "address"
        }
      ],
      "stateMutability": "view",
      "type": "function"
    },
    {
      "inputs": [
        {
          "internalType": "address",
          "name": "",
          "type": "address"
        }
      ],
      "name": "getSmartWallet",
      "outputs": [
        {
          "internalType": "address",
          "name": "",
          "type": "address"
        }
      ],
      "stateMutability": "view",
      "type": "function"
    },
    {
      "inputs": [],
      "name": "spawn",
      "outputs": [
        {
          "internalType": "address",
          "name": "smartWallet",
          "type": "address"
        }
      ],
      "stateMutability": "nonpayable",
      "type": "function"
    }
  ],
  "bytecode": "0x608060405234801561001057600080fd5b506040516132b73803806132b783398101604081905261002f91610054565b600180546001600160a01b0319166001600160a01b0392909216919091179055610082565b600060208284031215610065578081fd5b81516001600160a01b038116811461007b578182fd5b9392505050565b613226806100916000396000f3fe608060405234801561001057600080fd5b50600436106100415760003560e01c8063971b052114610046578063a0b7388114610064578063b547aeda14610077575b600080fd5b61004e61007f565b60405161005b91906103b5565b60405180910390f35b61004e610072366004610357565b61008e565b61004e6100a9565b6001546001600160a01b031681565b6000602081905290815260409020546001600160a01b031681565b336000908152602081905260408120546001600160a01b031615610102576040517f08c379a00000000000000000000000000000000000000000000000000000000081526004016100f9906103c9565b60405180910390fd5b6060604051806020016101149061034a565b6020820181038252601f19601f82011660405250905060003360405160200161013d9190610385565b604051602081830303815290604052805190602001209050808251602084016000f56040519093506001600160a01b0384169033907f587ece4cd19692c5be1a4184503d607d45542d2aca0698c0068f52e09ccb541c90600090a36001546040517f9a1598c80000000000000000000000000000000000000000000000000000000081526001600160a01b0385811692639a1598c8926101e392909116906004016103b5565b600060405180830381600087803b1580156101fd57600080fd5b505af1158015610211573d6000803e3d6000fd5b50506040517f5bb478080000000000000000000000000000000000000000000000000000000081526001600160a01b0386169250635bb47808915061025a9030906004016103b5565b600060405180830381600087803b15801561027457600080fd5b505af1158015610288573d6000803e3d6000fd5b50506040517ff2fde38b0000000000000000000000000000000000000000000000000000000081526001600160a01b038616925063f2fde38b91506102d19033906004016103b5565b600060405180830381600087803b1580156102eb57600080fd5b505af11580156102ff573d6000803e3d6000fd5b505033600090815260208190526040902080547fffffffffffffffffffffffff0000000000000000000000000000000000000000166001600160a01b03871617905550929392505050565b612df08061040183390190565b600060208284031215610368578081fd5b81356001600160a01b038116811461037e578182fd5b9392505050565b60609190911b7fffffffffffffffffffffffffffffffffffffffff00000000000000000000000016815260140190565b6001600160a01b0391909116815260200190565b60208082526018908201527f416c72656164792068617320736d6172742077616c6c6574000000000000000060408201526060019056fe608060405234801561001057600080fd5b5060006100246001600160e01b0361007316565b600080546001600160a01b0319166001600160a01b0383169081178255604051929350917f8be0079c531659141344cd1fd0a4f28419497f9722a3daafe3b4186f6b6457e0908290a350610077565b3390565b612d6980620000876000396000f3fe608060405234801561001057600080fd5b50600436106100d45760003560e01c80639a1598c811610081578063cca9dfa91161005b578063cca9dfa91461018a578063f2fde38b146101aa578063f9d8e3c7146101bd576100d4565b80639a1598c81461014f578063bca8c7b514610162578063c45a015514610182576100d4565b8063715018a6116100b2578063715018a61461011f5780638da5cb5b1461012757806394f611341461012f576100d4565b80633dbd33ee146100d95780635b6a8b43146100f75780635bb478081461010c575b600080fd5b6100e16101d0565b6040516100ee919061260f565b60405180910390f35b61010a6101053660046123ad565b6101df565b005b61010a61011a366004612227565b61023b565b61010a610293565b6100e1610329565b61014261013d366004612597565b610338565b6040516100ee9190612656565b61010a61015d366004612227565b6105a9565b6101756101703660046122de565b610601565b6040516100ee9190612661565b6100e16106ca565b61019d6101983660046124c4565b6106d9565b6040516100ee9190612ca0565b61010a6101b8366004612227565b61070c565b61010a6101cb366004612378565b6107d9565b6001546001600160a01b031681565b6101e7610826565b6001600160a01b03166101f8610329565b6001600160a01b0316146102275760405162461bcd60e51b815260040161021e90612a32565b60405180910390fd5b610234858585858561082a565b5050505050565b6002546001600160a01b0316156102645760405162461bcd60e51b815260040161021e90612b32565b6002805473ffffffffffffffffffffffffffffffffffffffff19166001600160a01b0392909216919091179055565b61029b610826565b6001600160a01b03166102ac610329565b6001600160a01b0316146102d25760405162461bcd60e51b815260040161021e90612a32565b600080546040516001600160a01b03909116907f8be0079c531659141344cd1fd0a4f28419497f9722a3daafe3b4186f6b6457e0908390a36000805473ffffffffffffffffffffffffffffffffffffffff19169055565b6000546001600160a01b031690565b6001546000906001600160a01b031633146103655760405162461bcd60e51b815260040161021e90612bd7565b600154604051634c5789e360e01b81526000918291829182916001600160a01b0390911690634c5789e39061039e908990600401612caa565b60c06040518083038186803b1580156103b657600080fd5b505afa1580156103ca573d6000803e3d6000fd5b505050506040513d601f19601f820116820180604052508101906103ee919061225f565b6002546040517fa0b73881000000000000000000000000000000000000000000000000000000008152959a509398509096509450309350506001600160a01b03169063a0b738819061044490889060040161260f565b60206040518083038186803b15801561045c57600080fd5b505afa158015610470573d6000803e3d6000fd5b505050506040513d601f19601f820116820180604052508101906104949190612243565b6001600160a01b0316146104ba5760405162461bcd60e51b815260040161021e90612ba0565b8015806104c657508042105b6104e25760405162461bcd60e51b815260040161021e90612a67565b816104ff5760405162461bcd60e51b815260040161021e9061273d565b600183600581111561050d57fe5b14156105275761051c86610bd9565b9450505050506105a4565b600283600581111561053557fe5b14156105445761051c86610f49565b600383600581111561055257fe5b14156105615761051c866111d4565b600483600581111561056f57fe5b141561057e5761051c86610f49565b600583600581111561058c57fe5b141561059b5761051c866111d4565b60009450505050505b919050565b6001546001600160a01b0316156105d25760405162461bcd60e51b815260040161021e90612706565b6001805473ffffffffffffffffffffffffffffffffffffffff19166001600160a01b0392909216919091179055565b606061060b610826565b6001600160a01b031661061c610329565b6001600160a01b0316146106425760405162461bcd60e51b815260040161021e90612a32565b610654846001600160a01b0316611569565b6106705760405162461bcd60e51b815260040161021e906128d3565b6106c083838080601f016020809104026020016040519081016040528093929190818152602001838380828437600092019190915250506001600160a01b0388169291505063ffffffff61156f16565b90505b9392505050565b6002546001600160a01b031681565b6106e161217c565b6106f1838363ffffffff6115b116565b60000b6001146107015782610703565b815b90505b92915050565b610714610826565b6001600160a01b0316610725610329565b6001600160a01b03161461074b5760405162461bcd60e51b815260040161021e90612a32565b6001600160a01b0381166107715760405162461bcd60e51b815260040161021e906127d1565b600080546040516001600160a01b03808516939216917f8be0079c531659141344cd1fd0a4f28419497f9722a3daafe3b4186f6b6457e091a36000805473ffffffffffffffffffffffffffffffffffffffff19166001600160a01b0392909216919091179055565b6107e1610826565b6001600160a01b03166107f2610329565b6001600160a01b0316146108185760405162461bcd60e51b815260040161021e90612a32565b61082282826115e2565b5050565b3390565b6108686040518060400160405280600d81526020017f4f50454e20504f534954494f4e0000000000000000000000000000000000000081525061195e565b6108b76040518060400160405280600a81526020017f4f524445522053495a45000000000000000000000000000000000000000000008152506108b26108ad876119d2565b611a00565b611a04565b6108f96040518060400160405280600a81526020017f534c4950504147454545000000000000000000000000000000000000000000008152506108b283611a00565b6109376040518060400160405280600381526020017f2d2d2d000000000000000000000000000000000000000000000000000000000081525061195e565b61093f61217c565b61094761217c565b6001600160a01b0387166362267955610966878763ffffffff611a7716565b6040518263ffffffff1660e01b81526004016109829190612ca0565b604080518083038186803b15801561099957600080fd5b505afa1580156109ad573d6000803e3d6000fd5b505050506040513d601f19601f820116820180604052508101906109d191906124e0565b915091506109dd61217c565b6109fd826109f1888663ffffffff611aa316565b9063ffffffff611aa316565b9050610a51735d9593586b4b5edbd23e7eba8d88fd8f09d83ebd64e8d4a51000610a2684611a00565b81610a2d57fe5b73ddafbb505ad214d7b80b1f830fccc89b60fb7a839291900463ffffffff611ac616565b6000610a5c88611be1565b610a67576001610a6a565b60005b9050610a7461217c565b610a7d896119d2565b9050610a8761217c565b8a6001600160a01b031663da0c592784610aa2576000610aa5565b60015b846040518363ffffffff1660e01b8152600401610ac39291906126c9565b60206040518083038186803b158015610adb57600080fd5b505afa158015610aef573d6000803e3d6000fd5b505050506040513d601f19601f82011682018060405250810190610b1391906124a9565b9050610b1d61217c565b50604080516020810190915260018152610b4a610b44826109f1858e63ffffffff611bff16565b8a6106d9565b9850735d9593586b4b5edbd23e7eba8d88fd8f09d83ebd63893d242d8d86610b73576001610b76565b60005b8d8d8d6040518663ffffffff1660e01b8152600401610b99959493929190612674565b600060405180830381600087803b158015610bb357600080fd5b505af1158015610bc7573d6000803e3d6000fd5b50505050505050505050505050505050565b6000610be361217c565b610beb61217c565b610bf361217c565b610bfb61217c565b610c0361217c565b60015460405163038da8b760e61b81526001600160a01b039091169063e36a2dc090610c33908a90600401612caa565b60e06040518083038186803b158015610c4b57600080fd5b505afa158015610c5f573d6000803e3d6000fd5b505050506040513d601f19601f82011682018060405250810190610c83919061250b565b50600154604051634c5789e360e01b8152959b50939950919750955093506000925082916001600160a01b0390911690634c5789e390610cc7908c90600401612caa565b60c06040518083038186803b158015610cdf57600080fd5b505afa158015610cf3573d6000803e3d6000fd5b505050506040513d601f19601f82011682018060405250810190610d17919061225f565b505093505050915060008090508115610d3757610d348388611c22565b90505b6000610d4288611be1565b610d4d576001610d50565b60005b9050610d5a61217c565b846001600160a01b031663dc76fabc6040518163ffffffff1660e01b815260040160206040518083038186803b158015610d9357600080fd5b505afa158015610da7573d6000803e3d6000fd5b505050506040513d601f19601f82011682018060405250810190610dcb91906124a9565b9050600082610ddc57600019610ddf565b60015b600f0b610df28c8463ffffffff6115b116565b60000b1490508015610f1e578315610eed57610e0c61218f565b60405163023aedad60e11b8152735d9593586b4b5edbd23e7eba8d88fd8f09d83ebd90630475db5a90610e45908a903090600401612623565b60c06040518083038186803b158015610e5d57600080fd5b505afa158015610e71573d6000803e3d6000fd5b505050506040513d601f19601f82011682018060405250810190610e95919061242e565b9050610e9f61217c565b508051610eaa61217c565b610ec38e610eb7846119d2565b9063ffffffff611a7716565b9050610ecd61217c565b610ed882888d611db8565b9050610ee48a826115e2565b50505050610f19565b610ef561217c565b610f08610f018c6119d2565b858a611db8565b9050610f17878c8c8c8561082a565b505b610f36565b60405162461bcd60e51b815260040161021e90612a9e565b5060019c9b505050505050505050505050565b6000610f5361217c565b610f5b61217c565b610f6361217c565b610f6b61217c565b60015460405163038da8b760e61b81526001600160a01b039091169063e36a2dc090610f9b908990600401612caa565b60e06040518083038186803b158015610fb357600080fd5b505afa158015610fc7573d6000803e3d6000fd5b505050506040513d601f19601f82011682018060405250810190610feb919061250b565b5050600154604051634c5789e360e01b815295995092975090955093506000928392506001600160a01b0390911690634c5789e39061102e908b90600401612caa565b60c06040518083038186803b15801561104657600080fd5b505afa15801561105a573d6000803e3d6000fd5b505050506040513d601f19601f8201168201806040525081019061107e919061225f565b50509350505091506000809050811561109e5761109b8387611c22565b90505b60006110a987611be1565b6110b45760016110b7565b60005b90506110c161217c565b846001600160a01b031663dc76fabc6040518163ffffffff1660e01b815260040160206040518083038186803b1580156110fa57600080fd5b505afa15801561110e573d6000803e3d6000fd5b505050506040513d601f19601f8201168201806040525081019061113291906124a9565b905060008261114357600019611146565b60015b600f0b611159838c63ffffffff6115b116565b60000b14905080156111aa5783156111895761118486604051806020016040528060008152506115e2565b6111a5565b6111a5868a8a8a6040518060200160405280600081525061082a565b6111c2565b60405162461bcd60e51b815260040161021e9061282e565b5060019b9a5050505050505050505050565b60006111de61217c565b6111e661217c565b6111ee61217c565b6111f661217c565b6111fe61217c565b61120661217c565b60015460405163038da8b760e61b81526001600160a01b039091169063e36a2dc090611236908b90600401612caa565b60e06040518083038186803b15801561124e57600080fd5b505afa158015611262573d6000803e3d6000fd5b505050506040513d601f19601f82011682018060405250810190611286919061250b565b50600154604051634c5789e360e01b8152969c50949a509298509096509450925060009182916001600160a01b031690634c5789e3906112ca908d90600401612caa565b60c06040518083038186803b1580156112e257600080fd5b505afa1580156112f6573d6000803e3d6000fd5b505050506040513d601f19601f8201168201806040525081019061131a919061225f565b50509350505091506000809050811561133a576113378388611c22565b90505b600061134588611be1565b611350576001611353565b60005b905061135d61217c565b846001600160a01b031663dc76fabc6040518163ffffffff1660e01b815260040160206040518083038186803b15801561139657600080fd5b505afa1580156113aa573d6000803e3d6000fd5b505050506040513d601f19601f820116820180604052508101906113ce91906124a9565b90506000826113df576000196113e2565b60015b600f0b6113f58c8463ffffffff6115b116565b60000b14801561142857508261140d57600019611410565b60015b600f0b611423838e63ffffffff6115b116565b60000b145b9050801561153d5783156115135761143e61218f565b60405163023aedad60e11b8152735d9593586b4b5edbd23e7eba8d88fd8f09d83ebd90630475db5a90611477908a903090600401612623565b60c06040518083038186803b15801561148f57600080fd5b505afa1580156114a3573d6000803e3d6000fd5b505050506040513d601f19601f820116820180604052508101906114c7919061242e565b90506114d161217c565b5080516114dc61217c565b6114e98e610eb7846119d2565b90506114f361217c565b6114fe82888d611db8565b905061150a8a826115e2565b50505050611538565b61151b61217c565b611527610f018c6119d2565b9050611536878c8c8c8561082a565b505b611555565b60405162461bcd60e51b815260040161021e90612ad5565b5060019d9c50505050505050505050505050565b3b151590565b606061070383836040518060400160405280601e81526020017f416464726573733a206c6f772d6c6576656c2063616c6c206661696c65640000815250611e50565b8051825160009110156115c657506001610706565b8151835110156115d95750600019610706565b50600092915050565b6116206040518060400160405280600e81526020017f434c4f534520504f534954494f4e00000000000000000000000000000000000081525061195e565b6116626040518060400160405280600881526020017f534c4950504147450000000000000000000000000000000000000000000000008152506108b283611a00565b6116a06040518060400160405280600381526020017f2d2d2d000000000000000000000000000000000000000000000000000000000081525061195e565b6116a861218f565b60405163023aedad60e11b8152735d9593586b4b5edbd23e7eba8d88fd8f09d83ebd90630475db5a906116e19086903090600401612623565b60c06040518083038186803b1580156116f957600080fd5b505afa15801561170d573d6000803e3d6000fd5b505050506040513d601f19601f82011682018060405250810190611731919061242e565b905061173b61217c565b50805161174661217c565b846001600160a01b031663da0c5927600061176085611a00565b1361176c57600161176f565b60005b611778856119d2565b6040518363ffffffff1660e01b81526004016117959291906126c9565b60206040518083038186803b1580156117ad57600080fd5b505afa1580156117c1573d6000803e3d6000fd5b505050506040513d601f19601f820116820180604052508101906117e591906124a9565b90506117ef61217c565b6117f761217c565b6040517f622679550000000000000000000000000000000000000000000000000000000081526001600160a01b0388169063622679559061183c908690600401612ca0565b604080518083038186803b15801561185357600080fd5b505afa158015611867573d6000803e3d6000fd5b505050506040513d601f19601f8201168201806040525081019061188b91906124e0565b9150915061189761217c565b6118a7838363ffffffff611aa316565b90506118d0735d9593586b4b5edbd23e7eba8d88fd8f09d83ebd64e8d4a51000610a2684611a00565b6040517fa8c1b0bc000000000000000000000000000000000000000000000000000000008152735d9593586b4b5edbd23e7eba8d88fd8f09d83ebd9063a8c1b0bc90611922908b908b906004016126af565b600060405180830381600087803b15801561193c57600080fd5b505af1158015611950573d6000803e3d6000fd5b505050505050505050505050565b6119cf816040516024016119729190612661565b60408051601f198184030181529190526020810180517bffffffffffffffffffffffffffffffffffffffffffffffffffffffff167f41304fac00000000000000000000000000000000000000000000000000000000179052611e5f565b50565b6119da61217c565b6119e261217c565b8251600013156119f85782516000038152610706565b915182525090565b5190565b6108228282604051602401611a1a9291906126e4565b60408051601f198184030181529190526020810180517bffffffffffffffffffffffffffffffffffffffffffffffffffffffff167f9710a9d000000000000000000000000000000000000000000000000000000000179052611e5f565b611a7f61217c565b611a8761217c565b82518451611a9a9163ffffffff611e8016565b81529392505050565b611aab61217c565b611ab361217c565b82518451611a9a9163ffffffff611e8e16565b6000611b5682856001600160a01b031663dd62ed3e30876040518363ffffffff1660e01b8152600401611afa929190612623565b60206040518083038186803b158015611b1257600080fd5b505afa158015611b26573d6000803e3d6000fd5b505050506040513d601f19601f82011682018060405250810190611b4a91906125af565b9063ffffffff611e8e16565b9050611bdb8463095ea7b360e01b8584604051602401611b7792919061263d565b60408051601f198184030181529190526020810180517bffffffffffffffffffffffffffffffffffffffffffffffffffffffff167fffffffff0000000000000000000000000000000000000000000000000000000090931692909217909152611eb3565b50505050565b60008082600001511215611bf7575060016105a4565b506000919050565b611c0761217c565b611c0f61217c565b82518451611a9a9163ffffffff611f4716565b6000611c2c61218f565b6040517fb33dc190000000000000000000000000000000000000000000000000000000008152735d9593586b4b5edbd23e7eba8d88fd8f09d83ebd9063b33dc19090611c7e9087903090600401612623565b60c06040518083038186803b158015611c9657600080fd5b505afa158015611caa573d6000803e3d6000fd5b505050506040513d601f19601f82011682018060405250810190611cce919061242e565b9050611cd861217c565b508051611ce76108ad826119d2565b611d035760405162461bcd60e51b815260040161021e90612c69565b611d0c81611be1565b1515611d1785611be1565b151514611d9857611d2784611be1565b15611d6857611d4d611d38826119d2565b611d41866119d2565b9063ffffffff6115b116565b60000b60011415611d6357600192505050610706565b611d93565b611d7d611d74856119d2565b611d41836119d2565b60000b60011415611d9357600192505050610706565b611db0565b60405162461bcd60e51b815260040161021e90612774565b505092915050565b611dc061217c565b611dc861217c565b611de0611dd3611f55565b849063ffffffff6115b116565b60000b60001914611e035760405162461bcd60e51b815260040161021e9061289c565b8315611e2857611e2183611e15611f55565b9063ffffffff611f7916565b9050611e37565b611e34836109f1611f55565b90505b611e47818663ffffffff611a7716565b95945050505050565b60606106c08484600085611f9c565b80516a636f6e736f6c652e6c6f67602083016000808483855afa5050505050565b60006107038383601261205d565b6000828201838110156107035760405162461bcd60e51b815260040161021e90612865565b6060611f08826040518060400160405280602081526020017f5361666545524332303a206c6f772d6c6576656c2063616c6c206661696c6564815250856001600160a01b0316611e509092919063ffffffff16565b805190915015611f425780806020019051810190611f26919061235c565b611f425760405162461bcd60e51b815260040161021e90612c0c565b505050565b600061070383836012612087565b611f5d61217c565b6040518060200160405280611f7260126120a6565b9052905090565b611f8161217c565b611f8961217c565b82518451611a9a9163ffffffff6120af16565b606082471015611fbe5760405162461bcd60e51b815260040161021e90612941565b611fc785611569565b611fe35760405162461bcd60e51b815260040161021e90612b69565b60006060866001600160a01b0316858760405161200091906125f3565b60006040518083038185875af1925050503d806000811461203d576040519150601f19603f3d011682016040523d82523d6000602084013e612042565b606091505b50915091506120528282866120d7565b979650505050505050565b60006106c061206b836120a6565b61207b868663ffffffff61211016565b9063ffffffff61214a16565b60006106c08361207b612099856120a6565b879063ffffffff61211016565b60ff16600a0a90565b6000828211156120d15760405162461bcd60e51b815260040161021e9061290a565b50900390565b606083156120e65750816106c3565b8251156120f65782518084602001fd5b8160405162461bcd60e51b815260040161021e9190612661565b60008261211f57506000610706565b8282028284828161212c57fe5b04146107035760405162461bcd60e51b815260040161021e906129d5565b600080821161216b5760405162461bcd60e51b815260040161021e9061299e565b81838161217457fe5b049392505050565b6040518060200160405280600081525090565b6040518060c001604052806121a261217c565b81526020016121af61217c565b81526020016121bc61217c565b81526020016121c961217c565b815260200160008152602001600081525090565b6000602082840312156121ee578081fd5b6121f86020612cb3565b9135825250919050565b600060208284031215612213578081fd5b61221d6020612cb3565b9151825250919050565b600060208284031215612238578081fd5b813561070381612d10565b600060208284031215612254578081fd5b815161070381612d10565b60008060008060008060c08789031215612277578182fd5b865161228281612d10565b602088015190965061229381612d10565b6040880151909550600681106122a7578283fd5b60608801519094506122b881612d25565b60808801519093506122c981612d25565b8092505060a087015190509295509295509295565b6000806000604084860312156122f2578283fd5b83356122fd81612d10565b9250602084013567ffffffffffffffff80821115612319578384fd5b81860187601f82011261232a578485fd5b803592508183111561233a578485fd5b87602084830101111561234b578485fd5b949760209095019650909450505050565b60006020828403121561236d578081fd5b815161070381612d25565b6000806040838503121561238a578182fd5b823561239581612d10565b91506123a484602085016121dd565b90509250929050565b600080600080600085870360a08112156123c5578182fd5b86356123d081612d10565b95506020601f19820112156123e3578182fd5b506123ee6020612cb3565b60208701358152935061240487604088016121dd565b925061241387606088016121dd565b915061242287608088016121dd565b90509295509295909350565b600060c0828403121561243f578081fd5b61244960c0612cb3565b6124538484612202565b81526124628460208501612202565b60208201526124748460408501612202565b60408201526124868460608501612202565b60608201526080830151608082015260a083015160a08201528091505092915050565b6000602082840312156124ba578081fd5b6107038383612202565b600080604083850312156124d6578182fd5b61239584846121dd565b600080604083850312156124f2578182fd5b6124fc8484612202565b91506123a48460208501612202565b600080600080600080600060e0888a031215612525578485fd5b61252f8989612202565b965061253e8960208a01612202565b955061254d8960408a01612202565b945061255c8960608a01612202565b935061256b8960808a01612202565b925061257a8960a08a01612202565b91506125898960c08a01612202565b905092959891949750929550565b6000602082840312156125a8578081fd5b5035919050565b6000602082840312156125c0578081fd5b5051919050565b600081518084526125df816020860160208601612cda565b601f01601f19169290920160200192915050565b60008251612605818460208701612cda565b9190910192915050565b6001600160a01b0391909116815260200190565b6001600160a01b0392831681529116602082015260400190565b6001600160a01b03929092168252602082015260400190565b901515815260200190565b60006020825261070360208301846125c7565b6001600160a01b038616815260a0810161268d86612d06565b6020820195909552925160408401529051606083015251608090910152919050565b6001600160a01b0392909216825251602082015260400190565b604081016126d684612d06565b928152905160209091015290565b6000604082526126f760408301856125c7565b90508260208301529392505050565b60208082526018908201527f4c4f422068617320616c7265616479206265656e207365740000000000000000604082015260600190565b60208082526015908201527f4f72646572206e6f206c6f6e6765722076616c69640000000000000000000000604082015260600190565b6020808252602d908201527f237265647563654f6e6c793a2063616e6e6f7420696e6372656173652073697a60408201527f65206f6620706f736974696f6e00000000000000000000000000000000000000606082015260800190565b60208082526026908201527f4f776e61626c653a206e6577206f776e657220697320746865207a65726f206160408201527f6464726573730000000000000000000000000000000000000000000000000000606082015260800190565b6020808252601c908201527f507269636520686173206e6f74206869742073746f7020707269636500000000604082015260600190565b6020808252601b908201527f536166654d6174683a206164646974696f6e206f766572666c6f770000000000604082015260600190565b60208082526012908201527f536c697070616765206d75737420626520250000000000000000000000000000604082015260600190565b60208082526014908201527f63616c6c20746f206e6f6e2d636f6e7472616374000000000000000000000000604082015260600190565b6020808252601e908201527f536166654d6174683a207375627472616374696f6e206f766572666c6f770000604082015260600190565b60208082526026908201527f416464726573733a20696e73756666696369656e742062616c616e636520666f60408201527f722063616c6c0000000000000000000000000000000000000000000000000000606082015260800190565b6020808252601a908201527f536166654d6174683a206469766973696f6e206279207a65726f000000000000604082015260600190565b60208082526021908201527f536166654d6174683a206d756c7469706c69636174696f6e206f766572666c6f60408201527f7700000000000000000000000000000000000000000000000000000000000000606082015260800190565b6020808252818101527f4f776e61626c653a2063616c6c6572206973206e6f7420746865206f776e6572604082015260600190565b6020808252600d908201527f4f72646572206578706972656400000000000000000000000000000000000000604082015260600190565b6020808252601d908201527f507269636520686173206e6f7420686974206c696d6974207072696365000000604082015260600190565b60208082526021908201527f507269636520686173206e6f74206869742073746f706c696d6974207072696360408201527f6500000000000000000000000000000000000000000000000000000000000000606082015260800190565b60208082526018908201527f5357462068617320616c7265616479206265656e207365740000000000000000604082015260600190565b6020808252601d908201527f416464726573733a2063616c6c20746f206e6f6e2d636f6e7472616374000000604082015260600190565b60208082526016908201527f496e636f727265637420736d6172742077616c6c657400000000000000000000604082015260600190565b6020808252818101527f4f6e6c7920657865637574652066726f6d20746865206f7264657220626f6f6b604082015260600190565b6020808252602a908201527f5361666545524332303a204552433230206f7065726174696f6e20646964206e60408201527f6f74207375636365656400000000000000000000000000000000000000000000606082015260800190565b6020808252601e908201527f237265647563654f6e6c793a2063757272656e742073697a6520697320300000604082015260600190565b9051815260200190565b90815260200190565b60405181810167ffffffffffffffff81118282101715612cd257600080fd5b604052919050565b60005b83811015612cf5578181015183820152602001612cdd565b83811115611bdb5750506000910152565b600281106119cf57fe5b6001600160a01b03811681146119cf57600080fd5b80151581146119cf57600080fdfea26469706673582212201216e0d5564d7c767298822c54d75191dfcd6f7ea37438d2513d37aa3383c63f64736f6c63430006090033a2646970667358221220ba74bf5a5f38fa1929229756ed757d6b3e065ea58dbe6cd23b988fd8face466a64736f6c63430006090033",
  "linkReferences": {},
  "deployedLinkReferences": {}
}