{
  "_format": "hh-sol-artifact-1",
  "contractName": "SmartWallet",
  "sourceName": "contracts/SmartWallet.sol",
  "abi": [
    {
      "anonymous": false,
      "inputs": [
        {
          "indexed": true,
          "internalType": "address",
          "name": "previousOwner",
          "type": "address"
        },
        {
          "indexed": true,
          "internalType": "address",
          "name": "newOwner",
          "type": "address"
        }
      ],
      "name": "OwnershipTransferred",
      "type": "event"
    },
    {
      "inputs": [],
      "name": "approveAll",
      "outputs": [],
      "stateMutability": "nonpayable",
      "type": "function"
    },
    {
      "inputs": [
        {
          "internalType": "uint256",
          "name": "order_id",
          "type": "uint256"
        }
      ],
      "name": "executeOrder",
      "outputs": [
        {
          "internalType": "bool",
          "name": "",
          "type": "bool"
        }
      ],
      "stateMutability": "nonpayable",
      "type": "function"
    },
    {
      "inputs": [],
      "name": "owner",
      "outputs": [
        {
          "internalType": "address",
          "name": "",
          "type": "address"
        }
      ],
      "stateMutability": "view",
      "type": "function"
    },
    {
      "inputs": [],
      "name": "renounceOwnership",
      "outputs": [],
      "stateMutability": "nonpayable",
      "type": "function"
    },
    {
      "inputs": [
        {
          "internalType": "contract SmartWalletFactory",
          "name": "_addr",
          "type": "address"
        }
      ],
      "name": "setFactory",
      "outputs": [],
      "stateMutability": "nonpayable",
      "type": "function"
    },
    {
      "inputs": [
        {
          "internalType": "address",
          "name": "_addr",
          "type": "address"
        }
      ],
      "name": "setOrderBook",
      "outputs": [],
      "stateMutability": "nonpayable",
      "type": "function"
    },
    {
      "inputs": [
        {
          "internalType": "address",
          "name": "newOwner",
          "type": "address"
        }
      ],
      "name": "transferOwnership",
      "outputs": [],
      "stateMutability": "nonpayable",
      "type": "function"
    }
  ],
  "bytecode": "0x608060405234801561001057600080fd5b5060006100246001600160e01b0361007316565b600080546001600160a01b0319166001600160a01b0383169081178255604051929350917f8be0079c531659141344cd1fd0a4f28419497f9722a3daafe3b4186f6b6457e0908290a350610077565b3390565b611745806100866000396000f3fe608060405234801561001057600080fd5b506004361061007d5760003560e01c80638da5cb5b1161005b5780638da5cb5b146100a757806394f61134146100c55780639a1598c8146100e5578063f2fde38b146100f85761007d565b8063380d0c08146100825780635bb478081461008c578063715018a61461009f575b600080fd5b61008a61010b565b005b61008a61009a3660046110bf565b6101c8565b61008a610229565b6100af6102bf565b6040516100bc91906112d1565b60405180910390f35b6100d86100d336600461126e565b6102ce565b6040516100bc91906112fe565b61008a6100f33660046110bf565b610523565b61008a6101063660046110bf565b61057b565b6040517f095ea7b300000000000000000000000000000000000000000000000000000000815273ddafbb505ad214d7b80b1f830fccc89b60fb7a839063095ea7b39061017390735d9593586b4b5edbd23e7eba8d88fd8f09d83ebd90600019906004016112e5565b602060405180830381600087803b15801561018d57600080fd5b505af11580156101a1573d6000803e3d6000fd5b505050506040513d601f19601f820116820180604052508101906101c59190611176565b50565b6002546001600160a01b0316156101fa5760405162461bcd60e51b81526004016101f19061158a565b60405180910390fd5b6002805473ffffffffffffffffffffffffffffffffffffffff19166001600160a01b0392909216919091179055565b610231610648565b6001600160a01b03166102426102bf565b6001600160a01b0316146102685760405162461bcd60e51b81526004016101f19061151e565b600080546040516001600160a01b03909116907f8be0079c531659141344cd1fd0a4f28419497f9722a3daafe3b4186f6b6457e0908390a36000805473ffffffffffffffffffffffffffffffffffffffff19169055565b6000546001600160a01b031690565b6001546000906001600160a01b031633146102fb5760405162461bcd60e51b81526004016101f1906115f8565b61033a6040518060400160405280600d81526020017f2d2d53573a204f726465722023000000000000000000000000000000000000008152508361064c565b6001546040517f4c5789e30000000000000000000000000000000000000000000000000000000081526000918291829182916001600160a01b0390911690634c5789e39061038c90899060040161162d565b60c06040518083038186803b1580156103a457600080fd5b505afa1580156103b8573d6000803e3d6000fd5b505050506040513d601f19601f820116820180604052508101906103dc91906110f7565b6002546040517fa0b73881000000000000000000000000000000000000000000000000000000008152959a509398509096509450309350506001600160a01b03169063a0b73881906104329088906004016112d1565b60206040518083038186803b15801561044a57600080fd5b505afa15801561045e573d6000803e3d6000fd5b505050506040513d601f19601f8201168201806040525081019061048291906110db565b6001600160a01b0316146104a85760405162461bcd60e51b81526004016101f1906115c1565b8015806104b457508042105b6104d05760405162461bcd60e51b81526004016101f190611553565b816104ed5760405162461bcd60e51b81526004016101f1906113f6565b60018360038111156104fb57fe5b14156105155761050a866106c3565b94505050505061051e565b60009450505050505b919050565b6001546001600160a01b03161561054c5760405162461bcd60e51b81526004016101f1906113bf565b6001805473ffffffffffffffffffffffffffffffffffffffff19166001600160a01b0392909216919091179055565b610583610648565b6001600160a01b03166105946102bf565b6001600160a01b0316146105ba5760405162461bcd60e51b81526004016101f19061151e565b6001600160a01b0381166105e05760405162461bcd60e51b81526004016101f19061142d565b600080546040516001600160a01b03808516939216917f8be0079c531659141344cd1fd0a4f28419497f9722a3daafe3b4186f6b6457e091a36000805473ffffffffffffffffffffffffffffffffffffffff19166001600160a01b0392909216919091179055565b3390565b6106bf828260405160240161066292919061139d565b60408051601f198184030181529190526020810180517bffffffffffffffffffffffffffffffffffffffffffffffffffffffff167f9710a9d000000000000000000000000000000000000000000000000000000000179052610dab565b5050565b60006106cd611087565b6106d5611087565b6106dd611087565b6106e5611087565b6001546040517fe36a2dc00000000000000000000000000000000000000000000000000000000081526001600160a01b039091169063e36a2dc09061072e90899060040161162d565b60e06040518083038186803b15801561074657600080fd5b505afa15801561075a573d6000803e3d6000fd5b505050506040513d601f19601f8201168201806040525081019061077e91906111ad565b50506001546040517f4c5789e300000000000000000000000000000000000000000000000000000000815295995092975090955093506000926001600160a01b039091169150634c5789e3906107d8908a9060040161162d565b60c06040518083038186803b1580156107f057600080fd5b505afa158015610804573d6000803e3d6000fd5b505050506040513d601f19601f8201168201806040525081019061082891906110f7565b50505050509050600061083a85610dcc565b15905061087b6040518060400160405280601181526020017f2d2d4f524445522044455441494c532d2d000000000000000000000000000000815250610dea565b6108ba6040518060400160405280600881526020017f2d2d41737365743a00000000000000000000000000000000000000000000000081525083610e5b565b610939816108fd576040518060400160405280601281526020017f2d2d4f7264657220747970653a2053656c6c0000000000000000000000000000815250610934565b6040518060400160405280601181526020017f2d2d4f7264657220747970653a204275790000000000000000000000000000008152505b610dea565b6109886040518060400160405280600981526020017f2d2d416d6f756e743a000000000000000000000000000000000000000000000081525061098361097e88610ece565b610eff565b61064c565b6109ca6040518060400160405280600e81526020017f2d2d4c696d69742050726963653a00000000000000000000000000000000000081525061098388610eff565b6109eb6040518060600160405280602381526020016116c260239139610dea565b6109f3611087565b826001600160a01b031663dc76fabc6040518163ffffffff1660e01b815260040160206040518083038186803b158015610a2c57600080fd5b505afa158015610a40573d6000803e3d6000fd5b505050506040513d601f19601f82011682018060405250810190610a649190611192565b9050610aa86040518060400160405280601181526020017f2d2d2d43757272656e742070726963653a00000000000000000000000000000081525061098383610eff565b600082610ab757600019610aba565b60015b600f0b610acd898463ffffffff610f0316565b60000b1490508015610d6957610afa60405180606001604052806037815260200161168b60379139610dea565b610b386040518060400160405280601281526020017f2d2d2d2d6f70656e506f736974696f6e28290000000000000000000000000000815250610dea565b610b5e604051806040016040528060048152602001632d2d2d2d60e01b81525085610e5b565b610b91604051806040016040528060048152602001632d2d2d2d60e01b81525084610b8a576001610983565b6000610983565b610b99611087565b610c45610ba589610ece565b866001600160a01b031663da0c592787610bc0576000610bc3565b60015b610bcc8d610ece565b6040518363ffffffff1660e01b8152600401610be9929190611344565b60206040518083038186803b158015610c0157600080fd5b505afa158015610c15573d6000803e3d6000fd5b505050506040513d601f19601f82011682018060405250810190610c399190611192565b9063ffffffff610f3416565b9050610c70604051806040016040528060048152602001632d2d2d2d60e01b81525061098389610eff565b6040805180820190915260048152632d2d2d2d60e01b6020820152610ca29061098361097e848b63ffffffff610f6016565b610cce604051806040016040528060048152602001632d2d2d2d60e01b81525061098361097e8b610ece565b735d9593586b4b5edbd23e7eba8d88fd8f09d83ebd63893d242d8686610cf5576001610cf8565b60005b8a610d09868263ffffffff610f6016565b610d11610f83565b6040518663ffffffff1660e01b8152600401610d31959493929190611309565b600060405180830381600087803b158015610d4b57600080fd5b505af1158015610d5f573d6000803e3d6000fd5b5050505050610d9b565b610d8a6040518060600160405280602b81526020016116e5602b9139610dea565b60009850505050505050505061051e565b5060019998505050505050505050565b80516a636f6e736f6c652e6c6f67602083016000808483855afa5050505050565b60008082600001511215610de25750600161051e565b506000919050565b6101c581604051602401610dfe919061135f565b60408051601f198184030181529190526020810180517bffffffffffffffffffffffffffffffffffffffffffffffffffffffff167f41304fac00000000000000000000000000000000000000000000000000000000179052610dab565b6106bf8282604051602401610e71929190611372565b60408051601f198184030181529190526020810180517bffffffffffffffffffffffffffffffffffffffffffffffffffffffff167f319af33300000000000000000000000000000000000000000000000000000000179052610dab565b610ed6611087565b610ede611087565b825160001315610ef45782516000038152610ef9565b825181525b92915050565b5190565b805182516000911015610f1857506001610ef9565b815183511015610f2b5750600019610ef9565b50600092915050565b610f3c611087565b610f44611087565b82518451610f579163ffffffff610f9e16565b81529392505050565b610f68611087565b610f70611087565b82518451610f579163ffffffff610fb316565b610f8b611087565b5060408051602081019091526000815290565b6000610fac83836012610fc1565b9392505050565b6000610fac83836012610ff3565b6000610feb610fcf83611012565b610fdf868663ffffffff61101b16565b9063ffffffff61105516565b949350505050565b6000610feb83610fdf61100585611012565b879063ffffffff61101b16565b60ff16600a0a90565b60008261102a57506000610ef9565b8282028284828161103757fe5b0414610fac5760405162461bcd60e51b81526004016101f1906114c1565b60008082116110765760405162461bcd60e51b81526004016101f19061148a565b81838161107f57fe5b049392505050565b6040518060200160405280600081525090565b6000602082840312156110ab578081fd5b6110b56020611636565b9151825250919050565b6000602082840312156110d0578081fd5b8135610fac81611667565b6000602082840312156110ec578081fd5b8151610fac81611667565b60008060008060008060c0878903121561110f578182fd5b865161111a81611667565b602088015190965061112b81611667565b60408801519095506004811061113f578283fd5b60608801519094506111508161167c565b60808801519093506111618161167c565b8092505060a087015190509295509295509295565b600060208284031215611187578081fd5b8151610fac8161167c565b6000602082840312156111a3578081fd5b610fac838361109a565b600080600080600080600087890360e08112156111c8578182fd5b6111d28a8a61109a565b97506111e18a60208b0161109a565b965060207fffffffffffffffffffffffffffffffffffffffffffffffffffffffffffffffc082011215611212578182fd5b5061121d6020611636565b6040890151815294506112338960608a0161109a565b93506112428960808a0161109a565b92506112518960a08a0161109a565b91506112608960c08a0161109a565b905092959891949750929550565b60006020828403121561127f578081fd5b5035919050565b60008151808452815b818110156112ab5760208185018101518683018201520161128f565b818111156112bc5782602083870101525b50601f01601f19169290920160200192915050565b6001600160a01b0391909116815260200190565b6001600160a01b03929092168252602082015260400190565b901515815260200190565b6001600160a01b038616815260a081016113228661165d565b6020820195909552925160408401529051606083015251608090910152919050565b604081016113518461165d565b928152905160209091015290565b600060208252610fac6020830184611286565b6000604082526113856040830185611286565b90506001600160a01b03831660208301529392505050565b6000604082526113b06040830185611286565b90508260208301529392505050565b60208082526018908201527f4c4f422068617320616c7265616479206265656e207365740000000000000000604082015260600190565b60208082526015908201527f4f72646572206e6f206c6f6e6765722076616c69640000000000000000000000604082015260600190565b60208082526026908201527f4f776e61626c653a206e6577206f776e657220697320746865207a65726f206160408201527f6464726573730000000000000000000000000000000000000000000000000000606082015260800190565b6020808252601a908201527f536166654d6174683a206469766973696f6e206279207a65726f000000000000604082015260600190565b60208082526021908201527f536166654d6174683a206d756c7469706c69636174696f6e206f766572666c6f60408201527f7700000000000000000000000000000000000000000000000000000000000000606082015260800190565b6020808252818101527f4f776e61626c653a2063616c6c6572206973206e6f7420746865206f776e6572604082015260600190565b6020808252600d908201527f4f72646572206578706972656400000000000000000000000000000000000000604082015260600190565b60208082526018908201527f5357462068617320616c7265616479206265656e207365740000000000000000604082015260600190565b60208082526016908201527f496e636f727265637420736d6172742077616c6c657400000000000000000000604082015260600190565b6020808252818101527f4f6e6c7920657865637574652066726f6d20746865206f7264657220626f6f6b604082015260600190565b90815260200190565b60405181810167ffffffffffffffff8111828210171561165557600080fd5b604052919050565b600281106101c557fe5b6001600160a01b03811681146101c557600080fd5b80151581146101c557600080fdfe2d2d2d4c696d6974206f726465722069732061626c6520746f2062652065786563757465642c20706c6163696e67206f726465722e2e2e2d2d2d436865636b696e6720696620636f6e646974696f6e73206172652076616c69642d2d2d556e61626c6520746f2065786563757465206f726465723a20696e636f7272656374207072696365a2646970667358221220bc284269f8583dbb682330abebd44cd25603e19acdd4989f728b6fc53d6a72cb64736f6c63430006090033",
  "linkReferences": {},
  "deployedLinkReferences": {}
}