{
  "_format": "hh-sol-artifact-1",
  "contractName": "SmartWallet",
  "sourceName": "contracts/SmartWallet.sol",
  "abi": [
    {
      "anonymous": false,
      "inputs": [
        {
          "indexed": false,
          "internalType": "address",
          "name": "asset",
          "type": "address"
        },
        {
          "indexed": false,
          "internalType": "uint256",
          "name": "dir",
          "type": "uint256"
        },
        {
          "indexed": false,
          "internalType": "uint256",
          "name": "collateral",
          "type": "uint256"
        },
        {
          "indexed": false,
          "internalType": "uint256",
          "name": "leverage",
          "type": "uint256"
        },
        {
          "indexed": false,
          "internalType": "uint256",
          "name": "slippage",
          "type": "uint256"
        }
      ],
      "name": "AttemptingPosition",
      "type": "event"
    },
    {
      "anonymous": false,
      "inputs": [
        {
          "indexed": true,
          "internalType": "address",
          "name": "previousOwner",
          "type": "address"
        },
        {
          "indexed": true,
          "internalType": "address",
          "name": "newOwner",
          "type": "address"
        }
      ],
      "name": "OwnershipTransferred",
      "type": "event"
    },
    {
      "inputs": [],
      "name": "approveAll",
      "outputs": [],
      "stateMutability": "nonpayable",
      "type": "function"
    },
    {
      "inputs": [
        {
          "internalType": "address",
          "name": "target",
          "type": "address"
        },
        {
          "internalType": "bytes",
          "name": "callData",
          "type": "bytes"
        }
      ],
      "name": "executeCall",
      "outputs": [
        {
          "internalType": "bytes",
          "name": "",
          "type": "bytes"
        }
      ],
      "stateMutability": "nonpayable",
      "type": "function"
    },
    {
      "inputs": [
        {
          "internalType": "uint256",
          "name": "order_id",
          "type": "uint256"
        }
      ],
      "name": "executeOrder",
      "outputs": [
        {
          "internalType": "bool",
          "name": "",
          "type": "bool"
        }
      ],
      "stateMutability": "nonpayable",
      "type": "function"
    },
    {
      "inputs": [
        {
          "components": [
            {
              "internalType": "uint256",
              "name": "d",
              "type": "uint256"
            }
          ],
          "internalType": "struct Decimal.decimal",
          "name": "a",
          "type": "tuple"
        },
        {
          "components": [
            {
              "internalType": "uint256",
              "name": "d",
              "type": "uint256"
            }
          ],
          "internalType": "struct Decimal.decimal",
          "name": "b",
          "type": "tuple"
        }
      ],
      "name": "minD",
      "outputs": [
        {
          "components": [
            {
              "internalType": "uint256",
              "name": "d",
              "type": "uint256"
            }
          ],
          "internalType": "struct Decimal.decimal",
          "name": "",
          "type": "tuple"
        }
      ],
      "stateMutability": "pure",
      "type": "function"
    },
    {
      "inputs": [],
      "name": "owner",
      "outputs": [
        {
          "internalType": "address",
          "name": "",
          "type": "address"
        }
      ],
      "stateMutability": "view",
      "type": "function"
    },
    {
      "inputs": [],
      "name": "renounceOwnership",
      "outputs": [],
      "stateMutability": "nonpayable",
      "type": "function"
    },
    {
      "inputs": [
        {
          "internalType": "contract SmartWalletFactory",
          "name": "_addr",
          "type": "address"
        }
      ],
      "name": "setFactory",
      "outputs": [],
      "stateMutability": "nonpayable",
      "type": "function"
    },
    {
      "inputs": [
        {
          "internalType": "address",
          "name": "_addr",
          "type": "address"
        }
      ],
      "name": "setOrderBook",
      "outputs": [],
      "stateMutability": "nonpayable",
      "type": "function"
    },
    {
      "inputs": [
        {
          "internalType": "address",
          "name": "newOwner",
          "type": "address"
        }
      ],
      "name": "transferOwnership",
      "outputs": [],
      "stateMutability": "nonpayable",
      "type": "function"
    }
  ],
  "bytecode": "0x608060405234801561001057600080fd5b5060006100246001600160e01b0361007316565b600080546001600160a01b0319166001600160a01b0383169081178255604051929350917f8be0079c531659141344cd1fd0a4f28419497f9722a3daafe3b4186f6b6457e0908290a350610077565b3390565b6126c5806100866000396000f3fe608060405234801561001057600080fd5b50600436106100a35760003560e01c806394f6113411610076578063bca8c7b51161005b578063bca8c7b51461011e578063cca9dfa91461013e578063f2fde38b1461015e576100a3565b806394f61134146100eb5780639a1598c81461010b576100a3565b8063380d0c08146100a85780635bb47808146100b2578063715018a6146100c55780638da5cb5b146100cd575b600080fd5b6100b0610171565b005b6100b06100c0366004611d95565b61036f565b6100b06103d0565b6100d5610466565b6040516100e291906120c5565b60405180910390f35b6100fe6100f936600461203a565b610475565b6040516100e29190612120565b6100b0610119366004611d95565b610725565b61013161012c366004611e46565b61077d565b6040516100e2919061212b565b61015161014c366004611f7a565b610864565b6040516100e29190612636565b6100b061016c366004611d95565b610897565b600260009054906101000a90046001600160a01b03166001600160a01b031663564b81ef6040518163ffffffff1660e01b815260040160206040518083038186803b1580156101bf57600080fd5b505afa1580156101d3573d6000803e3d6000fd5b505050506040513d601f19601f820116820180604052508101906101f79190612052565b6064141561036d576040517f095ea7b300000000000000000000000000000000000000000000000000000000815273ddafbb505ad214d7b80b1f830fccc89b60fb7a839063095ea7b39061026790735d9593586b4b5edbd23e7eba8d88fd8f09d83ebd90600019906004016120d9565b602060405180830381600087803b15801561028157600080fd5b505af1158015610295573d6000803e3d6000fd5b505050506040513d601f19601f820116820180604052508101906102b99190611ec4565b506001546040517f095ea7b300000000000000000000000000000000000000000000000000000000815273ddafbb505ad214d7b80b1f830fccc89b60fb7a839163095ea7b391610319916001600160a01b031690600019906004016120d9565b602060405180830381600087803b15801561033357600080fd5b505af1158015610347573d6000803e3d6000fd5b505050506040513d601f19601f8201168201806040525081019061036b9190611ec4565b505b565b6002546001600160a01b0316156103a15760405162461bcd60e51b815260040161039890612593565b60405180910390fd5b6002805473ffffffffffffffffffffffffffffffffffffffff19166001600160a01b0392909216919091179055565b6103d8610964565b6001600160a01b03166103e9610466565b6001600160a01b03161461040f5760405162461bcd60e51b815260040161039890612493565b600080546040516001600160a01b03909116907f8be0079c531659141344cd1fd0a4f28419497f9722a3daafe3b4186f6b6457e0908390a36000805473ffffffffffffffffffffffffffffffffffffffff19169055565b6000546001600160a01b031690565b6001546000906001600160a01b031633146104a25760405162461bcd60e51b815260040161039890612601565b6104e16040518060400160405280600d81526020017f2d2d53573a204f7264657220230000000000000000000000000000000000000081525083610968565b600154604051634c5789e360e01b81526000918291829182916001600160a01b0390911690634c5789e39061051a908990600401612640565b60c06040518083038186803b15801561053257600080fd5b505afa158015610546573d6000803e3d6000fd5b505050506040513d601f19601f8201168201806040525081019061056a9190611dcd565b6002546040517fa0b73881000000000000000000000000000000000000000000000000000000008152959a509398509096509450309350506001600160a01b03169063a0b73881906105c09088906004016120c5565b60206040518083038186803b1580156105d857600080fd5b505afa1580156105ec573d6000803e3d6000fd5b505050506040513d601f19601f820116820180604052508101906106109190611db1565b6001600160a01b0316146106365760405162461bcd60e51b8152600401610398906125ca565b80158061064257508042105b61065e5760405162461bcd60e51b8152600401610398906124c8565b8161067b5760405162461bcd60e51b815260040161039890612221565b600183600581111561068957fe5b14156106a357610698866109df565b945050505050610720565b60028360058111156106b157fe5b14156106c05761069886610ee3565b60038360058111156106ce57fe5b14156106dd5761069886611370565b60048360058111156106eb57fe5b14156106fa5761069886610ee3565b600583600581111561070857fe5b14156107175761069886611370565b60009450505050505b919050565b6001546001600160a01b03161561074e5760405162461bcd60e51b8152600401610398906121ea565b6001805473ffffffffffffffffffffffffffffffffffffffff19166001600160a01b0392909216919091179055565b6060610787610964565b6001600160a01b0316610798610466565b6001600160a01b0316146107be5760405162461bcd60e51b815260040161039890612493565b6107c784611899565b6107e35760405162461bcd60e51b815260040161039890612391565b60006060856001600160a01b031685856040516108019291906120b5565b6000604051808303816000865af19150503d806000811461083e576040519150601f19603f3d011682016040523d82523d6000602084013e610843565b606091505b5090925090508161085b576040513d806000833e8082fd5b95945050505050565b61086c611cda565b61087c838363ffffffff61189f16565b60000b60011461088c578261088e565b815b90505b92915050565b61089f610964565b6001600160a01b03166108b0610466565b6001600160a01b0316146108d65760405162461bcd60e51b815260040161039890612493565b6001600160a01b0381166108fc5760405162461bcd60e51b815260040161039890612258565b600080546040516001600160a01b03808516939216917f8be0079c531659141344cd1fd0a4f28419497f9722a3daafe3b4186f6b6457e091a36000805473ffffffffffffffffffffffffffffffffffffffff19166001600160a01b0392909216919091179055565b3390565b6109db828260405160240161097e9291906121c8565b60408051601f198184030181529190526020810180517bffffffffffffffffffffffffffffffffffffffffffffffffffffffff167f9710a9d0000000000000000000000000000000000000000000000000000000001790526118d0565b5050565b60006109e9611cda565b6109f1611cda565b6109f9611cda565b610a01611cda565b610a09611cda565b60015460405163038da8b760e61b81526001600160a01b039091169063e36a2dc090610a39908a90600401612640565b60e06040518083038186803b158015610a5157600080fd5b505afa158015610a65573d6000803e3d6000fd5b505050506040513d601f19601f82011682018060405250810190610a899190611fae565b50600154604051634c5789e360e01b8152959b50939950919750955093506000925082916001600160a01b0390911690634c5789e390610acd908c90600401612640565b60c06040518083038186803b158015610ae557600080fd5b505afa158015610af9573d6000803e3d6000fd5b505050506040513d601f19601f82011682018060405250810190610b1d9190611dcd565b505093505050915060008090508115610b3d57610b3a83886118f1565b90505b6000610b4888611a87565b610b53576001610b56565b60005b9050610b60611cda565b846001600160a01b031663dc76fabc6040518163ffffffff1660e01b815260040160206040518083038186803b158015610b9957600080fd5b505afa158015610bad573d6000803e3d6000fd5b505050506040513d601f19601f82011682018060405250810190610bd19190611f5f565b9050600082610be257600019610be5565b60015b600f0b610bf88c8463ffffffff61189f16565b60000b1490508015610eb857610c0c611cda565b610c158b611aa5565b9050610c1f611cda565b876001600160a01b031663da0c592786610c3a576000610c3d565b60015b846040518363ffffffff1660e01b8152600401610c5b9291906121ad565b60206040518083038186803b158015610c7357600080fd5b505afa158015610c87573d6000803e3d6000fd5b505050506040513d601f19601f82011682018060405250810190610cab9190611f5f565b9050610cb689611ad3565b15610d0a5784610ce557604080516020810190915260018152610ce0908a9063ffffffff611ad716565b610d05565b604080516020810190915260018152610d05908a9063ffffffff611b0316565b610d0c565b885b9850610d27610d21828d63ffffffff611b2616565b8b610864565b99507f171ebb46bdffa07c3de8c0e7b3d80fab909355754ba8ffe80a6d288656a2e7328886610d57576001610d5a565b60005b610d638e611ad3565b610d6c8e611ad3565b610d758e611ad3565b604051610d869594939291906120f2565b60405180910390a18515610e3157610da4828e63ffffffff611b4916565b9850610dbe610db1611b6c565b8a9063ffffffff611b0316565b604051632a306c2f60e21b8152909950735d9593586b4b5edbd23e7eba8d88fd8f09d83ebd9063a8c1b0bc90610dfa908b908d90600401612193565b600060405180830381600087803b158015610e1457600080fd5b505af1158015610e28573d6000803e3d6000fd5b50505050610eb1565b735d9593586b4b5edbd23e7eba8d88fd8f09d83ebd63893d242d8987610e58576001610e5b565b60005b8e8e8e6040518663ffffffff1660e01b8152600401610e7e959493929190612158565b600060405180830381600087803b158015610e9857600080fd5b505af1158015610eac573d6000803e3d6000fd5b505050505b5050610ed0565b60405162461bcd60e51b8152600401610398906124ff565b5060019c9b505050505050505050505050565b6000610eed611cda565b610ef5611cda565b610efd611cda565b610f05611cda565b60015460405163038da8b760e61b81526001600160a01b039091169063e36a2dc090610f35908990600401612640565b60e06040518083038186803b158015610f4d57600080fd5b505afa158015610f61573d6000803e3d6000fd5b505050506040513d601f19601f82011682018060405250810190610f859190611fae565b5050600154604051634c5789e360e01b815295995092975090955093506000928392506001600160a01b0390911690634c5789e390610fc8908b90600401612640565b60c06040518083038186803b158015610fe057600080fd5b505afa158015610ff4573d6000803e3d6000fd5b505050506040513d601f19601f820116820180604052508101906110189190611dcd565b5050935050509150600080905081156110385761103583876118f1565b90505b600061104387611a87565b61104e576001611051565b60005b905061105b611cda565b846001600160a01b031663dc76fabc6040518163ffffffff1660e01b815260040160206040518083038186803b15801561109457600080fd5b505afa1580156110a8573d6000803e3d6000fd5b505050506040513d601f19601f820116820180604052508101906110cc9190611f5f565b90506000826110dd576000196110e0565b60015b600f0b6110f3838c63ffffffff61189f16565b60000b149050801561134657611107611cda565b6111108a611aa5565b905061111a611cda565b876001600160a01b031663da0c592786611135576000611138565b60015b846040518363ffffffff1660e01b81526004016111569291906121ad565b60206040518083038186803b15801561116e57600080fd5b505afa158015611182573d6000803e3d6000fd5b505050506040513d601f19601f820116820180604052508101906111a69190611f5f565b90506111c16111bb828c63ffffffff611b2616565b8a610864565b98507f171ebb46bdffa07c3de8c0e7b3d80fab909355754ba8ffe80a6d288656a2e73288866111f15760016111f4565b60005b6111fd8d611ad3565b6112068d611ad3565b611216611211611b90565b611ad3565b6040516112279594939291906120f2565b60405180910390a185156112b05760408051602081018252600081529051632a306c2f60e21b8152735d9593586b4b5edbd23e7eba8d88fd8f09d83ebd9163a8c1b0bc91611279918c91600401612193565b600060405180830381600087803b15801561129357600080fd5b505af11580156112a7573d6000803e3d6000fd5b5050505061133f565b735d9593586b4b5edbd23e7eba8d88fd8f09d83ebd63893d242d89876112d75760016112da565b60005b8d8d604051806020016040528060008152506040518663ffffffff1660e01b815260040161130c959493929190612158565b600060405180830381600087803b15801561132657600080fd5b505af115801561133a573d6000803e3d6000fd5b505050505b505061135e565b60405162461bcd60e51b8152600401610398906122ec565b5060019b9a5050505050505050505050565b600061137a611cda565b611382611cda565b61138a611cda565b611392611cda565b61139a611cda565b6113a2611cda565b60015460405163038da8b760e61b81526001600160a01b039091169063e36a2dc0906113d2908b90600401612640565b60e06040518083038186803b1580156113ea57600080fd5b505afa1580156113fe573d6000803e3d6000fd5b505050506040513d601f19601f820116820180604052508101906114229190611fae565b50600154604051634c5789e360e01b8152969c50949a509298509096509450925060009182916001600160a01b031690634c5789e390611466908d90600401612640565b60c06040518083038186803b15801561147e57600080fd5b505afa158015611492573d6000803e3d6000fd5b505050506040513d601f19601f820116820180604052508101906114b69190611dcd565b5050935050509150600080905081156114d6576114d383886118f1565b90505b60006114e188611a87565b6114ec5760016114ef565b60005b90506114f9611cda565b846001600160a01b031663dc76fabc6040518163ffffffff1660e01b815260040160206040518083038186803b15801561153257600080fd5b505afa158015611546573d6000803e3d6000fd5b505050506040513d601f19601f8201168201806040525081019061156a9190611f5f565b905060008261157b5760001961157e565b60015b600f0b6115918c8463ffffffff61189f16565b60000b1480156115c45750826115a9576000196115ac565b60015b600f0b6115bf838e63ffffffff61189f16565b60000b145b9050801561186d576115d4611cda565b6115dd8b611aa5565b90506115e7611cda565b876001600160a01b031663da0c592786611602576000611605565b60015b846040518363ffffffff1660e01b81526004016116239291906121ad565b60206040518083038186803b15801561163b57600080fd5b505afa15801561164f573d6000803e3d6000fd5b505050506040513d601f19601f820116820180604052508101906116739190611f5f565b905061167e89611ad3565b156116d257846116ad576040805160208101909152600181526116a8908a9063ffffffff611ad716565b6116cd565b6040805160208101909152600181526116cd908a9063ffffffff611b0316565b6116d4565b885b98506116e9610d21828d63ffffffff611b2616565b99507f171ebb46bdffa07c3de8c0e7b3d80fab909355754ba8ffe80a6d288656a2e732888661171957600161171c565b60005b6117258e611ad3565b61172e8e611ad3565b6117378e611ad3565b6040516117489594939291906120f2565b60405180910390a185156117e657611766828e63ffffffff611b4916565b9850611773610db1611b6c565b604051632a306c2f60e21b8152909950735d9593586b4b5edbd23e7eba8d88fd8f09d83ebd9063a8c1b0bc906117af908b908d90600401612193565b600060405180830381600087803b1580156117c957600080fd5b505af11580156117dd573d6000803e3d6000fd5b50505050611866565b735d9593586b4b5edbd23e7eba8d88fd8f09d83ebd63893d242d898761180d576001611810565b60005b8e8e8e6040518663ffffffff1660e01b8152600401611833959493929190612158565b600060405180830381600087803b15801561184d57600080fd5b505af1158015611861573d6000803e3d6000fd5b505050505b5050611885565b60405162461bcd60e51b815260040161039890612536565b5060019d9c50505050505050505050505050565b3b151590565b8051825160009110156118b457506001610891565b8151835110156118c75750600019610891565b50600092915050565b80516a636f6e736f6c652e6c6f67602083016000808483855afa5050505050565b60006118fb611ced565b6040517fb33dc190000000000000000000000000000000000000000000000000000000008152735d9593586b4b5edbd23e7eba8d88fd8f09d83ebd9063b33dc1909061194d908790309060040161213e565b60c06040518083038186803b15801561196557600080fd5b505afa158015611979573d6000803e3d6000fd5b505050506040513d601f19601f8201168201806040525081019061199d9190611ee4565b90506119a7611cda565b5080516119b381611a87565b15156119be85611a87565b151514611a67576119ce84611a87565b15611a0f576119f46119df82611aa5565b6119e886611aa5565b9063ffffffff61189f16565b60000b60011415611a0a57600192505050610891565b611a3a565b611a24611a1b85611aa5565b6119e883611aa5565b60000b60011415611a3a57600192505050610891565b611a4661121185611aa5565b611a625760405162461bcd60e51b8152600401610398906122b5565b611a7f565b60405162461bcd60e51b81526004016103989061235a565b505092915050565b60008082600001511215611a9d57506001610720565b506000919050565b611aad611cda565b611ab5611cda565b825160001315611acb5782516000038152610891565b915182525090565b5190565b611adf611cda565b611ae7611cda565b82518451611afa9163ffffffff611bab16565b81529392505050565b611b0b611cda565b611b13611cda565b82518451611afa9163ffffffff611bd016565b611b2e611cda565b611b36611cda565b82518451611afa9163ffffffff611bf816565b611b51611cda565b611b59611cda565b82518451611afa9163ffffffff611c0616565b611b74611cda565b6040518060200160405280611b896012611c14565b9052905090565b611b98611cda565b5060408051602081019091526000815290565b60008282018381101561088e5760405162461bcd60e51b815260040161039890612323565b600082821115611bf25760405162461bcd60e51b8152600401610398906123c8565b50900390565b600061088e83836012611c1d565b600061088e83836012611c50565b60ff16600a0a90565b6000611c4883611c3c611c2f85611c14565b879063ffffffff611c6e16565b9063ffffffff611ca816565b949350505050565b6000611c48611c5e83611c14565b611c3c868663ffffffff611c6e16565b600082611c7d57506000610891565b82820282848281611c8a57fe5b041461088e5760405162461bcd60e51b815260040161039890612436565b6000808211611cc95760405162461bcd60e51b8152600401610398906123ff565b818381611cd257fe5b049392505050565b6040518060200160405280600081525090565b6040518060c00160405280611d00611cda565b8152602001611d0d611cda565b8152602001611d1a611cda565b8152602001611d27611cda565b815260200160008152602001600081525090565b8051801515811461089157600080fd5b600060208284031215611d5c578081fd5b611d666020612649565b9135825250919050565b600060208284031215611d81578081fd5b611d8b6020612649565b9151825250919050565b600060208284031215611da6578081fd5b813561088e8161267a565b600060208284031215611dc2578081fd5b815161088e8161267a565b60008060008060008060c08789031215611de5578182fd5b8651611df08161267a565b6020880151909650611e018161267a565b604088015190955060068110611e15578283fd5b9350611e248860608901611d3b565b9250611e338860808901611d3b565b915060a087015190509295509295509295565b600080600060408486031215611e5a578283fd5b8335611e658161267a565b9250602084013567ffffffffffffffff80821115611e81578384fd5b81860187601f820112611e92578485fd5b8035925081831115611ea2578485fd5b876020848301011115611eb3578485fd5b949760209095019650909450505050565b600060208284031215611ed5578081fd5b8151801515811461088e578182fd5b600060c08284031215611ef5578081fd5b611eff60c0612649565b611f098484611d70565b8152611f188460208501611d70565b6020820152611f2a8460408501611d70565b6040820152611f3c8460608501611d70565b60608201526080830151608082015260a083015160a08201528091505092915050565b600060208284031215611f70578081fd5b61088e8383611d70565b60008060408385031215611f8c578182fd5b611f968484611d4b565b9150611fa58460208501611d4b565b90509250929050565b600080600080600080600060e0888a031215611fc8578081fd5b611fd28989611d70565b9650611fe18960208a01611d70565b9550611ff08960408a01611d70565b9450611fff8960608a01611d70565b935061200e8960808a01611d70565b925061201d8960a08a01611d70565b915061202c8960c08a01611d70565b905092959891949750929550565b60006020828403121561204b578081fd5b5035919050565b600060208284031215612063578081fd5b5051919050565b60008151808452815b8181101561208f57602081850181015186830182015201612073565b818111156120a05782602083870101525b50601f01601f19169290920160200192915050565b6000828483379101908152919050565b6001600160a01b0391909116815260200190565b6001600160a01b03929092168252602082015260400190565b6001600160a01b03959095168552602085019390935260408401919091526060830152608082015260a00190565b901515815260200190565b60006020825261088e602083018461206a565b6001600160a01b0392831681529116602082015260400190565b6001600160a01b038616815260a0810161217186612670565b6020820195909552925160408401529051606083015251608090910152919050565b6001600160a01b0392909216825251602082015260400190565b604081016121ba84612670565b928152905160209091015290565b6000604082526121db604083018561206a565b90508260208301529392505050565b60208082526018908201527f4c4f422068617320616c7265616479206265656e207365740000000000000000604082015260600190565b60208082526015908201527f4f72646572206e6f206c6f6e6765722076616c69640000000000000000000000604082015260600190565b60208082526026908201527f4f776e61626c653a206e6577206f776e657220697320746865207a65726f206160408201527f6464726573730000000000000000000000000000000000000000000000000000606082015260800190565b60208082526015908201527f696e76616c6964207265647563654f6e6c792023310000000000000000000000604082015260600190565b6020808252601c908201527f507269636520686173206e6f74206869742073746f7020707269636500000000604082015260600190565b6020808252601b908201527f536166654d6174683a206164646974696f6e206f766572666c6f770000000000604082015260600190565b60208082526015908201527f696e76616c6964207265647563654f6e6c792023320000000000000000000000604082015260600190565b60208082526014908201527f63616c6c20746f206e6f6e2d636f6e7472616374000000000000000000000000604082015260600190565b6020808252601e908201527f536166654d6174683a207375627472616374696f6e206f766572666c6f770000604082015260600190565b6020808252601a908201527f536166654d6174683a206469766973696f6e206279207a65726f000000000000604082015260600190565b60208082526021908201527f536166654d6174683a206d756c7469706c69636174696f6e206f766572666c6f60408201527f7700000000000000000000000000000000000000000000000000000000000000606082015260800190565b6020808252818101527f4f776e61626c653a2063616c6c6572206973206e6f7420746865206f776e6572604082015260600190565b6020808252600d908201527f4f72646572206578706972656400000000000000000000000000000000000000604082015260600190565b6020808252601d908201527f507269636520686173206e6f7420686974206c696d6974207072696365000000604082015260600190565b60208082526021908201527f507269636520686173206e6f74206869742073746f706c696d6974207072696360408201527f6500000000000000000000000000000000000000000000000000000000000000606082015260800190565b60208082526018908201527f5357462068617320616c7265616479206265656e207365740000000000000000604082015260600190565b60208082526016908201527f496e636f727265637420736d6172742077616c6c657400000000000000000000604082015260600190565b6020808252818101527f4f6e6c7920657865637574652066726f6d20746865206f7264657220626f6f6b604082015260600190565b9051815260200190565b90815260200190565b60405181810167ffffffffffffffff8111828210171561266857600080fd5b604052919050565b6002811061036b57fe5b6001600160a01b038116811461036b57600080fdfea2646970667358221220f17a25addb02640836ed374b46843a9dad32d81a795e448fdc93bf4984af92a764736f6c63430006090033",
  "linkReferences": {},
  "deployedLinkReferences": {}
}