{
  "_format": "hh-sol-artifact-1",
  "contractName": "SmartWallet",
  "sourceName": "contracts/SmartWallet.sol",
  "abi": [
    {
      "inputs": [],
      "name": "OrderBook",
      "outputs": [
        {
          "internalType": "contract LimitOrderBook",
          "name": "",
          "type": "address"
        }
      ],
      "stateMutability": "view",
      "type": "function"
    },
    {
      "inputs": [
        {
          "internalType": "address",
          "name": "target",
          "type": "address"
        },
        {
          "internalType": "bytes",
          "name": "callData",
          "type": "bytes"
        }
      ],
      "name": "executeCall",
      "outputs": [
        {
          "internalType": "bytes",
          "name": "",
          "type": "bytes"
        }
      ],
      "stateMutability": "nonpayable",
      "type": "function"
    },
    {
      "inputs": [
        {
          "internalType": "contract IAmm",
          "name": "_asset",
          "type": "address"
        },
        {
          "components": [
            {
              "internalType": "uint256",
              "name": "d",
              "type": "uint256"
            }
          ],
          "internalType": "struct Decimal.decimal",
          "name": "_slippage",
          "type": "tuple"
        }
      ],
      "name": "executeClosePosition",
      "outputs": [],
      "stateMutability": "nonpayable",
      "type": "function"
    },
    {
      "inputs": [
        {
          "internalType": "contract IAmm",
          "name": "_asset",
          "type": "address"
        },
        {
          "components": [
            {
              "internalType": "int256",
              "name": "d",
              "type": "int256"
            }
          ],
          "internalType": "struct SignedDecimal.signedDecimal",
          "name": "_orderSize",
          "type": "tuple"
        },
        {
          "components": [
            {
              "internalType": "uint256",
              "name": "d",
              "type": "uint256"
            }
          ],
          "internalType": "struct Decimal.decimal",
          "name": "_collateral",
          "type": "tuple"
        },
        {
          "components": [
            {
              "internalType": "uint256",
              "name": "d",
              "type": "uint256"
            }
          ],
          "internalType": "struct Decimal.decimal",
          "name": "_leverage",
          "type": "tuple"
        },
        {
          "components": [
            {
              "internalType": "uint256",
              "name": "d",
              "type": "uint256"
            }
          ],
          "internalType": "struct Decimal.decimal",
          "name": "_slippage",
          "type": "tuple"
        }
      ],
      "name": "executeMarketOrder",
      "outputs": [],
      "stateMutability": "nonpayable",
      "type": "function"
    },
    {
      "inputs": [
        {
          "internalType": "uint256",
          "name": "order_id",
          "type": "uint256"
        }
      ],
      "name": "executeOrder",
      "outputs": [
        {
          "internalType": "bool",
          "name": "",
          "type": "bool"
        }
      ],
      "stateMutability": "nonpayable",
      "type": "function"
    },
    {
      "inputs": [],
      "name": "factory",
      "outputs": [
        {
          "internalType": "contract SmartWalletFactory",
          "name": "",
          "type": "address"
        }
      ],
      "stateMutability": "view",
      "type": "function"
    },
    {
      "inputs": [
        {
          "internalType": "address",
          "name": "_lob",
          "type": "address"
        },
        {
          "internalType": "address",
          "name": "_trader",
          "type": "address"
        }
      ],
      "name": "initialize",
      "outputs": [],
      "stateMutability": "nonpayable",
      "type": "function"
    },
    {
      "inputs": [
        {
          "components": [
            {
              "internalType": "uint256",
              "name": "d",
              "type": "uint256"
            }
          ],
          "internalType": "struct Decimal.decimal",
          "name": "a",
          "type": "tuple"
        },
        {
          "components": [
            {
              "internalType": "uint256",
              "name": "d",
              "type": "uint256"
            }
          ],
          "internalType": "struct Decimal.decimal",
          "name": "b",
          "type": "tuple"
        }
      ],
      "name": "minD",
      "outputs": [
        {
          "components": [
            {
              "internalType": "uint256",
              "name": "d",
              "type": "uint256"
            }
          ],
          "internalType": "struct Decimal.decimal",
          "name": "",
          "type": "tuple"
        }
      ],
      "stateMutability": "pure",
      "type": "function"
    }
  ],
  "bytecode": "0x608060405234801561001057600080fd5b50612bb3806100206000396000f3fe608060405234801561001057600080fd5b50600436106100885760003560e01c8063bca8c7b51161005b578063bca8c7b5146100f3578063c45a015514610113578063cca9dfa91461011b578063f9d8e3c71461013b57610088565b8063485cc9551461008d5780635b6a8b43146100a257806365ead111146100b557806394f61134146100d3575b600080fd5b6100a061009b36600461206a565b61014e565b005b6100a06100b03660046121f0565b610277565b6100bd6102b5565b6040516100ca9190612452565b60405180910390f35b6100e66100e13660046123da565b6102ca565b6040516100ca9190612499565b610106610101366004612121565b61054f565b6040516100ca91906124a4565b6100bd6106b9565b61012e610129366004612307565b6106c8565b6040516100ca9190612ae7565b6100a06101493660046121bb565b6106fc565b603354610100900460ff16806101675750610167610734565b80610175575060335460ff16155b61019a5760405162461bcd60e51b8152600401610191906127f6565b60405180910390fd5b603354610100900460ff161580156101e357603380547fffffffffffffffffffffffffffffffffffffffffffffffffffffffffffffff0061ff0019909116610100171660011790555b603380546001600160a01b0380861662010000027fffffffffffffffffffff0000000000000000000000000000000000000000ffff90921691909117909155603480547fffffffffffffffffffffffff0000000000000000000000000000000000000000908116331790915560358054928516929091169190911790558015610272576033805461ff00191690555b505050565b6035546001600160a01b031633146102a15760405162461bcd60e51b8152600401610191906128b0565b6102ae8585858585610745565b5050505050565b6033546201000090046001600160a01b031681565b6033546000906201000090046001600160a01b031633146102fd5760405162461bcd60e51b815260040161019190612a1e565b600080600080603360029054906101000a90046001600160a01b03166001600160a01b0316634c5789e3876040518263ffffffff1660e01b81526004016103449190612af1565b60c06040518083038186803b15801561035c57600080fd5b505afa158015610370573d6000803e3d6000fd5b505050506040513d601f19601f8201168201806040525081019061039491906120a2565b6034546040517fa0b73881000000000000000000000000000000000000000000000000000000008152959a509398509096509450309350506001600160a01b03169063a0b73881906103ea908890600401612452565b60206040518083038186803b15801561040257600080fd5b505afa158015610416573d6000803e3d6000fd5b505050506040513d601f19601f8201168201806040525081019061043a919061204e565b6001600160a01b0316146104605760405162461bcd60e51b8152600401610191906129e7565b80158061046c57508042105b6104885760405162461bcd60e51b8152600401610191906128e5565b816104a55760405162461bcd60e51b815260040161019190612527565b60018360058111156104b357fe5b14156104cd576104c2866109ed565b94505050505061054a565b60028360058111156104db57fe5b14156104ea576104c286610d6e565b60038360058111156104f857fe5b1415610507576104c28661100a565b600483600581111561051557fe5b1415610524576104c286610d6e565b600583600581111561053257fe5b1415610541576104c28661100a565b60009450505050505b919050565b6035546060906001600160a01b0316331461057c5760405162461bcd60e51b8152600401610191906128b0565b61058e846001600160a01b03166113dc565b6105aa5760405162461bcd60e51b815260040161019190612660565b6034546040517f3af32abf0000000000000000000000000000000000000000000000000000000081526001600160a01b0390911690633af32abf906105f3908790600401612452565b60206040518083038186803b15801561060b57600080fd5b505afa15801561061f573d6000803e3d6000fd5b505050506040513d601f19601f82011682018060405250810190610643919061219f565b61065f5760405162461bcd60e51b81526004016101919061272b565b6106af83838080601f016020809104026020016040519081016040528093929190818152602001838380828437600092019190915250506001600160a01b0388169291505063ffffffff6113e216565b90505b9392505050565b6034546001600160a01b031681565b6106d0611fa3565b60016106e2848463ffffffff61142416565b60000b12156106f157826106f3565b815b90505b92915050565b6035546001600160a01b031633146107265760405162461bcd60e51b8152600401610191906128b0565b6107308282611455565b5050565b600061073f306113dc565b15905090565b61074d611fa3565b610755611fa3565b6001600160a01b0387166362267955610774878763ffffffff61172216565b6040518263ffffffff1660e01b81526004016107909190612ae7565b604080518083038186803b1580156107a757600080fd5b505afa1580156107bb573d6000803e3d6000fd5b505050506040513d601f19601f820116820180604052508101906107df9190612323565b915091506107eb611fa3565b61080b826107ff888663ffffffff61174e16565b9063ffffffff61174e16565b9050610865735d9593586b4b5edbd23e7eba8d88fd8f09d83ebd61084373ddafbb505ad214d7b80b1f830fccc89b60fb7a8384611771565b73ddafbb505ad214d7b80b1f830fccc89b60fb7a83919063ffffffff6117ef16565b60006108708861190a565b61087b57600161087e565b60005b9050610888611fa3565b61089189611928565b905061089b611fa3565b8a6001600160a01b031663da0c5927846108b65760006108b9565b60015b846040518363ffffffff1660e01b81526004016108d792919061250c565b60206040518083038186803b1580156108ef57600080fd5b505afa158015610903573d6000803e3d6000fd5b505050506040513d601f19601f8201168201806040525081019061092791906122ec565b9050610931611fa3565b5060408051602081019091526001815261095e610958826107ff858e63ffffffff61195616565b8a6106c8565b9850735d9593586b4b5edbd23e7eba8d88fd8f09d83ebd63893d242d8d8661098757600161098a565b60005b8d8d8d6040518663ffffffff1660e01b81526004016109ad9594939291906124b7565b600060405180830381600087803b1580156109c757600080fd5b505af11580156109db573d6000803e3d6000fd5b50505050505050505050505050505050565b60006109f7611fa3565b6109ff611fa3565b610a07611fa3565b610a0f611fa3565b610a17611fa3565b60335460405163038da8b760e61b8152620100009091046001600160a01b03169063e36a2dc090610a4c908a90600401612af1565b60e06040518083038186803b158015610a6457600080fd5b505afa158015610a78573d6000803e3d6000fd5b505050506040513d601f19601f82011682018060405250810190610a9c919061234e565b509550955095509550955050600080603360029054906101000a90046001600160a01b03166001600160a01b0316634c5789e38a6040518263ffffffff1660e01b8152600401610aec9190612af1565b60c06040518083038186803b158015610b0457600080fd5b505afa158015610b18573d6000803e3d6000fd5b505050506040513d601f19601f82011682018060405250810190610b3c91906120a2565b505093505050915060008090508115610b5c57610b598388611979565b90505b6000610b678861190a565b610b72576001610b75565b60005b9050610b7f611fa3565b846001600160a01b031663dc76fabc6040518163ffffffff1660e01b815260040160206040518083038186803b158015610bb857600080fd5b505afa158015610bcc573d6000803e3d6000fd5b505050506040513d601f19601f82011682018060405250810190610bf091906122ec565b9050600082610c0157600019610c04565b60015b600f0b610c178c8463ffffffff61142416565b60000b1490508015610d43578315610d1257610c31611fb6565b604051630b33dc1960e41b8152735d9593586b4b5edbd23e7eba8d88fd8f09d83ebd9063b33dc19090610c6a908a903090600401612466565b60c06040518083038186803b158015610c8257600080fd5b505afa158015610c96573d6000803e3d6000fd5b505050506040513d601f19601f82011682018060405250810190610cba9190612271565b9050610cc4611fa3565b508051610ccf611fa3565b610ce88e610cdc84611928565b9063ffffffff61172216565b9050610cf2611fa3565b610cfd82888d611afb565b9050610d098a82611455565b50505050610d3e565b610d1a611fa3565b610d2d610d268c611928565b858a611afb565b9050610d3c878c8c8c85610745565b505b610d5b565b60405162461bcd60e51b81526004016101919061291c565b5060019c9b505050505050505050505050565b6000610d78611fa3565b610d80611fa3565b610d88611fa3565b610d90611fa3565b60335460405163038da8b760e61b8152620100009091046001600160a01b03169063e36a2dc090610dc5908990600401612af1565b60e06040518083038186803b158015610ddd57600080fd5b505afa158015610df1573d6000803e3d6000fd5b505050506040513d601f19601f82011682018060405250810190610e15919061234e565b5050945094509450509350600080603360029054906101000a90046001600160a01b03166001600160a01b0316634c5789e3896040518263ffffffff1660e01b8152600401610e649190612af1565b60c06040518083038186803b158015610e7c57600080fd5b505afa158015610e90573d6000803e3d6000fd5b505050506040513d601f19601f82011682018060405250810190610eb491906120a2565b505093505050915060008090508115610ed457610ed18387611979565b90505b6000610edf8761190a565b610eea576001610eed565b60005b9050610ef7611fa3565b846001600160a01b031663dc76fabc6040518163ffffffff1660e01b815260040160206040518083038186803b158015610f3057600080fd5b505afa158015610f44573d6000803e3d6000fd5b505050506040513d601f19601f82011682018060405250810190610f6891906122ec565b9050600082610f7957600019610f7c565b60015b600f0b610f8f838c63ffffffff61142416565b60000b1490508015610fe0578315610fbf57610fba8660405180602001604052806000815250611455565b610fdb565b610fdb868a8a8a60405180602001604052806000815250610745565b610ff8565b60405162461bcd60e51b8152600401610191906125bb565b5060019b9a5050505050505050505050565b6000611014611fa3565b61101c611fa3565b611024611fa3565b61102c611fa3565b611034611fa3565b61103c611fa3565b60335460405163038da8b760e61b8152620100009091046001600160a01b03169063e36a2dc090611071908b90600401612af1565b60e06040518083038186803b15801561108957600080fd5b505afa15801561109d573d6000803e3d6000fd5b505050506040513d601f19601f820116820180604052508101906110c1919061234e565b506033546040517f4c5789e3000000000000000000000000000000000000000000000000000000008152969c50949a509298509096509450925060009182916201000090046001600160a01b031690634c5789e390611124908d90600401612af1565b60c06040518083038186803b15801561113c57600080fd5b505afa158015611150573d6000803e3d6000fd5b505050506040513d601f19601f8201168201806040525081019061117491906120a2565b505093505050915060008090508115611194576111918388611979565b90505b600061119f8861190a565b6111aa5760016111ad565b60005b90506111b7611fa3565b846001600160a01b031663dc76fabc6040518163ffffffff1660e01b815260040160206040518083038186803b1580156111f057600080fd5b505afa158015611204573d6000803e3d6000fd5b505050506040513d601f19601f8201168201806040525081019061122891906122ec565b90506000826112395760001961123c565b60015b600f0b61124f8c8463ffffffff61142416565b60000b1480156112825750826112675760001961126a565b60015b600f0b61127d838e63ffffffff61142416565b60000b145b905080156113b057831561138657611298611fb6565b6040517f0475db5a000000000000000000000000000000000000000000000000000000008152735d9593586b4b5edbd23e7eba8d88fd8f09d83ebd90630475db5a906112ea908a903090600401612466565b60c06040518083038186803b15801561130257600080fd5b505afa158015611316573d6000803e3d6000fd5b505050506040513d601f19601f8201168201806040525081019061133a9190612271565b9050611344611fa3565b50805161134f611fa3565b61135c8e610cdc84611928565b9050611366611fa3565b61137182888d611afb565b905061137d8a82611455565b505050506113ab565b61138e611fa3565b61139a610d268c611928565b90506113a9878c8c8c85610745565b505b6113c8565b60405162461bcd60e51b815260040161019190612953565b5060019d9c50505050505050505050505050565b3b151590565b60606106f383836040518060400160405280601e81526020017f416464726573733a206c6f772d6c6576656c2063616c6c206661696c65640000815250611b93565b805182516000911015611439575060016106f6565b81518351101561144c57506000196106f6565b50600092915050565b61145d611fb6565b604051630b33dc1960e41b8152735d9593586b4b5edbd23e7eba8d88fd8f09d83ebd9063b33dc190906114969086903090600401612466565b60c06040518083038186803b1580156114ae57600080fd5b505afa1580156114c2573d6000803e3d6000fd5b505050506040513d601f19601f820116820180604052508101906114e69190612271565b90506114f0611fa3565b5080516114fb611fa3565b846001600160a01b031663da0c5927600061151585611ba2565b13611521576001611524565b60005b61152d85611928565b6040518363ffffffff1660e01b815260040161154a92919061250c565b60206040518083038186803b15801561156257600080fd5b505afa158015611576573d6000803e3d6000fd5b505050506040513d601f19601f8201168201806040525081019061159a91906122ec565b90506115a4611fa3565b6115ac611fa3565b6040517f622679550000000000000000000000000000000000000000000000000000000081526001600160a01b038816906362267955906115f1908690600401612ae7565b604080518083038186803b15801561160857600080fd5b505afa15801561161c573d6000803e3d6000fd5b505050506040513d601f19601f820116820180604052508101906116409190612323565b9150915061164c611fa3565b61165c838363ffffffff61174e16565b9050611694735d9593586b4b5edbd23e7eba8d88fd8f09d83ebd61084373ddafbb505ad214d7b80b1f830fccc89b60fb7a8384611771565b6040517fa8c1b0bc000000000000000000000000000000000000000000000000000000008152735d9593586b4b5edbd23e7eba8d88fd8f09d83ebd9063a8c1b0bc906116e6908b908b906004016124f2565b600060405180830381600087803b15801561170057600080fd5b505af1158015611714573d6000803e3d6000fd5b505050505050505050505050565b61172a611fa3565b611732611fa3565b825184516117459163ffffffff611ba616565b81529392505050565b611756611fa3565b61175e611fa3565b825184516117459163ffffffff611bb416565b60008061177d84611bd9565b9050601281106117bb576117b361179b82601263ffffffff611ceb16565b600a0a6117a785611ba2565b9063ffffffff611d1316565b9150506106f6565b6117e76117cf60128363ffffffff611ceb16565b600a0a6117db85611ba2565b9063ffffffff611d4d16565b949350505050565b600061187f82856001600160a01b031663dd62ed3e30876040518363ffffffff1660e01b8152600401611823929190612466565b60206040518083038186803b15801561183b57600080fd5b505afa15801561184f573d6000803e3d6000fd5b505050506040513d601f19601f8201168201806040525081019061187391906123f2565b9063ffffffff611bb416565b90506119048463095ea7b360e01b85846040516024016118a0929190612480565b60408051601f198184030181529190526020810180517bffffffffffffffffffffffffffffffffffffffffffffffffffffffff167fffffffff0000000000000000000000000000000000000000000000000000000090931692909217909152611d7f565b50505050565b600080826000015112156119205750600161054a565b506000919050565b611930611fa3565b611938611fa3565b82516000131561194e57825160000381526106f6565b915182525090565b61195e611fa3565b611966611fa3565b825184516117459163ffffffff611e0e16565b6000611983611fb6565b604051630b33dc1960e41b8152735d9593586b4b5edbd23e7eba8d88fd8f09d83ebd9063b33dc190906119bc9087903090600401612466565b60c06040518083038186803b1580156119d457600080fd5b505afa1580156119e8573d6000803e3d6000fd5b505050506040513d601f19601f82011682018060405250810190611a0c9190612271565b9050611a16611fa3565b508051611a2a611a2582611928565b611ba2565b611a465760405162461bcd60e51b815260040161019190612ab0565b611a4f8161190a565b1515611a5a8561190a565b151514611adb57611a6a8461190a565b15611aab57611a90611a7b82611928565b611a8486611928565b9063ffffffff61142416565b60000b60011415611aa6576001925050506106f6565b611ad6565b611ac0611ab785611928565b611a8483611928565b60000b60011415611ad6576001925050506106f6565b611af3565b60405162461bcd60e51b81526004016101919061255e565b505092915050565b611b03611fa3565b611b0b611fa3565b611b23611b16611e1c565b849063ffffffff61142416565b60000b60001914611b465760405162461bcd60e51b815260040161019190612629565b8315611b6b57611b6483611b58611e1c565b9063ffffffff611e4016565b9050611b7a565b611b77836107ff611e1c565b90505b611b8a818663ffffffff61172216565b95945050505050565b60606106af8484600085611e63565b5190565b60006106f383836012611f24565b6000828201838110156106f35760405162461bcd60e51b8152600401610191906125f2565b6001600160a01b038116600090815260208190526040812054806106f65760408051600481526024810182526020810180517bffffffffffffffffffffffffffffffffffffffffffffffffffffffff167f313ce5670000000000000000000000000000000000000000000000000000000017905290516000916060916001600160a01b03871691611c6991612436565b600060405180830381855afa9150503d8060008114611ca4576040519150601f19603f3d011682016040523d82523d6000602084013e611ca9565b606091505b5091509150818015611cbb5750805115155b611cd75760405162461bcd60e51b815260040161019190612799565b80806020019051810190611b8a91906123f2565b600082821115611d0d5760405162461bcd60e51b815260040161019190612697565b50900390565b600082611d22575060006106f6565b82820282848281611d2f57fe5b04146106f35760405162461bcd60e51b815260040161019190612853565b6000808211611d6e5760405162461bcd60e51b815260040161019190612762565b818381611d7757fe5b049392505050565b6060611dd4826040518060400160405280602081526020017f5361666545524332303a206c6f772d6c6576656c2063616c6c206661696c6564815250856001600160a01b0316611b939092919063ffffffff16565b8051909150156102725780806020019051810190611df2919061219f565b6102725760405162461bcd60e51b815260040161019190612a53565b60006106f383836012611f42565b611e24611fa3565b6040518060200160405280611e396012611f61565b9052905090565b611e48611fa3565b611e50611fa3565b825184516117459163ffffffff611ceb16565b606082471015611e855760405162461bcd60e51b8152600401610191906126ce565b611e8e856113dc565b611eaa5760405162461bcd60e51b8152600401610191906129b0565b60006060866001600160a01b03168587604051611ec79190612436565b60006040518083038185875af1925050503d8060008114611f04576040519150601f19603f3d011682016040523d82523d6000602084013e611f09565b606091505b5091509150611f19828286611f6a565b979650505050505050565b60006106af611f3283611f61565b6117db868663ffffffff611d1316565b60006106af836117db611f5485611f61565b879063ffffffff611d1316565b60ff16600a0a90565b60608315611f795750816106b2565b825115611f895782518084602001fd5b8160405162461bcd60e51b815260040161019191906124a4565b6040518060200160405280600081525090565b6040518060c00160405280611fc9611fa3565b8152602001611fd6611fa3565b8152602001611fe3611fa3565b8152602001611ff0611fa3565b815260200160008152602001600081525090565b600060208284031215612015578081fd5b61201f6020612afa565b9135825250919050565b60006020828403121561203a578081fd5b6120446020612afa565b9151825250919050565b60006020828403121561205f578081fd5b81516106f381612b5a565b6000806040838503121561207c578081fd5b823561208781612b5a565b9150602083013561209781612b5a565b809150509250929050565b60008060008060008060c087890312156120ba578182fd5b86516120c581612b5a565b60208801519096506120d681612b5a565b6040880151909550600681106120ea578283fd5b60608801519094506120fb81612b6f565b608088015190935061210c81612b6f565b8092505060a087015190509295509295509295565b600080600060408486031215612135578283fd5b833561214081612b5a565b9250602084013567ffffffffffffffff8082111561215c578384fd5b81860187601f82011261216d578485fd5b803592508183111561217d578485fd5b87602084830101111561218e578485fd5b949760209095019650909450505050565b6000602082840312156121b0578081fd5b81516106f381612b6f565b600080604083850312156121cd578182fd5b82356121d881612b5a565b91506121e78460208501612004565b90509250929050565b600080600080600085870360a0811215612208578182fd5b863561221381612b5a565b95506020601f1982011215612226578182fd5b506122316020612afa565b6020870135815293506122478760408801612004565b92506122568760608801612004565b91506122658760808801612004565b90509295509295909350565b600060c08284031215612282578081fd5b61228c60c0612afa565b6122968484612029565b81526122a58460208501612029565b60208201526122b78460408501612029565b60408201526122c98460608501612029565b60608201526080830151608082015260a083015160a08201528091505092915050565b6000602082840312156122fd578081fd5b6106f38383612029565b60008060408385031215612319578182fd5b6121d88484612004565b60008060408385031215612335578182fd5b61233f8484612029565b91506121e78460208501612029565b600080600080600080600060e0888a031215612368578485fd5b6123728989612029565b96506123818960208a01612029565b95506123908960408a01612029565b945061239f8960608a01612029565b93506123ae8960808a01612029565b92506123bd8960a08a01612029565b91506123cc8960c08a01612029565b905092959891949750929550565b6000602082840312156123eb578081fd5b5035919050565b600060208284031215612403578081fd5b5051919050565b60008151808452612422816020860160208601612b21565b601f01601f19169290920160200192915050565b60008251612448818460208701612b21565b9190910192915050565b6001600160a01b0391909116815260200190565b6001600160a01b0392831681529116602082015260400190565b6001600160a01b03929092168252602082015260400190565b901515815260200190565b6000602082526106f3602083018461240a565b6001600160a01b038616815260a081016124d086612b4d565b6020820195909552925160408401529051606083015251608090910152919050565b6001600160a01b0392909216825251602082015260400190565b6040810161251984612b4d565b928152905160209091015290565b60208082526015908201527f4f72646572206e6f206c6f6e6765722076616c69640000000000000000000000604082015260600190565b6020808252602d908201527f237265647563654f6e6c793a2063616e6e6f7420696e6372656173652073697a60408201527f65206f6620706f736974696f6e00000000000000000000000000000000000000606082015260800190565b6020808252601c908201527f507269636520686173206e6f74206869742073746f7020707269636500000000604082015260600190565b6020808252601b908201527f536166654d6174683a206164646974696f6e206f766572666c6f770000000000604082015260600190565b60208082526012908201527f536c697070616765206d75737420626520250000000000000000000000000000604082015260600190565b60208082526014908201527f63616c6c20746f206e6f6e2d636f6e7472616374000000000000000000000000604082015260600190565b6020808252601e908201527f536166654d6174683a207375627472616374696f6e206f766572666c6f770000604082015260600190565b60208082526026908201527f416464726573733a20696e73756666696369656e742062616c616e636520666f60408201527f722063616c6c0000000000000000000000000000000000000000000000000000606082015260800190565b60208082526017908201527f496e76616c69642074617267657420636f6e7472616374000000000000000000604082015260600190565b6020808252601a908201527f536166654d6174683a206469766973696f6e206279207a65726f000000000000604082015260600190565b60208082526021908201527f446563696d616c45524332303a2067657420646563696d616c73206661696c6560408201527f6400000000000000000000000000000000000000000000000000000000000000606082015260800190565b6020808252602e908201527f496e697469616c697a61626c653a20636f6e747261637420697320616c72656160408201527f647920696e697469616c697a6564000000000000000000000000000000000000606082015260800190565b60208082526021908201527f536166654d6174683a206d756c7469706c69636174696f6e206f766572666c6f60408201527f7700000000000000000000000000000000000000000000000000000000000000606082015260800190565b6020808252818101527f4f776e61626c653a2063616c6c6572206973206e6f7420746865206f776e6572604082015260600190565b6020808252600d908201527f4f72646572206578706972656400000000000000000000000000000000000000604082015260600190565b6020808252601d908201527f507269636520686173206e6f7420686974206c696d6974207072696365000000604082015260600190565b60208082526021908201527f507269636520686173206e6f74206869742073746f706c696d6974207072696360408201527f6500000000000000000000000000000000000000000000000000000000000000606082015260800190565b6020808252601d908201527f416464726573733a2063616c6c20746f206e6f6e2d636f6e7472616374000000604082015260600190565b60208082526016908201527f496e636f727265637420736d6172742077616c6c657400000000000000000000604082015260600190565b6020808252818101527f4f6e6c7920657865637574652066726f6d20746865206f7264657220626f6f6b604082015260600190565b6020808252602a908201527f5361666545524332303a204552433230206f7065726174696f6e20646964206e60408201527f6f74207375636365656400000000000000000000000000000000000000000000606082015260800190565b6020808252601e908201527f237265647563654f6e6c793a2063757272656e742073697a6520697320300000604082015260600190565b9051815260200190565b90815260200190565b60405181810167ffffffffffffffff81118282101715612b1957600080fd5b604052919050565b60005b83811015612b3c578181015183820152602001612b24565b838111156119045750506000910152565b60028110612b5757fe5b50565b6001600160a01b0381168114612b5757600080fd5b8015158114612b5757600080fdfea2646970667358221220e9185c4e71d0214087b3abe76062cb713dd8b93428a91dcfb363b54194ee167b64736f6c63430006090033",
  "linkReferences": {},
  "deployedLinkReferences": {}
}