{
  "_format": "hh-sol-artifact-1",
  "contractName": "SmartWallet",
  "sourceName": "contracts/SmartWallet.sol",
  "abi": [
    {
      "anonymous": false,
      "inputs": [
        {
          "indexed": false,
          "internalType": "address",
          "name": "account",
          "type": "address"
        }
      ],
      "name": "Paused",
      "type": "event"
    },
    {
      "anonymous": false,
      "inputs": [
        {
          "indexed": false,
          "internalType": "address",
          "name": "account",
          "type": "address"
        }
      ],
      "name": "Unpaused",
      "type": "event"
    },
    {
      "inputs": [],
      "name": "OrderBook",
      "outputs": [
        {
          "internalType": "contract LimitOrderBook",
          "name": "",
          "type": "address"
        }
      ],
      "stateMutability": "view",
      "type": "function"
    },
    {
      "inputs": [
        {
          "internalType": "address",
          "name": "target",
          "type": "address"
        },
        {
          "internalType": "bytes",
          "name": "callData",
          "type": "bytes"
        }
      ],
      "name": "executeCall",
      "outputs": [
        {
          "internalType": "bytes",
          "name": "",
          "type": "bytes"
        }
      ],
      "stateMutability": "nonpayable",
      "type": "function"
    },
    {
      "inputs": [
        {
          "internalType": "contract IAmm",
          "name": "_asset",
          "type": "address"
        },
        {
          "components": [
            {
              "internalType": "uint256",
              "name": "d",
              "type": "uint256"
            }
          ],
          "internalType": "struct Decimal.decimal",
          "name": "_slippage",
          "type": "tuple"
        }
      ],
      "name": "executeClosePosition",
      "outputs": [],
      "stateMutability": "nonpayable",
      "type": "function"
    },
    {
      "inputs": [
        {
          "internalType": "contract IAmm",
          "name": "_asset",
          "type": "address"
        },
        {
          "components": [
            {
              "internalType": "int256",
              "name": "d",
              "type": "int256"
            }
          ],
          "internalType": "struct SignedDecimal.signedDecimal",
          "name": "_orderSize",
          "type": "tuple"
        },
        {
          "components": [
            {
              "internalType": "uint256",
              "name": "d",
              "type": "uint256"
            }
          ],
          "internalType": "struct Decimal.decimal",
          "name": "_collateral",
          "type": "tuple"
        },
        {
          "components": [
            {
              "internalType": "uint256",
              "name": "d",
              "type": "uint256"
            }
          ],
          "internalType": "struct Decimal.decimal",
          "name": "_leverage",
          "type": "tuple"
        },
        {
          "components": [
            {
              "internalType": "uint256",
              "name": "d",
              "type": "uint256"
            }
          ],
          "internalType": "struct Decimal.decimal",
          "name": "_slippage",
          "type": "tuple"
        }
      ],
      "name": "executeMarketOrder",
      "outputs": [],
      "stateMutability": "nonpayable",
      "type": "function"
    },
    {
      "inputs": [
        {
          "internalType": "uint256",
          "name": "order_id",
          "type": "uint256"
        }
      ],
      "name": "executeOrder",
      "outputs": [],
      "stateMutability": "nonpayable",
      "type": "function"
    },
    {
      "inputs": [],
      "name": "factory",
      "outputs": [
        {
          "internalType": "contract SmartWalletFactory",
          "name": "",
          "type": "address"
        }
      ],
      "stateMutability": "view",
      "type": "function"
    },
    {
      "inputs": [
        {
          "internalType": "address",
          "name": "_lob",
          "type": "address"
        },
        {
          "internalType": "address",
          "name": "_trader",
          "type": "address"
        }
      ],
      "name": "initialize",
      "outputs": [],
      "stateMutability": "nonpayable",
      "type": "function"
    },
    {
      "inputs": [],
      "name": "pauseWallet",
      "outputs": [],
      "stateMutability": "nonpayable",
      "type": "function"
    },
    {
      "inputs": [],
      "name": "paused",
      "outputs": [
        {
          "internalType": "bool",
          "name": "",
          "type": "bool"
        }
      ],
      "stateMutability": "view",
      "type": "function"
    },
    {
      "inputs": [],
      "name": "unpauseWallet",
      "outputs": [],
      "stateMutability": "nonpayable",
      "type": "function"
    }
  ],
  "bytecode": "0x608060405234801561001057600080fd5b506033805462ff000019169055612c7b8061002c6000396000f3fe608060405234801561001057600080fd5b50600436106100be5760003560e01c806394f6113411610076578063c45a01551161005b578063c45a015514610159578063e5da60f714610161578063f9d8e3c714610169576100be565b806394f6113414610126578063bca8c7b514610139576100be565b80635b6a8b43116100a75780635b6a8b43146100e05780635c975abb146100f357806365ead11114610111576100be565b80631e3d1029146100c3578063485cc955146100cd575b600080fd5b6100cb61017c565b005b6100cb6100db3660046120a6565b6101b9565b6100cb6100ee36600461222c565b6102da565b6100fb61033d565b60405161010891906124e2565b60405180910390f35b61011961034c565b604051610108919061249b565b6100cb610134366004612423565b610362565b61014c61014736600461215d565b6105f6565b60405161010891906124ed565b610119610760565b6100cb61076f565b6100cb6101773660046121f7565b6107a1565b6035546001600160a01b031633146101af5760405162461bcd60e51b81526004016101a6906129d5565b60405180910390fd5b6101b76107fe565b565b603354610100900460ff16806101d257506101d261086e565b806101e0575060335460ff16155b6101fc5760405162461bcd60e51b81526004016101a69061291b565b603354610100900460ff1615801561024557603380547fffffffffffffffffffffffffffffffffffffffffffffffffffffffffffffff0061ff0019909116610100171660011790555b603380546001600160a01b038086166301000000027fffffffffffffffffff0000000000000000000000000000000000000000ffffff90921691909117909155603480547fffffffffffffffffffffffff00000000000000000000000000000000000000009081163317909155603580549285169290911691909117905580156102d5576033805461ff00191690555b505050565b6035546001600160a01b031633146103045760405162461bcd60e51b81526004016101a6906129d5565b61030c61033d565b156103295760405162461bcd60e51b81526004016101a6906128e4565b610336858585858561087f565b5050505050565b60335462010000900460ff1690565b603354630100000090046001600160a01b031681565b61036a61033d565b156103875760405162461bcd60e51b81526004016101a6906128e4565b603354630100000090046001600160a01b031633146103b85760405162461bcd60e51b81526004016101a690612ae6565b600080600080603360039054906101000a90046001600160a01b03166001600160a01b0316634c5789e3866040518263ffffffff1660e01b81526004016103ff9190612bb9565b60c06040518083038186803b15801561041757600080fd5b505afa15801561042b573d6000803e3d6000fd5b505050506040513d601f19601f8201168201806040525081019061044f91906120de565b6034546040517fa0b73881000000000000000000000000000000000000000000000000000000008152959a509398509096509450309350506001600160a01b03169063a0b73881906104a590889060040161249b565b60206040518083038186803b1580156104bd57600080fd5b505afa1580156104d1573d6000803e3d6000fd5b505050506040513d601f19601f820116820180604052508101906104f5919061208a565b6001600160a01b03161461051b5760405162461bcd60e51b81526004016101a690612a78565b80158061052757508042105b6105435760405162461bcd60e51b81526004016101a690612a0a565b816105605760405162461bcd60e51b81526004016101a6906125de565b600183600581111561056e57fe5b14156105825761057d85610b27565b610336565b600283600581111561059057fe5b141561059f5761057d85610d7c565b60038360058111156105ad57fe5b14156105bc5761057d85610fa2565b60048360058111156105ca57fe5b14156105d95761057d85610d7c565b60058360058111156105e757fe5b14156103365761033685610fa2565b6035546060906001600160a01b031633146106235760405162461bcd60e51b81526004016101a6906129d5565b610635846001600160a01b031661121b565b6106515760405162461bcd60e51b81526004016101a6906126e0565b6034546040517f3af32abf0000000000000000000000000000000000000000000000000000000081526001600160a01b0390911690633af32abf9061069a90879060040161249b565b60206040518083038186803b1580156106b257600080fd5b505afa1580156106c6573d6000803e3d6000fd5b505050506040513d601f19601f820116820180604052508101906106ea91906121db565b6107065760405162461bcd60e51b81526004016101a6906127e2565b61075683838080601f016020809104026020016040519081016040528093929190818152602001838380828437600092019190915250506001600160a01b0388169291505063ffffffff61122516565b90505b9392505050565b6034546001600160a01b031681565b6035546001600160a01b031633146107995760405162461bcd60e51b81526004016101a6906129d5565b6101b7611270565b6035546001600160a01b031633146107cb5760405162461bcd60e51b81526004016101a6906129d5565b6107d361033d565b156107f05760405162461bcd60e51b81526004016101a6906128e4565b6107fa82826112cf565b5050565b61080661033d565b6108225760405162461bcd60e51b81526004016101a690612570565b6033805462ff0000191690557f5db9ee0a495bf2e6ff9c91a7834c1ba4fdd244a5e8aa4e537bd38aeae4b073aa61085761158e565b604051610864919061249b565b60405180910390a1565b60006108793061121b565b15905090565b610887611fdf565b61088f611fdf565b6001600160a01b03871663622679556108ae878763ffffffff61159216565b6040518263ffffffff1660e01b81526004016108ca9190612baf565b604080518083038186803b1580156108e157600080fd5b505afa1580156108f5573d6000803e3d6000fd5b505050506040513d601f19601f820116820180604052508101906109199190612343565b91509150610925611fdf565b61094582610939888663ffffffff6115be16565b9063ffffffff6115be16565b905061099f735d9593586b4b5edbd23e7eba8d88fd8f09d83ebd61097d73ddafbb505ad214d7b80b1f830fccc89b60fb7a83846115e1565b73ddafbb505ad214d7b80b1f830fccc89b60fb7a83919063ffffffff61165f16565b60006109aa8861177a565b6109b55760016109b8565b60005b90506109c2611fdf565b6109cb89611798565b90506109d5611fdf565b8a6001600160a01b031663da0c5927846109f05760006109f3565b60015b846040518363ffffffff1660e01b8152600401610a11929190612555565b60206040518083038186803b158015610a2957600080fd5b505afa158015610a3d573d6000803e3d6000fd5b505050506040513d601f19601f82011682018060405250810190610a619190612328565b9050610a6b611fdf565b50604080516020810190915260018152610a98610a9282610939858e63ffffffff6117c616565b8a6117e9565b9850735d9593586b4b5edbd23e7eba8d88fd8f09d83ebd63893d242d8d86610ac1576001610ac4565b60005b8d8d8d6040518663ffffffff1660e01b8152600401610ae7959493929190612500565b600060405180830381600087803b158015610b0157600080fd5b505af1158015610b15573d6000803e3d6000fd5b50505050505050505050505050505050565b610b2f611fdf565b610b37611fdf565b610b3f611fdf565b610b47611fdf565b610b4f611fdf565b60335460405163038da8b760e61b8152600091829163010000009091046001600160a01b03169063e36a2dc090610b8a908b90600401612bb9565b6101206040518083038186803b158015610ba357600080fd5b505afa158015610bb7573d6000803e3d6000fd5b505050506040513d601f19601f82011682018060405250810190610bdb919061236e565b9850985050975097509750975097505060008090508115610c0357610c008388611818565b90505b6000610c0e8861177a565b610c19576001610c1c565b60005b9050610c26611fdf565b846001600160a01b031663dc76fabc6040518163ffffffff1660e01b815260040160206040518083038186803b158015610c5f57600080fd5b505afa158015610c73573d6000803e3d6000fd5b505050506040513d601f19601f82011682018060405250810190610c979190612328565b90506001610cb3610ca661199a565b839063ffffffff6119b516565b60000b1215610cd45760405162461bcd60e51b81526004016101a69061274e565b81610ce157600019610ce4565b60015b600f0b610cf78b8363ffffffff6119b516565b60000b14610d175760405162461bcd60e51b81526004016101a690612aaf565b8215610d4357610d25611fdf565b610d31868c858a6119e6565b9050610d3d86826112cf565b50610d6f565b610d4b611fdf565b610d5e610d578b611798565b8489611b43565b9050610d6d868b8b8b8561087f565b505b5050505050505050505050565b610d84611fdf565b610d8c611fdf565b610d94611fdf565b610d9c611fdf565b60335460405163038da8b760e61b8152600091829163010000009091046001600160a01b03169063e36a2dc090610dd7908a90600401612bb9565b6101206040518083038186803b158015610df057600080fd5b505afa158015610e04573d6000803e3d6000fd5b505050506040513d601f19601f82011682018060405250810190610e28919061236e565b98509850505096509650965050955060008090508115610e4f57610e4c8387611818565b90505b6000610e5a8761177a565b610e65576001610e68565b60005b9050610e72611fdf565b846001600160a01b031663dc76fabc6040518163ffffffff1660e01b815260040160206040518083038186803b158015610eab57600080fd5b505afa158015610ebf573d6000803e3d6000fd5b505050506040513d601f19601f82011682018060405250810190610ee39190612328565b90506001610ef2610ca661199a565b60000b1215610f135760405162461bcd60e51b81526004016101a69061274e565b81610f2057600019610f23565b60015b600f0b610f36828b63ffffffff6119b516565b60000b14610f565760405162461bcd60e51b81526004016101a6906128ad565b8215610f7a57610f7585604051806020016040528060008152506112cf565b610f96565b610f96858989896040518060200160405280600081525061087f565b50505050505050505050565b610faa611fdf565b610fb2611fdf565b610fba611fdf565b610fc2611fdf565b610fca611fdf565b610fd2611fdf565b60335460405163038da8b760e61b8152600091829163010000009091046001600160a01b03169063e36a2dc09061100d908c90600401612bb9565b6101206040518083038186803b15801561102657600080fd5b505afa15801561103a573d6000803e3d6000fd5b505050506040513d601f19601f8201168201806040525081019061105e919061236e565b985098505097509750975097509750975060008090508115611087576110848388611818565b90505b60006110928861177a565b61109d5760016110a0565b60005b90506110aa611fdf565b846001600160a01b031663dc76fabc6040518163ffffffff1660e01b815260040160206040518083038186803b1580156110e357600080fd5b505afa1580156110f7573d6000803e3d6000fd5b505050506040513d601f19601f8201168201806040525081019061111b9190612328565b9050600161112a610ca661199a565b60000b121561114b5760405162461bcd60e51b81526004016101a69061274e565b816111585760001961115b565b60015b600f0b61116e8b8363ffffffff6119b516565b60000b1480156111a157508161118657600019611189565b60015b600f0b61119c828d63ffffffff6119b516565b60000b145b6111bd5760405162461bcd60e51b81526004016101a6906125a7565b82156111e9576111cb611fdf565b6111d7868c858a6119e6565b90506111e386826112cf565b50610d6d565b6111f1611fdf565b6111fd610d578b611798565b905061120c868b8b8b8561087f565b50505050505050505050505050565b803b15155b919050565b606061126783836040518060400160405280601e81526020017f416464726573733a206c6f772d6c6576656c2063616c6c206661696c65640000815250611bcf565b90505b92915050565b61127861033d565b156112955760405162461bcd60e51b81526004016101a6906128e4565b6033805462ff00001916620100001790557f62e78cea01bee320cd4e420270b5ea74000d11b0c9f74754ebdbfc544b05a25861085761158e565b6112d7611ff2565b604051630b33dc1960e41b8152735d9593586b4b5edbd23e7eba8d88fd8f09d83ebd9063b33dc1909061131090869030906004016124af565b60c06040518083038186803b15801561132857600080fd5b505afa15801561133c573d6000803e3d6000fd5b505050506040513d601f19601f8201168201806040525081019061136091906122ad565b905061136a611fdf565b508051611375611fdf565b846001600160a01b031663da0c5927600061138f85611bde565b1361139b57600161139e565b60005b6113a785611798565b6040518363ffffffff1660e01b81526004016113c4929190612555565b60206040518083038186803b1580156113dc57600080fd5b505afa1580156113f0573d6000803e3d6000fd5b505050506040513d601f19601f820116820180604052508101906114149190612328565b905061141e611fdf565b611426611fdf565b6040517f622679550000000000000000000000000000000000000000000000000000000081526001600160a01b0388169063622679559061146b908690600401612baf565b604080518083038186803b15801561148257600080fd5b505afa158015611496573d6000803e3d6000fd5b505050506040513d601f19601f820116820180604052508101906114ba9190612343565b915091506114c6611fdf565b6114d6838363ffffffff6115be16565b905061150e735d9593586b4b5edbd23e7eba8d88fd8f09d83ebd61097d73ddafbb505ad214d7b80b1f830fccc89b60fb7a83846115e1565b6040517fa8c1b0bc000000000000000000000000000000000000000000000000000000008152735d9593586b4b5edbd23e7eba8d88fd8f09d83ebd9063a8c1b0bc90611560908b908b9060040161253b565b600060405180830381600087803b15801561157a57600080fd5b505af1158015610d6d573d6000803e3d6000fd5b3390565b61159a611fdf565b6115a2611fdf565b825184516115b59163ffffffff611be216565b81529392505050565b6115c6611fdf565b6115ce611fdf565b825184516115b59163ffffffff611bf016565b6000806115ed84611c15565b90506012811061162b5761162361160b82601263ffffffff611d2716565b600a0a61161785611bde565b9063ffffffff611d4f16565b91505061126a565b61165761163f60128363ffffffff611d2716565b600a0a61164b85611bde565b9063ffffffff611d8916565b949350505050565b60006116ef82856001600160a01b031663dd62ed3e30876040518363ffffffff1660e01b81526004016116939291906124af565b60206040518083038186803b1580156116ab57600080fd5b505afa1580156116bf573d6000803e3d6000fd5b505050506040513d601f19601f820116820180604052508101906116e3919061243b565b9063ffffffff611bf016565b90506117748463095ea7b360e01b85846040516024016117109291906124c9565b60408051601f198184030181529190526020810180517bffffffffffffffffffffffffffffffffffffffffffffffffffffffff167fffffffff0000000000000000000000000000000000000000000000000000000090931692909217909152611dbb565b50505050565b6000808260000151121561179057506001611220565b506000919050565b6117a0611fdf565b6117a8611fdf565b8251600013156117be578251600003815261126a565b915182525090565b6117ce611fdf565b6117d6611fdf565b825184516115b59163ffffffff611e4a16565b6117f1611fdf565b6001611803848463ffffffff6119b516565b60000b12156118125782611267565b50919050565b6000611822611ff2565b604051630b33dc1960e41b8152735d9593586b4b5edbd23e7eba8d88fd8f09d83ebd9063b33dc1909061185b90879030906004016124af565b60c06040518083038186803b15801561187357600080fd5b505afa158015611887573d6000803e3d6000fd5b505050506040513d601f19601f820116820180604052508101906118ab91906122ad565b90506118b5611fdf565b5080516118c96118c482611798565b611bde565b6118e55760405162461bcd60e51b81526004016101a690612b78565b6118ee8161177a565b15156118f98561177a565b15151461197a576119098461177a565b1561194a5761192f61191a82611798565b61192386611798565b9063ffffffff6119b516565b60000b600114156119455760019250505061126a565b611975565b61195f61195685611798565b61192383611798565b60000b600114156119755760019250505061126a565b611992565b60405162461bcd60e51b81526004016101a690612615565b505092915050565b6119a2611fdf565b5060408051602081019091526000815290565b8051825160009110156119ca5750600161126a565b8151835110156119dd575060001961126a565b50600092915050565b6119ee611fdf565b6119f6611ff2565b604051630b33dc1960e41b8152735d9593586b4b5edbd23e7eba8d88fd8f09d83ebd9063b33dc19090611a2f90899030906004016124af565b60c06040518083038186803b158015611a4757600080fd5b505afa158015611a5b573d6000803e3d6000fd5b505050506040513d601f19601f82011682018060405250810190611a7f91906122ad565b9050611a89611fdf565b508051611a94611fdf565b611aad87611aa184611798565b9063ffffffff61159216565b9050611ab7611fdf565b611acf611ac2611e58565b879063ffffffff6119b516565b60000b60001914611af25760405162461bcd60e51b81526004016101a6906126a9565b8615611b1757611b1086611b04611e58565b9063ffffffff611e7c16565b9050611b26565b611b2386610939611e58565b90505b611b36818363ffffffff61159216565b9998505050505050505050565b611b4b611fdf565b611b53611fdf565b611b6b611b5e611e58565b849063ffffffff6119b516565b60000b60001914611b8e5760405162461bcd60e51b81526004016101a6906126a9565b8315611ba757611ba083611b04611e58565b9050611bb6565b611bb383610939611e58565b90505b611bc6818663ffffffff61159216565b95945050505050565b60606107568484600085611e9f565b5190565b600061126783836012611f60565b6000828201838110156112675760405162461bcd60e51b81526004016101a690612672565b6001600160a01b0381166000908152602081905260408120548061126a5760408051600481526024810182526020810180517bffffffffffffffffffffffffffffffffffffffffffffffffffffffff167f313ce5670000000000000000000000000000000000000000000000000000000017905290516000916060916001600160a01b03871691611ca59161247f565b600060405180830381855afa9150503d8060008114611ce0576040519150601f19603f3d011682016040523d82523d6000602084013e611ce5565b606091505b5091509150818015611cf75750805115155b611d135760405162461bcd60e51b81526004016101a690612850565b80806020019051810190611bc6919061243b565b600082821115611d495760405162461bcd60e51b81526004016101a690612717565b50900390565b600082611d5e5750600061126a565b82820282848281611d6b57fe5b04146112675760405162461bcd60e51b81526004016101a690612978565b6000808211611daa5760405162461bcd60e51b81526004016101a690612819565b818381611db357fe5b049392505050565b6060611e10826040518060400160405280602081526020017f5361666545524332303a206c6f772d6c6576656c2063616c6c206661696c6564815250856001600160a01b0316611bcf9092919063ffffffff16565b8051909150156102d55780806020019051810190611e2e91906121db565b6102d55760405162461bcd60e51b81526004016101a690612b1b565b600061126783836012611f7e565b611e60611fdf565b6040518060200160405280611e756012611f9d565b9052905090565b611e84611fdf565b611e8c611fdf565b825184516115b59163ffffffff611d2716565b606082471015611ec15760405162461bcd60e51b81526004016101a690612785565b611eca8561121b565b611ee65760405162461bcd60e51b81526004016101a690612a41565b60006060866001600160a01b03168587604051611f03919061247f565b60006040518083038185875af1925050503d8060008114611f40576040519150601f19603f3d011682016040523d82523d6000602084013e611f45565b606091505b5091509150611f55828286611fa6565b979650505050505050565b6000610756611f6e83611f9d565b61164b868663ffffffff611d4f16565b60006107568361164b611f9085611f9d565b879063ffffffff611d4f16565b60ff16600a0a90565b60608315611fb5575081610759565b825115611fc55782518084602001fd5b8160405162461bcd60e51b81526004016101a691906124ed565b6040518060200160405280600081525090565b6040518060c00160405280612005611fdf565b8152602001612012611fdf565b815260200161201f611fdf565b815260200161202c611fdf565b815260200160008152602001600081525090565b600060208284031215612051578081fd5b61205b6020612bc2565b9135825250919050565b600060208284031215612076578081fd5b6120806020612bc2565b9151825250919050565b60006020828403121561209b578081fd5b815161126781612c22565b600080604083850312156120b8578081fd5b82356120c381612c22565b915060208301356120d381612c22565b809150509250929050565b60008060008060008060c087890312156120f6578182fd5b865161210181612c22565b602088015190965061211281612c22565b604088015190955060068110612126578283fd5b606088015190945061213781612c37565b608088015190935061214881612c37565b8092505060a087015190509295509295509295565b600080600060408486031215612171578283fd5b833561217c81612c22565b9250602084013567ffffffffffffffff80821115612198578384fd5b81860187601f8201126121a9578485fd5b80359250818311156121b9578485fd5b8760208483010111156121ca578485fd5b949760209095019650909450505050565b6000602082840312156121ec578081fd5b815161126781612c37565b60008060408385031215612209578182fd5b823561221481612c22565b91506122238460208501612040565b90509250929050565b600080600080600085870360a0811215612244578182fd5b863561224f81612c22565b95506020601f1982011215612262578182fd5b5061226d6020612bc2565b6020870135815293506122838760408801612040565b92506122928760608801612040565b91506122a18760808801612040565b90509295509295909350565b600060c082840312156122be578081fd5b6122c860c0612bc2565b6122d28484612065565b81526122e18460208501612065565b60208201526122f38460408501612065565b60408201526123058460608501612065565b60608201526080830151608082015260a083015160a08201528091505092915050565b600060208284031215612339578081fd5b6112678383612065565b60008060408385031215612355578182fd5b61235f8484612065565b91506122238460208501612065565b60008060008060008060008060006101208a8c03121561238c578687fd5b6123968b8b612065565b98506123a58b60208c01612065565b97506123b48b60408c01612065565b96506123c38b60608c01612065565b95506123d28b60808c01612065565b94506123e18b60a08c01612065565b93506123f08b60c08c01612065565b925060e08a015161240081612c22565b6101008b015190925061241281612c37565b809150509295985092959850929598565b600060208284031215612434578081fd5b5035919050565b60006020828403121561244c578081fd5b5051919050565b6000815180845261246b816020860160208601612be9565b601f01601f19169290920160200192915050565b60008251612491818460208701612be9565b9190910192915050565b6001600160a01b0391909116815260200190565b6001600160a01b0392831681529116602082015260400190565b6001600160a01b03929092168252602082015260400190565b901515815260200190565b6000602082526112676020830184612453565b6001600160a01b038616815260a0810161251986612c15565b6020820195909552925160408401529051606083015251608090910152919050565b6001600160a01b0392909216825251602082015260400190565b6040810161256284612c15565b928152905160209091015290565b60208082526014908201527f5061757361626c653a206e6f7420706175736564000000000000000000000000604082015260600190565b6020808252601c908201527f496e76616c69642073746f702d6c696d697420636f6e646974696f6e00000000604082015260600190565b60208082526015908201527f4f72646572206e6f206c6f6e6765722076616c69640000000000000000000000604082015260600190565b6020808252602d908201527f237265647563654f6e6c793a2063616e6e6f7420696e6372656173652073697a60408201527f65206f6620706f736974696f6e00000000000000000000000000000000000000606082015260800190565b6020808252601b908201527f536166654d6174683a206164646974696f6e206f766572666c6f770000000000604082015260600190565b60208082526012908201527f536c697070616765206d75737420626520250000000000000000000000000000604082015260600190565b60208082526014908201527f63616c6c20746f206e6f6e2d636f6e7472616374000000000000000000000000604082015260600190565b6020808252601e908201527f536166654d6174683a207375627472616374696f6e206f766572666c6f770000604082015260600190565b60208082526018908201527f4572726f722067657474696e67206d61726b2070726963650000000000000000604082015260600190565b60208082526026908201527f416464726573733a20696e73756666696369656e742062616c616e636520666f60408201527f722063616c6c0000000000000000000000000000000000000000000000000000606082015260800190565b60208082526017908201527f496e76616c69642074617267657420636f6e7472616374000000000000000000604082015260600190565b6020808252601a908201527f536166654d6174683a206469766973696f6e206279207a65726f000000000000604082015260600190565b60208082526021908201527f446563696d616c45524332303a2067657420646563696d616c73206661696c6560408201527f6400000000000000000000000000000000000000000000000000000000000000606082015260800190565b6020808252601d908201527f496e76616c69642073746f70206f7264657220636f6e646974696f6e73000000604082015260600190565b60208082526010908201527f5061757361626c653a2070617573656400000000000000000000000000000000604082015260600190565b6020808252602e908201527f496e697469616c697a61626c653a20636f6e747261637420697320616c72656160408201527f647920696e697469616c697a6564000000000000000000000000000000000000606082015260800190565b60208082526021908201527f536166654d6174683a206d756c7469706c69636174696f6e206f766572666c6f60408201527f7700000000000000000000000000000000000000000000000000000000000000606082015260800190565b6020808252818101527f4f776e61626c653a2063616c6c6572206973206e6f7420746865206f776e6572604082015260600190565b6020808252600d908201527f4f72646572206578706972656400000000000000000000000000000000000000604082015260600190565b6020808252601d908201527f416464726573733a2063616c6c20746f206e6f6e2d636f6e7472616374000000604082015260600190565b60208082526016908201527f496e636f727265637420736d6172742077616c6c657400000000000000000000604082015260600190565b6020808252601d908201527f496e76616c6964206c696d6974206f7264657220636f6e646974696f6e000000604082015260600190565b6020808252818101527f4f6e6c7920657865637574652066726f6d20746865206f7264657220626f6f6b604082015260600190565b6020808252602a908201527f5361666545524332303a204552433230206f7065726174696f6e20646964206e60408201527f6f74207375636365656400000000000000000000000000000000000000000000606082015260800190565b6020808252601e908201527f237265647563654f6e6c793a2063757272656e742073697a6520697320300000604082015260600190565b9051815260200190565b90815260200190565b60405181810167ffffffffffffffff81118282101715612be157600080fd5b604052919050565b60005b83811015612c04578181015183820152602001612bec565b838111156117745750506000910152565b60028110612c1f57fe5b50565b6001600160a01b0381168114612c1f57600080fd5b8015158114612c1f57600080fdfea2646970667358221220a10629e2bf59ee30fbf51eafb8ee56325e452fd255c6eb8618eae876141be0a764736f6c63430006090033",
  "linkReferences": {},
  "deployedLinkReferences": {}
}