{
  "_format": "hh-sol-artifact-1",
  "contractName": "SmartWallet",
  "sourceName": "contracts/SmartWallet.sol",
  "abi": [
    {
      "anonymous": false,
      "inputs": [
        {
          "indexed": true,
          "internalType": "address",
          "name": "previousOwner",
          "type": "address"
        },
        {
          "indexed": true,
          "internalType": "address",
          "name": "newOwner",
          "type": "address"
        }
      ],
      "name": "OwnershipTransferred",
      "type": "event"
    },
    {
      "inputs": [],
      "name": "approveAll",
      "outputs": [],
      "stateMutability": "nonpayable",
      "type": "function"
    },
    {
      "inputs": [
        {
          "internalType": "address",
          "name": "target",
          "type": "address"
        },
        {
          "internalType": "bytes",
          "name": "callData",
          "type": "bytes"
        }
      ],
      "name": "executeCall",
      "outputs": [
        {
          "internalType": "bytes",
          "name": "",
          "type": "bytes"
        }
      ],
      "stateMutability": "nonpayable",
      "type": "function"
    },
    {
      "inputs": [
        {
          "internalType": "uint256",
          "name": "order_id",
          "type": "uint256"
        }
      ],
      "name": "executeOrder",
      "outputs": [
        {
          "internalType": "bool",
          "name": "",
          "type": "bool"
        }
      ],
      "stateMutability": "nonpayable",
      "type": "function"
    },
    {
      "inputs": [
        {
          "components": [
            {
              "internalType": "uint256",
              "name": "d",
              "type": "uint256"
            }
          ],
          "internalType": "struct Decimal.decimal",
          "name": "a",
          "type": "tuple"
        },
        {
          "components": [
            {
              "internalType": "uint256",
              "name": "d",
              "type": "uint256"
            }
          ],
          "internalType": "struct Decimal.decimal",
          "name": "b",
          "type": "tuple"
        }
      ],
      "name": "minD",
      "outputs": [
        {
          "components": [
            {
              "internalType": "uint256",
              "name": "d",
              "type": "uint256"
            }
          ],
          "internalType": "struct Decimal.decimal",
          "name": "",
          "type": "tuple"
        }
      ],
      "stateMutability": "pure",
      "type": "function"
    },
    {
      "inputs": [
        {
          "components": [
            {
              "internalType": "int256",
              "name": "d",
              "type": "int256"
            }
          ],
          "internalType": "struct SignedDecimal.signedDecimal",
          "name": "a",
          "type": "tuple"
        },
        {
          "components": [
            {
              "internalType": "int256",
              "name": "d",
              "type": "int256"
            }
          ],
          "internalType": "struct SignedDecimal.signedDecimal",
          "name": "b",
          "type": "tuple"
        }
      ],
      "name": "minSD",
      "outputs": [
        {
          "components": [
            {
              "internalType": "int256",
              "name": "d",
              "type": "int256"
            }
          ],
          "internalType": "struct SignedDecimal.signedDecimal",
          "name": "",
          "type": "tuple"
        }
      ],
      "stateMutability": "pure",
      "type": "function"
    },
    {
      "inputs": [],
      "name": "owner",
      "outputs": [
        {
          "internalType": "address",
          "name": "",
          "type": "address"
        }
      ],
      "stateMutability": "view",
      "type": "function"
    },
    {
      "inputs": [],
      "name": "renounceOwnership",
      "outputs": [],
      "stateMutability": "nonpayable",
      "type": "function"
    },
    {
      "inputs": [
        {
          "internalType": "contract SmartWalletFactory",
          "name": "_addr",
          "type": "address"
        }
      ],
      "name": "setFactory",
      "outputs": [],
      "stateMutability": "nonpayable",
      "type": "function"
    },
    {
      "inputs": [
        {
          "internalType": "address",
          "name": "_addr",
          "type": "address"
        }
      ],
      "name": "setOrderBook",
      "outputs": [],
      "stateMutability": "nonpayable",
      "type": "function"
    },
    {
      "inputs": [
        {
          "internalType": "address",
          "name": "newOwner",
          "type": "address"
        }
      ],
      "name": "transferOwnership",
      "outputs": [],
      "stateMutability": "nonpayable",
      "type": "function"
    }
  ],
  "bytecode": "0x608060405234801561001057600080fd5b5060006100246001600160e01b0361007316565b600080546001600160a01b0319166001600160a01b0383169081178255604051929350917f8be0079c531659141344cd1fd0a4f28419497f9722a3daafe3b4186f6b6457e0908290a350610077565b3390565b611948806100866000396000f3fe608060405234801561001057600080fd5b50600436106100be5760003560e01c806394f6113411610076578063bca8c7b51161005b578063bca8c7b514610159578063cca9dfa914610179578063f2fde38b1461018c576100be565b806394f61134146101265780639a1598c814610146576100be565b80635bb47808116100a75780635bb47808146100f6578063715018a6146101095780638da5cb5b14610111576100be565b80632a8656d2146100c3578063380d0c08146100ec575b600080fd5b6100d66100d1366004611362565b61019f565b6040516100e391906118ab565b60405180910390f35b6100f46101e3565b005b6100f461010436600461117b565b610352565b6100f46103b3565b610119610449565b6040516100e39190611495565b610139610134366004611422565b610458565b6040516100e391906114c2565b6100f461015436600461117b565b6106ad565b61016c610167366004611232565b610705565b6040516100e391906114cd565b6100d6610187366004611362565b6107ec565b6100f461019a36600461117b565b610804565b6101a76110d0565b6101c86101b3836108d1565b6101bc856108d1565b9063ffffffff6108ff16565b60000b6001146101d857826101da565b815b90505b92915050565b6040517f095ea7b300000000000000000000000000000000000000000000000000000000815273ddafbb505ad214d7b80b1f830fccc89b60fb7a839063095ea7b39061024b90735d9593586b4b5edbd23e7eba8d88fd8f09d83ebd90600019906004016114a9565b602060405180830381600087803b15801561026557600080fd5b505af1158015610279573d6000803e3d6000fd5b505050506040513d601f19601f8201168201806040525081019061029d91906112b0565b506002546040517f095ea7b300000000000000000000000000000000000000000000000000000000815273ddafbb505ad214d7b80b1f830fccc89b60fb7a839163095ea7b3916102fd916001600160a01b031690600019906004016114a9565b602060405180830381600087803b15801561031757600080fd5b505af115801561032b573d6000803e3d6000fd5b505050506040513d601f19601f8201168201806040525081019061034f91906112b0565b50565b6002546001600160a01b0316156103845760405162461bcd60e51b815260040161037b906117ab565b60405180910390fd5b6002805473ffffffffffffffffffffffffffffffffffffffff19166001600160a01b0392909216919091179055565b6103bb610930565b6001600160a01b03166103cc610449565b6001600160a01b0316146103f25760405162461bcd60e51b815260040161037b9061173f565b600080546040516001600160a01b03909116907f8be0079c531659141344cd1fd0a4f28419497f9722a3daafe3b4186f6b6457e0908390a36000805473ffffffffffffffffffffffffffffffffffffffff19169055565b6000546001600160a01b031690565b6001546000906001600160a01b031633146104855760405162461bcd60e51b815260040161037b90611819565b6104c46040518060400160405280600d81526020017f2d2d53573a204f7264657220230000000000000000000000000000000000000081525083610934565b6001546040517f4c5789e30000000000000000000000000000000000000000000000000000000081526000918291829182916001600160a01b0390911690634c5789e3906105169089906004016118b5565b60c06040518083038186803b15801561052e57600080fd5b505afa158015610542573d6000803e3d6000fd5b505050506040513d601f19601f8201168201806040525081019061056691906111b3565b6002546040517fa0b73881000000000000000000000000000000000000000000000000000000008152959a509398509096509450309350506001600160a01b03169063a0b73881906105bc908890600401611495565b60206040518083038186803b1580156105d457600080fd5b505afa1580156105e8573d6000803e3d6000fd5b505050506040513d601f19601f8201168201806040525081019061060c9190611197565b6001600160a01b0316146106325760405162461bcd60e51b815260040161037b906117e2565b80158061063e57508042105b61065a5760405162461bcd60e51b815260040161037b90611774565b816106775760405162461bcd60e51b815260040161037b906115a9565b600183600381111561068557fe5b141561069f57610694866109ab565b9450505050506106a8565b60009450505050505b919050565b6001546001600160a01b0316156106d65760405162461bcd60e51b815260040161037b90611572565b6001805473ffffffffffffffffffffffffffffffffffffffff19166001600160a01b0392909216919091179055565b606061070f610930565b6001600160a01b0316610720610449565b6001600160a01b0316146107465760405162461bcd60e51b815260040161037b9061173f565b61074f84610edb565b61076b5760405162461bcd60e51b815260040161037b9061163d565b60006060856001600160a01b03168585604051610789929190611485565b6000604051808303816000865af19150503d80600081146107c6576040519150601f19603f3d011682016040523d82523d6000602084013e6107cb565b606091505b509092509050816107e3576040513d806000833e8082fd5b95945050505050565b6107f46110d0565b6101c8838363ffffffff6108ff16565b61080c610930565b6001600160a01b031661081d610449565b6001600160a01b0316146108435760405162461bcd60e51b815260040161037b9061173f565b6001600160a01b0381166108695760405162461bcd60e51b815260040161037b906115e0565b600080546040516001600160a01b03808516939216917f8be0079c531659141344cd1fd0a4f28419497f9722a3daafe3b4186f6b6457e091a36000805473ffffffffffffffffffffffffffffffffffffffff19166001600160a01b0392909216919091179055565b6108d96110d0565b6108e16110d0565b8251600013156108f757825160000381526101dd565b915182525090565b805182516000911015610914575060016101dd565b81518351101561092757506000196101dd565b50600092915050565b3390565b6109a7828260405160240161094a929190611550565b60408051601f198184030181529190526020810180517bffffffffffffffffffffffffffffffffffffffffffffffffffffffff167f9710a9d000000000000000000000000000000000000000000000000000000000179052610ee1565b5050565b60006109b56110d0565b6109bd6110d0565b6109c56110d0565b6109cd6110d0565b6109d56110d0565b6001546040517fe36a2dc00000000000000000000000000000000000000000000000000000000081526001600160a01b039091169063e36a2dc090610a1e908a906004016118b5565b60e06040518083038186803b158015610a3657600080fd5b505afa158015610a4a573d6000803e3d6000fd5b505050506040513d601f19601f82011682018060405250810190610a6e9190611396565b506001546040517f4c5789e3000000000000000000000000000000000000000000000000000000008152969b50939950919750955093506000928392506001600160a01b0390911690634c5789e390610acb908c906004016118b5565b60c06040518083038186803b158015610ae357600080fd5b505afa158015610af7573d6000803e3d6000fd5b505050506040513d601f19601f82011682018060405250810190610b1b91906111b3565b50509350505091508015610c7b57610b316110e3565b6040517fb33dc190000000000000000000000000000000000000000000000000000000008152735d9593586b4b5edbd23e7eba8d88fd8f09d83ebd9063b33dc19090610b8390869030906004016114e0565b60c06040518083038186803b158015610b9b57600080fd5b505afa158015610baf573d6000803e3d6000fd5b505050506040513d601f19601f82011682018060405250810190610bd391906112cc565b9050610bdd6110d0565b508051610be981610f02565b1515610bf489610f02565b151514610c6657610c0488610f02565b610c1757610c12818961019f565b610c38565b610c38610c24828a61019f565b610c2c610f20565b9063ffffffff610f3b16565b9750610c4b610c46896108d1565b610f67565b610c6157600099505050505050505050506106a8565b610c78565b600099505050505050505050506106a8565b50505b6000610c8687610f02565b159050610c916110d0565b836001600160a01b031663dc76fabc6040518163ffffffff1660e01b815260040160206040518083038186803b158015610cca57600080fd5b505afa158015610cde573d6000803e3d6000fd5b505050506040513d601f19601f82011682018060405250810190610d029190611347565b9050600082610d1357600019610d16565b60015b600f0b610d298b8463ffffffff6108ff16565b60000b1490508015610eb657610d3d6110d0565b610d468a6108d1565b9050610d506110d0565b866001600160a01b031663da0c592786610d6b576000610d6e565b60015b846040518363ffffffff1660e01b8152600401610d8c929190611535565b60206040518083038186803b158015610da457600080fd5b505afa158015610db8573d6000803e3d6000fd5b505050506040513d601f19601f82011682018060405250810190610ddc9190611347565b9050610de788610f67565b15610e1157604080516020810190915260018152610e0c90899063ffffffff610f6b16565b610e13565b875b9750610e2e610e28828c63ffffffff610f8e16565b8a6107ec565b9850735d9593586b4b5edbd23e7eba8d88fd8f09d83ebd63893d242d8887610e57576001610e5a565b60005b8d8d8d6040518663ffffffff1660e01b8152600401610e7d9594939291906114fa565b600060405180830381600087803b158015610e9757600080fd5b505af1158015610eab573d6000803e3d6000fd5b505050505050610ec9565b60009a50505050505050505050506106a8565b5060019b9a5050505050505050505050565b3b151590565b80516a636f6e736f6c652e6c6f67602083016000808483855afa5050505050565b60008082600001511215610f18575060016106a8565b506000919050565b610f286110d0565b5060408051602081019091526000815290565b610f436110d0565b610f4b6110d0565b82518451610f5e9163ffffffff610fb116565b81529392505050565b5190565b610f736110d0565b610f7b6110d0565b82518451610f5e9163ffffffff610ff716565b610f966110d0565b610f9e6110d0565b82518451610f5e9163ffffffff61101f16565b6000818303818312801590610fc65750838113155b80610fdb5750600083128015610fdb57508381135b6101da5760405162461bcd60e51b815260040161037b9061184e565b6000828211156110195760405162461bcd60e51b815260040161037b90611674565b50900390565b60006101da8383601260006110538361104761103a8561105b565b879063ffffffff61106416565b9063ffffffff61109e16565b949350505050565b60ff16600a0a90565b600082611073575060006101dd565b8282028284828161108057fe5b04146101da5760405162461bcd60e51b815260040161037b906116e2565b60008082116110bf5760405162461bcd60e51b815260040161037b906116ab565b8183816110c857fe5b049392505050565b6040518060200160405280600081525090565b6040518060c001604052806110f66110d0565b81526020016111036110d0565b81526020016111106110d0565b815260200161111d6110d0565b815260200160008152602001600081525090565b600060208284031215611142578081fd5b61114c60206118be565b9135825250919050565b600060208284031215611167578081fd5b61117160206118be565b9151825250919050565b60006020828403121561118c578081fd5b81356101da816118ef565b6000602082840312156111a8578081fd5b81516101da816118ef565b60008060008060008060c087890312156111cb578182fd5b86516111d6816118ef565b60208801519096506111e7816118ef565b6040880151909550600481106111fb578283fd5b606088015190945061120c81611904565b608088015190935061121d81611904565b8092505060a087015190509295509295509295565b600080600060408486031215611246578283fd5b8335611251816118ef565b9250602084013567ffffffffffffffff8082111561126d578384fd5b81860187601f82011261127e578485fd5b803592508183111561128e578485fd5b87602084830101111561129f578485fd5b949760209095019650909450505050565b6000602082840312156112c1578081fd5b81516101da81611904565b600060c082840312156112dd578081fd5b6112e760c06118be565b6112f18484611156565b81526113008460208501611156565b60208201526113128460408501611156565b60408201526113248460608501611156565b60608201526080830151608082015260a083015160a08201528091505092915050565b600060208284031215611358578081fd5b6101da8383611156565b60008060408385031215611374578182fd5b61137e8484611131565b915061138d8460208501611131565b90509250929050565b600080600080600080600060e0888a0312156113b0578081fd5b6113ba8989611156565b96506113c98960208a01611156565b95506113d88960408a01611156565b94506113e78960608a01611156565b93506113f68960808a01611156565b92506114058960a08a01611156565b91506114148960c08a01611156565b905092959891949750929550565b600060208284031215611433578081fd5b5035919050565b60008151808452815b8181101561145f57602081850181015186830182015201611443565b818111156114705782602083870101525b50601f01601f19169290920160200192915050565b6000828483379101908152919050565b6001600160a01b0391909116815260200190565b6001600160a01b03929092168252602082015260400190565b901515815260200190565b6000602082526101da602083018461143a565b6001600160a01b0392831681529116602082015260400190565b6001600160a01b038616815260a08101611513866118e5565b6020820195909552925160408401529051606083015251608090910152919050565b60408101611542846118e5565b928152905160209091015290565b600060408252611563604083018561143a565b90508260208301529392505050565b60208082526018908201527f4c4f422068617320616c7265616479206265656e207365740000000000000000604082015260600190565b60208082526015908201527f4f72646572206e6f206c6f6e6765722076616c69640000000000000000000000604082015260600190565b60208082526026908201527f4f776e61626c653a206e6577206f776e657220697320746865207a65726f206160408201527f6464726573730000000000000000000000000000000000000000000000000000606082015260800190565b60208082526014908201527f63616c6c20746f206e6f6e2d636f6e7472616374000000000000000000000000604082015260600190565b6020808252601e908201527f536166654d6174683a207375627472616374696f6e206f766572666c6f770000604082015260600190565b6020808252601a908201527f536166654d6174683a206469766973696f6e206279207a65726f000000000000604082015260600190565b60208082526021908201527f536166654d6174683a206d756c7469706c69636174696f6e206f766572666c6f60408201527f7700000000000000000000000000000000000000000000000000000000000000606082015260800190565b6020808252818101527f4f776e61626c653a2063616c6c6572206973206e6f7420746865206f776e6572604082015260600190565b6020808252600d908201527f4f72646572206578706972656400000000000000000000000000000000000000604082015260600190565b60208082526018908201527f5357462068617320616c7265616479206265656e207365740000000000000000604082015260600190565b60208082526016908201527f496e636f727265637420736d6172742077616c6c657400000000000000000000604082015260600190565b6020808252818101527f4f6e6c7920657865637574652066726f6d20746865206f7264657220626f6f6b604082015260600190565b60208082526024908201527f5369676e6564536166654d6174683a207375627472616374696f6e206f76657260408201527f666c6f7700000000000000000000000000000000000000000000000000000000606082015260800190565b9051815260200190565b90815260200190565b60405181810167ffffffffffffffff811182821017156118dd57600080fd5b604052919050565b6002811061034f57fe5b6001600160a01b038116811461034f57600080fd5b801515811461034f57600080fdfea2646970667358221220c3a283adb4530e7aef6f2f28b91664382c58d27f7118b976a0f9add005e372b164736f6c63430006090033",
  "linkReferences": {},
  "deployedLinkReferences": {}
}